S02100006275696C642F64656275672F6F742D6E63702D6D74642D6370632E73333738
S214004000081800207B4C0200F9C50300FDC503001C
S2140040106946020001C6030009C60300C53F020048
S214004020C53F0200C53F0200C53F0200C53F020073
S2140040300DC6030020960400C53F0200C53F0200DF
S214004040C53F0200C53F0200C53F020011760200D0
S214004050C53F0200C53F0200C53F0200C53F020043
S214004060C53F0200C53F0200CDE70000C53F020085
S214004070557F0200C53F0200C53F0200C53F020053
S214004080C53F0200C53F0200C53F0200C53F020013
S214004090C53F02005D400200C53F0200C53F02006A
S2140040A0C53F02003D4002001D400200C53F020021
S2140040B0C53F0200C53F0200C53F02006D36040042
S2140040C02757040023570400B52D04003D5704006D
S2140040D02B5704002D3604002F5704001D1B040028
S2140040E0AD360400C53F0200C53F0200C53F0200D2
S2140040F0C53F0200C53F0200C53F0200C53F0200A3
S214004100C53F0200C53F0200C53F0200C53F020092
S214004110C53F0200C53F0200C53F0200C53F020082
S214004120C53F0200C53F0200C53F0200C53F020072
S208004130C53F020080
S214004140F0B5114A114C124E00F00105E3695F0705
S21400415013D40DB9334213D103EA00078F4207D1B7
S2140041600B4A1A40002A0CBF00206FF00100F0BD79
S214004170013AEBD16FF00200F9E74FF0FF30F6E7B7
S2140041806FF00100F3E700BF809698000000035030
S2140041900200010000000000000000000000000017
S2140041A000F50050B0F80207704700F50050B0F870
S2140041B00007704700F50050D0F84C08704700F52F
S2140041C0805090F8520F704700F5805090F8600FBE
S2140041D070470148704700BFE487040000487047F6
S2140041E0E587040000487047E687040000487047EB
S2140041F0E787040000F58050D0F8EC0A704700F519
S2140042008050C0F8EC1A704700F58050D0F8F80AD5
S2140042107047002908BF4FF4E151054B00F5805068
S214004220994294BFC0F8F81AC0F8F83A704700BF31
S2140042309AC4200000F58050D0F8FC0A7047074B5F
S21400424000F58050002914BF0A461A46044B9A42CD
S21400425094BFC0F8FC2AC0F8FC3A704700751200FC
S2140042609AC4200000F50050D0F86401704700F5AD
S214004270F5501030704700F5F6500130704700F5E5
S2140042808050D0F8DC0E704700F58050B0F8120F62
S214004290704700F58050A0F8121F704703468288CA
S2140042A0C088114481429DBF1868998080180020FC
S2140042B0704770B505680C4625B9BDE870404B6878
S2140042C0084818478B6898476A680146831A002B87
S2140042D0B8BF121A2368A8BF0022BDE87040014884
S2140042E0184700BFF01A002038B50C461146A268E1
S2140042F00346944206D00568AC420BD10260FFF735
S214004300D8FFA46038BD94420DD011469268002AAA
S214004310F9D1F6E72A460021F9E78B68002BF0D0A2
S2140043209B688B60EDE70029F7D1002DE9D0AA68DD
S2140043301A60E6E72DE9F041936805460C461646F6
S21400434098473246074621462846FFF7CDFF28689D
S214004350002203466BB16168D3F804E0A1EB070CBA
S214004360AEEB070898EA0C0F13D4A1EB0E01002958
S21400437007DA4AB9A0602C6031462846BDE8F0410D
S21400438097E71A469B68E5E79368A3609460BDE8E4
S214004390F081BCF1000FEBE770B5066804460D46E9
S2140043A07EB18B6898477368C01A002809DB2046E0
S2140043B02A463146FFF798FF30463368BDE870401E
S2140043C0184729462046BDE8704072E700F50053BE
S2140043D093F8483813B102490830DDE7704700BF4C
S2140043E0E887040000F5005393F8483813B10249F3
S2140043F00C30D1E7704700BFF4870400012300F0BB
S2140044000700834013F0220F09D113F0880F08D15C
S21400441013F0440F14BF01200020C0007047042092
S214004420704710207047D0F8020000BA704742006C
S214004430400800F0553002F0AA320243930092087A
S21400444002F0333203F0CC33134318011B0903F098
S2140044500F3300F0F030184300BA704710B590F8EC
S21400446030200B4682B1013AD2B280F8302000EB01
S2140044700210814207D000F1100250F8041B90424F
S21400448043F8041BF9D110BD144603CC102C186059
S2140044905960224603F10803F6D1FFDEA0F141037E
S2140044A0192B98BF2030A1F1410398BFC0B2192B39
S2140044B09CBF2031C9B20B1A584258417047008839
S2140044C00B88C01A704700F50050B0F802378B42D0
S2140044D00AD0A0F80217054890F85931022B03D1EC
S2140044E000F5AC7037F068BF704700BFF03A0020A8
S2140044F000F50053B3F800278A4205D0A3F800174A
S21400450000F51C5015F02AB8704700F5F6500A461C
S2140045101230002114F0F0B900F5F6500A461230B9
S214004520012114F0E9B908B53130313120F001002D
S21400453021F0010103780A7803F00F0302F00F025E
S2140045409A4207D10431043041F011F9B0FA80F0F4
S214004550400908BD0020FCE710B5044604F50054E9
S21400456030F02CFED4F8403133F07C4204D0C3F354
S2140045701903984228BF184610BD42F2107399429C
S21400458010B5044615D800F50053D3F868219142BB
S2140045900DD0C3F8681130F019FC074B93F8683F4C
S2140045A0DB0704D504F50550183016F0F3FB0020A1
S2140045B010BD0720FCE700BFF02A002000F50550DC
S2140045C00022183015F0AEBE10B503780446002B56
S2140045D014BF0520032000F500300DF0F5F8237811
S2140045E0BDE81040002B14BF0620042000F5003064
S2140045F00DF0EAB800F5F6500022183015F08EBB24
S2140046001346B0F86C202AB10A4600F15C01024855
S21400461016F042BD0D2070478831002038B504469C
S21400462008464D7894F8FE20A91C031B51FA83F324
S214004630D21A014440F029F894F8FE30023B5B1B86
S21400464084F8FE3038BD36F0D1BB33F0DDBD08B59A
S2140046501B4B93F8492F012A03D0062A05D02AB30C
S214004660FEE7BDE8084033F0B5BD002003F58053F3
S21400467003F8B70C93F85011CA070CD5C1F3C30260
S214004680013202F00F0262F3C601042A83F85011C9
S21400469005D836F0ABFBBDE8084033F0B5BD93F85F
S2140046A0502160F3C60283F85021F4E793F8482FB0
S2140046B0520703D5B3F84A3F1B06ECD408BD00BF2B
S2140046C0F02A00208378072B09D190F86E00C309E2
S2140046D003D000F07F0031F0BBB831F08BB87047E4
S2140046E02DF08ABB13B50446006820B940F20D13BE
S2140046F0E38102B010BD04F108030093A389E288A9
S214004700A18836F0B8FFA073B0B962892389E18822
S2140047101344A2889BB20A4492B29A422CBFC3EBBF
S2140047200201C3EB0301A380DB438AB29BB2934230
S21400473028BF1346E380DCE70023172808BF184687
S214004740A3600123A073E373D3E710B504468CB0CF
S214004750084669462CF05EF820466A4604490DF085
S21400476075FC20460CB0BDE810400DF025BD00BF1E
S214004770F164040010B44368D3E9004023465DF8B2
S214004780044B18472DE9F04F05460E461C461746C3
S214004790DFF890B085B003F1FF3802EB81094F4592
S2140047A018D128461C490DF04DFEDFF87090DFF852
S2140047B078802644494628460DF048FC14F8017BCC
S2140047C01FBBB442F6D12846144905B0BDE8F04FE9
S2140047D00DF038BE57F8043B18F801AF184603939F
S2140047E040F062F802305045039B06D859462846EA
S2140047F0CAF101020DF02AFCD1E700935346284681
S21400480007495A420DF022FCC9E741462846013FB7
S2140048100DF01CFCFFB2D3E793640400A9870400E4
S214004820A28704009C870400BF9B040070B506683E
S2140048300D463046074936F0DDFD044620B93046C1
S214004840054936F0D7FD10B100202C7070BD23202E
S214004850FCE700BFAB870400B28704002DE9F041F7
S214004860804608680F4616461D4688B008B31146AF
S21400487037F08CF9002304462B7098B1396891B153
S21400488001A82CF0A5FA70B908F5145002A9383022
S2140048901EF010FF58B9304601AA02A917F076F9A3
S2140048A001232B700024204608B0BDE8F0810D24BB
S2140048B0F9E70724F7E7102208B540F058FFB0FAEA
S2140048C080F0400908BDF8B504460F4690F8306001
S2140048D000EB0616B442254601D1002506E0204628
S2140048E03946FFF7E8FF10340028F3D02846F8BD15
S2140048F0882200213FF025BD0023036043607047F7
S214004900024608B50846FFF7F7FF126802B908BD69
S2140049100388013303800123116841B941880B44A1
S2140049204380518943680B444360D269EEE7013304
S2140049300968DBB2F1E7C1F30002F8B501F0020343
S21400494043EAC203C1F380010B4399075AB247D426
S21400495000F5005595F85B7142F004039F4224D0A1
S21400496000F505541834204685F85B3115F07AFCBE
S21400497095F85961304636F07CFDC0B195F85B116C
S21400498095F85831C7F34002C1F340008242C3F3A2
S214004990C00304D15BB93A0709D50B0707D4002337
S2140049A02046A5F8803216F0CBFA0020F8BD012E7E
S2140049B00BD100262046A5F8806216F031FA314663
S2140049C004F5907015F056FEEFE7022EEDD1204666
S2140049D0B5F85C1116F01AFE204637F0EDFCE4E759
S2140049E00720E3E7102200213FF0ABBC036823B9A1
S2140049F01720B0FA80F040097047994201D01B6B2F
S214004A00F5E70020F5E74FF6FE720B460188914267
S214004A101DBF07C883E8070000201720704708B5A9
S214004A200BF07DFD08BD01F1100351F8042B9942EF
S214004A3040F8042BF9D17047313020F0010000789F
S214004A40C0F30110704708B5FFF7F6FFB0FA80F024
S214004A50400908BD836D1847262200213FF071BC2F
S214004A60030E0B70030C4B70030A8B70C8707047F4
S214004A7008B50246FFF7E7FF30B1313222F00102F7
S214004A805078831E5842584108BD142200213FF03A
S214004A9058BC2DE9F84F0746884691469A464FF08F
S214004AA0000B0A9D0BEB0904661006FB0A863846C7
S214004AB03146A8470028C4F34F0407D0D2BFA1460A
S214004AC001341FFA84FBCB45ECD300263046BDE804
S214004AD0F88F0023F0B5441E184601392AB91BB1D9
S214004AE0024492B2904211D1F0BD14F8017F11F841
S214004AF0016F082A154628BF0825B74287EA06032D
S214004B00EDD12844521B80B292B2E7E71906EBD4E7
S214004B105B000130DBB280B2E4E700BA70470246C1
S214004B2008B5D1E900035BBA1380FFF7F6FFD38818
S214004B30C2F8020008895BBA03F0010343EA4003A7
S214004B4098B25BBAD3808B7A20F0010003435BBA3D
S214004B50D38008BD70B583880446C0889E188642F8
S214004B60154608D8206818443FF00AFE0020A3889F
S214004B701D44A58070BD0320FCE707B549BAADF813
S214004B80061002220DF10601FFF7E4FF03B05DF800
S214004B9004FB0122DEE738B50446A38808469342A4
S214004BA015460AD321683FF0EBFD0020A388226853
S214004BB05B1B2A442260A38038BD0620FCE7012246
S214004BC0E9E710B502220C46FFF7E5FF10B9238887
S214004BD05BBA238010BD4368036003B1DB694360A2
S214004BE0704710B5436A044623B100220221426290
S214004BF0826A9847236A9C420FD1084A02F5805180
S214004C002346D06D24681860D365B1F86036013B42
S214004C10A1F86036002CF3D110BDFEE7F01A002094
S214004C202DE9F041C389044601EB03081FFA88F812
S214004C3043450D4602D90320BDE8F08106465027BD
S214004C40B84533680CD800223260124A02F580510B
S214004C50A3B9A3896581AB4200D9A5810020EBE703
S214004C601BB17C373668BFB2EAE76079C0F3410013
S214004C7030F0A8FC30600028F3D1DCE7D66D186869
S214004C801E60D365B1F86036013BA1F86036034676
S214004C90DEE700BFF01A0020F8B500F1310424F07A
S214004CA00104054620460F461646FFF7EEFE23781B
S214004CB0042103F03F0343F04003237000232846FB
S214004CC0AB812182FFF7ACFF2378667023F03003B8
S214004CD043EA07112170F8BD70B500F1310525F0E3
S214004CE001052B78064623F00F0302F00F0003435E
S214004CF02846144600F8043B3FF042FD2B8A304617
S214004D00E11889B22982BDE8704089E7313121F087
S214004D1001010A7802F00F02082A00D9FEE70431E2
S214004D20DAE7838942891944914200DDFEE789B2B9
S214004D309142818100D9FEE7704743898B4200D2B9
S214004D40FEE75B1A43818389C2898B4294BF0023A6
S214004D505B1A0A4488BF9BB2C2818381704770B5D4
S214004D604489A1422FD215880D44AEB2B14201D873
S214004D70A54201DB641A1480C4899860214489B274
S214004D804F2910D830300844C1F1500189B29980BB
S214004D9018601088814228BF0146998011889B8838
S214004DA0CB1A138070BD5039986889B20068986035
S214004DB000B9FEE77B2904D804300844C1F17C0121
S214004DC0E4E77C39F0E70021E7E770B5154686B0E2
S214004DD0ADF806300DF1060203ABFFF7C0FF2C4618
S214004DE0BDF810601EB9601B80B206B070BD039996
S214004DF0324620463FF0C4FC03A90DF106003444B9
S214004E0030F0A7FCECE738B54589CC18AC4203DC9B
S214004E10FFF7DBFF002038BD0620FCE70246084609
S214004E2049893823383989B2EDE702460846498968
S214004E302C232C3989B2E6E770B516463131046862
S214004E408CB021F0010514B920460CB070BD04F1F9
S214004E50310323F001036A885B889A4212D102A8C4
S214004E60FFF7FAFD214601A8FFF7DFFFBDF82A206D
S214004E70738C9A4206D106F1100106A8FFF71BFDB7
S214004E800028E1D1E469DEE738B504460D460B4656
S214004E9001890068FFF7B7FF10B923891D442581F3
S214004EA038BD13B50B880C460C2B0BD90D2B0CD12B
S214004EB001210DF10602FFF7E7FF20B99DF8063045
S214004EC00D332380002002B010BD0E2B0CD1022122
S214004ED00DF10602FFF7D8FF0028F4D1BDF8063022
S214004EE05BBA03F20D13ECE70620ECE773B54FF65A
S214004EF0FF76C3880446B34206D001210DF10302B3
S214004F00FFF7C2FF18B1E680002002B070BD9DF822
S214004F100350FF2D0CD12368E68022895B899A42D4
S214004F20F2D306204FF6FF73E38000232381ECE7DD
S214004F302B0920460DF10601ADF80630FFF7B1FF4C
S214004F400028EFD105F00F05204601A9ADF8045062
S214004F50FFF7A7FF0028E5D1216823894989BDF816
S214004F600420C91A8A42DCDC1344BDF806102381EB
S214004F70A388E2800B44A380C6E730B401F1310277
S214004F8022F00102D48912784D8902F00F02043211
S214004F90224495424FF0000404D3C0E90014028175
S214004FA030BCA3E74FF6FF720481C28030BC0620F7
S214004FB0704710B44C889C4203D309885DF8044BB4
S214004FC021E706205DF8044B70472DE9F04786B0D0
S214004FD017461C46ADF806300DF1060203ABDDF8A9
S214004FE03880FFF7BCFEBDF810507DB1039EB8F1C7
S214004FF0000F11D0B94606EB050AB24513D019F8D2
S214005000011B16F8010BC0470028F6D1B4FA84F04D
S214005010400906B0BDE8F0872A463946304640F0DB
S214005020A6FB0028F2D12F4403A9651B0DF106004C
S214005030ACB230F08EFBD6E770B586B0ADF8063071
S2140050400B4414469AB2914200D9FEE74289934235
S21400505000DDFEE703AB0DF10602FFF780FEBDF8AC
S21400506010500DB906B070BD21462A4603983FF091
S2140050700CFB03A90DF106002C4430F06AFBEEE7AA
S21400508070B500F1310424F00104A37C05465BB141
S2140050904389218A994207D1012994BF491A01F10F
S2140050A0FF3189B2FFF7BCFD2378224603F00F03D9
S2140050B02846BDE8704000210433BDE72DE9F041E5
S2140050C0B0F80A800F4602EB080399B24145054640
S2140050D016460CD3FFF7A4FD044628B933463A46D5
S2140050E041462846FFF7A8FF2046BDE8F081032486
S2140050F0FAE70122E2E7FF2313B58DF8073043896C
S2140051000446B3F5007F0FD20DF10701FFF7F1FF5C
S21400511040B9012204F1310323F001039A74628935
S2140051201A82A28102B010BD0320FBE703781BB1F0
S214005130012B03D0002070474068BFE7043009E524
S21400514037B58DF8071001393E29054614460DD8A7
S21400515010460DF10701FFF7CCFF28B92946204677
S2140051609DF80720FFF7AAFF03B030BD0720FBE736
S2140051702DE9F04114469A180E4691B286B08C423C
S2140051800546ADF8063029D87189914228DBB0F87B
S2140051900A80434499B2414524D3FFF741FD0746B0
S2140051A048B92146304603AB0DF10602FFF7D7FD9E
S2140051B0BDF810401CB9384606B0BDE8F08123465D
S2140051C041462846039AFFF737FF444403A90DF1EA
S2140051D006001FFA84F830F0BCFAE9E70727EAE78A
S2140051E00627E8E70327E6E7F8B504460E46154621
S2140051F000F13007E3899D420BD85B1B6289E3818F
S214005200A3892A442B4492B29BB29A42628117D257
S214005210FEE76079C0F3410030F0D4F9D0B12368DE
S2140052200360E38920604F2B06D83030C3F150026C
S214005230F91818443FF0A4FAE3897C33E381D9E7F0
S214005240A3812EB12B46324600212046FFF7F4FEFE
S2140052500020F8BD0320FCE7F0B50646B2420C4637
S2140052601046194689B001D1A34215D36B460EAA43
S214005270FFF775FDBDF804500DB909B0F0BD214625
S21400528030462B46009AFFF7D7FE2C4469460EA8F8
S214005290A4B230F05EFAEDE7BDF838502C441D4459
S2140052A0A4B2ADB2BDF83820002AE6D0202A1746B0
S2140052B028BF2027ED1BD21BADB2E41B3B46294678
S2140052C0ADF8382030466A46A4B2FFF77EFD3B466E
S2140052D06A4621463046FFF7AFFEE3E773B505465C
S2140052E003796E8940798E42C0F3410228BF0E468C
S2140052F0C3F340038DF80520E98901AA40098DF81B
S214005300043030F09FF90446002832D0334600229D
S2140053102946FFF72DFF48BBAB896289B34228BFF9
S21400532033469A4200D2FEE7A381AA79A37962F3B4
S2140053300303A3712B792279DB0963F3C712227169
S2140053406B796279C3F3C10363F3C4026271AB691C
S214005350A3612B8A23826B8A63822B7A2372AB8D9E
S214005360A385EB8DE385204602B070BD2046FFF78F
S21400537038FC0024F7E710B50446FFF7AFFF98B1F6
S21400538004F1310300F1310223F0010322F001029F
S21400539003F1100153F8044B8B4242F8044BF9D149
S2140053A0198811809B78937010BD0B6A994200D0C3
S2140053B0FEE70B796FF382030B71036823B9C1E92B
S2140053C00733016041607047012A4FF0000205D0A4
S2140053D0C1E907320368196201607047CA61436811
S2140053E00B62D961EEE70368994204BFCB6903609C
S2140053F04368994204BF0B6A43600B6A0BB1CA69E3
S214005400DA61CB690BB10A6A1A6200220B79C1E92C
S214005410072162F382030B71704710B5FFF7E3FFB5
S214005420BDE810400846FFF7DCBB10B5044621680F
S21400543001B910BD2046FFF7F0FFF8E70B7910B56D
S2140054405B0700D4FEE74B79C3F3410300EB83020E
S2140054505468A14209D10C6A546034B16479C4F32B
S21400546041049C421CBF002353600368994204BF5A
S214005470CB690360CB690BB10A6A1A620B6A0BB17F
S214005480CA69DA6100220B79C1E9072162F3820357
S2140054900B7110BD4A7970B5C2F3410214460B7900
S2140054A0061D43F004030B7156F824301BB9013473
S2140054B0E5B2042DF8D10B624BB90368CB610160ED
S2140054C0CB6903B1196200EB8200416070BDDC69F4
S2140054D0CC61D961F4E78B894989038099422CBF56
S2140054E0C3EB0102C3EB0302DB4392B29BB29342CF
S2140054F028BF13464380704743880288994228BFD6
S214005500194612FA81F25B1A028043807047F0B5A2
S2140055100C46064685B003A802AF1546FFF7DBFF2C
S21400552020463346BDF80E20BDF80C10009736F026
S214005530A2F8044668B904213846FFF7DDFFBDF837
S2140055400A30022B08D9822B28BF822302982860B3
S2140055506B80204605B0F0BD0624FAE7084A13889B
S21400556003B9FEE748F24E305368A3FB003010EB59
S214005570530044BF20F0004001305060704700BF29
S214005580C85A0020814210B5044600D8FEE7FFF74F
S214005590E5FF091BB0FBF1F303FB1100204410BD2F
S2140055A038B50D46814288BF85B269000446013190
S2140055B00020FFF7E7FF2044401B38BD10B540B180
S2140055C00023441E98B2814203D90133E25C002ACC
S2140055D0F8D110BD0139013811F8012F10F8013F3C
S2140055E03AB9002B14BF01200220831E58425841AE
S2140055F070479A42F0D00020F7E7A0F14103052B50
S21400560004D83738C0B2087000207047A0F1610394
S214005610052B01D85738F5E73038C0B20928F2D93B
S2140056200720704770B504460E46E5881346828804
S2140056300068AA4234BFA91A00211044324637F047
S21400564055FC002800DAFEE7A388E288184480B2FA
S214005650904228BF2368A08022BF9B18002203F830
S214005660012C204670BD0EB417B5044605AA52F8A4
S214005670041B0192FFF7D6FF204603B0BDE810409A
S21400568003B0704770B506460D460024AC4201D301
S214005690012070BD305D0134030605D437F016FCDA
S2140056A00028F3D00020F4E710F04003FAD081067B
S2140056B012D5C20612D50307F4D4032307E0AC4282
S2140056C0F0D0325D013402F0C002802AEAD1013BFC
S2140056D0DBB2FF2BF3D1D9E70123F8E70223F6E785
S2140056E0436853B9054B5A6812B958604060704712
S2140056F0526842605A68506058607047F01A00203E
S21400570003685A1A11EA220138BF194643685A1A22
S21400571013EA220338BF0B46436070474160024AD3
S21400572001460248FEF706BEE8870400F81A002085
S214005730F7B5724C04214FF47A70E56CFFF730FF32
S214005740291804F14800FFF7E9FF636CD80714D561
S214005750FFF765F904F500550646D5F8E0106846EB
S21400576036F0FAF805F1E0070099002940F081804C
S214005770D5F8E00008B92BF0D5FC636C990625D562
S2140057805F4D95F8D5367BB1FFF749F9D5F8D83691
S21400579003F5C333A0331B1A002BBEBF95F8F636AD
S2140057A043F0010385F8F63695F8FF16B5F8FC3693
S2140057B095F8FE26002970D1002A40F08380002B41
S2140057C040F08780D5F8FC0635F029FF636C5A0652
S2140057D020D54B4EB6F8B43643B1013B9BB2A6F883
S2140057E0B4361BB906F5D66016F016FFD6F8B056D6
S2140057F06DB1013DC6F8B0564DB902202AF092FDB3
S2140058004048294616F0E6FF28462AF0E9FD3D48BE
S21400581014F073FE636CDB056ED500200346054668
S2140058203949A1F2A466CA787AB1013AD2B2CA70EE
S21400583032B1086806EB8302C2F8A40601200133E1
S2140058400135232D01F10401EDD1002104EB830481
S21400585004F5B5540734222B03DC14F8042B002A75
S21400586046D1002848D1082003B0BDE8F0402BF010
S21400587059BC8B69F31AB3F5FA6F0AD34B793846DD
S2140058805B0902BFD5F820310133C5F82031FFF798
S214005890C4FD6846FFF79FF966E70139C9B285F887
S2140058A0FF16002988D11AB1013AD2B285F8FE2631
S2140058B023B1013B9BB2A5F8FC368BB11348FFF72A
S2140058C00FFF7FE7013AD2B285F8FE26002AEFD016
S2140058D075E7013B9BB2A5F8FC36002B7FF472AF50
S2140058E095F8D536002BE9D0012385F8D536E5E7BF
S2140058F004F8041C0133AEE703B0F0BDF01A002034
S214005900F03A0020A041002094310020AC41002055
S214005910002A00DAFEE7114400E738B50D460446D3
S214005920FFF77DF82A4601462046BDE83840EFE7F7
S21400593010B590F82430044643B1012B01D14369D9
S21400594083612046A169BDE81040E6E74169B1EBF6
S214005950510F4FEA510001D9FFF714FE0023A06152
S214005960E38384F82530ECE710B590F8243004463D
S2140059707BB1012B08D10169C0680131FFF702FE37
S21400598060612046FFF7D4FF2046236ABDE810403A
S214005990184790F825306BB1012BF5D1426922B13A
S2140059A00369991A8A4298BF530063612046BDE88E
S2140059B01040BDE7012380F82530D0E90513C91A49
S2140059C0FFF7ABFFE28BA38B9A42DDD310BD064BED
S2140059D006485A69196A914208BF9A6901F18041DE
S2140059E004BF01329A6199E6F01A00200C1B0020D1
S2140059F08368984203D04368CB1A002B00DA8DE602
S214005A0070470146014A0248FEF76EBCE88704006C
S214005A10F81A0020D1E9003103F10043013B8B4224
S214005A2000D07BE6EDE710B5044692B0684635F048
S214005A305CFF616802A835F08FFF029931B96946AC
S214005A4004F11000FFF7E6FF12B010BD04A8FFF740
S214005A50E5F968460F99FFF753FE02A8FFF7BBF873
S214005A60EBE72DE9F0410546144604301E46069F36
S214005A709DF81C80FFF7D1FC2846FFF7D4FF656A27
S214005A803DB143463A463146AC46A06ABDE8F041D1
S214005A906047BDE8F0812DE9F04192B004460D461E
S214005AA0416802A835F058FF0B274FF00008029E09
S214005AB016B912B0BDE8F081314604A8FFF7AEF97A
S214005AC025B1294604A8FEF7F6FE38B10023314674
S214005AD02046CDE9008704AAFFF7C3FF02A8FFF718
S214005AE07AF8E4E72DE9F04F9FB00093289B06462E
S214005AF008460193FEF7A0FF02280C4617460CD076
S214005B00032801F1310300F0F480B28923F0010389
S214005B10511C52BAB1815A8045E006A8FEF79CFF98
S214005B20FEF77DFF3A4600F57130D83006F12C09B5
S214005B30059006AB07F1200C1D4610685168083228
S214005B4003C562452B46F7D1106821462860928827
S214005B504846AA803A46FFF76FF9054618BBF16A31
S214005B6003A835F0F9FEAA46AB46DDF80C80B8F17E
S214005B70000F40F09D801FFA8AF3092B03D92946AF
S214005B804846FFF74AFC20466189FFF7F4FB0546C6
S214005B9048B12C2205A9FFF791FA002800F09E8054
S214005BA02846FFF71EF82046FFF76AFA2046FEF75B
S214005BB04AFF002800F0A480B4F80AB0BBF1000F3A
S214005BC000F0B88010AB3D46994607F1100C1A4617
S214005BD028686968083503C265451346F7D17B8C8B
S214005BE014AAADF8603005F1100C134628686968F1
S214005BF0083503C365451A46F7D1009A97F825304D
S214005C001992019AC3F300131A92BDF874209B02EE
S214005C1022F49F6222F0070243F00403134340F687
S214005C20B9314FF4FA60ADF87430FFF7ABFC9DF86D
S214005C3075301C906FF3000320468DF87530FEF724
S214005C4002FF9DF8753060F341038DF87530FEF75E
S214005C50E6FE9DF8753059469B074CBF1C9B394B9A
S214005C6018441B902046FFF786FB054600285CD0AC
S214005C7038224946FFF722FA002853D106F10408D5
S214005C80012229464046FFF790FB3046FFF7CBFE41
S214005C9021463A463046FEF7DDFE0446002845D04B
S214005CA040462946FFF7B9FB3046FFF7BCFE3DE00D
S214005CB011A8FEF7D1FE414610A8FFF7B6F825B1A9
S214005CC0109AA2EB0B02002A02DA4546DDF840B035
S214005CD003A8FEF780FF0AF1010A46E72946484670
S214005CE00122FFF762FB059906F13400FFF780FEFC
S214005CF059E723F001035B78002B3FF454AFFEE72F
S214005D002046FEF799FE012814D1009B93B104F1BA
S214005D10310323F0010393F800B00BF00F0B0BF1E7
S214005D20040B4FE72846FEF75CFF032420461FB00F
S214005D30BDE8F08F3A46214630461FB0BDE8F04F2A
S214005D40FEF788BE486B0100002307B50093FFF7F7
S214005D50C9FE03B05DF804FB2DE9F0419CB0C568B0
S214005D60FEF75DFE064604A8FEF776FE696802A802
S214005D7035F0F2FD1C274FF00008029C2CB928468F
S214005D80FFF751FE1CB0BDE8F08121460EA8FFF7D4
S214005D9045F8199BF31A002B0EDB9DF86D309A0719
S214005DA002D59DF86C305BB9002321462846CDE924
S214005DB000870EAAFFF755FE02A8FEF70CFFDCE7E9
S214005DC0013B8DF86C301A9B20465B001A933344D7
S214005DD01993382361890DEB0302383989B2FFF72E
S214005DE02BF99DF86D30DB07E6D40DF1200C12ABD5
S214005DF00FCB8CE80F00BDF858300EA904A8ADF8FC
S214005E003230FEF710FE9DF86D309DF83520C3F356
S214005E10800363F304128DF83520618920463839F3
S214005E2089B2FFF7A8FA04460028C5D0014604AA9E
S214005E302846FEF70FFE0028BED02046FEF7D1FE0D
S214005E40BAE72DE9F04701F1310727F001071546BB
S214005E507B1ACA891C3B9A4206460C4694B000D26E
S214005E60FEE7B1F80C803846FEF70FFE04233A46EC
S214005E7041462046A7F80E80FEF7C5FF00284DD104
S214005E803B7803F00F03082B48D808F1040120469E
S214005E903A1D89B2FEF7B7FF00283FD10DF118086A
S214005EA021464046FFF769F8002837D14FF6FF79BC
S214005EB0BDF81E304B452CD1FB89BDF8201020467E
S214005EC0C91A89B23982FEF72CFF7B78013B032B77
S214005ED035D9716803A835F03FFD05F1100ADDF8E5
S214005EE00C90B9F1000F40F0D480F36C002B40F01A
S214005EF00B812046FEF7A7FD20B92046FEF79CFD45
S214005F0001285DD12B4622460321304635F0A4FDFC
S214005F1056E04046FEF7EAFF0028C9D02B78FF2B54
S214005F204ED02046FEF78FFD002849D02B4622464D
S214005F300321304614B0BDE8F04735F08DBD736AD6
S214005F40DBB92A46214606F12C00FEF775FF38BB62
S214005F50214603A8FFF711F84FF6FF77002840F018
S214005F602981BDF81230BB4263D0BDF810300B2B30
S214005F705FD003A8FEF7BAFFF0E72946B26A984753
S214005F800028DED017281BD12B78FF2B18D02B46E5
S214005F9022468421304614B0BDE8F04735F00CBDEB
S214005FA041892C3989B2FFF7E6F9074640B1FFF779
S214005FB067F82A4639463046FEF74CFD002857D18A
S214005FC014B0BDE8F087474516BF3A46424602F889
S214005FD001ABD7180DF139018F42F1D2BDF814107C
S214005FE00398C91A89B2FEF7F0FE03A8FEF77EFFF3
S214005FF0002840F0DF80BDF812304B4503D0BDF8D6
S21400600010300B2BF1D1BDF812304B45DBD10023FD
S2140060103B70776D9FB9376ACFB9736C23BB2B780B
S214006020FF2BCDD02B4622468421304635F0C4FCCB
S214006030C6E747464FF6FF794FF02F0AE3E72B46B1
S214006040224641463046B8470028E4D0B8E74146E5
S2140060503868FFF7BFFA28B12A4621467B68B86839
S2140060609847ADE7FF68D7E72A462146B06CF7E7C2
S214006070172808D12B78FF2B05D02B4622468421E3
S214006080304635F099FC384614B0BDE8F047FEF7C8
S214006090A8BD49464046FEF7C1FE51460AA8FEF78F
S2140060A00AFC20B1BDF838206B8C9A4207D09DF8C8
S2140060B02830FF2B03D00CA812F075FA00B3204648
S2140060C0FEF7BAFC012815D90238C0B2012817D845
S2140060D009F1310323F001035A887B889A420FD1D5
S2140060E02046FEF7A9FC03283FF66AAFDFE800F07B
S2140060F04F55211449462046FEF715FA0028EFD1E1
S21400610003A8FEF768FDEAE62A462146306D984762
S21400611000287FF455AFECE67B78002B7FF450AF79
S2140061200B22CDE90032424649463046FFF799FC3D
S21400613046E77B78E3B99DF84D309A070CD543F0D7
S21400614001038DF84D30B9F80A1038233839424625
S214006150484689B2FEF770FF0F9B002B7FF430AFE6
S214006160301D4946FFF759F93046FFF75CFC27E734
S2140061703F2B7FF625AF49462046FEF7D4F9002888
S2140061803FF41EAF0023CDE900532346CBE72B4652
S21400619022460221304635F05FFC0F9F002FF1D0DB
S2140061A09DF82830FF2BEDD100232A462146109873
S2140061B0B84705E717283FF432AF01E730B5C468A3
S2140061C091B001A835F091FB216803A835F0C4FB17
S2140061D0039D35B901A904F10800FFF71BFC11B0B7
S2140061E030BD06A8FEF738FC294605A8FEF71DFEBA
S2140061F00599019B5B1A002B07DB29462046FFF713
S2140062000CF903A8FEF7E7FCE2E701A8FFF778FA27
S214006210F7E770B5D0F8FC3004462BB193F822307F
S214006220022B01D1002070BD04F13C063046FFF77A
S214006230E8FB04F16C0504F1FC039D42F2D095F8EE
S2140062402220012A01D02435F7E7032104F1640057
S2140062500BF0B0FA00B1FEE74FF47A72134BC4F8B5
S214006260FC50C4E912234FF6FF7384F86000A4F8CC
S2140062705830FFF773F90E4BB0FBF3F202FB130036
S21400628000F57A7020653046FFF752FB94F86030D0
S21400629053B9636C9E4207D0A36C226D9A4203D01A
S2140062A030462365FFF744FB0120BCE7C0D401005D
S2140062B0D9D001004160024A01460248FEF73AB8CA
S2140062C0F4870400FC1A002010B5274C94F87E3F93
S2140062D0033B032B46D8DFE803F002061713BDE89E
S2140062E010402FF051BCD4F8943F98792FF0B0FAB4
S2140062F0D4F8940F0E22BDE8104000212AF0FABF11
S214006300BDE810402FF072BCB4F87C3F9B0700D568
S214006310FEE735F09BFC7F2807D094F98F3F7F2B54
S21400632001D0984201DD84F88F0FFEF778FBD4F891
S214006330903FC01A002806DAD4F8E01F0B488031D8
S214006340BDE81040B6E794F87E3F94F98F0F022B15
S2140063501CBF022384F87E3F2EF05AFBBDE8104097
S21400636032F0F8BA10BD00BFF02A0020CC3A002068
S2140063700146024A0248FDF7B7BF00BFF487040093
S214006380FC1A00204378FF2B04D1408840BA80B224
S21400639004307047981C704738B505460C46FFF722
S2140063A0F1FF294682B22046BDE83840FEF786BE99
S2140063B0F7B50E461746044602236A463946304667
S2140063C0FEF7F7FD054680B99DF8003023709DF86E
S2140063D00130FF2B0CD00221607002333A68C4F8FB
S2140063E00220A288934214D90625284603B0F0BDA1
S2140063F00423394630460DEB0302FEF7DAFDD8B922
S21400640001236370BDF8063004215BBA9BB20433E7
S214006410E4E79BB2934228BF13466288A3801344E6
S21400642072899BB29A42DFD3D4F80230A01DC4F81A
S2140064300630FFF761F8D8E70546D6E773B5044699
S21400644001A80D461646FFF746F82946204601AA3B
S214006450FFF7AEFF38B92378B34205D0A18801A86C
S214006460FFF74AF8F1E7172002B070BDF0B585B027
S214006470054616460A46014601A81F46FFF7DEFFF8
S214006480044650B9BDF808203B46B24228BF324603
S2140064902846BDF8061035F032FA204605B0F0BDA5
S2140064A01FB514460A46014601A8FFF7C7FF10B9F4
S2140064B0DDF80A30236004B010BDF0B517464289F7
S2140064C085B0ADF800101E468A422CBFC1EB020311
S2140064D0C1EB0103C9439BB289B2994228BF194652
S2140064E00546ADF802106A46014601A8FFF760FFB0
S2140064F0044660B9BDF80C203346974228BF1746BD
S21400650028463A46BDF80A1035F0F9F9F455204603
S21400651005B0F0BDF0B51746428985B0ADF800105D
S2140065201E468A422CBFC1EB0203C1EB0103C943DE
S2140065309BB289B2994228BF19460546ADF80210AB
S2140065406A46014601A8FFF733FF044660B9BDF866
S2140065500C2096420BD8B2423B4628BF324628460D
S214006560BDF80A1035F0CBF9204605B0F0BD06247C
S214006570FAE710B502231446FFF7CCFF10B92388BC
S2140065805BBA238010BD042310B51446FFF7C2FF84
S214006590034618B92068FEF7C0FA2060184610BDFA
S2140065A030B585B0044615460A46014601A8FFF7F1
S2140065B045FF40B901232A462046BDF8061005B01F
S2140065C0BDE83040A6E705B030BD002213B504464E
S2140065D08DF80720084663B910210DF10702FFF772
S2140065E0DFFF0346C8B99DF80720B2B1FF2A08BFEF
S2140065F02523002062786FF341026270D4E90921F6
S21400660060620AB11846904741F2883104F11800DA
S21400661002B0BDE81040FFF780B90623E9E730B5C1
S21400662085B0044615460A46014601A8FFF706FF50
S21400663038B92A462046BDF8061005B0BDE83040F9
S21400664097E705B030BD30B585B0044615460A4616
S214006650014601A8FFF7F2FE38B92A462046BDF8E3
S214006660061005B0BDE830408DE705B030BD73B507
S214006670154601AA04461E46FFF712FF28B9334600
S2140066802A46204601A9FEF794FC02B070BD10B55C
S214006690044601448C4202D30024204610BDA31CAD
S2140066A09942F9D36378FF2B02D1231D9942F3D385
S2140066B02046FFF767FE20448142EDD323789342BD
S2140066C0EBD00446E6E70422FEF7F8BC0222FEF70B
S2140066D0F5BCFF2B73B5054616461C4612D18DF841
S2140066E005304FF47F438DF8041001A9ADF806304D
S2140066F0FFF7E9FF20B9224631462846FEF7DEFCC2
S21400670002B070BD8DF8001069468DF80130FFF7B5
S214006710DDFF0028F4D1002CF2D0ECE770B505467A
S2140067200E461C46114618460BB1FEF747FF22469A
S2140067303146C3B22846BDE87040CAE707B5012314
S2140067408DF807200DF10702FFF7C3FF03B05DF8D1
S21400675004FB07B552BAADF8062002230DF1060277
S214006760FFF7B7FF03B05DF804FB13B50446104609
S214006770FEF7D3F9042301900DEB03022046FFF742
S214006780A8FF02B010BD10B50446FEF748F9D4E9DC
S2140067900031E268C01A9A4202D10028A8BF01312F
S2140067A010BD2DE9F3411E461B4B044683424FF0B5
S2140067B000038B4115460AD215A3D3E900233DF00A
S2140067C0CFFB1649144602462846FEF74CFF144BEC
S2140067D04EF66021B4FBF3F203FB1244B4FBF1F374
S2140067E04FF47A7801FB1344B4FBF8F728460D49BA
S2140067F00097FEF738FF46B1284608FB17420A49BD
S21400680002B0BDE8F041FEF72EBF02B0BDE8F08151
S214006810005C260500000000FF5B2605BA87040022
S21400682080EE3600C0870400CF87040013B50068EA
S21400683050B14AB141B100230068019301AB2FF07B
S214006840A3FE0AF04BFF00B1FEE702B010BD2DE933
S214006850F843436C15461344026C044693420E46B6
S2140068601AD84FF000084F1900F11009B74214D19A
S214006870636C1D44236C65649D420BD1B4F85030A4
S2140068802BB104F1100211462046FFF7CFFF00237C
S214006890A4F85030BDE8F883FEE7B4F85030102B6B
S2140068A006D14A4649462046FFF7C0FFA4F8508066
S2140068B0B4F850305A1CA4F85020234416F8010BA4
S2140068C01A7C50401874D1E72DE9F04F1D4685B06C
S2140068D09DF8383091460293C36C826C2B449342E9
S2140068E00446884629D86FF0200B0F46CA466B1818
S2140068F0019300F12003ABEB000B0393019B9F4237
S2140069001CD1E36C1D44A36CE5649D426CD3B4F8C3
S21400691050302BB104F1100211462046FFF786FFD7
S214006920002194F8542002F121002044C2F10F0205
S21400693005B0BDE8F04F3DF004BDFEE7B4F85220C8
S214006940102A16D104F13000024694F854600BEB7E
S21400695000018E4206DA10F8011D0131C9B201703D
S2140069600029F4D020460399FFF760FF0022A4F820
S2140069705220029B43BB3E78B9F1000F0AD0B4F810
S2140069805220511CA4F85210224492F83020724033
S2140069908AF80020B4F85020102A08D104F110021A
S2140069A011462046FFF742FF0022A4F85020B4F814
S2140069B050200137511CA4F850102244117C0AF1D3
S2140069C0010A4E40167499E7B4F852209AF800600F
S2140069D0511CA4F85210224492F830205640B8F1C8
S2140069E0000FD7D03E70D5E705B0BDE8F08F38B5BC
S2140069F0D0E912329A4204460D4600D0FEE700F176
S214006A00300200F12001FFF711FF002304F10F020E
S214006A1094F855108B4200DB38BD12F8011F92F82F
S214006A2020004140E9540133F2E738B50568002DEF
S214006A3044D02B68002B44D0012B07D0042B35D034
S214006A406FF08604284624F0E3FC0EE0A86890B3B6
S214006A501E4B20F47E149C421ED1EB6853B91C4892
S214006A6023F06BF904460028ECD120460AF036FEE7
S214006A7050B3FEE7E86C0028F1D025F019FE10F1BF
S214006A80860F06D00028EBD09330E8D16FF06F0069
S214006A90E6E76FF07100E3E70E4B0340B3F1607F6B
S214006AA009D105F1100025F033FDDBE705F10800FC
S214006AB025F0FEFDD6E76FF08804C3E76FF0860486
S214006AC0D3E76FF08804D0E738BD00BF0002C003EC
S214006AD0009FFFFF0000C07F08B5006828B104498A
S214006AE024F0E4FC0AF0FAFD00B1FEE708BD00BFA2
S214006AF00900000208B5006828B121B125F008FD9C
S214006B000AF0ECFD00B1FEE708BD10B586B00446FD
S214006B10ADF80630084603AB11460DF10602FEF747
S214006B201EF9BDF810200AB906B010BD204603991C
S214006B30FFF7E0FF03A90DF106002EF00AFEF0E7CE
S214006B40002307B50068019330B1202201AB24F082
S214006B5018FC0AF0C3FD00B1FEE703B05DF804FBC5
S214006B6073B50C46054646220021A01C3DF0E9FB05
S214006B702C2305F580522380B2F8603605F50356BF
S214006B80C3F12C036380B2F8623604F10801A380D7
S214006B9006F10C00FDF7B4FE04F1100106F120002A
S214006BA0FDF7AEFE05F5B35004F118011430FDF7FD
S214006BB0A7FE05F5075004F128010430FDF7A0FEF6
S214006BC005F5C05004F130011430FDF799FE05F5C7
S214006BD0C15069461C30FDF793FE238EBDF8002099
S214006BE013442386BDF80220638E13446386019AFD
S214006BF0636B1344636302B070BD1F299DBF0068BA
S214006C00C84000F001000020704710B50B7804461D
S214006C10FF2B04BF0A230B700B780A460133D9B248
S214006C201A29117001D9172010BD2046FFF7E5FF7D
S214006C3010B90131C9B2F3E70020F5E7837FC2201F
S214006C4003F00F03D84000F00100704738B5012963
S214006C500446456832D12EF0B1FA237E9A0702D553
S214006C60642828BF64205B0715D5A022204BB0F50A
S214006C707A7FB3F86A3F28BF4FF47A70534303F520
S214006C80FA73B3F57A7F06D34FF47A72B3FBF2F356
S214006C90984228BF1846637E0F2B02D9BC2828BF0F
S214006CA0BC20A36833F07C4204D0C3F31903984297
S214006CB028BF1846002808BF0A206060FDF7AFFE10
S214006CC06369014604F10C0098420DD06268AA423E
S214006CD00DD0531A24680A3BE3424CBF0A222146D1
S214006CE0BDE83840FEF714BE62682160F8E738BD9C
S214006CF0F02A002008B531B1092914D96FF07C4379
S214006D00994228BF19468368C3F319028A4208D0FD
S214006D1061F319038360037EDB0702D50121FFF7C9
S214006D2095FF002008BD0720FCE700F5045038302A
S214006D30E0E710B5038904468B4205D1BDE8104054
S214006D404FF400402EF0EEB801814FF400402EF0D4
S214006D50B5F82089BDE810402EF06EBA10B502785E
S214006D6004465107437817D4120701D5F3B110BD76
S214006D70002BFCD1B0F8A030FBB190F83630072BD2
S214006D801CBF072380F83630838E1906EFD4BDE883
S214006D9010403430FDF796BC002BE8D14388180627
S214006DA004D5E16904F1D000FEF7B8FCE17A04F1FD
S214006DB03400BDE8104034F0F8BC90F84630DA07EE
S214006DC00AD4838EDB0507D594F83630012BCED057
S214006DD0012384F83630CAE72EF00CFD0028C6D111
S214006DE0F2E738B500F5805494F80C28054612BB37
S214006DF094F8482F114B61F3C30284F8482F104AC9
S214006E00186811703EF050F800B1FEE794F8483F5D
S214006E1005F5FA505907C3F3800258BFC3F3C00202
S214006E2094F88E3F083062F3000384F88E3FFFF735
S214006E3095FF002038BD0D20FCE700BF601900203C
S214006E40011A0020012342888B4013434380437875
S214006E5013B9C830FEF744BC704770B50578ED0727
S214006E601DD54578012D1CD0468816F0020F18D186
S214006E70022D16D0C6F38005760712D48362049BD3
S214006E804282C362FF230374C368002908BF194601
S214006E900B4043610221FFF7D5FF284670BD0D2049
S214006EA0FCE70520FAE770B50578ED0722D54578AA
S214006EB0012D21D0468816F0020F1DD1022D1BD0C1
S214006EC0C6F38005760717D48362049B002AC36244
S214006ED04FF0FF030374C36808BF4FF4967200298F
S214006EE008BF19460B40428243610121FFF7AAFF03
S214006EF0284670BD0D20FCE70520FAE70023038036
S214006F00704700F44052B2F5005F034620D148F2C5
S214006F10400220F44E5020F03F0090421ED00CD885
S214006F20B0F5446F1AD005D8C8B1B0F5046018BFE4
S214006F3001207047B0F50040F9E703F44C43B3F581
S214006F40404F0BD04CF64043C01A18BF0120704784
S214006F5010F4406F14BF01200020704700207047D7
S214006F6038B505680C46284634F0EAFEFFF7C9FF38
S214006F7040B1284634F0E6FEFF2803D02B5A002006
S214006F80238038BD0620FCE738B505680C46284641
S214006F9034F0D6FEC30500D5FEE7AC7038BD00F46D
S214006FA04053B3F5005F04D100F44C43B3F54C4FA7
S214006FB007D0B0F5804F04D380F04000C0F38010B7
S214006FC070470020704710B58388032B12D90068DD
S214006FD034F0B6FE80F480720446C2F30021FFF758
S214006FE090FF48B98A1CC4F38123022B06D0032BDA
S214006FF017D02BB1FF2212E00A1DF4E70232D2B2FC
S2140070002046FFF7CCFF08B10232D2B2C4F3813477
S214007010022C08D0032C09D0002C18BFFF221046E3
S21400702010BD0832EBE70232D2B2F8E70832FBE7CF
S214007030F8B507680E46384634F082FE0546FFF778
S214007040AEFFD0B1384634F07DFE04462846FFF742
S21400705058FF08B10234E4B2C5F38125022D07D0EB
S214007060032D08D0FF2C08D000203B5B3380F8BDF2
S2140070700234E4B2F6E70834FBE70620F7E710B57B
S21400708083880446022B07D9006834F074FE18B1D2
S2140070902046BDE8104096E7FF2010BD38B50546EF
S2140070A00C46FFF7ECFFFF2817BF2B6806201B5C7B
S2140070B000201CBF03F00703237038BD38B5054613
S2140070C00C46FFF7DCFFFF2817BF2B6806201B5C6B
S2140070D000201CBF03F01803237038BD38B50546E2
S2140070E00C46FFF7CCFFFF281FBF431C2A68DBB205
S2140070F0D3581ABF00202360062038BD38B5054691
S2140071000C46FFF7BCFFFF2800D1FEE72A68431CA9
S214007110D9B2545452FA83F3220A5A70220C240E1F
S2140071209A70DC702B7F43F001032B7738BD00F09C
S2140071301800102805D0A0F1180358425841C00086
S21400714070470420704708B54307024608D0FFF78B
S214007150EEFF12F0180F0CBF05300630C0B208BDA7
S214007160FF20FCE72DE9F04F057B0688B0F802907B
S21400717087B0031D012D04460F4646EA090B01930E
S21400718030D0022D0CBF0322002294F816A04BEA42
S214007190823BBAF1010F04F10E0825D0BAF1020FB6
S2140071A02FD0BAF1000F21D1A37F94F82120003B05
S2140071B018BF0123B9F5805F4BEAC30305D0B9F5C4
S2140071C0005F21D0B9F1000F29D145B1BAF1000F07
S2140071D005D0208B618B884208BF43F04003D6075A
S2140071E021D5FEE70222D0E74BF4006B5146E0893A
S2140071F034F0EFFA0028D7D1022E18BF4BF0200B40
S214007200D2E74BF4406BF1E7BAF1000F40F0948000
S214007210617F002D40F08880002940F09A80D507D5
S21400722048BF43F48073C2F3400243EA42253B68FA
S21400723004A804934FF4FE032946059334F067FB35
S214007240E80503D4012104A8FDF728F82846FFF72F
S21400725058FE18B1618B04A834F059FB04A84146C7
S21400726034F060FB2846FFF79AFE18B1218B04A87D
S21400727034F04DFB211D04A834F054FBBDF8143047
S214007280BB80A67FA6B1E37F0DF10F011E4304A8C5
S2140072908DF80F60FDF77DFC3046FFF754FF411E6A
S2140072A089B204A8FCF7FAFF3046FDF7A7F80646B1
S2140072B094F8213099070ED5022104A8FCF7EEFFBA
S2140072C00D2304214370017004A8FCF7E7FF3B7F01
S2140072D043F008033B77AA0523880ED5032B03D07B
S2140072E094F821305B0714D4022104A8FCF7D6FFDB
S2140072F06FF07F0303703F2343702388032B08D16E
S21400730094F820300DF10F0104A88DF80F30FDF72A
S21400731040FC0236B1B204A8FCF7C0FFBDF814303A
S214007320BB8007B0BDE8F08F00297FF478AF217FDF
S21400733000297FF474AF0CE00DB9617FF8E7022DE9
S21400734002D1BAF1020FF8D0208B618B88427FF40D
S21400735066AF43F0400362E770B50546FFF733FEBD
S214007360FF28044611D02E68304634F004FD60B184
S214007370A9888C420BDA305DFFF7E5FEFF2808D0BF
S2140073800444E4B2A142B8BFFF24204670BDFF24E7
S214007390FBE70446F9E770B506460D46FFF76FFEB5
S2140073A0FF28044609D03268105CFFF7C0FE22446E
S2140073B00244002053792B7070BD0620FCE770B5A0
S2140073C006460D46FFF75BFEFF28044600D1FEE7A3
S2140073D03268105CFFF7ABFE22440244557170BD64
S2140073E010B50446FFF74BFEFF2806D02368185C4E
S2140073F0FDF704F80230C0B210BD0220FCE770B5FD
S2140074000646FFF7A9FFFF2804462CD03568284615
S21400741034F096FC83051BD53046FFF7E1FFB188B4
S214007420A21C93B210FA82F28A4205EB04061CDC18
S2140074302A5D02F07F0213449CB210FA83F399424D
S21400744013DB3288C2F3C7127F2A01D09942E7DCE9
S2140074502B7803F00703032B05D1284634F081FC74
S21400746008B90134A4B2E0B270BDFF24FBE738B51A
S2140074700546FFF7C4FFFF28044614D028680378A3
S21400748003F00703032B04D134F06BFC08B101347E
S214007490E4B22846FFF7A4FFAB8804449C42CCBF66
S2140074A00620002038BD0620FCE710B50446FFF78E
S2140074B0A6FFFF2816BF23680020C01810BD10B511
S2140074C00446FFF7F2FF2368C01AC0B210BD70B5BD
S2140074D005468688FFF7F3FF04462846FFF780FF39
S2140074E00444301B80B270BD10B50446006834F00A
S2140074F027FC830503D52046BDE810402CE7FF2077
S21400750010BD08B52EF0E2FB003818BF012008BDFC
S21400751008B52EF0DBFB00B1023008BD00232DE9D4
S214007520F0419EB003930AAB089308230446006814
S2140075300D46ADF8243034F01EFC002859D0204605
S2140075400DF10B01FFF7AAFD002852D1204603A932
S214007550FFF7C4FD064600284BD10DF11008434640
S214007560286869689DF80B2003C303981946FDF741
S21400757077FAA3688DF81C20196808A834F0B0F9CB
S2140075802046FFF72DFF05462046FFF798FF0746E3
S2140075902046FFF79CFFAB1EDBB20246394608A822
S2140075A0CDF800802DF094FA2046FFF788FF256876
S2140075B00246294608A8FFF74AF92046FFF775FF56
S2140075C005462046FFF783FF2A460346294608A8B5
S2140075D00096FFF779F92046FFF702FFA388256893
S2140075E01B1AE91808A8FFF702FA237F43F01003D6
S2140075F023771EB0BDE8F0810023F0B5A3B0039357
S2140076000EAB0C930823044600680D461646ADF8EC
S214007610343034F0B0FB30B120460DF10B01FFF7EB
S2140076203DFD10B1082023B0F0BD204603A9FFF7AA
S21400763055FD0028F6D104AF3B46286869689DF8DA
S2140076400B2003C303981946FDF70AFA31680CA805
S2140076508DF81C2034F044F92046FFF7C1FE851E45
S2140076602046FFF72CFF06462046FFF730FFEDB218
S2140076702B46024631460CA800972DF029FA2046E4
S214007680FFF71DFF2668024631460CA8FFF7DFF815
S2140076902046FFF70AFF06462046FFF718FF01229E
S2140076A00346314600920CA83246FFF70DF908A9AA
S2140076B00CA8FFF79CF92046FFF792FEA3882668E1
S2140076C0181A31182A4608A83EF051F8003818BF94
S2140076D00120C000A7E70B6803604B68436003788F
S2140076E083F0020303707047082208B53EF03FF8A7
S2140076F0B0FA80F0400908BD10B5044600680AF0EC
S21400770063F84FF00043236010BDF0B5002787B044
S214007710044600680E46154605970AF055F84FF0E1
S2140077200043236010234FF41051CDE90163074A4C
S21400773045F44073009705A81DF0E4FB09F0CEFF62
S21400774000B1FEE7059B236007B0F0BD004440048F
S21400775008210AF02FB82DE9F04F0026A74B8FB06E
S214007760D3F828900096B9F1000F00F0228303F5B5
S21400777000549E6294F85931002B4BD019F0030F39
S21400778014D004F55A71A1F6344013F01BF958B919
S21400779004F55C70FFF7DCFF00B1FEE798482DF0BB
S2140077A06FFB10202DF08AFB2DF01EFB19F4405FB6
S2140077B004D029F0DDF908B12DF016FB19F4007F8E
S2140077C005D019F0040F02D18E4813F0E3FA19F42D
S2140077D0827F0AD019F4807F04D194F8590133F0DF
S2140077E048FE10B1874812F03DFD19F4800F11D005
S2140077F0854B08A8D3F8542F93F8521F0892FFF72A
S214007800FCF9024630B994F859311BB101467F485D
S21400781012F01AFE19F40073019300F0468194F8F2
S21400782059310BB128F0F0FC4FF0000A01235746FF
S214007830D04602AA8DF8083003928DF810300DF16C
S214007840200B5146724803AA28F0FEFE824688B9ED
S214007850B8F1000F3AD14FF6FE73A4F89036009BAD
S214007860C4F89456A4F8923684F89866002028F057
S214007870B7FD62E0664B08930023CDE909A358469E
S21400788017F02FFE0028DCD10A9A5378023B062B0D
S214007890F5D9B8F1000F16D094F87F1153888902F5
S2140078A05BBA89B21FFA83FC61450CD0B8F8023087
S2140078B05BBA9BB29942E2D010793978884202D8F6
S2140078C0DDD19C45DBD99046171DD8E7B7F80130C7
S2140078D0B8F802205BBA98B20090D7F80300FDF71C
S2140078E01CF991B2054652BAB4F890061FFA82F80F
S2140078F040453E784FF6FF602AD08142ABD0B5F5C2
S214007900967F38BF4FF496754249A4F890268D426C
S21400791028BF0D460120A4F89236C4F8945684F881
S214007920986628F05DFD94F85B319D0702D428F038
S21400793048FD10B1384811F01BFF0023344D039367
S2140079405A46284603A91BF0C5FBD0B100211EE00D
S214007950814280D0B5F5967F38BF4FF496752D4A94
S214007960954228BF154694F89826B242D2D1B4F86C
S21400797092260099C4F894568A4218BFA4F8923604
S21400798074E79DF832305807C3F38001D8D594F8D1
S214007990AC7681B9002F4AD0112220483CF0D1FCA9
S2140079A094F8D436D90702D51B4833F0DAFF1A48C4
S2140079B011F0B6FE3BE09DF83050BD4206D12A4697
S2140079C058461649FDF785F8854229D95E4604F2E1
S2140079D09C650FCE0FC533682B704FB194F8D43624
S2140079E00D48DA0702D533F0BCFF0B4811F098FEBD
S2140079F094F8AC36002B40F0EE80FEE7F01A00203C
S214007A00583E0020483C0020F02A0020E43D00209C
S214007A10284000209BC42000A84100208C41002064
S214007A20B649A1F57B6012F0CDFF0028E0D0052511
S214007A300026DFF8F88208F62847013D40F0EC8083
S214007A402E464FF0010A03955A46AD4803A91BF08F
S214007A5041FB0546002800F00681002E00F0338129
S214007A60A84DB5F8B83873B9022105F6A80011F08C
S214007A7015FD40F2222105F6A80014F0A7F805F639
S214007A80A400FEF7C6FBD4F8745775B15A46092110
S214007A909B4817F011FD40B12846FDF7A2F80023D9
S214007AA09948C4F87437FDF7ACFF40F6040319EAAA
S214007AB0030F1CBF0023C4F8583640F6042319EA07
S214007AC0030F02D091481BF023FD19F004080DD0D7
S214007AD094F85931022B00F2FD808D48FDF791FF96
S214007AE000238C4884F80E38FDF78BFF19F0805F72
S214007AF0844E2FD0002308A8089328F0D7FB48BB55
S214007B00089D3DB3D4F804389D4223D0D6F8543FA0
S214007B101D40C4F8045825B97D48FDF772FF84F867
S214007B200E58FF2300258DF80C3003A908A8FFF790
S214007B306CF82B4601350028F7D0DAB2764B77483A
S214007B40B3FBF2F3C4F8083896F8523F84F81038BE
S214007B5011F0C8FC19F4804F06D096F8523F6F48D3
S214007B6084F8103811F0BEFC19F4805F03D00021B1
S214007B706B4814F02FFEB8F1000F06D094F8593178
S214007B80022B02D1012028F02BFC019B83B15B491C
S214007B90A1F57B6012F016FF50B1584808A92FF0E7
S214007BA01BFA9DF832309D0702D45E4811F0B8FDEE
S214007BB094F8590133F05DFC002840F0BF80C4F80B
S214007BC0FC0696F8A439002B40F02081B8F1000F8F
S214007BD000F0C780FBE0494884F8F436FCF702FF63
S214007BE0514901F1480010F03BFDD4F8DC36D4F8DA
S214007BF0E02613430AD01146D4F8DC0604F2EC6300
S214007C0083E80300474811F07EFD10E7454811F071
S214007C105DFD0028F6D00AE798F8223003B3D8F8BE
S214007C201C30EBB103965A46384603A91BF052FAAD
S214007C3030B140462DF0E8F8002388F822300FE0F7
S214007C409DF83130DB06EED598F810209DF83030E0
S214007C509A42E8D15946404610F0F8FC0028E2D097
S214007C6008F12408E9E69DF83130DF06C3F3001872
S214007C707FF5EAAE05269DF830702C4B013E0AD102
S214007C80FDB19BE80F002F7485E80F0085F822A051
S214007C902B46EE6112E093F8222022B9002D08BF91
S214007CA01D462433EAE71A7CBA42FAD118465946EA
S214007CB0009310F0CBFC009B0028F2D0BDF83420D7
S214007CC01A844646C0E61A48FDF79BFE194811F08E
S214007CD0A7FBD8E60823A4F83C380023164984F806
S214007CE04438C4F82C18C4F83018FDF737FC094897
S214007CF0C4F83418FDF71CFEF8E600BFD441002097
S214007D0028400020F02A0020684200203041002051
S214007D100443002010430020C13F0500F442002029
S214007D20A0410020A84100208C4100200034002003
S214007D30D033002098330020807F0A0009F0010528
S214007D40B8F1000F38D1002D58D196F8A43943B1B8
S214007D50019B002B5DD119F0020F02D0854810F070
S214007D60E4FE19F4047F02D0834813F08DFF19F067
S214007D70130F12D096F8553B7BB10027D6F8345730
S214007D80DFF81082002D40F0CD80002F40F0E68016
S214007D9094F87B339B0740F1D580784B1D4693F8CB
S214007DA04040073403EBC40405F138039C4240F01E
S214007DB0DA800FB0BDE8F08F94F85831580702D536
S214007DC06F4811F0D5FC75BB96F8A439F3B994F852
S214007DD0590133F04EFB0246002800F095806648B5
S214007DE011F0DAFA96F8DC3A012BBAD1042162488F
S214007DF010F079FF604811F05AF8B2E794F8FF36B1
S214007E00012B14D196F8A439002BAAD0019B002B85
S214007E1075D04FF0050A5B4DBAF1010A0FD15548EF
S214007E2010F083FED2E694F8FF36012BCCD0012367
S214007E3084F8FF36D4F8FC0633F0F1FBC1E6AB7CE1
S214007E40990701D42035E7E7002302934E4808AA95
S214007E5002A91BF03FF90746C0B1EF69002FF1D128
S214007E60AB7C13F0010B42D0FCF7D9FD00F5922154
S214007E7001F57871012938BF01214448E961FDF711
S214007E80B7FD3946284628F08FFBDBE79DF83130F2
S214007E901A07DBD59DF832305B07D7D49DF8303013
S214007EA0402BD3D1294608A810F030FE0028CDD0AC
S214007EB0D6F8A83953B1314808A9984730B12846B2
S214007EC02CF0A2FFAB7C67F34103AB74284603A9F2
S214007ED02FF082F89DF81E30980748BF9DF81D7059
S214007EE02B7EBB42AED02F762CF07EFFAAE728462C
S214007EF02CF08AFFAA7C6BF34102AA74A2E719F061
S214007F00020F3FF463AE8AE796F8DC3A002B3FF4A4
S214007F1028AF1F49184810F077FF0121164810F0C7
S214007F20E2FE1EE7454517D0284629F0B1FFEB7C58
S214007F30C3F3400398420CD023B1AB7C990701D51C
S214007F40DA0707D50C4810F0BBFE0B4810F0AFFF61
S214007F5023E708B10137BFB26D6913E7B6F8E03A18
S214007F60BB42EFD119E7AB6B13B14846E96B9847B4
S214007F70083519E794340020CC350020F01A00208C
S214007F80A8410020A8340020284000209C3400206F
S214007F9000880400583E002001F1080313F8012D64
S214007FA08B4200F8012BF9D17047F8B507680E46EA
S214007FB0384633F0C7FE0446384633F0C1FE054661
S214007FC0FEF79FFF04EB4003DBB2FF2B13D0C5F395
S214007FD08120022805D0032807D000230020337212
S214007FE0F8BDFB5A33800123F8E7F9183046FFF74F
S214007FF0D3FF0223F2E70620F2E7F8B507680E463D
S214008000384633F09DFE0546384633F09BFE044660
S2140080102846FEF776FF08B10234E4B2C5F38123A2
S214008020022B12D0032B13D02846FEF7B8FF08B158
S2140080300234E4B2FF2C06D0C5F38135022D09D0F8
S214008040032D0DD04DB1062009E00234E4B2EBE773
S2140080500834FBE701253B5B338000203572F8BD12
S21400806030463919FFF798FF0225F6E708B5044BA6
S214008070C180002218683CF00BFF00B1FEE708BD87
S2140080806019002007B50A68C0F80A204A68C0F8D8
S2140080900E206846FFF780FF0723094A1DF80310E5
S2140080A0013B02F8011BF9D2064B0022694618680C
S2140080B03CF0F4FE00B1FEE703B05DF804FB00BF41
S2140080C0D05A0020601900202DE9F0410446B0F88F
S2140080D06C600EF0C8FCE36F364AC11A94F8800054
S2140080E000233230A1FB00013BF03AFFA02794F8B2
S2140080F081307E4303EB830300EB430000F17808F6
S21400810000F5647520467608B54230F8843B28BFF3
S2140081103546B04528BFB04613F08002A16F1FD089
S214008120B4F86C607E433144491BFEF7C3F8A36F76
S214008130616F3344A367204B72181A61A378626795
S21400814013F0FD0F33D094F86E00A5F5167508EB06
S2140081500502491B00F07F00BDE8F04133F0AEBDDC
S21400816094F86E30DE090BD062F3C71384F86E30D5
S214008170491BFEF79FF82046BDE8F041FCF7A2BA7F
S2140081804144B4F86C50FEF795F894F86E307D4391
S21400819043F0800384F86E3008F0D6F9A26F636F60
S2140081A02A44A267044A2B4463671361E3E7BDE8E9
S2140081B0F08100BF40420F00701A0020F8B5044658
S2140081C0B4F86CC090F86E008C45069DB4F87060EC
S2140081D000F07F070CD094F86E0062F3060084F877
S2140081E06E004FF6FF729142A4F870300CD1FEE795
S2140081F0974206D062F306009E4284F86E00F0D1E5
S214008200F8BD9E42E7D1FBE74FF6FD72934209D8D0
S21400821015480246C16022F8023B2B68C0F80230BF
S2140082206B68536094F86E30A4F86C106FF3C71345
S21400823084F86E3004F18400FEF79AF8B4F86C30D7
S2140082404BB10EF010FC606708F07EF9A067204680
S214008250BDE8F84038E723881B06D1D42046BDE8A1
S214008260F840FCF72FBA00BF701A002013B590F83C
S2140082702030DB0717D590F8212002B9827A0B4C04
S214008280343004F5C073009330F8121CB4F89C31F7
S214008290FFF794FF2CF09AFD04F5AC7002B0BDE831
S2140082A0104012F077BD02B010BD00BFF03A0020BB
S2140082B008B519B1A1F10B030F2B0ED800F58053AA
S2140082C093F8692F8A4206D000F5FA5083F8691FA2
S2140082D00830FFF7CBFF002008BD0720FCE710B5ED
S2140082E004460C30FEF789FC00B3A27A8A4205D118
S2140082F04FF480402CF016FE002010BD4FF4804056
S214008300A1722CF0DBFD04F5B470FEF7F7FD2378C0
S2140083109B06F1D4A37AE37294F8213013B9204671
S214008320FFF7A4FF2046FEF719FDE5E70720E4E780
S2140083301FB590F820300446990703F001020ED5C9
S214008340418C61B1F2B943F0010380F82030FFF7A9
S2140083508DFF204604B0BDE81040FEF7FFBC8AB192
S214008360002294F8203011466FF3000384F8203082
S21400837002AB009304F134004FF6FE73CDE90222FF
S214008380FFF71CFF04B010BD024608B569B902F538
S2140083908052B2F86A3F00F5FA5008301BB1A2F8D6
S2140083A06A1FFFF7C5FF002008BDA020B1FBF0F351
S2140083B000FB1310F0B94FF6FF70834228BF034648
S2140083C0B1F51B5F9BB215D302F5FA5002F5805249
S2140083D0B2F86A1F08308B42E5D0A2F86A3FB1FABD
S2140083E081F2B3FA83F352095B099A42D9D1FFF7B7
S2140083F03DFFD8E70720D7E7004865E66C3A00203F
S2140084000A4690F8FE10FEF742B9002910B514BFD0
S21400841033210E211446FFF7F3FF38B1D0F80230AF
S2140084202360D0F806300020636010BD1720FCE7FC
S214008430F8B5044618300D46FDF7E3FA4FF0FF3363
S21400844023746374A374E37423756375A375E3756B
S21400845023726372A372E37223736373A373E3736B
S21400846095F8FE30DBB126466378284643F00103D4
S214008470637016F8087B32463946FFF7C6FF28B900
S21400848096E8030004F1100383E8030017B92846B2
S2140084902CF060FD2078BDE8F84033F04CB9F8BD0C
S2140084A02DE9F0410746884603261B4D86B0013E5F
S2140084B002D106B0BDE8F0813B7803BB6B7803F5CC
S2140084C00033404629780593FFF79AFF044600B329
S2140084D04278F2B1FF2A0CBF04230223034401931F
S2140084E0012341F20101029200934FF0004205A8D9
S2140084F01CF008FD09F0F2F8014610B1FEE7AB7873
S214008500DDE76278FF2A0CBF0420022020443BF0FF
S21400851018FF0335CBE700BF0888040070B50D468A
S214008520C2B00446FCF750F895F8FE60002E3BD12A
S2140085302378002B14BF0220012028F091FE0C287F
S21400854000D1FEE7637866F3000322466370284690
S21400855012F8081BFFF759FF48B14FF0FF3323729C
S2140085606372A372E37223736373A373E373FCF7FC
S21400857056FA23786060012B2FD11948FDF741FA8F
S21400858034212846FFF73CFF38B3FBF74CFF154B6A
S2140085900246984228BF1A46D5F80011104842B045
S2140085A0BDE87040FDF7B4B901A833F0CCF8324608
S2140085B0294601A83CF0E4F8D5F80031204601A988
S2140085C041938DF80261FFF76BFF207801A92CF02C
S2140085D0EEFB637843F00103B7E742B070BD00BF1F
S2140085E08C3900200014730F70B50C460546C2B0D7
S2140085F001A833F0A8F894F8FE602146324601A898
S2140086003CF0BEF8D4F80031284601A941938DF815
S2140086100261FFF745FF287801A92CF0C8FB42B09D
S21400862070BD10B591F8FE200446FF2A09D080F8E8
S214008630FE203CF0A5F8FCF7F2F9C4F80001002093
S21400864010BD0720FCE72DE9F8430F46984690F842
S214008650FE4005461646FFF7D3FEC4F1FE0401466B
S214008660A4B208F1020918B94C450AD2032021E049
S214008670437802331C44A4B24C45F7D32846FBF794
S214008680CDFF95F8FE30B8F1FF0F994405EB0300D7
S21400869085F8FE90EF5414BF022304234246314669
S2140086A080F8018018443CF06BF8FCF7B8F9C5F880
S2140086B000010020BDE8F88310B50446FFF7A0FED1
S2140086C0014620B12046BDE81040FBF7A7BF10BD0D
S2140086D000232DE9F74FFE2281F8FE300378054689
S2140086E0002BADF8042014BF0220012001AA0C467E
S2140086F02CF05CFA0746002842D1BDF80430FE2B69
S2140087003DD88146314E84F8FE3006F1060B2B78B4
S214008710002B39D196F801A020463178FFF770FE7D
S214008720804698B142788AB1FF2A0CBF0421022104
S21400873001AB01440AF5003008F0FCFF38BB98F89E
S2140087400120019B9A4218BF4FF0010903365E458F
S214008750DDD1B9F1000F03D021462846FFF744FFCC
S2140087602B78BBB933212046FFF7A6FF34212046DD
S214008770FFF7A2FFFCF753F9C4F8000100E0172743
S214008780384603B0BDE8F08F96F802A0C4E74FF075
S2140087900109DBE734212046FFF732FE06460028B3
S2140087A0EED0FBF740FE0A4B6D68984228BF18468D
S2140087B08046FCF734F9431B98458ABF2D1A0020E3
S2140087C005EB0800B11CFCF74BF9D3E7088804005A
S2140087D00014730F30B50446C3B001A832F0B3FFDF
S2140087E001A92046FFF774FF054601A92046FFF7BA
S2140087F01FFE284643B030BD70B50C460546C2B0D5
S21400880001A832F0A0FFFF22002120463BF099FD90
S214008810284601A9FFF75CFF054640B99DF80261AE
S2140088202046324601A93BF0ABFF84F8FE6028469E
S21400883042B070BD4FF0FF3310B504460374437466
S2140088408374C374037543758375C375037243726B
S2140088508372C372037343738373C37343786FF374
S21400886000034370FBF7B0FE2378002B14BF0220F2
S214008870012028F0F5FC0C2800D1FEE704F11800D2
S214008880FDF7BFF82378012B02D10448FDF7B9F8AD
S2140088902078BDE8104032F04EBF00BF8C39002073
S2140088A038B500F5005393F85931044693B900F5EE
S2140088B0FA500830FFF713FD054648B904F5F250A4
S2140088C00430FFF7B7FF04F5F3501030FFF7B2FFA0
S2140088D0284638BD0D25FBE738B500F5005393F85C
S2140088E05951044685B900F5FA500830FEF721FACA
S2140088F004F5F2500430FFF79DFF04F5F3501030F6
S214008900FFF798FF284638BD0D25FBE72DE9F04117
S21400891005460E46B9B300F5005393F85941A4BB7B
S21400892000F5805800F5F657D8F8D80E183781426B
S21400893010D14FF480202CF0F5FA05F5F2500430F3
S214008940FFF778FF05F5F3501030FFF773FF20466A
S214008950BDE8F08108F038FF4FF48020C8F8D86EE4
S2140089602CF0ACFA4FF480702CF0A8FA3846C8F811
S214008970DC4E11F02FF9064BC3E96444C3F8984166
S214008980C3F88C41D9E70724E1E70D24DFE700BFF1
S214008990F03A002070B58CB0054602A80C46FCF7ED
S2140089A05BF84FF2BF03ADF82A306B789B0726D4EE
S2140089B02B78002B14BF1C200D2027F06DFF0646D9
S2140089C0F8B1214694F8FE20FCF778FB044690B9EF
S2140089D002A81AF011FB31460B4B0C48009502AA70
S2140089E0FDF780F8044630B96B7843F002036B70ED
S2140089F020460CB070BD3046FCF7F3F8F8E71824B4
S214008A00F6E70324F4E700BFCB6500000033002040
S214008A1038B5154627F050FF044650B101462A46A1
S214008A200448FDF791F920B12046BDE83840FCF730
S214008A30D8B838BD00330020024690F8403030B534
S214008A40C4189442154606D1402B08D05A1C80F80C
S214008A504020C15403E02D7801328D42F1D130BD63
S214008A602DE9F0419CB0804601A80C461F461646EC
S214008A70229DFBF7F1FF4FF2BF03ADF8263000232F
S214008A808DF86C3023781BB10E210BA8FFF7D4FFAE
S214008A9063781BB133210BA8FFF7CEFFA3781BB179
S214008AA005210BA8FFF7C8FFE3781BB103210BA82D
S214008AB0FFF7C2FF23791BB102210BA8FFF7BCFF0B
S214008AC063791BB107210BA8FFF7B6FFA3791BB18B
S214008AD034210BA8FFF7B0FFE3791BB101210BA8E7
S214008AE0FFF7AAFF237A1BB100210BA8FFF7A4FF0C
S214008AF0237B1BB14A210BA8FFF79EFF637A1BB1AD
S214008B0004210BA8FFF798FFA37A1BB10C210BA832
S214008B10FFF792FFE37A1BB135210BA8FFF78CFF16
S214008B203744BE421BD198F80030002B14BF1A20E1
S214008B300B2027F0B1FE064670B39DF86C30A3B943
S214008B4001A81AF059FADDB93146144801AAFDF712
S214008B50FBF8044680B920461CB0BDE8F08116F844
S214008B60011B0BA8FFF768FFDBE70D210BAAFDF73B
S214008B70B0FD04460028E3D03046FCF732F8EAE7BA
S214008B802B4605AC1035224618685968083303C2D0
S214008B90AB421446F7D1D7E70324DCE700330020C6
S214008BA030B50446C3B001A832F0CDFD204601A979
S214008BB0FFF78EFD044668B9074D15F8011B01A89E
S214008BC0FFF71EFC20B10134E4B2052CF5D10120DC
S214008BD043B030BD0020FBE70E88040010B50C46FD
S214008BE00E21FFF70DFC38B1D0F802302360D0F824
S214008BF006300020636010BD1720FCE7082208B589
S214008C003CF0B5FDB0FA80F0400908BD2DE9F04310
S214008C104B79804613F0180F0D4693B000F0D880BD
S214008C2008A80FF095FE044630BB9DF82830FF2BB1
S214008C3000F0CA800AA82EF00FFA20B965490EA8DF
S214008C40FFF7DCFF30B164480AA911F0BBFE00282C
S214008C5000F0BC809DF8383008F5B357FF2B07F1BD
S214008C60080710D006A93846069530F034F90446B1
S214008C70069832F01FFF0025284632F01BFF2046DC
S214008C8013B0BDE8F0830EA80FF008FE40B12946E9
S214008C90384608AA11F0B4FD04460028ECD1E1E7F6
S214008CA00EA80FF0EFFD0028DCD028212846FCF7A0
S214008CB044F89DF8261000297DD1022303AAFCF76C
S214008CC0A2F804460028D7D1BDF824209DF80D3020
S214008CD052BA013392B2B2EBC30F4FEAC30668D35F
S214008CE001468DF80D302846022303AAFCF7A4F9A6
S214008CF0214608222846FCF777FA814604460028D3
S214008D00BAD10146082328462A460096FCF7A4FA5C
S214008D1032490AA8FBF7CFFD00283CD040F26D236D
S214008D208DF81290ADF8103008F5805898F8303766
S214008D3004A85A1C88F830278DF813300FF025FE4B
S214008D403146034604AA2846FCF776F904A80FF035
S214008D501CFE10F00701044610D0C1F10801C9B28C
S214008D6006A80FF03BFE06A80FF00FFE2644B6B28C
S214008D7003463146284606AAFCF75EF9BDF82430BD
S214008D805BBA08335BBAADF824302822284608A917
S214008D90FCF72AFA80E740F26D43ADF81030402326
S214008DA08DF812300E4BB3F85C315BBAADF8143068
S214008DB0BAE7062460E72946384608AA11F0C2FC3E
S214008DC004460028E1D057E7142455E7022453E769
S214008DD0072454E7383E002024320020703E00204E
S214008DE0F03A002038B504460D46FFF707FF28B1D5
S214008DF0BDE838404FF400302CF094B82B684FF4A0
S214008E00003023606B686360BDE838402CF056B8CD
S214008E10F0B50546007840B30A88C600F6B2B2FB45
S214008E20F6F3012706FB1322431EDCB2C2F3C4038B
S214008E30E31A55FA83F35B7802F0070207FA02F2A8
S214008E4013EA020011D04B88B3FBF6F206FB12338E
S214008E50C3F3C402A41A55FA84F003F007039F4034
S214008E6043783B4214BF01200020F0BD41F22103AD
S214008E7037B50C460546014601A8019327F0EAFCE3
S214008E8048F205032080294601A8019327F0E2FC5A
S214008E90608003B030BD30B50546A9B008A80C46C2
S214008EA032F0AFFC08A8FDF717FE0822294608A8EE
S214008EB0FDF720FE694608A8FDF742FE6B4603CB89
S214008EC020602378616043F00203237008A832F024
S214008ED08EFC29B030BD13B50446684610F068FC19
S214008EE0638862785BBA022AADF8003000D1FEE7EC
S214008EF0023AD2B2022A28BF02226846211D10F08A
S214008F00FFFF0020009B9AB262F30F001B0C63F376
S214008F101F4002B010BD00232DE9F3410B604389CA
S214008F2004460E46002B33D01D4F608988B30128B7
S214008F302ED06068218978B302236A46FBF745FF86
S214008F406D466B78628903F10208424520D32A7881
S214008F50C2B9042B1CD1606828B106236A4604F106
S214008F600801FCF726F8D5F80200FBF7D6FDFBF75C
S214008F705EFA2B78002B0CBF3B4600231840336864
S214008F8003433360414604F10800FCF7B5FACCE72A
S214008F90062002B0BDE8F08125680D44D1E700BF89
S214008FA000F8FF071FB500230293ADF80C30831CB2
S214008FB00193437801A8ADF80E30FFF7ACFF05B07B
S214008FC05DF804FB73B590F8FE300546FF2B00EB0A
S214008FD003065DD1062002B070BD6178FF29F9D086
S214008FE0A21C9642F6D32046FDF7CCF920448642D2
S214008FF0F0D323780E2B0BD80E2B10D8DFE803F017
S214009000213E442E42420F440F0F0F0F340F4400F0
S214009010352B2CD013D8332B36D0342B36D0611BBF
S2140090202846227889B2FDF732FB0028D2D12046A6
S214009030FDF7A8F90444B442CFD30020CBE74A2B6F
S214009040EDD10229C6D9A378002BC3D1B4F80330DA
S2140090505BBA0B3B9BB20F2BE1D9BBE71046FCF784
S21400906011FB0028DBD1B5E70229D8D8B2E72046A5
S21400907001A9FFF797FF0028D1D0ABE7022399425A
S214009080CDD2A7E71023FAE70823F8E70423F6E78C
S2140090900446D0E730B585B00C466A46352105460D
S2140090A0FDF7FEF938B9009BCDE90105214601A878
S2140090B00393FFF730FF05B030BD002310B504461C
S2140090C083710948084058B1237004236370FBF786
S2140090D0AEF9FBF722FD0623C4F80200A37110BD0B
S2140090E0002AF1D1FBE700BF00F8FF0773B591F83F
S2140090F0783005460C465BB16846FBF710FD082342
S2140091006A460E212846FFF79EFA002840F0BB80EC
S21400911094F879306BB1684604F11001FBF7FFFC58
S21400912008236A4633212846FFF78DFA002840F0C8
S214009130AA8094F87E30002B40F0988094F8803017
S2140091407BB10021B4F85A306A465BBAADF80130FC
S214009150284603238DF80010FFF775FA002840F024
S214009160928094F884307BB10022B4F85C308DF89D
S21400917000205BBAADF801306A4603234A21284630
S214009180FFF761FA00287ED194F883306BB1002295
S2140091906846616FFFF791FF6A46352128469DF8BD
S2140091A00630FFF750FA00286DD194F87C30002B7B
S2140091B06BD194F87D3043B108230721284604F18B
S2140091C04902FFF740FA00285DD194F87A3043B19F
S2140091D010230521284604F12002FFF734FA002860
S2140091E051D194F87B306BB104F130061121304632
S2140091F0FCF7E4F93246C3B203212846FFF723FA08
S214009200002840D194F87F305BB1B4F858306A46F5
S2140092105BBAADF80030012102232846FFF713FAA7
S21400922088BB94F881303BB110230421284604F112
S2140092305E02FFF708FA30BB94F88230A3B12046EE
S21400924040F20C43ADF8003030F86E3F01A95BBA2F
S214009250ADF8023027F066FD04230C2128460DF1F8
S2140092600202FFF7F0F970B900200CE0606DFBF722
S21400927054FC042300906A4634212846FFF7E3F99D
S21400928000283FF45BAF02B070BD082302212846D9
S21400929004F14102FFF7D7F900288AD0F3E7034626
S2140092A008461A7919683BF06BBA08B50279006867
S2140092B03CF05DFAB0FA80F0400908BD73B56E4622
S2140092C0054603C986E803009DF80410FCF776F906
S2140092D0C4B2102C10D8294630468DF80440FFF74B
S2140092E0E4FF08B12B5D4BB130462946FFF7D7FFA8
S2140092F00020285502B070BD0720FBE71820F9E7CC
S214009300112337B5054608460C4600918DF8043003
S2140093103BF0CAFA01462046FCF7B4F928B1694684
S2140093202846FFF7CBFF03B030BD0720FBE738B574
S21400933000F5005292F859210546B2B9B9B10B783A
S214009340ABB100F5F5501030FFF7DAFF2BF0F2FD69
S214009350044605F5F2500430FFF76CFA05F5F350B5
S2140093601030FFF767FA204638BD0D24FBE70724C8
S214009370F9E710B500F5005393F859414CB900F5DC
S214009380F6500130FFF7BCFF182818BF04462046E9
S21400939010BD0D24FBE74FF6FF720388934208D1F9
S2140093A0D0F80220013204D1C088C01A18BF0120AC
S2140093B070470120704708B50346D0F80200FBF757
S2140093C0ACFB198849BA89B208BDF7B50C46064603
S2140093D08822002120463AF0B4FF354696F8FE3043
S2140093E033449D4201D303B0F0BD2B780E2B0BD82F
S2140093F00E2B11D8DFE803F0338A5079A568105C8D
S21400940010101010B4102000352B31D009D8332B93
S21400941000F08480342B37D02846FCF7B3FF054491
S214009420DCE74A2BF8D10122B5F8033084F8842013
S2140094305BBAA4F85C30EFE70123A81C84F8783008
S214009440FFF7B9FFC4E900012B895BBAC3F34E03EB
S21400945023812B895BBA03F00103A372DCE70122A8
S214009460B5F8033084F880205BBAA4F85A30D3E706
S21400947069462846FFF796FD0028CDD1012384F8DB
S2140094808330009B6367C7E72846FAF7CCFF0123C3
S214009490606584F87E30BFE7012384F87C30D5F819
S2140094A00230C4F84130D5F80630C4F84530B3E78A
S2140094B0012384F87D30D5F80230C4F84930D5F859
S2140094C00630C4F84D30A7E7012304F1200784F8DE
S2140094D07A3005F1120CAB1C3A4618685968083306
S2140094E003C263451746F7D196E7012384F87B301D
S2140094F06B78AA1C102B28BF1023694604F1300095
S21400950000928DF80430FFF7D9FE85E701226B88BC
S21400951084F87F205BBAA4F858307DE70123A81CA6
S21400952084F87930FFF747FFC4E904012B895BBA5A
S214009530C3F34E0323832B895BBA03F00103A376A0
S2140095406AE7012304F15E0284F8813005F1120116
S214009550AB1C53F8040B8B4242F8040BF9D15BE7C3
S2140095602846FFF7B8FC0123009084F88230C4F840
S2140095706E0051E730B50446C3B001A80D4632F080
S214009580E2F8214601A8FFF74CF8044640B901A8C6
S214009590FFF718FD044630B9294601A8FFF715FF66
S2140095A0204643B030BD0724FAE770B50C460546A2
S2140095B0FFF7F1FE01462046FFF7EDFE81422CD173
S2140095C02846FFF7F8FE064620460A46FFF7F3FE53
S2140095D08A4208BF864204D0B04291410ED2012092
S2140095E070BDEB885BBAC3F34E0299B2E3885BBAF0
S2140095F098B2C3F34E039A4203D0F0D84FF0FF3030
S214009600EEE701F0010300F00102934207D0002BC1
S2140096100CBF4FF0FF300120E2E70029F8E70020FA
S214009620DEE72DE9F04180460E4618F8105B04464A
S2140096302946174630464246FEF7E7FE0543EDB29A
S2140096407DB1404604F10801FFF7AFFF00280FDDAB
S21400965031462046FEF762FF207832F06CF8002094
S21400966004E030462BF076FC0028EAD0BDE8F08116
S214009670002FEDD10028EFD041F2883104F1180018
S214009680FCF74BF9E8E770B500F1080604460D460E
S214009690C4B031461030FFF788FF002821DA23785F
S2140096A083B903A832F04FF803A90F48FFF710F864
S2140096B001A903A8FFF792FA20B9314601A8FFF7DF
S2140096C074FF70B129462046FFF764F9032808D1D5
S2140096D041F2883104F1180044B0BDE87040FCF750
S2140096E01CB944B070BD00BF6039002043789B07AA
S2140096F006D4044B93F85931023B012B00D8C2E73D
S214009700704700BFF03A002038B504460D46FEF715
S21400971005FF0A4B93F8593133B1022B09D0207854
S214009720BDE8384032F007B829462046FEF780FEEE
S214009730F5E729462046FFF7D9FFF0E7F03A002084
S21400974030B50C46C3B0054601A831F0FCFF2146F3
S21400975001A8FEF766FF18B10724204643B030BDC7
S21400976001A8FFF72FFC04460028F5D1284601A9DA
S214009770FFF7CAFFF1E710B50446C2B001A831F002
S214009780E2FF204601A9FEF7A3FF18B9204601A96B
S214009790FFF7ACFF42B010BD0048ECE734390020BC
S2140097A00048E8E7603900208378028803B9090298
S2140097B0114489B28A4284BF013189B283F0010321
S2140097C001808370704738B50C468D18AC4200D1C6
S2140097D038BD14F8011BFFF7E7FFF7E708B50346A7
S2140097E00846FBF79AF9586008BD2DE9F043D0F813
S2140097F0FC30044697B02BB93C3017B0BDE8F043B8
S214009800FCF7FFB893F82230022B0DD0032B00F0A4
S214009810DF80012B40F0AF80FBF701F90222D4F87D
S214009820FC30A06683F82220D4F8FC300CA81E8CEE
S214009830FBF712F908206F492BF086FF0546002833
S21400984000F0998001238DF81430B4F8643005A92F
S214009850ADF8153094F866308DF81730FCF733FF06
S214009860002840F0AF80644B0593FBF7D8F8A36E52
S2140098700622C01A4FF47A73B0FBF3F040BAADF884
S214009880180005A92846FBF719FC002840F09A8026
S2140098900DF10408404627F0F7FC98E80300574B04
S2140098A0059306AB83E80300554B694628460093AC
S2140098B0FCF709FF002840F0858005A90C22284601
S2140098C0FBF7FCFB014600287CD1D4F8FC30002BCB
