S01D00006275696C642F64656275672F6F742D6E63702D6D74642E7333379F
S3150800600008180020E99D0208F5A00308F9A003086E
S3150800601049700208FDA0030805A103086D68020877
S315080060206D6802086D6802086D6802086D680208E6
S3150800603009A103080C7B04086D6802086D6802084C
S31508006040058E02086D6802086D6802086D68020808
S315080060506D6802086D6802086D6802086D680208B6
S315080060606D68020869B0020867B002086D68020820
S315080060706D6802086D6802086D6802086D68020896
S315080060806D6802086D6802086D6802086D68020886
S315080060906D6802080D6902086D6802086D680208D5
S315080060A06D680208E9680208C56802086D68020892
S315080060B06D680208250B0408F913040873350408EB
S315080060C06F3504086D0B040889350408773504080C
S315080060D0C91304087B35040839140408A1140408F4
S315080060E06D6802086D6802086D6802086D68020826
S315080060F06D6802086D6802086D6802086D68020816
S315080061006D6802086D6802086D6802086D68020805
S315080061106D6802086D6802086D6802086D680208F5
S315080061206D6802086D6802086D6802086D680208E5
S315080061306D6802086D6802086D6802086D680208D5
S315080061406D6802086D6802086D680208213B04083C
S3150800615069F703086D6802085D35040863350408A5
S315080061606D6802086D6802086D6802086D680208A5
S31508006180F0B5114A114C124E00F00105E3695F079C
S3150800619013D40DB9334213D103EA00078F4207D14E
S315080061A00B4A1A40002A0CBF00206FF00100F0BD10
S315080061B0013AEBD16FF00200F9E74FF0FF30F6E74E
S315080061C06FF00100F3E700BF8096980000000350C7
S315080061D002000100000000000000000000000000AE
S315080061E000F50050B0F80207704700F50050B0F807
S315080061F00007704700F50050D0F84C08704700F5C6
S31508006200805090F8520F704700F5805090F8600F54
S3150800621070470148704700BF5C660408004870472D
S315080062205D660408004870475E66040800487047C3
S315080062305F66040800F58050D0F8EC0A704700F550
S315080062408050C0F8EC1A704700F58050D0F8F80A6C
S315080062507047002908BF4FF4E151054B00F58050FF
S31508006260994294BFC0F8F81AC0F8F83A704700BFC8
S315080062709AC4200000F58050D0F8FC0A7047074BF6
S3150800628000F58050002914BF0A461A46044B9A4264
S3150800629094BFC0F8FC2AC0F8FC3A70470075120093
S315080062A09AC4200000F50050D0F86401704700F544
S315080062B0F5501030704700F5F6500130704700F57C
S315080062C08050D0F8DC0E704700F58050B0F8120FF9
S315080062D0704700F58050A0F8121F70470346828861
S315080062E0C088114481429DBF186899808018002093
S315080062F0704770B505680C4625B9BDE870404B680F
S31508006300084818478B6898476A680146831A002B1D
S31508006310B8BF121A2368A8BF0022BDE8704001481A
S31508006320184700BF081B002038B50C461146A2685E
S315080063300346944206D00568AC420BD10260FFF7CB
S31508006340D8FFA46038BD94420DD011469268002A41
S31508006350F9D1F6E72A460021F9E78B68002BF0D039
S315080063609B688B60EDE70029F7D1002DE9D0AA6874
S315080063701A60E6E72DE9F041936805460C4616468D
S3150800638098473246074621462846FFF7CDFF286834
S31508006390002203466BB16168D3F804E0A1EB070C51
S315080063A0AEEB070898EA0C0F13D4A1EB0E010029EF
S315080063B007DA4AB9A0602C6031462846BDE8F041A4
S315080063C097E71A469B68E5E79368A3609460BDE87B
S315080063D0F081BCF1000FEBE770B5066804460D4680
S315080063E07EB18B6898477368C01A002809DB204677
S315080063F02A463146FFF798FF30463368BDE87040B5
S31508006400184729462046BDE8704072E700F5005354
S3150800641093F8483813B102490830DDE7704700BFE2
S315080064206066040800F5005393F8483813B102492A
S315080064300C30D1E7704700BF6C660408012300F0F2
S315080064400700834013F0220F09D113F0880F08D1F3
S3150800645013F0440F14BF01200020C0007047042029
S31508006460704710207047D0F8020000BA7047420003
S31508006470400800F0553002F0AA3202439300920811
S3150800648002F0333203F0CC33134318011B0903F02F
S315080064900F3300F0F030184300BA704710B590F883
S315080064A030200B4682B1013AD2B280F8302000EB98
S315080064B00210814207D000F1100250F8041B9042E6
S315080064C043F8041BF9D110BD144603CC102C1860F0
S315080064D05960224603F10803F6D1FFDE00F50050A5
S315080064E0B0F802378B420AD0A0F80217044890F891
S315080064F05931022B03D100F5AC7033F0DBBC704781
S31508006500083B002000F50053B3F800278A4205D05F
S31508006510A3F8001700F51C5015F0CABA704700F525
S31508006520F6500A461230002114F090BC00F5F650D9
S315080065300A461230012114F089BC08B531303131D0
S3150800654020F0010021F0010103780A7803F00F0317
S3150800655002F00F029A4207D1043104303DF02DF8BB
S31508006560B0FA80F0400908BD0020FCE710B50446E3
S3150800657004F500542CF036FCD4F8403133F07C4254
S3150800658004D0C3F31903984228BF184610BD42F237
S315080065901073994210B5044615D800F50053D3F880
S315080065A0682191420DD0C3F868112CF040F9074BC9
S315080065B093F8683FDB0704D504F50550183016F044
S315080065C0F7FE002010BD0720FCE700BF082B0020BF
S315080065D000F505500022183016F072BA10B5037887
S315080065E00446002B14BF0520032000F500300DF0EB
S315080065F095F82378BDE81040002B14BF0620042028
S3150800660000F500300DF08AB800F5F6500022183073
S3150800661015F0CABE1346B0F86C202AB10A4600F136
S315080066205C01024816F0B6BF0D207047A031002065
S3150800663038B5044608464D7894F8FE20A91C031B75
S3150800664051FA83F3D21A01443BF079FF94F8FE30ED
S31508006650023B5B1B84F8FE3038BD31F0B4B82EF02F
S315080066603BBA08B51B4B93F8492F012A03D0062AD3
S3150800667005D02AB3FEE7BDE808402EF013BA00207D
S3150800668003F5805303F8B70C93F85011CA070CD5D5
S31508006690C1F3C302013202F00F0262F3C601042AF3
S315080066A083F8501105D831F08EF8BDE808402EF071
S315080066B013BA93F8502160F3C60283F85021F4E721
S315080066C093F8482F520703D5B3F84A3F1B06ECD474
S315080066D008BD00BF082B00208378072B09D190F846
S315080066E06E00C30903D000F07F002FF051BC2FF0D5
S315080066F020BC70472CF056BF13B50446006820B975
S3150800670040F20D13E38102B010BD04F108030093B3
S31508006710A389E288A18831F088FCA073B0B96289A0
S315080067202389E1881344A2889BB20A4492B29A420A
S315080067302CBFC3EB0201C3EB0301A380DB438AB280
S315080067409BB2934228BF1346E380DCE70023172851
S3150800675008BF1846A3600123A073E373D3E710B5F7
S3150800676004468CB0084669462BF0A4F820466A46CB
S3150800677004490DF0BDFB20460CB0BDE810400DF0F5
S315080067806DBC00BF6043040810B44368D3E90040F9
S3150800679023465DF8044B18472DE9F04F05460E468B
S315080067A01C461746DFF890B085B003F1FF3802EBB8
S315080067B081094F4518D128461C490DF095FDDFF88B
S315080067C07090DFF878802644494628460DF090FBFD
S315080067D014F8017B1FBBB442F6D12846144905B00C
S315080067E0BDE8F04F0DF080BD57F8043B18F801AF2F
S315080067F0184603933BF0B2FF02305045039B06D878
S3150800680059462846CAF101020DF072FBD1E70093FA
S315080068105346284607495A420DF06AFBC9E74146DE
S315080068202846013F0DF064FBFFB2D3E70243040894
S31508006830216604081A66040814660408A480040875
S3150800684070B506680D463046074931F0ADFA04467C
S3150800685020B93046054931F0A7FA10B100202C704E
S3150800686070BD2320FCE700BF236604082A660408D7
S315080068702DE9F041804608680F4616461D4688B041
S3150800688008B3114631F038FE002304462B7098B140
S31508006890396891B101A82BF041FA70B908F514507E
S315080068A002A938301FF06CFC58B9304601AA02A973
S315080068B017F05AFD01232B700024204608B0BDE8C6
S315080068C0F0810D24F9E70724F7E7102208B53CF014
S315080068D074FEB0FA80F0400908BDF8B504460F46C4
S315080068E090F8306000EB0616B442254601D1002523
S315080068F006E020463946FFF7E8FF10340028F3D0B3
S315080069002846F8BD882200213BF075BC00230360A9
S3150800691043607047024608B50846FFF7F7FF126856
S3150800692002B908BD0388013303800123116841B900
S3150800693041880B444380518943680B444360D269BC
S31508006940EEE701330968DBB2F1E7C1F30002F8B5F7
S3150800695001F0020343EAC203C1F380010B4399071E
S315080069605AB247D400F5005595F85B7142F0040316
S315080069709F4224D000F505541834204685F85B312B
S3150800698016F03EF895F85961304631F04CFAC0B128
S3150800699095F85B1195F85831C7F34002C1F34000EA
S315080069A08242C3F3C00304D15BB93A0709D50B0782
S315080069B007D400232046A5F8803216F0C3FD002030
S315080069C0F8BD012E0BD100262046A5F8806216F0E8
S315080069D035FD314604F5907016F014F9EFE7022EEE
S315080069E0EDD12046B5F85C1117F08EF8204633F045
S315080069F061FAE4E70720E3E7102200213BF0FBBB3E
S31508006A00036823B91720B0FA80F040097047994205
S31508006A1001D01B6BF5E70020F5E74FF6FE720B4633
S31508006A20018891421DBF07C883E807000020172088
S31508006A30704708B50BF0D9FD08BD01F1100351F8F0
S31508006A40042B994240F8042BF9D17047313020F0D5
S31508006A5001000078C0F30110704708B5FFF7F6FF8C
S31508006A60B0FA80F0400908BD836D18472622002138
S31508006A703BF0C1BB030E0B70030C4B70030A8B7003
S31508006A80C870704708B50246FFF7E7FF30B13132E4
S31508006A9022F001025078831E5842584108BD14223C
S31508006AA000213BF0A8BB2DE9F84F074688469146DA
S31508006AB09A464FF0000B0A9D0BEB0904661006FB7D
S31508006AC00A8638463146A8470028C4F34F0407D03B
S31508006AD0D2BFA14601341FFA84FBCB45ECD300266E
S31508006AE03046BDE8F88F0023F0B5441E1846013934
S31508006AF02AB91BB1024492B2904211D1F0BD14F8E2
S31508006B00017F11F8016F082A154628BF0825B742E4
S31508006B1087EA0603EDD12844521B80B292B2E7E712
S31508006B201906EBD45B000130DBB280B2E4E700BAA9
S31508006B307047024608B5D1E900035BBA1380FFF730
S31508006B40F6FFD388C2F8020008895BBA03F001038E
S31508006B5043EA400398B25BBAD3808B7A20F00100EF
S31508006B6003435BBAD38008BD70B583880446C088E2
S31508006B709E188642154608D8206818443BF05AFDE8
S31508006B800020A3881D44A58070BD0320FCE707B537
S31508006B9049BAADF8061002220DF10601FFF7E4FF27
S31508006BA003B05DF804FB0122DEE738B50446A38886
S31508006BB00846934215460AD321683BF03BFD002060
S31508006BC0A38822685B1B2A442260A38038BD06205E
S31508006BD0FCE70122E9E710B502220C46FFF7E5FFBC
S31508006BE010B923885BBA238010BD4368036003B1DC
S31508006BF0DB694360704710B5436A044623B1002237
S31508006C0002214262826A9847236A9C420FD1084A47
S31508006C1002F580512346D06D24681860D365B1F813
S31508006C206036013BA1F86036002CF3D110BDFEE7B3
S31508006C30081B00202DE9F041C389044601EB03082F
S31508006C401FFA88F843450D4602D90320BDE8F081AE
S31508006C5006465027B84533680CD800223260124AD7
S31508006C6002F58051A3B9A3896581AB4200D9A581F4
S31508006C700020EBE71BB17C373668BFB2EAE76079DC
S31508006C80C0F3410030F012FD30600028F3D1DCE794
S31508006C90D66D18681E60D365B1F86036013BA1F859
S31508006CA060360346DEE700BF081B0020F8B500F192
S31508006CB0310424F00104054620460F461646FFF720
S31508006CC0EEFE2378042103F03F0343F040032370CC
S31508006CD000232846AB812182FFF7ACFF2378667034
S31508006CE023F0300343EA07112170F8BD70B500F1AF
S31508006CF0310525F001052B78064623F00F0302F02F
S31508006D000F0003432846144600F8043B3BF092FC68
S31508006D102B8A3046E11889B22982BDE8704089E796
S31508006D20313121F001010A7802F00F02082A00D950
S31508006D30FEE70431DAE7838942891944914200DD86
S31508006D40FEE789B29142818100D9FEE770474389FF
S31508006D508B4200D2FEE75B1A43818389C2898B4244
S31508006D6094BF00235B1A0A4488BF9BB2C281838101
S31508006D70704770B54489A1422FD215880D44AEB22A
S31508006D80B14201D8A54201DB641A1480C48998600F
S31508006D90214489B24F2910D830300844C1F1500136
S31508006DA089B2998018601088814228BF0146998067
S31508006DB011889B88CB1A138070BD5039986889B2A0
S31508006DC00068986000B9FEE77B2904D804300844B7
S31508006DD0C1F17C01E4E77C39F0E70021E7E770B50B
S31508006DE0154686B0ADF806300DF1060203ABFFF77F
S31508006DF0C0FF2C46BDF810601EB9601B80B206B0F5
S31508006E0070BD0399324620463BF014FC03A90DF1E8
S31508006E10060034442FF03CF8ECE738B54589CC1821
S31508006E20AC4203DCFFF7DBFF002038BD0620FCE799
S31508006E300246084649893823383989B2EDE70246B9
S31508006E40084649892C232C3989B2E6E770B51646D7
S31508006E50313104688CB021F0010514B920460CB014
S31508006E6070BD04F1310323F001036A885B889A42F6
S31508006E7012D102A8FFF7FAFD214601A8FFF7DFFFA6
S31508006E80BDF82A20738C9A4206D106F1100106A88D
S31508006E90FFF71BFD0028E1D1E469DEE738B50446B3
S31508006EA00D460B4601890068FFF7B7FF10B923891D
S31508006EB01D44258138BD13B50B880C460C2B0BD900
S31508006EC00D2B0CD101210DF10602FFF7E7FF20B9C2
S31508006ED09DF806300D332380002002B010BD0E2B1E
S31508006EE00CD102210DF10602FFF7D8FF0028F4D1D4
S31508006EF0BDF806305BBA03F20D13ECE70620ECE7A3
S31508006F0073B54FF6FF76C3880446B34206D001210F
S31508006F100DF10302FFF7C2FF18B1E680002002B0A8
S31508006F2070BD9DF80350FF2D0CD12368E680228999
S31508006F305B899A42F2D306204FF6FF73E38000235B
S31508006F402381ECE72B0920460DF10601ADF8063042
S31508006F50FFF7B1FF0028EFD105F00F05204601A97C
S31508006F60ADF80450FFF7A7FF0028E5D1216823896B
S31508006F704989BDF80420C91A8A42DCDC1344BDF8E5
S31508006F8006102381A388E2800B44A380C6E730B4A9
S31508006F9001F1310222F00102D48912784D8902F0FA
S31508006FA00F020432224495424FF0000404D3C0E98C
S31508006FB00014028130BCA3E74FF6FF720481C28039
S31508006FC030BC0620704710B44C889C4203D309880D
S31508006FD05DF8044B21E706205DF8044B70472DE960
S31508006FE0F04786B017461C46ADF806300DF1060286
S31508006FF003ABDDF83880FFF7BCFEBDF810507DB155
S31508007000039EB8F1000F11D0B94606EB050AB24542
S3150800701013D019F8011B16F8010BC0470028F6D142
S31508007020B4FA84F0400906B0BDE8F0872A46394626
S3150800703030463CF0C2FA0028F2D12F4403A9651B5A
S315080070400DF10600ACB22EF023FFD6E770B586B078
S31508007050ADF806300B4414469AB2914200D9FEE7C1
S315080070604289934200DDFEE703AB0DF10602FFF706
S3150800707080FEBDF810500DB906B070BD21462A46EF
S3150800708003983BF05CFA03A90DF106002C442EF098
S31508007090FFFEEEE770B500F1310424F00104A37C8D
S315080070A005465BB14389218A994207D1012994BFD4
S315080070B0491A01F1FF3189B2FFF7BCFD2378224650
S315080070C003F00F032846BDE8704000210433BDE7EE
S315080070D02DE9F041B0F80A800F4602EB080399B291
S315080070E04145054616460CD3FFF7A4FD044628B9C4
S315080070F033463A4641462846FFF7A8FF2046BDE8EC
S31508007100F0810324FAE70122E2E7FF2313B58DF89D
S31508007110073043890446B3F5007F0FD20DF1070106
S31508007120FFF7F1FF40B9012204F1310323F001030F
S315080071309A7462891A82A28102B010BD0320FBE705
S3150800714003781BB1012B03D0002070474068BFE7C6
S31508007150043009E52DE9F04114469A180E4691B215
S3150800716086B08C420546ADF8063029D87189914219
S3150800717028DBB0F80A80434499B2414524D3FFF787
S3150800718059FD074648B92146304603AB0DF10602BC
S31508007190FFF7EFFDBDF810401CB9384606B0BDE84C
S315080071A0F081234641462846039AFFF74FFF444499
S315080071B003A90DF106001FFA84F82EF069FEE9E727
S315080071C00727EAE70627E8E70327E6E7F8B50446C8
S315080071D00E46154600F13007E3899D420BD85B1B26
S315080071E06289E381A3892A442B4492B29BB29A42CC
S315080071F0628117D2FEE76079C0F3410030F056FA93
S31508007200D0B123680360E38920604F2B06D830305D
S31508007210C3F15002F91818443BF00CFAE3897C33A1
S31508007220E381D9E7A3812EB12B46324600212046B9
S31508007230FFF70CFF0020F8BD0320FCE7F0B5064673
S31508007240B2420C461046194689B001D1A34215D35D
S315080072506B460EAAFFF78DFDBDF804500DB909B0AF
S31508007260F0BD214630462B46009AFFF7EFFE2C4428
S3150800727069460EA8A4B22EF00BFEEDE7BDF838500D
S315080072802C441D44A4B2ADB2BDF83820002AE6D07D
S31508007290202A174628BF2027ED1BD21BADB2E41BB8
S315080072A03B462946ADF8382030466A46A4B2FFF771
S315080072B096FD3B466A4621463046FFF7C7FEE3E79A
S315080072C073B5054603796E8940798E42C0F341024B
S315080072D028BF0E46C3F340038DF80520E98901AAA5
S315080072E040098DF8043030F021FA0446002832D0DF
S315080072F0334600222946FFF72DFF48BBAB89628932
S31508007300B34228BF33469A4200D2FEE7A381AA7940
S31508007310A37962F30303A3712B792279DB0963F35B
S31508007320C71222716B796279C3F3C10363F3C4028E
S315080073306271AB69A3612B8A23826B8A63822B7A7B
S315080073402372AB8DA385EB8DE385204602B070BD15
S315080073502046FFF750FC0024F7E710B50446FFF770
S31508007360AFFF98B104F1310300F1310223F00103B4
S3150800737022F0010203F1100153F8044B8B4242F844
S31508007380044BF9D1198811809B78937010BD0B6A4C
S31508007390994200D0FEE70B796FF382030B710368FD
S315080073A023B9C1E90733016041607047012A4FF0EC
S315080073B0000205D0C1E90732036819620160704707
S315080073C0CA6143680B62D961EEE70368994204BF54
S315080073D0CB6903604368994204BF0B6A43600B6A32
S315080073E00BB1CA69DA61CB690BB10A6A1A62002263
S315080073F00B79C1E9072162F382030B71704710B557
S31508007400FFF7E3FFBDE810400846FFF7F4BB10B5E9
S315080074100446216801B910BD2046FFF7F0FFF8E7DA
S315080074200B7910B55B0700D4FEE74B79C3F341032C
S3150800743000EB83025468A14209D10C6A546034B146
S315080074406479C4F341049C421CBF0023536003685B
S31508007450994204BFCB690360CB690BB10A6A1A6209
S315080074600B6A0BB1CA69DA6100220B79C1E90721F7
S3150800747062F382030B7110BD4A7970B5C2F34102FB
S3150800748014460B79061D43F004030B7156F8243095
S315080074901BB90134E5B2042DF8D10B624BB9036868
S315080074A0CB610160CB6903B1196200EB82004160D0
S315080074B070BDDC69CC61D961F4E78B8949890380A1
S315080074C099422CBFC3EB0102C3EB0302DB4392B222
S315080074D09BB2934228BF134643807047438802886D
S315080074E0994228BF194612FA81F25B1A0280438034
S315080074F07047F0B50C46064685B003A802AF154698
S31508007500FFF7DBFF20463346BDF80E20BDF80C100A
S31508007510009730F08AFD044668B904213846FFF71B
S31508007520DDFFBDF80A30022B08D9822B28BF82233B
S31508007530029828606B80204605B0F0BD0624FAE75D
S31508007540084A138803B9FEE748F24E305368A3FB8E
S31508007550003010EB530044BF20F00040013050606B
S31508007560704700BF80630020814210B5044600D8EA
S31508007570FEE7FFF7E5FF091BB0FBF1F303FB11007C
S31508007580204410BD38B50D46814288BF85B26900D2
S31508007590044601310020FFF7E7FF2044401B38BDB1
S315080075A010B540B10023441E98B2814203D9013375
S315080075B0E25C002AF8D110BD0139013811F8012F13
S315080075C010F8013F3AB9002B14BF01200220831E90
S315080075D05842584170479A42F0D00020F7E7A0F188
S315080075E04103052B04D83738C0B20870002070470D
S315080075F0A0F16103052B01D85738F5E73038C0B23A
S315080076000928F2D90720704770B504460E46E58862
S31508007610134682880068AA4234BFA91A002110447A
S31508007620324633F0E1F9002800DAFEE7A388E2885B
S31508007630184480B2904228BF2368A08022BF9B18B6
S31508007640002203F8012C204670BD0EB417B5044677
S3150800765005AA52F8041B0192FFF7D6FF204603B08D
S31508007660BDE8104003B0704770B506460D460024C5
S31508007670AC4201D3012070BD305D0134030605D448
S3150800768033F0A2F90028F3D00020F4E710F0400305
S31508007690FAD0810612D5C20612D50307F4D40323FD
S315080076A007E0AC42F0D0325D013402F0C002802A15
S315080076B0EAD1013BDBB2FF2BF3D1D9E70123F8E787
S315080076C00223F6E7436853B9054B5A6812B958605E
S315080076D040607047526842605A6850605860704708
S315080076E0081B002003685A1A11EA220138BF1946F6
S315080076F043685A1A13EA220338BF0B464360704799
S315080077004160024A01460248FEF734BE6066040834
S31508007710101B0020F7B5724C04214FF47A70E56C03
S31508007720FFF730FF291804F14800FFF7E9FF636CFB
S31508007730D80714D5FFF77DF904F500550646D5F8A0
S31508007740E010684630F0E2FD05F1E00700990029EF
S3150800775040F08180D5F8E00008B92AF099FB636CFF
S31508007760990625D55F4D95F8D5367BB1FFF761F9B2
S31508007770D5F8D83603F5C333A0331B1A002BBEBF82
S3150800778095F8F63643F0010385F8F63695F8FF16B0
S31508007790B5F8FC3695F8FE26002970D1002A40F087
S315080077A08380002B40F08780D5F8FC0630F011FC6A
S315080077B0636C5A0620D54B4EB6F8B43643B1013B36
S315080077C09BB2A6F8B4361BB906F5D6601DF044FF81
S315080077D0D6F8B0566DB1013DC6F8B0564DB902207F
S315080077E029F032FE404829461EF014F8284629F0AA
S315080077F089FE3D4819F0B9FA636CDB056ED50020A1
S31508007800034605463949A1F2A466CA787AB1013A0F
S31508007810D2B2CA7032B1086806EB8302C2F8A4066F
S31508007820012001330135232D01F10401EDD1002199
S3150800783004EB830404F5B5540734222B03DC14F84F
S31508007840042B002A46D1002848D1082003B0BDE8F9
S31508007850F0402AF01DBB8B69F31AB3F5FA6F0AD309
S315080078604B7938465B0902BFD5F820310133C5F894
S315080078702031FFF7C4FD6846FFF7B7F966E7013917
S31508007880C9B285F8FF16002988D11AB1013AD2B2D1
S3150800789085F8FE2623B1013B9BB2A5F8FC368BB1D1
S315080078A01348FFF70FFF7FE7013AD2B285F8FE26A5
S315080078B0002AEFD075E7013B9BB2A5F8FC36002BF2
S315080078C07FF472AF95F8D536002BE9D0012385F8F9
S315080078D0D536E5E704F8041C0133AEE703B0F0BD7E
S315080078E0081B0020083B0020B8410020AC310020CE
S315080078F0C4410020002A00DAFEE7114400E738B543
S315080079000D460446FFF795F82A4601462046BDE887
S315080079103840EFE710B590F82430044643B1012B00
S3150800792001D1436983612046A169BDE81040E6E7B5
S315080079304169B1EB510F4FEA510001D9FFF714FE27
S315080079400023A061E38384F82530ECE710B590F8AE
S31508007950243004467BB1012B08D10169C068013186
S31508007960FFF702FE60612046FFF7D4FF2046236A30
S31508007970BDE81040184790F825306BB1012BF5D1BA
S31508007980426922B10369991A8A4298BF5300636112
S315080079902046BDE81040BDE7012380F82530D0E930
S315080079A00513C91AFFF7ABFFE28BA38B9A42DDD307
S315080079B010BD064B06485A69196A914208BF9A696A
S315080079C001F1804104BF01329A6199E6081B002043
S315080079D0241B00208368984203D04368CB1A002BE7
S315080079E000DA8DE670470146014A0248FEF79CBC5C
S315080079F060660408101B0020D1E9003103F100433A
S31508007A00013B8B4200D07BE6EDE710B5044692B009
S31508007A10684630F044FC616802A830F077FC0299A9
S31508007A2031B9694604F11000FFF7E6FF12B010BD40
S31508007A3004A8FFF7FDF968460F99FFF753FE02A859
S31508007A40FFF7D3F8EBE72DE9F04105461446043075
S31508007A501E46069F9DF81C80FFF7D1FC2846FFF7B7
S31508007A60D4FF656A3DB143463A463146AC46A06AFC
S31508007A70BDE8F0416047BDE8F0812DE9F04192B0DC
S31508007A8004460D46416802A830F040FC0B274FF02B
S31508007A900008029E16B912B0BDE8F081314604A866
S31508007AA0FFF7C6F925B1294604A8FEF70EFF38B137
S31508007AB0002331462046CDE9008704AAFFF7C3FF15
S31508007AC002A8FFF792F8E4E72DE9F04F9FB000937C
S31508007AD0289B064608460193FEF7B8FF02280C467F
S31508007AE017460CD0032801F1310300F0F480B2895F
S31508007AF023F00103511C52BAB1815A8045E006A809
S31508007B00FEF7B4FFFEF795FF3A4600F57130D83018
S31508007B1006F12C09059006AB07F1200C1D461068E6
S31508007B205168083203C562452B46F7D110682146CD
S31508007B30286092884846AA803A46FFF787F905469C
S31508007B4018BBF16A03A830F0E1FBAA46AB46DDF89C
S31508007B500C80B8F1000F40F09D801FFA8AF3092BBC
S31508007B6003D929464846FFF74AFC20466189FFF7AC
S31508007B70F4FB054648B12C2205A9FFF7A9FA002807
S31508007B8000F09E802846FFF736F82046FFF782FA6F
S31508007B902046FEF762FF002800F0A480B4F80AB079
S31508007BA0BBF1000F00F0B88010AB3D46994607F1CF
S31508007BB0100C1A4628686968083503C265451346D5
S31508007BC0F7D17B8C14AAADF8603005F1100C13467A
S31508007BD028686968083503C365451A46F7D1009AC7
S31508007BE097F825301992019AC3F300131A92BDF833
S31508007BF074209B0222F49F6222F0070243F00403DA
S31508007C00134340F6B9314FF4FA60ADF87430FFF714
S31508007C10ABFC9DF875301C906FF3000320468DF879
S31508007C207530FEF71AFF9DF8753060F341038DF83D
S31508007C307530FEF7FEFE9DF8753059469B074CBF1A
S31508007C401C9B394B18441B902046FFF786FB0546BC
S31508007C5000285CD038224946FFF73AFA002853D163
S31508007C6006F10408012229464046FFF790FB3046F4
S31508007C70FFF7CBFE21463A463046FEF7F5FE0446A8
S31508007C80002845D040462946FFF7B9FB3046FFF79E
S31508007C90BCFE3DE011A8FEF7E9FE414610A8FFF735
S31508007CA0CEF825B1109AA2EB0B02002A02DA454655
S31508007CB0DDF840B003A8FEF798FF0AF1010A46E787
S31508007CC0294648460122FFF762FB059906F134006A
S31508007CD0FFF780FE59E723F001035B78002B3FF49A
S31508007CE054AFFEE72046FEF7B1FE012814D1009BEB
S31508007CF093B104F1310323F0010393F800B00BF0BC
S31508007D000F0B0BF1040B4FE72846FEF774FF03240D
S31508007D1020461FB0BDE8F08F3A46214630461FB0D0
S31508007D20BDE8F04FFEF7A0BE486B0100002307B57B
S31508007D300093FFF7C9FE03B05DF804FB2DE9F04197
S31508007D409CB0C568FEF775FE064604A8FEF78EFECB
S31508007D50696802A830F0DAFA1C274FF00008029C7E
S31508007D602CB92846FFF751FE1CB0BDE8F081214624
S31508007D700EA8FFF75DF8199BF31A002B0EDB9DF88A
S31508007D806D309A0702D59DF86C305BB90023214601
S31508007D902846CDE900870EAAFFF755FE02A8FEF78A
S31508007DA024FFDCE7013B8DF86C301A9B20465B000C
S31508007DB01A9333441993382361890DEB0302383932
S31508007DC089B2FFF743F99DF86D30DB07E6D40DF16C
S31508007DD0200C12AB0FCB8CE80F00BDF858300EA95B
S31508007DE004A8ADF83230FEF728FE9DF86D309DF8F0
S31508007DF03520C3F3800363F304128DF835206189B7
S31508007E002046383989B2FFF7A8FA04460028C5D0B3
S31508007E10014604AA2846FEF727FE0028BED02046BB
S31508007E20FEF7E9FEBAE72DE9F04701F1310727F039
S31508007E30010715467B1ACA891C3B9A4206460C4618
S31508007E4094B000D2FEE7B1F80C803846FEF727FE5C
S31508007E5004233A4641462046A7F80E80FEF7DDFF82
S31508007E6000284DD13B7803F00F03082B48D808F1BA
S31508007E70040120463A1D89B2FEF7CFFF00283FD1FC
S31508007E800DF1180821464046FFF781F8002837D13A
S31508007E904FF6FF79BDF81E304B452CD1FB89BDF84E
S31508007EA020102046C91A89B23982FEF744FF7B782A
S31508007EB0013B032B35D9716803A830F027FA05F181
S31508007EC0100ADDF80C90B9F1000F40F0D480F36C7D
S31508007ED0002B40F00B812046FEF7BFFD20B9204657
S31508007EE0FEF7B4FD01285DD12B4622460321304614
S31508007EF030F08CFA56E04046FFF702F80028C9D061
S31508007F002B78FF2B4ED02046FEF7A7FD002849D038
S31508007F102B4622460321304614B0BDE8F04730F020
S31508007F2075BA736ADBB92A46214606F12C00FEF7B4
S31508007F308DFF38BB214603A8FFF729F84FF6FF77D0
S31508007F40002840F02981BDF81230BB4263D0BDF845
S31508007F5010300B2B5FD003A8FEF7D2FFF0E72946B7
S31508007F60B26A98470028DED017281BD12B78FF2B3A
S31508007F7018D02B4622468421304614B0BDE8F04777
S31508007F8030F0F4B941892C3989B2FFF7E6F907468A
S31508007F9040B1FFF77FF82A4639463046FEF764FDBA
S31508007FA0002857D114B0BDE8F087474516BF3A46B2
S31508007FB0424602F801ABD7180DF139018F42F1D2CA
S31508007FC0BDF814100398C91A89B2FEF708FF03A86A
S31508007FD0FEF796FF002840F0DF80BDF812304B45CB
S31508007FE003D0BDF810300B2BF1D1BDF812304B453C
S31508007FF0DBD100233B70776D9FB9376ACFB9736CB5
S3150800800023BB2B78FF2BCDD02B4622468421304626
S3150800801030F0ACF9C6E747464FF6FF794FF02F0A1E
S31508008020E3E72B46224641463046B8470028E4D0C7
S31508008030B8E741463868FFF7BFFA28B12A4621460D
S315080080407B68B8689847ADE7FF68D7E72A462146B0
S31508008050B06CF7E7172808D12B78FF2B05D02B46ED
S3150800806022468421304630F081F9384614B0BDE8FE
S31508008070F047FEF7C0BD49464046FEF7D9FE5146D1
S315080080800AA8FEF722FC20B1BDF838206B8C9A426C
S3150800809007D09DF82830FF2B03D00CA812F02EFD30
S315080080A000B32046FEF7D2FC012815D90238C0B223
S315080080B0012817D809F1310323F001035A887B8870
S315080080C09A420FD12046FEF7C1FC03283FF66AAF55
S315080080D0DFE800F04F55211449462046FEF72DFAF1
S315080080E00028EFD103A8FEF780FDEAE62A462146D6
S315080080F0306D984700287FF455AFECE67B78002B67
S315080081007FF450AF0B22CDE900324246494630464D
S31508008110FFF799FC46E77B78E3B99DF84D309A0757
S315080081200CD543F001038DF84D30B9F80A10382301
S3150800813038394246484689B2FEF788FF0F9B002B1E
S315080081407FF430AF301D4946FFF759F93046FFF73F
S315080081505CFC27E73F2B7FF625AF49462046FEF70E
S31508008160ECF900283FF41EAF0023CDE9005323465F
S31508008170CBE72B4622460221304630F047F90F9FBF
S31508008180002FF1D09DF82830FF2BEDD100232A4689
S3150800819021461098B84705E717283FF432AF01E79C
S315080081A030B5C46891B001A830F079F8216803A801
S315080081B030F0ACF8039D35B901A904F10800FFF7C2
S315080081C01BFC11B030BD06A8FEF750FC294605A8D1
S315080081D0FEF735FE0599019B5B1A002B07DB29463E
S315080081E02046FFF70CF903A8FEF7FFFCE2E701A813
S315080081F0FFF778FAF7E770B5D0F8FC3004462BB1EC
S3150800820093F82230022B01D1002070BD04F13C0600
S315080082103046FFF7E8FB04F16C0504F1FC039D42C8
S31508008220F2D095F82220012A01D02435F7E7032158
S3150800823004F164000BF068FA00B1FEE74FF47A72B5
S31508008240134BC4F8FC50C4E912234FF6FF7384F8A5
S315080082506000A4F85830FFF773F90E4BB0FBF3F241
S3150800826002FB130000F57A7020653046FFF752FBD3
S3150800827094F8603053B9636C9E4207D0A36C226DA4
S315080082809A4203D030462365FFF744FB0120BCE73A
S31508008290C0D40100D9D001004160024A0146024813
S315080082A0FEF768B86C660408141B002010B5274C46
S315080082B094F87E3F033B032B46D8DFE803F002061B
S315080082C01713BDE810402AF047B8D4F8943F9879B8
S315080082D02DF05EFED4F8940F0E22BDE81040002162
S315080082E02CF0A0BFBDE810402AF068B8B4F87C3F6F
S315080082F09B0700D5FEE730F05FF97F2807D094F991
S315080083008F3F7F2B01D0984201DD84F88F0FFEF74F
S3150800831090FBD4F8903FC01A002806DAD4F8E01F7C
S315080083200B488031BDE81040B6E794F87E3F94F9D3
S315080083308F0F022B1CBF022384F87E3F29F078FE9C
S31508008340BDE810402DF028B910BD00BF082B00204D
S31508008350E43A00200146024A0248FDF7E5BF00BF9D
S315080083606C660408141B00204378FF2B04D1408850
S3150800837040BA80B204307047981C704738B5054635
S315080083800C46FFF7F1FF294682B22046BDE8384081
S31508008390FEF79EBEF7B50E461746044602236A4602
S315080083A039463046FEF70FFE054680B99DF800307F
S315080083B023709DF80130FF2B0CD002216070023328
S315080083C03A68C4F80220A288934214D9062528469A
S315080083D003B0F0BD0423394630460DEB0302FEF721
S315080083E0F2FDD8B901236370BDF8063004215BBAE3
S315080083F09BB20433E4E79BB2934228BF13466288D4
S31508008400A380134472899BB29A42DFD3D4F8023010
S31508008410A01DC4F80630FFF761F8D8E70546D6E789
S3150800842073B5044601A80D461646FFF746F82946D1
S31508008430204601AAFFF7AEFF38B92378B34205D024
S31508008440A18801A8FFF74AF8F1E7172002B070BD26
S31508008450F0B585B0054616460A46014601A81F46E8
S31508008460FFF7DEFF044650B9BDF808203B46B24286
S3150800847028BF32462846BDF806102FF01AFF2046B8
S3150800848005B0F0BD1FB514460A46014601A8FFF718
S31508008490C7FF10B9DDF80A30236004B010BDF0B587
S315080084A01746428985B0ADF800101E468A422CBF91
S315080084B0C1EB0203C1EB0103C9439BB289B29942DE
S315080084C028BF19460546ADF802106A46014601A8B6
S315080084D0FFF760FF044660B9BDF80C2033469742A3
S315080084E028BF174628463A46BDF80A102FF0E1FE7F
S315080084F0F455204605B0F0BDF0B51746428985B05B
S31508008500ADF800101E468A422CBFC1EB0203C1EB30
S315080085100103C9439BB289B2994228BF1946054649
S31508008520ADF802106A46014601A8FFF733FF044674
S3150800853060B9BDF80C2096420BD8B2423B4628BF1C
S3150800854032462846BDF80A102FF0B3FE204605B07D
S31508008550F0BD0624FAE710B502231446FFF7CCFF50
S3150800856010B923885BBA238010BD042310B51446BE
S31508008570FFF7C2FF034618B92068FEF7D8FA20604D
S31508008580184610BD30B585B0044615460A4601465C
S3150800859001A8FFF745FF40B901232A462046BDF842
S315080085A0061005B0BDE83040A6E705B030BD00228C
S315080085B013B504468DF80720084663B910210DF156
S315080085C00702FFF7DFFF0346C8B99DF80720B2B1D7
S315080085D0FF2A08BF2523002062786FF341026270E4
S315080085E0D4E9092160620AB11846904741F28831F8
S315080085F004F1180002B0BDE81040FFF780B9062361
S31508008600E9E730B585B0044615460A46014601A88D
S31508008610FFF706FF38B92A462046BDF8061005B00A
S31508008620BDE8304097E705B030BD30B585B00446A3
S3150800863015460A46014601A8FFF7F2FE38B92A464A
S315080086402046BDF8061005B0BDE830408DE705B0F8
S3150800865030BD73B5154601AA04461E46FFF712FF3C
S3150800866028B933462A46204601A9FEF7ACFC02B0D3
S3150800867070BD10B5044601448C4202D3002420463E
S3150800868010BDA31C9942F9D36378FF2B02D1231D91
S315080086909942F3D32046FFF767FE20448142EDD383
S315080086A023789342EBD00446E6E70422FEF710BD92
S315080086B00222FEF70DBDFF2B73B5054616461C466E
S315080086C012D18DF805304FF47F438DF8041001A9B7
S315080086D0ADF80630FFF7E9FF20B9224631462846AD
S315080086E0FEF7F6FC02B070BD8DF8001069468DF8ED
S315080086F00130FFF7DDFF0028F4D1002CF2D0ECE7BB
S3150800870070B505460E461C46114618460BB1FEF7CF
S3150800871047FF22463146C3B22846BDE87040CAE73D
S3150800872007B501238DF807200DF10702FFF7C3FFF0
S3150800873003B05DF804FB07B552BAADF8062002236C
S315080087400DF10602FFF7B7FF03B05DF804FB13B59A
S3150800875004461046FEF7EBF9042301900DEB0302DD
S315080087602046FFF7A8FF02B010BD10B50446FEF775
S3150800877060F9D4E90031E268C01A9A4202D10028A9
S31508008780A8BF013110BD2DE9F3411E461C4B044616
S3150800879083424FF000038B4115460AD216A3D3E94C
S315080087A0002339F037FB1749144602462846FEF7D8
S315080087B04CFF154B4EF66021B4FBF3F203FB124453
S315080087C0B4FBF1F34FF47A7801FB1344B4FBF8F7E2
S315080087D028460E490097FEF738FF46B1284608FB9B
S315080087E017420B4902B0BDE8F041FEF72EBF02B0B2
S315080087F0BDE8F081AFF30080005C260500000000AC
S31508008800FF5B26053266040880EE360038660408E3
S315080088104766040813B5006850B14AB141B1002350
S315080088200068019301AB2DF007FF0AF039FE00B18D
S31508008830FEE702B010BD2DE9F843436C1546134414
S31508008840026C044693420E461AD84FF000084F1998
S3150800885000F11009B74214D1636C1D44236C65649A
S315080088609D420BD1B4F850302BB104F110021146D9
S315080088702046FFF7CFFF0023A4F85030BDE8F88361
S31508008880FEE7B4F85030102B06D14A464946204632
S31508008890FFF7C0FFA4F85080B4F850305A1CA4F86B
S315080088A05020234416F8010B1A7C50401874D1E75F
S315080088B02DE9F04F1D4685B09DF838309146029354
S315080088C0C36C826C2B4493420446884629D86FF0C1
S315080088D0200B0F46CA466B18019300F12003ABEB39
S315080088E0000B0393019B9F421CD1E36C1D44A36CB0
S315080088F0E5649D426CD3B4F850302BB104F11002F4
S3150800890011462046FFF786FF002194F8542002F10D
S3150800891021002044C2F10F0205B0BDE8F04F39F03E
S315080089206ABCFEE7B4F85220102A16D104F13000CA
S31508008930024694F854600BEB00018E4206DA10F8F2
S31508008940011D0131C9B201700029F4D020460399EE
S31508008950FFF760FF0022A4F85220029B43BB3E7833
S31508008960B9F1000F0AD0B4F85220511CA4F85210DD
S31508008970224492F8302072408AF80020B4F8502039
S31508008980102A08D104F1100211462046FFF742FFCB
S315080089900022A4F85020B4F850200137511CA4F83E
S315080089A050102244117C0AF1010A4E40167499E7C8
S315080089B0B4F852209AF80060511CA4F852102244C8
S315080089C092F830205640B8F1000FD7D03E70D5E760
S315080089D005B0BDE8F08F38B5D0E912329A420446A0
S315080089E00D4600D0FEE700F1300200F12001FFF746
S315080089F011FF002304F10F0294F855108B4200DB97
S31508008A0038BD12F8011F92F820004140E95401339D
S31508008A10F2E72DE9F04F056889461746A5B0002DFF
S31508008A2000F020812B68002B00F01F81042B33D027
S31508008A30052B36D0012B40F0DF80A868002800F00F
S31508008A400E818D4B20F47E149C421AD1EB680BB133
S31508008A50E86C38B9894822F0F8FB0446002800F08B
S31508008A60F08038E025F008FD10F1860F06D00028C2
S31508008A70F1D09330EED16FF06F00ECE76FF0710034
S31508008A80E9E77F4B0340B3F1607F40F0E88005F1EA
S31508008A90100025F021FCE0E705F1080025F0ECFCC4
S31508008AA0DBE7D5F88840764B05F1080B2340B3F190
S31508008AB0607F40F0CC80D5F8AC10002940F0CF801C
S31508008AC028221AA839F097FB1AA83BF04AFA8046DA
S31508008AD028B16FF09204284623F06CFFB2E0E3B2A7
S31508008AE043F0007303F17E43053B062B00F29D809D
S31508008AF0DFE803F0909B9B8D9304850030260423C2
S31508008B00C4F30544B44277D8002C18BF2646202E55
S31508008B107AD85C495A1E51FA82F292F81CA0BAF128
S31508008B20200F7FD8584A584602EB03231A9300238E
S31508008B3012A9CDE91B33229324F013F80446002822
S31508008B4071D112991AA83BF013FA39461AA83BF0C4
S31508008B500FFA6946584624F0DDF80446002862D123
S31508008B6069461AA824F012F9584603A924F0E8F829
S31508008B700446002857D1012403A91AA847F000572C
S31508008B8024F004F9CDF83C9006AB10940FAA11977F
S31508008B9007CA83E8070019461AA824F0F7F812ABA3
S31508008BA00C934AF000530D940CAA0E9309AB07CA0E
S31508008BB083E8070019461AA83BF003FA1AA83BF0FF
S31508008BC073F8044678BB324612A905F18C0039F0D1
S31508008BD031FD0023C5F8AC6012AA02F8083008F186
S31508008BE00108B8F1200FF7D1212C21D11AA83BF0A2
S31508008BF0B8F900287FF46DAF6FF086046BE714F4BC
S31508008C007C1FC4F305460BD16FF0890463E71C2665
S31508008C10022375E71426012372E7202603236FE74C
S31508008C20052374E721240026D3E76FF0850452E76D
S31508008C30002C7FF44EAF1AA83BF093F900287FF476
S31508008C4048AF002420460AF02BFC88B1FEE71346FD
S31508008C5005F188000A46594624F09AFEFDE66FF0AB
S31508008C60880438E76FF08604ECE76FF08804E9E7D4
S31508008C7025B0BDE8F08F00BF0002C003009FFFFFCC
S31508008C800000C07F5C6604080001020308B500689E
S31508008C9028B1044923F0E0FE0AF002FC00B1FEE721
S31508008CA008BD00BF0900000208B5006828B121B157
S31508008CB025F012FB0AF0F4FB00B1FEE708BD10B57B
S31508008CC086B00446ADF80630084603AB11460DF1EA
S31508008CD00602FEF74EF8BDF810200AB906B010BD18
S31508008CE020460399FFF7E0FF03A90DF106002DF0D2
S31508008CF0CFF8F0E7002307B50068019330B12022CA
S31508008D0001AB23F010FE0AF0CBFB00B1FEE703B07F
S31508008D105DF804FB73B50C46054646220021A01CE7
S31508008D2039F069FA2C2305F580522380B2F86036AB
S31508008D3005F50356C3F12C036380B2F8623604F1D5
S31508008D400801A38006F10C00FDF7E4FD04F110010B
S31508008D5006F12000FDF7DEFD05F5B35004F1180114
S31508008D601430FDF7D7FD05F5075004F12801043046
S31508008D70FDF7D0FD05F5C05004F130011430FDF7BC
S31508008D80C9FD05F5C15069461C30FDF7C3FD238EA4
S31508008D90BDF8002013442386BDF80220638E1344D1
S31508008DA06386019A636B1344636302B070BD1F291F
S31508008DB09DBF0068C84000F001000020704710B54C
S31508008DC00B780446FF2B04BF0A230B700B780A4660
S31508008DD00133D9B21A29117001D9172010BD2046BE
S31508008DE0FFF7E5FF10B90131C9B2F3E70020F5E74F
S31508008DF0837FC22003F00F03D84000F001007047BC
S31508008E0038B501290446456832D129F0EBFF237E9F
S31508008E109A0702D5642828BF64205B0715D5A022C7
S31508008E20204BB0F57A7FB3F86A3F28BF4FF47A70C3
S31508008E30534303F5FA73B3F57A7F06D34FF47A7280
S31508008E40B3FBF2F3984228BF1846637E0F2B02D96C
S31508008E50BC2828BFBC20A36833F07C4204D0C3F3E7
S31508008E601903984228BF1846002808BF0A206060E0
S31508008E70FDF7DFFD6369014604F10C0098420DD049
S31508008E806268AA420DD0531A24680A3BE3424CBFD3
S31508008E900A222146BDE83840FEF72CBD62682160EB
S31508008EA0F8E738BD082B002008B531B1092914D9CF
S31508008EB06FF07C43994228BF19468368C3F31902A9
S31508008EC08A4208D061F319038360037EDB0702D563
S31508008ED00121FFF795FF002008BD0720FCE700F5F4
S31508008EE004503830E0E710B5038904468B4205D1B3
S31508008EF0BDE810404FF4004029F028BE01814FF428
S31508008F00004029F0B5FD2089BDE8104029F0A8BF2A
S31508008F1010B5027804465107437817D4120701D5CD
S31508008F20F3B110BD002BFCD1B0F8A030FBB190F81E
S31508008F303630072B1CBF072380F83630838E190678
S31508008F40EFD4BDE810403430FDF7C6BB002BE8D19E
S31508008F504388180604D5E16904F1D000FEF7D0FB72
S31508008F60E17A04F13400BDE810402FF0F8B890F823
S31508008F704630DA070AD4838EDB0507D594F83630EF
S31508008F80012BCED0012384F83630CAE72CF0D1FF66
S31508008F900028C6D1F2E738B500F5805494F80C28B5
S31508008FA0054612BB94F8482F114B61F3C30284F8A7
S31508008FB0482F104A1868117039F0CAFE00B1FEE74A
S31508008FC094F8483F05F5FA505907C3F3800258BF8D
S31508008FD0C3F3C00294F88E3F083062F3000384F8A6
S31508008FE08E3FFFF795FF002038BD0D20FCE700BF38
S31508008FF07C190020191A0020012342888B4013434C
S315080090004380437813B9C830FEF75CBB704770B528
S315080090100578ED071DD54578012D1CD0468816F034
S31508009020020F18D1022D16D0C6F38005760712D482
S315080090308362049B4282C362FF230374C3680029C8
S3150800904008BF19460B4043610221FFF7D5FF2846A2
S3150800905070BD0D20FCE70520FAE770B50578ED0729
S3150800906022D54578012D21D0468816F0020F1DD14C
S31508009070022D1BD0C6F38005760717D48362049B9E
S31508009080002AC3624FF0FF030374C36808BF4FF496
S315080090909672002908BF19460B4042824361012196
S315080090A0FFF7AAFF284670BD0D20FCE70520FAE762
S315080090B000230380704700F44052B2F5005F034670
S315080090C020D148F2400220F44E5020F03F00904252
S315080090D01ED00CD8B0F5446F1AD005D8C8B1B0F573
S315080090E0046018BF01207047B0F50040F9E703F4A3
S315080090F04C43B3F5404F0BD04CF64043C01A18BF4B
S315080091000120704710F4406F14BF012000207047FB
S315080091100020704738B505680C4628462FF0E0FA57
S31508009120FFF7C9FF40B128462FF0DCFAFF2803D025
S315080091302B5A0020238038BD0620FCE738B5056881
S315080091400C4628462FF0CCFAC30500D5FEE7AC70CE
S3150800915038BD00F44053B3F5005F04D100F44C4326
S31508009160B3F54C4F07D0B0F5804F04D380F04000DC
S31508009170C0F3801070470020704710B58388032B12
S3150800918012D900682FF0ACFA80F480720446C2F354
S315080091900021FFF790FF48B98A1CC4F38123022BEC
S315080091A006D0032B17D02BB1FF2212E00A1DF4E7D5
S315080091B00232D2B22046FFF7CCFF08B10232D2B251
S315080091C0C4F38134022C08D0032C09D0002C18BF14
S315080091D0FF22104610BD0832EBE70232D2B2F8E79A
S315080091E00832FBE7F8B507680E4638462FF078FAD6
S315080091F00546FFF7AEFFD0B138462FF073FA04469E
S315080092002846FFF758FF08B10234E4B2C5F38125B2
S31508009210022D07D0032D08D0FF2C08D000203B5B79
S315080092203380F8BD0234E4B2F6E70834FBE70620DB
S31508009230F7E710B583880446022B07D900682FF094
S315080092406AFA18B12046BDE8104096E7FF2010BD1F
S3150800925038B505460C46FFF7ECFFFF2817BF2B6805
S3150800926006201B5C00201CBF03F00703237038BDD3
S3150800927038B505460C46FFF7DCFFFF2817BF2B68F5
S3150800928006201B5C00201CBF03F01803237038BDA2
S3150800929038B505460C46FFF7CCFFFF281FBF431C11
S315080092A02A68DBB2D3581ABF00202360062038BDCF
S315080092B038B505460C46FFF7BCFFFF2800D1FEE788
S315080092C02A68431CD9B2545452FA83F3220A5A70B4
S315080092D0220C240E9A70DC702B7F43F001032B7747
S315080092E038BD00F01800102805D0A0F11803584220
S315080092F05841C00070470420704708B54307024626
S3150800930008D0FFF7EEFF12F0180F0CBF0530063035
S31508009310C0B208BDFF20FCE72DE9F04F057B0688A3
S31508009320B0F8029087B0031D012D04460F4646EAA1
S31508009330090B019330D0022D0CBF0322002294F8AA
S3150800934016A04BEA823BBAF1010F04F10E0825D0AC
S31508009350BAF1020F2FD0BAF1000F21D1A37F94F8EA
S315080093602120003B18BF0123B9F5805F4BEAC303F0
S3150800937005D0B9F5005F21D0B9F1000F29D145B163
S31508009380BAF1000F05D0208B618B884208BF43F0E5
S315080093904003D60721D5FEE70222D0E74BF4006B3F
S315080093A05146E0892EF0EFFE0028D7D1022E18BFCD
S315080093B04BF0200BD2E74BF4406BF1E7BAF1000F04
S315080093C040F09480617F002D40F08880002940F0AD
S315080093D09A80D50748BF43F48073C2F3400243EA34
S315080093E042253B6804A804934FF4FE0329460593D7
S315080093F02EF067FFE80503D4012104A8FCF76EFFE9
S315080094002846FFF758FE18B1618B04A82EF059FFBD
S3150800941004A841462EF060FF2846FFF79AFE18B1C9
S31508009420218B04A82EF04DFF211D04A82EF054FF11
S31508009430BDF81430BB80A67FA6B1E37F0DF10F01FE
S315080094401E4304A88DF80F60FDF7ADFB3046FFF705
S3150800945054FF411E89B204A8FCF740FF3046FCF7CA
S31508009460EDFF064694F8213099070ED5022104A887
S31508009470FCF734FF0D2304214370017004A8FCF7A0
S315080094802DFF3B7F43F008033B77AA0523880ED5BB
S31508009490032B03D094F821305B0714D4022104A8C7
S315080094A0FCF71CFF6FF07F0303703F23437023888C
S315080094B0032B08D194F820300DF10F0104A88DF87C
S315080094C00F30FDF770FB0236B1B204A8FCF706FFB1
S315080094D0BDF81430BB8007B0BDE8F08F00297FF4D3
S315080094E078AF217F00297FF474AF0CE00DB9617F56
S315080094F0F8E7022D02D1BAF1020FF8D0208B618B62
S3150800950088427FF466AF43F0400362E770B50546CC
S31508009510FFF733FEFF28044611D02E6830462FF099
S31508009520FAF860B1A9888C420BDA305DFFF7E5FEE0
S31508009530FF2808D00444E4B2A142B8BFFF2420465D
S3150800954070BDFF24FBE70446F9E770B506460D46ED
S31508009550FFF76FFEFF28044609D03268105CFFF754
S31508009560C0FE22440244002053792B7070BD0620A9
S31508009570FCE770B506460D46FFF75BFEFF28044676
S3150800958000D1FEE73268105CFFF7ABFE22440244C6
S31508009590557170BD10B50446FFF74BFEFF2806D07F
S315080095A02368185CFCF74AFF0230C0B210BD0220DF
S315080095B0FCE770B50646FFF7A9FFFF2804462CD03E
S315080095C0356828462FF08CF883051BD53046FFF7FB
S315080095D0E1FFB188A21C93B210FA82F28A4205EB27
S315080095E004061CDC2A5D02F07F0213449CB210FAC2
S315080095F083F3994213DB3288C2F3C7127F2A01D05C
S315080096009942E7DC2B7803F00703032B05D128469C
S315080096102FF077F808B90134A4B2E0B270BDFF2480
S31508009620FBE738B50546FFF7C4FFFF28044614D004
S315080096302868037803F00703032B04D12FF061F899
S3150800964008B10134E4B22846FFF7A4FFAB88044406
S315080096509C42CCBF0620002038BD0620FCE710B58A
S315080096600446FFF7A6FFFF2816BF23680020C01888
S3150800967010BD10B50446FFF7F2FF2368C01AC0B242
S3150800968010BD70B505468688FFF7F3FF04462846E1
S31508009690FFF780FF0444301B80B270BD10B5044646
S315080096A000682FF01DF8830503D52046BDE8104055
S315080096B02CE7FF2010BD08B52CF0B4FC003818BF05
S315080096C0012008BD08B52CF0ADFC00B1023008BD7C
S315080096D000232DE9F0419EB003930AAB08930823B3
S315080096E0044600680D46ADF824302FF014F800281B
S315080096F059D020460DF10B01FFF7AAFD002852D1DB
S31508009700204603A9FFF7C4FD064600284BD10DF1F4
S3150800971010084346286869689DF80B2003C3039818
S315080097201946FDF7A7F9A3688DF81C20196808A83B
S315080097302EF0B0FD2046FFF72DFF05462046FFF721
S3150800974098FF07462046FFF79CFFAB1EDBB2024692
S31508009750394608A8CDF8008028F0A0FE2046FFF775
S3150800976088FF25680246294608A8FFF764F82046B8
S31508009770FFF775FF05462046FFF783FF2A4603468F
S31508009780294608A80096FFF793F82046FFF702FF38
S31508009790A38825681B1AE91808A8FFF71CF9237F70
S315080097A043F0100323771EB0BDE8F0810023F0B51F
S315080097B0A3B003930EAB0C930823044600680D462A
S315080097C01646ADF834302EF0A6FF30B120460DF11E
S315080097D00B01FFF73DFD10B1082023B0F0BD204670
S315080097E003A9FFF755FD0028F6D104AF3B462868C4
S315080097F069689DF80B2003C303981946FDF73AF9E3
S3150800980031680CA88DF81C202EF044FD2046FFF781
S31508009810C1FE851E2046FFF72CFF06462046FFF7A9
S3150800982030FFEDB22B46024631460CA8009728F0C9
S3150800983035FE2046FFF71DFF2668024631460CA86E
S31508009840FEF7F9FF2046FFF70AFF06462046FFF710
S3150800985018FF01220346314600920CA83246FFF74C
S3150800986027F808A90CA8FFF7B6F82046FFF792FED6
S31508009870A3882668181A31182A4608A839F09DFEC2
S31508009880003818BF0120C000A7E70B6803604B68C3
S315080098904360037883F0020303707047082208B513
S315080098A039F08BFEB0FA80F0400908BD10B50446C1
S315080098B0006809F033FF4FF00043236010BDF0B590
S315080098C0002787B0044600680E461546059709F036
S315080098D025FF4FF00043236010234FF41051CDE9C4
S315080098E00163074A45F44073009705A81DF04DFD2E
S315080098F009F0D6FD00B1FEE7059B236007B0F0BD71
S3150800990000444004082109F0FFBE2DE9F04F002667
S31508009910A74B8FB0D3F828900096B9F1000F00F046
S31508009920228303F500549E6294F85931002B4BD0DC
S3150800993019F0030F14D004F55A71A1F6344013F048
S315080099404FFB58B904F55C70FFF7DCFF00B1FEE782
S31508009950984829F01DF8102029F08AF828F074FF95
S3150800996019F4405F04D028F053F908B128F06CFFC9
S3150800997019F4007F05D019F0040F02D18E4813F0B0
S3150800998017FD19F4827F0AD019F4807F04D194F860
S3150800999059012EF048FA10B1874813F031F819F436
S315080099A0800F11D0854B08A8D3F8542F93F8521F6F
S315080099B00892FFF7FCF9024630B994F859311BB101
S315080099C001467F4813F086F919F40073019300F0F5
S315080099D0468194F859310BB128F0F8FF4FF0000A88
S315080099E001235746D04602AA8DF8083003928DF80F
S315080099F010300DF1200B5146724803AA27F098FE45
S31508009A00824688B9B8F1000F3AD14FF6FE73A4F82A
S31508009A109036009BC4F89456A4F8923684F8986653
S31508009A20002027F06FFD62E0664B08930023CDE91E
S31508009A3009A3584617F0D7FE0028DCD10A9A5378AE
S31508009A40023B062BF5D9B8F1000F16D094F87F1112
S31508009A50538889025BBA89B21FFA83FC61450CD028
S31508009A60B8F802305BBA9BB29942E2D010793978DD
S31508009A70884202D8DDD19C45DBD99046171DD8E728
S31508009A80B7F80130B8F802205BBA98B20090D7F858
S31508009A900300FDF74CF891B2054652BAB4F89006A1
S31508009AA01FFA82F840453E784FF6FF602AD0814279
S31508009AB0ABD0B5F5967F38BF4FF496754249A4F8F2
S31508009AC090268D4228BF0D460120A4F89236C4F888
S31508009AD0945684F8986627F015FD94F85B319D072F
S31508009AE002D427F000FD10B1384812F0EBF8002335
S31508009AF0344D03935A46284603A91CF051F8D0B1B1
S31508009B0000211EE0814280D0B5F5967F38BF4FF41C
S31508009B1096752D4A954228BF154694F89826B2425E
S31508009B20D2D1B4F892260099C4F894568A4218BF3E
S31508009B30A4F8923674E79DF832305807C3F38001CB
S31508009B40D8D594F8AC7681B9002F4AD0112220488E
S31508009B5038F051FB94F8D436D90702D51B482EF0B5
S31508009B60DAFB1A4812F086F83BE09DF83050BD4201
S31508009B7006D12A4658461649FCF7B5FF854229D923
S31508009B805E4604F29C650FCE0FC533682B704FB145
S31508009B9094F8D4360D48DA0702D52EF0BCFB0B48EC
S31508009BA012F068F894F8AC36002B40F0EE80FEE729
S31508009BB0081B0020703E0020603C0020082B002077
S31508009BC0FC3D0020404000209BC42000C0410020EE
S31508009BD0A4410020B649A1F57B6013F001FA0028DC
S31508009BE0E0D005250026DFF8F88208F62847013D6B
S31508009BF040F0EC802E464FF0010A03955A46AD48D0
S31508009C0003A91BF0CDFF0546002800F00681002EAB
S31508009C1000F03381A84DB5F8B83873B9022105F6B6
S31508009C20A80011F0E5FE40F2222105F6A80014F07E
S31508009C30BBFB05F6A400FEF7DEFAD4F8745775B137
S31508009C405A4609219B4817F0B9FD40B12846FCF74A
S31508009C50D2FF00239948C4F87437FDF7C4FE40F6CE
S31508009C60040319EA030F1CBF0023C4F8583640F64C
S31508009C70042319EA030F02D091481CF0AFF919F032
S31508009C8004080DD094F85931022B00F2FD808D4856
S31508009C90FDF7A9FE00238C4884F80E38FDF7A3FECD
S31508009CA019F0805F844E2FD0002308A8089327F068
S31508009CB0A3FB48BB089D3DB3D4F804389D4223D086
S31508009CC0D6F8543F1D40C4F8045825B97D48FDF719
S31508009CD08AFE84F80E58FF2300258DF80C3003A958
S31508009CE008A8FFF76CF82B4601350028F7D0DAB23A
S31508009CF0764B7748B3FBF2F3C4F8083896F8523F28
S31508009D0084F8103811F098FE19F4804F06D096F8AA
S31508009D10523F6F4884F8103811F08EFE19F4805FB0
S31508009D2003D000216B481BF075FDB8F1000F06D073
S31508009D3094F85931022B02D1012027F0E3FB019B4D
S31508009D4083B15B49A1F57B6013F04AF950B15848D5
S31508009D5008A929F069FF9DF832309D0702D45E48AC
S31508009D6011F088FF94F859012EF05DF8002840F0AC
S31508009D70BF80C4F8FC0696F8A439002B40F0208171
S31508009D80B8F1000F00F0C780FBE0494884F8F436C4
S31508009D90FCF732FE514901F1480010F00BFFD4F8E8
S31508009DA0DC36D4F8E02613430AD01146D4F8DC068C
S31508009DB004F2EC6383E80300474811F04EFF10E70E
S31508009DC0454811F02DFF0028F6D00AE798F822300A
S31508009DD003B3D8F81C30EBB103965A46384603A9A4
S31508009DE01BF0DEFE30B1404628F078FD002388F8E7
S31508009DF022300FE09DF83130DB06EED598F81020BA
S31508009E009DF830309A42E8D15946404610F0C8FECF
S31508009E100028E2D008F12408E9E69DF83130DF068B
S31508009E20C3F300187FF5EAAE05269DF830702C4B73
S31508009E30013E0AD1FDB19BE80F002F7485E80F009B
S31508009E4085F822A02B46EE6112E093F8222022B96B
S31508009E50002D08BF1D462433EAE71A7CBA42FAD118
S31508009E6018465946009310F09BFE009B0028F2D036
S31508009E70BDF834201A844646C0E61A48FDF7B3FDF5
S31508009E80194811F077FDD8E60823A4F83C380023D2
S31508009E90164984F84438C4F82C18C4F83018FDF765
S31508009EA04FFB0948C4F83418FDF734FDF8E600BF3F
S31508009EB0EC41002040400020082B00208042002072
S31508009EC0484100201C43002028430020C13F0500CC
S31508009ED00C430020B8410020C0410020A4410020C6
S31508009EE018340020E8330020B0330020807F0A00B1
S31508009EF009F00105B8F1000F38D1002D58D196F8B0
S31508009F00A43943B1019B002B5DD119F0020F02D091
S31508009F10854811F0B4F819F4047F02D0834814F088
S31508009F20A1FA19F0130F12D096F8553B7BB100270A
S31508009F30D6F83457DFF81082002D40F0CD80002F78
S31508009F4040F0E68094F87B339B0740F1D580784B48
S31508009F501D4693F84040073403EBC40405F1380363
S31508009F609C4240F0DA800FB0BDE8F08F94F8583183
S31508009F70580702D56F4811F0A5FE75BB96F8A439A7
S31508009F80F3B994F859012DF04EFF0246002800F067
S31508009F909580664811F0AAFC96F8DC3A012BBAD1EE
S31508009FA00421624811F049F9604811F02AFAB2E72B
S31508009FB094F8FF36012B14D196F8A439002BAAD0B1
S31508009FC0019B002B75D04FF0050A5B4DBAF1010ACB
S31508009FD00FD1554811F053F8D2E694F8FF36012B05
S31508009FE0CCD0012384F8FF36D4F8FC062DF0F1FF17
S31508009FF0C1E6AB7C990701D42035E7E70023029335
S3150800A0004E4808AA02A91BF0CBFD0746C0B1EF6966
S3150800A010002FF1D1AB7C13F0010B42D0FCF709FD00
S3150800A02000F5922101F57871012938BF01214448CC
S3150800A030E961FDF7CFFC3946284628F08BFCDBE7BB
S3150800A0409DF831301A07DBD59DF832305B07D7D437
S3150800A0509DF83030402BD3D1294608A811F000F8D6
S3150800A0600028CDD0D6F8A83953B1314808A9984761
S3150800A07030B1284628F032FCAB7C67F34103AB7459
S3150800A080284603A929F0D0FD9DF81E30980748BF39
S3150800A0909DF81D702B7EBB42AED02F7628F0D4FBE0
S3150800A0A0AAE7284628F01AFCAA7C6BF34102AA7490
S3150800A0B0A2E719F0020F3FF463AE8AE796F8DC3A96
S3150800A0C0002B3FF428AF1F49184811F047F9012122
S3150800A0D0164811F0B2F81EE7454517D0284629F06C
S3150800A0E0ADFAEB7CC3F3400398420CD023B1AB7CAA
S3150800A0F0990701D5DA0707D50C4811F08BF80B48F4
S3150800A10011F07FF923E708B10137BFB26D6913E78C
S3150800A110B6F8E03ABB42EFD119E7AB6B13B1484644
S3150800A120E96B9847083519E7AC340020E435002078
S3150800A130081B0020C0410020C034002040400020F9
S3150800A140B43400207D660408703E002001F108033F
S3150800A15013F8012D8B4200F8012BF9D17047F8B599
S3150800A16007680E4638462EF0BDFA044638462EF0E5
S3150800A170B7FA0546FEF79FFF04EB4003DBB2FF2B59
S3150800A18013D0C5F38120022805D0032807D0002361
S3150800A19000203372F8BDFB5A33800123F8E7F9181B
S3150800A1A03046FFF7D3FF0223F2E70620F2E7F8B5B9
S3150800A1B007680E4638462EF093FA054638462EF0BE
S3150800A1C091FA04462846FEF776FF08B10234E4B24F
S3150800A1D0C5F38123022B12D0032B13D02846FEF792
S3150800A1E0B8FF08B10234E4B2FF2C06D0C5F38135B6
S3150800A1F0022D09D0032D0DD04DB1062009E00234F9
S3150800A200E4B2EBE70834FBE701253B5B338000202B
S3150800A2103572F8BD30463919FFF798FF0225F6E77B
S3150800A22008B5044BC1800022186838F085FD00B1D6
S3150800A230FEE708BD7C19002007B50A68C0F80A20A1
S3150800A2404A68C0F80E206846FFF780FF0723094AC8
S3150800A2501DF80310013B02F8011BF9D2064B002238
S3150800A2606946186838F06EFD00B1FEE703B05DF880
S3150800A27004FB00BF886300207C1900202DE9F0410B
S3150800A2800446B0F86C600EF040FBE36F364AC11A1C
S3150800A29094F8800000233230A1FB000137F0BAFDA4
S3150800A2A0A02794F881307E4303EB830300EB430039
S3150800A2B000F1780800F5647520467608B54230F84E
S3150800A2C0843B28BF3546B04528BFB04613F0800208
S3150800A2D0A16F1FD0B4F86C607E433144491BFDF76B
S3150800A2E0DBFFA36F616F3344A367204B72181A61B3
S3150800A2F0A378626713F0FD0F33D094F86E00A5F5C6
S3150800A300167508EB0502491B00F07F00BDE8F04111
S3150800A3102EF08AB994F86E30DE090BD062F3C713B3
S3150800A32084F86E30491BFDF7B7FF2046BDE8F041BB
S3150800A330FCF7D2B94144B4F86C50FDF7ADFF94F878
S3150800A3406E307D4343F0800384F86E3008F062F97E
S3150800A350A26F636F2A44A267044A2B44636713619A
S3150800A360E3E7BDE8F08100BF40420F00881A0020ED
S3150800A370F8B50446B4F86CC090F86E008C45069D96
S3150800A380B4F8706000F07F070CD094F86E0062F3A2
S3150800A390060084F86E004FF6FF729142A4F87030FA
S3150800A3A00CD1FEE7974206D062F306009E4284F877
S3150800A3B06E00F0D1F8BD9E42E7D1FBE74FF6FD727D
S3150800A3C0934209D815480246C16022F8023B2B6819
S3150800A3D0C0F802306B68536094F86E30A4F86C10BD
S3150800A3E06FF3C71384F86E3004F18400FDF7B2FFEB
S3150800A3F0B4F86C304BB10EF088FA606708F00AF9C9
S3150800A400A0672046BDE8F84038E723881B06D1D464
S3150800A4102046BDE8F840FCF75FB900BF881A00205F
S3150800A42013B590F82030DB0717D590F8212002B92C
S3150800A430827A0B4C343004F5C073009330F8121C42
S3150800A440B4F89C31FFF794FF28F0F1F904F5AC70E5
S3150800A45002B0BDE8104012F0ABBF02B010BD00BF9D
S3150800A460083B002008B519B1A1F10B030F2B0ED834
S3150800A47000F5805393F8692F8A4206D000F5FA5002
S3150800A48083F8691F0830FFF7CBFF002008BD0720B7
S3150800A490FCE710B504460C30FEF789FC00B3A27A37
S3150800A4A08A4205D14FF4804028F050FB002010BDA9
S3150800A4B04FF48040A17228F0DBFA04F5B470FEF779
S3150800A4C0F7FD23789B06F1D4A37AE37294F821303A
S3150800A4D013B92046FFF7A4FF2046FEF719FDE5E766
S3150800A4E00720E4E71FB590F820300446990703F0E3
S3150800A4F001020ED5418C61B1F2B943F0010380F82F
S3150800A5002030FFF78DFF204604B0BDE81040FEF767
S3150800A510FFBC8AB1002294F8203011466FF300037D
S3150800A52084F8203002AB009304F134004FF6FE7332
S3150800A530CDE90222FFF71CFF04B010BD024608B59C
S3150800A54069B902F58052B2F86A3F00F5FA50083048
S3150800A5501BB1A2F86A1FFFF7C5FF002008BDA0209F
S3150800A560B1FBF0F300FB1310F0B94FF6FF7083420E
S3150800A57028BF0346B1F51B5F9BB215D302F5FA5007
S3150800A58002F58052B2F86A1F08308B42E5D0A2F86D
S3150800A5906A3FB1FA81F2B3FA83F352095B099A4228
S3150800A5A0D9D1FFF73DFFD8E70720D7E7004865E68A
S3150800A5B0843A00200A4690F8FE10FEF75AB8002999
S3150800A5C010B514BF33210E211446FFF7F3FF38B137
S3150800A5D0D0F802302360D0F806300020636010BD42
S3150800A5E01720FCE7F8B5044618300D46FDF7FBF9C9
S3150800A5F04FF0FF3323746374A374E3742375637590
S3150800A600A375E37523726372A372E372237363738C
S3150800A610A373E37395F8FE30DBB1264663782846C4
S3150800A62043F00103637016F8087B32463946FFF794
S3150800A630C6FF28B996E8030004F1100383E803006F
S3150800A64017B9284628F09AFA2078BDE8F8402DF080
S3150800A6504CBDF8BD2DE9F0410746884603261B4D3B
S3150800A66086B0013E02D106B0BDE8F0813B7803BB57
S3150800A6706B7803F50033404629780593FFF79AFF70
S3150800A680044600B34278F2B1FF2A0CBF0423022322
S3150800A69003440193012341F20101029200934FF012
S3150800A6A0004205A81CF071FE08F0FAFE014610B13A
S3150800A6B0FEE7AB78DDE76278FF2A0CBF04200220AC
S3150800A6C0204437F098FD0335CBE700BF85660408BC
S3150800A6D070B50D46C2B00446FBF780FF95F8FE60DC
S3150800A6E0002E3BD12378002B14BF0220012027F02F
S3150800A6F031FC0C2800D1FEE7637866F30003224696
S3150800A7006370284612F8081BFFF759FF48B14FF047
S3150800A710FF3323726372A372E37223736373A373A3
S3150800A720E373FCF786F923786060012B2FD119486B
S3150800A730FDF759F934212846FFF73CFF38B3FBF7F4
S3150800A74092FE154B0246984228BF1A46D5F80011C4
S3150800A750104842B0BDE87040FDF7CCB801A82DF00E
S3150800A760CCFC3246294601A837F064FFD5F80031FB
S3150800A770204601A941938DF80261FFF76BFF207807
S3150800A78001A928F045F8637843F00103B7E742B01A
S3150800A79070BD00BFA43900200014730F70B50C46B5
S3150800A7A00546C2B001A82DF0A8FC94F8FE60214623
S3150800A7B0324601A837F03EFFD4F80031284601A9F1
S3150800A7C041938DF80261FFF745FF287801A928F023
S3150800A7D01FF842B070BD10B591F8FE200446FF2A56
S3150800A7E009D080F8FE2037F025FFFCF722F9C4F8D7
S3150800A7F00001002010BD0720FCE72DE9F8430F46AD
S3150800A800984690F8FE4005461646FFF7D3FEC4F173
S3150800A810FE040146A4B208F1020918B94C450AD249
S3150800A820032021E0437802331C44A4B24C45F7D3F5
S3150800A8302846FBF7FDFE95F8FE30B8F1FF0F994460
S3150800A84005EB030085F8FE90EF5414BF022304239A
S3150800A8504246314680F80180184437F0EBFEFCF793
S3150800A860E8F8C5F800010020BDE8F88310B50446ED
S3150800A870FFF7A0FE014620B12046BDE81040FBF7D1
S3150800A880D7BE10BD00232DE9F74FFE2281F8FE3012
S3150800A89003780546002BADF8042014BF02200120DA
S3150800A8A001AA0C4627F011FF0746002842D1BDF839
S3150800A8B00430FE2B3DD88146314E84F8FE3006F131
S3150800A8C0060B2B78002B39D196F801A02046317853
S3150800A8D0FFF770FE804698B142788AB1FF2A0CBF0E
S3150800A8E00421022101AB01440AF5003008F004FEF8
S3150800A8F038BB98F80120019B9A4218BF4FF001090E
S3150800A90003365E45DDD1B9F1000F03D0214628464E
S3150800A910FFF744FF2B78BBB933212046FFF7A6FF84
S3150800A92034212046FFF7A2FFFCF783F8C4F800019C
S3150800A93000E01727384603B0BDE8F08F96F802A066
S3150800A940C4E74FF00109DBE734212046FFF732FE62
S3150800A95006460028EED0FBF786FD0A4B6D6898423E
S3150800A96028BF18468046FCF764F8431B98458ABFFB
S3150800A9702D1A002005EB0800B11CFCF77BF8D3E77D
S3150800A980856604080014730F30B50446C3B001A8E1
S3150800A9902DF0B3FB01A92046FFF774FF054601A970
S3150800A9A02046FFF71FFE284643B030BD70B50C465B
S3150800A9B00546C2B001A82DF0A0FBFF2200212046C3
S3150800A9C037F019FC284601A9FFF75CFF054640B990
S3150800A9D09DF802612046324601A937F02BFE84F81D
S3150800A9E0FE60284642B070BD4FF0FF3310B50446EE
S3150800A9F0037443748374C374037543758375C3758D
S3150800AA00037243728372C372037343738373C3738C
S3150800AA1043786FF300034370FBF7E0FD2378002BC0
S3150800AA2014BF0220012027F095FA0C2800D1FEE772
S3150800AA3004F11800FCF7D7FF2378012B02D104484C
S3150800AA40FCF7D1FF2078BDE810402DF04EBB00BFC3
S3150800AA50A439002038B500F5005393F85931044657
S3150800AA6093B900F5FA500830FFF713FD054648B9C3
S3150800AA7004F5F2500430FFF7B7FF04F5F350103031
S3150800AA80FFF7B2FF284638BD0D25FBE738B500F5B8
S3150800AA90005393F85951044685B900F5FA50083021
S3150800AAA0FEF721FA04F5F2500430FFF79DFF04F58E
S3150800AAB0F3501030FFF798FF284638BD0D25FBE701
S3150800AAC02DE9F04105460E46B9B300F5005393F853
S3150800AAD05941A4BB00F5805800F5F657D8F8D80EAA
S3150800AAE01837814210D14FF4802028F02FF805F549
S3150800AAF0F2500430FFF778FF05F5F3501030FFF7F2
S3150800AB0073FF2046BDE8F08108F008FE4FF4802068
S3150800AB10C8F8D86E27F0ACFF4FF4807027F0A8FF6E
S3150800AB203846C8F8DC4E11F09BFB064BC3E9644473
S3150800AB30C3F89841C3F88C41D9E70724E1E70D2407
S3150800AB40DFE700BF083B002070B58CB0054602A8B9
S3150800AB500C46FBF78BFF4FF2BF03ADF82A306B7834
S3150800AB609B0726D42B78002B14BF1C200D2026F01B
S3150800AB70E3FE0646F8B1214694F8FE20FCF7A8FA4B
S3150800AB80044690B902A81AF04FFD31460B4B0C4803
S3150800AB90009502AAFCF798FF044630B96B7843F093
S3150800ABA002036B7020460CB070BD3046FCF723F8E4
S3150800ABB0F8E71824F6E70324F4E700BFAF85000892
S3150800ABC01833002038B5154626F0C6FE044650B19F
S3150800ABD001462A460448FDF7A9F820B12046BDE8F3
S3150800ABE03840FCF708B838BD18330020024690F8FC
S3150800ABF0403030B5C4189442154606D1402B08D0CB
S3150800AC005A1C80F84020C15403E02D7801328D4249
S3150800AC10F1D130BD2DE9F0419CB0804601A80C4623
S3150800AC201F461646229DFBF721FF4FF2BF03ADF8DC
S3150800AC30263000238DF86C3023781BB10E210BA823
S3150800AC40FFF7D4FF63781BB133210BA8FFF7CEFFBC
S3150800AC50A3781BB105210BA8FFF7C8FFE3781BB142
S3150800AC6003210BA8FFF7C2FF23791BB102210BA80A
S3150800AC70FFF7BCFF63791BB107210BA8FFF7B6FFE7
S3150800AC80A3791BB134210BA8FFF7B0FFE3791BB1F9
S3150800AC9001210BA8FFF7AAFF237A1BB100210BA8F5
S3150800ACA0FFF7A4FF237B1BB14A210BA8FFF79EFFE2
S3150800ACB0637A1BB104210BA8FFF798FFA37A1BB18F
S3150800ACC00C210BA8FFF792FFE37A1BB135210BA8DD
S3150800ACD0FFF78CFF3744BE421BD198F80030002B93
S3150800ACE014BF1A200B2026F027FE064670B39DF8DF
S3150800ACF06C30A3B901A81AF097FCDDB9314614489F
S3150800AD0001AAFDF713F8044680B920461CB0BDE831
S3150800AD10F08116F8011B0BA8FFF768FFDBE70D218A
S3150800AD200BAAFDF7C8FC04460028E3D03046FBF71B
S3150800AD3062FFEAE72B4605AC1035224618685968C3
S3150800AD40083303C2AB421446F7D1D7E70324DCE73E
S3150800AD501833002030B50446C3B001A82DF0CDF94C
S3150800AD60204601A9FFF78EFD044668B9074D15F878
S3150800AD70011B01A8FFF71EFC20B10134E4B2052C23
S3150800AD80F5D1012043B030BD0020FBE78B660408EF
S3150800AD9010B50C460E21FFF70DFC38B1D0F802307D
S3150800ADA02360D0F806300020636010BD1720FCE74A
S3150800ADB0082208B538F001FCB0FA80F0400908BD51
S3150800ADC02DE9F0434B79804613F0180F0D4693B0E2
S3150800ADD000F0D88008A810F065F8044630BB9DF846
S3150800ADE02830FF2B00F0CA800AA82DF04FFF20B9A3
S3150800ADF065490EA8FFF7DCFF30B164480AA912F0CE
S3150800AE00EFF8002800F0BC809DF8383008F5B357F5
S3150800AE10FF2B07F1080710D006A9384606952EF02D
S3150800AE20F5F8044606982AF091FF002528462AF0E8
S3150800AE308DFF204613B0BDE8F0830EA80FF0D8FFAB
S3150800AE4040B12946384608AA11F0E8FF044600280A
S3150800AE50ECD1E1E70EA80FF0BFFF0028DCD02821CF
S3150800AE602846FBF774FF9DF8261000297DD102239A
S3150800AE7003AAFBF7D2FF04460028D7D1BDF8242041
S3150800AE809DF80D3052BA013392B2B2EBC30F4FEAB6
S3150800AE90C30668D301468DF80D302846022303AA57
S3150800AEA0FCF7D4F8214608222846FCF78FF9814694
S3150800AEB004460028BAD10146082328462A460096A1
S3150800AEC0FCF7BCF932490AA8FBF7FFFC00283CD07E
S3150800AED040F26D238DF81290ADF8103008F58058C1
S3150800AEE098F8303704A85A1C88F830278DF813309C
S3150800AEF00FF0F5FF3146034604AA2846FCF7A6F8E4
S3150800AF0004A80FF0ECFF10F00701044610D0C1F1B9
S3150800AF100801C9B206A810F00BF806A80FF0DFFF63
S3150800AF202644B6B203463146284606AAFCF78EF8EA
S3150800AF30BDF824305BBA08335BBAADF82430282252
S3150800AF40284608A9FCF742F980E740F26D43ADF8B8
S3150800AF50103040238DF812300E4BB3F85C315BBAD3
S3150800AF60ADF81430BAE7062460E72946384608AA39
S3150800AF7011F0F6FE04460028E1D057E7142455E7F9
S3150800AF80022453E7072454E7503E00203C320020B1
S3150800AF90883E0020083B002038B504460D46FFF7DA
S3150800AFA007FF28B1BDE838404FF4003027F0CEBD82
S3150800AFB02B684FF4003023606B686360BDE8384047
S3150800AFC027F056BDF0B50546007840B30A88C60096
S3150800AFD0F6B2B2FBF6F3012706FB1322431EDCB2D8
S3150800AFE0C2F3C403E31A55FA83F35B7802F0070247
S3150800AFF007FA02F213EA020011D04B88B3FBF6F205
S3150800B00006FB1233C3F3C402A41A55FA84F003F0FC
S3150800B01007039F4043783B4214BF01200020F0BD40
S3150800B02041F2210337B50C460546014601A80193AE
S3150800B03026F060FC48F205032080294601A8019302
S3150800B04026F058FC608003B030BD30B50546C3B065
S3150800B05008A80C462DF0AFF808A8FDF717FE082239
S3150800B060294608A8FDF720FE694608A8FDF742FE0E
S3150800B0706B4603CB20602378616043F0020323709C
S3150800B08008A82DF08EF843B030BD13B504466846BF
S3150800B09010F038FE638862785BBA022AADF8003091
S3150800B0A000D1FEE7023AD2B2022A28BF0222684637
S3150800B0B0211D11F06BFA0020009B9AB262F30F0073
S3150800B0C01B0C63F31F4002B010BD00232DE9F341AA
S3150800B0D00B60438904460E46002B33D01D4F60890A
S3150800B0E088B301282ED06068218978B302236A467E
S3150800B0F0FBF775FE6D466B78628903F102084245D7
S3150800B10020D32A78C2B9042B1CD1606828B106233B
S3150800B1106A4604F10801FBF756FFD5F80200FBF76B
S3150800B12006FDFBF7A4F92B78002B0CBF3B46002342
S3150800B1301840336803433360414604F10800FCF7BE
S3150800B140CDF9CCE7062002B0BDE8F08125680D44AC
S3150800B150D1E700BF00F8FF071FB500230293ADF83B
S3150800B1600C30831C0193437801A8ADF80E30FFF725
S3150800B170ACFF05B05DF804FB73B590F8FE300546E4
S3150800B180FF2B00EB03065DD1062002B070BD617887
S3150800B190FF29F9D0A21C9642F6D32046FDF7E4F81B
S3150800B1A020448642F0D323780E2B0BD80E2B10D8CA
S3150800B1B0DFE803F0213E442E42420F440F0F0F0FE3
S3150800B1C0340F4400352B2CD013D8332B36D0342BE0
S3150800B1D036D0611B2846227889B2FDF74AFA00283C
S3150800B1E0D2D12046FDF7C0F80444B442CFD300209C
S3150800B1F0CBE74A2BEDD10229C6D9A378002BC3D1B8
S3150800B200B4F803305BBA0B3B9BB20F2BE1D9BBE713
S3150800B2101046FCF729FA0028DBD1B5E70229D8D869
S3150800B220B2E7204601A9FFF797FF0028D1D0ABE780
S3150800B23002239942CDD2A7E71023FAE70823F8E7B5
S3150800B2400423F6E70446D0E730B585B00C466A46CF
S3150800B25035210546FDF716F938B9009BCDE90105F4
S3150800B260214601A80393FFF730FF05B030BD002340
S3150800B27010B5044683710948084058B12370042361
S3150800B2806370FBF7F4F8FBF752FC0623C4F80200D8
S3150800B290A37110BD002AF1D1FBE700BF00F8FF0734
S3150800B2A073B591F8783005460C465BB16846FBF7EE
S3150800B2B040FC08236A460E212846FFF79EFA002816
S3150800B2C040F0BB8094F879306BB1684604F1100100
S3150800B2D0FBF72FFC08236A4633212846FFF78DFA29
S3150800B2E0002840F0AA8094F87E30002B40F0988021
S3150800B2F094F880307BB10021B4F85A306A465BBABC
S3150800B300ADF80130284603238DF80010FFF775FACB
S3150800B310002840F0928094F884307BB10022B4F87B
S3150800B3205C308DF800205BBAADF801306A4603231D
S3150800B3304A212846FFF761FA00287ED194F883301F
S3150800B3406BB100226846616FFFF791FF6A463521A7
S3150800B35028469DF80630FFF750FA00286DD194F874
S3150800B3607C30002B6BD194F87D3043B1082307213C
S3150800B370284604F14902FFF740FA00285DD194F8FF
S3150800B3807A3043B110230521284604F12002FFF73D
S3150800B39034FA002851D194F87B306BB104F13006A9
S3150800B3A011213046FCF7FCF83246C3B20321284681
S3150800B3B0FFF723FA002840D194F87F305BB1B4F840
S3150800B3C058306A465BBAADF8003001210223284698
S3150800B3D0FFF713FA88BB94F881303BB11023042198
S3150800B3E0284604F15E02FFF708FA30BB94F882306B
S3150800B3F0A3B1204640F20C43ADF8003030F86E3F5A
S3150800B40001A95BBAADF8023026F032FC04230C2100
S3150800B41028460DF10202FFF7F0F970B900200CE09A
S3150800B420606DFBF784FB042300906A4634212846A6
S3150800B430FFF7E3F900283FF45BAF02B070BD0823BD
S3150800B4400221284604F14102FFF7D7F900288AD0DD
S3150800B450F3E7034608461A79196837F0EBB808B5D2
S3150800B4600279006838F0A9F8B0FA80F0400908BDFA
S3150800B47073B56E46054603C986E803009DF80410B1
S3150800B480FCF78EF8C4B2102C10D8294630468DF831
S3150800B4900440FFF7E4FF08B12B5D4BB1304629465F
S3150800B4A0FFF7D7FF0020285502B070BD0720FBE73D
S3150800B4B01820F9E7112337B5054608460C460091CA
S3150800B4C08DF8043037F04AF901462046FCF7CCF8E7
S3150800B4D028B169462846FFF7CBFF03B030BD0720E1
S3150800B4E0FBE738B500F5005292F859210546B2B97E
S3150800B4F0B9B10B78ABB100F5F5501030FFF7DAFFAC
S3150800B50027F02CFB044605F5F2500430FFF76CFAD9
