S02800006275696C642F64656275672F7263702D7370692D3830323135342D626C656863692E733337A4
S214004000C80A0020114D000015D201008F420000A2
S21400401099FB00001DD2010025D201008F4200004E
S2140040208F4200008F4200008F420000B9B60300A6
S21400403029D20100D4E703005DB60300F7DA0300D7
S2140040408F420000A57201008F420000EF4400007E
S2140040508F4200008F4200008F4200008F42000017
S2140040608F4200008F420000595601008F42000028
S2140040708F4200008F4200008F4200008F420000F7
S2140040808F4200008F4200008F4200008F420000E7
S2140040908F42000089F500008F4200008F4200002A
S2140040A08F42000069F5000049F500008F420000CD
S2140040B08F4200008F4200008F420000FD22030066
S2140040C0F9AF0300F5AF0300451A03000FB0030075
S2140040D0FDAF0300BD22030001B00300F10503009D
S2140040E03D2303008F4200008F4200008F420000F5
S2140040F08F4200008F4200008F4200008F42000077
S2140041008F4200008F4200008F4200008F42000066
S2140041108F4200008F4200008F4200008F42000056
S2140041208F4200008F4200008F4200008F42000046
S2080041308F420000B5
S214004140F0B5114A114C124E00F00105E3695F0705
S21400415013D40DB9334213D103EA00078F4207D1B7
S2140041600B4A1A40002A0CBF00206FF00100F0BD79
S214004170013AEBD16FF00200F9E74FF0FF30F6E7B7
S2140041806FF00100F3E700BF809698000000035030
S2140041900200010000000000000000000000000017
S2140041A00246D0F8940068B9937B73B9D2F89000B1
S2140041B050B9D2F88C3043B9537B127B9B1A5842C5
S2140041C058417047002070471846704740BA80B282
S2140041D04140C1F303135940080380B248404901E7
S2140041E001F4FF5148407047024610B544180020BD
S2140041F0A24200D110BD12F8011BFFF7E7FFF7E758
S21400420070B5044606460D46002016F8011BFFF75B
S214004210DDFFAB1B14FA83F39BB2002BF5D1131A08
S2140042205842584170BD21B1012300200B704870E0
S214004230704722207047034B1888003818BF0120AB
S214004240704700BF80650020002070470146034B82
S214004250187819705B6803B118477047C80A0020C1
S214004260074A0BB1012313720121064B997013788C
S214004270042B03D100230520D361E7E7704700BF76
S214004280C80A00208065002001230B747047FEE7F3
S214004290A0F14103052B04D83738C0B208700020BF
S2140042A07047A0F16103052B01D85738F5E7303881
S2140042B0C0B20928F2D90720704770B54668044690
S2140042C00D4626B9BDE870404B68006818478B68F5
S2140042D09847B2680146831A002BB8BF121A2B689B
S2140042E02068A8BF0022BDE87040184738B50C46C5
S2140042F01146E2680346944206D04568AC420BD1AC
S2140043004260FFF7DAFFE46038BD94420DD01146F4
S214004310D268002AF9D1F6E72A460021F9E7CB68E9
S214004320002BF0D0DB68CB60EDE70029F7D1002D3D
S214004330E9D0EA685A60E6E770B5466804460D4676
S2140043407EB18B689847B368C01A002809DB204600
S2140043502A463146FFF7CAFF30467368BDE870400C
S214004360184729462046BDE87040A6E701490830B0
S214004370E2E700BF10E6030001491030DCE700BFAB
S2140043801CE603000122024B002083F8B02470478D
S214004390C80A00200020024B83F8B004704700BF14
S2140043A0C80A0020704700F01800102805D0A0F1B9
S2140043B0180358425841C0007047042070472DE942
S2140043C0F3470E46044608B30378302B18D14378DB
S2140043D003F0DF03582B13D10127023400224FF0DD
S2140043E0993915464FF00A08DFF870A020784FB1CB
S2140043F00DF10701FFF74CFFA8B102B0BDE8F0874A
S2140044000027EBE73038C0B2092801D90720F4E7C7
S21400441091457AEB05038DF80700F7D3A2FB082336
S21400442008FB053306E0B5F1805FEFD22B0143EAC7
S214004430127312019DF807100020891853F100032B
S21400444028BF01200A461D460028DFD114F8010FB8
S2140044500028CBD1C6E90013CFE700BF9999991978
S21400446013B50C466946FFF7AAFF48B94FF0FF326E
S214004470009B9A42019A70EB020234BF0720236029
S21400448002B010BD10B5044605F0D2FED4E90131E5
S2140044906269C01A9A4202D10028A8BF013110BD35
S2140044A018461BF0BFB8024BD3F8B40439F00CBA68
S2140044B0C80A002008B51BF0A5F80222014B83F8B5
S2140044C0B82408BDC80A00200139013811F8012FA8
S2140044D010F8013F3AB9002B14BF01200220831EBA
S2140044E05842584170479A42F0D00020F7E707B587
S2140044F01E4890F8B93403B9FEE70023694600F574
S2140045009860CDE9003318F0ADFBE8B9184AD2F848
S2140045104031D2F840211F2B4FF001030FD9203A2B
S2140045209340019A1A43019208236A461149124899
S2140045300CF0D6FF114B124A1A600BF0A5FE934002
S214004540009A1A430092EFE72D28F3D1084AD2F8D2
S2140045504031D2F840211F2B4FF0010385BF203A8F
S21400456093409340019398BF0093DDE7C80A00206C
S2140045700080004400710800880F00200000002022
S2140045800B020FF008B50EF027F920B110F81A3C10
S2140045902C38013B837408BD10B500F58050D0F868
S2140045A0D0010C4618F09AFA206038B10023036058
S2140045B01846226813722268536010BD1A20FCE762
S2140045C000232DE9F04F0D460A26164C85B0C4F898
S2140045D02835C4F82C35C4F83035C4F834152846C8
S2140045E003A913F04DFFD0B9039B013E9A7C02F15C
S2140045F001029A74D4F8282543F82C2FC4F82835DD
S214004600EDD10A22084B1A800DF03AFC18B1074B80
S214004610984240F0E281064813F002FF50B1192399
S2140046200093D6E1C80A002080650020038000F0D1
S21400463000100020EA4813F0F3FE00900028EED1A8
S214004640D4F83835D4F83C254FF01008934288BF8C
S214004650C4F838254FF0201288BFC4F83C35E14B2B
S2140046600225C3F818809A614FF40012DA61A3F5A8
S21400467010439A6ADC4ADD4C9A62DA6ADC4A002702
S214004680DA624FF4C023C4F84035DA4B0126C4F88A
S214004690503542F2200384F86C55D4F86C2504F5A6
S2140046A0AE6020FA05FC6CF39F023946C4F86C2510
S2140046B00D22C4F84875C4F84C75C4F85875C4F88B
S2140046C06835C4F84475C4F85475C4F85C7584F845
S2140046D0496584F8596584F84D65C4F86065C4F882
S2140046E064752FF000FB4FF0200384F87935C24B39
S2140046F04FF00409C4F8883542F220034FF0400B0F
S21400470084F87C55D4F87C0504F5B062EA4062F380
S2140047109F00BA4A84F89C55C4F87C05C4F89025D6
S214004720D4F89C0504F5B462EA4062F39F00B44AEC
S21400473084F8AC55C4F89C05C4F8A825D4F8AC0594
S21400474004F5B662EA4062F39F00AE4A84F8BC55B0
S214004750C4F8AC05C4F8B02504F5B860D4F8BC2598
S214004760C4F8B83540FA05F363F39F02DFF8B8A241
S2140047703946C4F8BC250D22C4F88495019384F804
S2140047807065C4F88055C4F88C55C4F894A5C4F870
S2140047909875C4F8A055C4F8A4B5C4F8B4752FF03D
S2140047A0A2FA994A84F8CC55C4F8C02504F5BC6230
S2140047B0C4F8C8256022019B84F8C225D4F8CC250D
S2140047C0394663F39F02C4F8CC2504F5BA600D227F
S2140047D0C4F8C4A52FF087FAD4F8DC2504F2E45315
S2140047E023F0030332402B431343C4F8DC35802305
S2140047F0C4F8E835854B84F8F055C4F8EC3504F277
S214004800F450D4F8F03520FA05F262F39F033946E7
S2140048100D22C4F8F03584F8D06584F8D4B5C4F811
S214004820E4552FF060FA4FF0200284F80056D4F8D2
S214004830003604F2046084F8FD2520FA05F262F3DF
S2140048409F0339460D22C4F8003684F8F4652FF02D
S2140048504AFA84F81056D4F8102604F21463EB4093
S21400486063F39F02644B84F82056C4F81C3604F2A7
S2140048702460D4F82036C4F8102620FA05F262F335
S2140048809F0339464246C4F81896C4F8203684F882
S214004890046684F809B6C4F814562FF024FA5C4B64
S2140048A084F84C56C4F8243604F5C763C4F82C368E
S2140048B044F24003D4F84C26C4F8483604F5CA63DC
S2140048C0EB4063F39F02534B84F85C56C4F84C26C7
S2140048D0C4F85836D4F85C2604F5CC63EB4063F392
S2140048E09F024D4B84F86C56C4F85C26C4F86036BC
S2140048F0D4F86C2604F5CE63EB4063F39F024FF4C6
S2140049008053C4F8743641F2100384F87C56C4F819
S214004910783604F5D060D4F87C36C4F85496C4F8DB
S2140049206C26DFF8089120FA05F262F39F033946F9
S2140049300D22C4F87C36C4F828A6C4F84066C4F82D
S2140049404476C4F85056C4F86476C4F86896C4F83A
S21400495070662FF0C8F904F5D263D4F88C26C4F834
S214004960883604F2946323F0030332402B43134348
S214004970C4F88C36294B84F8A056C4F8943604F252
S214004980A460D4F8A03640FA05F262F39F03C4F898
S214004990A036234B84F8C056C4F8B436D4F8C036D4
S2140049A0394662F39F034246C4F8C03684F8805600
S2140049B0C4F88466C4F89876C4F89C96C4F8B876AA
S2140049C0C4F8BC962FF08FF9164BC4F8AC96C4F812
S2140049D0A436009805B0BDE8F08F102320E600BF8F
S2140049E0041000200010045005220C00C80A002005
S2140049F000220C0002000600A0D00350F07F000347
S214004A001410065001001000080020001400065084
S214004A1060001003A0E0035060000030F07F00301C
S214004A207000003010000030240006503C00065095
S214004A30F7B50D46EFF31187302686F31188164C2E
S214004A4004F22C50FFF79EFD30B987F31188BFF3B0
S214004A506F8F1B2003B0F0BD87F31188BFF36F8FF5
S214004A602860EFF3118586F31188D4F8340501A980
S214004A7013F006FD48B9019B9A7C01329A74D4F86B
S214004A80282543F82C2FC4F8283585F31188BFF362
S214004A906F8F0020DEE700BFC80A002007B540225F
S214004AA0084B09481A610123009300F2F45200F5FE
S214004AB0A861064BD0F8380518F00CF9002003B0B2
S214004AC05DF804FB00000450C80A0020298400009A
S214004AD073B52E4CD4F83836D4F83C2613431FD082
S214004AE004F5C76605213046B4F83D26FFF788FB77
S214004AF0B0B1B4F83A56B5F5857F11D804F5A5607F
S214004B00FFF740FD0346C4F8C40600BB0123D4F8F3
S214004B10382584F8C83693401D4A136502B070BD28
S214004B201C4BD4F88C259B0863F39F02C4F88C2595
S214004B300023194A0093A2F12001184BD4F8380537
S214004B4018F0C8F80422164BC3F8A020E6E702685F
S214004B50D4F838061060B088B17990809171002D35
S214004B60DED0D4F88C1504F5B262920862F39F0189
S214004B70C4F88C155B68013DC4F89835B4F89035D8
S214004B8065F30E13A4F89035D2E700BFC80A0020DC
S214004B9000200450681000202810002029840000FF
S214004BA000E0035037B5EFF31185302383F3118807
S214004BB00F4CD4F8340501A913F062FC28B185F334
S214004BC01188BFF36F8F03B030BD019B9A7C013212
S214004BD09A74D4F8282543F82C2FC4F8283594F86E
S214004BE0C836002BE5D084F8C806FFF771FFE0E76B
S214004BF0C80A002007B52548D0F83025A2F12C03B6
S214004C00998952F82C2CC0F8CC36C0F8642690F857
S214004C108C2679B961F3410280F88C2600231C4A61
S214004C200093D0F83C05A2F1F00118F053F803B059
S214004C305DF804FB42F0020280F88C265A68B0F851
S214004C409416C0F898269A89013A62F30E119A686B
S214004C50A0F894167AB1D0F8A01600F2B4629208C2
S214004C6062F39F01C0F8A0169A68C0F8B8260E3303
S214004C70C0F8A836D2E7D0F8A01600F2A4629208D0
S214004C8062F39F01C0F8A016F1E700BFC80A002033
S214004C900811002038B5EFF31184302383F3118810
S214004CA00F4A13882BB984F31188BFF36F8F032044
S214004CB038BD013B13808B7C0A4D01338B7405F5A0
S214004CC0A6602C310DF081FDD5F8CC360BB9FFF778
S214004CD091FF84F31188BFF36F8F0020E8E700BFD1
S214004CE080650020C80A002007B5032001A939F016
S214004CF0EAF80198044B98429ABF0A23B0FBF3F0F7
S214004D00024803B05DF804FB09879303808D5B00BF
S214004D1008B5274B83F30A886FF00101254B264A16
S214004D209A60D3F8882042F47002C3F88820234A99
S214004D30116641F2FF7151660221C3F8D010BFF32D
S214004D404F8FBFF36F8F08204FF440331C49C1F8D4
S214004D508001D3600860A2F50052136119481A4B0F
S214004D60C01A801013F04EFB184B19498B4212D311
S214004D700020184B18498B4218D30AF081FB18689C
S214004D8050F82240586840F8224001329868824223
S214004D90F5D30C33EAE70022F8E71C6844F8220053
S214004DA001325C68A242F8D30833E4E70022F8E751
S214004DB00800002000ED00E00040000000A00044D5
S214004DC000E100E0A0410000404100007C25040016
S214004DD08825040088250400882504000EB40346B0
S214004DE017B505A951F8040B5C6901910CB19A69D5
S214004DF0A04703B0BDE8104003B0704770B5012966
S214004E0005461446C2B006D112681649FFF7E6FFFB
S214004E10002042B070BD022921D113491068FFF767
S214004E2053FBE0B1606801A9FFF71AFB0028F0D138
S214004E30019902ACFF2928BFFF2122460A26884294
S214004E4004D10023074913542846DFE7B0FBF6F3E6
S214004E5006FB1303303304F8013B0130EFE707206D
S214004E60D7E700BF0BE3030020E203000EB433B520
S214004E7004468588E18805AB00688D4253F8042B0C
S214004E802CBF0021491B2844019318F02DFE002852
S214004E9000DAFEE7A388E288184480B2904228BF72
S214004EA02368A08028BF9B18204624BF002203F852
S214004EB0012C02B0BDE8304003B07047F8B500F1F1
S214004EC0080303604FF404134360002304460D46B2
S214004ED00E8A074F03720E44B54201D12046F8BD34
S214004EE03946204615F8012BFFF7C0FFF4E700BF50
S214004EF023E2030070B586B011B90C2006B070BD71
S214004F0014681F492046FFF7DFFA0028F5D120462F
S214004F101C49FFF7D9FA0028EFD11023ADF814305A
S214004F2064B320462FF072F9431C212B4FEA530539
S214004F3024D801AA164600F001031544AE42DCD080
S214004F402078CBB90DF10301FFF7A2F90028D5D1DF
S214004F509DF8032001341201D2B220780DF103012E
S214004F60FFF796F90028C9D19DF8033001341A439B
S214004F7006F8012B0346E1E70022EEE70720BDE72F
S214004F8028E203002FE2030008B513468288232A8E
S214004F9005D90A460068012113F0CEFA00B1FEE7F3
S214004FA008BD01297FB511D169461068FFF707FAD9
S214004FB0044660B9009D019BB5F5807F73F1000340
S214004FC004D2E8B2A0F10B030F2B03D90724204626
S214004FD004B070BDFF230B4ECDE9004496F9E416ED
S214004FE002948DF8003008F081FC044600B1FEE71C
S214004FF06A46D6F8E806A9B234F062FF0028E6D082
S214005000FEE700BFC80A0020012937B502D00720F6
S21400501003B030BD10680028F9D0037869462D2B00
S2140050200ED10130FFF7CBF903460028F0D14FF040
S2140050300042009CA242019A9341E8D364420DE0EC
S2140050402B2B08BF0130FFF7BAF90028E0D1009CEF
S214005050019BB4F1004F73F10003D8D204F1800332
S214005060FF2BD4D8064D04EB84014900D5F8E8069A
S21400507009B225F067FC00B1FEE785F8E446C7E70D
S214005080C80A002010B5A9B114680B492046FFF7DE
S2140050901BFA38B1002007F069F908B1012010BDED
S2140050A00020FCE720460549FFF70EFA10B107F08E
S2140050B071F9F2E70720F2E737E203003DE203006A
S2140050C010B5A1B114680B492046FFF7FDF930B1C1
S2140050D0012007F04BF9003818BF012010BD20460C
S2140050E00549FFF7F1F910B107F054F9F3E7072087
S2140050F0F4E700BF37E203003DE2030013B50C46B9
S21400510029B90F49FFF76AFE204602B010BD0129F3
S21400511011D169461068FFF752F904460028F3D10A
S214005120009B019AB3F5807F72F1000203D20B3B1D
S214005130DBB20F2B01D90724E6E70C24E4E700BF17
S21400514042E203000229F7B505460F46164618D177
S21400515059491068FFF7B8F9002854D069467068B6
S214005160FFF77EF9044648B90099B1F5802F4FEA5B
S21400517011438AB201D20F2A2AD90724204603B047
S214005180F0BD03293DD14D491068FFF79DF9002871
S21400519039D069467068FFF763F904460028EDD1F8
S2140051A0B06801A9FFF75CF904460028E6D1DDE9FE
S2140051B00013B1F5802F4FEA1140DED28AB20F2AD3
S2140051C0DBD8C0B2C9B2002B51D038F0BFFF16E012
S2140051D0EFF31180302282F31188534303F1A0438A
S2140051E003F570335A6980F31188BFF36F8FC9B225
S2140051F0CA402846324902F00102FFF7EFFD0024BC
S214005200BCE70129B9D92F493068FFF75DF90028B6
S214005210B3D069467068FFF723F904460028ADD17D
S214005220022F32D1009BB3F5802F4FEA13409AB27B
S214005230A3D20F2AA1D8EFF31181302484F311886A
S2140052406043214ADBB2072B024492BF5268D26801
S214005250083B9B0022FA03F303F00F035A1E0E2AA4
S21400526008D981F31188BFF36F8F184909E016F04B
S214005270F5F9C4E781F31188BFF36F8F012BF4D1E2
S21400528013492846FFF7AAFDB9E7032FB7D1B5683B
S21400529010492846FFF718F930B12146009803B0A8
S2140052A0BDE8F04007F009BF28460B49FFF70CF9A8
S2140052B00028A4D00121F1E7C9E2030087240400F6
S2140052C0CDE20300D2E2030000C00350DCE203009C
S2140052D0D7E203004E250400572504002DE9F843C5
S2140052E0064615460C46384F51B138491068FFF748
S2140052F0EBF898B1013C14F0FF0405F104050DD15C
S21400530097F8B014324B334A3046002918BF1A4675
S2140053103149FFF763FD0020BDE8F88397F8B03405
S214005320D5F8008053B940462C49FFF7CDF828B988
S21400533030462B49FFF752FD0D20EDE7294FDFF8E9
S214005340B89040463968FFF7BFF8A8B1BA687B68DE
S214005350511006EB6200D20748BF725804F1FF31C5
S21400536048BFD358012C08BF0022C9B218BF2A1D57
S21400537098472328D0D10DE00C374F45E1D1404661
S214005380194937682EF005FF70B1404617492EF0D0
S21400539000FF40B1012C04D030462A681449FFF7BC
S2140053A01DFD2320B8E70120124B012C03EBC003A0
S2140053B004F1FF3108BF00223846D3F89430C9B252
S2140053C018BF2A1DD4E700BFC80A0020F3E2030076
S2140053D0E2E20300EAE20300F7E2030037E203003A
S2140053E010E3030028E603002FE303003AE303007C
S2140053F043E3030010E60300A0E6030010B583793C
S214005400044603F0FB03032B24D18188C269C90636
S214005410036805D49179D86908F0F2FA00B1FEE77E
S214005420A379E169042B1CBF0423A3712368D86900
S21400543008F01EFB0D280BD1E26953694BB100231F
S2140054405361E26913612368E169D86908F010FBCB
S21400545000B1FEE710BD2DE9F84301264FF0020823
S2140054604FF00409254C264D04F5005732462846D1
S2140054703E670F210FF0C8FE2846C7F8708040220E
S214005480F0210FF0C1FE2846C7F870904FF48072E6
S2140054904FF470610FF0B8FE082304F580573B67A1
S2140054A028464FF400524FF470410FF0ADFE4FF413
S2140054B080624FF470611348C7F8A0900FF0A4FE06
S2140054C0114BC4F80486C4F8FC354FF00213C4F838
S2140054D0003603F58033C4F8F0351D23C4F8EC35E8
S2140054E00A4B002003F58052566040F201429A6053
S2140054F00522DA605A61BDE8F88300BF00C0035099
S21400550064C0035094C0035002000100000006501F
S21400551008B51FF0D3FB08B11FF0BAFBBDE8084082
S21400552031F0C9B808B518F075FDBDE8084018F0A8
S214005530B7BD08B50AF0A8FEC30742BF0122014B5B
S2140055401A6070478064002038B50D4CD4F8EC36ED
S21400555093B90C4D6B68013307D10CF041FC4FF04A
S21400556050234FF4003268601A676B68402B02BF06
S214005570054B1B68C4F8EC36D4F8EC0638BD00BF03
S214005580C80A002080650020806400204FF000429A
S214005590014B1A60704700BF806400200C4BD3F8A4
S2140055A0F02630EA020211D0EFF31181302282F3A6
S2140055B01188D3F8F0260243C3F8F02681F3118849
S2140055C0BFF36F8FD3F8F40638F07EB9704700BF8C
S2140055D0C80A002000239A6AB2F5804F03D21168E9
S2140055E0074A914203D0002303708360704701226C
S2140055F002709A6A926842609B6A9B69F5E700BFF0
S21400560007B0CD5E1FB501238DF80430002301A836
S214005610CDE90233FFF7DEFF039B9C0245D5254C00
S21400562063680BB10CF098FA0122234B5A60A36A08
S2140056309806FCD402230125A36063621F4B5D60BD
S2140056400CF08AFA1B4BE5609A6AD106FCD402225B
S2140056501A639A6AD206FCD40323174A5361A2F54A
S214005660805293614FF48022154B1A604AF6E85038
S214005670144B154CDA6ED96E22F0030218661348E6
S21400568042F0020241F00301C0F82044DA66D9660F
S214005690DA66D966DA66D966DA66D966DA66BFF396
S2140056A04F8FBFF36F8F30BFFEE7094B094A1A6072
S2140056B00AF0EAFD00400650006006500050065012
S2140056C000E100E0004000500000FFFF00E0035053
S2140056D00000002002020FF01FB500239A6AB2F500
S2140056E0804F1FD2126BB2F5804F1BD2012201A849
S2140056F0CDE902338DF80420FFF76CFF039BDB0334
S21400570010D5029B1A0E0DD0012A03D1C3F307430E
S2140057100A2B07D900239B6A1B6B1B6C05B05DF830
S21400572004EB184740F2011005B05DF804FB38B5ED
S2140057300446D0F8F8000D4617F014FB40B9E36FA6
S2140057402BB1207A2A46D4F880109847012038BD1D
S2140057500020FCE710B4EFF31181302383F31188A7
S2140057600346D0F80821546843F8044F536081F389
S2140057701188BFF36F8FD0F808315DF8044B03F53E
S2140057808053D3F8940138F09FB808B50146FEF769
S21400579007FD50B1D1F8880040B9D1F8843023B95C
S2140057A0B1F86800B0FA80F0400908BD0020FCE7B8
S2140057B0EFF31182302383F311888368013B836003
S2140057C082F31188BFF36F8F704710B508B90220B7
S2140057D010BDEFF31184302282F31188826822B95B
S2140057E084F31188BFF36F8FF1E70132826084F390
S2140057F01188BFF36F8F036813B100200B60E7E7D3
S214005800FFF7D6FFE3E738B50446EFF311853023FC
S21400581083F31188037C63B18068214640300CF026
S214005820E3FFA26892F84430013B82F8443000233C
S214005830237485F31188BFF36F8F38BD2DE9F843C5
S21400584000F580550646D5F8BC018846174617F081
S21400585045F9044610B91A20BDE8F8833422002121
S2140058602EF041FAEFF31189302383F311887B1E63
S214005870042B22D8DFE803F0172103170300B5F83E
S214005880AC21B5F8B831013A934209DB2146D5F888
S214005890BC0117F01AF989F31188BFF36F8FDAE7A6
S2140058A00133A5F8B83189F31188BFF36F8F002054
S2140058B0E774A661C8F80040CEE72120CCE710B513
S2140058C050F8044C011F04F58053D3F8C80117F0B4
S2140058D0FCF8204610BDF8B50446002850D0837C5E
S2140058E0002B4FD10168856911B1284617F0EFF8F3
S2140058F0A16805F5805519B1D5F8D40117F0E5F87B
S214005900E37C022B0BD0032B0BD0012B0BD1606852
S21400591028B1FFF7D4FFD5F8A00117F0F7F8012655
S21400592002E06168E9B90026EFF31187302383F3BC
S21400593011882146D5F8BC0117F0C7F8E37C042B84
S21400594014D1D5F89C0137F0BFFF87F31188BFF359
S2140059506F8F26B1D5F8A001436A03B1984700209F
S214005960F8BDD5F8C40117F0B0F8DCE7052B01D078
S214005970032BEAD1B5F8B831013BA5F8B831E4E716
S2140059802220EDE70420EBE72DE9F04116461F46FE
S2140059900D46D9B100F58050D0F8CC0117F09EF82E
S2140059A00146A8B100244FF0020804606B6880F836
S2140059B00A804360078130460CF007FF284685F8CA
S2140059C01380FFF788FF2046BDE8F0812220FBE722
S2140059D01A20F9E710B5A8B1FFF771FF044600F5E5
S2140059E08D5014300CF0F8FE04F58054014618B1C2
S2140059F0D4F8CC0117F069F8D4F8A00117F086F8AF
S214005A00002010BD2220FCE710B5064C0A4601B265
S214005A10D4F8F80619F024FDD4F8F806BDE81040CE
S214005A20D8E700BFC80A002038B504460D4681B145
S214005A30486804F5805428B1FFF741FFD4F8A00168
S214005A4017F064F82946D4F8CC01BDE8384017F0C2
S214005A503CB838BD08B50CF0BFFE20B110F81E3CAF
S214005A603038013B837408BD8B7C3031013301F83C
S214005A701E3C0CF0AABE38B581624469EFF311856E
S214005A80302383F31188D4F80831014603F110005F
S214005A90FFF7EAFF85F31188BFF36F8FD4F808216C
S214005AA0074902F1180017F033F94FF6FF72B4F801
S214005AB0683093421CBF0133A4F8683038BD00BF7D
S214005AC06769000010B50446A37C0846013B04F154
S214005AD03001A3740CF088FE2046BDE81040332148
S214005AE0C9E70B7C70B57F2B164604464FEA931227
S214005AF04FF030030AD9EFF3118583F31188032A98
S214005B0023D1837B0BBB012383730BE0EFF311855B
S214005B1083F31188437B1BB99030FFF7A5FF0FE096
S214005B20013B4373D4F808010830FFF79DFF3EB1F0
S214005B30D4F8083103F58053D3F8940137F0C4FE47
S214005B4085F31188BFF36F8F70BD04F19400E4E70E
S214005B502DE9F7438946174601A9032206461D4646
S214005B609DF82880FFF76AFE48BB06F58053D3F8F9
S214005B70C401019C16F0B2FF606020B9204603B055
S214005B80BDE8F043A7E6012165F06F05A181C4F8E2
S214005B9014906774257480F800806068FEF724FB14
S214005BA0E081EFF31185302383F31188214606F157
S214005BB00800FFF759FF85F31188BFF36F8F03B016
S214005BC0BDE8F08310B50446182200212EF08BF8AD
S214005BD0204610BD0368D90444BF43F480630360C5
S214005BE003689A0444BF43F400630360704710F1EF
S214005BF0840F12DA10F1950F25DB9530102822D885
S214005C00DFE800F01D2121211B2121211913110F8E
S214005C10151F1723090008207047003818BF0120F9
S214005C2070471D2070472E2070472D207047242077
S214005C307047212070471A2070472F2070472C206D
S214005C40704725207047012070470F2070472DE9C8
S214005C50F04F604E044633780D4692468FB0002BC8
S214005C6000F0B480022B08D1007A012894BF0020EF
S214005C700120C0000FB0BDE8F08F012B00F0A88017
S214005C80033B012B03D8037A012B00F0A18094F884
S214005C9004010028EED02A68137903F0070123F0E8
S214005CA0070313712B68F0680693237A07918DF823
S214005CB02C30D4F8FC30CDF82D0043F000430D9383
S214005CC0454BD6F8FC069A889B79ADF831208DF8BE
S214005CD0333000234FF4007209930AA93F4BD5F8DE
S214005CE00490BAF8007011F069FE834688B9DDF8B2
S214005CF02880D8F80430D8E908121B0A18D038488B
S214005D00834235D06FF0860B002F59D10A9811F0D8
S214005D10ABFA5846FFF76BFF10B9099BAAF800309C
S214005D202A680799137923F0070319431171A1E72D
S214005D3009ABCDE90473069B40460093CDE9027992
S214005D40CDF804900BAB15F01BF910F1860F8346C7
S214005D501CD10DF12203B8F8001020480DF12302E3
S214005D6014F088FC031E14BF9B466FF0850BCBE730
S214005D7009ABCDE90473069B40460093CDE9027952
S214005D80CDF804900BAB15F0FBF88346BBF1000F83
S214005D90BAD10A9811F068FA15F0ABFED4F8FC20D8
S214005DA00132C4F8FC20F2690132B2F1005FF26100
S214005DB0AFD13278052AACD10320FEF747FAA8E720
S214005DC03A46002148462DF08EFF9FE7032051E714
S214005DD000204FE7C80A0020D40A00200002480529
S214005DE002008000EFF305830F2B84BF034A9B5C01
S214005DF04FF0E023D3F80C3D704700BFF0E300E01F
S214005E00002307B50193054B5B6937F00FFE019B36
S214005E10002BFCD003B05DF804FB00BF80650020BB
S214005E20EFF3148010F0010F14BF0020012070471C
S214005E30EFF3148040F0010080F31488704710B52B
S214005E40044B0446D3F8B00737F082FE20600020EB
S214005E5010BD00BFC80A002010B5044B0446D3F896
S214005E60B40737F075FE2060002010BDC80A002079
S214005E70002313B5174801A980F8B83400F2BC70A7
S214005E80FFF7A3FC20BB019C36F0CAF8022803D11A
S214005E90D4F8F00037F090FB617A11F010010CD0C6
S214005EA036F0BEF8022803D1D4F8F00036F08CF8AD
S214005EB0094802B0BDE810407AE494F85030002B50
S214005EC0EED0023B012BEBD9204616F051FFE7E758
S214005ED002B010BDC80A0020841200202DE9F3414C
S214005EE00E4615468046002843D001A9FFF76DFCF4
S214005EF00746F8B9019C36F093F8022803D1D4F887
S214005F00F00037F059FB711E0A2907D8DFE801F0C8
S214005F10161C20222426292D181A1E00E56536F0A8
S214005F207FF8022803D1D4F8F00036F04DF840464A
S214005F30FFF73EFC384602B0BDE8F0812566EEE786
S214005F40E566ECE72567EAE7A565E8E76566E6E760
S214005F506567E4E7A567E2E7E567E0E7C4F8805031
S214005F60DDE72B68C4F89830D9E72B68C4F89C3076
S214005F70D5E72227DEE708B50023012219460B489D
S214005F8016F0FDFD08B1002008BD0221084A0748AA
S214005F90FFF7A4FF0028F6D10321064A0348FFF7BF
S214005FA09DFFB0FA80F04009EEE700BF9012002097
S214005FB0614200000163000070B50546EFF31183EF
S214005FC0302282F3118806684EB1727AD20610D457
S214005FD083F31188BFF36F8F0F24204670BD82684D
S214005FE0012A2BD8866083F31188BFF36F8F34465F
S214005FF0F3E78268012A21D80022826083F31188A1
S214006000BFF36F8F36F00CF8022803D1D6F8F000F5
S21400601037F0D2FA0121304616F0AAFE044610B137
S214006020052808BF002435F0FBFF022803D1D6F868
S214006030F00035F0C9FF00232B60CEE783F311880C
S214006040BFF36F8F0424C8E710B5074C04F5F9605A
S214006050FFF7B2FFFFF78FFF20B10122034B9A70C4
S2140060600023237210BD00BFC80A002080650020F0
S214006070022838B52ED1042952D135F0D1FF022896
S21400608004D1284BD3F8980137F096FA264B002116
S214006090186816F067FD044635F0C2FF022803D1E3
S2140060A0D4F8F00037F088FA012384F8043135F08C
S2140060B0B7FF022803D1D4F8F00035F085FF35F09D
S2140060C0AFFF02282CD1174BD3F89801BDE8384013
S2140060D035F07ABF032823D1042921D135F0A0FF5B
S2140060E0022804D10F4BD3F8980137F065FA002543
S2140060F00D4B1C68002CE2D035F092FF022803D12D
S214006100D4F8F00037F058FAC4E93F5535F088FF68
S214006110022803D1D4F8F00035F056FF2468E9E7EA
S21400612038BD00BFE0750020E06500202DE9F04393
S21400613085B080461746994635F072FF02280E460F
S21400614005D101F58053D3F8980137F035FA394672
S214006150306816F007FD054600287CD14FF488719C
S214006160012017F013FD044670B91A2435F058FFC5
S214006170022805D106F58056D6F8980135F024FF9A
S214006180204605B0BDE8F08340F201138381022368
S21400619080F8099080F8503007724581C573056015
S2140061A0642036F0C7FD012F94BF0023012384F836
S2140061B004314FF0FF33C4E9263301230193274B04
S2140061C06061009304F1A003029350236846C4E97B
S2140061D03F55C4F80861039337F0CBFCC4F8F000D1
S2140061E028B984F8500020460BF0A6FEBDE73368B9
S2140061F0C4E92155C4E92355C4F89450236034609B
S214006200304600230168A9B9002BF9D1C4F8F43050
S214006210EFF31182302181F31188012188F8047090
S214006220C8F80810C8F8004082F31188BFF36F8FD3
S2140062301C469BE70A68002AE6D091F808C0157A43
S214006240AC4529BF1368084611600B6022BF026088
S21400625001231046D6E7122488E700BF68E3030050
S21400626038B5044635F0DCFE022804D1154BD3F8C9
S214006270980137F0A1F9144B2179186816F072FCD2
S2140062800446E0B135F0CCFE022803D1D4F8F00085
S21400629037F092F994F8505035F0C2FE022803D138
S2140062A0D4F8F00035F090FE35F0BAFE022804D19E
S2140062B0044BD3F8980135F087FE284638BD0546CE
S2140062C0F2E700BFE0750020E065002038B50468FE
S2140062D014B9BDE83840C3E735F0A2FE022803D162
S2140062E0D4F8F00037F068F994F8505035F098FE7E
S2140062F0022803D1D4F8F00035F066FE284638BDF3
S21400630010B5054C04F5F960FFF7E0FF05281CBF43
S2140063100123237210BD00BFC80A00202DE9F047F4
S2140063201E460623137049681446302986B072D07C
S2140063300ED8042905D9202967D0002363600D23D1
S21400634035E00139032930D8DFE801F03358394306
S21400635040F2022399427DD00ED850295ED0B1F586
S214006360007F60D04029E8D1516050F8380CC369EE
S2140063709847A06008234CE040F2013399426ED063
S214006380B1F5885F6FD0A1F58053FF2B00F28E80A9
S21400639000238DF81010C9B241F48051516003A853
S2140063A00393FFF75DFF207207E000235360A360AE
S2140063B0E0E70123536006231372052329E0042334
S2140063C003220821C4E901230023C4E90313102390
S2140063D01FE01346042243F8042F504A1168596000
S2140063E05168128999609A810E2363800123437451
S2140063F063880433336006B0BDE8F0870223536039
S21400640010F8333CDB000133D1E7516050F8302CF4
S21400641022816380ECE75160C36BC8E7516050F897
S214006420380C036AA4E7516003A8FFF7D3F8049B6F
S214006430E360002323619DF80C30012B02D1032377
S2140064402372C4E723B923724FF0FF33E360BEE73D
S2140064500423F5E7324B5160D3F8D437A7E7304B27
S21400646051601B78A3E700252F46516002F107090B
S21400647002F1870A6B1C6846CDE90077CDE9037701
S2140064808DF804508DF8103002970597FFF71EFF21
S214006490804603A8FFF71AFF48EA001809F8018F9C
S2140064A00235D145EDB2E5D18423B2E7A1F5E0632C
S2140064B0FF2B3FF642AFCDB245F4E063536035F0B4
S2140064C0AFFD022804D1174BD3F8980137F074F8C3
S2140064D0154B2946186816F045FB0546E0B135F021
S2140064E09FFD022803D1D5F8F00037F065F895F83F
S2140064F0047135F095FD022803D1D5F8F00035F08B
S21400650063FD35F08DFD022804D1064BD3F89801C3
S21400651035F05AFD277250E70746F2E77AE30300A4
S214006520C80A0020E0750020E065002007B5304C62
S21400653004F5DF654FF0FF31D4F8B40435F09EFE65
S21400654094F8B834022B08D0002BF3D1294814F065
S21400655041FF012384F8B834ECE700232946254898
S2140065600DF1060215F0E5F910B10023ADF806307E
S214006570BDF806000028DDD094F8D827D4F8F83601
S214006580012A07D0022A27D000210846FFF73CFA46
S214006590012314E01A78012A04D0022A17D0002A10
S2140065A0F2D1C7E7021FDB7892B29A420AD29B1A50
S2140065B09BB20021A4F8DA37FFF726FA022384F804
S2140065C0D837B7E70023A4F8DA370121DEE7421F01
S2140065D0B3F8033092B2E8E7B4F8DA378342F4D976
S2140065E01B1A0021A4F8DA37FFF70EFAA2E700BF5D
S2140065F0C80A002084120020302508B50B4C4FF046
S214006600FF31D4F8F40635F039FEEFF3118385F345
S21400661011880022D4F8F006C4F8F02683F3118817
S214006620BFF36F8F21F0BEF9E9E700BFC80A00206C
S2140066302DE9F347044691461E4635F0F1FC022844
S214006640884652D1D4F8085116F0010F05F580534C
S214006650D4F89C10D3F89C0118BF002135F00EFE2C
S2140066600330012840F28580042228460DEB020103
S214006670FFF7E4F80746C8B935F0D2FC022803D184
S214006680D4F8F00036F098FF16F00E0F657A2ED08C
S214006690AB070FD435F0C4FC022803D1D4F8F000C1
S2140066A035F092FC0198FFF716F92127384602B01C
S2140066B0BDE8F08716F002021ED116F004031DD1C5
S2140066C016F008051DD12B4694F85020DDF804A0DE
S2140066D0052A18D035F0A4FC022803D1D4F8F0001F
S2140066E035F072FC5046FFF7F6F80227DEE715F0A5
S2140066F00105CFD10123E7E70025E4E7042513468B
S214006700E2E70E25E0E7CAF80480AAF80C90CAF87B
S2140067101440227A8AF811200A9ACAF820201BB35D
S214006720A37AE27A1B01DBB21343C6F3001643EAF0
S214006730C6038AF81030A37A013303F00703A37266
S21400674049464046FDF750FD0122AAF80E00514684
S2140067502046FFF7C6F935F063FC0228A6D1D4F828
S214006760F00035F031FCA1E765F03F058AF81050DF
S214006770E6E71A279AE72DE9FF410F4603A90646E2
S21400678015469846FFF721F80446C0B93FB345B30F
S2140067900398D0F8083190F8042103F58053B3F835
S2140067A0B04140F6F773002C08BF1C460AB1083CFF
S2140067B0A4B2A54207D93046FEF7FAFF2B2420469E
S2140067C004B0BDE8F0810A9B2A460093394643464A
S2140067D0FFF72EFF04463046FEF7EAFFEFE72224D7
S2140067E0EDE72124EBE7002307B58AB200930146C4
S2140067F00248FFF7C0FF03B05DF804FB84120020D8
S21400680007B50022074B01469A700288064B0432F1
S214006810009392B201230548FFF7ADFF03B05DF881
S21400682004FB00BF8065002061420000901200203B
S214006830F0B5A0F58E56183E02230022314685B0EC
S214006840054616F09CF92E28044667D048B90B2159
S2140068502846334AFFF742FB044628B12846FFF78E
S214006860ABFB204605B0F0BD022128462C4AFFF7B8
S21400687035FB04460028F1D103212846294AFFF7B4
S2140068802DFB04460028E9D12A4604212846FFF7B6
S21400689025FB04460028E1D103A93046FDF77CFE1F
S2140068A0039E0623374647F80C5BB38134610BF032
S2140068B097FA4FF050234FF4003210F0400F1A674B
S2140068C014BF7323772310F0800F18BF732310F4C0
S2140068D0806F18BF732310F0010F18BF782310F0D5
S2140068E0020F18BF782310F0080F18BF742310F497
S2140068F0004F18BF742310F0040F18BF722310F453
S214006900804F18BF7223736108230C22F381394627
S214006910032328460096FFF72EFFA2E71224A0E7DF
S214006920D981000089420000EFB50646A0F58E50DA
S2140069300D46183803A91746FDF72EFE88B906231C
S214006940039909228B8105230D7245F48055CB816E
S2140069500E600D610F750123009130460C31FFF774
S2140069600AFF04B0E0BD2DE9F047064630274FF099
S214006970020900F1100833697BB1EFF3118A87F33F
S21400698011884046FFF766F84469054694F850308B
S2140069902BB98AF31188BFF36F8FBDE8F087B4F880
S2140069A06830002BF5D0013BA4F868308AF31188D4
S2140069B0BFF36F8F2B7C40697F2B4FEA931235D93C
S2140069C0032A09D1D0F864A0BAF1000F04D0AB6A4C
S2140069D02A6A6968007AD04735F022FB022803D17C
S2140069E0D4F8F00036F0E8FD94F85030062B20D0AE
S2140069F0082B1ED0032B0BD12046FEF7C6FE38B15F
S214006A00637A84F85090DB0602D52046FEF7A2FE95
S214006A1035F006FB022803D1D4F8F00035F0D4FA9E
S214006A20002328466B60FEF756FFA4E7D0F858A070
S214006A30CAE72046FDF7B4FB0028E9D0D4F80801E1
S214006A40092200F58E50217A1830FFF76DFF30B11D
S214006A500923D4F8F80084F8503016F083F994F837
S214006A605030062B04BF072384F85030D0E7084B7D
S214006A7003F2E472D2E8AF2FD20707D493F8E427E4
S214006A8022B9C3F8E827012283F8E42701487047B3
S214006A90C80A0020B0120020102200212DF023B9D1
S214006AA070B5144D05F2EC73D3E8AF4F14F0010443
S214006AB016D195F8EC379BB9C5F8F04705F2F47691
S214006AC030191034FFF7E8FFA02CF9D10B220A4B3F
S214006AD0013A194603F1100304D1012385F8EC3777
S214006AE0064870BDD5F8F00743F8100CC5F8F01747
S214006AF0EEE700BFC80A0020BC120020B812002033
S214006B00037A012B04D0022B06D053B90B727047C0
S214006B100B7203880B8070470B7203680B60436828
S214006B204B607047C830FEF7D9BB024B93F8B004F1
S214006B30704700BFC80A0020034BC0E93712C3F8ED
S214006B409418C3F898287047C80A002025289DBFC7
S214006B50034B03EB8003D3F8A0000248704700BF46
S214006B6010E6030084E3030001289DBF034BC0EB3F
S214006B70001003EB00100020704700BF68130020D1
S214006B80034BC01A1E23C010B0FBF3F0C0B2704710
S214006B906813002010B5044621B10B68EB2B04D80F
S214006BA0EC230B600024204610BD0028FAD016F017
S214006BB089FA012384F8E430F5E7D0F8E800704756
S214006BC00120704790F8E4302BB10023543080F851
S214006BD0903014F07DBE704708B509F055FB08B537
S214006BE0FEF710FD2430FDF74DBC7FB500242430A1
S214006BF00C70ADF80C40ADF80E200291FDF742FC8B
S214006C00194A034682428C410BD215A3D3E90023CE
S214006C102CF018F814461549024602A8FEF726F985
S214006C202346134C4EF66021B3FBF4F204FB1234F9
S214006C30B4FBF1F34FF47A7601FB1344B4FBF6F59C
S214006C400C49009502A8FEF711F906FB15420A4901
S214006C5002A8FEF70BF904B070BD00BFAFF30080CA
S214006C60005C260500000000FF5B260595E3030098
S214006C7080EE36009BE30300AAE30300004870475B
S214006C8048E703000048704748E70300806C003878
S214006C9018BF0120704708B5826C3AB1436DA0F862
S214006CA05E10D86905F020FD002008BD0D20FCE729
S214006CB0836C3BB1B0F860308B4218BFA0F8601010
S214006CC0002070470D207047014B93F8800A7047EC
S214006CD0C80A002008B5836C23B1084605F05EFE9E
S214006CE0002008BD0D20FCE7836C0BB114F0E4BD5A
S214006CF00D207047006F7047C06906F04DBDB0F8B4
S214006D00580040F034007047836C23B1034B0020DA
S214006D1083F8811A70470D20704700BFC80A00200C
S214006D2038B5836C0D4683B3C469204605F0CAFEA9
S214006D3080B20F2825D91E21164BE21AD210B2FBBC
S214006D40F1F2D2B203EB821303F5F271002311F8CD
S214006D502300C0B10133102BF9D14FF0FF3399B2A5
S214006D600F2914D80C4903EB021301EB830301EB44
S214006D704201B1F8022B15440122A3F8825A83F887
S214006D80842A002038BD1BB2E9E70D20FAE703206D
S214006D90F8E700BF68130020C80A002010B5836C0F
S214006DA0CBB1C469204605F08DFE83B20F2B14D8F4
S214006DB00B4B03F50A62A41A1E22E410B4FBF2F48D
S214006DC0E4B200EB041003EB8003002083F8840A8F
S214006DD0A3F8820A10BD0D20FCE70A20FAE700BFE0
S214006DE0C80A002010B5836C8BB10A4CC369A4F5A1
S214006DF0F1729B1A1E22DB10B3FBF2F3DBB24022C9
S214006E00002104EB83102CF06EFF002010BD0D2037
S214006E10FCE700BF4A15002010B5836C8BB10A4C06
S214006E20C369A4F266229B1A1E22DB10B3FBF2F3A0
S214006E30DBB24022002104EB83102CF054FF00202C
S214006E4010BD0D20FCE700BFCE15002008B5826CF3
S214006E505AB1B0F85830C0F8B0109B0603D5436D51
S214006E60D86905F015FE002008BD0D20FCE710B51A
S214006E70836C3BB3D0F8B0309942B0F8583088BF36
S214006E80C0F8B0109B061BD5436D0F4ADB6902F5B0
S214006E900A601B1A1E20DB10B3FBF0F3EFF3118021
S214006EA0302484F31188DBB202EB8313D3F88C2BE7
S214006EB0914288BFC3F88C1B80F31188BFF36F8F95
S214006EC0002010BD0D20FCE7C80A002005F080BF9A
S214006ED090F844007047836C1BB180F84410002083
S214006EE070470D207047B0F84600704738B5836C81
S214006EF004460D463BB1436DD86905F0B3FB002050
S214006F00A4F8465038BD0D20FCE762307047B0F854
S214006F105E007047084612F037BF836C3BB190F8AE
S214006F206A3061F3000380F86A30002070470D2055
S214006F3070470120704770B500254468456074B1FD
S214006F40A068844205D1A56020466368BDE870400D
S214006F5018478368A360436885609847F0E770BD6C
S214006F604068003818BF0120704703468288C088F2
S214006F70114481429DBF1868998080180020704790
S214006F80094AB2F8083C03B9FEE748F24E30D2F898
S214006F900C3CA3FB003010EB530044BF20F0004035
S214006FA00130C2F80C0C7047C80A00208368A3B9E9
S214006FB003685A6862B95860084B806093F8182CCA
S214006FC0D3F8140C42F0010283F8182C36F07CBC7F
S214006FD0926882605A68906058607047C80A0020BD
S214006FE02DE9F041936805460C461646984732460A
S214006FF0074621462846FDF779F9686800220346C9
S2140070006BB1A168D3F808E0A1EB070CAEEB07085C
S21400701098EA0C0F14D4A1EB0E01002908DA52B935
S214007020E0606C6031462846BDE8F041FDF745B9A2
S2140070301A46DB68E4E7D368E360D460BDE8F08115
S214007040BCF1000FEAE701688A6A8B6B086B934213
S21400705008BFCA6A03F1804304BF0132CA628B6369
S214007060014A30310830BBE710E6030001460068ED
S214007070014A1030FDF73AB91CE603002DE9F04F3F
S2140070800646ADF5037D41BB002542A82DF08BF8E2
S214007090A946DFF808810DF5847B0DF1840A5F466A
S2140070A01BF8014B3CBBC5F12102212DD2B221AF0A
S2140070B04FEA82024FF0000188BF002207EB8500EE
S2140070C02CF011FE002C4BD030463249FDF786FEE0
S2140070D007200DF5037DBDE8F08F0023CA5C002A6B
S2140070E0D2D00133B3F5807FF8D130462A49FDF778
S2140070F075FE0320EDE75C2C25D19BF80020A2F15D
S2140071000903DBB2172B0CD828FA03F3DA070AD5E3
S21400711038462DF07BF85946024638462CF087FF55
S21400712001E05C2AF4D01BF8013C002BB7D02DB14F
S2140071301BF8023C002BB2D1202D0FD06B1C4AF856
S2140071402570DDB2ABE7093CE4B2172CEBD828FA81
S21400715004F4E30748BF0BF8019CE4E70724A2E722
S214007160E3B282AA02EB8303A3F5C2731B6821462F
S2140071700134002BF4D101AADCB257F82400013305
S21400718020B93046C9B2FEF7A9F8A2E742F82400B3
S214007190F2E700BFB0E30300E5E30300130080005E
S2140071A0C8306BE70C4B10B50128C0EB001403EB9E
S2140071B004140DD894F8E42052B903F5F0731B1BA1
S2140071C0EB2B07D9204615F07DFF012384F8E43029
S2140071D0204610BD1446FBE768130020E2E710B512
S2140071E0836804465BB143690179D86906F008FCF8
S2140071F020B9A37E022B01D00223A37610BD0D205A
S214007200FCE74030EBE72DE9F04705468EB00AAEC6
S214007210304606AF1C46894690460DF1080AFFF731
S2140072203BFC3846FFF738FC5046FFF735FCAB68AA
S214007230002B4ED02346344603F1100C2246186825
S2140072405968083303C263451446F7D13C46169B7B
S21400725003F1100C224618685968083303C26345C8
S2140072601446F7D15446179B03F1100C22461868B3
S2140072705968083303C263451446F7D1B9F1080FBD
S21400728003D019F0EF0F14D0FEE705F1400485F89F
S214007290748096E80F0084E80F0097E80F0005F169
S2140072A0500484E80F009AE80F0005F1600484E8B3
S2140072B00F002B8B9B0608D56869CDF800A03B46CF
S2140072C032464146C06911F03FF800200EB0BDE8D6
S2140072D0F0870D20FAE7403095E700F44052B2F50B
S2140072E0005F034620D148F2400220F44E5020F0C2
S2140072F03F0090421ED00CD8B0F5446F1AD005D887
S214007300C8B1B0F5046018BF01207047B0F5004062
S214007310F9E703F44C43B3F5404F0BD04CF640432B
S214007320C01A18BF0120704710F4406F14BF012028
S214007330002070470020704700F44053B3F5005F0C
S21400734004D100F44C43B3F54C4F07D0B0F5804F52
S21400735004D380F04000C0F38010704700207047D0
S21400736010B58388032B12D9006814F0D1FA80F484
S21400737080720446C2F30021FFF7AFFF48B98A1CAB
S214007380C4F38123022B06D0032B17D02BB1FF2288
S21400739012E00A1DF4E70232D2B22046FFF7CCFF15
S2140073A008B10232D2B2C4F38134022C08D0032CC6
S2140073B009D0002C18BFFF22104610BD0832EBE79C
S2140073C00232D2B2F8E70832FBE710B583880446EB
S2140073D0022B07D9006814F0A6FA18B12046BDE8BB
S2140073E01040BDE7FF2010BD38B505460C46FFF738
S2140073F0ECFFFF2817BF2B6806201B5C00201CBF75
S21400740003F00703237038BD38B505460C46FFF772
S214007410DCFFFF2817BF2B6806201B5C00201CBF64
S21400742003F01803237038BD38B505460C46FFF741
S214007430CCFFFF281FBF431C2A68DBB2D3581ABFF5
S21400744000202360062038BD38B505460C46FFF7F9
S214007450BCFFFF2800D1FEE72A68431CD9B254546B
S21400746052FA83F3220A5A70220C240E9A70DC70A9
S2140074702B7F43F001032B7738BD70B506460D46CB
S214007480FFF7A3FFFF28044609D03268105CFCF71C
S2140074908AFF22440244002053792B7070BD0620D8
S2140074A0FCE770B506460D46FFF78FFFFF2804463B
S2140074B000D1FEE73268105CFCF775FF22440244F8
S2140074C0557170BD012300F00700834013F0220FB2
S2140074D009D113F0880F08D113F0440F14BF012010
S2140074E00020C0007047042070471020704710B579
S2140074F00446FFF76AFFFF2806D02368185CFFF7EC
S214007500E1FF0230C0B210BD0220FCE708B5430719
S214007510024608D0FCF747FF12F0180F0CBF0530E4
S2140075200630C0B208BDFF20FCE770B50546FFF781
S21400753017FFFF28044611D02E68304614F0F3F9E2
S21400754060B1A9888C420BDA305DFFF7DFFFFF28B9
S21400755008D00444E4B2A142B8BFFF24204670BD60
S214007560FF24FBE70446F9E72DE9F0410746FFF75D
S214007570DCFFFF280446804644D03D68284614F0C9
S214007580C7F9830506462ED53846FFF7B0FFB988FB
S214007590A21C93B210FA82F28A4205EB04072FDC93
S2140075A02A5D02F07F0213449CB210FA83F39942DC
S2140075B026DB3A88C2F3C7127F2A01D09942E7DC5D
S2140075C02B7803F00703032B04D106F44056B6F5D8
S2140075D0005F12D15FFA84F8B8F1FF0F12D005EB06
S2140075E00800BDE8F0812B7803F00703032BF6D1E3
S2140075F000F44056B6F5005FF1D00134A4B2E9E7D6
S214007600FF24E7E70020ECE710B50446FFF7ACFFE1
S2140076102368C01AC0B210BD70B505468688FFF74D
S214007620F3FF04462846FFF762FF0444301B80B28F
S21400763070BD01F1080313F8012D8B4200F8012BF1
S214007640F9D17047F8B507680E46384614F060F969
S2140076500546384614F05EF904462846FFF73DFE18
S21400766008B10234E4B2C5F38123022B12D0032BF7
S21400767013D02846FFF760FE08B10234E4B2FF2CB0
S21400768006D0C5F38135022D09D0032D0DD04DB19E
S214007690062009E00234E4B2EBE70834FBE70125F4
S2140076A03B5B338000203572F8BD30463919FFF752
S2140076B0C0FF0225F6E713B5836C0446002B42D0C4
S2140076C06846FFF7B6FFE4696946204605F020FAEB
S2140076D080B20F2830D91E211C4AA31ADB10B3FB38
S2140076E0F1F3DBB202EB831202F51A71002211F8F5
S2140076F0220020B30132102AF9D14FF0FF3291B2A6
S2140077000F291ED8124902EB031201EB430001EBCE
S2140077108202BDF80030BDF80210B0F8020B0B4430
S214007720BDF804100B44BDF806100B440344A2F841
S214007730063B012382F8083B002002B010BD12B2BF
S214007740DDE70320F9E70D20F7E700BF6813002008
S214007750C80A002013B5836C044603B36846FFF7D7
S21400776068FFE4696946204605F0D2F983B20F2B1C
S21400777013D80C4B03F50A62A41A1E22E410B4FBBD
S214007780F2F4E4B200EB041003EB8003002083F86D
S214007790080BA3F8060B02B010BD0A20FBE70D206D
S2140077A0F9E700BFC80A002038B54FF6FE7300257B
S2140077B0044643818381C38AC58003F0FE0343F4F5
S2140077C0FE4343F00103C3820572C0F80E50C0F8B2
S2140077D0125085612C30FFF75FF904F13C00FFF78B
S2140077E05BF904F14C00FFF757F9E565A4F8605023
S2140077F004F16400BDE8384038E42DE9F04FC46970
S2140078000546A7B0206814F08EF8002800F0A08186
S214007810237FD80600F19C8120460DF10A01FFF770
S214007820F3FD002840F09481237FD90704D4204636
S21400783095F86010FFF735FEAB889A0600F1888150
S2140078409DF80A30082B40F08381EB6905F13C0275
S2140078509A60E869037FDB0708D4EC6D2146FFF7E2
S214007860F3FDEB6D9C4224BF0134EC650021282318
S214007870EC690AAE2422304603910896ADF824300F
S2140078802CF031FA206814F04EF8002800F05981E8
S21400789020460DF10B01FFF7A7FD002840F05181AF
S2140078A0204603A9FFF7C0FD002840F04A81039B4D
S2140078B0D5F80E00D5F812101ABA9DF80B7004AB66
S2140078C003C3069230468022A1688DF81C700FF024
S2140078D00FFD814650B92046FFF709FEA0F10208C9
S2140078E05FFA88FB18F0010801D0FEE7FEE70638CD
S2140078F0C0B20C28F9D82046FFF78EFE45468246D1
S21400790003466A1C002B40F09F80EDB2022D38BF64
S21400791002252046022DC5F10F0618BFF6B2FFF766
S21400792073FE021E18BF0122013DABF10203EDB249
S2140079305B1045EAC30343EA821304A932460746AE
S2140079400DF151008DF850302CF0ECFB52460F2311
S21400795018A99E427BD314AA114608A8FDF714FB6B
S21400796037B14FF002089DF851307B408DF851300A
S214007970324604A90DF161008DF860502CF0D2FB60
S21400798008AB06F14100C6F10F02002118442CF0A6
S214007990AAF910238DF8946000262046CDE9216AC6
S2140079A020972396ADF89080ADF892308DF895B07C
S2140079B0FFF72AFE874205464FD3276800EB0708E5
S2140079C0B8454BD1219B1D44209B21959D420AD151
S2140079D0BDF8903023B114AA114608A8FDF7D4FAD2
S2140079E00023ADF890302046FFF716FE239B229A20
S2140079F00344934205464BD82046FFF7B5FD0027C3
S214007A000646824600EB0508D04542D1239B1D441E
S214007A10229B23959D4212D3BDF8903023B114AA21
S214007A20114608A8FDF7B0FA9DF8942008AB02F1BD
S214007A3041000021C2F10F0218442CF054F9DDE990
S214007A4022329A4267D0FEE715461B0A59E7013BE9
S214007A5001F8012DDBB2120A7BE7FEE7BDF8903095
S214007A60102B06D114AA114608A8FDF78DFAADF81A
S214007A709060BDF890305A1C98336B44ADF8902057
S214007A8017F8012B13F8481C4A4003F8482C97E7D0
S214007A90FEE7BDF89230102B12D11CA90F200A4623
S214007AA09DF894C0604505DD11F8013D0133DBB259
S214007AB00B7073B318A908A8FDF766FAADF89270B4
S214007AC01AF8013B5EB1BDF89220511C98326A4408
S214007AD012F8282CADF892105A400AF8012CBDF87E
S214007AE09020102A08D114AA114608A80193FDF781
S214007AF04BFA019BADF89070BDF89020511C98325F
S214007B006A44ADF8901012F8481C4B4002F8483C06
S214007B107AE70138C6E72046FFF7E9FCA68825681D
S214007B20361A1CAA08A818A9FDF72EFA0DF14F035D
S214007B30A8199DF8952091450DDB237F43F010038F
S214007B402377BDF82430232B0FD908980FF0CAFBF3
S214007B5027B0BDE8F08F13F8012F09F1010993F85B
S214007B6020104A4000F8012BE3E7FEE7C26983795C
S214007B70516909B912692AB1072B01D0072383710D
S214007B80FDF73CBC032BFBD00323F8E7F8B5836C6A
S214007B9004460E46ABB190F85A3000F15407052B58
S214007BA00FD000253846FFF728FE384684F85B508D
S214007BB084F85C5084F8B550FFF7D8FF2846E66492
S214007BC0F8BD0D20FCE72DE9F74300F164070446F5
S214007BD038461E460D469046FFF748FA4CF6010317
S214007BE0F340D80700D4FEE7B4F8049019F0200F4D
S214007BF02AD0286813F097FE30B32B7FD90723D5F9
S214007C0028460DF10201FFF7FFFB00B1FEE79DF8E5
S214007C100230082B18D1284601A9FFF705FC00B151
S214007C20FEE728460DF10301FFF727FC00B1FEE74B
S214007C309DF8031094F86020019B914204D1E26DF8
S214007C40934224BF0133E3650023E371002E49D03D
S214007C5019F0040F46D1237A6A7E9A4242D901333C
S214007C6023722B7F0E2E43F002032B7735D1A37998
S214007C7094F86110062B1CBF0623A371FFF780F94A
S214007C804FF0FF338B4020EA03054FF4A0735D43AB
S214007C90A37DDA070AD5E26923689179D86905F0E9
S214007CA0AFFE02F007FB002D03DAFEE713F004FE3A
S214007CB0F7E70544606E3946184AE5661030FFF768
S214007CC08FF994F861300133DBB2052B28BF05230A
S214007CD084F8613003B0BDE8F083204603B0BDE809
S214007CE0F04343E7A379022B1CBF0223A371A97EAE
S214007CF0AB798B4206D0A37DDB0703D52368D86912
S214007D0005F07EFE246AE76C002FE3D03346424639
S214007D102946206CB8470023E364DBE71CE6030033
S214007D2070B5046894F85A3004F15405033B042BEC
S214007D3054D8DFE803F00308191503002846BDE809
S214007D407040FDF75BBB226F636D9179D86905F0D3
S214007D5057FE2846216F0E23BDE87040002232E70A
S214007D602846BDE8704001E7B4F858309B0700D5B8
S214007D70FEE7636DD86905F00FFD7F2807D094F9FC
S214007D806B307F2B01D0834201DA84F86B0002F05F
S214007D904FFAE36EC01A00280EDAD4F8C030D4F8D2
S214007DA0B8008033C4F8C03004F1B8010C4A103073
S214007DB0BDE87040FFF714B994F85A3094F96B1088
S214007DC0022B1CBF022384F85A30646FA36C2BB1BD
S214007DD0236D1BB1206C98470023236570BD00BF40
S214007DE01CE6030010B50446012034F0BFFB13F078
S214007DF063FD28B9A379012B01D00123A37110BD1F
S214007E00FEE738B504460D46543039B194F85A307A
S214007E100BB9FFF7E7FFA564002038BD13F058FD47
S214007E20F9E713B504466846FFF703FC1E210E4B20
S214007E302268D21AD210B2FBF1F2072103F5627360
S214007E40D2B203EBC2031DF80100013903F8010B9F
S214007E50F9D2064B6946D3F8E80632F05BFC00B16F
S214007E60FEE702B010BD00BF68130020C80A00205D
S214007E7008B5826C5AB10A68C0F862204A68C0F831
S214007E806620406D1C30FFF7CCFF002008BD0D209B
S214007E90FCE72DE9F04304461E2789B004ADDFF861
S214007EA0B4902846FEF7F8FD236809F50A68A3EBA8
S214007EB00803DB10B3FBF7F30026DBB209F68220DB
S214007EC04022314600EB831089F8816A2BF00BFFC5
S214007ED0236809F60630A3EB0803DB10B3FBF7F3C1
S214007EE0DBB24022314600EB83102BF0FCFE012073
S214007EF034F03CFB40B113F0DFFC00B1FEE701209C
S214007F0034F034FB00B9FEE7002620684FF6FF7118
S214007F1004F0A8FB204602A9CDE90266FFF781FF20
S214007F204FF6FE71206804F0DFFB2846FEF7B4FD2E
S214007F3000952B462A463146206810F005FA314651
S214007F40206804F0A5FD304604F028FD09B0BDE821
S214007F50F08300BFC80A002010B504461C30FFF7A7
S214007F6098FF0023C4E91333A3640B2384F844303A
S214007F704FF6FF73A4F8463004F15400BDE81040F5
S214007F8012E42DE9F04190F8E47004460D461E46D2
S214007F90C7B10D4F97F8B07497B1897EAB798B4215
S214007FA006D00A4BCB40DB0700D4FEE705F028FDE1
S214007FB0334600222946206A5430BDE8F04102E6E6
S214007FC0006AF9E7BDE8F081C80A002000F8FF075C
S214007FD02DE9F0410446EFF31186302383F3118830
S214007FE0D0F808319D681DBB04F1300034F08EFFD8
S214007FF0D4F808315D69002D36D1A04658F88C7F3C
S214008000002F4DD12774274657F8905F002D5FD17B
S214008010274657F8945F002D61D1D4F80831DF6801
S214008020002F63D186F31188BFF36F8FBDE8F08110
S21400803015F8203CA5F130007F2B4FEA93174369D3
S21400804098BF0027A3422D68CDD1D4F80811083177
S214008050FDF738FD1FB9637B01336373C3E7032F56
S21400806004BF0023A373BEE715F8203CA5F130003B
S2140080707F2B4FEA9317436998BF0027A3422D68CA
S214008080B9D1D4F808111431FDF71CFD1FB9637B74
S21400809001336373AFE7032F04BF0023A373AAE77C
S2140080A03D4655F830794046AB7C05F13001013B42
S2140080B0AB740AF099FBAB7C33B9637B3321013395
S2140080C028466373FDF7D7FCE37B013BE37397E732
S2140080D02846394650F83059FDF7F4FC96E728460E
S2140080E0394650F83059FDF7EDFC94E7384650F81D
S2140080F030794369A34293D1D4F808110C31FDF7C7
S214008100E1FC84F805518BE710B5436F044613B1C4
S214008110816F007A9847D4F8F40008B135F0D4FBA4
S214008120D4F8F80014F01EFE2046BDE810404FE7D5
S2140081302DE9F84306464FF0300800F1140973693C
S2140081400BB9BDE8F883EFF3118488F3118848462D
S214008150FDF780FC054684F31188BFF36F8F4469F2
S21400816033F05EFF022803D1D4F8F00035F024FA8D
S21400817095F824306BB100212846FDF77CFC33F0DF
S2140081804FFF0228DBD16B69D3F8F00033F01CFFF9
S214008190D5E7AB7C0133AB742B46D4F88C2043F880
S2140081A0302FC4F88C30237C092B06D90A232046AE
S2140081B084F85030FFF7A8FFE1E7676941F288309E
S2140081C07F00676134F0B6FD874294BF67616061E7
S2140081D0204614F036FED2E72DE9F8431768154618
S2140081E0A7F58E599846A9F11804002900F0EE80EC
S2140081F05668774B9E4271D1764B97F84120D3F85C
S214008200D437002A5AD0002B4BD1012387F84030B0
S21400821033F006FF022803D157F8400C35F0CCF9AE
S21400822002274FF00A0859F8186C8EB933F0F8FE9A
S214008230022800F0C6802C68A4F58E54183C04F57D
S21400824080542946D4F8D001BDE8F84314F03DBC6C
S21400825033F0E6FE022803D1D6F8F00035F0ACF98C
S21400826096F85030042B15D00BD8012B12D033F0D3
S214008270D7FE022803D1D6F8F00033F0A5FE366804
S214008280D3E7053B032BF2D8304686F85080FFF73D
S2140082903BFFECE70621304686F85070FDF747FABC
S2140082A0E5E74FF000524FF20F015180012B4FF0DF
S2140082B000530FD04CF23C325A8009E04FF0005287
S2140082C04FF20F015180002BF0D140F201231380B2
S2140082D007F0DAFF40F202221A80F9E73E4926F05C
S2140082E0FF038B4230D133F09BFE0228F6B203D157
S2140082F057F8400C35F060F9314659F8180C14F070
S21400830031FC0646002891D033F08AFE022803D1BD
S214008310D6F8F00035F050F933F082FE022805D189
S21400832004F58054D4F8980133F04EFE30464146AA
S21400833010F0D7F833F074FE02287FF47CAFD6F83E
S214008340F00033F041FE76E724498B427FF477AFA6
S21400835033F066FE0228F6B203D157F8400C35F02B
S2140083602BF9314659F8180C14F0FCFB0646002889
S2140083703FF45CAF33F054FE022803D1D6F8F00089
S21400838035F01AF933F04CFE022805D104F5805476
S214008390D4F8980133F018FE96F85030073B012BBE
S2140083A09CBF092386F8503033F03AFE022803D1EA
S2140083B0D6F8F00033F008FED6F8F80014F0D2FC39
S2140083C039E704F58054D4F89801BAE7BDE8F88395
S2140083D0EFBEADDEC80A002000BAFECA00BAEFBE85
S2140083E070B50D46EFF31186302383F311884C6980
S2140083F004F18C00FDF72EFB04F1300034F086FD0E
S214008400D4F8080129461430FDF72EFBD4F80821CD
S214008410044902F12C0014F07BFC86F31188BFF3AC
S2140084206F8F70BD318100002DE9FF476C4DC5F898
S214008430381C0AB9022905D1FCF74AFB002004B013
S214008440BDE8F087D5F8CC36D5F8C446002B57D112
S214008450D4B10026236863485B8804F12C01A3810D
S214008460A37C0133A3740AF0B0F90023C5F8C43620
S214008470D5F8343503F58053D3F8940135F024FA53
S21400848056B9D5F8CC36D3B9D5F8303523B1D5F8AA
S214008490CC360BB9FCF7AEFBD5F838050DF10F015D
S2140084A035F0FEF99DF80F30002BC7D0012395F864
S2140084B0382593404C4A1365BEE7002CC9D10027E7
S2140084C04A48C5F89076FCF75DF8036806461A79C0
S2140084D07F2A4FEA92134FF0300222D8EFF311882A
S2140084E082F31188446944BB88F31188BFF36F8F09
S2140084F03F4A1388013313800023C5F8CC36C3E700
S214008500D5F83C050DF10F0135F0CAF9D5F89036CF
S2140085101BB19DF80F30002BCFD1002CBCD001260C
S21400852098E7EFF3118882F311884469002C3CD158
S214008530022BD9D1FDF7CFF9D6E790F82490B9F100
S214008540000F05D0394680F82470FDF794FA1AE03B
S21400855094F8500014F000FB08B33046FDF7BBF962
S214008560042810D1D4F814A004F130073846C4F813
S2140085704C9034F0CBFC334651463846CDE9009952
S2140085801C4A35F05BF9D4F808319A68002AABD05B
S21400859003F58053D3F8940135F096F9A4E7637B8E
S2140085A03321013330466373CFE7032B02D0FDF748
S2140085B092F9E8E7A37B002B96D03946A773FDF720
S2140085C05AFAD4F89430002BDDD004F19400FDF76D
S2140085D041FA012201462046FDF783FAD3E700BFA1
S2140085E0C80A0020F40F002000200450F80F0020D6
S2140085F080650020E183000038B50D4635F056FC56
S21400860034F0AAFB04462D6835F050FC34F0A4FB89
S214008610031BAB42F8D938BD2DE9F74F9846062321
S21400862013704D681446A5F58052FF2A07460E467D
S214008630DDF8309000F21B810523EDB2638045F42F
S214008640805363600B7A9A1E012A53D8A0F58E5980
S21400865033F0E6FC0228A9F1180603D157F8400CBF
S21400866034F0AAFF294659F8180C14F07BFA0223B6
S2140086700546237258B933F0D3FC022840F0AC808C
S21400868006F58056D6F8980133F09EFCA4E033F049
S214008690C7FC022803D1D5F8F00034F08DFF33F084
S2140086A0BFFC022805D106F58056D6F8980133F0AF
S2140086B08BFC95F85060304614F04EFA30B10A2321
S2140086C085F850302846FFF71FFD0CE0042E0AD12F
S2140086D009230621284685F85030FDF728F810B9FA
S2140086E06B7ADB06EED433F09BFC022874D1D5F807
S2140086F0F000C9E7052B4ED1A0F58E5633F090FC5E
S2140087000228A6F1180A03D157F8400C34F054FF9B
S21400871056F8180C294614F025FA0223064623724A
S21400872040B933F07DFC022856D10AF5805ADAF8B3
S2140087309801A9E733F074FC022803D1D6F8F000BC
S21400874034F03AFF33F06CFC022805D10AF5805A63
S214008750DAF8980133F038FC96F85030012B01D047
S214008760042B11D1042386F850300523237233F0EE
S21400877057FC022803D1D6F8F00033F025FCAF4BA7
S2140087802B43C9F8003027E033F04AFC022823D1F7
S214008790D6F8F00078E7092B62D1A0F58E5A33F0B0
S2140087A03FFC0228AAF1180603D157F8400C34F013
S2140087B003FF29465AF8180C14F0D4F9074690B966
S2140087C033F02EFC022805D106F58056D6F898011F
S2140087D033F0FAFB0923237263880433C8F80030A9
S2140087E003B0BDE8F08F33F01BFC022803D1D7F8A6
S2140087F0F00034F0E1FE33F013FC022805D106F554
S2140088008056D6F8980133F0DFFB97F85030053BDA
S214008810032B23D8DFE803F007020E07082387F8A8
S2140088205030237213E00821384687F85010FBF7C3
S214008830B7FC58B10923237233F0F2FB022803D1A8
S214008840D7F8F00033F0C0FB7D4B99E7217233F088
S214008850E7FB0228C0D1D7F8F00015E70923E0E7C8
S21400886004236380002363600323A360B4E7A5F5B5
S214008870E062FF2A5FD84B880C2B03D0002363608E
S214008880032397E0D1F80890D1F80CA033F0C8FB8A
S214008890022804D16B4BD3F8980134F08DFEDFF834
S2140088A0B0B1EDB22946DBF8000014F05BF90746DC
S2140088B078B933F0B5FB022805D10BF58053D3F811
S2140088C0980133F081FB0023636008236380042350
S2140088D0CBE733F0A5FB022803D1D7F8F00034F03D
S2140088E06BFE97F85030012B0ABFC7E93FA94FF03F
S2140088F002094FF0000933F093FB022803D1D7F8A2
S214008900F00033F061FB33F08BFB022804D14D4BB3
S214008910D3F8980133F058FBB9F1000FD3D12346B2
S21400892045F4E06543F8045FB2685A60F2689A60FE
S2140089300C23638050E740F20322954271D0B5F5D0
S214008940017F21D2602D69D007D8042D2FD9212D83
S21400895037D0002363600D232CE0B5F5007F26D0CA
S21400896040F202239D42F4D1042363808B681BB33C
S214008970012B83D10123344AA360C2F8D43740F2D6
S214008980022363600823D4E7B5F5C06F21D00BD867
S21400899040F201339D420AD0B5F5A06FD9D10B7ACB
S2140089A080F83830656037E0B5F5885FD1D10023B0
S2140089B063601523A360E5E7234A6560C2F8D437F1
S2140089C0F8E765600A89638022810B8920F8283CD5
S2140089D002E7CB6843611C4B8E68D3F83C2C96426A
S2140089E017D8002500F11409294640F2E730D3F8DD
S2140089F040CC4FF47A720023E6FB0C012AF022F9F1
S214008A004B460146CDE90055104A07F1180034F0F0
S214008A1069F94FF4C063636004238AE78B68C36018
S214008A20C0E708220B7A6280003B18BF01230022B1
S214008A306560A26080F84130CEE600BF00BAFECA8C
S214008A4000BAEFBEE0750020C80A0020F9850000D5
S214008A50E06500202DE9804800F580538346D3F872
S214008A60A001CBB0C3689847002843D10BF58E53BE
S214008A70183318460493FDF7DBFE00283AD10FF0B2
S214008A804BF90446B0BB4FF484400EF0CAFF0038E2
S214008A9018BF0120B14DB24B85F8440C02206B6024
S214008AA0EC61FBF7D3FBFDF766FA0BF580564FF04B
S214008AB0FF31D6F8940133F0E1FB96F81832BBB3D9
S214008AC033F0AEFA022803D1D6F8980134F074FDDC
S214008AD0DBF8004094B933F0A3FA022803D1D6F8A5
S214008AE0980133F071FA0023049886F81832FDF7DF
S214008AF09FFE1DE0002033F05BF9FEE733F090FAAE
S214008B00022803D1D4F8F00034F056FD94F8503023
S214008B10022B00F08B8033F083FA022800F081806D
S214008B2033F07EFA022803D1D6F8980133F04CFAD7
S214008B30D6F8A00116A903699847069090B9169C26
S214008B4096F8A4312768002B7AD105213846B7F865
S214008B500520FBF755FB10B13B78142B70D0204650
S214008B60FCF7B9FE0BF5805797F8E8312BB104985F
S214008B70FDF722FA002387F8E83197F8103293B110
S214008B800323049826AA36A912F0D3FE58B9BDF8D6
S214008B90983036982BB10278D7F814321344C7F8B9
S214008BA01432FCF717FF2B7A002B00F00684FDF733
S214008BB04BFA2B7A002B00F00084D7F8A0018369CB
S214008BC098478146002840F0AE85DBF80430002B3D
S214008BD040F02D879BF84480002644460BF1400762
S214008BE0EFF31189302383F31188384609F0F4FD3A
S214008BF089F31188BFF36F8F002840F08D87EFF35D
S214008C001182302383F311889BF84430984540F254
S214008C108E8700238BF8443082F31188BFF36F8F62
S214008C2043E7D4F8F00033F0CFF979E733F0F8F9FA
S214008C30022803D1D4F8F00033F0C6F9246849E7D7
S214008C407B78B7F802A005933B799F097F2B0393A7
S214008C50A38998BF0027002B47D1BAF1000318BF9D
S214008C6001230893D6F8A8310A339A4528BFA38172
S214008C7033F0D6F9022803D1D6F8980134F09CFCDC
S214008C800599DBF8000013F06DFF044678B333F067
S214008C90C7F9022803D1D4F8F00034F08DFC33F085
S214008CA0BFF9022803D1D6F8980133F08DF994F86D
S214008CB05030042B04D11FB9394620460FF011FC62
S214008CC094F85060304613F047FF18B1082E38D19C
S214008CD0022F20D00523009300232146059AD4F8BE
S214008CE00801FCF735FF169835E00023B9E733F0A6
S214008CF097F9022803D1D6F8980133F065F9022FC8
S214008D0007D005230093002358461946059AFCF71A
S214008D101FFF169824E7169B5C611B7FB3B9039B65
S214008D2003F00703EFF311820792302282F31188D3
S214008D30D4F88C20B2B9079B83F31188BFF36F8FEA
S214008D4004E0169B17F0FD0F5C61E6D0089B1698B2
S214008D50002B00F0DA80FCF7BEFDA6E1C80A002072
S214008D607160000052F8302CE17B1279C2F30212D7
S214008D70501C114400F0070001F00701884279D822
S214008D808342D8D38B42D6D80026934298BF083366
S214008D909B1ADBB22674099334F024F8D4E9063221
S214008DA0C01A994B61EB02011A7E002A67D0C4E90B
S214008DB00801400840EAC1704908C4E90A011E7665
S214008DC00520D4E90A8633F0B5FF804576F1000623
S214008DD03EBF0023A062E362D4E90A364FEA830866
S214008DE0B60046EA937641F28830D4E9082318EBB9
S214008DF0020846EB030633F09DFF4FF0000940459E
S214008E0079EB060307D3052033F094FF404579EB52
S214008E10060938BF4046606104F1300034F076F849
S214008E204FF0010804F18C069DF81830099A934219
S214008E3057D3079B83F31188BFF36F8F04F1900617
S214008E40D4F89030002B81D0637B002B3FF47EAFAC
S214008E50EFF31188302383F311883046FCF7FAFDD0
S214008E60014688F31188BFF36F8F00222046FCF777
S214008E7038FEE5E78B4287D9834285D25BE7D4E9A3
S214008E800838834278EB0102D4E90A2E4FEA9202B0
S214008E9042EA8E72B4BFC61A1E1A4FEA9E0E12EB34
S214008EA0020C4EEB0E09B6081CEB020C4EEB090941
S214008EB01CEB060649F10002C4E90A620726DB0835
S214008EC043EA4873A3FB06234FEAD80806FB083399
S214008ED0C00840EA4170121843EBD103C4E90823E6
S214008EE06EE73046FCF7B6FD817C59B9FCF7C3FD4A
S214008EF0637B01336373E37B013BE373069B0133C0
S214008F00069391E780F82480F2E7BAF1000F0CD0C0
S214008F104368002B3FF41FAF027F42B9BAF1020F3D
S214008F202DD80622E37A0092D7E6027F7AB1E37A5A
S214008F300092D4F808012146059AFCF709FE0023A2
S214008F4016980377FCF7C7FCBAF1000FE6D14FF08E
S214008F500009169E002F40F01781ADF878902697EE
S214008F603697627AD4F80801D207E37A20D506212C
S214008F70227A00912146FCF7EBFD3046EBE6169B85
S214008F80AAF1020A58681FFA8AF910FA8AFA9AF8B9
S214008F90012010F80930494643EA0222FBF730F96F
S214008FA00028D6D1002F7FF49EAE0122E37ABAE7DE
S214008FB0039AC2F3021199420CD05A1E8A4205D077
S214008FC00BB9072902D00221227AD2E7204613F0F5
S214008FD0A1FDD2E7039B1B070FD4314620461EAAED
S214008FE0FCF735FE002800F083800421E37A227A1D
S214008FF00091D4F808012146BDE7227A32B1062353
S21400900000930B46B6E700BF806500203146204639
S2140090101EAAFCF71CFE0028E7D1BDF87820032A1C
S21400902063D9D6F804A0BAF8023004339A425CD169
S214009030D4F8082126A9104602F58E590392FBF7AC
S214009040ABFA09F11809804698B926990F4647F8F1
S2140090500C9B9AF801304B739AF80030022B2ED0F6
S214009060032B33D0039A002B39D10B73CB81042307
S2140090703693706848B1D4F80891FCF720FC09F5DF
S2140090808059D9F8A00113F041FD002330467360E3
S214009090FCF721FCE37A2046013303F00703E37272
S2140090A013F038FDB8F1000F58D032F0B9FF02289F
S2140090B07FF458ADD4F8F00032F086FF52E53A4619
S2140090C05146484636ABFDF729F9D2E70431009100
S2140090D03A465146484636ABFFF79EFAC9E702F5D0
S2140090E08053D3F8D00113F0F0FC4FF02108C0E70E
S2140090F03146BDF87830D4F8080104F18402FCF754
S21400910043FCB8B10321E37A227A0091D4F808012F
S2140091102146FCF71DFD3046FCF7DDFB2B78052BC2
S214009120C3D1D4F8FC30013BC4F8FC30EB69013BFA
S214009130EB61BAE7D4F8F40008B134F0C5FBE36D90
S21400914043B9E37A2046013303F00703E37213F0D2
S214009150E1FCAAE7216E207A9847F2E7DDF89880CE
S214009160112339462046BDF8D820CDF80080FDF7FB
S2140091705FFA002899D0A66D002E96D0332342467B
S2140091803946207AB04790E7022F38D1039BC3F3C5
S2140091900113012B7FF4F1AE73681B78013B042B9F
S2140091A015D801A252F823F0BD9100007B8F000075
S2140091B07B8F0000F5910000EB910000D4F88C3016
S2140091C0002B3FF4DAAE204613F03BFED5E63046E1
S2140091D0FCF781FB0C2604F1300033F097FE2046A6
S2140091E084F85060FEF790FF5FE73046FCF773FBAD
S2140091F00A26F0E73046FCF76EFB0B26EBE700236B
S2140092001E932693637A9A077FF5B7AE039A12F0F9
S214009210370220D15F073FF5B0AEB389BBB14B46EE
S2140092203146D4F8080104F18802FCF7ADFB0028AB
S2140092307FF4A3AEE36E13B1216F207A9847D4F87B
S214009240F40000283FF431AF34F03EFB2DE7304603
S214009250FCF741FBEEE7042A40F09D80237A002BC2
S2140092607FF48BAEB9F1030FD4F80821D6F804804A
S2140092707FF683AEB8F80230043399457FF47DAEAE
S21400928002F58E5A104626A90AF1180A0392FBF731
S21400929083F900287FF471AE269FB94649F80CABD7
S2140092A098F801307B7398F80030022B3AD0032BE5
S2140092B04DD0012B039A66D13B730423FB81082310
S2140092C01E93D5F8D4373BB1012B27D136A8FCF72F
S2140092D081F99DF8D8300BB300233B619A4B7B6035
S2140092E0DDF8788005234946204600971FFA88F265
S2140092F0FDF79EF982463046FCF7EDFAB8F1000F0E
S2140093003FF4D3AEBAF1000F3FF4CFAE666E002E38
S2140093103FF4CBAE33233A46494632E701233B615E
S2140093200023DCE7D8F80430202B09D05A1E032A85
S21400933006D923F01002402A02D0B3F5007F19D1D7
S2140093404A46414650461EABFCF7E8FFC8E7D8F849
S2140093500430A3F20222012A03D9212B01D0602B6C
S21400936008D13B1D00934A46414650461EABFFF7C8
S21400937053F9B5E70D230020C7E904030823FB8152
S2140093800C231E93ACE702F580533946D3F8D00180
S21400939013F09BFBF1E5312A7FF4EFAD3046FCF786
S2140093A09AFA227A002A7FF480AE62810923114657
S2140093B020460092FDF73CF977E6644EB378002B22
S2140093C03FF4FBAB012362480DF12E020CA912F00C
S2140093D0B0FA002840F094810C9C63885A1E042A38
S2140093E02BD80622DFF87C81218802FB0382B2F8A4
S2140093F07C21914221D1023B032B05D8DFE813F0F4
S2140094002400350059006B01042285F8452C002203
S21400941085F8462C012285F8472C6FF07F022379C9
S21400942085F8482C95F8442C62B9012B18BF2420E7
S214009430C5F8490C4748FDF7E3F90C98FCF7CAFA5B
S214009440FFF7BBBB1220F3E7042385F8453C002357
S21400945085F8463C022385F8473C6FF07F0385F885
S214009460483C2423C5F8493CE4E73B4A231D04F165
S214009470240153F8040B8B4242F8040BF9D10FF089
S21400948091FE36498146F269A1F160002AF04AFE53
S21400949006226388C5F8499C02FB03826FEA4343B1
S2140094A06FEA5343B2F87E21A5F8473CA5F8452C51
S2140094B0C0E795F8443C002B00F0FF8000211C22FA
S2140094C01FA81E912AF00FFC2B78261D052B02D113
S2140094D00320FAF7BBFE334626AE03F1200C3246D5
S2140094E018685968083303C263451646F7D11C4E00
S2140094F0402130460DF042FE98B933462EAE03F1B9
S214009500200C324618685968083303C2634516466D
S214009510F7D116AE3246402136AB26A80FF0FAFD3C
S21400952010B34FF00109C5F8499C0622638802FB78
S21400953003886FEA43436FEA5343B8F87E21A5F8E1
S214009540473CA5F8452C75E7EFBEADDE80650020EC
S214009550901200200D1700205517002075170020C8
S2140095601517002010E60300AE4B96E8030043F8FC
S214009570040B23F8021B1A461898090C02F8011B64
S214009580C3F80100BDF864109DF8663091809371B1
S21400959036AE04F1240304F1440C324618685968C8
S2140095A0083303C263451646F7D19F4B3EAE03F120
S2140095B0200C324618685968083303C263451646BD
S2140095C0F7D1002301224FF4844010A90EF0F6F9DB
S2140095D0A0BB109E7368D6E9081A5FEA132916D155
S2140095E0338803F4E042B2F5805F14D0B2F5005F32
S2140095F011D044F2010223F4405090420BD003F401
S2140096004F43B3F5824F06D0B3F5844F03D03046B0
S2140096100DF02AFE12E0BAF1100FF8D8524646A80E
S2140096202AF080FD46AB0021CAF1100203EB0A00C7
S2140096302AF059FB30460DF017FE20B1502136A80F
S2140096400DF0C6F86DE7502110AB1EAA36A80FF035
S21400965061FD0646502136A80DF0BAF816B1202155
S2140096601EA8EDE72B78032B03D1D5F8FC060EF0E9
S2140096704CFA10A8FCF7A6FA6C4B0DA813934FF4FF
S21400968040730D93FCF7A6FA0D9B694912930023CD
S2140096902022CDE9101315931EA9664B10A80FF0D3
S2140096A08DFB064620211EA80DF092F8002E7FF4B2
S2140096B038AF0420FAF7CAFD35E7112240215E488C
S2140096C085F8492C85F84A3C85F84B3C85F84C3C97
S2140096D00DF07EF829E74FF0AA334FF0AA32CDE915
S2140096E00E23042385F8453C002385F8463C0523D5
S2140096F085F8473C6FF07F0385F8483C0823B1E6C1
S2140097001B280CD195F8CD3C002B3FF456AA4B48AD
S214009710FDF776F8002385F8CD3CFFF74EBAFCF748
S21400972093FCFFF74ABADBF80C309BB9DBF808303D
S214009730002B3FF44AAAEFF31186302383F31188F7
S2140097400BF10800FCF786F9044686F31188BFF390
S2140097506F8F14E02B7803F0FB03012BE6D1EFF3B9
S2140097601186302383F311880BF10C00FCF772F995
S214009770044686F31188BFF36F8F0028D6D0237C6B
S2140097804FEA931A7F2BA36898BF4FF0000ACBB915
S214009790D7F8C00113F0A2F92060A8B9EFF3118240
S2140097A0302383F31188A37C0133A374DBF80830DD
S2140097B044F8303FCBF8084082F31188BFF36F8F30
S2140097C0FFF703BA4FF00009A6890EB10236B6B20B
S2140097D0BAF1000F17D132F023FC022804D16369D6
S2140097E0D3F8F00033F0E8FE6169237CCA7A23F0F0
S2140097F007031343237432F013FC022803D1D1F875
S214009800F00032F0E1FB217C63697F290393A28993
S214009810A36847D8002A45D093B14FF00008083611
S214009820B6B243E0D40A00203517002000024805EF
S21400983000240001C41100201517002096170020F0
S21400984032F0EEFB022804D1039BD3F8F00033F08D
S214009850B3FE039B93F8048132F0E2FB022804D1A6
S214009860039BD3F8F00032F0AFFB2168B8F1000F8D
S21400987018D02B7803F0FB03012BD0D0584613F0FA
S21400988026F900232360EFF31182302383F3118837
S214009890A37C0133A374DBF80C3044F8303FCBF8DC
S2140098A00C4089E7A368002BB7D19846142123689B
S2140098B0627C207C9E70360A197018715A701846A1
