S01A00006275696C642F64656275672F6E63702D7370692E733337AB
S21400400008100020D51501001D9802002198020016
S21400401069B70000259802002D98020069B70000D5
S21400402069B7000069B7000069B7000069B700000B
S214004030319802004836030069B7000069B70000EF
S21400404069B7000069B7000069B70000D90201002F
S21400405069B7000069B7000069B7000069B70000DB
S21400406069B7000069B70000A57400000998000051
S2140040709997000069B7000069B7000069B70000AB
S21400408069B7000069B7000069B7000069B70000AB
S21400409069B7000001B8000069B7000069B7000002
S2140040A069B70000E1B70000C1B7000069B70000BB
S2140040B069B7000069B7000069B70000F5ED0200B7
S2140040C0B1120300AD1203003DE50200C712030063
S2140040D0B5120300B5ED0200B912030051D9020073
S2140040E035EE020069B7000069B700001DB7000092
S2140040F069B7000069B7000069B7000069B700003B
S21400410069B7000069B7000069B7000069B700002A
S21400411069B7000069B7000069B7000069B700001A
S21400412069B7000069B7000069B7000069B700000A
S20800413069B7000066
S214004134F0B5114A114C124E00F00105E3695F0711
S21400414413D40DB9334213D103EA00078F4207D1C3
S2140041540B4A1A40002A0CBF00206FF00100F0BD85
S214004164013AEBD16FF00200F9E74FF0FF30F6E7C3
S2140041746FF00100F3E700BF80969800000003503C
S214004184020001002DE9F84F264D1646EB69012280
S21400419403F4803841F671330746EB63224BDFF8AD
S2140041A49090DA600EB9304629E007F5005404EA28
S2140041B409046F61E41BEB69B44228BF34465B070D
S2140041C42DD48B465BF8043B01EB040AAB61D34564
S2140041D40ED10423002121202B61FFF7A9FF70B91B
S2140041E42120FFF7A5FF50B959462744361BD9E7C7
S2140041F408210846FFF79CFF68B104232B610122BF
S2140042040A4BDA60B8F1000F03D00022A3F500537E
S214004214DA63BDE8F88F5BF8043BAB61D7E74FF091
S214004224FF30ECE70000035000100350002003505A
S20800423400E0FFFFA3
S214004238D0F8A4309A695206FCD50020D963704796
S214004248D0F8A4309A69120643BF5B6A00200B7048
S2140042581B2070470122D0F8A43019B103F580530B
S214004268DA64704703F50053DA649A6470472DE9F8
S214004278F74F002800F0E98076490B689842C0F0AE
S214004288E6804A681344984280F0E180D1E9054EFA
S214004298EFF3118B302383F3118810F8086C30F88D
S2140042A806CCF307A0F1080502D5BCF1000F07D12C
S2140042B88BF31188BFF36F8F012003B0BDE8F08F32
S2140042C88B68D1F81090A3EBCC0330F8048C0093DD
S2140042D88B6009F101030CF101020B61B8F1000FC4
S2140042E83AD0A5EBC803DF88B3F802A001971F7879
S2140042F806F00206FF0724D426BB019EA6EB0A0694
S214004308012E29D1009E0CF10202A6F1080752449C
S214004318C1F810908F6030F8028CB8F1000F1DD1EC
S21400432810F8085C20F8068C68F3000500F8085CAE
S214004338013A5A801A7868F300021A700022DA8066
S2140043483FE04EB110F8086C42446FF3410600F89F
S214004358086C00269E80DEE72B46DCE705EBC809DE
S214004368D1E900673744B9450ED310F8085C013A1E
S2140043786FF3000500F8085C002520F8065C5A80F4
S2140043881A7865F30002D8E715F838504E4615F047
S214004398010530D010F8085C013A6FF3000500F804
S2140043A8085C002592B220F8065C5A801A7865F3F5
S2140043B800021A70C3F107023244C2F3CF02DA8051
S2140043C8B280002C3FD09C423DD86288002A08BFA5
S2140043D81C46BEF1000F06D09E4504D3BEF8022048
S2140043E8002A18BF7346C1E905438BF31188BFF34B
S2140043F86F8F002061E7A8EB0C08B8F1010FC9D150
S214004408B9F80270A9F802501744B9F80620C2B1E4
S21400441809EBC20600250A69013A0A618A68083A61
S2140044288A6010F8082C20F8065C6FF3000200F883
S214004438082C1A785F8065F300021A70002EB9D12E
S2140044487CE71646E6E71C46C3E7222035E7002346
S2140044585B69FFDE082900209A4238BF88547047F7
S214004468704710B1D1E90031184770472DE9F84F69
S2140044789846DDE90B490D9B15469A0706460F46F2
S21400448823D02A460A9B03EB040A1444A24220D1EE
S2140044980D9B9B0705D5A2EB050AD14505EB0A043B
S2140044A820D82046BDE8F88F434639462020B04736
S2140044B80AF1010ACA450AEB0B02F5D3A9EB040276
S2140044C84C4588BF00222A44DCE7A246A5EB040B2D
S2140044D8F0E702F1010B434639461AF8010DB047DA
S2140044E85A46D3E74346224639462020B0470AF1C3
S2140044F8010AD2E72DE9F0479E46DDE90D3CDDE9E5
S2140045080874DDE90B651CF0020F9DF828801FD1A2
S2140045180CF001094BB1B9F1000F06D0B8F1000F45
S21400452802D11CF00C0F00D0013B4FF0300A02E01D
S21400453807F804A00134A54201D9202CF8D1B9F116
S214004548000F05D04FF03009A34201D9202C1BD10B
S2140045581CF0100F15D01CF4806F32D1C4B1AC42D9
S21400456801D09C422DD1651E12D0102E36D11CF0DB
S214004578200FA4F1020456D178263E5530266C1C2E
S2140045887E55202C36D00DE007F804900134DBE782
S214004598102E10D11CF0200F26D178243C70302421
S2140045A87C700224B8F1000F31D02D253D5501341A
S2140045B821E06224F2E7022EFBD030243C7001246E
S2140045C8F0E7102E12D11CF0200F2AD1202C11D083
S2140045D87826651C3E55202D0CD0CFE7022ECDD16F
S2140045E862247C550135F6E75824D7E7022E0CD10D
S2140045F8202C08D12024CDE90A3CCDE9087473465E
S214004608BDE8F04732E72546EAE72546E3E71CF02B
S214004618040F01D02B25C9E71CF0080FEBD0202586
S214004628C4E7202CE6D05826651CD3E72DE9F043CE
S21400463891B0189E1A9F1D9C002E38D124F0100C9D
S21400464814F4806421D11CF0200F14BF4FF0410EE3
S2140046584FF0610E00260DF12008AEF10A0EB4FBED
S214004668F7F907FB19495FFA89F5B9F1090F94BFFD
S21400467830357544EDB2BC4208F8015B06F1010618
S214004688B4FBF7F501D3202E14D11C9CCDF818C026
S21400469805941B9CCDE903749DF86440CDE901643C
S2140046A808AC0094FFF726FF11B0BDE8F083A446D7
S2140046B83446C8E72C46D2E72DE9F04F95B0CDE949
S2140046C80A23DDE91E65DDE9228B56EA0502CDE9F7
S2140046D80801269B39D15A0523F010093AD419F057
S2140046E8200F14BF4123612300240DF1300AA3F1E3
S2140046F80A07294642465B4630462BF0A9FAD2B24C
S214004708092A94BF3032D2194645D2B275EB0B054A
S21400471804F101040AF8012B01D3202C17D1259B9C
S214004728CDF818900593249BDDE90801CDE90383AD
S2140047389DF88030CDE901430CAB0093DDE90A23F0
S214004748FFF7D8FE15B0BDE8F08F9946C7E70646CE
S2140047580D46CEE70024E2E72DE9F04F93B0CDE909
S2140047680A32DDE91C530E9353EC102BCDE90801F1
S214004778104619468DED060B1E9E2CF01DF880B1CE
S214004788DDE906014FF0FF32C54B2CF03DF840B985
S214004798DDE906014FF0FF326FF480132CF016F8AF
S2140047A868B1DDE908019DED060B0E9B1E96CDE966
S2140047B81C53DDE90A3213B0BDE8F04F85E100224C
S2140047C8DDE9060100232CF001F8002800F033810B
S2140047D8DDE906A303F1004BCBF30A5016F4806319
S2140047E8A0F2FF3008BF06250F932BF013FD9CA3FD
S2140047F8D3E900232BF078FD9BA3D3E900232BF005
S214004808BDFBCBF31304894644F07F518046002253
S214004818A44B504641F440112BF0AEFB94A3D3E9C9
S21400482800232BF061FD02460B46404649462BF016
S214004838A5FB2BF0F3FF04462BF0ECFC8EA3D3E984
S2140048480023804689462BF04FFD0022964B2BF01E
S21400485895FB2BF0E3FF8AA3D3E9002307464946D6
S21400486840462BF041FD8046384689462BF0D2FC60
S21400487885A3D3E900232BF037FD02460B464046B6
S21400488849462BF079FB02460B46CDE90C232BF064
S2140048982BFDDDE90C2380468946104619462BF089
S2140048A86DFB0022CDE91001804B404649462BF0AF
S2140048B845FE00227E4B2BF061FB02460B46404627
S2140048C849462BF03BFE00227A4B2BF057FB02465C
S2140048D80B46404649462BF031FEDDE90C23804660
S2140048E8894600204FF080412BF046FB02460B46D7
S2140048F8404649462BF042FB02460B46DDE91001CE
S2140049082BF01CFE07F2FF3700226B4B2BF036FB12
S21400491800223B052BF0E8FC52465B46804689465B
S2140049282BF072FF002840F08980CDE90C8904F14D
S2140049386303C72B34BF0427052731051BD554A3AB
S214004948D3E90023504659462BF054FF00287FD061
S21400495851A3D3E90023504659462BF037FF0028C9
S21400496876D00027A542C6BF2C1B04F1FF350025CC
S2140049783C4646F480660E9B9F422CBF4FF00008CC
S214004988A3EB070816F0020903D0002F18BF4FF054
S21400499800083CB1DDE90C23504659462BF0CEFD05
S2140049A882468B46DDE90601002200232BF00EFF27
S2140049B810B10BF100439B46DDE9080126F40063BD
S2140049C8CDE90183DDE90A324BEC10AB009500F027
S2140049D87CF802465FB3DDE9091316F0200F00F1F4
S2140049E80105089E0CBF65204520B047DDE9080193
S2140049F80523002205930A23002CCDE9023207F18D
S214004A08FF374FEAD473B8BF64422A460193049727
S214004A180A9B0094FFF70AFE0246B9F1000F06D07B
S214004A280B9BC41A0B9B1A190E9BA34246D810461A
S214004A3813B0BDE8F08FDDE906ABCDE600224046B0
S214004A4849461B4B2BF07AFD013CCDE90C016EE77D
S214004A58002D90D00F9B002B8DD0013D8BE700BF1B
S214004A68FB799F501344D33FB3C8608B288AC63F50
S214004A7861436F63A787D23F71A379094F930A40B2
S214004A881655B5BBB16B0240EF39FAFE422EE63F2B
S214004A982D431CEBE2361A3F0000000080842E41AE
S214004AA8FFFFEF7F0000F83F0000E03F00002C40CB
S214004AB800002440000018400000F03F2020DDE9F8
S214004AC80913089DA8470134ACE72DE9F04F5BECC5
S214004AD810AB97B0CDE90501DDE92057CDE90723EE
S214004AE8504652465B465946229E2BF065FE70B9E4
S214004AF80323CDE902760193AF4B0093DDE9050168
S214004B08DDE90723FFF7B2FC17B0BDE8F08F4FF0DA
S214004B18FF326FF48013504659462BF057FE28B1E3
S214004B280423CDE902760193A44BE6E74FF0FF3263
S214004B3850465946A24B2BF067FE68B1A14A06F0CC
S214004B480403002B08BF03229F4B1CBF13460422F6
S214004B58CDE902760192D0E7504693A3D3E9002325
S214004B6859462BF051FE38B991A3D3E90023504695
S214004B7859462BF02BFE60B1DDE90723DDE9050178
S214004B884BEC10ABCDE92176209517B0BDE8F04F79
S214004B98E2E500220023504659462BF017FE00286F
S214004BA800F09A805B465246002000212BF0E4F97C
S214004BB8012382468B46099316F4806400F08E80A3
S214004BC8092D40F28E80002430210EABA5F1090293
S214004BD80134202C03F8011BA5EB040901D09442EC
S214004BE8F6D1594650462BF019FE784B054603EB8E
S214004BF8C90393ED027B8DED0A7B2BF00BFB024677
S214004C080B46504659462BF0B7F9DDE90A232BF038
S214004C186BFB02460B46CDE90C232BF027FE80469D
S214004C282BF0E8FA02460B46DDE90C012BF0A4F956
S214004C3802460B46CDE90C230022654B2BF0E4FD1B
S214004C48002851D008F1010840462BF0D3FA024656
S214004C580B46DDE90A012BF0C3FD10B14FF0000842
S214004C680135B9F1000F50D128462BF0D3FA024689
S214004C780B46504659462BF07FF90022544B804687
S214004C8889462BF0A3FD30B1002240464946504BDA
S214004C982BF0BAFD10B1E80700D501350A210EAB96
S214004CA81A19202C0AD095FBF1F001FB1055303567
S214004CB802F8015B013405460028F2D106F003022B
S214004CC8012A57D1002F55D0099A12B916F00C0FA1
S214004CD800D0013F302245E009906DE74FF0060905
S214004CE87FE7A94600247CE70022DDE90C01384B63
S214004CF82BF06CFD0028B4D1B8F1000F02D018F0E4
S214004D08010FAED008F10108ABE70A210EAB234429
S214004D18202C0ED0B8FBF1F001FB1082B8F1090F79
S214004D2802F1300209F1FF3904F1010403F8012BFE
S214004D3811D83021A1440EAA202CAFD0A14504F1E9
S214004D4801030AD11C4609F158030DEB03092E236B
S214004D5809F8203CA2E78046DAE7A1541C46EBE7B0
S214004D681A550134A74205D9202CF9D1CDE9027687
S214004D780194C2E6202CF9D0099A3AB12D2104F103
S214004D8858026A4402F8201C0134EFE7710704D57C
S214004D9804F158022B216A44F4E73207E6D504F1F9
S214004DA8580220216A44EDE70000000065CDCD4199
S214004DB80000000065CDCDC1C9360300CD3603001E
S214004DC8FFFFEF7FC0360300C5360300E040030050
S214004DD80000E03F037810B563B94278042A09D189
S214004DE809490A4A898F1478522904D104814360F4
S214004DF80123037010BD0189A14201D92123F6E7DA
S214004E0843601170F4E700BF082900202042002004
S214004E1810B50446D0F8A42093695906FCD500239B
S214004E2894F8AA101A4694F8A9000BF081FF0023FC
S214004E3894F8AC101A4694F8AB000BF079FF94F887
S214004E48B130DA0707D5002394F8AE101A4694F85E
S214004E58AD000BF06DFF94F8B1309B0707D5002323
S214004E6894F8B0101A4694F8AF000BF061FF0122D0
S214004E78D4F8A43003F5005103F58050CA644260A4
S214004E880A205861002058614A6010BD38B502787B
S214004E984C4D0446AB8F9AB942604278072A1FD118
S214004EA8562B494A04D11378C3F16303237205E0ED
S214004EB8037AA3F162014B424B411370012323701E
S214004EC82178AB8F00293BD101222270627861607D
S214004ED8002A36D1562B30D1B5F86C3023722FE025
S214004EE8042A67D1562B384B01D15B78DEE7027A65
S214004EF85A70E3E7227A1A70E0E7022A02D1562BA4
S214004F08324B5BE0092ADBD1562B02D195F84830A4
S214004F18CCE7237A002B14BF0123002385F84830FA
S214004F28CCD0294B5B88002BC8D04FF47A7105F19A
S214004F384C0059432DF008FBC0E7237AA5F86C30DF
S214004F4838BD052A0DD1562B04D195F86E3043F09E
S214004F585003C3E7237A03F00F03237285F86E30F5
S214004F68EEE7062A0DD1562B04D195F86F3043F09C
S214004F786003B3E7237A03F00F03237285F86F30D4
S214004F88DEE7012A217006D0082AD9D1562B0DD182
S214004F9895F8703003E0562B0B4B02D11B79237221
S214004FA801E0227A1A7101232370C9E7237A85F86B
S214004FB87030F8E7032AA0D1562B054B9AD11B78F8
S214004FC874E700BF082900208043002029420020FB
S214004FD81C42002008B505480FF000FFBDE8084051
S214004FE81022FF2102482BF061BC00BF8843002036
S214004FF87C29002038B50F4D044695F88630B5F85C
S2140050088400F32B11D10C4B1B78032B0DD10122F6
S21400501802210A4B21F0D4F810B10023A5F88430F9
S2140050282046BDE838400FF0D9BE01220021034BC8
S214005038F0E700BF08290020DD150020AF53000068
S21400504807B501228DF807000DF1070100200CF0C6
S21400505887FB03B05DF804FB00B1F1E7704710B5B5
S214005068084C20462BF0F2FC20B994E80700064BC3
S21400507883E80700BDE8104001214FF0FF302BF011
S214005088E9BC00BF384103009029002008B5044851
S2140050980EF01DFFBDE8084002480EF018BF00BF1E
S2140050A86A1B00208C2900202DE9F047DFF868905D
S2140050B80546B9F800000F46164698462EF00DF934
S2140050C84FF0000A0446BCB1D5B15FFA8AF08045B5
S2140050D80AF1010A19D120462DF072F9411E89B24B
S2140050E820460FF0E7FA0FB1C30705D5FF2E04D008
S2140050F8C0F34100864200D000242046BDE8F08771
S214005108294620460FF0D6FAE1E72146B9F800000E
S2140051182EF0E8F80446D6E79C1300202DE9F34164
S21400512806460F4615460AB90DF107050121304611
S2140051382DF062F920B1304601212DF05DF90646C2
S2140051480021304629700FF066FC10F0400F2B78CF
S21400515802D1B0F5804F0CD2042F14D10333D9B244
S214005168297010F4406F00F0F28030460FF053FCC0
S21400517817E00124991CC9B2012F297005D13046C1
S2140051880FF098FA0DE00024F4E7D91CC9B2022FF4
S214005198297000F44062E4D032B9032F12D14FF0E0
S2140051A8FF3002B0BDE8F081591DC9B2032F29703F
S2140051B803D1B2F5006FD8D0F1E7B2F5006F05D18C
S2140051C807332B70042F06D12978CEE7B2F5406F47
S2140051D8F8D10D33F5E714B12B7802332B70052F71
S2140051E800F4404003D1B0F5004FD8D1ECE7B0F555
S2140051F8004F2B7810D102332B700D2F2C7810D03F
S214005208304629780FF056FA030611D4062F804642
S21400521815D02978013119E0B0F5404FEDD10833A3
S214005228EAE730462DF0CCF88442E9DB0020B8E700
S214005238304629780FF0EFFB062F804601D140460E
S214005248AFE710F0800F2978E4D00231C9B20D2FED
S214005258297022D130462DF0B3F82B788342E5D258
S21400526808F03C020C2AE1D140F2037218EA020F59
S2140052782FD104332B7008F4E063B3F5007F08BF22
S2140052882B7808F4805804BF01332B70092F2BD1D4
S214005298B8F1000F83D0297807E040F20373072F90
S2140052A808EA030307D1002BC0D1304602B0BDE898
S2140052B8F0410FF0C0BB13B92B7804332B70082FBE
S2140052C8D9D108F4E060B0F5007F7FF468AF29789C
S2140052D855E708F4E062B2F5007F08F4805804BF8A
S2140052E801332B701FFA88F8B8F1000F02D02B781C
S2140052F804332B700A2FEAD00D2F0DD130462DF02F
S2140053085FF82C78A04291D90134E4B22C70B8F139
S214005318000F13D1012044E72B780B2F03F101036C
S2140053282B703FF43CAFB8F1000F3FF438AF30466F
S2140053382DF046F8011FC9B22970B6E730462DF0A1
S2140053483FF803348442ACBF0020012029E7FF233E
S2140053582B7024E738B5037A05460C463BB90A7A1B
S214005368EAB900680B68C31A5842584138BD022B80
S21400537815D10B7A022B12D108222CF0C9F870B975
S2140053886B7A607A83420CD0013BDBB2FD2B08D8DF
S2140053980138C0B2FD2894BF00200120E6E70020AF
S2140053A8E4E70120E2E713B50024094B2146A3F8F9
S2140053B88440C7230DF10200ADF8003020F082FCCF
S2140053C8072168468DF8064022F0E2FC02B010BDC0
S2140053D8082900200B46002170B5064614460846E4
S2140053E8FF22FFF761FE054680B12CF0E9FF411E5B
S2140053F8C9B228460FF04CF92EB1238803F00703EC
S2140054080370002070BD03782380FAE73620F9E79A
S214005418302337B5007D0DF10701434303F1A04360
S21400542803F58023DD6E1C6F2DF008FE9DF807003F
S21400543840B9054B9D4203D184F00204C4F34000F2
S21400544803B030BD0120FBE7B81B00203021037DE8
S21400545802464B4303F1A04303F58023D86E074961
S2140054681B6F884208D113F0020006D0106A136D2D
S2140054781B1A58425841704700207047B81B002036
S21400548810B50446FFF7C4FF38B1236DD4E91202FD
S2140054980244934218BF184610BD3022237D53435A
S2140054A803F1A04303F58023DB6EEFE72DE9F04F09
S2140054B8044685B0007D04F1380809F0CDFC1022BA
S2140054C8002140462BF0F2F94FF030094FF44473B0
S2140054D8207D334E334D638709FB0063C4E90F55BF
S2140054E8DB6EAB4204D105B0BDE8F04F09F0D6BC80
S2140054F80DF10B012DF0A2FD9DF80B50002D47D1A4
S2140055082046FFF7BDFF074603A9207D2DF06CFD5A
S214005518039B2946013B1FFA83FB04F118031D462B
S21400552810221846D4F810A02BF0C0F9A1691E4A1C
S214005538CBF30A031B010A4043F040731343C4E944
S214005548063A237D276209FB0366336F94F8242006
S2140055585B0863F3410284F82420326F94F8243001
S21400556825F0030562F3000384F82430336F626A7B
S2140055789B0863F39F0245F0020562626564009427
S214005588207D42462146094B24F0EEF8207DAAE706
S21400559894F844306FF3410384F84430EFE700BFD3
S2140055A800000450B81B00200F80FFFCB95500000F
S2140055B892F8543037B5144633B1936D0BB1D06DAD
S2140055C89847002384F8543094F89A301BB3204642
S2140055D8FFF71EFFF8B1236E132120465B68984735
S2140055E81025236E20461B680DF10701984778B9E9
S2140055F89DF8073003F0FD02112A05D1A3F1110228
S2140056085342534184F8A030013D15F0FF05E8D118
S2140056182046FFF74BFF002084F8540003B030BD47
S214005628831E012B2DE9F0410C463CD801290ED8E3
S2140056382D4B04221B6905210020C3F340130BF0F1
S21400564877FB34B1294BD3F89400002849D1BDE83C
S214005658F081264BD3F89450002DF8D030272C7DB7
S214005668234E204609F0F8FB07FB0463DA6E214B4D
S2140056789A4213D12846FFF7CBFE48B3EFF31181C1
S21400568887F3118801231C4AA3405365A2F580526C
S2140056989362536381F31188BFF36F8F2046BDE88A
S2140056A8F04109F0FBBB8B1E012B0CD80128CED885
S2140056B8BDE8F04100220C4B05211B691046C3F3D8
S2140056C840130BF035BB0029C3D00129BAD0BEE77A
S2140056D82846FFF7BBFE0028E0D10123A340B364A9
S2140056E8DCE7BDE8F041E1E600C0035008290020E9
S2140056F800000450B81B002000200450FEE70023DA
S21400570807B5084601A901931EF0C6FE019803B026
S2140057185DF804FB0846FEF7AABD002313B50193FF
S2140057286AB161B102FB01F401A920461EF0B4FE7D
S214005738014620B9019810B122462BF0B7F8019817
S21400574802B010BD002303604360704700232DE9B4
S214005758F347804F01937B680C469A42104604D262
S21400576839B912B101A91EF097FE019802B0BDE83A
S214005778F0871AB90846FEF77AFDF6E7EFF31188C0
S214005788302383F3118831F8063C07304FEAC30903
S21400579820F00705A945A1F1080C72D231F8022CB1
S2140057A8002A5DD0D11A01295AD10CEBC2061CF882
S2140057B83220D20754D47188A9EB050212EBC10235
S2140057C84ED41F2A31DDC5F3CF0324F8063C013337
S2140057D8601924F8023CFFF7B5FFD30834F8022C0A
S2140057E843808280F288EAB17188511A11FA83F3ED
S2140057F89BB206EBC202C3809380002231461EF09D
S21400580807FE3046FFF79EFFBB68FA682B44A3EBFB
S214005818090393420194BB6031D888F31188BFF31B
S2140058286F8FA2E70023C380E7E73A690133013A9E
S2140058383A61F2880B4424F8063C6AB17188511A1A
S21400584811FA83F39BB206EBC20224F8023C93805B
S214005858012231466046D2E7002324F8023CF7E7E7
S214005868284601A91EF018FE0028D6D14A46214629
S21400587801982BF040FE2046FEF7F9FCCDE7FB60CA
S214005888CBE764D931F8021CA9EB05064A1ED21AE2
S214005898A9B31CF831300CEBC10ADB0730D47ABB4D
S2140058A8C5F3CF0324F8063C0133601924F8023CFC
S2140058B8FFF748FF34F8022CBAF802308280BAF8AC
S2140058C8062003EBD6034380BAB1BAF80210511A81
S2140058D811FA83F39BB20AEBC202C38093800022BC
S2140058E851461EF095FD5046FFF72CFFBB68019405
S2140058F81D44A5EB0905BD608FE7C280EFE78A4621
S214005908272EF3D9C5F3CF0324F8063C01336019D4
S21400591824F8023CFFF716FF013E34F8023CF6086E
S21400592846808380BAF1000F0ED0013212FA86F64E
S214005938B6B2C680AAF8046000223B691146013355
S2140059483B611EF065FDD1E7A0F806A0F4E70191DB
S21400595863E700BF0829002070470122014B83F83F
S2140059682C207047082900204FF0B0439A6A120787
S214005978FCD4186A7047B0F1006F0FD300F0784374
S214005988B3F1006F0CD000F06040B0F1404F09D082
S214005998B0F1604F14BF0420032070470020704702
S2140059A801207047022070474FF0FF307047FEE72F
S2140059B80020704700207047002070472DE9F04F00
S2140059C8984691B00B1E0A93AF4B914614BF834678
S2140059D89B4600241A9E98F8000070B94C4538BFBC
S2140059E822464B464FF000000A9928BF09F1FF32BD
S2140059F8D847204611B0BDE8F08F252808F10108E1
S214005A0806D022464B460A99651CD8472C46E2E73C
S214005A1800230DE02D2A2AD0302A06D0303A092A4B
S214005A284FF0000711D80A2532E043F001038846F4
S214005A38414611F8012B2B2A1CD0EBD8202A1CD063
S214005A48232A1DD02A2A2BD0002798F800202E2A91
S214005A5864D198F8011008F10102A1F13000092874
S214005A6843F4806350D800254FF00A0C26E043F034
S214005A780203DCE743F00403D9E743F00803D6E75C
S214005A8843F01003D3E7884605FB0722A2F1300748
S214005A98414611F8012BA2F130000928F3D9D4E7C2
S214005AA856F8047B8846002FBCBF43F002037F42AB
S214005AB8CBE702460CFB0511A1F13005104610F89D
S214005AC8011BA1F1300EBEF1090FF2D990464246ED
S214005AD812F8011B6C292AD022D8682930D06A29E6
S214005AE839D018F8010B67287AD857284FD8452890
S214005AF807D086D9462800F03681472881D143F456
S214005B08006343F0200344E12A2906D156F8045BD3
S214005B1808F1020825EAE575D9E790460025D6E794
S214005B28742901D07A29DCD143F480730EE098F802
S214005B3801106C29F8D143F4407308F10208D0E745
S214005B4898F80110682903D043F080039046C8E708
S214005B5843F0C003F1E743F40073F7E70A2A00F0BE
S214005B686381072A7FF44DAF43F02103059308238A
S214005B78CDE903531023CDE9011356F8043B22461A
S214005B88009358464B460A99FEF750FDFBE0A0F1F5
S214005B9858020F2A3FF635AF01A151F822F000BF90
S214005BA8195C00000B5A00000B5A00000B5A000044
S214005BB80B5A00000B5A00000B5A00000B5A000044
S214005BC80B5A00000B5A0000195C0000B95D000073
S214005BD8195C0000935D0000735D0000935D000093
S214005BE8A0F16902D2B20F2A3FF60BAF012149F2A3
S214005BF8410C914011EA0C01B0D0782803F480617A
S214005C0825D1002900F0908023F00D02102307E02C
S214005C18622803F4806227D1B2B923F00C0202236B
S214005C2812F4007100F08380CDE907720022CDE9F6
S214005C38043206F1070A2AF0070A06950292FAE8DD
S214005C480223CDE900233DE023F00D02E7E76F28A5
S214005C5812D0692823F0100240D023F01C0209B1A4
S214005C6823F01D020A23DBE758280FD19ABB23F03E
S214005C780C0242F02002C9E719B923F00C020823E7
S214005C88CEE723F00D02FAE76944000042BB23F092
S214005C981002930527D5073626F00706B246716820
S214005CA85AF8083B0A26CDE907720027CA0F0029CA
S214005CB8CDE904670695029202DA5B4261EB410180
S214005CC8CDE900314B46224658460A99FEF7F4FCC1
S214005CD8044656467FE623F00D02CAE70029D8D0C8
S214005CE823F01102D5E7D00506F1040A01D533687A
S214005CF802E0510613D53378CDE904720A22002B48
S214005D0802924FEAD37203950192B8BF5B420093A2
S214005D184B46224658460A99FEF788FCD8E71306EB
S214005D28E5D5B6F90030E7E723F00C026EE7D005B4
S214005D3806F1040A06D5CDE90472CDE902350191CB
S214005D483368E4E7510608D53178CDE902350023F3
S214005D58CDE90472CDE90013DAE7316812F0800F56
S214005D6818BF89B2F1E743F02003CDE9017307367F
S214005D7826F007060095B6EC020B4B462246584618
S214005D880A99FEF7A2FE044625E6672801D143F4E1
S214005D980063CDE90173073626F007060095B6ECD2
S214005DA8020B4B46224658460A99FEF7D5FCEAE708
S214005DB813F0020523D04FF0010A631C0B9322460A
S214005DC84B460A9916F8040BD8475DB354460B9A07
S214005DD81EE04B4620200A99D8470AEB04020AF12F
S214005DE8010A5745F5D8002F07F1FF3308BF0023EF
S214005DF807F1010A1C4408BF4FF0020ADDE7AA466D
S214005E08EBE7551C4B4620200A99D8472A4601340A
S214005E18BC42F6D3A7EB0A03574538BF00230B9AB4
S214005E281A440B920B9CD6E53246002D52F8046BAA
S214005E3814BF29464FF0FF310B9232463144107892
S214005E4808B18A4211D1A2EB060A13F480620C92BA
S214005E5802D0AA4528BFAA4613F002030D931BD109
S214005E68AAEB040322460F9308E00132E7E7531C27
S214005E780E9320204B460A99D8470E9A0F9BD318A4
S214005E889F42F4D8A7EB0A03574538BF00230AF108
S214005E9801021C4403EB020AA31B0E9304E01D46F2
S214005EA84B4622460A99D8470E9BF41816F8010B5B
S214005EB828B10C9B002BF3D06B1E002DEFD10D9B49
S214005EC893B12246AAEB040505E0561C4B46202053
S214005ED80A99D847324653199F42F6D8A7EB0A03C1
S214005EE8574538BF00231C440B9E74E50CB41FB5F9
S214005EF806AC54F8043B0A4600940146044803944A
S214005F08FFF75CFD04B0BDE8104002B0704700BF64
S214005F186144000038B5441E14F8015F25B90A200C
S214005F28FFF78EF8284638BD2846FFF789F8F3E7C6
S214005F381FB5034600914FF0FF3203A90248FFF74A
S214005F483DFD05B05DF804FB6150000007B5009301
S214005F5813460A4601460348FFF730FD03B05DF8CE
S214005F6804FB00BF614400000FB430B5124BA3B069
S214005F7893F80821DAB10221104A02AD1180802177
S214005F880022C3F80C51C3E94412284627AB269AC8
S214005F980193FFF7DBFF041E03DA3C2108482BF0C9
S214005FA811FB214628461FF08AFB1EF0D5F823B0C1
S214005FB8BDE8304004B07047082900201E42002083
S214005FC8D23603002DE9F0432B48079F90F89240FD
S214005FD894424DD9D0F8886002EB42024FEA820C10
S214005FE816EB820246D05089002843D0B2F9044006
S214005FF8B2F906508C42B2F908E02FDCA942A8BFD5
S2140060082946BEF1000F35D000F1FF381FFA88F890
S2140060180EFB08490A1B92FBFEF24D45D8BF4046C8
S21400602892B2904202D3A94218BF104656F80C20E6
S21400603852F8206002EB800C18B15CF8048D4645D7
S2140060480ED08D421EBF1EFB00F1091909B29942F7
S21400605809DC00203E60B980BDE8F0832146D0E721
S214006068013880B2E8E70028F3D0013880B2DFE7CD
S2140060780E20F1E70220EFE708290020FF207047EE
S214006088004870470080FFFF436813B941607047B7
S2140060985B685A68012AFBD15960704770B500F0F2
S2140060A87E63B3F17E6F0D4614468EB024D1C0F3DE
S2140060B80B0601B9C2B901230195029344F00053B7
S2140060C8039300232B4904A8CDE9041301A90693DA
S2140060D80C93FFF7D9FF31462DF059F821462DF0DD
S2140060E856F82DF002F840B340F2931122480EB04D
S2140060F8BDE870402BF066BAA20737D4830735D1BF
S214006108034624F003040219934218D141F671326B
S2140061181A4B2C44DA63012203F50053DA60461B57
S214006128A54205EB06000FD141F671320121134B4B
S214006138DA63134AD1600022DA630EB070BD1968BC
S214006148013113D10433DFE755F8043B042204A9D0
S21400615804932DF0EDF80028E2D041F671320121C3
S214006168064BDA63064AD1600022DA634FF49C7164
S214006178BCE700BF00000943EA36030000000350EE
S214006188002003502DE9F7430446E0070F4615465E
S21400619804D54FF4F27136482BF014FAE90704D503
S2140061A840F2E51132482BF00DFA04F47043B3F5CB
S2140061B8805F40D1C4F30B042E4A04F17E646B1E44
S2140061C82344934204D94FF4FF7129482BF0FAF977
S2140061D82646DFF89C9006EB050846453ED1A20702
S2140061E80ED04FF6FF7337F8022BA01E43EA024381
S2140061F804220DEB02010193FFF750FF0234023D23
S214006208AB070ED0023D25F00103FB5A04226FEAC5
S21400621803436FEA13430DEB020160190193FFF77E
S2140062283DFF25B12A4639462046FFF737FF0020AE
S21400623803B0BDE8F08304F46043B3F5005F04D10F
S214006248C4F30B0404F57E24C2E740F2062108488E
S2140062582BF0B8F96FF00F060024BAE716F8013BE2
S214006268FF2BBAD040F2112148462BF0ABF9B4E721
S214006278EA360300FF03E00F0EB42DE9F0413F4B6A
S214006288A3B018803E4B02AA0026C3F80C21802231
S21400629829AC54F8045BC3E944260094013D15F87C
S2140062A8013F8BB3A3F13002092A07D806EB860113
S2140062B803EB4103303B03F0FF06F0E7622B47D0C1
S2140062C815D8462B38D006D8422B2BD0442B22D0B4
S2140062D88DF804302BE0572BFAD154F8041B01A88C
S2140062E81FF0F0FC022101A81FF0E9F9D7E76C2B94
S2140062F81FD0702B01D0662BEAD154F8040B314618
S2140063081FF0DDF9002836D01DF026FF23B0BDE8C3
S214006318F04103B0704754F8041B01A81FF0D2FCE4
S2140063280421E0E754F8041B01A81FF0CBFC012168
S214006338D9E714F8046BB2E7002154F8040B435C61
S2140063480BB9CEB2DBE70131FF29F8D10E46D6E706
S21400635834F8048BB8F1000FA1D040462CF012F8A0
S214006368074640462CF02CF8014638461FF0A7F999
S214006378002894D0C8E7064691E700BF1E420020D2
S214006388082900202DE9FF414FF0FF330024061DA1
S214006398304601A98DF80C400193FEF7DBFF164F37
S2140063A8054620B1154B3C801C80012509E03B883A
S2140063B83BB1DFF84880B8F800002CF08EFF0446A2
S2140063C818B9284604B0BDE8F08120462BF0DAFF5D
S2140063D8011D3046FEF7BEFF214640B1074820F0B3
S2140063E893F93B88002BE0D0013B3B80DDE7B8F80B
S2140063F800002CF077FFE2E7681B00206A1B0020ED
S2140064082DE9F041674B96B01B8805AD07C885E8AF
S21400641807002BB1644E30882CF05FFF044610B995
S21400642816B0BDE8F08120462BF0ACFF011D2846CB
S214006438FEF790FF002800F08B80002614233246D3
S2140064482146009604A82CF0F6FE20462BF0B8FF4E
S214006458142805D920462BF0B3FFA0F11406B6B2CF
S21400646820462BF08FFF314614301FF016F90446ED
S214006478002869D09DF820204C4E8DF80F20B6F8DD
S21400648884209DF81130002A5ED1002B0CBF812293
S21400649801229DF81C308DF82420022B5DD103CDF7
S2140064A80C238DF82530FF238DF827308DF82830FB
S2140064B88C238DF8313082238DF832309DF81D30CC
S2140064C8CDF82D10CDF829008DF833300DA90DF133
S2140064D82408A1EB080189B240461FF0DEF8ADF8A3
S2140064E824002BF06DFF012305461A4640460DF1A1
S2140064F80F010DF087FF38BBBDF824002BF060FFB6
S214006508074620462BF05CFF391889B240460EF045
S21400651828F80746C0B92046BDF824802BF050FF5F
S214006528691C3B460090C9B2404622460EF060FA07
S214006538BDF824301421A6F884309DF80F301C4886
S21400654886F886302CF000F804A8FFF71BFF67E7EC
S214006558214630882CF0C6FE60E708228DF82520F4
S214006568EBB9FF22059B8DF8272023B96FF07243FD
S2140065780BA90A93ABE76FF0E6420A9280228DF8E1
S2140065882C201A0A8DF82D308DF82E201A0C1B0E8A
S2140065988DF82F208DF830300DF1310197E70DF189
S2140065A8270194E7681B00206A1B002008290020A2
S2140065B8202A00200246F0B500285DD000254FF6B8
S2140065C8F87729464FF6FF762E4B187801284ED1D5
S2140065D85C6814F0800F14D0A4040FD493F82C1021
S2140065E8022920D093F8381002292AD14FF6FF74D2
S2140065F8998FA14225D0914223D1F0BD9C8A94421E
S214006608FBD093F82C00022811D1188EB0420CD17A
S21400661893F83810022914D1998FB14211D08A42C2
S2140066280FD10120E9E70146EFE78242F9D093F857
S2140066383800022804D1988FB04202D08242F0D0A7
S214006648A9B1986881B211B137EA00040CD1B1EB50
S214006658104F81EA104403D024F00701B9420DD147
S21400666880B268B1083CA1B28A42DAD0012101356D
S214006678052D03F14803A8D10020BEE72146F3E71D
S2140066880721F1E7001A002070B506460024094DD8
S21400669815F8083C012B04D129463046FEF75AFE69
S2140066A830B90134052C05F14805F1D1FF2070BD3D
S2140066B8E0B2FCE7081A0020FF20704770B5104EBD
S2140066C8054630882CF009FE044600B970BD032143
S2140066D820460EF0A0F93F2804D0214630882CF03A
S2140066E801FEF1E7092120460DF0E4FF0228F4D167
S2140066F80A2120460DF0DEFFA842EED10120E5E78C
S2140067089A130020F8B5194E054630882CF0E5FD9A
S21400671804461DE0032120460EF07DF945281FD1CA
S2140067281B2120460DF0C6FFA84219D10521204698
S2140067380DF0C0FF831EDBB2012B0CD82146308833
S2140067482CF0D0FD0746214608481FF0DDFF3C46E2
S214006758002CDFD1F8BDFF221B2120460EF026F9BB
S214006768214630882CF0BEFDD2E700BF9A130020E1
S21400677837B5144B05461B79113B012B0ED98D24D2
S214006788322368460721ADF800308DF802508DF8A0
S214006798034021F0FDFA204603B030BDFFF78EFF18
S2140067A80028ECD1284614F097FA044618B928466B
S2140067B8FFF7A8FFE4E740F604439842DFD08824B2
S2140067C8DEE700BF804300202DE9F041174690B071
S2140067D8804668460D461E4614F0C8F8012F1CD0A1
S2140067E8032F0DD003240FF0EDF8B0421BD031462E
S2140067F8404620F05AFE2946404607F02FF812E099
S21400680818B9BDF800309907ECD41E4BB3F86C30B5
S2140068189A0707D513F0080F20E01A4CB4F86C3026
S214006828DA0717D40224242328686968ADF82C30C0
S2140068380CABADF82E8003C30BA810218DF838706A
S2140068488DF83940ADF83A6021F0A2FA204610B02B
S214006858BDE8F081D80608D413F0200FC2D1094B42
S214006868B3F86C40C4F38004BDE703AB284607AA18
S2140068780BA907F0D6FFB4F86C300028ECD09906C0
S214006888B0D4CFE7082900201FB59B23ADF8043005
S21400689803688DF80E10CDF8063043680B2101A862
S2140068A8CDF80A3021F074FA05B05DF804FB2DE93E
S2140068B8F04F8DB09DF8607091467D2F05460C46CA
S2140068C81A46169EBDF85CB0DDF864A003D93820D9
S2140068D80DB0BDE8F08FDFF86481B8F83C003628C4
S2140068E866D0382871D0342801D00120F0E717BBCD
S2140068F84E4A1278022A19D1002D37D14FF6F7736F
S2140069089C42F2D80020A8F838B1FF2300903246FF
S214006918214628461FF0D8FF0028D9D1B37A1A9AFC
S2140069281370B37A1A9A00201370D1E7043A012A32
S214006938E2D91620CCE7BAF1000F37D03B4A1278D6
S214006948022A02D0043A012AF3D813F0BDFE874281
S214006958BDD85DB94FF6F7729442C6D83946504648
S2140069681EF09BFE0028CED11920B1E7022D0DD1CE
S2140069782F4A1278A242B8D92E4A32F814104FF687
S214006988FD729142B1D8002FBCD0E7E7012DACD1FB
S2140069980AAA0DF12601E0B214F042FA264A92F845
S2140069A82820A242A1D9BDF82610E8E721208FE7C3
S2140069B81A9B4846CDE903A3CDE901B733460095AF
S2140069C813F046FE0028ACD082E767B30793BAF107
S2140069D8000FEBD0394650461EF05FFE079A034676
S2140069E80028C1D04FF6FF71894518BF88F83A21AC
S2140069F84FF6F7721CBF1049A1F82A90944208D89F
S214006A084FF6FD744FF6FF7298F83B11002918BF31
S214006A181446A8F838B13246009321462B46032080
S214006A281FF052FFCEE73B46DCE700BF8C14002081
S214006A3820420020A01300208043002008290020C0
S214006A4838B50C460146054631F8023BA01C2370B3
S214006A581B0A6370082229F031FFAB7A04F10E0096
S214006A68A372EB7AE3722B7B23736B7B63732969C0
S214006A78BDE838401FF026B92DE9F04FADF5217D69
S214006A8802939DF8AC32144603934FF0FF33054645
S214006A9800220E462046062108939DF8A872FEF7A7
S214006AA83DFB0022062104902046FEF737FB002215
S214006AB805900A212046FEF731FB012D5FFA80FB80
S214006AC806D0042D00F0CA810DF5217DBDE8F08FB3
S214006AD812A806F00BFF092309AD8DF848300DF50E
S214006AE8307CACAB2A4618685968083303C263453D
S214006AF81546F7D109A912A807F02FFF12A822F009
S214006B082CFD029B0DF1340A1B7A0DF11E02022B96
S214006B18029B16BF1B68D3E90001CAE90033B09B85
S214006B2808BFCAE90001CAF8083005230A218AF80E
S214006B380C302046FEF7F2FA06210DF11F02204619
S214006B48FEF7ECFA0C210DF11D022046FEF7E6FAD8
S214006B589DF81F9008904946204620AA9DF81EB02A
S214006B6813F0ABFC051FEDB2F82D40F225814FF06F
S214006B78070900220A212046FEF7D0FA5FFA80FBB2
S214006B88059B00220A21204603F48045FEF7C6FA34
S214006B98C0B2E02840F08281002206212046FEF797
S214006BA8BDFA400640F18381012120462BF024FCE3
S214006BB8002800F08D81012120462BF01DFC82461E
S214006BC8012120462BF018FC002800F083810121C3
S214006BD820462BF011FC80460B2160AA2046FEF7C3
S214006BE89DFA40462BF0ECFB002280460621204604
S214006BF8FEF794FA9DF88031C0F30030A8EB03083E
S214006C080B21A8EB800860AA2046FEF787FA002327
S214006C185FFA88F80093514643469DF8802120A8DD
S214006C282CF009FBFF2E13D048237343B349CA1828
S214006C38CB5CFF2B0CD053681FB9590408D4927D3F
S214006C4832B94821AD4A43F4C06301FB06225360BB
S214006C580DA819F055F8AA4BAA4893F93C2193F8C1
S214006C683D1100238DF8809100EB530C9CF864C00E
S214006C7801336145DBB280F02F81062BF4D1072360
S214006C88073B18BF01239B0104992046C1F38019CE
S214006C986FF06C018A42B8BF0A46082AA8BF0822C5
S214006CA86E3242F346021344012100228DF88131E8
S214006CB8FEF734FA029AC4B261AB07CA8DF882416D
S214006CC883E80700039B002D14BF012200228DF8DD
S214006CD890718DF891318DF8929105D08A4B1B886A
S214006CE8B3FA83F35B095D00B09BDDF820A015437B
S214006CF820A942460DF5D17065938DF893518DF80D
S214006D0898B1CDF89CA18DF8A0618DF8A1812AF0E4
S214006D18F2FB0DF5027E0DF1340CBCE80F00AEE870
S214006D280F00DCF800308DF84C40CEF80030C52354
S214006D38ADF84830BDF88031ADF84A309DF88C3152
S214006D488DF84D30002B40F0D080619C0DF14E0040
S214006D5821461EF0B7FF21460DF152001EF0B2FF85
S214006D689DF88D31B0998DF85630039B0DF15B0078
S214006D788DF858308DF857708DF859908DF85A5010
S214006D881EF0A0FF514618A88DF85FB01EF09AFFB7
S214006D980DF1660182A88DF864608DF86580FFF7AE
S214006DA84FFE00231E21CDE900330DF5D172434670
S214006DB812A80DF0B7FA87E6D9453FF6D8AE032FE6
S214006DC84AD1ABEB09085FFA88F845450DD920ABE0
S214006DD803EB0802A9EB0B032B44DBB2009301215B
S214006DE80023504601921FF017F80DF5C07B0DF1F1
S214006DF8800A434652460121CDE9005B0DA81FF0E4
S214006E080BF8042208A90BEB05002AF081FB804644
S214006E1800287FF4ACAE032F11D10346024649463C
S214006E282046CDE900A513F076FB42460A21204607
S214006E38FEF774F900F0F000F0283FF445AE48225B
S214006E482E4BB09902FB06339A698A42BFF43CAED1
S214006E584FF0000999618CE6A846C6E7AFB9FF2E41
S214006E6806D04823254D03FB06556B685B0402D500
S214006E784FF0060984E6AB7D002BF9D13A4601218E
S214006E882046FEF74BF9A861F2E700220C212046BF
S214006E98FEF744F94FF00309089071E600220A212C
S214006EA82046FEF73BF9C0B2E2283FF475AE002252
S214006EB806212046FEF732F900F0030001283FF4C9
S214006EC873AE002D3FF470AE0298FFF799FA6BE6A2
S214006ED8A24675E6A0467FE6022B04D9042B3FF6A9
S214006EE8CFAE8023D0E6C023CEE6022B01BF61AB2F
S214006EF803CBCDF84E00CDF8521031E7001A00202B
S214006F0808290020E0400300681B00202DE9F04F08
S214006F188FB080460F4616469946FFF7B5FBBDF874
S214006F2860A00546002F39D10AAC39461022204603
S214006F3829F0BCFCFF2D02AF22D048223F4B02FBB3
S214006F4805335A68500401D49B7DCBB100220A2130
S214006F585046FEF7E3F8C0B2E02811D0CDF81890F6
S214006F6894E80F0087E80F0000235246009329464E
S214006F78434602200196FFF77FFD0FB0BDE8F08F6D
S214006F88CDF8189094E80F0087E80F0000230196C4
S214006F9800934346524629460420ECE7BB1E012BC5
S214006FA8EBD802ABFF280AAC099338D00428DFF8E0
S214006FB88CB027D910220021204629F077FC4823D8
S214006FC803FB05BB9BF81630D906C3F3820201D42F
S214006FD8072A1FD106B303F003039F420ABF1646CB
S214006FE84FF0040C4FF0010CCDF8189094E80F0001
S214006FF8099C84E80F004346524629466046CDE978
S2140070080076B8E7482303FB00B31C330FCB84E8AD
S2140070180F00D4E7002EDED04FF0040CE4E7102271
S2140070280021204629F042FCCDF8189094E80F007D
S214007038099C84E80F00CDE90076AAE7001A00202C
S2140070482DE9F041002286B00D210446FEF766F8C9
S214007058002800F09D80002206212046FEF75EF8F4
S214007068C0F3072515F0050640F092803246062143
S2140070782046FEF753F8070400F18A8032460621B8
S2140070882046FEF74BF840047AD400220121204619
S214007098FEF744F805F0070506468DF81450002D4F
S2140070A879D12A4607212046FEF738F80390674F1D
S2140070B8F6B297F88030B3420BD19DF8142097F8B3
S2140070C87C30934205D1002B7FD17B6F039A9A427E
S2140070D85ED05F4B0DF10C0898E8070083E80700C0
S2140070E84FF4FA615B4887F880602BF02DFA00228F
S2140070F806212046FEF712F800F0030001284FF09C
S21400710800026ED10A212046FEF708F800F0F000CB
S214007118F0283DD0002206212046FDF7FFFF10F498
S214007128C05FC0F3C12233D106212046FDF7F6FF23
S21400713802062DD465BB2A4606212046FDF7EEFF3B
S214007148430602D44046FFF75BF900220621204694
S214007158FDF7E4FF0022054606212046FDF7DEFF80
S2140071680022064609212046FDF7D8FF009403466C
S214007178C6F340324046C5F3C121FFF7C7FE07E015
S214007188062132462046FDF7C9FF41067FF57DAF4A
S21400719806B0BDE8F081022DFAD105210DF10B02EB
S2140071A82046FDF7BBFF20462BF0ECF89DF80B10A9
S2140071B80822014403A829F081FB00220821204662
S2140071C8FDF7ACFF8DF8150071E7022B81D1082278
S2140071D807F1740103A82AF09BF900287FF479AF19
S2140071E8D6E706212046FDF799FF10F00305CFD114
S2140071F82A4606212046FDF791FF10F4C05F11D1FC
S21400720800220A212046FDF789FF00F0F000F0284A
S214007218BED000220A212046FDF780FFC0B2E32830
S21400722893D1B5E72A4606212046FDF777FFC0F337
S214007238C1200228E4D02A4606212046FDF76EFF24
S214007248C0F3C120032880D0A2E700BF0829002089
S2140072587C290020884300202DE9F043022989B0C4
S21400726807460E4615461C469DF84490DDF84880AD
S2140072780ED868B12C4B93F83E210132D2B283F86F
S2140072883E212A4B1B78934202D802201AF062FC51
S2140072983F2339460DF10A00ADF808301EF012FDFE
S2140072A823888DF80F508DF811301B0A8DF8123090
S2140072B8638817218DF813301B0A8DF8143023794C
S2140072C82D0A8DF81530637902A88DF81630E388F4
S2140072D88DF80E608DF817301B0A8DF81830238944
S2140072E88DF810508DF819301B0A8DF81A30A37ACD
S2140072F88DF81B30BDF84030ADF81C300C4B5B7871
S214007308402B08BF4FF000084FF0000308BFC146E7
S214007318CDE9003342464B468DF81E900DF002F834
S21400732809B0BDE8F08300BF0829002069190020CD
S2140073388043002008B5094A034692F83F21824256
S2140073480AD9012100220846FDF7AEFE20B1BDE8A5
S214007358084000210DF0AEB9FF2008BD082900201E
S214007368002210B503460C4610460121FDF79CFE88
S21400737870B12BF007F8B0F801302380B0F803306E
S21400738863804379237183796371C3790120A3717C
S21400739810BD70B51546002203460E46104601215C
S2140073A8FDF782FE044690B12AF0ECFF012E14BFCA
S2140073B808218179204602BF49000831C9B201EB8D
S2140073C8450101F0FE01BDE870400DF024BB4FF604
S2140073D8FF7070BD07B501460E4AC0B13F2816D0EB
S2140073E8137A0133DBB2D079137298420CD8002393
S2140073F8137243230DF10200ADF800301EF062FC54
S2140074080621684620F0C4FC03B05DF804FB0023A0
S214007418E9E700BF2C42002070B5094D00EB400498
S214007428A60005EB840412F05DFE08B1FFF7D2FF54
S214007438A279A188A859BDE870400DF013BD00BF19
S2140074482C4200200020E7E70120E5E70220E3E7DA
S2140074580320E1E703464160EFF3108072B6034A63
S214007468916A196093622BF025BE00BF0829002098
S2140074780246EFF3108072B6074951F8283F2BB141
S2140074889A4205D113680B60002313602BF012BED6
S21400749819461B68F3E700BF082900202DE9F84FB6
S2140074A8EFF31189302383F311884FF0B0435B69FB
S2140074B8584903F0010213F0080F03F00D034B615F
S2140074C80ED13AB1544A1368013313602AF0ACFB64
S2140074D82AF06CFC89F31188BFF36F8FBDE8F88F2C
S2140074E83AB14D4A1368013313602AF09DFB2AF01F
S2140074F85DFCEFF31185302686F311884FF0000AFD
S2140075082AF092FB5746DFF81881D8F838400CB1B5
S2140075186369FBB10023012F88F86F3104D11AF094
S214007528020F18BF88F86F712AF040FC22280CD189
S21400753801223A4B83F82C204FF0B042D36B23F04D
S2140075480303D3630822334B9A6185F31188BFF38C
S2140075586F8FBFE723465A693AB91A79217991425B
S21400756888BF1C469B68002BF5D185F31188BFF3AE
S2140075786F8F2569DDB1FEF7F7F9A369A0EB030A5B
S2140075884FEAEA72AA4572F1000211DB2B44A361A6
S214007598E36813B1204621689847B4F806A0013777
S2140075A8EFF3118586F311882AF03EFBADE7AA466D
S2140075B8EFF3118B86F3118820462AF091F98BF3A6
S2140075C81188BFF36F8F2369002BE1D0A38BB5EB2F
S2140075D80A0133B1E28B13449BB2B3F57A7F10D21B
S2140075E8E383EFF3118586F3118820462AF09CFB87
S2140075F8A36922691344A36185F31188BFF36F8FCB
S214007608C6E7A3F57A73E383A3690139013BA3614F
S214007618E7E700BF002000589014002080430020B1
S21400762808290020024BD3F870012BF043BD00BF99
S214007638082900202DE9F743394D044695F874319A
S2140076480E461746002B69D0FEF795F9012805D98E
S214007658831EDBB2012B55D9212423E0314DE202EB
S21400766895F83430C4F3130924D5002B56D00121DD
S214007678284607F09FFD494628462B4A0DF1070382
S21400768808F041F9044688B99DF80730032B0DD059
S214007698022B0DD12846244907F0E9FD3060E86B37
S2140076A821F0F4FF204603B0BDE8F0832D24F6E76A
S2140076B86124F4E793B3DFF870800121284607F0C9
S2140076C879FD4246494628460DF1070308F01BF99E
S2140076D804460028E3D19DF80730012B0BD1D8F8D3
S2140076E810309F420CD803463A46314628461EF0CC
S2140076F809FF0446D3E7022B14BF2D246024CEE7E7
S2140077086324CCE7EFF3108372B62046C5F87031D1
S2140077181EF09AFF0446FFF785FFC3E71124C1E76A
S21400772808290020781C0020181C002070472DE926
S214007738F0410027404C96B007F58130342209A95D
S21400774800F5C070FFF776FFE84604A806F0CEF806
S2140077580723414604A88DF810308DF8117006F0FE
S21400776845FA9DF82430FF2B04F83A3C07D1013738
S214007778052F04F14804DFD116B0BDE8F0810A9D54
S2140077889DF83530A4F11E0604F8243C44F8365C0F
S21400779898E80F0086E80F0015F002032FD0DDE901
S2140077A80B01A4F1320383E80300022304F82A3C01
S2140077B89DF8343004F8293C9DF8463025F4C06519
S2140077C8032B44F8365C04F80E3C1ED112AB03CBF0
S2140077D84FF6FD7344F80C0C44F8081C24F8043CD7
S2140077E89DF84730032B04F8023C00D0D3B914ABFD
S2140077F803CB4FF6FD73206061602381B7E70B9AD1
S21400780804F82A3C44F8322CD6E7002BDED0022BAC
S21400781801BFBDF8483024F80A3CBDF84A3024F8C1
S2140078280C3CDDE7022B01BFBDF850306380BDF885
S214007838523023809BE700BF3A1A00202DE9F0411A
S214007848194F054697F874310C465BB3FEF793F864
S214007858012805D9841EE4B2012C12D921241CE083
S214007868EB02C5F3130105D522681048BDE8F041C0
S21400787808F07ABD13460D482246BDE8F04108F0E8
S214007888E3BCEFF3108372B6C7F8703142B1A8B202
S214007898FEF778FC0446FFF7C5FE2046BDE8F081F3
S2140078A82124F8E71124F8E708290020781C00208E
S2140078B8704741F6583101482AF046BEB0430020CA
S2140078C870B50428054696B06AD86E463422FF215D
S2140078D809A828F0EBFF1022FF21304628F0E6FF23
S2140078E848226A433F4CA318A25C012A44D18DF86B
S2140078F824205A680A921A7C002A53D19B680B9354
S214007908482303FB05439A7D12F01C0F18BF1C334F
S2140079188DF835201CBF0FCB86E80F00482303FBE5
S214007928054191F82C20032A8DF8462045D103FB03
S2140079380543D3F82E00D3F8321012AA03C2D3F8A0
S2140079483A00D3F83E1003C2482101FB054292F8DC
S2140079583830032B8DF8473001D0002B38D101FB87
S2140079680544D4F82E00D4F8321012AB03C3D4F86A
S2140079783A00D4F83E1003C305F5813009A934222D
S21400798800F5C070FFF75AFF04A805F0AFFF0723FD
S214007998314604A88DF810308DF8115006F0DDFF3A
S2140079A816B070BD022AABD1D96898685B7C0BAA62
S2140079B882E803008DF83430A2E7002AB7D0022AFE
S2140079C801BF0B8EADF84830CB8DADF84A30BBE71B
S2140079D8022B01BF938FADF85030538FADF852305D
S2140079E8CAE700BF001A0020442213B500F5833406
S2140079F850430E4B04F5C0741A181B5C012B07D1B4
S214007A08136B0093042269462046FFF717FF0BE026
S214007A18042220460DEB0201FFF70CFE4FF0FF3361
S214007A280093019B0133EDD102B010BD6C1B002002
S214007A38704741F6583101482AF086BD7442002046
S214007A482DE9F04FB44CBFB00CF03CF8B34BD4F86B
S214007A5878611F78B37803F00302012A20D1002248
S214007A6807920522B6F80150B6F8033005F0030170
S214007A78A38709913178DFF8ACB284F87C1100212D
S214007A883244CBF80020C4F88021A54A15F08005BA
S214007A9811700AD058233220A3870BF059FE55E000
S214007AA80122757807920322E0E794F8842122B928
S214007AB83BB158233020A387EFE72D2B31D82A2B4C
S214007AC831D8A68F562E00F21181462E00F29080ED
S214007AD8272E40F2B580304604F072FAB0BB304626
S214007AE804F04AFF90BBB6F5957F0CD2B6F5867FB4
S214007AF881F0CE82762E01F20783662E01F2ED82A1
S214007B08142E01F09F83304609F046FEF0B9304641
S214007B1806F0CCF9D0B9304604F0A1F9B0B90E2079
S214007B284FE0382BCDD10BF0FDFDDFF8FCA1053674
S214007B388046BAF80000CBF800602BF0CEFB4FF07A
S214007B4801090646D6B9B9F1000FBAD1D4F878318A
S214007B5894F87C211A70D4F878219378002B41F099
S214007B680986079B002B01F00586A38F9370A18FCB
S214007B780998CB1F5942594101F0B6B8032130463F
S214007B880CF049FF312812D1122130460CF092FD34
S214007B98804505D140F60F400BF0FDFD4FF000097B
S214007BA83146BAF800002BF09DFB0646CAE7322895
S214007BB8F6D1052130460CF07DFD8045F0D140F623
S214007BC80F400BF0E8FDC1E7A6F18F03052B82D81E
S214007BD801A252F823F000BF6B8F0000878F0000C9
S214007BE87F900000DF7A0000DF7A000045900000F2
S214007BF8A6F147030F2B3FF66EAF01A252F823F00B
S214007C080D8F0000DF7A0000078E0000DF7A000084
S214007C18DF7A0000DF7A0000DF7A00007D8E000041
S214007C28818F0000DF7A0000DF7A0000717E000096
S214007C38BD7F0000DF7A00005F820000A982000096
S214007C48272E3FF648AF01A353F826F03F7E0000E4
S214007C58018F0000DF8100007B860000DF7A0000CD
S214007C680B7D0000B38C0000DF7A0000DF7A00008E
S214007C78C57F0000C57F0000038D0000038D00004F
S214007C88DF7A00002B8E0000DF7A0000DF7A000023
S214007C98DF7A0000DF7A0000C57F0000DF7A000088
S214007CA8DF7A0000DF7A0000598F0000DF7A0000D4
S214007CB8DF7A0000DF7A0000DF7A0000DF7A000053
S214007CC8DF7A0000DF7A0000DF7A0000DF7A000043
S214007CD8DF7A0000DF7A0000DF7A0000DF7A000033
S214007CE8DF7A0000198F00001F8F0000942E1DD821
S214007CF88E2E3FF669AF652E01F0EA80812E7FF45E
S214007D08EAAE052F7FF622AFD4F88031053F3B4414
S214007D18C4F880311AE700BF08290020D41D0020C7
S214007D28F7130020E41300209A130020F12E01F028
S214007D38CF8069D8AA2E00F0C982AB2E7FF4CBAECE
S214007D489422002119A828F0B1FD0DF175061DAB87
S214007D58019301209A4900961BAA0BF0D6FD9DF8C0
S214007D686430002B40F04A8501238DF864309DF876
S214007D786C30043B442B00F2EC85DFE813F0D504A6
S214007D88EA05EA05DB04EA05EA05EA05EA05EA057E
S214007D98EA051005EA05EA052C05EA05EA05EA05F6
S214007DA81505EA051A0522052805EA05EA05EA057D
S214007DB8EA05EA05EA05EA05EA05EA05EA05EA053E
S214007DC8EA05EA05EA05EA05EA05EA05EA05EA052E
S214007DD8EA05EA05EA05120510051005EA05EA05AA
S214007DE81005100508050C052E05BB05EA053F0518
S214007DF8EA05C305C905EA05EA05EA05D605EA055A
S214007E083805EA05DC05E205FC2E01F0B58040F2EF
S214007E1805139E427FF45FAE0BF084FC05460BF01C
S214007E2881FC042D00F2E087664B84F81A5283F82A
S214007E3873000020C5E60BF075FC054612200BF013
S214007E4887FC02200BF084FC4FF402400BF090FCF9
S214007E5894F88431002B7FF479AE122D7FF476AE39
S214007E68012384F8843171E60026CDE919661B964D
S214007E780BF058FC012334288DF865001A968DF807
S214007E8864304AD01AD8172844D00ED8984271D0F1
S214007E980C283CD0122862D0052847D1494B4A4ABC
S214007EA893F8283012789B1A05E02D2814D01A2843
S214007EB837D1464B1B78ADF86C3012E041285CD0C1
S214007EC842280CD039285AD0382850D040282DD1EE
S214007ED83C4B93F85830EEE73A4B93F85050ADF8D1
S214007EE86C5019A8FCF776FF9DF8643043B91BF070
S214007EF848FD9DF864301BB92122ADF86C301A9203
S214007F0833491BAB1AAA00200BF0FFFC1EE694F8B8
S214007F188551E4E794F88651E1E72A4B93F85150E7
S214007F28DDE71F281FD001D8182811D0294B53FA8F
S214007F3886F292F8B820F1B2FF2A23D0904206F1D2
S214007F480106F4D103EB8103D3F8D0301D78C6E7D9
S214007F581C4B93F85230B3FA83F35B09ABE7194B23
S214007F68B3F85430A7E7174BB3F85630A3E7154BCA
S214007F785B88A0E74FF40055B1E70525AFE74FF655
S214007F88FF75ACE7242812D007D80D280AD01E287B
S214007F980BD000238DF86430A3E73628F9D10E4BB2
S214007FA81B8888E794F8873185E7142383E794F8D5
S214007FB8883180E794F88451012D0FD0022000E61E
S214007FC89A37030080430020711900206C42002075
S214007FD887370300E04003009442002000230DF199
S214007FE86502CDE919331B932846A2491BAB0BF053
S214007FF88CFC9DF864204ABB9DF865308DF864506B
S214008008342B1A923BD00FD8172B33D02D2B14D0E5
S2140080180C2B2AD01A2B3ED1974BBDF86C2019781A
S21400802891420ED31A7011E0392B32D0A3F14101D8
S21400803801293BD802231A9308E0BDF86C30022BBE
S21400804801D92123F7E78D4A82F8503019A8FCF7A2
S214008058C1FE9DF8643033B91BF093FC9DF864307C
S2140080680BB921231A931A98ABE5BDF86C3084F83F
S2140080788531EBE7BDF86C3084F88631E6E77F4B50
S214008088BDF86C2093F851109142DAD383F851204A
S214008098DCE70E23CFE7192B4CD043D8122B6FD032
S2140080A8182B64D0052B53D0002203E0382B74D04D
S2140080B8402B77D0724951FA82F595F8B850D0B26D
S2140080C8FF2D1DD0AB4202F10102F4D101EB800175
S2140080D80828BDF86C20D1F8D0300CD81978914211
S2140080E834D31A701A9B3BB99DF86530112B03D10F
S2140080F8644BBDF86C201A709DF86430002BA5D12F
S214008108012300228DF864309DF865301A92242BDE
S21400811851D0362B57D00D2B5AD1BDF86C3084F879
S214008128873193E71F2BBFD1544BBDF86C20A3F8BB
S21400813856208BE7514B544993F8283009789DF818
S2140081486C205B1ADBB29918102906DD192372E732
S2140081584D4B1A789DF86C30F5E7484880F828109B
S2140081684A490B70484B1A700022494B5AE7BDF82B
S2140081786C30424AB3FA83F35B0982F8523065E7FB
S21400818847F23052BDF86C3093423FF65AAF3B4A3E
S214008198A4F88A31A2F8543058E7384BBDF86C205A
S2140081A85A8053E7BDF86C30022B3FF64AAF334A85
S2140081B882F858304AE7BDF86C300A2B3FF641AFD4
S2140081C884F8883142E7334BBDF86C201A803DE7C7
S2140081D88DF864203AE794F88461012E41F04880CF
S2140081E8D4F87801791FC9B205301DF056FA002870
S2140081F801F07382ADF864002AF0C4F8002185798E
S214008208C7798DF850600378FF220846FCF74CFFC4
S21400821810B121252846D4E4BDF864002AF0D0F829
S2140082283D446D00083505F0FE058542F1D133461C
S214008238324614A919A80CF0E5F805460028E8D136
S214008248BDF8641014482BF030F894F83F31013329
S21400825884F83F31DEE700230120CDE919331B936C
S2140082680E491BAB0DF165020BF04FFB19A8FCF786
S2140082780DFEF3E68A3703006C4200208043002098
S214008288E04003006B42002071190020731900209B
S21400829872190020944200209C1300208D3703009A
S2140082A80023CDE919331B930BF03CFA8DF86500D3
S2140082B819A8FCF7EBFD9DF864301BB921228DF850
S2140082C86C301A92B0491BAB1AAA1CE694220021FD
S2140082D819A828F0EBFA0BF025FA00231A930123C5
S2140082E849288DF86C008DF874308DF864300DF1DF
S2140082F875060AD810282ED8042800F00581072805
S21400830800F0D280032800F0C480012300228DF8F4
S21400831874308DF864309DF86C301A92142B00F285
S2140083280181142B00F20081DFE813F044010101FB
S2140083381601FE00FE00FE00FE00FE000401FE0020
S214008348FE00FE00FE001101FE00FE00FE00FE001C
S214008358FE002201250111383828D6D801A353F883
S21400836820F000BF51840000138300001383000030
S21400837813830000BD8400001383000013830000ED
S2140083881383000013830000138300001383000088
S2140083981383000013830000138300001383000078
S2140083A81383000013830000138300001383000068
S2140083B81383000013830000138300001383000058
S2140083C81383000013830000138300001383000048
S2140083D81383000013830000138300001383000038
S2140083E853850000778400007B8400001383000018
S2140083F813830000958400007784000077840000CB
S21400840877840000D18400001383000013830000E3
S2140084187B8400001383000013830000C7840000D9
S214008428138300006D840000E5840000FF840000CC
S21400843877840000DF840000178500001B85000095
S21400844823850000298500005049514BCDE91D13AE
S2140084581DABCDE9006300204E491AAA0BF055FA69
S214008468FFF774BB94F88C318DF87530F0E700236D
S214008478FAE70423002130468DF874301DF022FCFC
S2140084889DF86430002B3FF440AFE1E703231D93CB
S214008498DEE702238DF874300BF0E2FC8DF87500E9
S2140084A8000A8DF87600EBE7B4F88E31B3FA83F35A
S2140084B85B09D9E70BF06CFC8DF87500E0E7B4F8BB
S2140084C8903103F00303CFE74FF47A72324BDB6D3B
S2140084D8B3FBF2F3C8E7314B1B78C5E7304B187887
S2140084E80028E9D02F480CF062FB4FF47A73B0FBF3
S2140084F8F3F0C0B2E0E7284BB3F860308DF875307B
S2140085081B0A8DF87630A3E702231A93A0E70F23F9
S214008518AAE7214B93F86230A6E794F8B431A3E7AC
S2140085281623A1E73D2B2DD08DF8642074E094F82F
S214008538B53199E71C4B1B78332B06D003F0EF03B5
S214008548A3F14302534253418EE701238CE794F884
S214008558B63163F07F0387E70F4BB3F864308DF8C6
S21400856875301B0A8DF8763002238DF874306FE765
S2140085780E4B1B6978E794F8B7310133DBB284F801
S214008588B73171E70A4BA7E79037030007000008E2
S214008598020000AA933703008043002040140020FE
S2140085A86F1900209C2A00208C140020F415002047
S2140085B86A4200201023012014A9C44A0CF0B4FF14
S2140085C8BDF850308DF875301B0A8DF876309DF85A
S2140085D852308DF877309DF853308DF878309DF806
S2140085E854308DF879309DF855308DF87A30BDF8CE
S2140085F856308DF87B301B0A8DF87C3016AB03CBD3
S21400860810238DF874309DF86430CDF87D00CDF8D1
S2140086188110002B7FF41CAF02238DF874309DF870
S2140086286C30102B0CD03B2B1ED00A2B11D10023FC
S2140086381A93A74B5D8825F08D056D056D0D05E031
S21400864814A811F0D7FFBDF850501A9001238DF8E2
S21400865864309DF86430002B01F094808DF87550D6
S2140086682D0A8DF87650F3E600231A93994B1D8849
S214008678ECE79422002119A828F018F91BAA012073
S21400868895491CAB0BF041F99DF864200DF1750572
S21400869862BB01231A929DF86C208DF86430032A79
S2140086A839D8DFE802F00217273000209DF870104E
S2140086B814AAFCF78FFE02238DF87430BDF85030EC
S2140086C81A908DF875301B0A8DF876309DF8643050
S2140086D823B30BE003238DF87430804B94F8B8214D
S2140086E8B3F866308DF87520ADF876301DABCDE959
S2140086F80053B0E6BDF870008DF874301BF0E4F84F
S2140087088DF87500F2E70423002128468DF87430AA
S2140087181DF0D8FADAE700238DF8643021231A937F
S21400872800238DF87430E1E79DF87430012B36D1BC
S21400873800232AE09DF8750070B1B4F88E31002B3E
S21400874849D000200CF038FF0023FF22A4F88E3111
S214008758624B83F86820EBE7604F97F86830FF2B8A
S21400876839D15F4B1D795DB9294629F081FEA4F8F9
S2140087788E0148B1012087F868500CF01DFFD7E736
S2140087882844C0B20833EDE719231A9336E09DF85B
S2140087987430012B03D19DF87530002BC8D02123E7
S2140087A8F3E79DF87530C1E79DF875204D4BDA70F4
S2140087B8BEE79DF875204C4BBDF8761023F81210CE
S2140087C8B6E75422FF21484828F070F8B0E754224C
S2140087D800214648F8E70223D7E79DF87530022BB4
S2140087E8DDD94FF47A7253433C4AD365A0E79DF827
S2140087F875303F4A003B18BF012313709DF864305C
S214008808002B7FF430AC01229DF86C508DF8642064
S214008818292D00F2A280292D00F2A58001A353F885
S21400882825F000BFA3890000F9890000118A00001E
S2140088386F8900006F890000278A0000278A0000D9
S2140088486F8900006B8000004D8A0000DF8A0000F8
S214008858058B0000938B00006F8900006F8900006D
S214008868A38B00006F8900006F8900006F890000E5
S2140088786F8900006F8900006F8900006F8900000B
S2140088886F8900006F8900006F8900006F890000FB
S2140088986F8900006F8900006F8900006F890000EB
S2140088A86F8900006F8900006F8900006F890000DB
S2140088B8C78B0000C78B0000458C00006F8900003E
S2140088C86F8900006F890000578C000064EE010075
S2140088D83C14002094420020973703008043002071
S2140088E848410300FC280020721500209A14002036
S2140088F8401400209DF87530032B3FF650AF84F8DF
S214008908B93115E7BDF87520BB4BA3F86A200FE709
S2140089189DF87530B84A82F86C30B4F8902122F089
S21400892803021343A4F8903102E7BDF87520B24B52
S214008938A3F86020FCE69DF87520AF4B83F862200C
S214008948F6E69DF87530003B18BF012384F8B4316D
S21400895854E700238DF8643050E7342D3FF482AB9B
S2140089683D2D00F0778100238DF864309DF86C303B
S214008978102B40F0928130461DF0ADF90022ADF87C
S21400898840209E4ABDF8793090427FF46AABD807FB
S21400899840F169812323FFF765BB9DF87430102BDF
S2140089A823D1BDF87520DDF87D00ADF850209DF880
S2140089B87720DDF881108DF852209DF878208DF804
S2140089C853209DF879208DF854209DF87A208DF84C
S2140089D85520BDF87B20ADF8562016AA03C2884A53
S2140089E8002014A90CF0A0FD86E021231A93DFE0EE
S2140089F89DF87430012B7FF434AB9DF8753084F8FD
S214008A08B5310023FFF72EBB9DF87430022B7FF498
S214008A1828ABBDF87520784BA3F86420F1E79DF8DD
S214008A287430022B7FF41DAB052DEAD14FF6FF728A
S214008A38BDF875109142E4D06F4BA3F86E10A3F8FA
S214008A487020DEE76C4A9DF8743092F872205D0854
S214008A58B2EB530F7FF605AB6F003A4631466948CE
S214008A6828F049FD4FF400432744A7F8BA31ADF87B
S214008A7854300023644A63481492DAB295421DD8EB
S214008A88202D15D8012D05D1B4F8BA51B5F50045F5
S214008A9818BF01255B496A0001F11E0028F02BFD6E
S214008AA884F81852ADE730F813200131B24206D1E7
S214008AB84FF40043A4F8BA31FFF7D3BA00213EAE0C
S214008AC8CAB206EB420232F8A86C32F9A82C002A81
S214008AD8E9DA0133D1E70023BDF875504B491A4649
S214008AE84FF07F6001EA054114F01AFEEB0703D544
S214008AF80021302014F062FE002377E7444BBDF8CF
S214008B0875501B783BB94FF6F7739D4237D8284601
S214008B180CF076FFF0E74FF6F6726B1E9BB29342A8
S214008B282DD828460DF062FA48BB284614A90DF041
S214008B3863FD20B3284617F0D9FD0146F8B901228F
S214008B4828460DF04DFED0B9284611F015FBB0B9F1
S214008B5828462AF0A3FB90B92846FDF72BFD70B9E6
S214008B6828460CF04DFF40F60743132203202949F8
S214008B78FDF782FB40F607400AF0BDFDBCE70CF0A7
S214008B8821FFA842B8D0022330E79DF87530FF2BA6
S214008B983FF437AF84F8193233E7BDF87630012052
S214008BA89DF8751014AAADF85030FCF713FC1A900F
S214008BB89DF86430002B3FF4D9AEFFF754BA9DF801
S214008BC87430042B7FF44DAA30461DF084F8104B01
S214008BD8232D1B7803F00F0322D11BB10E4B1B6805
S214008BE89842D0D3471CCED0030B14930A4B0B4A9B
S214008BF818600423F4E600BF804300201FD1BACAD9
S214008C0864EE0100C22A002099008900000072075D
S214008C188C1400209E3703009419002063E5110089
S214008C281BB1BE4B1B689842ADD3451CABD0030B9B
S214008C381493BA4BBA4A18600423D1E69DF8750017
S214008C48C31E012B3FF60DAA0EF04DF854E702237B
S214008C58FFF708BA9DF87520252A3FF602AAB149FB
S214008C680A70FFF7FFB9990748BF4FF47F434FF0E4
S214008C780202AD4814A948BFADF84030FEF7DAFC4A
S214008C884FF6FF73BDF850209A427FF483AE022257
S214008C9810A9A548FEF7D2FDB3E63B2B40F0A4800A
S214008CA8BDF87520A14B1A80ABE6A14D2B8803B3FF
S214008CB828461DF001FB064629F082FB0022C7B2B3
S214008CC800923B463146D4F878012AF0B4FAD4F834
S214008CD878313B44C4F880312B8813B90122954B70
S214008CE8DA70012194F81B023FB0BDE8F04F1BF084
S214008CF839BB0723A387FEF729BF0AF013FD06280A
S214008D08074615D10C2E3FF459A928200AF020FD55
S214008D18894D8A4E0222284619A9FEF78BFC013592
S214008D28BDF864000AF024FDB542F3D1FEF70EBF85
S214008D38082804D10C2E7FF47CA8FFF73FB90B282F
S214008D48F8D00C2E02D109283FF438A94FF00008B5
S214008D58582241461AA8CDF8648027F0A7FD784D1A
S214008D682B78BB4233D10C2E6A7815D010460AF001
S214008D78EFFC6A78686819A9FEF75CFC092F05D12C
S214008D88152200210DF1AA0027F090FD687819A990
S214008D980AF013FDFEF7DABE19A96868FEF74AFC62
S214008DA80AF0C0FC95F8019048451DD1002319A982
S214008DB8DAB24A451BD3484619A90AF0BBFC4A460C
S214008DC8686819A9FEF73AFD00200AF0E4FC08F1E5
S214008DD80108B8F10B0F05F10805C1D10C2E7FF478
S214008DE828A82720FEF7EDBE2120FEF7EABE11F8D8
S214008DF8012B0133FF2ADBD03B20FEF7E2BE012120
S214008E0819A803F0A7FD38B90AF0C5FCBDF8640038
S214008E180AF0AEFCFEF79ABE21200AF0BCFC002041
S214008E28F6E70AF07FFC05460AF0ABFC80460AF037
S214008E3879FC07460AF076FC18F4004F06467FF4DD
S214008E48BDA8032F3FF6BAA8012D3FF6B7A83D4B9D
S214008E582DB23A46414653F8350003EBC5090CF0E7
S214008E6801F8002E18BF3E46A9F8048089F8066067
S214008E78FEF7DFBF0AF056FC012826D8314B00B2B1
S214008E8803EBC00753F83000066966B10BF08FFE97
S214008E98B0F5803F14D3B0F1807F4FEA102311D38A
S214008EA80326000C85B2BF79003F18BF0127284665
S214008EB80AF05EFC30460AF04BFC3846FEF7EDBD7D
S214008EC80126EFE718460226ECE700263746EEE7C7
S214008ED82A251D4F37F8020B013D0AF049FC15F00C
S214008EE8FF05F7D1652E7EF431AE54222946164882
S214008EF827F0DCFCFEF72ABE0AF014FC0CF092FB06
S214008F08FEF7CBBD02200AF046FC0020FEF7C5BDE2
S214008F180E4908203CE70CF055FD79E7EC190020CF
S214008F2823E111006A420020603202E094420020E9
S214008F389A13002008100020381002C04C1002C0F7
S214008F4804420300F44300209A1400207D1D0020EC
S214008F580AF017FCADF8640019A80EF069FBFEF7D6
S214008F6830BE0AF0B5FB4FF6FF73984204D00AF0FD
S214008F78D9FB84F81C02C8E70120FEF78EBD08233B
S214008F8814AA8DF836300DF13503CDE90132039376
S214008F980DF136030120B84900930DF1370219ABDD
S214008FA80AF0B3FC46F665539DF8351014989DF8FC
S214008FB83760ADF838301CF070FB814618B91920B8
S214008FC8C0B2FEF76ABDDFF8B4820EADEEB10CF0A3
S214008FD829FD4FF6FF770646ADF840700CF0F2FC18
S214008FE802234FF44841CDE902537C203B46CDE9A5
S214008FF80086CDF8109010AA1CF0E1FF0146D8B103
S214009008002210460CF032FDDAE70CF00BFD07469E
S2140090180CF0D8FC02234CF66041CDE902537C20C4
S2140090283B46CDE90086CDF8109019AA1CF0C7FF7C
S21400903801460028E4D1C2E70120C1E7102010A9A4
S2140090480AF078FB14A910200AF074FB19A804F09B
S2140090584DFC092314A919A88DF8643005F07DFC89
S21400906819A820F07AFA10AA1146012020F0A2FAD0
S214009078102010A98CE60AF02BFB0AF079FB0420D6
S2140090880AF066FB18200AF063FB0F20FEF705BD02
S214009098A6F586731D2B00F2D782DFE813F0510180
S2140090A8A9015E017D01B401BC01CB01D3017500A5
S2140090B887003A01D502D502D502D502D502D502D7
S2140090C8D502D502D502D502D502D502D502D502DB
S2140090D8D502D502D502DE01EF01A6F167030F2BF4
S2140090E800F2B282DFE813F07F0028004400B002E6
S2140090F8FA00B700B002B002B002B002B002B00286
S214009108B002B00270009F00B12E00F09280A82E28
S21400911800F01E83A92E7EF4F6AC0AF032FB054654
S21400912814A908200AF006FB102019A90AF002FB69
S214009138284619AA14A998E20AF023FB0DF166013D
S214009148ADF8640010200AF0F5FA0DF1760110204B
S2140091580AF0F0FA0AF0E6FA0DF187018DF88600B3
S21400916808200AF0E7FA19A816F0FCF8FEF729BD59
S21400917819A811F0FBFB0AF00EFBBDF864000AF014
S214009188F7FA0DF16601C4E619A80AF040FC14A91E
S21400919819A804F02BFD0AF0FEFA102014A90AF00C
S2140091A80CFB19A80AF01AFCFEF7D0BC19A80AF09E
S2140091B82EFC14A910200AF0BDFA14A919A805F067
S2140091C8CCFB0AF0E8FAECE7082019A90AF0B2FA8C
S2140091D80AF0A8FA20B119A805F0B0FBFEF75DBCA6
S2140091E80220FEF75ABC0AF0CCFA14A90646082054
S2140091F80AF0A0FA002319AD1A462946009314A8C7
S21400920814F0EAFA00287EF4DCAC03233046CDE9F5
S21400921800531A4A042314A915F0B2FF80F001007F
S214009228C0B2FEF7CEBC0AF07DFA05F053FBFEF797
S214009238C8BC0546E8B2013505F04CFB142DF9D13B
S214009248FEF7F7BD082019A90AF074FA19A815F050
S214009258DFFEFEF7B6BC0AF065FA094A0546D2F8FC
S2140092688011D2F87C0114AB03C394F81D324BB1BD
S2140092780225FEF7CFBF00BFA13703007D1D0020E3
S214009288E0400300784B1B7803F00F03022BEFD166
S2140092980CF098FB0028EBD019A811F067FB082201
S2140092A814A90DF1660028F033F9A0B16F4B83F8C6
S2140092B884501CF035FA054600287EF4ABAF01232F
S2140092C841F288316A4884F81D3284F81E3229F043
S2140092D83BF9FEF79FBF2325FEF79CBF00263546C1
S2140092E8644B1F88F3B2BB42BEF430AC19A804F036
S2140092F8FDFA284614AB10AA19A905F0B4FA28B93D
S21400930832211AA814F0F5F90136EBE70135EDB26B
S214009318FAE719A804F0B0FB0AF03DFA9DF86400D5
S2140093280AF016FA9DF865000AF012FA9DF866002B
S2140093380AF00EFA9DF867000AF00AFAFEF793BEDE
S21400934819A80AF064FB14A919A805F082F90AF00E
S21400935822FA14A80AF074FB23E70AF0E3F910AE21
S2140093680546314608200AF0E5F914A910200AF047
S214009378E1F919A804F0BAFA96E8030004238DF870
S21400938864301AAB83E8030014A919A88DF8655051
S21400939805F0E3FAFEF715BC0AF0C4F9054619A865
S2140093A804F0A4FA04238DF864309DF8713010A9EF
S2140093B843F0010319A88DF865508DF8713004F054
S2140093C815FC70B12D200AF0E6F919A80AF006FB7C
S2140093D8102010A90AF0F1F914A80AF031FBFEF7DC
S2140093E8B5BB14A919A805F034F90028EBD0E9E7AD
S2140093F80EA908200AF09EF914AB10AA19A90EA8FF
S21400940805F0DEF9DFE719A80AF001FB19A805F050
S21400941807F9FEF7D6BB14A908200AF08BF919A994
S21400942810200AF087F9002219A914A805F082FC72
S214009438FEF7C7BB0AF076F914AB10AA19A905F00F
S21400944812FAC0E70EA908200AF074F914AB10AA9D
S21400945819A90EA805F0E5F9B5E70AF0A5F9064B2F
S2140094681860FEF773BB00BF8C14002080430020F2
S214009478282B0020B61B0020B01B00200AF052F94B
S21400948880460AF04FF9DBF800A081460AEB000395
S214009498CBF800300AF046F919A9074608200AF062
S2140094A849F90023ADF84030B8F1000F00F0968077
S2140094B8A9F10906F6B2314650461CF0EEF8ADF8AA
S2140094C85000002800F0BC8000210BF0F3F882065C
S2140094D840F1B8800022042311464FF6FF701CF0B6
S2140094E859FBADF84000002800F0A880B8F1000F3E
S2140094F801D00536F6B206F1100189B210A80BF0B5
S21400950830F80646002855D103461021BDF85020ED
S214009518BDF8400000970BF06BFABDF85020BDF878
S214009528403007F1100BB8F1000F10460A931FFAE7
S2140095388BF318BF052508930B9228F041FF15FA00
S2140095488BF5C01B80B2ADB23B4629460B9A0090FD
S2140095580A980BF04DFAB8F1000318BF01238DF8EE
S21400956838300EAB019319ABCDE90366029600932B
S2140095781020334610AA5FFA8BF114F039FA064623
S214009588C0B9BDF84000B8F1000F29D028F018FF80
S214009598A0F11005EDB2294614A80AF0E2FF064627
S2140095A840B901461023BDF84020BDF8500000958C
S2140095B80BF01EFABDF850504DB1284628F000FFB3
S2140095C80022034629465046009229F034FE3046CB
S2140095D80AF0E1F851464846FFF7DABB4E466AE716
S2140095E808990BF067F810F0200FBDF8400014BF7C
S2140095F84FF00D084FF0050828F0E2FEC7F1F00519
S2140096083146BDF84020102305440097BDF85000A9
S2140096180BF0EEF9089BA5EB0805EDB24344394676
S214009628BDF85000BDF8402000959BB20BF0E0F95D
S214009638791989B214A80AF094FFBBE71926B9E786
S2140096481926C4E70226C2E7742E12D03FF65FAD8D
S2140096586F2E53D0732E7EF456AA102019A90AF03E
S21400966869F84FF6FF7019AA14A917F0B7F8FEF7AD
S214009678A8BA0CF0A7F900287FF4FAAD434B1D688A
S21400968815F002057FF4F4AD19A804F0F5F99DF875
S21400969866309DF867209B1ADBB2802B7FF6E8AD14
S2140096A89DF86530002B3FF4E3AD0CF08BF92A46A5
S2140096B894F840120DF094F8E0B9294615F0F6FE35
S2140096C809238DF8503094F84132022114A88DF8F9
S2140096D851301BF0E2FF024610B91925FEF79ABD75
S2140096E8012329464FF6FF7015F0C8FB00287EF4C4
S2140096F891ADF2E740F60C45FEF78CBD14A9102094
S2140097080AF018F80AF050F818900AF00BF8054610
S2140097180AF008F8DBF8002001461318CBF80030EA
S21400972814A895B113F03EFF074619AE14AD0FCD39
S2140097380FC62B68384633600AF02DF8102019A992
S2140097480AF03BF81D98FEF73CBA13F0BDFEEBE7AF
S2140097580AF017F8054614A9082009F0EBFF19A91E
S214009768082009F0E7FF284619AA14A916F0FEFFF4
S214009778FEF727BAA38FD370D4F878211B0A137183
S214009788FEF7F5B921221A92FEF7EFBE3C14002028
S2140097981A4B2DE9F041D3F89440D4F8A4309A6CCB
S2140097A8D20728D5012503F5005295649B699B06C8
S2140097B821D5EFF31187302383F3118894F8953079
S2140097C803F0FF069BB9236E314620469B689847F0
S2140097D884F89550EFF3108872B63146284628F07C
S2140097E83DFA404629F066FC022384F8A13087F348
S2140097F81188BFF36F8FBDE8F08100BF08290020ED
S214009808C6E72DE9F04F00264FF48027A3B0CDE930
S2140098180F66CDE90A66DFF8189311960E9713AC13
S2140098280EAD0FCD0C960FC4CDF8249018AC09AD2C
S2140098380FCD0FC4A14CA24D04F511784646A14B96
S2140098489022C5F88830A04B04F51670C5F88C3001
S2140098589E4BC5F890309E4BC5F8943027F026F8F6
S214009868139713AF0FCF0FC69A4BCDF8609033609F
S21400987818AF04F52A760FCF0FC62022964BC4F8E9
S2140098889480336004F53E73C4E9A423C4F88C328C
S214009898C4F8E032012384F8E43284F8983284F875
S2140098A8DC328E4B05F18802C4F898308C4BC4F82D
S2140098B8A422C4F89C308B4BC4F8A0308A4BC4F85A
