S02500006275696C642F64656275672F6F742D6E63702D6674642D626C652D7263702E733337CC
S31508006000081400203D390108E9C10608D72D010802
S31508006010A9850408F1C10608F9C10608D72D0108A3
S31508006020D72D0108D72D0108D72D0108C1C60808A4
S31508006030FDC1060840EE080865C608083FE70808D7
S31508006040012E0108D72D0108D72D0108D72D0108E3
S31508006050D72D0108D72D0108D72D0108D72D0108FE
S31508006060D72D0108D72D01080D560108D72D01088F
S31508006070D72D0108D72D0108D72D0108D72D0108DE
S31508006080D72D0108D72D0108D72D0108D72D0108CE
S31508006090D72D010859180408D72D0108D72D01084E
S315080060A0D72D01083518040811180408D72D01083A
S315080060B0D72D0108691B08083D24080801C00808EF
S315080060C0FDBF0808B11B080817C0080805C008085E
S315080060D00D24080809C008087D240808E5240808CE
S315080060E0D72D0108D72D0108D72D0108D72D01086E
S315080060F0D72D0108D72D0108D72D0108D72D01085E
S31508006100D72D0108D72D0108D72D0108D72D01084D
S31508006110D72D0108D72D0108D72D0108D72D01083D
S31508006120D72D0108D72D0108D72D0108D72D01082D
S31508006130D72D0108D72D0108D72D0108D72D01081D
S31508006140D72D0108B59E0508D72D0108F1D90808ED
S31508006150CD050808D72D0108E1BF0808E7BF0808DC
S31508006160D72D0108D72D0108D72D0108D72D0108ED
S31508006180F0B5114A114C124E00F00105E3695F079C
S3150800619013D40DB9334213D103EA00078F4207D14E
S315080061A00B4A1A40002A0CBF00206FF00100F0BD10
S315080061B0013AEBD16FF00200F9E74FF0FF30F6E74E
S315080061C06FF00100F3E700BF8096980000000350C7
S315080061D002000100000000000000000000000000AE
S315080061E0013800D0FCE7704703468288C08811440E
S315080061F081429DBF1868998080180020704770B545
S3150800620005680C4625B9BDE870404B68084818472C
S315080062108B6898476A680146831A002BB8BF121A1A
S315080062202368A8BF0022BDE870400148184700BF90
S315080062305823002038B50C461146A26803469442F6
S3150800624006D00568AC420BD10260FFF7D8FFA46000
S3150800625038BD94420DD011469268002AF9D1F6E766
S315080062602A460021F9E78B68002BF0D09B688B60E3
S31508006270EDE70029F7D1002DE9D0AA681A60E6E70C
S315080062802DE9F041936805460C461646984732466E
S31508006290074621462846FFF7CDFF28680022034611
S315080062A06BB16168D3F804E0A1EB070CAEEB070805
S315080062B098EA0C0F13D4A1EB0E01002907DA4AB9A4
S315080062C0A0602C6031462846BDE8F04197E71A469B
S315080062D09B68E5E79368A3609460BDE8F081BCF12C
S315080062E0000FEBE770B5066804460D467EB18B686D
S315080062F098477368C01A002809DB20462A463146A3
S31508006300FFF798FF30463368BDE8704018472946BE
S315080063102046BDE8704072E700F5C04393F8103791
S3150800632013B102490830DDE7704700BFA428090801
S3150800633000F5C04393F8103713B102490C30D1E782
S31508006340704700BFB0280908012300F00700834002
S3150800635013F0220F09D113F0880F08D113F0440F58
S3150800636014BF01200020C000704704207047102089
S31508006370704770B504460E46E5881346828800685D
S31508006380AA4234BFA91A00211044324666F0A6FB79
S31508006390002800DAFEE7A388E288184480B2904213
S315080063A028BF2368A08022BF9B18002203F8012C6F
S315080063B0204670BD70B506460D460024AC4201D392
S315080063C0012070BD305D0134030605D466F076FB06
S315080063D00028F3D00020F4E710F04003FAD0810635
S315080063E012D5C20612D50307F4D4032307E0AC423C
S315080063F0F0D0325D013402F0C002802AEAD1013BB6
S31508006400DBB2FF2BF3D1D9E70123F8E70223F6E73E
S3150800641008B5084691B23DF0A7F9002008BD014825
S315080064201CF0B6BB3080002009F00EBE8378082B1E
S3150800643009D190F86E00C30903D000F07F005EF022
S31508006440E1BA5EF00BBB704708B5043007F008FBED
S3150800645000B1603008BD10B5D0F8A43004460BB1C1
S31508006460002010BD043007F0FBFA0028F8D0C4F865
S31508006470A4006030F5E710B590F8B53000F1B50422
S315080064801BB92146024859F077FF204610BD00BFC8
S31508006490BC28090813B590F861300246032B0C4650
S315080064A009D100230093096878321CF0FCFD00B975
S315080064B0206002B010BD0D20FBE7C06890F861307F
S315080064C0032B03D1052160301FF0ECBC70472DE982
S315080064D0F84F0746884691469A464FF0000B0A9DA4
S315080064E00BEB0904661006FB0A8638463146A847B0
S315080064F00028C4F34F0407D0D2BFA14601341FFABF
S3150800650084FBCB45ECD300263046BDE8F88F002344
S31508006510F0B5441E184601392AB91BB1024492B295
S31508006520904211D1F0BD14F8017F11F8016F082AC5
S31508006530154628BF0825B74287EA0603EDD1284441
S31508006540521B80B292B2E7E71906EBD45B00013022
S31508006550DBB280B2E4E770B583880446C0889E182B
S315080065608642154608D8206818447DF011FF002099
S31508006570A3881D44A58070BD0320FCE707B549BA6A
S31508006580ADF8061002220DF10601FFF7E4FF03B08D
S315080065905DF804FB0122DEE738B50446A388084601
S315080065A0934215460AD321687DF0F2FE0020A3889F
S315080065B022685B1B2A442260A38038BD0620FCE7BC
S315080065C00122E9E710B502220C46FFF7E5FF10B9EC
S315080065D023885BBA238010BD10B50446006842F0D4
S315080065E08AFB00232360A38010BD38B58388044640
S315080065F08B420D4605D0006842F07DFB1DB925602B
S31508006600A580002038BD0121284642F07BFC08B150
S315080066102060F5E70320F5E7F8B50F46114605466D
S315080066201446FFF7E2FF064648B944B1AA88286827
S31508006630944206D822463946AC807DF0A9FE3046FB
S31508006640F8BDA24228BF22463946AA807DF0A0FEA0
S31508006650FEE710B50446006842F04DFB00232360B0
S3150800666010BD2DE9F04104460D4621B9FFF7F1FFAB
S315080066700020BDE8F081D0F8008008467DF01CFFB8
S315080066800646471CB8F1000F04D040467DF014FFBB
S31508006690B04209D03946012042F034FC064648B1DA
S315080066A0206842F028FB26603A46294620687DF095
S315080066B06FFEDDE70320DCE74368036003B1DB69AF
S315080066C0436070472DE9F041C389044601EB03088E
S315080066D01FFA88F843450D4602D90320BDE8F08124
S315080066E006464C27B84533680CD800223260124A51
S315080066F002F58051A3B9A3896581AB4200D9A5816A
S315080067000020EBE71BB17C373668BFB2EAE7607951
S31508006710C0F3410062F064FF30600028F3D1DCE783
S31508006720D66D18681E60D365B1F86036013BA1F8CE
S3150800673060360346DEE700BF582300208389428976
S315080067401944914200DDFEE789B29142818100D960
S31508006750FEE7704710B4446A34B100222346426209
S315080067605DF8044B826A18475DF8044B704710B50C
S3150800677004460221FFF7EEFF236A9C420FD1084A1E
S3150800678002F580512346D06D24681860D365B1F8A8
S315080067906036013BA1F86036002CF3D110BDFEE748
S315080067A05823002043898B4200D2FEE75B1A4381B7
S315080067B08389C2898B4294BF00235B1A0A4488BF27
S315080067C09BB2C2818381704743898B4294BFDB1A8F
S315080067D05B1A99B276E770B54489A1422FD215881B
S315080067E00D44AEB2B14201D8A54201DB641A148049
S315080067F0C4899860214489B24B2910D8343008449A
S31508006800C1F14C0189B2998018601088814228BF6D
S315080068100146998011889B88CB1A138070BD4C3924
S31508006820986889B20068986000B9FEE77B2904D8A1
S3150800683004300844C1F17C01E4E77C39F0E7002123
S31508006840E7E770B5154686B0ADF806300DF10602D5
S3150800685003ABFFF7C0FF2C46BDF810601EB9601BDE
S3150800686080B206B070BD0399324620467DF090FD91
S3150800687003A90DF1060034445EF0ECFEECE738B5EA
S315080068804589CC18AC4203DCFFF7DBFF002038BD96
S315080068900620FCE710B44C889C4203D309885DF8AF
S315080068A0044BECE706205DF8044B70472DE9F047EA
S315080068B086B017461C46ADF806300DF1060203AB46
S315080068C0DDF83880FFF787FFBDF810507DB1039ECD
S315080068D0B8F1000F11D0B94606EB050AB24513D038
S315080068E019F8011B16F8010BC0470028F6D1B4FAAF
S315080068F084F0400906B0BDE8F0872A463946304696
S3150800690085F0A2FB0028F2D12F4403A9651B0DF1DF
S315080069100600ACB25EF09EFED6E770B586B0ADF85E
S3150800692006300B4414469AB2914200D9FEE74289D2
S31508006930934200DDFEE703AB0DF10602FFF74BFFBE
S31508006940BDF810500DB906B070BD21462A46039809
S315080069507DF0A3FC03A90DF106002C445EF07AFE37
S31508006960EEE72DE9F041B0F80A800F4602EB08037E
S3150800697099B24145054616460CD3FFF7A3FE0446D1
S3150800698028B933463A4641462846FFF7C6FF204609
S31508006990BDE8F0810324FAE703781BB1012B03D085
S315080069A0002070474068DCE70430D4E52DE9F04163
S315080069B014469A180E4691B286B08C420546ADF832
S315080069C0063029D87189914228DBB0F80A804344F9
S315080069D099B2414524D3FFF775FE074648B92146C3
S315080069E0304603AB0DF10602FFF7F5FEBDF8104081
S315080069F01CB9384606B0BDE8F0812346414628460C
S31508006A00039AFFF78AFF444403A90DF106001FFA0B
S31508006A1084F85EF01FFEE9E70727EAE70627E8E7B6
S31508006A200327E6E7F8B504460E46154600F134078F
S31508006A30E3899D420BD85B1B6289E381A3892A44BB
S31508006A402B4492B29BB29A42628117D2FEE76079D2
S31508006A50C0F3410062F0C4FDD0B123680360E38946
S31508006A6020604B2B06D83430C3F14C02F918184471
S31508006A707DF08EFCE3897C33E381D9E7A3812EB1CF
S31508006A802B46324600212046FFF747FF0020F8BD77
S31508006A900320FCE7F0B50646B2420C4610461946F6
S31508006AA089B001D1A34215D36B460EAAFFF793FE10
S31508006AB0BDF804500DB909B0F0BD214630462B4645
S31508006AC0009AFFF72AFF2C4469460EA8A4B25EF086
S31508006AD0C1FDEDE7BDF838502C441D44A4B2ADB253
S31508006AE0BDF83820002AE6D0202A174628BF2027D6
S31508006AF0ED1BD21BADB2E41B3B462946ADF8382048
S31508006B0030466A46A4B2FFF79CFE3B466A462146D3
S31508006B103046FFF702FFE3E773B5054603796E894A
S31508006B2040798E42C0F3410228BF0E46C3F34003A4
S31508006B308DF80520E98901AA40098DF8043062F02C
S31508006B40AFFD0446002832D0334600222946FFF717
S31508006B502DFF48BBAB896289B34228BF33469A42A8
S31508006B6000D2FEE7A381AA79A37962F30303A3718E
S31508006B702B792279DB0963F3C71222716B79627963
S31508006B80C3F3C10363F3C4026271AB69A3612B8AC1
S31508006B9023826B8A63822B7A2372AB8DA385EB8D56
S31508006BA0E385204602B070BD2046FFF7E0FD0024CD
S31508006BB0F7E738B504460D460B882C3020F81A3C02
S31508006BC08B7800F8243C91F9031026F02CFC2979DF
S31508006BD004F12E0026F0FFFC6A79237962F341035B
S31508006BE023716B796279C3F3400363F30002627120
S31508006BF038BD0368994204BFCB690360436899426C
S31508006C0004BF0B6A43600B6A0BB1CA69DA61CB69C8
S31508006C100BB10A6A1A6200220B79C1E9072162F3ED
S31508006C2082030B71704710B5FFF7E3FFBDE810400C
S31508006C3008469CE510B50446216801B910BD2046F2
S31508006C40FFF7F1FFF8E700230B604B60026802B913
S31508006C5070470B8801330B800123106840B94888B8
S31508006C6003444B8050894B6803444B60D269EEE776
S31508006C7001330068DBB2F1E70B7910B55B0700D486
S31508006C80FEE74B79C3F3410300EB83025468A14244
S31508006C9009D10C6A546034B16479C4F341049C4246
S31508006CA01CBF002353600368994204BFCB69036085
S31508006CB0CB690BB10A6A1A620B6A0BB1CA69DA6147
S31508006CC000220B79C1E9072162F382030B7110BD1B
S31508006CD04A7970B5C2F3410214460B79061D43F092
S31508006CE004030B7156F824301BB90134E5B2042DA0
S31508006CF0F8D10B624BB90368CB610160CB6903B16C
S31508006D00196200EB8200416070BDDC69CC61D96113
S31508006D10F4E78B894989038099422CBFC3EB0102AA
S31508006D20C3EB0302DB4392B29BB2934228BF1346DE
S31508006D304380704743880288994228BF194612FA49
S31508006D4081F25B1A028043807047084A138803B9A8
S31508006D50FEE748F24E305368A3FB003010EB5300B1
S31508006D6044BF20F00040013050607047708A002010
S31508006D70814210B5044600D8FEE7FFF7E6FF091B77
S31508006D80B0FBF1F303FB1100204410BD10B5044617
S31508006D90FFF7DBFF091BC0B290FBF1F301FB130001
S31508006DA02044C0B210BD38B50D46814288BF85B2B1
S31508006DB06900044601310020FFF7DAFF2044401B32
S31508006DC038BD00B1EFE77047112313B50F22002134
S31508006DD00446ADF806307DF0BCF80223E3730023C1
S31508006DE022462374618A0DF10603052061F000FD31
S31508006DF0003818BF0120207502B010BD012A0346CD
S31508006E0030B5104601F1FF3118D111F8012F1C4693
S31508006E1013F8010BCAB1A0F14104192C98BF203010
S31508006E20A2F1410498BFC0B2192C9CBF2032D2B23D
S31508006E308242EAD000200DE0AA420BD111F8012FB8
S31508006E401C4613F8015B002AF6D12378002B14BFE1
S31508006E500120022030BD10B540B10023441E98B26F
S31508006E60814203D90133E25C002AF8D110BD08B586
S31508006E700022FFF7C3FF831E5842584108BDF0B5EC
S31508006E80054606680024062037463B780136303B1F
S31508006E90DBB2092B02D92F600C70F0BD04EB840419
S31508006EA003EB44039CB2A2424FF00000ECD206204A
S31508006EB0F3E7A0F14103052B04D83738C0B20870B0
S31508006EC000207047A0F16103052B01D85738F5E774
S31508006ED03038C0B20928F2D9072070470EB417B562
S31508006EE0044605AA52F8041B0192FFF742FA204607
S31508006EF003B0BDE8104003B070472DE9F04398464B
S31508006F004FF41603ABB0039300230646184C8DF8CE
S31508006F10103063180D4617460DF1100993F83C20FA
S31508006F20144902A8CDF80890FFF7D8FF0E2130467D
S31508006F30FFF791FF4234044433460A4600940E494B
S31508006F400E4C02A8FFF7CAFF4246394602A8FFF7C9
S31508006F5010FA21460A4A02A8FFF7C0FF4B46224606
S31508006F60102128465DF0AAFB2BB0BDE8F08300BFD0
S31508006F70A42809085228090858280908D6F908082B
S31508006F80485009080EB403B503AB53F8042B012186
S31508006F900193FFF7B2FF02B05DF804EB03B0704748
S31508006FA010B504467DF088FA01462046BDE8104033
S31508006FB0FFF700BA43688BB9094B5A684AB9586053
S31508006FC0084B40601A7CD86842F001021A7487F0B0
S31508006FD09FBA526842605A6850605860704700BF4E
S31508006FE058230020708A002038B58468D4F8605287
S31508006FF0B5B1294604F51870FFF7FBFDD4F86032E1
S315080070001BB104F51A70FFF7D5FF294604F1600095
S315080070101EF078FF20B12846BDE83840FFF7A7BB29
S3150800702038BD03685A1A11EA220138BF194643685F
S315080070305A1A13EA220338BF0B4643607047416069
S31508007040024A01460248FFF71BB900BFA4280908EF
S3150800705060230020002A00DAFEE71144EFE738B57E
S315080070600D4604461BF02BF82A4601462046BDE885
S315080070703840EFE7064B07485A69196A914208BF34
S315080070809A6901F1804104BF01329A61D7E700BFCE
S3150800709058230020742300208368984203D043684D
S315080070A0CB1A002B00DACAE77047D1E9003103F1A1
S315080070B00043013B8B4200D0EEE770470146024A87
S315080070C00248FFF7B7B800BFA428090860230020C4
S315080070D0D1E9003103F10043013B8B4200D0AEE712
S315080070E0ECE770B504461B4ED4F8785255BB04F548
S315080070F01F70FFF7E3FF04F52371174825F06CF8B6
S3150800710004F526705DF0B6FC20461BF0A5FF04F5D5
S315080071101870FFF78FFDD4F86C6296B10F4A04F524
S315080071201A70536819465B689842FBD100234E6073
S31508007130C4F86C325368984203D1814218BF0D4691
S31508007140556070BD6B6829463046C4F8783261F0E0
S3150800715057FEC9E7859F0008F0390020582300200C
S3150800716038B50C46A1F160052846FFF7BAFF204658
S315080071701EF010FE2846BDE8384041F0BCBD70B58B
S315080071800C46A1F1600605463046FFF7AAFF2046E1
S315080071901EF000FE304641F0AEFD0023C5F8A430CF
S315080071A070BD4160024A01460248FFF769B800BF50
S315080071B0B02809086423002010B5274C94F8C63176
S315080071C0033B042B47D8DFE803F003071814030032
S315080071D0BDE8104007F07CBDD4F8DC3198795DF045
S315080071E011FCD4F8DC010E22BDE81040002108F09D
S315080071F02DBABDE8104007F09DBDB4F8C4319B0711
S3150800720000D5FEE762F0C6FF7F2807D094F9D7318C
S315080072107F2B01D0984201DD84F8D7011AF04FFF81
S31508007220D4F8D831C01A002806DAD4F828120B4840
S315080072308031BDE81040B4E794F8C63194F9D70117
S31508007240022B1CBF022384F8C63107F06FFBBDE88A
S31508007250104008F085BF10BD584300207C4500202B
S315080072600146024A0248FEF7E5BF00BFB0280908F2
S31508007270642300204378FF2B04D1408840BA80B2AB
S3150800728004307047981C704708B50246FFF7F2FFAE
S31508007290104408BD38B505460C46FFF7EBFF2946EE
S315080072A082B22046BDE83840FFF75BBB38B50446D6
S315080072B0154601448C4202D30024204638BDA31C3F
S315080072C09942F9D36378FF2B02D1231D9942F3D350
S315080072D02046FFF7D9FF8842EED82378AB42ECD098
S315080072E00446E7E70423FFF7D5BAF7B50E4617466F
S315080072F0044602236A4639463046FFF7CBFA054666
S3150800730080B99DF8003023709DF80130FF2B0CD012
S315080073100221607002333A68C4F80220A2889342B8
S3150800732012D90625284603B0F0BD3946304601AACB
S31508007330FFF7D8FFD8B901236370BDF806300421DA
S315080073405BBA9BB20433E6E79BB2934228BF134667
S315080073506288A380134472899BB29A42E1D3D4F817
S315080073600230A01DC4F80630FFF7E4FCDAE705464C
S31508007370D8E773B5044601A80D461646FFF7C9FCBB
S315080073802946204601AAFFF7B0FF38B92378B34249
S3150800739005D0A18801A8FFF7CDFCF1E7172002B0B8
S315080073A070BD2DE9FF41054616460A46014601A865
S315080073B01F46FFF7DEFF044670B9BDF80820BDF882
S315080073C00680B2423B4628BF32464146284663F00D
S315080073D096FC0A9BA3F80080204604B0BDE8F0811D
S315080073E01FB514460A46014601A8FFF7C2FF10B9A1
S315080073F0DDF80A30236004B010BD73B5154601AA3E
S3150800740004461E46FFF7ECFF28B933462A462046AF
S3150800741001A9FFF73FFA02B070BDF0B517464289D9
S3150800742085B0ADF800101E468A422CBFC1EB020398
S31508007430C1EB0103C9439BB289B2994228BF1946D9
S315080074400546ADF802106A46014601A8FFF74DFF4A
S31508007450044660B9BDF80C203346974228BF174644
S3150800746028463A46BDF80A1063F049FCF45520460A
S3150800747005B0F0BDF0B51746428985B0ADF80010E5
S315080074801E468A422CBFC1EB0203C1EB0103C94366
S315080074909BB289B2994228BF19460546ADF8021033
S315080074A06A46014601A8FFF720FF044660B9BDF801
S315080074B00C2096420BD8B2423B4628BF3246284695
S315080074C0BDF80A1063F01BFC204605B0F0BD062483
S315080074D0FAE70123CEE730B585B0044615460A46D5
S315080074E0014601A8FFF745FF38B92A462046BDF8E8
S315080074F0061005B0BDE83040EBE705B030BD10B565
S3150800750002231446FFF7B6FF10B923885BBA238017
S3150800751010BD30B585B0044615460A46014601A891
S31508007520FFF727FF38B92A462046BDF8061005B0EA
S31508007530BDE83040E3E705B030BD38B5042315464D
S31508007540FFF798FF044618B928681AF0FDFD286069
S31508007550204638BD30B585B0044615460A4601466C
S3150800756001A8FFF706FF38B92A462046BDF80610D7
S3150800757005B0BDE83040E0E705B030BD0422FFF7AE
S31508007580F0B90222FFF7EDB9FF2B73B5054616468B
S315080075901C4612D18DF805304FF47F438DF8041040
S315080075A001A9ADF80630FFF7E9FF20B922463146B2
S315080075B02846FFF7D6F902B070BD8DF80010694667
S315080075C08DF80130FFF7DDFF0028F4D1002CF2D04A
S315080075D0ECE770B505460E461C46114618460BB133
S315080075E0FFF739FC22463146C3B22846BDE870404B
S315080075F0CAE707B501238DF807200DF10702FFF743
S31508007600C3FF03B05DF804FB07B552BAADF8062010
S3150800761002230DF10602FFF7B7FF03B05DF804FB7E
S3150800762037B5044610460D461AF08EFD0423019020
S31508007630294620460DEB0302FFF7A6FF03B030BD2F
S3150800764010B590F82430044643B1012B01D14369A3
S3150800765083612046A169BDE8104000E54169B1EBA8
S31508007660510F4FEA510001D9FFF782FB0023A061B1
S31508007670E38384F82530ECE790F8242042B9826841
S31508007680904205D0C2684169914201D04261D7E76C
S31508007690704710B590F8243004467BB1012B08D109
S315080076A00169C0680131FFF763FB60612046FFF797
S315080076B0C7FF2046236ABDE81040184790F82530D2
S315080076C06BB1012BF5D1426922B10369991A8A4235
S315080076D098BF530063612046BDE81040B0E7012318
S315080076E080F82530D0E90513C91AFFF7B8FCE28BF4
S315080076F0A38B9A42DDD310BD10B504461AF0DFFC01
S31508007700D4E90031E268C01A9A4202D10028A8BF1B
S31508007710013110BD2DE9F3411E461D4B0446834237
S315080077204FF000038B4115460AD217A3D3E900236D
S315080077307BF0BEFB1749144602462846FFF7CEFBE8
S31508007740154B4EF66021B4FBF3F203FB1244B4FB6F
S31508007750F1F34FF47A7801FB1344B4FBF8F72846A3
S315080077600E490097FFF7BAFB46B1284608FB1742B1
S315080077700B4902B0BDE8F041FFF7B0BB02B0BDE867
S31508007780F08100BFAFF30080005C26050000000012
S31508007790FF5B26056128090880EE36006728090878
S315080077A07628090813B5006850B14AB141B10023DB
S315080077B00068019301AB5FF093FC3BF069FF00B1F1
S315080077C0FEE702B010BD2DE9F843436C1546134495
S315080077D0026C044693420E461AD84FF000084F1919
S315080077E000F11009B74214D1636C1D44236C65641B
S315080077F09D420BD1B4F850302BB104F1100211465A
S315080078002046FFF7CFFF0023A4F85030BDE8F883E1
S31508007810FEE7B4F85030102B06D14A4649462046B2
S31508007820FFF7C0FFA4F85080B4F850305A1CA4F8EB
S315080078305020234416F8010B1A7C50401874D1E7DF
S315080078402DE9F04F1D4685B09DF8383091460293D4
S31508007850C36C826C2B4493420446884629D86FF041
S31508007860200B0F46CA466B18019300F12003ABEBB9
S31508007870000B0393019B9F421CD1E36C1D44A36C30
S31508007880E5649D426CD3B4F850302BB104F1100274
S3150800789011462046FFF786FF002194F8542002F18E
S315080078A021002044C2F10F0205B0BDE8F04F7CF07C
S315080078B050BBFEE7B4F85220102A16D104F1300066
S315080078C0024694F854600BEB00018E4206DA10F873
S315080078D0011D0131C9B201700029F4D0204603996F
S315080078E0FFF760FF0022A4F85220029B43BB3E78B4
S315080078F0B9F1000F0AD0B4F85220511CA4F852105E
S31508007900224492F8302072408AF80020B4F85020B9
S31508007910102A08D104F1100211462046FFF742FF4B
S315080079200022A4F85020B4F850200137511CA4F8BE
S3150800793050102244117C0AF1010A4E40167499E748
S31508007940B4F852209AF80060511CA4F85210224448
S3150800795092F830205640B8F1000FD7D03E70D5E7E0
S3150800796005B0BDE8F08F38B5D0E912329A42044620
S315080079700D4600D0FEE700F1300200F12001FFF7C6
S3150800798011FF002304F10F0294F855108B4200DB17
S3150800799038BD12F8011F92F820004140E95401331E
S315080079A0F2E710F5645F00F0B8805EDC10F59D4FD5
S315080079B000F0B5802CDC10F5D14F1CD01DDC10F57D
S315080079C0D24F00F0AE804EDC10F5FE4F13D010F506
S315080079D0E24F48D107207047012300F14002934047
S315080079E041F21902134240F0988013F4A06FF1D1C6
S315080079F010F13E0F37D10320704710F5D04F00F035
S31508007A00908030DB10F59F4FE4D010F59E4FF1E7DC
S31508007A1010F5725FDED013DC10F57C5FDAD002DC7D
S31508007A2010F57E5FE6E710F5765FD3D005DC10F536
S31508007A307A5FCFD010F5785FCBE710F5745FC8E7AB
S31508007A4010F5685FC6D00BDC10F56C5FC2D004DC9D
S31508007A5020F0800313F5705FBBE710F56A5FB8E79F
S31508007A6010F5665F59D0C00F704710F5165FB1D094
S31508007A701CDC10F5405F56D0F5DB10F5205FA9D069
S31508007A8007DC10F5245FA5D020F4807313F5265F74
S31508007A90B0E710F51C5F40D002DC10F51E5F98E7D2
S31508007AA010F51A5F96D010F5185F92E710F1330FAC
S31508007AB022DA10F1400F8FDA10F5065F8AD012DC51
S31508007AC010F50E5F86D020F0800305DC13F5145FF1
S31508007AD080D010F5105F7CE713F50C5F3FF47AAFA2
S31508007AE010F5085F75E710F5025F16D010F58C5F84
S31508007AF081D010F5045F6CE700F11E021A2AB2D88D
S31508007B000123934013F0A06F7FF464AF074A134232
S31508007B107FF471AF13F0050FA5D0082070471B201E
S31508007B207047052070470120704700BF004040009D
S31508007B3008B5006828B1044947F054F83BF0A8FD99
S31508007B4000B1FEE708BD00BF0900000208B50068DD
S31508007B5028B121B147F074F83BF09AFD00B1FEE771
S31508007B6008BD10B586B00446ADF80630084603AB26
S31508007B7011460DF10602FEF72EFEBDF810200AB9D1
S31508007B8006B010BD20460399FFF7E0FF03A90DF1E3
S31508007B9006005DF05FFDF0E7002307B50068019376
S31508007BA030B1202201AB47F091F83BF071FD00B1EE
S31508007BB0FEE703B05DF804FB002801DB62F064BB56
S31508007BC0704770B50C46054646220021A01C7CF07D
S31508007BD0C0F92C2305F580522380B2F8603605F5E6
S31508007BE00C56C3F12C036380B2F8623604F108011F
S31508007BF0A38006F11400FFF726F804F1100106F138
S31508007C002800FFF720F805F5B35004F118011430E1
S31508007C10FFF719F805F5B95004F120011430FFF7FC
S31508007C2012F805F5155004F128010C30FFF70BF88A
S31508007C3005F5C45004F130011C301BF08BF904F132
S31508007C40380105F5BB40BDE870401BF083B91F2914
S31508007C509DBF0068C84000F001000020704710B5BD
S31508007C600B780446FF2B04BF0A230B700B780A46D1
S31508007C700133D9B21A29117001D9172010BD20462F
S31508007C80FFF7E5FF10B90131C9B2F3E70020F5E7C0
S31508007C90FF2337B5054600248DF8073028460DF131
S31508007CA00701FFF7DCFF234601340028F6D0D8B2D7
S31508007CB003B030BDFF2337B58DF807300368054696
S31508007CC07BB1FFF7E5FF014600B9FEE70020FFF7A5
S31508007CD05DF80DF1070104462846FFF7C0FF00B915
S31508007CE01CB99DF8070003B030BD28460DF1070101
S31508007CF0013CFFF7B4FFE4B2F1E7837F024613F0D5
S31508007D000F0004D0108C022894BF00200120704771
S31508007D1010B504460C30FFF7D1F9E37A6FF3870301
S31508007D20E372238B03F08003238310BD38B5012942
S31508007D300446456832D15CF023FE237E9A0702D5B5
S31508007D40642828BF64205B0715D5A022204BB0F510
S31508007D507A7FB3F8B23128BF4FF47A70534303F5EC
S31508007D60FA73B3F57A7F06D34FF47A72B3FBF2F35C
S31508007D70984228BF1846637E0F2B02D9BC2828BF15
S31508007D80BC20A36833F07C4204D0C3F3190398429D
S31508007D9028BF1846002808BF0A2060601AF08FF925
S31508007DA06369014604F10C0098420DD06268AA4244
S31508007DB00DD0531A24680A3BE3424CBF0A222146D7
S31508007DC0BDE83840FFF746B962682160F8E738BD74
S31508007DD05843002008B531B1092914D96FF07C43FE
S31508007DE0994228BF19468368C3F319028A4208D004
S31508007DF061F319038360037EDB0702D50121FFF7D0
S31508007E0095FF002008BD0720FCE710B50389044646
S31508007E108B4205D1BDE810404FF400405CF0A4BE8B
S31508007E2001814FF400405CF045FE2089BDE8104012
S31508007E3059F0E4BC10B5027804465107437817D4C4
S31508007E40120701D5F3B110BD002BFCD1B0F8A03054
S31508007E50FBB190F83630082B1CBF082380F8363063
S31508007E60838E1906EFD4BDE810403430FEF7DEBA2B
S31508007E70002BE8D14388D80504D5E16904F1D00080
S31508007E80FFF7DDF8E17A04F13400BDE8104062F04E
S31508007E9067BE90F84630DA070AD4838EDB0507D525
S31508007EA094F83630012BCED0012384F83630CAE751
S31508007EB05CF0D4FD0028C6D1F2E7012342888B4046
S31508007EC013434380437813B9C830FFF773B8704734
S31508007ED038B5037E0546DA0735D51D4C94F890313A
S31508007EE05B0730D494F8323604F5A16203F00F0329
S31508007EF004F21460072B18BF104619F02DFF10B3B3
S31508007F0005F10C00FFF7DAF894F89021D0071AD596
S31508007F1094F89131052B10D0B4F8923199060CD407
S31508007F20C3F3001383F0010363F34102052104F54B
S31508007F30C87084F89021FFF7C0FF28460021FFF794
S31508007F40F5FE002038BD2846FFF7E2FE0D20F9E7CA
S31508007F50584300200048BBE75047002008B51B4897
S31508007F6090F89131012B03D0062B05D02BB3FEE7F1
S31508007F70BDE8084008F04EB8002190F8102480F8B3
S31508007F809111D3070ED5C2F3C303013303F00F03D0
S31508007F9063F3C602042B80F8102407D800F57E7018
S31508007FA0FFF796FFBDE8084008F04EB890F8103481
S31508007FB061F3C60380F81034F4E790F890315A0755
S31508007FC003D5B0F89231DB05ECD408BD5843002040
S31508007FD070B50578ED071DD54578012D1CD0468866
S31508007FE016F0020F18D1022D16D0C6F380057607B3
S31508007FF012D48362049B4282C362FF230374C3685C
S31508008000002908BF19460B4043610221FFF755FFB7
S31508008010284670BD0D20FCE70520FAE770B50578FF
S31508008020ED0722D54578012D21D0468816F0020F96
S315080080301DD1022D1BD0C6F38005760717D483629F
S31508008040049B002AC3624FF0FF030374C36808BF8A
S315080080504FF49672002908BF19460B4042824361C5
S315080080600121FFF72AFF284670BD0D20FCE70520F1
S31508008070FAE700230380704738B50D4604682046A2
S3150800808062F0E1FF35B140F0100080B22070000ABE
S31508008090607038BD20F01000F7E700F44052B2F5E2
S315080080A0005F034620D148F2400220F44E5020F0EB
S315080080B03F0090421ED00CD8B0F5446F1AD005D8B0
S315080080C0C8B1B0F5046018BF01207047B0F500408C
S315080080D0F9E703F44C43B3F5404F0BD04CF6404355
S315080080E0C01A18BF0120704710F4406F14BF012052
S315080080F0002070470020704738B505680C462846AA
S3150800810062F0A1FFFFF7C9FF40B1284662F09DFF64
S31508008110FF2803D02B5A0020238038BD0620FCE711
S3150800812010B50468204662F08EFFC30500D5FEE749
S31508008130A07810BD38B505680C46284662F083FF5E
S31508008140C30500D5FEE7AC7038BD00F44053B3F55F
S31508008150005F04D100F44C43B3F54C4F07D0B0F59B
S31508008160804F04D380F04000C0F380107047002091
S31508008170704710B58388032B12D9006862F063FF35
S3150800818080F480720446C2F30021FFF786FF48B9DF
S315080081908A1CC4F38123022B06D0032B17D02BB1DC
S315080081A0FF2212E00A1DF4E70232D2B22046FFF798
S315080081B0CCFF08B10232D2B2C4F38134022C08D003
S315080081C0032C09D0002C18BFFF22104610BD083218
S315080081D0EBE70232D2B2F8E70832FBE7F8B50768F0
S315080081E00E46384662F02FFF0546FFF7AEFFD0B1C0
S315080081F0384662F02AFF04462846FFF74EFF08B1C4
S315080082000234E4B2C5F38125022D07D0032D08D028
S31508008210FF2C08D000203B5B3380F8BD0234E4B263
S31508008220F6E70834FBE70620F7E710B58388044627
S31508008230022B07D9006862F017FF18B12046BDE87F
S31508008240104096E7FF2010BD38B505460C46FFF7E7
S31508008250ECFFFF2817BF2B6806201B5C00201CBFFD
S3150800826003F00703237038BD38B505460C46FFF7FB
S31508008270DCFFFF2817BF2B6806201B5C00201CBFED
S3150800828003F01803237038BD38B505460C46FFF7CA
S31508008290CCFFFF281FBF431C2A68DBB2D3581ABF7E
S315080082A000202360062038BD38B505460C46FFF782
S315080082B0BCFFFF2800D1FEE72A68431CD9B25454F4
S315080082C052FA83F3220A5A70220C240E9A70DC7032
S315080082D02B7F43F001032B7738BD00F018001028D8
S315080082E005D0A0F1180358425841C0007047042031
S315080082F0704708B54307024608D0FFF7EEFF12F0AD
S31508008300180F0CBF05300630C0B208BDFF20FCE7C9
S315080083102DE9F04F057B0688B0F8029087B0031D5B
S31508008320012D04460F4646EA090B019330D0022D6B
S315080083300CBF0322002294F816A04BEA823BBAF13E
S31508008340010F04F10E0825D0BAF1020F2FD0BAF1A9
S31508008350000F21D1A37F94F82120003B18BF0123E9
S31508008360B9F5805F4BEAC30305D0B9F5005F21D0A4
S31508008370B9F1000F29D145B1BAF1000F05D0208B0C
S31508008380618B884208BF43F04003D60721D5FEE734
S315080083900222D0E74BF4006B5146E08962F014FCE8
S315080083A00028D7D1022E18BF4BF0200BD2E74BF48A
S315080083B0406BF1E7BAF1000F40F09480617F002D21
S315080083C040F08880002940F09A80D50748BF43F4DA
S315080083D08073C2F3400243EA42253B6804A804932B
S315080083E04FF4FE032946059362F091FCE80503D491
S315080083F0012104A8FDF7F8FE2846FFF74EFE18B13E
S31508008400618B04A862F083FC04A8414662F08AFCEA
S315080084102846FFF79AFE18B1218B04A862F077FC6C
S31508008420211D04A862F07EFCBDF81430BB80A67F2F
S31508008430A6B1E37F0DF10F011E4304A88DF80F6066
S31508008440FEF7A8F83046FFF754FF411E89B204A884
S31508008450FDF7CAFE3046FDF777FF064694F8213049
S3150800846099070ED5022104A8FDF7BEFE0D230421A7
S315080084704370017004A8FDF7B7FE3B7F43F008037D
S315080084803B77AA0523880ED5032B03D094F8213011
S315080084905B0714D4022104A8FDF7A6FE6FF07F033C
S315080084A003703F2343702388032B08D194F82030A8
S315080084B00DF10F0104A88DF80F30FEF76BF80236A0
S315080084C0B1B204A8FDF790FEBDF81430BB8007B022
S315080084D0BDE8F08F00297FF478AF217F00297FF46B
S315080084E074AF0CE00DB9617FF8E7022D02D1BAF13D
S315080084F0020FF8D0208B618B88427FF466AF43F079
S31508008500400362E770B50546FFF733FEFF280446C9
S3150800851011D02E68304662F0A7FD60B1A9888C425A
S315080085200BDA305DFFF7E5FEFF2808D00444E4B215
S31508008530A142B8BFFF24204670BDFF24FBE70446CE
S31508008540F9E770B506460D46FFF76FFEFF280446A5
S3150800855009D03268105CFFF7C0FE224402440020AE
S3150800856053792B7070BD0620FCE770B506460D469C
S31508008570FFF75BFEFF28044600D1FEE73268105C71
S31508008580FFF7ABFE22440244557170BD10B5044690
S31508008590FFF74BFEFF2806D02368185CFDF7D4FECC
S315080085A00230C0B210BD0220FCE770B50646FFF7E0
S315080085B0A9FFFF2804462CD03568284662F043FDFB
S315080085C083051BD53046FFF7E1FFB188A21C93B29D
S315080085D010FA82F28A4205EB04061CDC2A5D02F0D8
S315080085E07F0213449CB210FA83F3994213DB328854
S315080085F0C2F3C7127F2A01D09942E7DC2B7803F031
S315080086000703032B05D1284662F018FF08B9013481
S31508008610A4B2E0B270BDFF24FBE738B50546FFF704
S31508008620C4FFFF28044614D02868037803F007031C
S31508008630032B04D162F002FF08B10134E4B22846E4
S31508008640FFF7A4FFAB8804449C42CCBF0620002059
S3150800865038BD0620FCE710B50446FFF7A6FFFF283D
S3150800866016BF23680020C01810BD10B50446FFF7D2
S31508008670F2FF2368C01AC0B210BD70B505468688D9
S31508008680FFF7F3FF04462846FFF780FF0444301B34
S3150800869080B270BD70B506460C46FFF7E6FF054684
S315080086A03046FFF773FF05442C44B48070BD10B5FF
S315080086B00446006862F0C7FC830503D52046BDE87A
S315080086C010401FE7FF2010BD08B55DF063F90038BC
S315080086D018BF012008BD08B55DF05CF900B102308D
S315080086E008BD00232DE9F0419EB003930AAB089319
S315080086F00823044600680D46ADF8243062F0B4FC41
S31508008700002859D020460DF10B01FFF79DFD0028E2
S3150800871052D1204603A9FFF7B7FD064600284BD1DC
S315080087200DF110084346286869689DF80B7003C365
S31508008730039819461AF05FFEA3688DF81C7019682D
S3150800874008A862F0CBFA2046FFF720FF0546204628
S31508008750FFF78BFF07462046FFF78FFFAB1EDBB2FE
S315080087600246394608A8CDF8008057F080FE204614
S31508008770FFF77BFF25680246294608A8FFF723F876
S315080087802046FFF768FF05462046FFF776FF2A468C
S315080087900346294608A80096FFF752F82046FFF731
S315080087A0F5FEA38825681B1AE91808A8FFF7DBF861
S315080087B0237F43F0100323771EB0BDE8F081002322
S315080087C02DE9F041A2B003930EAB0C93082304469F
S315080087D000680D461646ADF8343062F045FC30B1F7
S315080087E020460DF10B01FFF72FFD18B1082022B026
S315080087F0BDE8F081204603A9FFF746FD0028F5D11C
S3150800880004AF3B46286869689DF80B8003C3039844
S3150800881019461AF0F0FD31680CA88DF81C8062F034
S315080088205DFA2046FFF7B2FE851E2046FFF71DFFBC
S3150800883006462046FFF721FFEDB22B460246314693
S315080088400CA8009757F013FE2046FFF70EFF266880
S31508008850024631460CA8FEF7B6FF2046FFF7FBFE98
S3150800886006462046FFF709FF0122034631460092D5
S315080088700CA83246FEF7E4FF08A90CA8FFF773F820
S315080088802046FFF783FEA3882668181A31182A4659
S3150800889008A883F0D9FB003818BF0120C000A6E756
S315080088A00B6803604B684360037883F00203037028
S315080088B07047082208B583F0C7FBB0FA80F0400974
S315080088C008BD10B504460068FFF776F94FF0004377
S315080088D0236010BDF0B5002787B0044600680E4631
S315080088E015460597FFF768F94FF0004323601023F4
S315080088F04FF41051CDE90163074A45F440730097D8
S3150800890005A80BF060F93AF0C3FE00B1FEE7059B37
S31508008910236007B0F0BD00BF0044400408213AF0C8
S3150800892023BF01F1080313F8012D8B4200F8012B30
S31508008930F9D17047F8B507680E46384662F085FBE8
S315080089400446384662F07FFB0546FFF7A6FB04EBB4
S315080089504003DBB2FF2B13D0C5F38120022805D0D4
S31508008960032807D0002300203372F8BDFB5A338052
S315080089700123F8E7F9183046FFF7D3FF0223F2E799
S315080089800620F2E7F8B507680E46384662F05BFB44
S315080089900546384662F059FB04462846FFF77DFB34
S315080089A008B10234E4B2C5F38123022B12D0032B9B
S315080089B013D02846FFF7C9FB08B10234E4B2FF2CEE
S315080089C006D0C5F38135022D09D0032D0DD04DB142
S315080089D0062009E00234E4B2EBE70834FBE7012598
S315080089E03B5B338000203572F8BD30463919FFF7F6
S315080089F098FF0225F6E708B5044BC18000221868DF
S31508008A0082F0A6FE00B1FEE708BD00BF5023002095
S31508008A1007B50A68C0F80A204A68C0F80E206846F2
S31508008A20FFF77FFF0723094A1DF80310013B02F8E9
S31508008A30011BF9D2064B00226946186882F09EFE91
S31508008A4000B1FEE703B05DF804FB00BF908A002082
S31508008A50502300202DE9F0410446B0F86C603BF045
S31508008A600FF9E36F364AC11A94F8800000233230B2
S31508008A70A1FB00017AF01CFAA02794F881307E4306
S31508008A8003EB830300EB430000F1C80800F5AE656D
S31508008A9020467608B54230F8843B28BF3546B045AF
S31508008AA028BFB04613F08002A16F1FD0B4F86C60DF
S31508008AB07E433144491BFEF774FBA36F616F334451
S31508008AC0A367204B72189A63A378626713F0FD0FA9
S31508008AD033D094F86E00A5F57A7508EB0502491BA4
S31508008AE000F07F00BDE8F04161F08CBB94F86E3071
S31508008AF0DE090BD062F3C71384F86E30491BFEF704
S31508008B0050FB2046BDE8F041FDF790BC4144B4F85F
S31508008B106C50FEF746FB94F86E307D4343F08003B5
S31508008B2084F86E3038F01EFEA26F636F2A44A2677F
S31508008B30044A2B4463679363E3E7BDE8F08100BF0B
S31508008B4040420F00708A0020004883E71C45002039
S31508008B50F8B50446B4F86CC090F86E008C45069DCE
S31508008B60B4F8706000F07F070CD094F86E0062F3DA
S31508008B70060084F86E004FF6FF729142A4F8703032
S31508008B800CD1FEE7974206D062F306009E4284F8AF
S31508008B906E00F0D1F8BD9E42E7D1FBE74FF6FD72B5
S31508008BA0934208D8144A516313852B68C2F82A30B1
S31508008BB06B68C2F82E3094F86E30A4F86C106FF318
S31508008BC0C71384F86E3004F18400FEF749FBB4F845
S31508008BD06C304BB13BF054F8606738F0C3FDA067C2
S31508008BE02046BDE8F84035E723881B06D2D4204640
S31508008BF0BDE8F840FDF71ABC708A002013B590F856
S31508008C002030DB0717D590F8212002B9827A0B4C61
S31508008C10343004F5A163009330F8121CB4F82435F7
S31508008C20FFF796FF5BF09EFE04F59C6002B0BDE878
S31508008C30104027F0DFBF02B010BD00BF5843002028
S31508008C4010B504460C30FFF702F800B3A27A8A4240
S31508008C5005D14FF480405BF087FF002010BD4FF42C
S31508008C608040A1725BF026FF04F5B470FFF701FAA5
S31508008C7023789B06F1D4A37AE37294F8213013B9CA
S31508008C802046FFF7BBFF2046FFF7D4F8E5E70720A5
S31508008C90E4E71FB590F820300446990703F001026F
S31508008CA00ED5418C61B1F2B943F0010380F820304A
S31508008CB0FFF7A4FF204604B0BDE81040FFF7BAB896
S31508008CC08AB1002294F8203011466FF3000384F825
S31508008CD0203002AB009304F134004FF6FE73CDE961
S31508008CE00222FFF735FF04B010BDF0B590F8B43096
S31508008CF006460D4685B000F1A40400F1B407ABB9E9
S31508008D0010222146112057F02AFD60B12146FEF7B0
S31508008D101CF801F8010BB942F9D110236A4621461D
S31508008D2011205FF0DDFD012386F8B4302B4622467C
S31508008D3003CABA4218605960144603F10803F6D10B
S31508008D4005B0F0BD7FB590F8B43006460C4600F184
S31508008D50A40523B12946204619F013FFD0B11023E4
S31508008D606A46214611205FF0BBFD23462A4604F1D8
S31508008D701005144618685968083303C4AB422246DE
S31508008D80F7D10123044886F8B43004B0BDE8704032
S31508008D90FEF710B904B070BD2C7E0020F0B503684C
S31508008DA004460A463BB3D96E01B1603917462160BD
S31508008DB003F1880503F1980C3E462868696808356A
S31508008DC003C665453746F7D1B3F89A10118293F86A
S31508008DD06110C81E41424141917493F87412D174CE
S31508008DE0D4E90210D3E9AC43091B60EB0303002066
S31508008DF0C2E90613F0BD1720FCE773B514460D4605
S31508008E00064611466846FDF784FF2146BDF802303E
S31508008E10BDF80020286861F070FF044650B92B6839
S31508008E2001A9286030460193FDF734FB04460198F2
S31508008E3061F0DCFE204602B070BD38B50446006815
S31508008E400D46884202D061F0D1FE256038BD002368
S31508008E502DE9F043804687B00E4600F52671104688
S31508008E601546019317F077FE0746002845D0738903
S31508008E70002B42D0202061F0D6FF014601A8FFF75B
S31508008E80DCFF019C002C38D0314604A8FDF741FFD1
S31508008E904FF63073BDF81290ADF8083009F10403A7
S31508008EA05BBAADF80A306B8C20465BBAADF80C306D
S31508008EB02B8C02A95BBAADF80E30FEF75FFBE0B962
S31508008EC0204603A9FEF75AFBB8B94B463146204659
S31508008ED0BDF8102061F011FF78B910233121204622
S31508008EE0EA18FEF751FB40B9019005A940460594DA
S31508008EF0FDF7D0FA059861F079FE019861F076FEE3
S31508008F00384607B0BDE8F0832DE9F3411D46002336
S31508008F10884617460093064661F07AFF014668467A
S31508008F20FFF78BFF009CD4B1B8F1060F14BFA0223F
S31508008F308022012120461AF06EFA082D00D9FEE794
S31508008F402A46394620461AF0FBFC40B9CDE900040A
S31508008F5001A93046FDF79EFA019861F047FE009890
S31508008F6002B0BDE8F04161F041BE2DE9F0479846F0
S31508008F704FF2BF0A00248EB0074604A80E461546CF
S31508008F8019F0BFFCA8F11703012BADF832A0039422
S31508008F9000D9FEE72B463246022138461AF05BFA1C
S31508008FA006F135090546002849D1142101203FF06C
S31508008FB0A9FF0446002841D080F80880076030469B
S31508008FC019F04FFF29F0010102460431607204F1DD
S31508008FD00A007BF0DDF9404657F03EFF014603A83C
S31508008FE0FFF72BFFDDF80C80B8F1000F26D03146CD
S31508008FF002A8FDF78EFE31464046BDF80A30BDF898
S31508009000082061F07AFE0546C8B904A830F0ECF9E4
S315080090104146154B1548009404AAADF830A01AF03D
S3150800902042F8054658B9D7F878326360C7F87842E7
S3150800903061F0DCFD28460EB0BDE8F0870325304612
S3150800904019F00FFF29F00102034629463846043273
S31508009050FFF75AFF039861F0C9FD002CEAD02046B5
S315080090603FF049FEE6E700BF859F0008F43B002075
S315080090700A461021FEF72FBA38B5044600680D4691
S31508009080884202D061F0E4FE256038BD2DE9F04F34
S31508009090A54C042189B04FF47A70E56CFDF783FE80
S315080090A0291804F14800FDF7CAFF636CD8072DD5C7
S315080090B0062204F5005595F8F43302FB034303F53D
S315080090C00E53143305F56572934240F00581002668
S315080090D04FF0060842F2943995F8F473BE42C0F090
S315080090E0018118F0ECFFD5F82813064604A861F0AC
S315080090F033FEDFF850820499002940F00181D5F843
S3150800910028331BB917B938465BF010FC636C99070E
S3150800911008D5864D95F8E3349A0700F115810120A4
S315080091205BF004FC636C5E0726D54FF00008804FA1
S31508009130D7F800370493049A002A40F00F830125D4
S31508009140D7F804370493049A002A40F012830125BD
S315080091504FF07809D7F80C370493049E002E40F098
S315080091601583D7F80857002D40F02C83B8F1000F67
S3150800917002D102205BF0DAFB636C1D061ED56C4D2E
S3150800918095F8AB39D3B1013BDBB285F8AB39ABB94E
S3150800919007205BF0CBFBA5F5405393F8E134022B8F
S315080091A00CD157F087FC48B195F8AA39052143F048
S315080091B00203604885F8AA3927F0D4FF636C1807BC
S315080091C00AD5002604A804968DF8146023F060FBDF
S315080091D0049D002D40F02183636C990626D5564DD3
S315080091E095F8E9307BB118F06AFFD5F8EC3003F54D
S315080091F0C333A0331B1A002BBEBF95F80A3143F0C0
S31508009200010385F80A3195F81311B5F8103195F868
S315080092101221002940F03B83002A40F06383002B8B
S3150800922040F06C83D5F8100161F00BFB636C5A06AD
S3150800923020D5414EB6F8C83043B1013B9BB2A6F8DB
S31508009240C8301BB906F1C4002FF0F2FED6F8C45098
S315080092506DB1013DC6F8C4504DB9022055F092FCD7
S31508009260364829462FF0D8FF284655F08FFE334852
S315080092702CF0AFFF636CDB0540F1558300200346F5
S3150800928005462F49A1F2A466CA787AB1013AD2B244
S31508009290CA7032B1086806EB8302C2F8A406012038
S315080092A001330135232D01F10401EDD1002104EB31
S315080092B0830404F5B5540734222B04DC14F8042B74
S315080092C0002A40F02C83002840F02D83082009B09E
S315080092D0BDE8F04F5BF02ABB11790632013902F876
S315080092E0021CF1E608FB065393F898332BB918FBD2
S315080092F0069020445BF0C0FDEEE60136F6B2EBE6DA
S315080093008B69F31AB3F5FA6F0AD34B7940465B09B2
S3150800931002BFD5F874330133C5F87433FDF783FCFF
S3150800932004A8FDF7C9F9E6E65823002058430020AB
S315080093305873002038480020588300201C840020D9
S31508009340FC3900208046002095F8683713B1013BA8
S3150800935085F8683795F86A373BB1013BDBB285F883
S315080093606A3713B99C4827F0C8FE9C4E96F8607673
S3150800937037B1013FFFB286F86076B7FA87F77F09FB
S3150800938095F8E134042B00F28580DFE803F00383C7
S3150800939004648100FEE796F80C86002F4CD095F8F9
S315080093A06437434511D96FF0630095F92D1524F0FC
S315080093B024F909281CD83C2303FB0848884E08F5DD
S315080093C03A5808F10C08B04503D1864827F066FEDE
S315080093D012E0B37F03F00F03072B07D16FF063008A
S315080093E096F9251024F009F9092801D83C36EAE748
S315080093F00221794827F0B6FED5F87C677A4B9E425B
S315080094007FF490AEA6F5257027F04EFF774B784887
S31508009410C5F884374FF6FF73A5F8903701237549C9
S31508009420C5F8800785F89837FDF7A2FCC5F88807C0
S315080094303046FEF705F975E6B8F1000F2AD06E48F2
S315080094402FF058F895F86337834223D801216B48E3
S3150800945029F0FCF809E096F80C36CBB166482FF0EF
S3150800946049F895F863379842F0D29FB196F80C26DA
S3150800947095F865379A4203D90321604829F0E6F83A
S31508009480554827F049FE28B9534829F067F901E0FD
S31508009490002FF5D100230493052304A88DF8143072
S315080094A04FF0010823F0F4F9DDF81090B9F1000F38
S315080094B033D13C2396F80C76DFF8249103FB074753
S315080094C007F53A570C37A9F1040AA9F5146B4F4565
S315080094D075D100234A4911F8012F013350B20028EB
S315080094E0C8BF02F1FF32DBB2C8BF0A703F2BF2D108
S315080094F095F8E134042B0DD13F482EF0FBFF0928DF
S3150800950008D996F85C36013386F85C3618F0D7FD2C
S31508009510C6F8580655F0E2F904E699F81E3003F045
S315080095200F03072B39D808FA03F313F0C60F06D131
S3150800953013F0110F2DD113F0280706D0FEE74FF4CC
S315080095407A72D9F8603002FB03F709F1480023F074
S3150800955097F898B118F0B3FD4FF47A72D9F85430E9
S31508009560C01AD9F84C305343984207D399F8483073
S315080095706FF3C71389F848305BF004FE18F09FFDB7
S31508009580D9F80830C01AB84209D34946124830F00B
S315080095908FF804A823F05AF986E70027D5E795F847
S315080095A0E10461F019F80028F3D099F81E3003F0A9
S315080095B00F03012BEDD1484662F024FAE9E7B9F822
S315080095C01C10B5F8E42491421CD118F078FDC9F8AE
S315080095D0080009F13C097AE738480020585300206A
S315080095E0E4510020084A0020CC4A0020F09C0900DB
S315080095F090B20800F19C0900E0510020584900206B
S315080096006F59002018F05BFDD9F80820A94BA0EB8C
S315080096100208B9F83A20012A82BF02F57F42FE32D3
S31508009620A9F83A2099F81E20984502F00F0239D970
S3150800963099F83A10072A6FF3000189F83A1037D1DA
S3150800964095F8E124022A07D101219B482EF064FFF0
S3150800965095F8692782424DD3494604A821F031F985
S315080096601A21964804AA27F0B5FA40B999F839207C
S3150800967012F00C0F04BF42F0030289F8392099F85A
S315080096803920930714D0D11C61F3010289F83920D7
S315080096904FF47A7057F037FC49460246874827F058
S315080096A0D6FA05E0072A03D195F8E124022A32D131
S315080096B099F81E2002F00F02052A2CD1494604A863
S315080096C021F0FFF81A21584604AA27F083FA10BB9E
S315080096D099F8392012F00C0F18D099F83910C1F3FF
S315080096E08102033202F0030262F3830189F839101A
S315080096F0B2B90BE0724A9045DAD9494604A821F076
S31508009700E0F81A216D4804AA27F0BFFA49466D48C1
S315080097102FF0CEFF5DE799F8392012F00C0FDCD157
S3150800972095F8E124042A7FF454AF504699F8381086
S315080097302EF086FE00287FF44CAF484657F094FC7E
S315080097400F287FF646AF604A90457FF642AFB9F8D4
S315080097501C105948890A2EF085FE3AE7D37C04A8DE
S315080097603F2B82BFC033D3744FF0010822F031FF7C
S31508009770E1E4938A33B1013B9BB2938203B9157630
S315080097804FF0010804A822F024FFDCE4B38A53B1A1
S31508009790013B9BB2B38223B9737E43B97576A6F8AB
S315080097A014904FF0010804A822F013FFD5E4F28ABA
S315080097B053080F2B38BF0F239A42F2D0F38278232F
S315080097C0B382EEE7AB8A03B9FEE7013B9BB2AB82F5
S315080097D0FBB9EB8A4FF00108AB825B009BB2782B92
S315080097E028BF782331463948EB82A5F8188061F0FE
S315080097F0B3F82946364822F0D6FE022128465AF002
S31508009800F9FB002E3FF4ADAC304622F005FE0546C6
S31508009810A9E42E464FF00108F6E7AB7F7F2B32D836
S31508009820B5F8A8207AB3B5F8AA3001339BB29A42A4
S31508009830A5F8AA3027D8EB8F0296C3F30D03FBB918
S315080098400121244A02205FF02BFF014602A8FFF7F8
S3150800985013FC029FA7B1204B204AEB1A1B11534356
S3150800986038460DF10601ADF80630FDF78AFE38B91F
S31508009870CDE9020703A859F0D3F8039861F0E8FA8E
S31508009880029861F0E5FA04A822F0E0FFA0E40139A5
S31508009890C9B285F8131100297FF4BEAC4ABB23B1BF
S315080098A0013B9BB2A5F810317BB30D48FDF782FB4F
S315080098B0B8E400BF9F860100E0510020A4480020BC
S315080098C0EF490200384800208F5F0100607A0020C7
S315080098D0647A0020C9270908004B0020A38B2EBAFA
S315080098E028840020013AD2B285F81221002AD6D05F
S315080098F095E4013AD2B285F81221D0E7013B9BB232
S31508009900A5F81031002B7FF48DAC95F8E93013B12A
S31508009910012385F8E9300548FEF7ABFBC5E704F8EF
S31508009920041C0133C8E409B0BDE8F08F6E8400203A
S315080099302DE9F04106468EB0084614461F4631F01A
S3150800994079FC102805460FD80A2840F2FA80A0F1BB
S315080099500B03052B00F2F580DFE813F08A00F3000D
S31508009960F3001A008A0012001F284FF0000022D0C8
S31508009970212D00F099801A2D5CD00EB0BDE8F0813B
S3150800998018233A4621463046FFF7EFFA0120F4E756
S3150800999096F87432002BF9D017233A4621463046FA
S315080099A0FFF7E3FA0028F1D14CF2503106F51F70A3
S315080099B0FDF755FBEAE74FF2BF06029004A818F038
S315080099C0A0FF2046ADF8326019F072FF70B314217B
S315080099D0204601AAFDF79DFD40BB284661F023FA03
S315080099E0014602A8FFF729FA029DFDB1214603A800
S315080099F0FDF78FF921462846BDF80E30BDF80C2034
S31508009A0061F07BF990B9BDF8044004A82FF00AFB71
S31508009A1022464D4908A820F0DAFF29464B4804AAF1
S31508009A20ADF8306019F06CFC00B90290029861F04C
S31508009A30DDF8ABE701222146039045481BF0D3FD2C
S31508009A40014603A8FFF7F9F9424AD2F8183C013350
S31508009A50C2F8183C039B4BB104930023304604A973
S31508009A600393FCF717FD049861F0C0F80398DEE746
S31508009A7000230F2803930FD00122214636481BF0F6
S31508009A80B2FD014603A8FFF7D8F9324AD2F8143CCA
S31508009A900133C2F8143CDDE7204604F019F8014604
S31508009AA003A8FFF7CAF9D5E7019004A818F029FF1B
S31508009AB03021204602AAFDF793FC00283DD1204616
S31508009AC003AA02A9FDF70EFCB8BB042102A8FDF7FC
S31508009AD031F9BDF80C7087B3BDF80E506DB31F4948
S31508009AE008205FF02BFE014601A8FFF7C5FADDF84E
S31508009AF00480B8F1000F20D021464046BDF80A3050
S31508009B00BDF8082061F0F9F8B8B906F5267104A879
S31508009B107FBAADF830706DBA19F084F91023312187
S31508009B20204608AAADF83250FDF767FC28B940462A
S31508009B3004A95BF0CBFE00B90190019861F088F9A1
S31508009B4024E7002019E700BF404A0020F43B002024
S31508009B501044002058730020E4430020C927090850
S31508009B60282200217AF0F5B92DE9F0410378054657
S31508009B708CB0002B41D0244BDB6B93F8801A01295B
S31508009B803BD1DFF88C80B8F8E07A07F58076B6B274
S31508009B9030463FF0B7F9044600B9FEE731460DF105
S31508009BA0060256F070FA00B1FEE75FB1BDF806602E
S31508009BB0B8F8E02AA019D8F8DC1A3E447AF0E8FB8F
S31508009BC0ADF8066002A8FFF7CBFF2846FCF753FC62
S31508009BD00E4B039004936B7893B12B8C0022ADF84F
S31508009BE02230BDF8063002A811460794ADF8203099
S31508009BF05AF0EAFF20463FF07EF80CB0BDE8F08147
S31508009C004FF44043EAE700BF708A0020F5280908A8
S31508009C105873002010B5074C94F8E43A4BB104F693
S31508009C20E420FFF7A1FF04F6CC20BDE8104018F0A9
S31508009C30AFBF10BD5873002010B50C4B0446DB6B44
S31508009C408AB093F8803A012B0ED190F8B5305BB103
S31508009C506846FFF785FF2046FCF70DFC044B01908C
S31508009C60684602935BF081FC0AB010BD708A00203A
S31508009C70F528090830B50D4604463021284691B026
S31508009C80FDF7E9F82F2820D82846694604F1B505D6
S31508009C9056F072FB29466846FDF7E9F810B1002030
S31508009CA011B030BD2046FFF7C7FF40216846FDF7D3
S31508009CB0D2F83F2805D8421C6946284692B27AF05F
S31508009CC067FB2046FFF750FFE9E70720E8E730B5CE
S31508009CD005780446A9428BB029D000F8B41BFDF7D5
S31508009CE069F92378023D023B022B8CBF002301232E
S31508009CF0022D8CBF00250125AB4218D0104BDB6B1B
S31508009D0093F8803A012B12D16846FFF729FF0D48D0
S31508009D10FCF7B1FB0C4B01900293238CADF81A307B
S31508009D202378023B022B04D968465BF01EFC0BB075
S31508009D3030BD0022684611465AF046FFF7E700BFD5
S31508009D40708A00203C7E0020032909082DE9F84F77
S31508009D509A4603780446012B89461746394E63D13D
S31508009D6021214846FDF777F8831F9BB21A2B8046B8
S31508009D7061D82379344A13F0040FC3F38001334BB7
S31508009D800AD0C4E92324C4E925341825D6F8F83BB3
S31508009D900133C6F8F83B40E00A2020812C4804F13C
S31508009DA0100BC4E92104C4E923245846C4E9253420
S31508009DB022F0D0FA054698BB237943F004032371B1
S31508009DC023896381D4F89C30002BDED1E3685BBB22
S31508009DD05146584624F08BFB054608BB4246494681
S31508009DE004F148007AF0D4FA1A4B04F1A800002FBF
S31508009DF008BF1F46184B39469F4228BF194684F8A4
S31508009E0006806571FDF72BF902212046FFF75FFFF3
S31508009E10D6F8DC3B0133C6F8DC3B2846BDE8F88FAC
S31508009E20072D08D00D2DB1D1D6F8F03B0D250133FD
S31508009E30C6F8F03BF1E7D6F8F43B07250133C6F838
S31508009E40F43BEAE758730020576400087F7100085E
S31508009E50D59E0008C0D40100C027090038B503788C
S31508009E600446012B0D4615D90121FFF730FF04F1F1
S31508009E70A800FDF723F9201D1DF046FC0722074B15
S31508009E80013A07D01978A94205D15A6804498B586E
S31508009E9001338B5038BD0833F2E700BF142909088F
S31508009EA0347F002038B504460D46037841B16BB9B6
S31508009EB00121FFF70CFFBDE838400548FDF77AB8E1
S31508009EC023B1FFF7CBFF29462046F2E738BD00BF8E
S31508009ED02C7E00200421C1E705210148BEE700BF0A
S31508009EE0747F002070B50E460546224CD0B94CF258
S31508009EF0503106F51F70FDF7B2F8D4F8C03C9E4203
S31508009F000AD1032104F61C40FFF7E1FED4F8FC3B16
S31508009F100133C4F8FC3B70BDD4F8083C0133C4F8DF
S31508009F20083CF8E701F52371134822F055F906F5C0
S31508009F3026705AF09FFDD4F8C03C9E4211D194F881
S31508009F401C3C033B012BE6D8013DEDB2042D97BF1F
S31508009F500A4B06215B1993F8A0100948BDE8704022
S31508009F607CE7042D02BFD4F80C3C0133C4F80C3C42
S31508009F70D1E700BF58730020F0390020A42809084B
S31508009F80747F00202DE9F04306680F46D6F878124C
S31508009F901C46002305460A4685B00293002A64D16A
S31508009FA0002C40F0908060F033FF014602A8FEF7CF
S31508009FB044FFDDF80880B8F1000F00F09D802A7A8A
S31508009FC007F1350929F00109182A99F8013042D113
S31508009FD0442B40D138460DF10701FFF749F80446EE
S31508009FE0002870D19DF80730012B34D10B21384653
S31508009FF003AAFDF78EFA0446002864D1BDF80C20A2
S3150800A00006F5267402F00702A2F57472404992B268
S3150800A010204620F0DCFC204657F074F83D4A06F549
S3150800A0202371D2F89C06034653BBC6F88C02C2F8C5
S3150800A0309C160123384C86F87432D4F8C03C9E42EC
S3150800A04022D1042104F61C40FFF741FED4F8043C53
S3150800A0500133C4F8043C99F801200121404619F05F
S3150800A060DAF96A7A082A15D9FEE7954246D01346E0
S3150800A070526893E75A68002A92D052685A608FE766
S3150800A0809942D6D01B68CFE7D4F8103C0133C4F800
S3150800A090103CE0E7404605F10A0119F051FC044678
S3150800A0A088B97A89BB899A4216D800233A46304637
S3150800A0B003A9CDF80C800293FEF79FFE0446039889
S3150800A0C060F094FD7CB1304621466B7A05F10A02B0
S3150800A0D0FEF71AFF029807E0404619F016FC0446F8
S3150800A0E00028E2D0EFE7204660F080FD284605B05C
S3150800A0F0BDE8F0433EF0FFBD0324E4E7002BB9D1E9
S3150800A10000293FF44DAF4B68C6F8783248E700BFE0
S3150800A110404A00205833002058730020F7B590F8BD
S3150800A120FE300546FF2B00EB03065CD1062003B084
S3150800A130F0BD6178FF29F9D0A71CBE42F6D32046A8
S3150800A140FDF7A2F88642F1D323780E2B0BD80E2BF7
S3150800A15010D8DFE803F0213E442E42420F440F0F89
S3150800A1600F0F340F4400352B2CD013D8332B36D091
S3150800A170342B36D0611B2846227889B2FDF796F82B
S3150800A1800028D3D12046FDF77FF80446B442D0D341
S3150800A1900020CCE74A2BEDD10229C7D9A378002B9A
S3150800A1A0C4D1B4F803305BBA0B3B9BB20F2BE1D991
S3150800A1B0BCE73846FCF7FEF80028DBD1B6E70229EB
S3150800A1C0D8D8B3E7204601A91BF066FC0028D1D0F1
S3150800A1D0ACE702239942CDD2A8E71023FAE7082371
S3150800A1E0F8E70423F6E70446D0E77FB50378044684
S3150800A1F04578002B4DD02D4E96F8E10460F00EFA06
S3150800A200002846D0002D3DD1294BC4E92334294BDB
S3150800A210C4E925342379C3F380015B0732D404F1FA
S3150800A2201005284622F096F860BB237943F004030C
S3150800A230237123896381D4F89C301BBBE16809BB71
S3150800A240284624F054F9E8B96D4606F59070694633
S3150800A25024F079F904AE04F148022B4603CBB34245
S3150800A260106051601D4602F10802F6D11023A37151
S3150800A2700023684663710AF011FD01230E486370D6
S3150800A280FCF798FE637813B9201D1DF03DFA04B05B
S3150800A29070BD002DFBD0201D1DF036FA00230648A0
S3150800A2A0637004B0BDE87040FCF784BE58430020D4
S3150800A2B049640008617100082C7E00202DE9F04FE2
S3150800A2C00027AB4BBDB09C6A0397002C00F00B86A9
S3150800A2D003F5005B9F629BF8E134002B6DD0A30762
S3150800A2E014D00BF5E161ABF5046020F000FF58B916
S3150800A2F00BF5E260FEF712FB00B1FEE79D4856F04B
S3150800A30001FF10205AF0D6FB5AF06EFA14F4405F9B
S3150800A31004D059F0CBFA08B15AF066FAA50510D55B
S3150800A3209BF8E334980740F1A9809BF8E154284646
S3150800A33060F052F928B1042D73D154F04FFB54F054
S3150800A340CDFA14F4827F09D0E20504D49BF8E1041F
S3150800A35060F064F910B1884826F000F8E30219D5D0
S3150800A3609BF8E10460F038F9A0B1834826F0D4FEE2
S3150800A37080B9824D95F8603663B905F5CC602BF047
S3150800A38095FE9BF8E134042B02BF95F860360A3334
S3150800A39085F86036650210D5DBF89C319BF89A1172
S3150800A3A011A81193FDF753FC024630B99BF8E13426
S3150800A3B01BB10146724826F01BFE14F40073029383
S3150800A3C000F0E0819BF8E1340BB156F0B9FE0025A8
S3150800A3D00123AA46A846A94608AA8DF820300C9259
S3150800A3E08DF83430294667480CAA56F0A2F9054676
S3150800A3F000284AD1644DB8F1000F74D14FF6FE73A8
S3150800A400B5F8A4209A4240F090805F4B039AC3F8AF
S3150800A410A860A3F8A62083F8AC70002054F0B6FD17
S3150800A420D8E04FF4FA7056F06EFD804611A820F079
S3150800A43057FADBF814130CA860F08EFC0C9D6DB966
S3150800A44011AA0821514826F020FC43460821CDE9E7
S3150800A45000554E4811AA26F07DFB70E7AB7903F04C
S3150800A4600F03012B06D1EB79082B03D102212846CD
S3150800A4705EF0BEFD0CA8FCF71FF9DFE761073FF5A4
S3150800A48060AF3D4826F0B6FB5BE73E4BCDE9125977
S3150800A490119311A82CF069FD0028A3D113994B78C4
S3150800A4A0023B062BF5D9B8F1000F03D1884601F116
S3150800A4B0040AEEE79BF807054A88800252BA80B27A
S3150800A4C092B29042F2D0B8F802305BBA9BB2984288
S3150800A4D0DFD091F804C09AF800008445E6D8D8D1B0
S3150800A4E09A42E3D8D5E7B8F80290BAF801801FFA7D
S3150800A4F089F199FA99F91FFA89F398FA98F8049361
S3150800A500DAF803001FFA88F30591039317F01CFE87
S3150800A510049BB5F8A42006469A429AF800704FF6AE
S3150800A520FF63059938D0994205D14FF6FE72164B4E
S3150800A530A3F8A42069E7B0F5967F38BF4FF496765E
S3150800A540134BA5F8A4909E4228BF1E460120A5F8E5
S3150800A550A680C5F8A86085F8AC7054F017FD9BF87E
S3150800A560E334980732D50B4822F0D8FA32E000BF18
S3150800A57058230020604A00203848002058530020FD
S3150800A580D4490020787B002058830020A448002066
S3150800A5909BC420002484002099423FF436AFB0F5CE
S3150800A5A0967F38BF4FF49676314B9E4228BF1E469B
S3150800A5B095F8AC30BB42C9D1B5F8A630039A934298
S3150800A5C001D0A5F8A680C5F8A86026E754F0D0FC07
S3150800A5D00028C8D10023274F0C9311AE32463846BF
S3150800A5E00CA92FF0E3F908B3234890F8C030002BE4
S3150800A5F052D0B03017F042FD01251F4991F8E830D6
S3150800A600DA0703D51D48CC315EF0FAFB1C4822F068
S3150800A61058FA1C4822F0ADFA28B91A48FDF729FD60
S3150800A6200230FDF726FD022D36D11AE09DF8563088
S3150800A6305907D3D53046144920F08CF830BB374635
S3150800A64095F8C0C0B035BCF1000C18BF4FF0010C2E
S3150800A6500FCF0FC53B682B704FEA4C05BCF1000FB6
S3150800A660CBD1054D95F8C030002B40F04E81FEE762
S3150800A6709BC42000787B00205883002079E00208DC
S3150800A680248400206C84002008840020B049B14846
S3150800A69020F02DFD0028E4D005274FF00008BBF870
S3150800A6A0E434AD4DDFF8B4920393013F40F07C816A
S3150800A6B0DFF8E882DFF8E892079708A80AF0EEFACA
S3150800A6C011AD039AA54808AB07A908952CF069F8B7
S3150800A6D0002800F09E81A24F97F81C3B002B00F043
S3150800A6E0EB8107F6342107F5D46017F07FFC50B9E3
S3150800A6F0022107F6342021F02DFE40F2232107F629
S3150800A700342023F0F4FE05264FF00008DFF894A263
S3150800A710DFF84892013E40F0D4814FF0010A0C96CA
S3150800A7202A468E480CA92FF041F9002800F0F1813D
S3150800A730002E00F02482B7F844395BB90221894813
S3150800A74021F008FE40F22221864823F0D0FE8648F2
S3150800A7501BF0B4FE854ED6F88C7287B12A460921BD
S3150800A760A6F5FC602CF052FA48B1384660F03EFA7D
S3150800A770002306F52470C6F88C32FCF79FFC7C484B
S3150800A7801BF010F840F604431C4213D0794B5D6C5D
S3150800A7909BF8E13405F00805002B00F0F78100214D
S3150800A7A0754822F0B6F8002800F0F08115B90320A4
S3150800A7B05AF0A0F840F604031C4218BF00236F4D58
S3150800A7C018BFC5F8A439220642BF95F8AA396FF30F
S3150800A7D0410385F8AA3914F4217F02D068482CF081
S3150800A7E0EBFA40F604231C4202D065482FF0D7F94D
S3150800A7F014F0040604F0805904F4804840F0CD8132
S3150800A800B9F1000F40F00682B8F1000F07D057489B
S3150800A8109BF89A3100F57B70037321F0E1FE95F8F9
S3150800A820E43AC3B1200316D595F8E53A9BB111AFC2
S3150800A8303946544823F087FE97E80F0005F62C3C66
S3150800A8408CE80F00102385F8EA3A0023384685F885
S3150800A850E93A0AF023FA4C4B234013B14B48FCF76C
S3150800A860A9FB14F4805FDFF8F88017D00023119352
S3150800A87008F5F86312930323D8F8C41711A88DF8BE
S3150800A8804C30022720F00DFCDDF84490B9F1000F9A
S3150800A89040F0EF8149463E482EF0BEFC36B19BF8A3
S3150800A8A0E134022B02D1012054F070FB029B7BB1EC
S3150800A8B02749284820F01BFC50B111A9244857F015
S3150800A8C06DF89DF85630990702D4324822F0F9F807
S3150800A8D09BF8E194254F48465FF0A0FE002840F01B
S3150800A8E0F381C7F8100198F8203B002B00F0498245
S3150800A8F0029B002B00F00A82274820F07DFC2648A0
S3150800A90020F0F0FC59F092FA05E205F1F80085F816
S3150800A91008310AF0C3F905F1F80005F1B00120F095
S3150800A92054F805F1F0001FF051FF48B9D5E93C018C
S3150800A93005F5807383E80300164822F0B5F8ABE600
S3150800A94005F1CC0022F093F80028F5D0A4E600BF64
S3150800A95050840020183B0020C43D0020787B00204E
S3150800A960583300208C3C0020883C00205883002067
S3150800A9705083002058230020F84A002058730020EE
S3150800A980D47C002078440020040003122C7E00208A
S3150800A9901C84002024840020783E00200000FCFF50
S3150800A9A040000300F43C0020AB7C9B072FD5CDF874
S3150800A9B01C8005F1180A08A80AF070F94846039A97
S3150800A9C008AB07A908962BF0ECFE68B128465AF0A2
S3150800A9D051F8AB7CAD4A6FF34103AB7492F81C3B5C
S3150800A9E0013B82F81C3B12E09DF85530D80601D48D
S3150800A9F09906E0D550460CA956F0D0FF9DF842209E
S3150800AA00EB7B9207D7D59DF841209A42D3D12C35B6
S3150800AA104BE69DF85530DE0602D498067FF54DAE16
S3150800AA200CA9284656F0BAFF9DF8423099077FF5DB
S3150800AA3044AE00264FF0050A9DF84170944BBAF1D2
S3150800AA40010A28D1002E3FF438AE0FCD06F1180CB6
S3150800AA50ACE80F002B6830468CF8003020F0B9FBC4
S3150800AA603369A7F5806203EA080343EA090392B249
S3150800AA703046884933611FF0AAFFF37C304643F01D
S3150800AA800103F37456F03EFB804A92F81C3B0133EF
S3150800AA9082F81C3B11E6997C8A070BD503F118004E
S3150800AAA0294604931FF056FE049B00287FF405AE42
S3150800AAB02C33C4E71E46FBE707F6342021F00DFCCD
S3150800AAC021E69AF822300BB3DAF81C30F3B1CDF848
S3150800AAD030802A4648460CA92EF068FF30B1504609
S3150800AAE059F0C8FF00238AF822300FE09DF8553048
S3150800AAF0D806EED59AF810209DF854309A42E8D137
S3150800AB00294650461FF048FF0028E2D00AF1240AD9
S3150800AB1000E69DF85530C3F30012D90603927FF577
S3150800AB20FFAD06464FF005089DF854905A4BB8F10C
S3150800AB3001080CD10EB395E80F0086F8109086E848
S3150800AB400F0086F822A03346C6F81C8012E093F858
S3150800AB50222022B9002E08BF1E462433E7E71A7CB6
S3150800AB604A45FAD11846294604931FF015FF049B57
S3150800AB700028F2D0BDF858201A84039ED0E547482D
S3150800AB80FCF79CFA464821F0A8FBE3E5002D3FF4C4
S3150800AB9011AE032059F0CAFE0CE69BF8E134414F8A
S3150800ABA0012B09D9022B21D13F4826F0B5FA18B155
S3150800ABB09BF8E3341B0719D43C48FCF77FFA0023BB
S3150800ABC03B4887F8F633FCF779FAB9F1000F21D13B
S3150800ABD0B8F1000F06D09BF89A31364887F8F83353
S3150800ABE021F0FEFC3448FFF700FB18E60823A7F817
S3150800ABF02434002331483249C7F81404C7F8180426
S3150800AC0087F82C34FCF7B4F8C7F81C042848FCF776
S3150800AC1017FDDAE7002311A8119353F08BFFD0B97B
S3150800AC201199C1B11F4FD7F8EC33994213D007F5E4
S3150800AC307B7021F011FD11A8FDF72AF8214BB3FB13
S3150800AC40F0F3C7F8F0339BF89A3107F57B7087F86D
S3150800AC50F83321F0C5FCB8F1000F07D011489BF86E
S3150800AC609A3100F57B70037321F0BAFC002EB9D136
S3150800AC70D5E599F8141029B9484657F093FC08B158
S3150800AC8089F8147011A825F005FBFDE55833002056
S3150800AC90C43D0020404A0020F43C0020C43C00206B
S3150800ACA08C3C002058830020384800205487002018
S3150800ACB060870020448700203C7E0020807F0A00B1
S3150800ACC0817F0A00C13F05003EB19BF8E0345A0770
S3150800ACD00AD507F1CC0021F021FFE3077FF503AE83
S3150800ACE0012053F0B1FFFEE5B9F1030F03D1484641
S3150800ACF053F0AAFFF1E753F085FF0028EDD0A7F53A
S3150800AD00405393F860060430C0B2F1E7A00702D5B5
S3150800AD10BC4820F0E7FA002E3CD097F83D35ABB397
S3150800AD2097F8DA35002B43D097F83034D907C3F3B0
S3150800AD30000200F1898114F401778DF8EE2000F005
S3150800AD40FF8100220121B04811AB2BF0BBFE002287
S3150800AD509046DFF8E8920C92D9F8F0A6BAF1000FFF
S3150800AD6040F0B2810CA817F0A0F911AB98469DF8EF
S3150800AD70EEA003EB4A0AC24540F0BC8154F0B0FF8E
S3150800AD803EE0029B002B7FF4BDADC4E79F4817F059
S3150800AD9057FBC5E797F8DA356BB197F83034DB0718
S3150800ADA000F1AD8014F4017745D08DF8EE60C8E760
S3150800ADB0974817F03AFC002C17DA9BF8E134022B77
S3150800ADC013D19BF82C3503F00302C3F38103934296
S3150800ADD028BF1346032B40F08980D7F8E4058D4B2E
S3150800ADE0984202D18C49FCF73AF997F83034D807DB
S3150800ADF000F13381002314F401778DF8EE30A0D1E9
S3150800AE00CEB19BF8E1045FF009FC844E02460028A7
S3150800AE1000F0988106F6584020F0CEFF96F8583C88
S3150800AE20012B08D106F65840042120F0A4FD06F6A9
S3150800AE30584020F084FE14F4047F02D0784823F0AA
S3150800AE408CFC14F0130F16D0DFF8D09199F8D13C8A
S3150800AE508BB14FF00008D9F8C067DFF8E4A1002EDF
S3150800AE6040F08081B8F1000F40F09A819BF81B37BB
S3150800AE709A0740F1878195F8C939022B1ED1E30656
S3150800AE801CD50BF5E16605F6B6120BF5E36C3346F1
S3150800AE9003CB6345106051601E4602F10802F6D1E5
S3150800AEA095F8B439032B09D102215E482CF0ECFC45
S3150800AEB05C482BF0EFFF5C482BF09EFF17B1594812
S3150800AEC02FF048F80025DFF87C81A82D574E40F072
S3150800AED06C8196F84050073506EBC50506F1380330
S3150800AEE09D4240F069813DB0BDE8F08F4FF0FF31DB
S3150800AEF0474817F07DFB4748FCF7E0F875E797F8F1
S3150800AF00C934002B3FF476AF97F8C83493B1029B47
S3150800AF1083B197F84435012B09D153F0E7FF30B1D7
S3150800AF204348022117F074FA022055F0F3FC022078
S3150800AF3055F0F0FCA1037FF55DAF0DF1300C07F27B
S3150800AF404C5EBEE80F00ACE80F00DEF8003097F85C
S3150800AF5044858CF8003054F019FE36490CA817F0D1
S3150800AF60CEFB00283FF446AFA8F10208B8F1010F5E
S3150800AF702BD811A8D7F8488517F080F80CA854F0F4
S3150800AF80C3FD10BB97F8C835032B00F088805A1C00
S3150800AF9087F8C8251822254902FB031707F5CB476A
S3150800AFA0BC460DF1300EBEE80F00ACE80F00DEF827
S3150800AFB00030414620488CF80030C7F81480FCF76A
S3150800AFC06BF841460CA855F0E7FF1C4F97F8C89454
S3150800AFD0B9F1000F3FF40EAF4FF0000A07F5BB605A
S3150800AFE017F051FA07F24C5757F8E88CB8F1000FEA
S3150800AFF059D1BAF1000F01D058F06EFC022055F075
S3150800B00089FCF7E6783E0020787B002080880020BF
S3150800B0103089002034890020E0930400583300204A
S3150800B020B03F0020087D0020D47C00205823002053
S3150800B0309C880020A48800202489002058830020AA
S3150800B040604A00202C7D002097F8C934002B3FF475
S3150800B050D1AE5D4819F09EF956E797F8C934002B2A
S3150800B0603FF4C8AE002E3FF44FAFF2E7596978694E
S3150800B070091A37EA210728BF1F461833013AF5D1BE
S3150800B080BE460DF1440CBEE80F00ACE80F00DEF832
S3150800B090003011A88CF8003055F068FF80E74B4B5C
S3150800B0A004221F46EAE73A4611A908F1100017F0EC
S3150800B0B072FE30B1437CDA075EBFCA4643F001032D
S3150800B0C04374D8F82C8091E7514651F8083B11A8EB
S3150800B0D0029316F0D7FF48B941463D4860F0B8F9E3
S3150800B0E00C9ACAF80020CDF830A0C246D046DDF842
S3150800B0F008A033E638F8023B0293D9F8F036C3B90C
S3150800B1000C21012003933DF0FDFE039B0246002817
S3150800B1103FF476AEC2E90033029B0292138159F0DE
S3150800B12015FC029A5060D9F8F0361360C9F8F02673
S3150800B13021E61A8902998A423FF41DAE1B68DEE7AA
S3150800B14000275EE696F8583C002B3FF474AE21497A
S3150800B15006F6584020F0A0FC012106F6584020F0DB
S3150800B1600AFC68E6564519D0304656F0B3FBF37C20
S3150800B170C3F3400398420CD023B1B37C980701D59A
S3150800B180D90707D5144820F0E3FB134820F0D7FC6D
S3150800B19071E618B108F101081FFA88F876695EE6C3
S3150800B1A0B9F85C3C4345EDD165E61FB108EB0500EF
S3150800B1B02CF0F3F81C3588E6B36B13B12046F16B17
S3150800B1C0984708368AE600BF20880020D8880020DD
S3150800B1D0488A002049290908B03F002038B50546A5
S3150800B1E0284609F08FFD04465FF0FCFC002CF7D1D9
S3150800B1F038BDF8B50025044600F5C04700F51350DC
S3150800B20087F81057203016F059FB04F5BE502DF07C
S3150800B2109CFC04F5005393F8902104F5075665F352
S3150800B2200002043683F8902130465FF0A5FC04F549
S3150800B2300450203021F0A2FF344B354D93F81037D7
S3150800B240B3B12B6C95F84420013B2B6482B17BB9D2
S3150800B250304A92F8341041B182F83430AB6C013B75
S3150800B260AB6413B9D36B5B689847002385F8443001
S3150800B27030465FF081FC04F5CD40703016F015FFBE
S3150800B28004F5CD405C30FBF7A7F904F5CA40283031
S3150800B29004F5C84617F0A8FA06F1680017F067FC27
S3150800B2A006F1640017F0A7FDD7F88C025FF09EFC44
S3150800B2B004F5C3405830FFF791FF04F5C2406030EB
S3150800B2C0FBF7C7F904F5BB4060301AF063FD04F5D7
S3150800B2D0B94060301CF018FA04F5B84020301CF06C
S3150800B2E013FA04F5B54068301CF00EFA04F5B540BB
S3150800B2F05C30FBF771F904F5DD5014301BF032FAB7
S3150800B3002B8803B9FEE7013B2B80F8BD5883002044
S3150800B310708A0020C018002000234FF6FF722DE91E
S3150800B320F04F094CDFF82480C4E90133E360B8F82C
S3150800B3300030A3B0934200D1FEE7A3B904210AA8BE
S3150800B34038F012FA20B1FEE758230020708A002050
S3150800B3500A9B002B00F06E856FF00042934208BFEF
S3150800B3600123C8F80430B8F8003000260133A8F8DD
S3150800B370003016F0A4FEE74DE74B606100F180410E
S3150800B3802846E3616562A661FBF759FEE34BC4E90B
S3150800B3900A66C4E90C36E24BC4E90E66A36405F1F5
S3150800B3A02C03236505F144032D2584F84060666463
S3150800B3B0E665013D1A4603F1800340F03E85D94C07
S3150800B3C004F27460C4F8605684F86856C4F86C567B
S3150800B3D0C4F8705617F075FCD34B04F23470C4F8F1
S3150800B3E088360123A4F89436032384F896364FF456
S3150800B3F04043C4F88C56A4F89836C4F89056C4F856
S3150800B4009C56C4F8A05684F8305715F059FEC74B19
S3150800B4108C222946C4F83C3704F2A46004F23C7333
S3150800B420C4F8443778F095FD7822294604F5E96092
S3150800B43078F08FFD0523C4F8C057C4F8C457C4F87C
S3150800B440C857C4F8CC57C4F8D05704F2D472013B95
S3150800B45040F0F9840525C4F83438B54B013D40F071
S3150800B460FA84B44884F8985815F02AFEFBF76DFC60
S3150800B470B14EB24B06F11C09A4F8A808A6F11007AC
S3150800B4804846C4F8AC38C4F8B468C4F8B878C4F800
S3150800B490BC5815F015FEAA4B06F14C00C4F8D03876
S3150800B4A006F12403C4F8D838A64BC4F8DC98C4F8C7
S3150800B4B0F438C4F8E058C4F8E458C4F8E858C4F8AE
S3150800B4C0EC5820F043FFC4F82079C4F8C478012763
S3150800B4D09D4B06F18800C4F81C399C4BDFF8BC92DA
S3150800B4E0C4F8C0389A4BC4F8F03820F02FFF994BAF
S3150800B4F09022C4F8583906F18403C4F85C39964B8F
S3150800B5002946C4F86C3906F1C003C4F87439934B5C
