S02500006275696C642F64656275672F7A69676265655F6E63705F756172745F68772E733337EB
S214004000081000201D1301000D9B0200119B0200EA
S214004010D5B60000159B02001D9B0200D5B6000019
S214004020D5B60000D5B60000D5B60000D5B600005F
S214004030219B020088340300D5B60000D5B60000E8
S214004040D5B60000D5B60000D5B60000E5040100E0
S214004050D5B60000D5B60000D5B60000D5B600002F
S214004060D5B60000D5B6000025730000AD9600005A
S2140040703D960000D5B60000D5B60000D5B60000C7
S214004080D5B60000D5B60000D5B60000D5B60000FF
S214004090D5B600006DB70000D5B60000D5B6000056
S2140040A0D5B600004DB700002DB70000D5B600000D
S2140040B0D5B60000D5B60000D5B600009DF00200CB
S2140040C05515030051150300E5E702006B150300C4
S2140040D0591503005DF002005D150300F9DB0200D0
S2140040E0DDF00200D5B60000D5B60000C5B600006B
S2140040F0D5B60000D5B60000D5B60000D5B600008F
S214004100D5B60000D5B60000D5B60000D5B600007E
S214004110D5B60000D5B60000D5B60000D5B600006E
S214004120D5B60000D5B60000D5B60000D5B600005E
S208004130D5B60000FB
S214004134F0B5114A114C124E00F00105E3695F0711
S21400414413D40DB9334213D103EA00078F4207D1C3
S2140041540B4A1A40002A0CBF00206FF00100F0BD85
S214004164013AEBD16FF00200F9E74FF0FF30F6E7C3
S2140041746FF00100F3E700BF80969800000003503C
S214004184020001002DE9F84F264D1646EB69012280
S21400419403F4803841F671330746EB63224BDFF8AD
S2140041A49090DA600EB9304629E007F5005404EA28
S2140041B409046F61E41BEB69B44228BF34465B070D
S2140041C42DD48B465BF8043B01EB040AAB61D34564
S2140041D40ED10423002121202B61FFF7A9FF70B91B
S2140041E42120FFF7A5FF50B959462744361BD9E7C7
S2140041F408210846FFF79CFF68B104232B610122BF
S2140042040A4BDA60B8F1000F03D00022A3F500537E
S214004214DA63BDE8F88F5BF8043BAB61D7E74FF091
S214004224FF30ECE70000035000100350002003505A
S20800423400E0FFFFA3
S2140042382DE9F74F002800F0E98077490B68984287
S214004248C0F0E6804A681344984280F0E180D1E9DD
S214004258054EEFF3118B302383F3118810F8086CA2
S21400426830F806CCF307A0F1080502D5BCF1000F1C
S21400427807D18BF31188BFF36F8F012003B0BDE819
S214004288F08F8B68D1F81090A3EBCC0330F8048C31
S21400429800938B6009F101030CF101020B61B8F180
S2140042A8000F3AD0A5EBC803DF88B3F802A0019741
S2140042B81F7806F00206FF0724D426BB019EA6EB4D
S2140042C80A06012E29D1009E0CF10202A6F1080763
S2140042D85244C1F810908F6030F8028CB8F1000F85
S2140042E81DD110F8085C20F8068C68F3000500F865
S2140042F8085C013A5A801A7868F300021A7000229D
S214004308DA803FE04EB110F8086C42446FF341067D
S21400431800F8086C00269E80DEE72B46DCE705EBF7
S214004328C809D1E900673744B9450ED310F8085CC8
S214004338013A6FF3000500F8085C002520F8065CD3
S2140043485A801A7865F30002D8E715F838504E46B2
S21400435815F0010530D010F8085C013A6FF3000537
S21400436800F8085C002592B220F8065C5A801A7895
S21400437865F300021A70C3F107023244C2F3CF0293
S214004388DA80B280002C3FD09C423DD86288002A52
S21400439808BF1C46BEF1000F06D09E4504D3BEF8E3
S2140043A80220002A18BF7346C1E905438BF311881B
S2140043B8BFF36F8F002061E7A8EB0C08B8F1010F78
S2140043C8C9D1B9F80270A9F802501744B9F80620FE
S2140043D8C2B109EBC20600250A69013A0A618A6871
S2140043E8083A8A6010F8082C20F8065C6FF300027A
S2140043F800F8082C1A785F8065F300021A70002E01
S214004408B9D17CE71646E6E71C46C3E7222035E71F
S21400441800235B69FFDE00BFF82200209A4238BFFF
S21400442888547047704710B1D1E900311847704773
S2140044382DE9F84F9846DDE90B490D9B15469A0776
S21400444806460F4623D02A460A9B03EB040A144462
S214004458A24220D10D9B9B0705D5A2EB050AD145A4
S21400446805EB0A0420D82046BDE8F88F43463946AF
S2140044782020B0470AF1010ACA450AEB0B02F5D319
S214004488A9EB04024C4588BF00222A44DCE7A24672
S214004498A5EB040BF0E702F1010B434639461AF880
S2140044A8010DB0475A46D3E74346224639462020F0
S2140044B8B0470AF1010AD2E72DE9F0479E46DDE942
S2140044C80D3CDDE90874DDE90B651CF0020F9DF86C
S2140044D828801FD10CF001094BB1B9F1000F06D0A6
S2140044E8B8F1000F02D11CF00C0F00D0013B4FF0C2
S2140044F8300A02E007F804A00134A54201D9202CAE
S214004508F8D1B9F1000F05D04FF03009A34201D910
S214004518202C1BD11CF0100F15D01CF4806F32D144
S214004528C4B1AC4201D09C422DD1651E12D0102ECB
S21400453836D11CF0200FA4F1020456D178263E5539
S21400454830266C1C7E55202C36D00DE007F80490DB
S2140045580134DBE7102E10D11CF0200F26D178246A
S2140045683C7030247C700224B8F1000F31D02D2521
S2140045783D55013421E06224F2E7022EFBD03024B8
S2140045883C700124F0E7102E12D11CF0200F2AD11F
S214004598202C11D07826651C3E55202D0CD0CFE750
S2140045A8022ECDD162247C550135F6E75824D7E78C
S2140045B8022E0CD1202C08D12024CDE90A3CCDE9C6
S2140045C808747346BDE8F04732E72546EAE725460D
S2140045D8E3E71CF0040F01D02B25C9E71CF0080FF1
S2140045E8EBD02025C4E7202CE6D05826651CD3E758
S2140045F82DE9F04391B0189E1A9F1D9C002E38D1C5
S21400460824F0100C14F4806421D11CF0200F14BF81
S2140046184FF0410E4FF0610E00260DF12008AEF166
S2140046280A0EB4FBF7F907FB19495FFA89F5B9F1E1
S214004638090F94BF30357544EDB2BC4208F8015BEB
S21400464806F10106B4FBF7F501D3202E14D11C9C05
S214004658CDF818C005941B9CCDE903749DF86440FA
S214004668CDE9016408AC0094FFF726FF11B0BDE859
S214004678F083A4463446C8E72C46D2E72DE9F04F27
S21400468895B0CDE90A23DDE91E65DDE9228B56EAF9
S2140046980502CDE90801269B39D15A0523F01009F1
S2140046A83AD419F0200F14BF4123612300240DF1DA
S2140046B8300AA3F10A07294642465B4630462BF0E5
S2140046C81BFCD2B2092A94BF3032D2194645D2B260
S2140046D875EB0B0504F101040AF8012B01D3202C15
S2140046E817D1259BCDF818900593249BDDE9080182
S2140046F8CDE903839DF88030CDE901430CAB0093E8
S214004708DDE90A23FFF7D8FE15B0BDE8F08F994615
S214004718C7E706460D46CEE70024E2E72DE9F04F48
S21400472893B0CDE90A32DDE91C530E9353EC102BF7
S214004738CDE90801104619468DED060B1E9E2CF095
S2140047488FF980B1DDE906014FF0FF32C64B2CF039
S214004758AFF940B9DDE906014FF0FF326FF4801378
S2140047682CF088F968B1DDE908019DED060B0E9B73
S2140047781E96CDE91C53DDE90A3213B0BDE8F04FAA
S21400478887E10022DDE9060100232CF073F90028F2
S21400479800F03381DDE906A303F1004BCBF30A50A2
S2140047A816F48063A0F2FF3008BF06250F932BF09F
S2140047B885FE9DA3D3E900232BF0EAFE9CA3D3E94C
S2140047C800232BF02FFDCBF31304894644F07F51CA
S2140047D880460022A54B504641F440112BF020FDA0
S2140047E895A3D3E900232BF0D3FE02460B4640469A
S2140047F849462BF017FD2CF065F904462BF05EFEB3
S2140048088FA3D3E90023804689462BF0C1FE0022F9
S214004818974B2BF007FD2CF055F98BA3D3E9002313
S2140048280746494640462BF0B3FE8046384689463A
S2140048382BF044FE86A3D3E900232BF0A9FE0246FC
S2140048480B46404649462BF0EBFC02460B46CDE9A4
S2140048580C232BF09DFEDDE90C2380468946104686
S21400486819462BF0DFFC0022CDE91001814B4046AB
S21400487849462BF0B7FF00227F4B2BF0D3FC0246AD
S2140048880B46404649462BF0ADFF00227B4B2BF0EB
S214004898C9FC02460B46404649462BF0A3FFDDE915
S2140048A80C238046894600204FF080412BF0B8FC48
S2140048B802460B46404649462BF0B4FC02460B46D9
S2140048C8DDE910012BF08EFF07F2FF3700226C4B54
S2140048D82BF0A8FC00223B052BF05AFE52465B46FE
S2140048E8804689462CF0E4F8002840F08980CDE917
S2140048F80C8904F16303C72B34BF04270527310549
S2140049081BD555A3D3E90023504659462CF0C6F8C4
S21400491800287FD052A3D3E90023504659462CF0EE
S214004928A9F8002876D00027A542C6BF2C1B04F19C
S214004938FF3500253C4646F480660E9B9F422CBFFA
S2140049484FF00008A3EB070816F0020903D0002F63
S21400495818BF4FF000083CB1DDE90C235046594615
S2140049682BF040FF82468B46DDE906010022002335
S2140049782CF080F810B10BF100439B46DDE90801E6
S21400498826F40063CDE90183DDE90A324BEC10AB6F
S214004998009500F07EF802465FB3DDE9091316F0CD
S2140049A8200F00F10105089E0CBF65204520B04782
S2140049B8DDE908010523002205930A23002CCDE92A
S2140049C8023207F1FF374FEAD473B8BF64422A466B
S2140049D8019304970A9B0094FFF70AFE0246B9F172
S2140049E8000F06D00B9BC41A0B9B1A190E9BA342EA
S2140049F848D8104613B0BDE8F08FDDE906ABCDE623
S214004A080022404649461C4B2BF0ECFE013CCDE903
S214004A180C016EE7002D90D00F9B002B8DD0013D2A
S214004A288BE700BFAFF30080FB799F501344D33F5A
S214004A38B3C8608B288AC63F61436F63A787D23F97
S214004A4871A379094F930A401655B5BBB16B02405E
S214004A58EF39FAFE422EE63F2D431CEBE2361A3FAC
S214004A680000000080842E41FFFFEF7F0000F83F23
S214004A780000E03F00002C400000244000001840E2
S214004A880000F03F2020DDE90913089DA8470134FF
S214004A98AAE72DE9F04F5BEC10AB97B0CDE905011E
S214004AA8DDE92057CDE90723504652465B4659466E
S214004AB8229E2BF0D5FF70B90323CDE90276019329
S214004AC8AF4B0093DDE90501DDE90723FFF7B0FCEE
S214004AD817B0BDE8F08F4FF0FF326FF480135046E2
S214004AE859462BF0C7FF28B10423CDE90276019377
S214004AF8A44BE6E74FF0FF3250465946A24B2BF040
S214004B08D7FF68B1A14A06F00403002B08BF0322AA
S214004B189F4B1CBF13460422CDE902760192D0E7CC
S214004B28504693A3D3E9002359462BF0C1FF38B962
S214004B3891A3D3E90023504659462BF09BFF60B15A
S214004B48DDE90723DDE905014BEC10ABCDE921765D
S214004B58209517B0BDE8F04FE0E500220023504648
S214004B6859462BF087FF002800F09A805B4652468D
S214004B78002000212BF054FB012382468B46099324
S214004B8816F4806400F08E80092D40F28E80002492
S214004B9830210EABA5F109020134202C03F8011BC5
S214004BA8A5EB040901D09442F6D1594650462BF09D
S214004BB889FF784B054603EBC90393ED027B8DED21
S214004BC80A7B2BF07BFC02460B46504659462BF0D8
S214004BD827FBDDE90A232BF0DBFC02460B46CDE972
S214004BE80C232BF097FF80462BF058FC02460B460A
S214004BF8DDE90C012BF014FB02460B46CDE90C232D
S214004C080022654B2BF054FF002851D008F101080C
S214004C1840462BF043FC02460B46DDE90A012BF022
S214004C2833FF10B14FF000080135B9F1000F50D12D
S214004C3828462BF043FC02460B46504659462BF0B6
S214004C48EFFA0022544B804689462BF013FF30B10A
S214004C58002240464946504B2BF02AFF10B1E80781
S214004C6800D501350A210EAB1A19202C0AD095FB5F
S214004C78F1F001FB1055303502F8015B01340546AA
S214004C880028F2D106F00302012A57D1002F55D08A
S214004C98099A12B916F00C0F00D0013F302245E0F1
S214004CA809906DE74FF006097FE7A94600247CE7E0
S214004CB80022DDE90C01384B2BF0DCFE0028B4D1CD
S214004CC8B8F1000F02D018F0010FAED008F10108B5
S214004CD8ABE70A210EAB2344202C0ED0B8FBF1F02C
S214004CE801FB1082B8F1090F02F1300209F1FF3911
S214004CF804F1010403F8012B11D83021A1440EAAAF
S214004D08202CAFD0A14504F101030AD11C4609F1B5
S214004D1858030DEB03092E2309F8203CA2E780462A
S214004D28DAE7A1541C46EBE71A550134A74205D921
S214004D38202CF9D1CDE902760194C2E6202CF9D0D0
S214004D48099A3AB12D2104F158026A4402F8201C47
S214004D580134EFE7710704D504F158022B216A44A1
S214004D68F4E73207E6D504F1580220216A44EDE755
S214004D780000000065CDCD410000000065CDCDC126
S214004D88FD34030001350300FFFFEF7FF434030012
S214004D98F9340300383F03000000E03F037810B5FD
S214004DA863B94278042A09D109490A4A898F1478CE
S214004DB8522904D1048143600123037010BD018980
S214004DC8A14201D92123F6E743601170F4E700BF3A
S214004DD8F82200200C40002038B5074D084695F804
S214004DE83E401146234611221FF04CFE10B90134EE
S214004DF885F83E4038BD00BFF822002038B5027856
S214004E084C4D0446AB8F9AB942604278072A1FD1A8
S214004E18562B494A04D11378C3F16303237205E07D
S214004E28037AA3F162014B424B41137001232370AE
S214004E382178AB8F00293BD101222270627861600D
S214004E48002A36D1562B30D1B5F86C3023722FE0B5
S214004E58042A67D1562B384B01D15B78DEE7027AF5
S214004E685A70E3E7227A1A70E0E7022A02D1562B34
S214004E78324B5BE0092ADBD1562B02D195F8483035
S214004E88CCE7237A002B14BF0123002385F848308B
S214004E98CCD0294B5B88002BC8D04FF47A7105F12B
S214004EA84C0059432DF0CCFAC0E7237AA5F86C30AD
S214004EB838BD052A0DD1562B04D195F86E3043F02F
S214004EC85003C3E7237A03F00F03237285F86E3086
S214004ED8EEE7062A0DD1562B04D195F86F3043F02D
S214004EE86003B3E7237A03F00F03237285F86F3065
S214004EF8DEE7012A217006D0082AD9D1562B0DD113
S214004F0895F8703003E0562B0B4B02D11B792372B1
S214004F1801E0227A1A7101232370C9E7237A85F8FB
S214004F287030F8E7032AA0D1562B054B9AD11B7888
S214004F3874E700BFF82200206C41002015400020CE
S214004F480840002008B5054810F0ECF9BDE8084010
S214004F581022FF2102482BF0FDBD00BF744100203F
S214004F686C23002038B50F4D044695F88630B5F802
S214004F788400F32B11D10C4B1B78032B0DD1012287
S214004F8802210A4B21F09AFB10B10023A5F88430C1
S214004F982046BDE8384010F0C5B901220021034B71
S214004FA8F0E700BFF8220020D9140020EB530000D9
S214004FB8014610B100200CF0A2BA704710B5084C94
S214004FC820462BF097FE20B994E80700054B83E8A7
S214004FD80700BDE8104001214FF0FF302BF08EBED1
S214004FE8903F030080230020831E012B2DE9F0410B
S214004FF80C463CD801290ED82E4B04221B690521E5
S2140050080020C3F340130CF003F834B12A4BD3F84E
S2140050189400002849D1BDE8F081274BD3F8945076
S214005028002DF8D030272C7D244E20460AF00EF9A5
S21400503807FB0463DA6E224B9A4213D128460CF01B
S21400504815FC48B3EFF3118187F3118801231D4A35
S214005058A3405365A2F580529362536381F3118887
S214005068BFF36F8F2046BDE8F0410AF011B98B1EDA
S214005078012B0CD80128CED8BDE8F04100220D4BF4
S21400508805211B691046C3F340130BF0C1BF002966
S214005098C3D00129BAD0BEE728460CF01BFC00286E
S2140050A8E0D10123A340B364DCE7BDE8F0410CF08F
S2140050B82BBC00BF00C00350F8220020000004509C
S2140050C8B51A00200020045008B504480FF0FBF875
S2140050D8BDE8084002480FF0F6B800BF661A002080
S2140050E87C2300202DE9F047DFF868900546B9F8DC
S2140050F800000F46164698462EF03EF84FF0000A77
S2140051080446BCB1D5B15FFA8AF080450AF1010AB7
S21400511819D120462DF0D0F8411E89B220460FF04E
S2140051286DFD0FB1C30705D5FF2E04D0C0F34100AF
S214005138864200D000242046BDE8F087294620464F
S2140051480FF05CFDE1E72146B9F800002EF019F8EB
S2140051580446D6E77A1200202DE9F34106460F46A4
S21400516815460AB90DF10705012130462DF0C0F89D
S21400517820B1304601212DF0BBF806460021304606
S21400518829700FF0ECFE10F0400F2B7802D1B0F526
S214005198804F0CD2042F14D10333D9B2297010F4DF
S2140051A8406F00F0F28030460FF0D9FE17E0012479
S2140051B8991CC9B2012F297005D130460FF01EFD83
S2140051C80DE00024F4E7D91CC9B2022F297000F4B8
S2140051D84062E4D032B9032F12D14FF0FF3002B04C
S2140051E8BDE8F081591DC9B2032F297003D1B2F565
S2140051F8006FD8D0F1E7B2F5006F05D107332B70F2
S214005208042F06D12978CEE7B2F5406FF8D10D33D2
S214005218F5E714B12B7802332B70052F00F44040C5
S21400522803D1B0F5004FD8D1ECE7B0F5004F2B7896
S21400523810D102332B700D2F2C7810D030462978D9
S2140052480FF0DCFC030611D4062F804615D029780B
S214005258013119E0B0F5404FEDD10833EAE73046A2
S2140052682DF02AF88442E9DB0020B8E73046297892
S2140052780FF075FE062F804601D14046AFE710F0C6
S214005288800F2978E4D00231C9B20D2F297022D1B7
S21400529830462DF011F82B788342E5D208F03C0210
S2140052A80C2AE1D140F2037218EA020F2FD1043318
S2140052B82B7008F4E063B3F5007F08BF2B7808F47A
S2140052C8805804BF01332B70092F2BD1B8F1000F7B
S2140052D883D0297807E040F20373072F08EA030310
S2140052E807D1002BC0D1304602B0BDE8F0410FF020
S2140052F846BE13B92B7804332B70082FD9D108F47F
S214005308E060B0F5007F7FF468AF297855E708F4C9
S214005318E062B2F5007F08F4805804BF01332B70B2
S2140053281FFA88F8B8F1000F02D02B7804332B70D8
S2140053380A2FEAD00D2F0DD130462CF0BDFF2C7861
S214005348A04291D90134E4B22C70B8F1000F13D101
S214005358012044E72B780B2F03F101032B703FF451
S2140053683CAFB8F1000F3FF438AF30462CF0A4FF3E
S214005378011FC9B22970B6E730462CF09DFF0334EA
S2140053888442ACBF0020012029E7FF232B7024E7C6
S21400539838B5037A05460C463BB90A7AEAB9006876
S2140053A80B68C31A5842584138BD022B15D10B7AE0
S2140053B8022B12D108222CF0FDF970B96B7A607AAC
S2140053C883420CD0013BDBB2FD2B08D80138C0B2B3
S2140053D8FD2894BF00200120E6E70020E4E701202E
S2140053E8E2E713B50024094B2146A3F88440C723F7
S2140053F80DF10200ADF8003020F0E2FE0721684605
S2140054088DF8064022F0D8FE02B010BDF822002023
S2140054180B46002170B5064614460846FF22FFF7DD
S21400542861FE054680B12CF047FF411EC9B22846EA
S2140054380FF0D2FB2EB1238803F007030370002079
S21400544870BD03782380FAE73620F9E7FEE70023E5
S21400545807B5084601A901931FF076FA019803B02C
S2140054685DF804FB0846FEF7E3BE002313B5019378
S2140054786AB161B102FB01F401A920461FF064FA83
S214005488014620B9019810B122462BF063FB01981B
S21400549802B010BD002303604360704700232DE967
S2140054A8F347804F01937B680C469A42104604D215
S2140054B839B912B101A91FF047FA019802B0BDE840
S2140054C8F0871AB90846FEF7B3FEF6E7EFF3118839
S2140054D8302383F3118831F8063C07304FEAC309B6
S2140054E820F00705A945A1F1080C72D231F8022C64
S2140054F8002A5DD0D11A01295AD10CEBC2061CF835
S2140055083220D20754D47188A9EB050212EBC102E7
S2140055184ED41F2A31DDC5F3CF0324F8063C0133E9
S214005528601924F8023CFFF7B5FFD30834F8022CBC
S21400553843808280F288EAB17188511A11FA83F39F
S2140055489BB206EBC202C3809380002231461FF04E
S214005558B7F93046FFF79EFFBB68FA682B44A3EB03
S214005568090393420194BB6031D888F31188BFF3CE
S2140055786F8FA2E70023C380E7E73A690133013A51
S2140055883A61F2880B4424F8063C6AB17188511ACD
S21400559811FA83F39BB206EBC20224F8023C93800E
S2140055A8012231466046D2E7002324F8023CF7E79A
S2140055B8284601A91FF0C8F90028D6D14A46214630
S2140055C801982CF0EAF82046FEF732FECDE7FB609D
S2140055D8CBE764D931F8021CA9EB05064A1ED21A95
S2140055E8A9B31CF831300CEBC10ADB0730D47ABB00
S2140055F8C5F3CF0324F8063C0133601924F8023CAF
S214005608FFF748FF34F8022CBAF802308280BAF85E
S214005618062003EBD6034380BAB1BAF80210511A33
S21400562811FA83F39BB20AEBC202C380938000226E
S21400563851461FF045F95046FFF72CFFBB6801940A
S2140056481D44A5EB0905BD608FE7C280EFE78A46D3
S214005658272EF3D9C5F3CF0324F8063C0133601987
S21400566824F8023CFFF716FF013E34F8023CF60821
S21400567846808380BAF1000F0ED0013212FA86F601
S214005688B6B2C680AAF8046000223B691146013308
S2140056983B611FF015F9D1E7A0F806A0F4E70191E1
S2140056A863E700BFF822002070470122014B83F809
S2140056B82C207047F82200204FF0B0439A6A120751
S2140056C8FCD4186A7047B0F1006F0FD300F0784327
S2140056D8B3F1006F0CD000F06040B0F1404F09D035
S2140056E8B0F1604F14BF04200320704700207047B5
S2140056F801207047022070474FF0FF307047FEE7E2
S2140057080020704700207047002070472DE9F04FB2
S214005718984691B00B1E0A93AF4B914614BF83462A
S2140057289B4600241A9E98F8000070B94C4538BF6E
S21400573822464B464FF000000A9928BF09F1FF326F
S214005748D847204611B0BDE8F08F252808F1010893
S21400575806D022464B460A99651CD8472C46E2E7EF
S21400576800230DE02D2A2AD0302A06D0303A092AFE
S2140057784FF0000711D80A2532E043F001038846A7
S214005788414611F8012B2B2A1CD0EBD8202A1CD016
S214005798232A1DD02A2A2BD0002798F800202E2A44
S2140057A864D198F8011008F10102A1F13000092827
S2140057B843F4806350D800254FF00A0C26E043F0E7
S2140057C80203DCE743F00403D9E743F00803D6E70F
S2140057D843F01003D3E7884605FB0722A2F13007FB
S2140057E8414611F8012BA2F130000928F3D9D4E775
S2140057F856F8047B8846002FBCBF43F002037F425E
S214005808CBE702460CFB0511A1F13005104610F84F
S214005818011BA1F1300EBEF1090FF2D9904642469F
S21400582812F8011B6C292AD022D8682930D06A2998
S21400583839D018F8010B67287AD857284FD8452842
S21400584807D086D9462800F03681472881D143F408
S214005858006343F0200344E12A2906D156F8045B86
S21400586808F1020825EAE575D9E790460025D6E747
S214005878742901D07A29DCD143F480730EE098F8B5
S21400588801106C29F8D143F4407308F10208D0E7F8
S21400589898F80110682903D043F080039046C8E7BB
S2140058A843F0C003F1E743F40073F7E70A2A00F071
S2140058B86381072A7FF44DAF43F02103059308233D
S2140058C8CDE903531023CDE9011356F8043B2246CD
S2140058D8009358464B460A99FEF78AFEFBE0A0F16D
S2140058E858020F2A3FF635AF01A151F822F000BF43
S2140058F8695900005B5700005B5700005B570000C3
S2140059085B5700005B5700005B5700005B570000C2
S2140059185B5700005B57000069590000095B0000F0
S21400592869590000E35A0000C35A0000E35A000011
S214005938A0F16902D2B20F2A3FF60BAF012149F255
S214005948410C914011EA0C01B0D0782803F480612C
S21400595825D1002900F0908023F00D02102307E0DF
S214005968622803F4806227D1B2B923F00C0202231E
S21400597812F4007100F08380CDE907720022CDE9A9
S214005988043206F1070A2AF0070A06950292FAE890
S2140059980223CDE900233DE023F00D02E7E76F2858
S2140059A812D0692823F0100240D023F01C0209B157
S2140059B823F01D020A23DBE758280FD19ABB23F0F1
S2140059C80C0242F02002C9E719B923F00C0208239A
S2140059D8CEE723F00D02FAE72D44000042BB23F081
S2140059E81002930527D5073626F00706B2467168D3
S2140059F85AF8083B0A26CDE907720027CA0F00297D
S214005A08CDE904670695029202DA5B4261EB410132
S214005A18CDE900314B46224658460A99FEF72EFE37
S214005A28044656467FE623F00D02CAE70029D8D07A
S214005A3823F01102D5E7D00506F1040A01D533682C
S214005A4802E0510613D53378CDE904720A22002BFA
S214005A5802924FEAD37203950192B8BF5B42009355
S214005A684B46224658460A99FEF7C2FDD8E7130663
S214005A78E5D5B6F90030E7E723F00C026EE7D00567
S214005A8806F1040A06D5CDE90472CDE9023501917E
S214005A983368E4E7510608D53178CDE902350023A6
S214005AA8CDE90472CDE90013DAE7316812F0800F09
S214005AB818BF89B2F1E743F02003CDE90173073632
S214005AC826F007060095B6EC020B4B4622465846CB
S214005AD80A99FEF7DEFF044625E6672801D143F457
S214005AE80063CDE90173073626F007060095B6EC85
S214005AF8020B4B46224658460A99FEF70FFEEAE77F
S214005B0813F0020523D04FF0010A631C0B932246BC
S214005B184B460A9916F8040BD8475DB354460B9AB9
S214005B281EE04B4620200A99D8470AEB04020AF1E1
S214005B38010A5745F5D8002F07F1FF3308BF0023A1
S214005B4807F1010A1C4408BF4FF0020ADDE7AA461F
S214005B58EBE7551C4B4620200A99D8472A460134BD
S214005B68BC42F6D3A7EB0A03574538BF00230B9A67
S214005B781A440B920B9CD6E53246002D52F8046B5D
S214005B8814BF29464FF0FF310B9232463144107845
S214005B9808B18A4211D1A2EB060A13F480620C926D
S214005BA802D0AA4528BFAA4613F002030D931BD1BC
S214005BB8AAEB040322460F9308E00132E7E7531CDA
S214005BC80E9320204B460A99D8470E9A0F9BD31857
S214005BD89F42F4D8A7EB0A03574538BF00230AF1BB
S214005BE801021C4403EB020AA31B0E9304E01D46A5
S214005BF84B4622460A99D8470E9BF41816F8010B0E
S214005C0828B10C9B002BF3D06B1E002DEFD10D9BFB
S214005C1893B12246AAEB040505E0561C4B46202005
S214005C280A99D847324653199F42F6D8A7EB0A0373
S214005C38574538BF00231C440B9E74E50CB41FB5AB
S214005C4806AC54F8043B0A460094014604480394FC
S214005C58FFF75CFD04B0BDE8104002B0704700BF17
S214005C682544000038B5451E15F8014F2CB90A2101
S214005C7820460BF044FC204638BD214600200BF099
S214005C883EFCF1E71FB5034600914FF0FF3203A92B
S214005C980248FFF73BFD05B05DF804FBB94F00006E
S214005CA807B5009313460A4601460348FFF72EFD3C
S214005CB803B05DF804FB00BF254400002DE9F0435F
S214005CC82B48079F90F8924094424DD9D0F88860A8
S214005CD802EB42024FEA820C16EB820246D050894B
S214005CE8002843D0B2F90440B2F906508C42B2F903
S214005CF808E02FDCA942A8BF2946BEF1000F35D020
S214005D0800F1FF381FFA88F80EFB08490A1B92FBB9
S214005D18FEF24D45D8BF404692B2904202D3A94201
S214005D2818BF104656F80C2052F8206002EB800C7C
S214005D3818B15CF8048D46450ED08D421EBF1EFB7A
S214005D4800F1091909B2994209DC00203E60B980C1
S214005D58BDE8F0832146D0E7013880B2E8E700289E
S214005D68F3D0013880B2DFE70E20F1E70220EFE734
S214005D78F8220020FF207047004870470080FFFF89
S214005D88436813B9416070475B685A68012AFBD1BB
S214005D985960704770B500F07E63B3F17E6F0D46AC
S214005DA814468EB024D1C0F30B0601B9C2B901233C
S214005DB80195029344F00053039300232B4904A84B
S214005DC8CDE9041301A906930C93FFF7D9FF3146D2
S214005DD82DF01DF921462DF01AF92DF0C6F840B31E
S214005DE840F2931122480EB0BDE870402BF03CBD3F
S214005DF8A20737D4830735D1034624F003040219D3
S214005E08934218D141F671321A4B2C44DA630122B8
S214005E1803F50053DA60461BA54205EB06000FD1D2
S214005E2841F671320121134BDA63134AD16000221E
S214005E38DA630EB070BD1968013113D10433DFE799
S214005E4855F8043B042204A904932DF0B5F900285C
S214005E58E2D041F671320121064BDA63064AD16078
S214005E680022DA634FF49C71BCE700BF00000943C8
S214005E780635030000000350002003502DE9F743C1
S214005E880446E0070F46154604D54FF4F271364827
S214005E982BF0EAFCE90704D540F2E51132482BF06E
S214005EA8E3FC04F47043B3F5805F40D1C4F30B04FD
S214005EB82E4A04F17E646B1E2344934204D94FF4A1
S214005EC8FF7129482BF0D0FC2646DFF89C9006EB9D
S214005ED8050846453ED1A2070ED04FF6FF7337F8A1
S214005EE8022BA01E43EA024304220DEB0201019393
S214005EF8FFF750FF0234023DAB070ED0023D25F0F7
S214005F080103FB5A04226FEA03436FEA13430DEBBF
S214005F18020160190193FFF73DFF25B12A4639466D
S214005F282046FFF737FF002003B0BDE8F08304F4EF
S214005F386043B3F5005F04D1C4F30B0404F57E2474
S214005F48C2E740F2062108482BF08EFC6FF00F06D9
S214005F580024BAE716F8013BFF2BBAD040F211210D
S214005F6848462BF081FCB4E706350300FF03E00F34
S214005F78154B4FF4FC720021184610B52AF0EAFDBE
S214005F880A22124C12490261034642618461C161C9
S214005F984FF480600022014418629A625A62DA62FC
S214005FA8C3F80841C3F80C110A49C3F81001C3F82E
S214005FB81821C3F81421C3F81C2111F8010D9854B0
S214005FC80132102AF9D110BD00480020A33503007D
S214005FD8F8490020AC3F03002DE9F84F8846934661
S214005FE89946EFF3118A4FF0200181F31188204F6C
S214005FF83B78532B01D0FFF7BBFFD7F8D851D7F81B
S214006008D461B5422BD9D7F8D041D7F8CC11641B48
S2140060185C4528BF5C464046294422462BF0BDFB1B
S214006028D7F8D03125449D4208BF0025A044ABEBE5
S214006038040B761B5E4528BF5E4646B1D7F8CC11E2
S2140060483246294440462BF0A8FB3444354444B92C
S2140060588AF311881B20C9F80040BDE8F88F002491
S214006068E7E7C7F8D8518AF311880020F3E700BF9E
S2140060780048002010B5054C0548D4E942210BF02D
S2140060882FFA08B9C4F8080110BD00BFF82200208E
S214006098881C00200FB430B5134BA3B093F810211A
S2140060A8EAB10221114A02AD118080210022C3F80C
S2140060B80C51C3F80821C3F81411284627AB269AB2
S2140060C80193FFF7EDFD041E03DA3C2108482BF088
S2140060D8CBFB214628461FF071FDFFF7CBFF23B008
S2140060E8BDE8304004B07047F82200200A4000207F
S2140060F8AC3503000EB42DE9F041404BA3B0188030
S2140061083F4B02AA0026C3F80C21802229AC54F87B
S214006118045BC3F814210094C3F80861013D15F820
S214006128013F8BB3A3F13002092A07D806EB860194
S21400613803EB4103303B03F0FF06F0E7622B47D042
S21400614815D8462B38D006D8422B2BD0442B22D035
S2140061588DF804302BE0572BFAD154F8041B01A80D
S21400616820F02EF8022101A81FF028FDD7E76C2B97
S2140061781FD0702B01D0662BEAD154F8040B314699
S2140061881FF01CFD002836D0FFF774FF23B0BDE8CB
S214006198F04103B0704754F8041B01A820F010F82B
S2140061A80421E0E754F8041B01A820F009F80121AF
S2140061B8D9E714F8046BB2E7002154F8040B435CE3
S2140061C80BB9CEB2DBE70131FF29F8D10E46D6E788
S2140061D834F8048BB8F1000FA1D040462CF04EF8E6
S2140061E8074640462CF068F8014638461FF0E6FC9D
S2140061F8002894D0C8E7064691E700BF0A4000206A
S214006208F82200202DE9FF414FF0FF330024061D39
S214006218304601A98DF80C400193FFF7B9F8164FE0
S214006228054620B1154B3C801C80012509E03B88BB
S2140062383BB1DFF84880B8F800002CF09DFF044614
S21400624818B9284604B0BDE8F08120462CF016F8A8
S214006258011D3046FFF79CF8214640B1074820F05C
S214006268D1FC3B88002BE0D0013B3B80DDE7B8F84B
S21400627800002CF086FFE2E7641A0020661A002069
S2140062882DE9F041674B96B01B8805AD07C885E831
S21400629807002BB1644E30882CF06EFF044610B908
S2140062A816B0BDE8F08120462BF0E8FF011D284611
S2140062B8FFF76EF8002800F08B800026142332467D
S2140062C82146009604A82CF005FF20462BF0F4FF84
S2140062D8142805D920462BF0EFFFA0F11406B6B215
S2140062E820462BF0CBFF314614301FF0FAFB04464D
S2140062F8002869D09DF820204C4E8DF80F20B6F85F
S21400630884209DF81130002A5ED1002B0CBF812214
S21400631801229DF81C308DF82420022B5DD103CD78
S2140063280C238DF82530FF238DF827308DF828307C
S2140063388C238DF8313082238DF832309DF81D304D
S214006348CDF82D10CDF829008DF833300DA90DF1B4
S2140063582408A1EB080189B240461FF0C2FBADF83D
S21400636824002BF0A9FF012305461A4640460DF1E6
S2140063780F010EF0EBFA38BBBDF824002BF09CFF9B
S214006388074620462BF098FF391889B240460EF08B
S2140063988CFB0746C0B92046BDF824802BF08CFF3E
S2140063A8691C3B460090C9B2404622460EF0C4FD22
S2140063B8BDF824301421A6F884309DF80F301C4808
S2140063C886F886302CF03CF804A8FFF71BFF67E732
S2140063D8214630882CF0D5FE60E708228DF8252067
S2140063E8EBB9FF22059B8DF8272023B96FF072437F
S2140063F80BA90A93ABE76FF0E6420A9280228DF863
S2140064082C201A0A8DF82D308DF82E201A0C1B0E0B
S2140064188DF82F208DF830300DF1310197E70DF10A
S214006428270194E7641A0020661A0020F822002044
S214006438102400200246F0B500285DD000254FF64F
S214006448F87729464FF6FF762E4B187801284ED156
S2140064585C6814F0800F14D0A4040FD493F82C10A2
S214006468022920D093F8381002292AD14FF6FF7453
S214006478998FA14225D0914223D1F0BD9C8A94429F
S214006488FBD093F82C00022811D1188EB0420CD1FC
S21400649893F83810022914D1998FB14211D08A4244
S2140064A80FD10120E9E70146EFE78242F9D093F8D9
S2140064B83800022804D1988FB04202D08242F0D029
S2140064C8A9B1986881B211B137EA00040CD1B1EBD2
S2140064D8104F81EA104403D024F00701B9420DD1C9
S2140064E880B268B1083CA1B28A42DAD001210135EF
S2140064F8052D03F14803A8D10020BEE72146F3E79F
S2140065080721F1E7FC18002070B506460024094D5F
S21400651815F8083C012B04D129463046FEF738FF0B
S21400652830B90134052C05F14805F1D1FF2070BDBE
S214006538E0B2FCE704190020FF20704770B5104E43
S214006548054630882CF018FE044600B970BD0321B5
S21400655820460EF004FD3F2804D0214630882CF053
S21400656810FEF1E7092120460EF048FB0228F4D178
S2140065780A2120460EF042FBA842EED10120E5E7AC
S21400658878120020F8B5194E054630882CF0F4FD30
S21400659804461DE0032120460EF0E1FC45281FD1E5
S2140065A81B2120460EF02AFBA84219D105212046B9
S2140065B80EF024FB831EDBB2012B0CD82146308854
S2140065C82CF0DFFD07462146084820F01BFB3C461A
S2140065D8002CDFD1F8BDFF221B2120460EF08AFCD6
S2140065E8214630882CF0CDFDD2E700BF7812002077
S2140065F837B5144B05461B79113B012B0ED98D2454
S214006608322368460721ADF800308DF802508DF821
S214006618034021F0D1FD204603B030BDFFF78EFFC2
S2140066280028ECD1284614F017FE044618B9284668
S214006638FFF7A8FFE4E740F604439842DFD0882433
S214006648DEE700BF6C4100202DE9F041174690B008
S214006658804668460D461E4614F048FC012F1CD09E
S214006668032F0DD003240FF06DFCB0421BD031462B
S214006678404621F02EF92946404607F079FA12E0FE
S21400668818B9BDF800309907ECD41E4BB3F86C3037
S2140066989A0707D513F0080F20E01A4CB4F86C30A8
S2140066A8DA0717D40224242328686968ADF82C3042
S2140066B80CABADF82E8003C30BA810218DF83870EC
S2140066C88DF83940ADF83A6021F076FD204610B0D6
S2140066D8BDE8F081D80608D413F0200FC2D1094BC4
S2140066E8B3F86C40C4F38004BDE703AB284607AA9A
S2140066F80BA908F020FAB4F86C300028ECD09906FC
S214006708B0D4CFE7F82200201FB59B23ADF804309D
S21400671803688DF80E10CDF8063043680B2101A8E3
S214006728CDF80A3021F048FD05B05DF804FB2DE9E8
S214006738F04F8DB09DF8607091467D2F05460C464B
S2140067481A46169EBDF85CB0DDF864A003D938205A
S2140067580DB0BDE8F08FDFF86481B8F83C00362845
S21400676866D0382871D0342801D00120F0E717BB4E
S2140067784E4A1278022A19D1002D37D14FF6F773F0
S2140067889C42F2D80020A8F838B1FF230090324681
S2140067982146284620F016FB0028D9D1B37A1A9A43
S2140067A81370B37A1A9A00201370D1E7043A012AB4
S2140067B8E2D91620CCE7BAF1000F37D03B4A127858
S2140067C8022A02D0043A012AF3D814F03DFA874286
S2140067D8BDD85DB94FF6F7729442C6D839465046CA
S2140067E81FF07FF90028CED11920B1E7022D0DD170
S2140067F82F4A1278A242B8D92E4A32F814104FF609
S214006808FD729142B1D8002FBCD0E7E7012DACD17C
S2140068180AAA0DF12601E0B214F0C2FD264A92F843
S2140068282820A242A1D9BDF82610E8E721208FE744
S2140068381A9B4846CDE903A3CDE901B73346009530
S21400684814F0C6F90028ACD082E767B30793BAF10C
S214006858000FEBD0394650461FF043F9079A034617
S2140068680028C1D04FF6FF71894518BF88F83A212D
S2140068784FF6F7721CBF1049A1F82A90944208D820
S2140068884FF6FD744FF6FF7298F83B11002918BFB3
S2140068981446A8F838B13246009321462B46032002
S2140068A820F090FACEE73B46DCE700BF74130020E2
S2140068B80C4000208A1200206C410020F82200209C
S2140068C838B50C460146054631F8023BA01C237035
S2140068D81B0A637008222AF045F9AB7A04F10E0009
S2140068E8A372EB7AE3722B7B23736B7B6373296942
S2140068F8BDE838401FF064BC2DE9F04FADF5217DAA
S21400690802939DF8AC32144603934FF0FF330546C6
S21400691800220E462046062108939DF8A872FEF728
S2140069281BFC0022062104902046FEF715FC0022D8
S21400693805900A212046FEF70FFC012D5FFA80FB22
S21400694806D0042D00F0CA810DF5217DBDE8F08F34
S21400695812A807F055F9092309AD8DF848300DF54A
S214006968307CACAB2A4618685968083303C26345BE
S2140069781546F7D109A912A808F079F912A822F045
S2140069889CFF029B0DF1340A1B7A0DF11E02022BA6
S214006998029B16BF1B68D3E90001CAE90033B09B07
S2140069A808BFCAE90001CAF8083005230A218AF890
S2140069B80C302046FEF7D0FB06210DF11F022046BC
S2140069C8FEF7CAFB0C210DF11D022046FEF7C4FB9C
S2140069D89DF81F9008904946204620AA9DF81EB0AC
S2140069E814F02BF8051FEDB2F82D40F225814FF074
S2140069F8070900220A212046FEF7AEFB5FFA80FB55
S214006A08059B00220A21204603F48045FEF7A4FBD6
S214006A18C0B2E02840F08281002206212046FEF718
S214006A289BFB400640F18381012120462BF060FC49
S214006A38002800F08D81012120462BF059FC824663
S214006A48012120462BF054FC002800F08381012108
S214006A5820462BF04DFC80460B2160AA2046FEF708
S214006A687BFB40462BF028FC002280460621204669
S214006A78FEF772FB9DF88031C0F30030A8EB0308E0
S214006A880B21A8EB800860AA2046FEF765FB0023CA
S214006A985FFA88F80093514643469DF8802120A85F
S214006AA82CF018FBFF2E13D048237343B349CA189B
S214006AB8CB5CFF2B0CD053681FB9590408D4927DC1
S214006AC832B94821AD4A43F4C06301FB062253603D
S214006AD80DA819F0D5FBAA4BAA4893F93C2193F8C0
S214006AE83D1100238DF8809100EB530C9CF875C07F
S214006AF801336145DBB280F02F81062BF4D10723E2
S214006B08073B18BF01239B0104992046C1F380194F
S214006B186FF06C018A42B8BF0A46082AA8BF082246
S214006B286E3242F346021344012100228DF8813169
S214006B38FEF712FB029AC4B261AB07CA8DF882410F
S214006B4883E80700039B002D14BF012200228DF85E
S214006B5890718DF891318DF8929105D08A4B1B88EB
S214006B68B3FA83F35B095D00B09BDDF820A01543FC
S214006B7820A942460DF5D17065938DF893518DF88E
S214006B8898B1CDF89CA18DF8A0618DF8A1812AF066
S214006B9804FE0DF5027E0DF1340CBCE80F00AEE8DD
S214006BA80F00DCF800308DF84C40CEF80030C523D6
S214006BB8ADF84830BDF88031ADF84A309DF88C31D4
S214006BC88DF84D30002B40F0D080619C0DF14E00C2
S214006BD821461FF0F5FA21460DF152001FF0F0FA93
S214006BE89DF88D31B0998DF85630039B0DF15B00FA
S214006BF88DF858308DF857708DF859908DF85A5092
S214006C081FF0DEFA514618A88DF85FB01FF0D8FAC4
S214006C180DF1660182A88DF864608DF86580FFF72F
S214006C284FFE00231E21CDE900330DF5D1724346F1
S214006C3812A80DF02FFE87E6D9453FF6D8AE032FEB
S214006C484AD1ABEB09085FFA88F845450DD920AB61
S214006C5803EB0802A9EB0B032B44DBB200930121DC
S214006C680023504601921FF055FB0DF5C07B0DF131
S214006C78800A434652460121CDE9005B0DA81FF065
S214006C8849FB042208A90BEB05002AF093FD804671
S214006C9800287FF4ACAE032F11D1034602464946BE
S214006CA82046CDE900A513F0F6FE42460A21204606
S214006CB8FEF752FA00F0F000F0283FF445AE4822FE
S214006CC82E4BB09902FB06339A698A42BFF43CAE53
S214006CD84FF0000999618CE6A846C6E7AFB9FF2EC3
S214006CE806D04823254D03FB06556B685B0402D582
S214006CF84FF0060984E6AB7D002BF9D13A46012110
S214006D082046FEF729FAA861F2E700220C21204661
S214006D18FEF722FA4FF00309089071E600220A21CE
S214006D282046FEF719FAC0B2E2283FF475AE0022F4
S214006D3806212046FEF710FA00F0030001283FF46B
S214006D4873AE002D3FF470AE0298FFF799FA6BE623
S214006D58A24675E6A0467FE6022B04D9042B3FF62A
S214006D68CFAE8023D0E6C023CEE6022B01BF61ABB0
S214006D7803CBCDF84E00CDF8521031E7FC180020B2
S214006D88F8220020383F0300641A00202DE9F04F4F
S214006D988FB080460F4616469946FFF7B5FBBDF8F6
S214006DA860A00546002F39D10AAC39461022204685
S214006DB829F0D0FEFF2D02AF22D048223F4B02FB1F
S214006DC805335A68500401D49B7DCBB100220A21B2
S214006DD85046FEF7C1F9C0B2E02811D0CDF8189099
S214006DE894E80F0087E80F000023524600932946D0
S214006DF8434602200196FFF77FFD0FB0BDE8F08FEF
S214006E08CDF8189094E80F0087E80F000023019645
S214006E1800934346524629460420ECE7BB1E012B46
S214006E28EBD802ABFF280AAC099338D00428DFF861
S214006E388CB027D910220021204629F08BFE482343
S214006E4803FB05BB9BF81630D906C3F3820201D4B0
S214006E58072A1FD106B303F003039F420ABF16464C
S214006E684FF0040C4FF0010CCDF8189094E80F0082
S214006E78099C84E80F004346524629466046CDE9F9
S214006E880076B8E7482303FB00B31C330FCB84E82F
S214006E980F00D4E7002EDED04FF0040CE4E71022F3
S214006EA80021204629F056FECDF8189094E80F00E9
S214006EB8099C84E80F00CDE90076AAE7FC180020B4
S214006EC82DE9F041002286B00D210446FEF744F96C
S214006ED8002800F09D80002206212046FEF73CF997
S214006EE8C0F3072515F0050640F0928032460621C5
S214006EF82046FEF731F9070400F18A80324606215B
S214006F082046FEF729F940047AD4002201212046BB
S214006F18FEF722F905F0070506468DF81450002DF1
S214006F2879D12A4607212046FEF716F90390674FBF
S214006F38F6B297F88030B3420BD19DF8142097F834
S214006F487C30934205D1002B7FD17B6F039A9A42FF
S214006F585ED05F4B0DF10C0898E8070083E8070041
S214006F684FF4FA615B4887F880602BF069FA0022D4
S214006F7806212046FEF7F0F800F0030001284FF03F
S214006F8800026ED10A212046FEF7E6F800F0F0006F
S214006F98F0283DD0002206212046FEF7DDF810F442
S214006FA8C05FC0F3C12233D106212046FEF7D4F8CD
S214006FB802062DD465BB2A4606212046FEF7CCF8E5
S214006FC8430602D44046FFF75BF900220621204616
S214006FD8FEF7C2F80022054606212046FEF7BCF852
S214006FE80022064609212046FEF7B6F80094034616
S214006FF8C6F340324046C5F3C121FFF7C7FE07E097
S214007008062132462046FEF7A7F841067FF57DAFF3
S21400701806B0BDE8F081022DFAD105210DF10B026C
S2140070282046FEF799F820462BF028F99DF80B1015
S2140070380822014403A829F095FD002208212046CD
S214007048FEF78AF88DF8150071E7022B81D1082221
S21400705807F1740103A82AF0ADFB00287FF479AF86
S214007068D6E706212046FEF777F810F00305CFD1BD
S2140070782A4606212046FEF76FF810F4C05F11D1A5
S21400708800220A212046FEF767F800F0F000F028F4
S214007098BED000220A212046FEF75EF8C0B2E328DA
S2140070A893D1B5E72A4606212046FEF755F8C0F3E1
S2140070B8C1200228E4D02A4606212046FEF74CF8CE
S2140070C8C0F3C120032880D0A2E700BFF822002022
S2140070D86C230020744100202DE9F043022989B072
S2140070E807460E4615461C469DF84490DDF848802F
S2140070F80ED868B12C4B93F83E210132D2B283F8F1
S2140071083E212A4B1B78934202D802201AF0E2FF4F
S2140071183F2339460DF10A00ADF808301FF050F845
S21400712823888DF80F508DF811301B0A8DF8123011
S214007138638817218DF813301B0A8DF814302379CD
S2140071482D0A8DF81530637902A88DF81630E38875
S2140071588DF80E608DF817301B0A8DF818302389C5
S2140071688DF810508DF819301B0A8DF81A30A37A4E
S2140071788DF81B30BDF84030ADF81C300C4B5B78F2
S214007188402B08BF4FF000084FF0000308BFC14669
S214007198CDE9003342464B468DF81E900DF07AFB3B
S2140071A809B0BDE8F08300BFF8220020651800206B
S2140071B86C41002008B5094A034692F83F218242EE
S2140071C80AD9012100220846FDF78CFF20B1BDE848
S2140071D8084000210DF012BDFF2008BDF82200204F
S2140071E8002210B503460C4610460121FDF77AFF2B
S2140071F870B12BF043F8B0F801302380B0F80330B4
S21400720863804379237183796371C3790120A371FD
S21400721810BD70B51546002203460E4610460121DD
S214007228FDF760FF044690B12BF028F8012E14BF36
S21400723808218179204602BF49000831C9B201EB0E
S214007248450101F0FE01BDE870400DF088BE4FF61E
S214007258FF7070BD07B501460E4AC0B13F2816D06C
S214007268137A0133DBB2D079137298420CD8002314
S214007278137243230DF10200ADF800301EF0A0FF94
S2140072880621684620F098FF03B05DF804FB00234B
S214007298E9E700BF1840002070B5094D00EB400430
S2140072A8A60005EB840413F0DDF908B1FFF7D2FF5A
S2140072B8A279A188A859BDE870400EF077B800BF3B
S2140072C8184000200020E7E70120E5E70220E3E772
S2140072D80320E1E703464160EFF3108072B6034AE5
S2140072E8916A196093622BF029BE00BFF82200202D
S2140072F80246EFF3108072B6074951F8283F2BB1C3
S2140073089A4205D113680B60002313602BF016BE53
S21400731819461B68F3E700BFF82200202DE9F84F4E
S214007328EFF31189302383F311884FF0B0435B697C
S214007338584903F0010213F0080F03F00D034B61E0
S2140073480ED13AB1544A1368013313602AF00CFD83
S2140073582AF0BAFD89F31188BFF36F8FBDE8F88F5E
S2140073683AB14D4A1368013313602AF0FDFC2AF03F
S214007378ABFDEFF31185302686F311884FF0000A2F
S2140073882AF0F2FC5746DFF81881D8F838400CB1D6
S2140073986369FBB10023012F88F8483104D11AF03D
S2140073A8020F18BF88F848712AF08EFD22280CD1E3
S2140073B801223A4B83F82C204FF0B042D36B23F0CF
S2140073C80303D3630822334B9A6185F31188BFF30E
S2140073D86F8FBFE723465A693AB91A7921799142DD
S2140073E888BF1C469B68002BF5D185F31188BFF330
S2140073F86F8F2569DDB1FEF75FF9A369A0EB030A75
S2140074084FEAEA72AA4572F1000211DB2B44A36127
S214007418E36813B1204621689847B4F806A00137F8
S214007428EFF3118586F311882AF09EFCADE7AA468D
S214007438EFF3118B86F3118820462AF0A3FB8BF313
S2140074481188BFF36F8F2369002BE1D0A38BB5EBB0
S2140074580A0133B1E28B13449BB2B3F57A7F10D29C
S214007468E383EFF3118586F3118820462AF0EAFCB9
S214007478A36922691344A36185F31188BFF36F8F4C
S214007488C6E7A3F57A73E383A3690139013BA361D1
S214007498E7E700BF00200058801300206C4100205A
S2140074A8F8220020024BD3F84C012BF047BD00BF52
S2140074B8F82200202DE9F743394D044695F8503157
S2140074C80E461746002B69D0FEF7FDF8012805D9A9
S2140074D8831EDBB2012B55D9212423E0314DE2026D
S2140074E895F83430C4F3130924D5002B56D001215F
S2140074F8284607F065FF494628462B4A0DF107033C
S21400750808F007FB044688B99DF80730032B0DD012
S214007518022B0DD12846244907F0AFFF3060E86BF0
S21400752822F064FA204603B0BDE8F0832D24F6E77F
S2140075386124F4E793B3DFF870800121284607F04A
S2140075483FFF4246494628460DF1070308F0E1FA90
S21400755804460028E3D19DF80730012B0BD1D8F854
S21400756810309F420CD803463A46314628461FF04C
S21400757847FA0446D3E7022B14BF2D246024CEE72F
S2140075886324CCE7EFF3108372B62046C5F84C3177
S2140075981FF0D8FA0446FFF785FFC3E71124C1E7B2
S2140075A8F8220020701B0020141B002070472DE9CD
S2140075B8F0410027404C96B007F58130342209A9DF
S2140075C800F5C070FFF776FFE84604A806F018FB3B
S2140075D80723414604A88DF810308DF8117006F080
S2140075E88FFC9DF82430FF2B04F83A3C07D101376E
S2140075F8052F04F14804DFD116B0BDE8F0810A9DD6
S2140076089DF83530A4F11E0604F8243C44F8365C90
S21400761898E80F0086E80F0015F002032FD0DDE982
S2140076280B01A4F1320383E80300022304F82A3C82
S2140076389DF8343004F8293C9DF8463025F4C0659A
S214007648032B44F8365C04F80E3C1ED112AB03CB71
S2140076584FF6FD7344F80C0C44F8081C24F8043C58
S2140076689DF84730032B04F8023C00D0D3B914AB7E
S21400767803CB4FF6FD73206061602381B7E70B9A52
S21400768804F82A3C44F8322CD6E7002BDED0022B2E
S21400769801BFBDF8483024F80A3CBDF84A3024F843
S2140076A80C3CDDE7022B01BFBDF850306380BDF807
S2140076B8523023809BE700BF361900202DE9F041A1
S2140076C8194F054697F850310C465BB3FDF7FBFF9C
S2140076D8012805D9841EE4B2012C12D921241CE005
S2140076E8EB02C5F3130105D522681048BDE8F04142
S2140076F808F040BF13460D482246BDE8F04108F0A2
S214007708A9BEEFF3108372B6C7F84C3142B1A8B2DF
S214007718FEF7B4FB0446FFF7C5FE2046BDE8F08139
S2140077282124F8E71124F8E7F8220020701B00202F
S214007738704741F6583101482AF082BE9C41002025
S21400774870B50428054696B06AD86E463422FF21DE
S21400775809A829F0FFF91022FF21304629F0FAF986
S21400776848226A433F4CA318A25C012A44D18DF8EC
S21400777824205A680A921A7C002A53D19B680B93D5
S214007788482303FB05439A7D12F01C0F18BF1C33D1
S2140077988DF835201CBF0FCB86E80F00482303FB67
S2140077A8054191F82C20032A8DF8462045D103FB85
S2140077B80543D3F82E00D3F8321012AA03C2D3F822
S2140077C83A00D3F83E1003C2482101FB054292F85E
S2140077D83830032B8DF8473001D0002B38D101FB09
S2140077E80544D4F82E00D4F8321012AB03C3D4F8EC
S2140077F83A00D4F83E1003C305F5813009A93422AF
S21400780800F5C070FFF75AFF04A806F0F9F9072339
S214007818314604A88DF810308DF8115007F027FA75
S21400782816B070BD022AABD1D96898685B7C0BAAE3
S21400783882E803008DF83430A2E7002AB7D0022A7F
S21400784801BF0B8EADF84830CB8DADF84A30BBE79C
S214007858022B01BF938FADF85030538FADF85230DE
S214007868CAE700BFFC180020442213B500F583348D
S21400787850430E4B04F5C0741A181B5C012B07D135
S214007888136B0093042269462046FFF717FF0BE0A8
S214007898042220460DEB0201FFF70CFE4FF0FF33E3
S2140078A80093019B0133EDD102B010BD681A002089
S2140078B8704741F6583101482AF0C2BD60400020A2
S2140078C82DE9F04FDFF81C93BFB004F0B4FEB9F80A
S2140078D800002AF0F1FCDFF810B30890DBF800206F
S2140078E8937803F0030101291FD100210791052190
S2140078F8B2F80150B2F80330B64C05F00300A3877F
S214007908099010780A440021B34FC4F854213A600D
S214007918B24A15F0800584F8510111700AD0582330
S2140079283220A3870CF052F956E0012155780791CA
S2140079380321E1E794F8582122B93BB158233020B7
S214007948A387EFE72D2B33D82A2B33D8A68F9DF89D
S2140079582000562E00F22881462E00F2A780272EF9
S21400796840F2CC80304604F0F1FAA8BB304605F069
S2140079787BF988BBB6F5957F0CD2B6F5867F81F085
S214007988DE82762E01F21783662E01F2FD82142E11
S21400799801F0B38330460AF0A2F9E8B9304606F09B
S2140079A80FFCC8B9304604F020FAA8B90E2053E0F8
S2140079B8382BCBD10CF0F4F8DBF8003080460533D2
S2140079C83B60874B4FF0010A18882BF0D5FB06461C
S2140079D8FEB9BAF1000FB9D17E4BDBF8002093F858
S2140079E851111170DBF800108A78002A41F01086D1
S2140079F8079A002A01F00C869A8F8A7001219A8FBE
S214007A080998D31F5A425A413FB0BDE8F04F0CF0D0
S214007A181BBE032130460DF0A2FA312812D11221DE
S214007A2830460DF0EBF8804505D140F60F400CF0D7
S214007A38F0F84FF0000A6A4B314618882BF0A1FB85
S214007A480646C5E73228F6D1052130460DF0D6F8A9
S214007A588045F0D140F60F400CF0DBF8BCE7A6F105
S214007A688F030E2B3FF67EAF01A252F823F000BF1D
S214007A781B8E0000378E00002D8F00006D790000E9
S214007A886D790000F38E00006D7900006D790000B6
S214007A986D7900006D7900006D7900006D79000041
S214007AA86D7900006D7900009B8D0000A6F14703F4
S214007AB80F2B3FF657AF01A252F823F0BD8D0000FA
S214007AC86D790000A38C00006D7900006D790000C8
S214007AD86D7900006D790000178D0000318E00006A
S214007AE86D7900006D790000317D00007D7E000014
S214007AF86D7900002F81000079810000272E3FF65F
S214007B0831AF01A353F826F0FF7C0000B18D0000CA
S214007B189F8000004B8500006D790000C77B000041
S214007B28938B00006D7900006D790000857E00005B
S214007B38857E0000A78B0000A78B00006D790000EB
S214007B48C78C00006D7900006D7900006D79000023
S214007B586D790000857E00006D7900006D79000063
S214007B686D790000098E00006D7900006D790000BF
S214007B786D7900006D7900006D7900006D79000060
S214007B886D7900006D7900006D7900006D79000050
S214007B986D7900006D7900006D7900006D79000040
S214007BA8FD8D0000038E00009D2E1FD88E2E3FF6FA
S214007BB856AF652E01F0D980812E7FF4D3AE052806
S214007BC87FF60AAFD4F8543105380344C4F8543164
S214007BD802E700BFF8220020CC120020DF120020A7
S214007BE878120020761300207C130020F12E01F076
S214007BF8BC8069D8AA2E00F0D182AB2E7FF4B2AE34
S214007C089422002119A828F0A5FF0DF175061DABD2
S214007C18019301209A4900961BAA0CF0B4F89DF827
S214007C286430002B40F0248501238DF864309DF8DD
S214007C386C30043B442B00F2FF85DFE813F0DD04CC
S214007C48FD05FD05EB04FD05FD05FD05FD05FD052A
S214007C58FD058A05FD05FD05A805FD05FD05FD05CF
S214007C689105FD0596059E05A405FD05FD05FD0582
S214007C78FD05FD05FD05FD05FD05FD05FD05FD05E7
S214007C88FD05FD05FD05FD05FD05FD05FD05FD05D7
S214007C98FD05FD05FD058C058A058A05FD05FD051E
S214007CA88A058A0581058505AA05CF05FD051905F6
S214007CB8FD05D605DC05FD05FD05FD05E905FD0503
S214007CC8C705FD05EF05F505FC2E01F0AD8040F271
S214007CD805139E427FF446AE0BF062FF05460BF096
S214007CE85FFF042D00F2CE87664B84F8F05183F8C8
S214007CF873000020B0E60BF053FF054612200BF089
S214007D0865FF02200BF062FF4FF402400BF06EFF97
S214007D1894F85831002B7FF45FAE122D7FF45CAEDA
S214007D28012384F8583157E60026CDE919661B96D4
S214007D380BF036FF012334288DF865001A968DF867
S214007D4864304AD01AD8172844D00ED8984271D032
S214007D580C283CD0122862D0052847D1494B4A4AFD
S214007D6893F8283012789B1A05E02D2814D01A2884
S214007D7837D1464B1B78ADF86C3012E041285CD002
S214007D8842280CD039285AD0382850D040282DD12F
S214007D983C4B93F85830EEE73A4B93F85050ADF812
S214007DA86C5019A8FCF7FAFF9DF8643043B91CF02C
S214007DB8A8F89DF864301BB92122ADF86C301A92E9
S214007DC833491BAB1AAA00200BF0DDFF04E694F833
S214007DD85951E4E794F85A51E1E72A4B93F8515081
S214007DE8DDE71F281FD001D8182811D0294B53FAD1
S214007DF886F292F8CC20F1B2FF2A23D0904206F100
S214007E080106F4D103EB8103D3F8E4301D78C6E706
S214007E181C4B93F85230B3FA83F35B09ABE7194B64
S214007E28B3F85430A7E7174BB3F85630A3E7154B0B
S214007E385B88A0E74FF40055B1E70525AFE74FF696
S214007E48FF75ACE7242812D007D80D280AD01E28BC
S214007E580BD000238DF86430A3E73628F9D10E4BF3
S214007E681B8888E794F85B3185E7142383E794F842
S214007E785C3180E794F85851012D0FD00220EBE5CD
S214007E88D73503006C4100206D18002058400020AC
S214007E98C4350300383F03008040002000230DF15E
S214007EA86502CDE919331B932846A6491BAB0BF090
S214007EB86AFF9DF864204ABB9DF865308DF86450CB
S214007EC8342B1A923BD00FD8172B33D02D2B14D027
S214007ED80C2B2AD01A2B3ED19B4BBDF86C20197858
S214007EE891420ED31A7011E0392B32D0A3F141011A
S214007EF801293BD802231A9308E0BDF86C30022B00
S214007F0801D92123F7E7914A82F8503019A8FCF7DF
S214007F1845FF9DF8643033B91BF0F3FF9DF86430D5
S214007F280BB921231A931A9896E5BDF86C3084F895
S214007F385931EBE7BDF86C3084F85A31E6E7834BE5
S214007F48BDF86C2093F851109142DAD383F851208B
S214007F58DCE70E23CFE7192B4CD043D8122B6FD073
S214007F68182B64D0052B53D0002203E0382B74D08E
S214007F78402B77D0764951FA82F595F8CC50D0B296
S214007F88FF2D1DD0AB4202F10102F4D101EB8001B6
S214007F980828BDF86C20D1F8E4300CD8197891423E
S214007FA834D31A701A9B3BB99DF86530112B03D150
S214007FB8684BBDF86C201A709DF86430002BA5D16C
S214007FC8012300228DF864309DF865301A92242B20
S214007FD851D0362B57D00D2B5AD1BDF86C3084F8BB
S214007FE85B3193E71F2BBFD1584BBDF86C20A3F825
S214007FF856208BE7554B584993F8283009789DF852
S2140080086C205B1ADBB29918102906DD192372E773
S214008018514B1A789DF86C30F5E74C4880F82810D4
S2140080284E490B704C4B1A7000224D4B5AE7BDF860
S2140080386C30464AB3FA83F35B0982F8523065E738
S21400804847F23052BDF86C3093423FF65AAF3F4A7B
S214008058A4F85E31A2F8543058E73C4BBDF86C20C3
S2140080685A8053E7BDF86C30022B3FF64AAF374AC2
S21400807882F858304AE7BDF86C300A2B3FF641AF15
S21400808884F85C3142E7374BBDF86C201A803DE730
S2140080988DF864203AE794F85861012E41F0438041
S2140080A80538C5B2002128462AF05EF9074600289A
S2140080B801F06382009505230021B9F800200CF032
S2140080C83BFF3846ADF864702AF0D8F80021857969
S2140080D8C7798DF850600378FF220846FDF702F846
S2140080E810B121252846B7E4BDF864002AF0E4F864
S2140080F83D446D00083505F0FE058542F1D133464E
S214008108324614A919A80CF021FC05460028E8D127
S214008118BDF8641014482BF017F894F83F31013373
S21400812884F83F31DEE700230120CDE919331B939D
S2140081380E491BAB0DF165020BF025FE19A8FCF7DE
S2140081485DFEEBE6C7350300584000206C41002072
S214008158383F0300574000206D1800206F18002095
S2140081686E180020804000207A120020CA350300CE
S2140081780023CDE919331B930BF012FD8DF865002B
S21400818819A8FCF73BFE9DF864301BB921228DF830
S2140081986C301A92B0491BAB1AAA14E69422002136
S2140081A819A828F0D7FC0BF0FBFC00231A93012330
S2140081B849288DF86C008DF874308DF864300DF110
S2140081C875060AD810282ED8042800F00581072836
S2140081D800F0D280032800F0C480012300228DF826
S2140081E874308DF864309DF86C301A92142B00F2B7
S2140081F80181142B00F20081DFE813F0440101012D
S2140082081601FE00FE00FE00FE00FE000401FE0051
S214008218FE00FE00FE001101FE00FE00FE00FE004D
S214008228FE002201250111383828D6D801A353F8B4
S21400823820F000BF21830000E3810000E3810000F6
S214008248E38100008D830000E3810000E3810000E5
S214008258E3810000E3810000E3810000E381000081
S214008268E3810000E3810000E3810000E381000071
S214008278E3810000E3810000E3810000E381000061
S214008288E3810000E3810000E3810000E381000051
S214008298E3810000E3810000E3810000E381000041
S2140082A8E3810000E3810000E3810000E381000031
S2140082B823840000478300004B830000E38100000E
S2140082C8E3810000658300004783000047830000C1
S2140082D847830000A1830000E3810000E3810000DB
S2140082E84B830000E3810000E381000097830000D1
S2140082F8E38100003D830000B5830000CF830000C3
S21400830847830000AF830000E7830000EB8300008C
S214008318F3830000F98300005049514BCDE91D1343
S2140083281DABCDE9006300204E491AAA0BF02BFDC1
S214008338FFF752BB94F860318DF87530F0E70023EC
S214008348FAE70423002130468DF874301DF038FF14
S2140083589DF86430002B3FF440AFE1E703231D93FC
S214008368DEE702238DF874300BF076FF8DF8750083
S214008378000A8DF87600EBE7B4F86231B3FA83F3B7
S2140083885B09D9E70BF000FF8DF87500E0E7B4F855
S214008398643103F00303CFE74FF47A72324BDB6D98
S2140083A8B3FBF2F3C8E7314B1B78C5E7304B1878B8
S2140083B80028E9D02F480CF09EFE4FF47A73B0FBE5
S2140083C8F3F0C0B2E0E7284BB3F860308DF87530AC
S2140083D81B0A8DF87630A3E794F88831ACE70F23AC
S2140083E8AAE7214B93F86230A6E794F88931A3E709
S2140083F81623A1E73D2B2DD08DF8642074E094F861
S2140084088A3199E71C4B1B78332B06D003F0EF0311
S214008418A3F14302534253418EE701238CE794F8B5
S2140084288B3163F07F0387E70F4BB3F864308DF822
S21400843875301B0A8DF8763002238DF874306FE796
S2140084480E4B1B6978E794F88C310133DBB284F85D
S2140084588C3171E70A4BA7E7CD3503000700000803
S214008468020000AAD03503006C4100202813002023
S2140084786B1800206024002074130020F0140020DD
S214008488564000201023012014A9C74A0DF0F0FA20
S214008498BDF850308DF875301B0A8DF876309DF88B
S2140084A852308DF877309DF853308DF878309DF837
S2140084B854308DF879309DF855308DF87A30BDF8FF
S2140084C856308DF87B301B0A8DF87C3016AB03CB04
S2140084D810238DF874309DF86430CDF87D00CDF803
S2140084E88110002B7FF41CAF02238DF874309DF8A2
S2140084F86C30102B0CD03B2B1ED00A2B11D100232E
S2140085081A93AA4B5D8825F08D056D056D0D05E05F
S21400851814A812F02FFBBDF850501A9001238DF8BE
S21400852864309DF86430002B01F07A808DF8755021
S2140085382D0A8DF87650F3E600231A939C4B1D8877
S214008548ECE79422002119A828F004FB1BAA0120B6
S21400855898491CAB0BF017FC9DF864200DF17505C7
S21400856862BB01231A929DF86C208DF86430032AAA
S21400857839D8DFE802F00217273000209DF870107F
S21400858814AAFCF745FF02238DF87430BDF8503066
S2140085981A908DF875301B0A8DF876309DF8643081
S2140085A823B30BE003238DF87430834B94F88D21A6
S2140085B8B3F866308DF87520ADF876301DABCDE98A
S2140085C80053B0E6BDF870008DF874301BF03CFC24
S2140085D88DF87500F2E70423002128468DF87430DC
S2140085E81DF0EEFDDAE700238DF8643021231A9398
S2140085F800238DF87430E1E79DF87430012B40F0C5
S214008608A8809DF87530003B18BF012384F8883190
S21400861800232CE09DF8750078B1B4F86231002B81
S21400862800F0B58000200DF06BFA0023FF22A4F8B6
S2140086386231614B83F86820EAE75F4F97F8683045
S214008648FF2B40F0A4805D4B1D795DB9294629F0C3
S2140086588BFEA4F8620148B1012087F868500DF037
S2140086684FFAD5E72844C0B20833EDE719231A9322
S2140086789DF86430002B7FF456AC01229DF86C50B0
S2140086888DF86420292D00F2DB80292D00F2DE808B
S21400869801A353F825F000BF89880000DF88000092
S2140086A8F788000055880000558800000D890000EE
S2140086B80D890000558800002B7F000033890000D4
S2140086C8C5890000EB890000798A000055880000FB
S2140086D855880000898A00005588000055880000E3
S2140086E85588000055880000558800005588000009
S2140086F855880000558800005588000055880000F9
S21400870855880000558800005588000055880000E8
S21400871855880000558800005588000055880000D8
S21400872855880000D18A0000D18A0000258B0000F9
S214008738558800005588000055880000378B0000D3
S2140087489DF87430012B04D19DF87530002B3FF44A
S2140087585FAF21238BE79DF87530012BF9D157E7DA
S2140087689DF87520164BDA7052E79DF87520154B64
S214008778BDF8761023F812104AE75422FF21114854
S21400878828F0E8F944E7542200210F48F8E70223C6
S2140087986DE79DF87530022BDBD94FF47A72534398
S2140087A8054AD36534E700BF64EE010024130020B1
S2140087B880400020D43503006C410020B43F0300FD
S2140087C8E82200206E140020961300209DF87530CD
S2140087D8B44A003B18BF0123137049E79DF875306B
S2140087E8032BB6D884F88E3112E7BDF87520AE4B49
S2140087F8A3F86A200CE79DF87530AB4A82F86C300F
S214008808B4F8642122F003021343A4F86431FFE6A7
S214008818BDF87520A44BA3F86020F9E69DF87520EE
S214008828A14B83F86220F3E69DF87530003B18BF2D
S214008838012384F889311BE700238DF8643017E795
S214008848342D3FF46FAB3D2D00F0748100238DF876
S21400885864309DF86C30102B40F08F8130461DF048
S214008868B8FC0022ADF84020904ABDF87930904216
S2140088787FF457ABDC0740F166812323FFF752BB32
S2140088889DF87430102B23D1BDF87520DDF87D00D7
S214008898ADF850209DF87720DDF881108DF852202D
S2140088A89DF878208DF853209DF879208DF854206F
S2140088B89DF87A208DF85520BDF87B20ADF8562017
S2140088C816AA03C27A4A002014A90DF0D1F886E049
S2140088D821231A93DFE09DF87430012B7FF421AB37
S2140088E89DF8753084F88A310023FFF71BBB9DF886
S2140088F87430022B7FF415ABBDF875206A4BA3F8CD
S2140089086420F1E79DF87430022B7FF40AAB052D3E
S214008918EAD14FF6FF72BDF875109142E4D0624B6B
S214008928A3F86E10A3F87020DEE75F4A9DF874304F
S21400893892F872205D08B2EB530F7FF6F2AA6F002A
S2140089483A4631465B4828F028FF4FF40043274450
S214008958A7F89031ADF854300023574A554814927A
S214008968DAB295421DD8202D15D8012D05D1B4F8B8
S2140089789051B5F5004518BF01254E496A0001F12A
S2140089881E0028F00AFF84F8EE51ADE730F81320F1
S2140089980131B24206D14FF40043A4F89031FFF7F4
S2140089A8C0BA00213EAECAB206EB420232F8A86C44
S2140089B832F9A82C002AE9DA0133D1E70023BDF8FA
S2140089C875403E491A464FF07F6001EA044115F0AB
S2140089D867F9E30703D50021302015F0AFF9002327
S2140089E877E7374BBDF875401B783BB94FF6F773FA
S2140089F89C4237D820460DF0C3FAF0E74FF6F672D9
S214008A08631E9BB293422DD820460DF0AFFD48BB9F
S214008A18204614A90EF0B0F820B3204618F026F920
S214008A280146F8B9012220460EF09AF9D0B9204638
S214008A3811F062FEB0B920462AF07FFB90B92046B6
S214008A48FDF7F8FC70B920460DF09AFA40F6074391
S214008A58132203201B49FDF74DFB40F607400BF099
S214008A6888F8BCE70DF06EFAA042B8D0022330E7CB
S214008A789DF87530FF2B3FF437AF84F8EF3133E7B6
S214008A88BDF8763001209DF8751014AAADF8503060
S214008A98FCF7BEFC1A909DF86430002B3FF4D9AE64
S214008AA8FFF741BA281300206C4100201FD1BACA2C
S214008AB864EE0100882400209900890000007207EF
S214008AC874130020713B03009DF87430042B7FF468
S214008AD828AA30461DF07DFBB94B232D1B7803F0E2
S214008AE80F030DD11BB1B74B1B689842BED3471C6A
S214008AF8BCD0030B1493B34BB34A18600423E2E6C6
S214008B081BB1B24B1B689842B0D3451CAED0030BC2
S214008B181493AE4BAE4A18600423D4E69DF875004D
S214008B28C31E012B3FF6FDA90EF09DFB57E7022357
S214008B38FFF7F8B99DF87520252A3FF6F2A9A5494A
S214008B480A70FFF7EFB9980748BF4FF47F434FF016
S214008B580202A14814A948BFADF84030FEF7AAFCA7
S214008B684FF6FF73BDF850209A427FF486AE022275
S214008B7810A99948FEF7A2FDB6E63B2B40F0828086
S214008B88BDF87520954B1A80AEE601200BF0ECFD7B
S214008B98002840F049850723A387FEF71DBF0AF083
S214008BA8FFFF0628054615D10C2E3FF467A9282096
S214008BB80BF00CF88A4C8B4D0222204619A9FEF7BA
S214008BC879FC0134BDF864000BF010F8AC42F3D120
S214008BD8FEF702BF082804D10C2E7FF48AA8FFF7F8
S214008BE84DB90B28F8D00C2E02D109283FF446A917
S214008BF80027582239461AA8199727F0ABFF7A4C4F
S214008C082378AB4233D10C2E627815D010460AF082
S214008C18DDFF6278606819A9FEF74CFC092D05D1BE
S214008C28152200210DF1AA0027F094FF607819A9F3
S214008C380BF001F8FEF7D0BE19A96068FEF73AFCFB
S214008C480AF0AEFF94F8018040451BD1002319A90D
S214008C58DAB2424519D3404619A90AF0A9FF424696
S214008C68606819A9FEF72AFD00200AF0D2FF01372E
S214008C780B2F04F10804C3D10C2E7FF43AA8272042
S214008C88FEF7EABE2120FEF7E7BE11F8012B0133F6
S214008C98FF2ADDD03B20FEF7DFBE012119A803F02E
S214008CA8D1FF38B90AF0B5FFBDF864000AF09EFF98
S214008CB8FEF792BE21200AF0ACFF0020F6E70AF085
S214008CC86FFF04460AF09BFF07460AF069FF064650
S214008CD80AF066FF390405463FF5D0A8032E3FF68E
S214008CE8CDA8012C3FF6CAA8404B24B232463946D6
S214008CF853F8340003EBC4080CF058FB002D18BFDB
S214008D083546A8F8047088F80650FEF7F2BF0AF051
S214008D1847FF012826D8354B00B203EBC00653F8A8
S214008D283000046964B10CF0E6F9B0F5803F14D35E
S214008D38B0F1807F4FEA102311D30324000C85B2CC
S214008D48B679003E18BF012628460AF04FFF20468F
S214008D580AF03CFF3046FEF7E5BD0124EFE718466B
S214008D680224ECE700242646EEE72A24204D35F8B0
S214008D78020B013C0AF03AFF14F0FF04F7D1652E07
S214008D887EF42AAE54222146194827F0E3FEFEF761
S214008D9823BE0AF034FF05462AF0C7F8A4F8F451B3
S214008DA8A4F8F201FEF718BE0AF0FAFE0CF0DEFE92
S214008DB8FEF7B8BD02200AF02CFF0020FEF7B2BD71
S214008DC8741300209018002063E51100E8180020AE
S214008DD823E1110056400020603202E08040002067
S214008DE8381002C04C1002C070400300E04100205A
S214008DF896130020BA4908201AE70DF0A3F855E79D
S214008E080AF0FDFEADF8640019A80EF0D1FEFEF7D4
S214008E1823BE0AF09BFE4FF6FF73984204D00AF072
S214008E28BFFE84F8F601C8E70120FEF77BBD0823DD
S214008E3814AA8DF836300DF13503CDE901320393C7
S214008E480DF136030120A74900930DF1370219AB3F
S214008E580AF099FF46F665539DF8351014989DF864
S214008E683750ADF838301CF03CFE804618B919204B
S214008E78C0B2FEF757BD9A4F0EACEDB10DF092F8A2
S214008E884FF6FF760546ADF840600DF05BF8022316
S214008E984FF44841CDE902437C203346CDE90075BE
S214008EA8CDF8108010AA1DF008FB0146D8B10022A4
S214008EB810460DF09BF8DBE70DF074F806460DF04B
S214008EC841F802234CF66041CDE902437C20334644
S214008ED8CDE90075CDF8108019AA1DF0EEFA014606
S214008EE80028E4D1C3E70120C2E7102010A90AF041
S214008EF85FFE14A910200AF05BFE19A804F080FE95
S214008F08092314A919A88DF8643005F0B0FE19A82D
S214008F1820F0D3FC10AA1146012020F0FBFC1020FC
S214008F2810A985E60AF012FE0AF060FE04200AF090
S214008F384DFE18200AF04AFE0F20FEF7F3BCA6F5F1
S214008F4886731D2B00F2D082DFE813F04E01A601CF
S214008F585B017A01B101B901C801D001750087002B
S214008F683701CE02CE02CE02CE02CE02CE02CE020C
S214008F78CE02CE02CE02CE02CE02CE02CE02CE0264
S214008F88CE02CE02DB01EE01A6F167030F2B00F23C
S214008F98AB82DFE813F07F0028004400A902F70040
S214008FA8BB00A902A902A902A902A902A902A9024C
S214008FB8A90270009F00B12E00F09680A82E00F03F
S214008FC81583A92E7EF4E6AC0AF019FE044614A909
S214008FD808200AF0EDFD102019A90AF0E9FD204640
S214008FE819AA14A991E20AF00AFE0DF16601ADF875
S214008FF8640010200AF0DCFD0DF1760110200AF05E
S214009008D7FD0AF0CDFD0DF187018DF88600082002
S2140090180AF0CEFD19A816F065FCFEF71DBD19A8C6
S21400902811F064FF0AF0F5FDBDF864000AF0DEFDF5
S2140090380DF16601DFE619A80AF027FF14A919A89A
S21400904804F05EFF0AF0E5FD102014A90AF0F3FD0F
S21400905819A80AF001FFFEF7BFBC19A80AF015FF09
S21400906814A910200AF0A4FD14A919A805F0FFFDFC
S2140090780AF0CFFDECE7082019A90AF099FD0AF0D6
S2140090888FFD20B119A805F0E3FDFEF74BBC0220C2
S214009098FEF748BC0AF0B3FD14A9054608200AF0F6
S2140090A887FD002319AC1A462146009314A814F02D
S2140090B853FE00287EF4D0AC03232846CDE90043AF
S2140090C8074A042314A916F01BFB80F00100C0B25F
S2140090D8FEF7C2BC0AF064FD05F086FDFEF7BCBCD0
S2140090E8FE1B0020DB3503000446E0B2013405F021
S2140090F87BFD142CF9D1FEF7FCBD082019A90AF04F
S21400910857FD19A816F044FAFEF7A6BC0AF048FD63
S2140091187F4A0546D2F89411D2F8900114AB03C3DF
S21400912894F8F73113B10225FEF7DCBF794B1B78AC
S21400913803F00F03022BF6D10CF004FF0028F2D040
S21400914819A811F0D3FE082214A90DF1660028F01C
S21400915831FBA0B1704B83F884501CF05FFD0546C8
S21400916800287EF4BFAF012341F288316B4884F8AB
S214009178F73184F8F83129F063F9FEF7B3BF2325F1
S214009188FEF7B0BF00252C46654B1E88EBB2B342EF
S214009198BEF422AC19A804F033FD204614AB10AA7E
S2140091A819A905F0EAFC28B932211AA814F061FDBD
S2140091B80135EBE70134E4B2FAE719A804F0E6FD56
S2140091C80AF027FD9DF864000AF000FD9DF865008A
S2140091D80AF0FCFC9DF866000AF0F8FC9DF86700AB
S2140091E80AF0F4FCFEF79FBE19A80AF04EFE14A972
S2140091F819A805F0B8FB0AF00CFD14A80AF05EFEE4
S21400920826E70AF0CDFC10AD0446294608200AF0E9
S214009218CFFC14A910200AF0CBFC19A804F0F0FC27
S21400922895E8030004238DF864301AAB83E803003E
S21400923814A919A88DF8654005F019FDFEF70CBCB1
S2140092480AF0AEFC044619A804F0DAFC04238DF8EC
S21400925864309DF8713010A943F0010319A88DF801
S21400926865408DF8713004F04BFE70B12D200AF081
S214009278D0FC19A80AF0F0FD102010A90AF0DBFCB3
S21400928814A80AF01BFEFEF7A7BB14A919A805F038
S2140092986AFB0028EBD0E9E70EA908200AF088FC4C
S2140092A814AB10AA19A90EA805F014FCDFE719A834
S2140092B80AF0EBFD19A805F03DFBFEF7CDBB14A997
S2140092C808200AF075FC19A910200AF071FC002283
S2140092D819A914A805F0B8FEFEF7BEBB0AF060FC94
S2140092E814AB10AA19A905F048FCC0E70EA9082077
S2140092F80AF05EFC14AB10AA19A90EA805F01BFC10
S214009308B5E70AF08FFC074B1860FEF765BB00BF91
S214009318383F0300741300206C410020F42400201A
S214009328B21A0020AC1A00200AF03AFC80460AF06E
S21400933837FCD7F800A081460AEB00033B600AF02A
S2140093482FFC19A9064608200AF032FC0023ADF8BF
S2140093584030B8F1000F00F09480A9F10904E4B297
S214009368214650461CF0BDFBADF85000002800F022
S214009378B78000210BF042FC820640F1B380002241
S214009388042311464FF6FF701CF082FEADF840002D
S214009398002800F0A380B8F1000F01D00534E4B22D
S2140093A804F1100189B210A80BF07FFB04460028D0
S2140093B853D103461021BDF85020BDF84000009652
S2140093C80BF0BAFDBDF85020BDF8403006F1100786
S2140093D8B8F1000F10460A93BBB218BF05250893CC
S2140093E80B9228F069FF15FA87F5801B80B2ADB29C
S2140093F8334629460B9A00900A980BF09DFDB8F163
S214009408000318BF01238DF838300EAB019319AB53
S214009418CDE90344029400931020234610AAF9B21B
S21400942814F0A6FD0446C0B9BDF84000B8F1000F18
S21400943829D028F041FFA0F11005EDB2294614A85E
S2140094480BF033FB044640B901461023BDF8402014
S214009458BDF8500000950BF06FFDBDF850504DB1AB
S214009468284628F029FF002203462946504600923F
S21400947829F030FE20460AF0CCFB51464846FFF756
S214009488D7BB4C466CE708990BF0B8FB10F0200FDA
S214009498BDF8400014BF0D27052728F00DFFC6F1BC
S2140094A8F0052146BDF84020102305440096BDF877
S2140094B850000BF041FD089BED1BEDB23B443146D6
S2140094C8BDF85000BDF8402000959BB20BF034FD67
S2140094D8711989B214A80BF0E8FABEE71924BCE79C
S2140094E81924C7E70224C5E7742E12D03FF666ADE6
S2140094F86F2E53D0732E7EF44DAA102019A90AF0A9
S21400950857FB4FF6FF7019AA14A917F027FCFEF7A9
S214009518A3BA0CF017FD00287FF405AE444B1D686F
S21400952815F002057FF4FFAD19A804F02FFC9DF88E
S21400953866309DF867209B1ADBB2802B7FF6F3AD6A
S2140095489DF86530002B3FF4EEAD0CF0FBFC2A4688
S21400955894F81C120DF004FCE0B9294616F066FAD9
S21400956809238DF8503094F81D32022114A88DF87E
S21400957851301CF0B6FA024610B91925FEF7B2BDEE
S214009588012329464FF6FF7015F038FF00287EF4B1
S214009598A9ADF2E740F60C45FEF7A4BD14A91020C5
S2140095A80AF006FB0AF03EFB18900AF0F9FA0446A1
S2140095B80AF0F6FA3A68014613183B6014A894B104
S2140095C814F0B0FA064619AD14AC0FCC0FC52368D4
S2140095D830462B600AF01DFB102019A90AF02BFB59
S2140095E81D98FEF739BA14F02FFAEBE70AF007FBD6
S2140095F8044614A908200AF0DBFA19A908200AF07C
S214009608D7FA204619AA14A917F070FBFEF724BA51
S2140096189A8FCA70DBF80010120A0A71FEF7EEB9C4
S21400962821221A92FEF709BF3FB0BDE8F08F00BFAF
S214009638241300201A4B2DE9F041D3F89440D4F8AF
S214009648A4309A6CD20728D5012503F500529564F4
S2140096589B699B0621D5EFF31187302383F3118886
S21400966894F8953003F0FF069BB9236E31462046E2
S2140096789B68984784F89550EFF3108872B6314681
S214009688284628F08BFB404629F058FC022384F82D
S214009698A13087F31188BFF36F8FBDE8F08100BF54
S2140096A8F8220020C6E72DE9F04F00264FF4802B5D
S2140096B89FB0CDE90B66CDE90666DFF8C0A30D9628
S2140096C8CDF828B00FAC0AAD08960FCDCDF814A08B
S2140096D80FC405AD14AC0FCD0FC4C94CC94D04F565
S2140096E808784646C84BC94FC5F88830C84BDFF8D7
S2140096F89093C5F88C30C74B9022C5F89030C64B6F
S21400970804F50D700E97C5F89430CDF8249027F020
S21400971821FA1397CDF83CB00DF13C0CBCE80F00CD
S2140097280FC6CDF850A03760CDF8609004F52176C6
S21400973814AF0FCF0FC62022012104F53573C4E9F4
S2140097489B23C4F86832C4F8BC3205F18803C4F811
S2140097588032B24BC6F80090C4F89830B04B84F804
S214009768C01284F8741284F8B812C4F89480C4F846
S2140097789C30AC4BC4F8A030AB4BC4F8A830AB4B0D
S214009788C4F8AC30AA4BC4F8A430EFF311823023E7
S21400979883F31188A74E3378ABB182F31188BFF3F1
S2140097A86F8F33786BB103A805F0BEFD48B9039BED
S2140097B884F834323378002B34D194F834021EF00F
S2140097C82BFE102510E1317082F31188BFF36F8FDE
S2140097D8994A15201373137782F82C3082F83C3098
S2140097E882F84C3082F85C3082F86C3082F87C3034
S2140097F8924A5160FF219360936191629363136468
S2140098084FF0004353654FF0FF328D4B1A654FF407
S21400981800128C4BC3F88021802283F8152307F0AA
S2140098286BFDBEE703A805F07FFD0028C5D101271C
S214009838039B394684F89832834B84F8B602C4F8FA
S214009848B830824B8248C4F8B030824B84F8C17274
S214009858C4F8B43084F8B57208F0ACFF95F999608E
S214009868304605F02CFC304607F046FD94F83402E6
S21400987805F0ECFC0028A4D1CDF80480D4F86C32AE
S2140098880093D4F83032D4F86822D4F8201294F82A
S21400989834021BF007FE0646002892D1302294F8C0
S2140098A834324FF48011534342F2640203F1A0436A
