S02B00006275696C642F64656275672F7A69676265655F756E69666965645F746573745F6861726E6573732E06
S31508006000081000203512020829E404082DE40408C3
S315080060109DFA010831E4040839E404089DFA0108E8
S315080060209DFA01089DFA01089DFA01089DFA0108E2
S315080060303DE40408A42306089DFA01089DFA010810
S31508006040596102089DFA01089DFA01089DFA01089E
S315080060509DFA01089DFA01089DFA01089DFA0108B2
S315080060609DFA01089DFA01089DFA010899C00208DF
S3150800607031C002089DFA01089DFA01089DFA010837
S315080060809DFA01089DFA01089DFA01089DFA010882
S315080060909DFA01083DFB01089DFA01089DFA0108D1
S315080060A09DFA010819FB0108F5FA01089DFA01088D
S315080060B09DFA0108A5350508953E0508D16305082A
S315080060C0CD63050809360508E7630508D56305089D
S315080060D0653E0508D9630508D53E05083D3F050810
S315080060E09DFA01089DFA010889FA01089DFA010836
S315080060F0C18E00089DFA01089DFA01089DFA01085B
S315080061009DFA01089DFA01089DFA01089DFA010801
S315080061109DFA01089DFA01089DFA01089DFA0108F1
S315080061209DFA01089DFA01089DFA01089DFA0108E1
S315080061309DFA01089DFA01089DFA01089DFA0108D1
S315080061409DFA01089DFA01089DFA01085D6F050888
S31508006150792A05089DFA0108BD630508C363050881
S315080061609DFA01089DFA01089DFA01089DFA0108A1
S31508006170F0B5114A114C124E00F00105E3695F07AC
S3150800618013D40DB9334213D103EA00078F4207D15E
S315080061900B4A1A40002A0CBF00206FF00100F0BD20
S315080061A0013AEBD16FF00200F9E74FF0FF30F6E75E
S315080061B06FF00100F3E700BF8096980000000350D7
S315080061C0020001002DE9F84F16464FF48032274B9E
S315080061D0274D9A66EB69074603EA020841F67133CA
S315080061E00122EB63234BDFF89490DA600EB9304650
S315080061F029E007F5005404EA09046F61E41BEB691A
S31508006200B44228BF34465B072DD48B465BF8043B63
S3150800621001EB040AAB61D3450ED1042300212120EA
S315080062202B61FFF7A5FF70B92120FFF7A1FF50B931
S3150800623059462744361BD9E708210846FFF798FF31
S3150800624068B104232B6101220B4BDA60B8F1000F09
S3150800625003D00022A3F50053DA63BDE8F88F5BF894
S31508006260043BAB61D7E74FF0FF30ECE700900050F6
S3150800627000000350001003500020035000E0FFFF09
S315080062800E4BD3F8403103F00303022B0DD0032B3A
S315080062900FD0012B0BBF0A2301234FF40042002223
S315080062A000B1026001B10B60704709234FF4004248
S315080062B0F6E70C234FF47A72F2E700BF008000502D
S315080062C0054B9A689107FCD45A689207F9D4DA699B
S315080062D0002AF6D1704700BF00800A5000280CDB60
S315080062E001220649430900F01F008240203341F885
S315080062F02320BFF34F8FBFF36F8F704700E100E095
S31508006300D0F8A4301B689A6C5206FCD50020596454
S315080063107047D0F8A4301B689A6C120643BFDB6B33
S3150800632000200B701B207047D0F8A43001221B6890
S3150800633019B103F580531A65704703F500531A65BA
S31508006340DA6470474FF06042D2F8803E1B02FBD4F5
S31508006350704780F89910704790F89900704790F840
S315080063609600704770B50D4E451E013915F8014F58
S315080063702346325D02F00302012A11F8012F08BFF5
S3150800638004F12003B05C00F00300012808BF2032A6
S31508006390981A01D1002CE9D170BD00BFADF00708ED
S315080063A02DE9F04F80460F4615469A46044685B0B5
S315080063B0DDF83CB0DDF84490206808B3DBF80060EF
S315080063C0DAF800108E421BDA0E9B53F8261059B3E2
S315080063D0FFF7C8FF40BB61680136CBF80060087B51
S315080063E0FE281CD1109B0868CDE901B30E9B2A46EE
S315080063F0009301215346CDF80C90FFF7D1FF0446D0
S315080064002B7843B999F800302BB97FB1012344465C
S3150800641089F800302B70204605B0BDE8F08F0123BF
S31508006420109A13702B70EBE70C34C5E73C46F2E77D
S315080064309A4238BF88547047704710B1D1E9003185
S31508006440184770472DE9F84F9846DDE90B490D9B2B
S3150800645015469A0706460F4623D02A460A9B03EB9B
S31508006460040A1444A24220D10D9B9B0705D5A2EB32
S31508006470050AD14505EB0A0420D82046BDE8F88F61
S31508006480434639462020B0470AF1010ACA450AEBB5
S315080064900B02F5D3A9EB04024C4588BF00222A4417
S315080064A0DCE7A246A5EB040BF0E702F1010B434635
S315080064B039461AF8010DB0475A46D3E743462246ED
S315080064C039462020B0470AF1010AD2E72DE9F047FC
S315080064D09E46DDE90D3CDDE90874DDE90B651CF037
S315080064E0020F9DF828801FD10CF001094BB1B9F1B4
S315080064F0000F06D0B8F1000F02D11CF00C0F00D027
S31508006500013B4FF0300A02E007F804A00134A54227
S3150800651001D9202CF8D1B9F1000F05D04FF0300978
S31508006520A34201D9202C1BD11CF0100F15D01CF446
S31508006530806F32D1C4B1AC4201D09C422DD1651EC8
S3150800654012D0102E36D11CF0200FA4F1020456D119
S3150800655078263E5530266C1C7E55202C36D00DE00C
S3150800656007F804900134DBE7102E10D11CF0200F39
S3150800657026D178243C7030247C700224B8F1000FB0
S3150800658031D02D253D55013421E06224F2E7022E53
S31508006590FBD030243C700124F0E7102E12D11CF0F9
S315080065A0200F2AD1202C11D07826651C3E55202D87
S315080065B00CD0CFE7022ECDD162247C550135F6E703
S315080065C05824D7E7022E0CD1202C08D12024CDE957
S315080065D00A3CCDE908747346BDE8F04732E725461C
S315080065E0EAE72546E3E71CF0040F01D02B25C9E7A7
S315080065F01CF0080FEBD02025C4E7202CE6D058263F
S31508006600651CD3E72DE9F04391B0189E1A9F1D9C8F
S31508006610002E38D124F0100C14F4806421D11CF01B
S31508006620200F14BF4FF0410E4FF0610E00260DF1FA
S315080066302008AEF10A0EB4FBF7F907FB19495FFA11
S3150800664089F5B9F1090F94BF30357544EDB2BC42EE
S3150800665008F8015B06F10106B4FBF7F501D3202E15
S3150800666014D11C9CCDF818C005941B9CCDE9037465
S315080066709DF86440CDE9016408AC0094FFF726FF55
S3150800668011B0BDE8F083A4463446C8E72C46D2E7E5
S315080066902DE9F04F95B0CDE90A23DDE91E65DDE960
S315080066A0228B56EA0502CDE90801269B39D15A05FF
S315080066B023F010093AD419F0200F14BF412361239F
S315080066C000240DF1300AA3F10A07294642465B4623
S315080066D030464EF07BFBD2B2092A94BF3032D2192B
S315080066E04645D2B275EB0B0504F101040AF8012BF5
S315080066F001D3202C17D1259BCDF818900593249B00
S31508006700DDE90801CDE903839DF88030CDE9014331
S315080067100CAB0093DDE90A23FFF7D8FE15B0BDE8F8
S31508006720F08F9946C7E706460D46CEE70024E2E70E
S315080067302DE9F04F93B0CDE90A32DDE91C530E93EB
S3150800674053EC102BCDE90801104619468DED060BC2
S315080067501E9E4FF0EFF880B1DDE906014FF0FF32DB
S31508006760C54B4FF00FF940B9DDE906014FF0FF328E
S315080067706FF480134FF0E8F868B1DDE908019DED84
S31508006780060B0E9B1E96CDE91C53DDE90A3213B0A3
S31508006790BDE8F04F85E10022DDE9060100234FF050
S315080067A0D3F8002800F03381DDE906A303F1004B96
S315080067B0CBF30A5016F48063A0F2FF3008BF062513
S315080067C00F934EF0E5FD9CA3D3E900234EF04AFE55
S315080067D09BA3D3E900234EF08FFCCBF31304894621
S315080067E044F07F5180460022A44B504641F44011A4
S315080067F04EF080FC94A3D3E900234EF033FE024604
S315080068000B46404649464EF077FC4FF0C5F804461D
S315080068104EF0BEFD8EA3D3E90023804689464EF08E
S3150800682021FE0022964B4EF067FC4FF0B5F88AA37E
S31508006830D3E900230746494640464EF013FE8046F4
S31508006840384689464EF0A4FD85A3D3E900234EF0C9
S3150800685009FE02460B46404649464EF04BFC0246A8
S315080068600B46CDE90C234EF0FDFDDDE90C238046F1
S315080068708946104619464EF03FFC0022CDE9100124
S31508006880804B404649464EF017FF00227E4B4EF09D
S3150800689033FC02460B46404649464EF00DFF0022A1
S315080068A07A4B4EF029FC02460B46404649464EF0C6
S315080068B003FFDDE90C238046894600204FF080411E
S315080068C04EF018FC02460B46404649464EF014FC6C
S315080068D002460B46DDE910014EF0EEFE07F2FF37E1
S315080068E000226B4B4EF008FC00223B054EF0BAFD29
S315080068F052465B46804689464FF044F8002840F0E9
S315080069008980CDE90C8904F16303C72B34BF0427BA
S31508006910052731051BD554A3D3E90023504659460C
S315080069204FF026F800287FD051A3D3E9002350461C
S3150800693059464FF009F8002876D00027A542C6BF69
S315080069402C1B04F1FF3500253C4646F480660E9B59
S315080069509F422CBF4FF00008A3EB070816F0020968
S3150800696003D0002F18BF4FF000083CB1DDE90C2317
S31508006970504659464EF0A0FE82468B46DDE9060192
S31508006980002200234EF0E0FF10B10BF100439B46B6
S31508006990DDE9080126F40063CDE90183DDE90A3261
S315080069A04BEC10AB009500F07CF802465FB3DDE9CE
S315080069B0091316F0200F00F10105089E0CBF65208B
S315080069C04520B047DDE908010523002205930A237F
S315080069D0002CCDE9023207F1FF374FEAD473B8BF6E
S315080069E064422A46019304970A9B0094FFF70AFE1D
S315080069F00246B9F1000F06D00B9BC41A0B9B1A1955
S31508006A000E9BA34246D8104613B0BDE8F08FDDE9C9
S31508006A1006ABCDE60022404649461B4B4EF04CFEDF
S31508006A20013CCDE90C016EE7002D90D00F9B002BA1
S31508006A308DD0013D8BE700BFFB799F501344D33FB0
S31508006A40B3C8608B288AC63F61436F63A787D23F66
S31508006A5071A379094F930A401655B5BBB16B02402D
S31508006A60EF39FAFE422EE63F2D431CEBE2361A3F7B
S31508006A700000000080842E41FFFFEF7F0000F83FF2
S31508006A800000E03F00002C400000244000001840B1
S31508006A900000F03F2020DDE90913089DA8470134CE
S31508006AA0ACE72DE9F04F5BEC10AB97B0CDE90501EB
S31508006AB0DDE92057CDE90723504652465B4659463D
S31508006AC0229E4EF037FF70B90323CDE90276019373
S31508006AD0AF4B0093DDE90501DDE90723FFF7B2FCBB
S31508006AE017B0BDE8F08F4FF0FF326FF480135046B1
S31508006AF059464EF029FF28B10423CDE902760193C1
S31508006B00A44BE6E74FF0FF3250465946A24B4EF0EB
S31508006B1039FF68B1A14A06F00403002B08BF032217
S31508006B209F4B1CBF13460422CDE902760192D0E79B
S31508006B30504693A3D3E9002359464EF023FF38B9AC
S31508006B4091A3D3E90023504659464EF0FDFE60B1A5
S31508006B50DDE90723DDE905014BEC10ABCDE921762C
S31508006B60209517B0BDE8F04FE2E500220023504615
S31508006B7059464EF0E9FE002800F09A805B465246D8
S31508006B80002000214EF0B6FA012382468B4609936F
S31508006B9016F4806400F08E80092D40F28E80002461
S31508006BA030210EABA5F109020134202C03F8011B94
S31508006BB0A5EB040901D09442F6D1594650464EF049
S31508006BC0EBFE784B054603EBC90393ED007B8DED91
S31508006BD00A7B4EF0DDFB02460B46504659464EF000
S31508006BE089FADDE90A234EF03DFC02460B46CDE95B
S31508006BF00C234EF0F9FE80464EF0BAFB02460B46D1
S31508006C00DDE90C014EF076FA02460B46CDE90C2377
S31508006C100022654B4EF0B6FE002851D008F1010857
S31508006C2040464EF0A5FB02460B46DDE90A014EF04A
S31508006C3095FE10B14FF000080135B9F1000F50D19B
S31508006C4028464EF0A5FB02460B46504659464EF0DE
S31508006C5051FA0022544B804689464EF075FE30B1F3
S31508006C60002240464946504B4EF08CFE10B1E807CC
S31508006C7000D501350A210EAB1A19202C0AD095FB2E
S31508006C80F1F001FB1055303502F8015B0134054679
S31508006C900028F2D106F00302012A57D1002F55D059
S31508006CA0099A12B916F00C0F00D0013F302245E0C0
S31508006CB009906DE74FF006097FE7A94600247CE7AF
S31508006CC00022DDE90C01384B4EF03EFE0028B4D117
S31508006CD0B8F1000F02D018F0010FAED008F1010884
S31508006CE0ABE70A210EAB2344202C0ED0B8FBF1F0FB
S31508006CF001FB1082B8F1090F02F1300209F1FF39E0
S31508006D0004F1010403F8012B11D83021A1440EAA7D
S31508006D10202CAFD0A14504F101030AD11C4609F184
S31508006D2058030DEB03092E2309F8203CA2E78046F9
S31508006D30DAE7A1541C46EBE71A550134A74205D9F0
S31508006D40202CF9D1CDE902760194C2E6202CF9D09F
S31508006D50099A3AB12D2104F158026A4402F8201C16
S31508006D600134EFE7710704D504F158022B216A4470
S31508006D70F4E73207E6D504F1580220216A44EDE724
S31508006D800000000065CDCD410000000065CDCDC1F5
S31508006D900D24060811240608FFFFEF7F04240608C1
S31508006DA009240608283B07080000E03F38B5164BBB
S31508006DB00546D3F828310C4603F00703013B052B9B
S31508006DC004D8DFE803F00A161E120E1A0023184626
S31508006DD005B1286004B1236038BD0C4B186805233B
S31508006DE0F6E70A4B18680623F2E74FF0EBFD072390
S31508006DF0EEE7074B18680323EAE7054B18680423F0
S31508006E00E6E702230348E3E700800050186B0020FA
S31508006E101C6B0020002D310138B5174B0546D3F8F9
S31508006E2020010C4600F0070006281FD8DFE800F00E
S31508006E30040A0E2112161A00012305B1286004B1AE
S31508006E40236038BD0D4B18680523F6E70C4B186808
S31508006E500323F2E74FF0B6FD0723EEE7074B186862
S31508006E600623EAE7064B18680423E6E700231846D4
S31508006E70E3E702230348E0E700800050186B002090
S31508006E801C6B0020002D3101F8B50B780446302B19
S31508006E900D46164604D14B7803F0DF03582B10D065
S31508006EA0264F6A1E12F8011F91BB28460A2247F090
S31508006EB0A9FC202C03460D462FD1B1FA81F04009D2
S31508006EC01BE04A1C1D4912F8013F93B928464EF0AB
S31508006ED0CFFD04F00303032BA0F1020012D1013405
S31508006EE0A41084420AD1A87837288CBF0020012034
S31508006EF003E0CB5C13F04400E5D1F8BDCCBF01201C
S31508006F000020FAE7B0EBA40FD4BF01200020F4E775
S31508006F107B5C13F00400C5D1EFE726B1084302D025
S31508006F20013B61F100050122A240013A1A40002DF9
S31508006F3008BF9A420CBF01200020DEE7ADF0070823
S31508006F400A7801382D2A0ABF0122002289189BE7F0
S31508006F5010B54C1C0B460119045D222C03D07B2C62
S31508006F6001D05C2C05D1D21A18444EF089FD0120B7
S31508006F7010BD0020FCE72DE9F047054691468846F6
S31508006F804EF076FD2A460646134619780132202920
S31508006F90FAD0C9F800305C1B01236FF0404AC8F8E4
S31508006FA00030A64201D8002014E02F5D29197B2F56
S31508006FB012D0222F2ED1D8F80030621C53442A440E
S31508006FC049F82320012C09D911F8013C13F0DF0FE9
S31508006FD004D02120BDE8F0877D27F3E701342B5D37
S31508006FE0BB4209D12B195B7813F0DF03F1D1222FAD
S31508006FF000D12B550134D4E75C2B07D13246214604
S315080070002846FFF7A5FF0028E3D0013E0134A64233
S31508007010E5D8DEE75C2F08D1324621462846FFF739
S3150800702097FF0028D5D0013EE4E7202FE2D10022C1
S31508007030631C9E420A70DDD9EA18EB5C202BD9D076
S31508007040D8F80030132B05DC49F823200133C8F89B
S315080070500030CFE71E20BDE72DE9F04F002183461B
S31508007060ADF2646D4FF4847207A806914EF0DCFC0D
S3150800707058464EF0FDFC8CAA019049A95846FFF7E0
S315080070807AFF044678BB8C984EF0F2FCA04605467B
S31508007090A1462746DBF828614EBBB8F1010F40F040
S315080070A0C08006A84EF0E4FC2C44471B0BEB0409F1
S315080070B027EAE77805F118030DEB0301424648462F
S315080070C04FF01CFB09F80860DBF81C118C42DBF852
S315080070D01C2100F3A180DBF820113A443944CBF88F
S315080070E02011CBF81C210DF2646DBDE8F08FD6F89F
S315080070F008A0BAF1000F62D05F4417F8012B202AC6
S3150800710014D000270C2303FB07F20AEB02030293B1
S315080071105AF802300093002B4BD0499B99450493AB
S3150800712047DC029B1A7A1AB17A1C2FE00134E4E78D
S315080071308CAADBF8205152F829302D1B2A4618460E
S31508007140009903934EF082FC05900028ECD1009834
S315080071504EF08EFC029B01465868059A90F80CC0C2
S31508007160BCF1FE0F16D1049B03F1FF3CE14528D084
S31508007170D0F800A0039800924EF07AFC0134009AE9
S3150800718004441BF8041019B109F101091746B9E7B7
S315080071900134F6E78D42C7DC06A802914EF068FC7A
S315080071A002990844B0F5847F19D3634906A83CF0D0
S315080071B0C1FB5A46019B03EB0B018A4223D1366871
S315080071C06AE78D42E8DD14464FF00C0A05680AFBAB
S315080071D004F2A95871B9A0440D46019CE9E7009943
S315080071E006A83CF0A7FB554906A808F101083CF09B
S315080071F0A1FB99E706A83CF09DFB504906A83CF080
S3150800720099FB0134E3E712F8010B0028D5D14FF0BA
S31508007210200302F8013CD0E70132CBF81C210131EA
S3150800722054E77FF760AF49AF4FF486723146384668
S315080072300DF50C794EF0F8FB4FF486623146484658
S315080072404EF0F2FB06AB1A464FF0010A12F8018B14
S31508007250B8F1000F43D1184649F82A6000934EF05A
S3150800726007FCBC464246009B06A9C84613F801EB34
S3150800727058F8046B86423CD1013292450CF801EB72
S31508007280F3DADBF81C21AA423ADB38464EF0F0FB6B
S3150800729002462C447919551B25EAE5720BEB0400C6
S315080072A014440BEB04070BF58E76B74240D90BF561
S315080072B09276B0423CD2013905442A1A002A33DDB7
S315080072C011F8012F00F8012BDBF81C210132CBF84D
S315080072D01C21DBF820210132CBF82021EDE7B8F19B
S315080072E0200F06F1010604BF49F82A600AF1010ACF
S315080072F0ACE70E44B65C7645BAD00021B954C0E76F
S31508007300DBF81C1101320131CBF81C11BBE7DBF8A5
S315080073101C21013D0132CBF81C21DBF8202101326A
S31508007320CBF82021002DF2DC00220BF80420DAE647
S315080073304FF0E4F9F6E700BF16240608FF19060819
S315080073402DE9F0470F4615460024DFF8709002F144
S31508007350040899F8106002F1090A5FFA88F8A2454C
S3150800736005D8013689F810600020BDE8F087052C9D
S3150800737011D8DFE804F01D08030A0C0ED12044F0EA
S31508007380DBFB0134EBE74046F9E70220F7E700208C
S31508007390F5E73046F3E7AB1D9C420BD0EB1D9C424C
S315080073A008D005F108039C4206D0BB1F185DE6E726
S315080073B05B20E4E75A20E2E75D20E0E77851002009
S315080073C070B5044608B9012070BD057D28461DF034
S315080073D00BFD30236B4303F1A04303F580232846B6
S315080073E0DE6E1DF023FD0A4B9E421CBF042384F863
S315080073F0A13094F8953094F8A1002BB1022803D156
S31508007400012384F8A130DFE70428DCD1F8E700BFC0
S31508007410895100202DE9F743D0E9043404F17C07AB
S31508007420D0F80C900646013B102200213846D4F8C5
S3150800743074809DB24EF0F8FA0B4BC5F30A0543EA81
S315080074400513C4E91F39012394F8780084F88C30B1
S31508007450C4F884803A46054B009604F1640146F068
S31508007460A3FB03B0BDE8F083000010307174000878
S31508007470536910B514460022D3F8900083F88C207F
S3150800748028B10168C3F890100260FFF7C3FF63686C
S315080074901BB100212046A2689847002010BD03466C
S315080074A093F89420084610B5FAB10A69B2F5006F48
S315080074B01DD8EFF31184302282F3118893F88C20BB
S315080074C04B617AB103F19002D3F890303BB903606F
S315080074D0106084F31188BFF36F8F002010BD1A4621
S315080074E01B68F3E7FFF796FFF3E70E20F6E7212080
S315080074F0F4E7034B5A6812B19A6A002AFAD1704720
S3150800750000400650044BD3F88420D206FBD4D3F8A7
S315080075108400C0F38110704700400050430905D02D
S31508007520012B0CD0022B084B18BF002300F01F00BC
S3150800753039B103F58053012282401A607047034B24
S31508007540F4E703F50053F6E76880005064800050BE
S31508007550014B1870704700BF3C6B0020014B93F934
S31508007560000070473C6B00204FF48032104B10B57A
S315080075709A66A3F580531B6FC3F3033303FB00001E
S315080075800C4BDC69144041F67132DA635A6822F40E
S31508007590401259B90849884294BF002001200005C5
S315080075A002435A600CB10022DA6310BD0349F2E7C0
S315080075B00090005000000350005A6202002D31016D
S315080075C010B50C4C022040F0E9FB236F0A4AC3F3BE
S315080075D080230133002109489374FFF7C5FF236F01
S315080075E043F4806323674FF4803304F5805423679C
S315080075F010BD00BF008000507851002000B4C404BC
S31508007600024A536B0342FCD1704700BF0040095041
S315080076104FF000420F4B70B55D6E03F580535A6606
S315080076204AF6CD3304460C4980204E6C0B64FFF7AE
S31508007630E7FF0B6A23F4F85343EA04230B62F307C4
S3150800764044BF064B0B64002DA2BF4FF00042044B0B
S315080076505A6670BD00800050004009503254FFFF42
S3150800766000A000504368DA0715D58368DB0702D502
S315080076700369D90708D50A238363436D13F0500FAE
S31508007680FBD1836C9A07FCD1012200F500535A609E
S3150800769043689B07FCD47047012200F580535A6063
S315080076A001F00F02436DC3F30B03002BFAD182637B
S315080076B0436D13F0780FFBD101F001034A0748BF69
S315080076C043F00203826C02F003029A42FAD1704731
S315080076D0012910B502D9022913D010BD134B5C69D4
S315080076E0B83C14F1B80FF8D0D4F8A80050F092FEC0
S315080076F0D4F8A43005211868FFF7CEFFD4F8B840AF
S31508007700EEE70A4B5C69B83C14F1B80FE5D094F87B
S31508007710973043B994F8953003F0FF011BB9D4F8B4
S31508007720A80050F033FDD4F8B840ECE778510020B3
S315080077300123F0B5C4B2214DA340D1F800C08F7A19
S31508007740CC7A0E7B2B65850005F1A04505F58825C5
S31508007750C5F804C030256843240591F80DC044EAED
S31508007760074400F1A04000F5802044EA465422F080
S315080077700302C0F860C0C4650267EFF3118485F39D
S3150800778011880F4A087A536500B11364487A00B124
S31508007790936308798A7942EA0042084882614D79FA
S315080077A0CA79074942EA05428A61064A43639364ED
S315080077B084F31188BFF36F8FF0BD00BF002004501B
S315080077C000100450000004500123C0B28340EFF3B8
S315080077D01180302282F31188054A516D21EA03018E
S315080077E05165936280F31188BFF36F8F704700BFAE
S315080077F0000004500123C0B28340EFF31181302208
S3150800780082F31188074AD06A184209D1526B93430A
S315080078100CBF0120002081F31188BFF36F8F7047DA
S315080078200020F8E70000045041F671320121064BAA
S31508007830DA6303F50052D1600022DA634FF480322E
S31508007840A3F518339A6670470000035073B50D46C2
S3150800785091072FD483072DD1034622F003028118FE
S315080078608B4216D14FF48031164BAC18996641F607
S31508007870713103F51C33D963012103F50053D9602F
S31508007880461BA54205EB060008D102B0BDE87040CC
S31508007890CAE71C6801340DD10433E1E7042255F820
S315080078A0043B0DEB0201019350F0C6FD0028E8D019
S315080078B0FFF7BAFF4FF49C71034802B0BDE8704069
S315080078C04EF03EBF009000501B2406082DE9F743F2
S315080078D00446E0070F46154604D54FF4F2713748BB
S315080078E04EF02EFFE90704D540F2E51133484EF075
S315080078F027FF04F47043B3F5805F40D1C4F30B044B
S315080079002F4A04F17E646B1E2344934204D94FF434
S31508007910FF712A484EF014FF2646DFF8A09006EBC2
S315080079200508464540D1A2070ED04FF6FF7337F833
S31508007930022BA01E43EA024304220DEB0201019327
S31508007940FFF784FF0234023DAB070ED0023D25F057
S315080079500103FB5A04226FEA03436FEA13430DEB54
S31508007960020160190193FFF771FF25B12A463946CE
S315080079702046FFF76BFF002003B0BDE8F08304F450
S315080079806043B3F5005F06D1C4F30B0404F1016448
S3150800799004F5FC24C0E740F2062108484EF0D0FE64
S315080079A06FF00F060024B8E716F8013BFF2BB8D096
S315080079B040F2112148464EF0C3FEB2E71B240608E2
S315080079C0FF03E00F021E30B54FF000000CBF102574
S315080079D0042547F60774084952B9831D51F8233020
S315080079E0234023B101308542F6D14FF0FF3030BD38
S315080079F000F11603F2E700BF0080035010B5C2F38A
S31508007A00062402F0070241B942EA042242F440225F
S31508007A100630234B43F8202010BD142C2ED008D84E
S31508007A20012C33D0122C23D0631E312B07D9002307
S31508007A3009E0242C04F1FF3309D8202C09D8194968
S31508007A400B4493F8503042EA03221630E1E7322C11
S31508007A50EAD1042AF3D8DFE802F00305170709007C
S31508007A600022ECE70122EAE70322E8E70422E6E738
S31508007A70022A0DD0032A0DD01123E0E7022A0BD0E3
S31508007A80032A0BD01323DAE70222D8E70023D6E726
S31508007A900022F1E70122EFE70022F3E70122F1E7EE
S31508007AA000800350283B07080A4392B20021FFF7DB
S31508007AB0A5BF3AB122F0030202F1A04202F56032F4
S31508007AC009B9106070470002FBE74FF48032074B94
S31508007AD05A6603F5E6239B69C3F38512827003F0A1
S31508007AE03F021B0B42700370704700BF00900050A6
S31508007AF010B5036BDC0702D503695A06F9D40122CF
S31508007B0000F500531A63036B9B07FCD40B794A886C
S31508007B101B0243EA82438A7A13434A7843EA82136A
S31508007B20CA7A43EAC2130A7B43EA42134A7B43EA08
S31508007B3002138A7B43EAC203CA7B43EAC2238A79D1
S31508007B4043EA0243CA7943EA42430122436000F505
S31508007B5080531A630A780AB90223C3600023436272
S31508007B604B790C7A1B01497A43EA84030B438360F9
S31508007B700AB10123C36010BD012200F580531A63C0
S31508007B800223C36000231F4900F500528360836106
S31508007B9051614FF6FF710362C1614CF68061436221
S31508007BA0436683660367C0F88430C0F88830C0F837
S31508007BB09030C0F8A430C0F8A830C0F8B030C0F88B
S31508007BC0FC10C0F8EC30C0F8F0301F23C0F8F830CD
S31508007BD0036BD90702D503695B06F9D4012313633E
S31508007BE0036B13F00203FBD143600366C0F88030D1
S31508007BF0C0F8A030C0F8E030C0F8E830C0F8E4308B
S31508007C00704700BF77007707C3681944836853F83D
S31508007C10210030F8023B1360704710B5044600F5A2
S31508007C209C704DF025FF04F237131A180020934272
S31508007C3000D110BD13F8011F0029FAD00A2908BF80
S31508007C400130F4E70023F0B50B6013600646D0F860
S31508007C50380378B196F8380160B1012406F59C77A7
S31508007C60D6F83803844210D306F59C70B3F5007F26
S31508007C7010D30120F0BD0D6801350D60156801357A
S31508007C801560F85C01330A2802D0B3F5007FF2D3F9
S31508007C900134E5E7C15C0A29EBD00029E9D011686F
S31508007CA0013301311160E1E72DE9F04100220E466A
S31508007CB00446D0E9470594F82431012B07D10A2E4A
S31508007CC006D1002384F824310020BDE8F0815CD871
S31508007CD01B2E01D10223F5E70D2E07D1012384F8C7
S31508007CE0243100230120C4E94733EEE70027082E94
S31508007CF084F8247116D1B84212DDA84205D101389C
S31508007D002754013DC4E94705DEE7FBDA461EAA1BF0
S31508007D102118A0194DF0B4FE67553046013DF1E72C
S31508007D20D2D0EFE77F2E10D1002DCDDDA842CBDAD9
S31508007D30411C2A1A214420444DF0A2FE6755D4F866
S31508007D402031013BC4F82031BEE70A2EC9D0092EDE
S31508007D5003D12046FFF780F9B6E7D4F81831013B7E
S31508007D60AB42B1DDA84204EB000800F1010704DAD2
S31508007D702A1A4146E0194DF083FE88F80060D4F8C7
S31508007D802031C4F81C710133DCE7022B06D15B2EC7
S31508007D9001D1032396E784F824218CE7032B93D19A
S31508007DA0413E84F82421032E8ED8DFE806F0020728
S31508007DB00A100121204600F00FF885E74FF0FF3141
S31508007DC0F8E7A84280DA0130C4F81C017CE70028ED
S31508007DD07FF77AAF0138F7E773B50D460446FFF724
S31508007DE01CFF6B1C1FD1D4F8383313B1013BC4F800
S31508007DF0383300212046D4F818214DF015FE00230B
S31508007E00C4E94733D4F838335BB16A46204601A93A
S31508007E10FFF718FF28B1019D04F59C76009BAB423D
S31508007E2009D802B070BD012DFBD1D4F8383383428E
S31508007E30F7D20133DBE7715D2046FFF735FF0135E1
S31508007E40ECE70FB407B504A951F8040B019143F008
S31508007E503DF9002003B05DF804EB04B0704770B537
S31508007E6006460D464DF004FE04463046FFF7E9FF88
S31508007E70044EAC4200D370BD3046FFF7E2FF013432
S31508007E80F7E700BFFF1906080028ACBF00F16040FD
S31508007E90064B4FEA0111C9B2ABBF00F5614000F0CD
S31508007EA00F0080F800131954704700BF14ED00E066
S31508007EB0002808DB01224309034900F01F0082401D
S31508007EC0603341F82320704700E100E0002807DB13
S31508007ED001234109034A00F01F00834042F821307C
S31508007EE0704700BF00E100E0EFF31183302282F310
S31508007EF01188034A906983F31188BFF36F8F70471F
S31508007F007851002013B5FFF7EFFF40B1C46834B1CC
S31508007F100122006801AB0DF10301A04718B14FF02B
S31508007F20FF3002B010BD9DF80300FAE707B58DF8DB
S31508007F30071030B9FFF7D8FF18B9232003B05DF84A
S31508007F4004FB4368002BF8D001220DF107010068F5
S31508007F509847F3E72DE9F84F044602216148FFF7F1
S31508007F607EFF1E212068FFF77AFF63685868FFF7CF
S31508007F7068FF5D48FFF765FF67683B7BFD2B12D8F6
S31508007F80D7F808804FF0FF3440464DF071FD06469D
S31508007F90DFF85091DFF8ACA1DFF868B10C3717F8B5
S31508007FA0013BFF2B01D1BDE8F88F212B14D8212BDB
S31508007FB014D8DFE803F0178D8985817D7975131349
S31508007FC0131313131313716D6965615D59551313F3
S31508007FD0131313131313514DFE2B35D006B1013469
S31508007FE0424D02E006B10134414D02214846FFF7F1
S31508007FF036FF1E214846FFF732FF5046FFF721FF9E
S31508008000594628464DF018FD3A49002818BF294612
S315080080103948FFF716FF3B78202B03D12B21002088
S31508008020FFF784FF3548FFF70CFF4EB118F8043008
S315080080301F2B05D018F804101F2901D0B4424BDBBA
S315080080402948FFF7FEFEAAE706B101342C4DCCE716
S3150800805006B101342B4DC8E7002EA0D001349EE7A7
S3150800806006B10134284DC0E706B10134274DBCE7F7
S3150800807006B10134264DB8E706B10134254DB4E7FB
S3150800808006B10134244DB0E706B10134234DACE7FF
S3150800809006B10134224DA8E706B10134214DA4E703
S315080080A006B10134204DA0E706B101341F4D9CE707
S315080080B006B101341E4D98E706B101341D4D94E70B
S315080080C006B101341C4D90E706B101341B4D8CE70F
S315080080D006B101341A4D88E70020FFF727FF01345F
S315080080E0A8E700BFD4AD070807EE050817AB0708D1
S315080080F0BF2406080A25060817AA05081B9F0508AF
S315080081001C260708C5240608CE240608D524060812
S31508008110E0240608EA240608F4240608DF240608EC
S31508008120E9240608F324060877B20708FC2406089B
S3150800813004250608B9240608C024060803250608E7
S31508008140B8240608DF97050810B50446236803B95E
S3150800815010BD237A13B92046FFF7FCFE0C34F5E769
S315080081602DE9F04FD1B03CAE0A90324608460EA92A
S31508008170FEF701FF054658BB3C990DF134080DF191
S31508008180320B0DF133098DF8A000C8F800008BF802
S31508008190000089F80000F9B1A248FEF7E3F8D8B95B
S315080081A00124C8F800400A9B0020D3F82871BA4673
S315080081B0BAF1000F12D114B1012389F8003099F8E9
S315080081C000204AB39BF8003018B3D3B1FFF7C2FEBC
S315080081D0284651B0BDE8F08F2C46E4E7DAF80800E7
S315080081E060B10EAB0021CDE902B9CDE9006828AA35
S315080081F0FEF7D6F89DF8A030002BDCD1DAF800A0FF
S31508008200D6E7FFF7A1FFE3E7B86808B1FFF79CFFD9
S315080082103F68002FF8D1DBE7002800F053810E9B5A
S315080082200693D8F8003008930899069B8B42C0F24B
S315080082304B811146436807930B335F78581CFF2F11
S3150800824027D107981B1A08980B3B034400292CD002
S31508008250069A013B9A422DDB4FF0000B5A465C46C4
S31508008260079B0DF150090C330593CDF810B0069B0A
S315080082705B4521DC0A9B0FA80F930E9B109314AB4A
S3150800828011930D9B1293059B1393079B1B689847A5
S315080082909EE7172F04D8102F28BF01220346CCE7E4
S315080082A0203F012F98BF0121F8E7002AD0D1069A6E
S315080082B09A42D1D02B258BE7089B5B450DDD002A1A
S315080082C040F0FE8006273368C9F8003000220BF11B
S315080082D0010B043609F10409C9E7DDE904135B5CFF
S315080082E0202B1DD1059B0B445B78FF2BE2D1FAB9F5
S315080082F0D6F80080072F00F2C88001A353F827F0AC
S315080083005D8300088B830008AD830008CD830008D1
S31508008310ED8300080D840008C5820008298400083A
S31508008320212B0AD1DDE9042313445B78FF2BC1D145
S3150800833033680122C9F80030C9E7A3F11007072FEF
S3150800834004D904991F4601310491D0E7DDE90413E5
S315080083500B445B78FF2BADD1FFB2C8E7002241463C
S315080083600820FEF791FD002800F08F800022306873
S31508008370114646F0A9F928AB03EB8402C0B243F8CC
S315080083802400C9F800200134A0E700224146102045
S31508008390FEF77AFD002878D000223068114646F0AC
S315080083A093F928AB03EB840280B2E8E70022414642
S315080083B02020FEF769FD002867D0002230681146A4
S315080083C046F082F928AB03EB8402D8E74146082039
S315080083D0FEF7B6FD002858D000223068114646F050
S315080083E0F7F828AB03EB840240B2C8E741461020F1
S315080083F0FEF7A6FD002848D000223068114646F050
S31508008400E7F828AB03EB840200B2B8E74146202020
S31508008410FEF796FD002838D000223068114646F04F
S31508008420D7F8CFE70C25060898F800307B2B2CD117
S31508008430414602234FF0000A2448CDF8248011F85B
S31508008440012F7D2A16D118F80330F3B91AF0010A5C
S315080084501BD153468DF83EA0099911F8012F7D2AA4
S31508008460099114D188F800301B0A88F80130C9F838
S3150800847000802BE710F802C01CF0440F03D00AF165
S31508008480010A0133DBE7202AFBD02625A0E6202AAD
S31508008490E2D00AF001010AF1010A11B98DF83C206F
S315080084A0DAE78DF83D20002110220FA80B9346F03D
S315080084B08FF80B9B08EB0302013390709BB2CBE756
S315080084C0062735E72D2583E6212581E6ADF0070841
S315080084D00B460146184629E5014608B1002025E560
S315080084E070472DE9F0410468054694F89410002970
S315080084F061D1EFF31183302282F31188C4E9161192
S3150800850083F31188BFF36F8FFFF7EEFC854202D124
S31508008510084644F08CF8236E284F93F910603046CD
S31508008520FFF7C6FC3046FDF7D9FE236E93F91160B6
S315080085303046FFF7BDFC3046FDF7D0FE3B78207D80
S3150800854043B1072806D81E4B03EB00131B7B0BB160
S31508008550FFF73AF9207D44F0DBF9EFF31188302371
S3150800856083F311880023164A167BA6B90133082B14
S3150800857002F11002F8D11520FDF7B0FEFF22114BCB
S3150800858031465E6520209A625E60FEF7C7FF2120AD
S31508008590FEF7C4FF3E7088F31188BFF36F8F002380
S315080085A0C5E90033C5E90533EB60236E2046BDE80F
S315080085B0F041DB6818470F20BDE8F081AC170020B2
S315080085C01411002000000450302337B5007D0DF14A
S315080085D00701434303F1A04303F58023DD6E1C6FB7
S315080085E04FF0F0FD9DF8070040B9054B9D4203D1B9
S315080085F084F00204C4F3400003B030BD0120FBE759
S315080086008951002010B50446FFF7DEFF38B1236D07
S31508008610D4E912020244934218BF184610BD30220C
S31508008620237D534303F1A04303F58023DB6EEFE775
S315080086303021037D02464B4303F1A04303F5802313
S31508008640D86E07491B6F884208D113F0020006D07E
S31508008650106A136D1B1A584258417047002070471C
S31508008660895100202DE9FF470446007D04F13806AC
S315080086701CF0BAFB1022002130464DF0D5F94FF018
S31508008680300A4FF44473207DDFF810913F4F63871B
S315080086900AFB0093C4E90F77DB6EBB4204D104B032
S315080086A0BDE8F0471CF0C2BB0DF10F014FF08AFD83
S315080086B09DF80F70002F62D12046FFF7A3FF344ABA
S315080086C080461278237DEAB1072B1BD8314A02EB84
S315080086D00312127BB2B1EFF311818AF31188D9F82C
S315080086E034000AFB0399D9F8642081F31188BFF393
S315080086F06F8F012101FA03F3034204BFC2F30A1381
S315080087005F183D4604F11807102200213846D4F8B0
S3150800871010904DF089F93022237D013D5343C5F36E
S315080087200A052D0145F04075C4E9065903F1A04331
S31508008730C4F8208003F580231A6F94F82410520891
S3150800874062F3410184F82410196F94F8242027F065
S31508008750030761F3000284F824201B6F626A9B08F2
S3150800876063F39F0247F00207626267640094207D04
S3150800877032462146084B45F017FA207D8FE794F8D4
S3150800878044306FF3410384F84430EFE78951002001
S31508008790AC17002014110020CB89000800000450F3
S315080087A02DE9F04F9B460023044687B005910392B6
S315080087B0CBF80030DBF80050039B5E1B00F0A0806E
S315080087C0059B5D1900F09C80207D1CF00DFB204662
S315080087D0FFF72EFF8146207D1CF028FBB9F1000F1C
S315080087E040F08E802046FFF70DFF216D94F89A80A1
S315080087F088429CBFD4E91203C018401A864228BF93
S315080088000646B8F1000F00F0AB80EFF3118304932E
S31508008810302383F311883746D4F850A02046FFF753
S31508008820D3FE0AEB06029245D4F89C1071D1D4E91E
S3150800883012231344994208BFC4F89C20049B83F36F
S315080088401188BFF36F8F8046207D1CF0CDFA204635
S31508008850FFF7BAFE05462046FFF7D4FED4F850A027
S315080088608146504540F28A80A36CB5B29A457DD1BF
S3150800887023691022049304F12803002118464DF0B9
S31508008880D3F83021049A013DC4E90B2A227DC5F3A9
S315080088900A054A432D0120F0030302F1A04245F0E0
S315080088A0407543F0020302F58022A5621367236D23
S315080088B0D4E9121233440A44934208BF0B464B4587
S315080088C0236505D10123204684F85430FFF7CAFEF4
S315080088D0207D1CF0ABFA94F89A303BB1B8F1000F42
S315080088E004D0236E112120465B689847DBF80030D8
S315080088F037B1039A3B449342CBF80030FFF45AAFA2
S31508008900DBF80030002B14BF00201B2007B0BDE8A1
S31508008910F08F0AF1010A0AF1FF33994210D1C4F81F
S315080089209CA01AF8013C112B01D0132B14D1013F3E
S31508008930A3F111014B424B41C14684F8A03072E7BE
S315080089401AF8013C03F0FD01112906D1013FB9F1DE
S31508008950000F3FF468AFEBE7C14605F8013B62E755
S31508008960324628464DF0CAFE37466DE7238DC3F3D7
S315080089700A12154465F30E13238598E7207D95B9E9
S315080089803023434303F1A04303F58023596E5A6EFF
S31508008990C1F30A1122F4FF42314422F0700242EA7E
S315080089A001125A6683E7CDE900644A4623692168BD
S315080089B03FF08CF93022237D534303F1A04303F59E
S315080089C080235A6E22F48012EBE792F8543037B5BA
S315080089D0144633B1936D0BB1D06D9847002384F8D4
S315080089E0543094F89A301BB32046FFF7EDFDF8B1E2
S315080089F0236E132120465B6898471025236E204670
S31508008A001B680DF10701984778B99DF8073003F000
S31508008A10FD02112A05D1A3F111025342534184F8EC
S31508008A20A030013D15F0FF05E8D12046FFF71AFEF4
S31508008A30002084F8540003B030BD2DE9F74F002814
S31508008A4000F0E9807649CB699842C0F0E6800A6A68
S31508008A501344984280F0E180D1E90C4EEFF3118B74
S31508008A60302383F3118810F8086C30F806CCF30726
S31508008A70A0F1080502D5BCF1000F07D18BF31188C8
S31508008A80BFF36F8F012003B0BDE8F08F4B6AD1F8B2
S31508008A902C90A3EBCC0330F8048C00934B6209F1BD
S31508008AA001030CF10102CB62B8F1000F3AD0A5EB35
S31508008AB0C803DF88B3F802A001971F7806F00206FC
S31508008AC0FF0724D426BB019EA6EB0A06012E29D150
S31508008AD0009E0CF10202A6F108075244C1F82C9038
S31508008AE04F6230F8028CB8F1000F1DD110F8085CFF
S31508008AF020F8068C68F3000500F8085C013A5A80ED
S31508008B001A7868F300021A700022DA803FE04EB144
S31508008B1010F8086C42446FF3410600F8086C00260A
S31508008B209E80DEE72B46DCE705EBC809D1E9076737
S31508008B303744B9450ED310F8085C013A6FF30005BF
S31508008B4000F8085C002520F8065C5A801A7865F358
S31508008B500002D8E715F838504E4615F0010530D012
S31508008B6010F8085C013A6FF3000500F8085C002568
S31508008B7092B220F8065C5A801A7865F300021A70D9
S31508008B80C3F107023244C2F3CF02DA80B280002C66
S31508008B903FD09C423DD86288002A08BF1C46BEF1D9
S31508008BA0000F06D09E4504D3BEF80220002A18BF3F
S31508008BB07346C1E90C438BF31188BFF36F8F00200E
S31508008BC061E7A8EB0C08B8F1010FC9D1B9F8027032
S31508008BD0A9F802501744B9F80620C2B109EBC20633
S31508008BE00025CA6A013ACA624A6A083A4A6210F80D
S31508008BF0082C20F8065C6FF3000200F8082C1A7897
S31508008C005F8065F300021A70002EB9D17CE716461C
S31508008C10E6E71C46C3E7222035E700235B69FFDE4B
S31508008C2078510020002313B5019369B160B101FBA7
S31508008C3000F401A9204641F0A7FF014620B9019892
S31508008C4010B122464CF0F0FE019802B010BDFEE7C6
S31508008C50002307B5084601A9019341F095FF01983D
S31508008C6003B05DF804FB0846E7E608461146D9E76F
S31508008C70002303604360704700232DE9F347804FC4
S31508008C8001933B6A0C469A42104604D239B912B18E
S31508008C9001A941F079FF019802B0BDE8F0871AB939
S31508008CA00846FFF7CAFEF6E7EFF31188302383F389
S31508008CB0118831F8063C07304FEAC30920F007054A
S31508008CC0A945A1F1080C72D231F8022C002A5DD010
S31508008CD0D11A01295AD10CEBC2061CF83220D20748
S31508008CE054D47188A9EB050212EBC1024ED41F2A8F
S31508008CF031DDC5F3CF0324F8063C0133601924F8A7
S31508008D00023CFFF7B5FFD30834F8022C4380828073
S31508008D10F288EAB17188511A11FA83F39BB206EB0D
S31508008D20C202C38093800022314641F0E9FE3046F4
S31508008D30FFF79EFF7B6ABA6A2B44A3EB09039342AB
S31508008D4001947B6231D888F31188BFF36F8FA2E74D
S31508008D500023C380E7E7FA6A0133013AFA62F28828
S31508008D600B4424F8063C6AB17188511A11FA83F348
S31508008D709BB206EBC20224F8023C938001223146DC
S31508008D806046D2E7002324F8023CF7E7284601A903
S31508008D9041F0FAFE0028D6D14A46214601984DF000
S31508008DA0ADFC2046FFF749FECDE7BB62CBE764D9A9
S31508008DB031F8021CA9EB05064A1ED21AA9B31CF8FB
S31508008DC031300CEBC10ADB0730D47ABBC5F3CF03CD
S31508008DD024F8063C0133601924F8023CFFF748FFE3
S31508008DE034F8022CBAF802308280BAF8062003EB6F
S31508008DF0D6034380BAB1BAF80210511A11FA83F3AE
S31508008E009BB20AEBC202C38093800022514641F00E
S31508008E1077FE5046FFF72CFF7B6A01941D44A5EBAD
S31508008E2009057D628FE7C280EFE78A46272EF3D9C8
S31508008E30C5F3CF0324F8063C0133601924F8023C35
S31508008E40FFF716FF013E34F8023CF6084680838099
S31508008E50BAF1000F0ED0013212FA86F6B6B2C68003
S31508008E60AAF804600022FB6A11460133FB6241F04E
S31508008E7047FED1E7A0F806A0F4E7019163E700BF33
S31508008E807851002010B50A4C94F8583073B194F80C
S31508008E9059305BB14DF066FE002384F8593084F8EA
S31508008EA05A30012384F85B3084F85C3010BD00BF6B
S31508008EB0785100200122014B1A7070477851002022
S31508008EC03E4A70B5156F15F0040329D03C493D4C50
S31508008ED00B6708238B62926D12F0010F12D13A4A82
S31508008EE01268B2F57A7F0DD9384E326C120709D559
S31508008EF0374A13644FF008F8736D1BB123660123D4
S31508008F0084F8643094F8583013B1012384F8593042
S31508008F10FFF7B8FF0123042284F865302C4B1A6446
S31508008F2015F0010624D00122254B264C1A6794F821
S31508008F306430DBB14DF070FE236EC01AA066A36ED6
S31508008F4003B1A66E4FF41671A666A36E1E4BA26EEB
S31508008F501B684B431F4903F5742303F23F23B3FBF6
S31508008F60F1F3934210D2002384F86430FFF78AFFA6
S31508008F7015F000521CBF124B1A67002DBEBF4FF0EA
S31508008F8000420F4B1A6770BD94F86C30A16E04EB63
S31508008F908300426F0133511A226FDBB2521AA16E57
S31508008FA0226741670A210932B2FBF1F26260B3FB1C
S31508008FB0F1F201FB123384F86C30D4E70040005A12
S31508008FC00060005A78510020983E002000800A5020
S31508008FD000A00A5040420F00B0F1006F0FD300F016
S31508008FE07843B3F1006F0CD000F06040B0F1404F09
S31508008FF009D0B0F1604F14BF042003207047002049
S3150800900070470120704702207047034630B10020A0
S315080090101A5C02B9704701308142F9D170474FF0A6
S31508009020FF307047FEE70020704700207047002099
S3150800903070472DE9F04F984691B00B1E0A93AF4B37
S31508009040914614BF83469B4600241A9E98F8000052
S3150800905070B94C4538BF22464B464FF000000A9976
S3150800906028BF09F1FF32D847204611B0BDE8F08F76
S31508009070252808F1010806D022464B460A99651CA0
S31508009080D8472C46E2E700230DE02D2A2AD0302ABD
S3150800909006D0303A092A4FF0000711D80A2532E0DF
S315080090A043F001038846414611F8012B2B2A1CD0B0
S315080090B0EBD8202A1CD0232A1DD02A2A2BD00027F9
S315080090C098F800202E2A64D198F8011008F10102B8
S315080090D0A1F13000092843F4806350D800254FF0E9
S315080090E00A0C26E043F00203DCE743F00403D9E761
S315080090F043F00803D6E743F01003D3E7884605FB99
S315080091000722A2F13007414611F8012BA2F13000DF
S315080091100928F3D9D4E756F8047B8846002FBCBF44
S3150800912043F002037F42CBE702460CFB0511A1F18F
S315080091303005104610F8011BA1F1300EBEF1090FDB
S31508009140F2D99046424612F8011B6C292AD022D839
S31508009150682930D06A2939D018F8010B672879D8D8
S3150800916057284FD8452807D086D9462800F0358194
S31508009170472881D143F4006343F0200343E12A29B9
S3150800918006D156F8045B08F1020825EAE575D9E721
S3150800919090460025D6E7742901D07A29DCD143F414
S315080091A080730EE098F801106C29F8D143F44073E7
S315080091B008F10208D0E798F80110682903D043F0AF
S315080091C080039046C8E743F0C003F1E743F4007311
S315080091D0F7E70A2A00F06281072A7FF44DAF43F0C9
S315080091E0210305930823CDE903531023CDE9011381
S315080091F056F8043B2246009358464B460A99FDF713
S3150800920001FAFAE0A0F158020F2A3FF635AF01A19C
S3150800921051F822F0859200087990000879900008A4
S3150800922079900008799000087990000879900008EC
S3150800923079900008799000087990000885920008CE
S315080092402594000885920008FF930008DF9300081C
S31508009250FF930008A0F16902D2B20F2A3FF60CAFBD
S31508009260012149F2410C914011EA0C01B1D078284C
S3150800927003F4806125D1002900F0908023F00D02C7
S31508009280102307E0622803F4806227D1B2B923F0DD
S315080092900C02022312F4007100F08380CDE90772F4
S315080092A00022CDE9043206F1070A2AF0070A0695D4
S315080092B00292FAE80223CDE900233DE023F00D02ED
S315080092C0E7E76F2812D0692823F0100240D023F070
S315080092D01C0209B123F01D020A23DBE758280FD127
S315080092E09ABB23F00C0242F02002C9E719B923F011
S315080092F00C020823CEE723F00D02FAE739640008CA
S3150800930042BB23F01002930527D5073626F0070639
S31508009310B24671685AF8083B0A26CDE90772002753
S31508009320CA0F0029CDE904670695029202DA5B4264
S3150800933061EB4101CDE900314B46224658460A9970
S31508009340FDF7A6F90446564680E623F00D02CAE75D
S315080093500029D8D023F01102D5E7D00506F1040A72
S3150800936001D5336802E0510613D53378CDE9047286
S315080093700A22002B02924FEAD37203950192B8BFD4
S315080093805B4200934B46224658460A99FDF73AF93E
S31508009390D8E71306E5D5B6F90030E7E723F00C025F
S315080093A06EE7D00506F1040A06D5CDE90472CDE9C3
S315080093B0023501913368E4E7510608D53178CDE9DD
S315080093C002350023CDE90472CDE90013DAE73168E6
S315080093D012F0800F18BF89B2F1E743F02003CDE9F8
S315080093E00173073626F007060095B6EC020B4B46C6
S315080093F0224658460A99FDF754FB044626E667288E
S3150800940001D143F40063CDE90173073626F0070658
S315080094100095B6EC020B4B46224658460A99FDF7CC
S3150800942087F9EAE713F0020523D04FF0010A631C17
S315080094300B9322464B460A9916F8040BD8475DB398
S3150800944054460B9A1EE04B4620200A99D8470AEB49
S3150800945004020AF1010A5745F5D8002F07F1FF3330
S3150800946008BF002307F1010A1C4408BF4FF0020A8F
S31508009470DDE7AA46EBE7551C4B4620200A99D84754
S315080094802A460134BC42F6D3A7EB0A03574538BF30
S3150800949000230B9A1A440B920B9CD7E53246002DF3
S315080094A052F8046B14BF29464FF0FF310B9232462F
S315080094B03144107808B18A4211D1A2EB060A13F496
S315080094C080620C9202D0AA4528BFAA4613F002036E
S315080094D00D931BD1AAEB040322460F9308E0013231
S315080094E0E7E7531C0E9320204B460A99D8470E9A55
S315080094F00F9BD3189F42F4D8A7EB0A03574538BFEA
S3150800950000230AF101021C4403EB020AA31B0E9373
S3150800951004E01D464B4622460A99D8470E9BF41886
S3150800952016F8010B28B10C9B002BF3D06B1E002DEF
S31508009530EFD10D9B93B12246AAEB040505E0561C14
S315080095404B4620200A99D847324653199F42F6D8E7
S31508009550A7EB0A03574538BF00231C440B9E75E545
S315080095600FB41FB506AA52F8043B02A9039200924B
S3150800957004484FF0FF32FFF75CFD05B05DF804EBD9
S3150800958004B07047D98400080CB41FB506AC54F86B
S31508009590043B0A460094014604480394FFF749FD34
S315080095A004B0BDE8104002B0704700BF316400083F
S315080095B038B5451E15F8014F2CB90A212046FEF785
S315080095C0B5FC204638BD21460020FEF7AFFCF1E782
S315080095D030B40446EFF3108072B6256885EA0203B4
S315080095E00B406B40236030BC4EF016BE2DE9F041AF
S315080095F005460F461E4690464AB101233022194CAD
S315080096008B4002FB004436B304F5825423600F21D5
S31508009610072F05EB450388BFA7F108044FEA031394
S31508009620114895BFBC00A40004330C3308FA04F2B1
S31508009630A1401844FFF7CCFFB8F1000F09D1012368
S315080096403021084ABB4001FB05223EB102F5825291
S315080096501360BDE8F08104F50154D7E702F501521D
S31508009660F6E700BF00C0035030C0035070B5184C71
S31508009670FF28A66A2AD8A36D4FF0807113F4803F9D
S3150800968018BF4FF48032134B18BF9A629962124A78
S31508009690A36992F9005023F47F03054423F47F431A
S315080096A043EA002385F3080543EA0543A3613246E6
S315080096B00A48FFF78DFFA36DDB0305D532464FF445
S315080096C080310648FFF784FF002070BD2120FCE7A3
S315080096D00040005A0050005A3C6B00202840005AAF
S315080096E070B5104C4FF08071A66AA36D0E4813F43E
S315080096F0803F18BF4FF480320C4B18BF9A629962AC
S315080097003246A569FFF764FFA36DC5F30725DB039A
S3150800971005D532464FF480310348FFF759FF2846EE
S3150800972070BD00BF0040005A2840005A0050005A39
S315080097304FF4803310481149826A8B62836D03F0B7
S315080097400303032BFAD14FF080730D488B620A4B43
S31508009750996D30EA0101FBD1012008490865996D28
S315080097608907FCD4044B996D8807FCD5996D890740
S31508009770FCD5044904482BE70040005A0050005A1B
S3150800978003000100000001012840005AF8B504460C
S315080097900D46EFF31186302383F3118890F896303F
S315080097A0A1B173B990F898305BB1EFF3108572B632
S315080097B001204EF0B3FB28464EF02EFD012384F817
S315080097C0963086F31188BFF36F8FF8BD002BF8D05B
S315080097D0EFF3108772B608464EF0A0FB38464EF0F7
S315080097E01BFD84F89650ECE790F894302DE9F74F76
S315080097F004460D461646002B40F0928090F8997064
S31508009800EFF31188302282F3118890F895206AB117
S3150800981090F8982052B180F89530EFF3108972B617
S3150800982001204EF07BFB48464EF0F6FC88F3118883
S31508009830BFF36F8F4FF030082E44AE4205D1236E2A
S31508009840012120469B68984757E094F89A30002BE8
S3150800985041D0207D1BF0C8FA2046FEF7E9FE814676
S31508009860207D1BF0E3FAB9F1000F34D1EFF311892B
S3150800987088F31188207D1BF0B7FA2046FEF7C2FE52
S31508009880D4F848B000F1FF3ADA4538BFE36C207DDA
S315080098903CBF03F1FF330BEB030A94F854300193F2
S315080098A01BF0C4FA019B93B95346D4F89C1099420D
S315080098B00BD013F80129112A01D0132A21D1A2F1BC
S315080098C011035A425A4184F8A020C4F89CA089F38F
S315080098D01188BFF36F8F94F8A030002BADD0236E9C
S315080098E0A9462A785B689FB9236E20465B6899F873
S315080098F000100135984700289FD0002003B0BDE826
S31508009900F08F9B4582BFE36C03F1FF335B44CEE7E0
S315080099100A2AE9D10D21204698470028E4D0ECE729
S315080099200E20EBE703464160EFF3108072B6034A58
S31508009930516C196053644EF06FBC00BF785100201B
S3150800994038B50F4CD4F8B0307BB901234FF06042DC
S31508009950C4F8B030D2F8003E0A4943F48073C2F81E
S31508009960003E04F1B400FFF7DDFF0025064B07486B
S31508009970C4F8C030C4F8C85042F059FE284638BD6D
S3150800998078510020406B00204173000834520020B3
S315080099900246EFF3108072B6074951F8443F2BB1DF
S315080099A09A4205D113680B60002313604EF034BC4D
S315080099B019461B68F3E700BF7851002038B50446FE
S315080099C0D0F8A4301D68AB6C5906FCD5002394F872
S315080099D0AD101A4694F8AC00FFF708FE002394F879
S315080099E0AF101A4694F8AE00FFF700FE94F8B430AC
S315080099F0DA0707D5002394F8B1101A4694F8B00090
S31508009A00FFF7F4FD94F8B4309B0707D5002394F8C4
S31508009A10B3101A4694F8B200FFF7E8FD012205F5DF
S31508009A2000531A65042228461A65FDF71BFE002115
S31508009A30D4F8A8004EF0AAFB0C4904F1B8000A466F
S31508009A4052F8143F3BB198420CD1D4F8B8301360A1
S31508009A500023C4F8B8304B6913B90548FFF798FFD7
S31508009A60002038BD1A461B68ECE700BF7851002075
S31508009A70445200200246EFF3108072B60E4991F860
S31508009A80D530FF2B02D1A2B14EF0C6BB1BB9002AB6
S31508009A90FAD0012203E0002A0CBFFF220122134458
S31508009AA0DBB281F8D530B3FA83F35B0981F8D63097
S31508009AB0EAE71A46F3E700BF78510020024BD3F8CD
S31508009AC024044EF0A9BB00BF78510020F0B5294FF9
S31508009AD0044697F828340E4685B0002B48D0FFF781
S31508009AE07BFA012805D90238C0B2012834D92124C5
S31508009AF023E014F48013C4F3130725D01E4D95F8FC
S31508009B003430ABB3012128461BF0FEF93946284606
S31508009B101A4A0DF10F031BF0DEFD044680B99DF8C5
S31508009B200F30032B0CD0022B0CD1284613491BF0FF
S31508009B3048FA3060E86B43F0FBFF204605B0F0BDFD
S31508009B402D24F7E76124F5E700920B480A463946C3
S31508009B501BF066FE0446F0E7EFF3108372B6204664
S31508009B60C7F8243441F0DAF80446FFF7A7FFE4E71C
S31508009B701124E2E778510020681800200C1800200C
S31508009B802DE9F041194F054697F828340C465BB382
S31508009B90FFF722FA012805D9841EE4B2012C12D94E
S31508009BA021241CE0EB02C5F3130105D522681048F1
S31508009BB0BDE8F0411CF01CBB13460D482246BDE823
S31508009BC0F0411CF083BAEFF3108372B6C7F8243459
S31508009BD042B1A8B2FDF77AFE0446FFF76FFF2046AA
S31508009BE0BDE8F0812124F8E71124F8E77851002030
S31508009BF0681800201FB50023B0F5807F019300F098
S31508009C003C8169D85E2862D85E2862D8DFE810F001
S31508009C10750061006100610061006100610061001A
S31508009C20610061006100610061006100610061001E
S31508009C30610061006100610061006100610061000E
S31508009C4061006100610061006100610061006100FE
S31508009C507500F0007500F0001101110111011101E4
S31508009C601101F00023017E00A90046017E00F000E4
S31508009C70F000F000610061006100610061006100B0
S31508009C8061006100F000F000F000BF006501F0001F
S31508009C9061006100610061006100610061006100AE
S31508009CA061006100610061006100110175007500C5
S31508009CB0750056017E007E007101CE0094001E01DB
S31508009CC061006100610061006100DB0075008028A9
S31508009CD07FD0019804B010BDB0F5D06F00F0DE80DB
S31508009CE044D8B0F5607F00F08A801AD8B0F5007FB6
S31508009CF073D005D8B0F5C07FEBD14CF04FFE6AE0C3
S31508009D00B0F5207F74D0B0F5407FE2D14CF046FE26
S31508009D10924B1B6FC3F380230133B0FBF3F040086B
S31508009D2059E0B0F5B06F00F0968017D8B0F5806F9F
S31508009D307FD0B0F5A06FCCD10021884B0391D3F822
S31508009D40203203F00703042B06D8022B7AD8012BFE
S31508009D5074D0022B00F0E380039B98E0B0F5C06F47
S31508009D60B7D1002101A8FCF78BFAB2E7B0F5106F5E
S31508009D7000F0A4800FD8B0F5086F00F0D980A8D8F5
S31508009D80B0F5E06F00F0A980B0F5F06FA1D1734B84
S31508009D90D3F86031A4E0B0F5406F57D010D8B0F5CD
S31508009DA0206F00F0A680B0F5286F92D100216B4B8A
S31508009DB00391D3F8703203F00303012BCCD1AAE048
S31508009DC0B0F5486F85D100230393644BD3F89432DA
S31508009DD094E04CF0C5FD01907BE74CF0C1FD5F4B6C
S31508009DE0D3F89030C3F304630133B0FBF3F0F2E722
S31508009DF04CF0D4FD594B1B6FC3F38023F4E7574C43
S31508009E00D4F8802002F00302022A0AD0032A0BD0D3
S31508009E10012A0CD14CF0A4FDD4F88030C3F3011309
S31508009E20E2E74CF0CFFDF7E74D4B1868F4E7184624
S31508009E30F2E7002101A8FCF7EFFF4AE703A8FCF7C1
S31508009E40B5FF89E74FF40043039385E7002101A88E
S31508009E50FCF7ACFF3DE70021404B0391D3F8803176
S31508009E6003F00303022B5ED0032B58D0012B7FF49B
S31508009E7073AF03A8FCF7D0FF6EE702934FF0E02319
S31508009E801B695A0705D54CF089FD0290029B019380
S31508009E901FE703A902A8FCF7F3F9F7E72F4BD3F856
S31508009EA0003203F00700032812D05B070AD40138F2
S31508009EB001288CBF00200120C0038CE7274BD3F86C
S31508009EC00832EEE7042806D14CF068FD800A82E7DE
S31508009ED04FF47A707FE700207DE7204BD3F84032B5
S31508009EE003F00303032B20D0003B18BF0123DB0339
S31508009EF0CDE700230393194BD3F8603203F0070329
S31508009F00013B032B3FF628AFDFE803F002040D09F7
S31508009F100021AEE7002103A8FCF7B2F91CE74CF0D4
S31508009F2051FD039018E70F4B8EE74FF47A73AEE7AF
S31508009F300A4BD3F8003103F00303022B06D0032B98
S31508009F4007D0012B07D1084B1B68A0E74FF4004345
S31508009F509DE7064B9BE7002399E700BF008000506A
S31508009F60186B0020002D31011C6B002080D54302A0
S31508009F7008B58020FFF73EFE034B98429EBF4FF47C
S31508009F808032024B1A6708BD005A620200A00050D0
S31508009F9008B54FF4C070FFF72DFE0649064A8842F9
S31508009FA094BF00200120136F23F4806343EA8023C3
S31508009FB0136708BD80F0FA020080005038B50546E0
S31508009FC04CF0ECFC0446FDF79DFA0128D4BF0121AC
S31508009FD000212046FDF7C8FA00203DF013FF25B101
S31508009FE0FFF7D6FFBDE83840C2E70549054A0B6FBB
S31508009FF0927C23F48063013A43EA82230B67F1E7F4
S3150800A00000800050785100202DE9F041EFF31187C8
S3150800A010302383F31188344D95F82944002C5DD1FB
S3150800A020324B3348C5F8AC40EC601C604EF0F2F990
S3150800A030BFF34F8F2F48FCF743F94368012B35D000
S3150800A040C4604DF061FF00260F2201242A4B2948DF
S3150800A050DFF8B88086645A641A64FCF731F9C8F8E0
S3150800A060044004614CF02CFD0822244B86614320F1
S3150800A070C3F88821FDF72AFFC8F84440EFF3118892
S3150800A080302383F311884FF4E060FFF7B3FD0246EF
S3150800A09088F31188BFF36F8F194B1860A0B987F33F
S3150800A0A01188BFF36F8F2320BDE8F081416801292D
S3150800A0B002D0FCF705F9C3E743684CF001FD02231B
S3150800A0C003610D4B5960F4E7334640F2E7310D481A
S3150800A0D04AF07CFE0C4B85F82944186087F31188F2
S3150800A0E0BFF36F8F0020DFE778510020901600201D
S3150800A0F0B03B070800800A5000A00A5000E100E0C3
S3150800A100983E002018FCFFFF943E002000900A505D
S3150800A1102DE9F04FB34DA3B095F82A34B3B902210F
S3150800A120B148B24A2B64121AC5E90702013AD208A5
S3150800A130C5E90C0085F83810FEF79AFD428008221A
S3150800A1400123C5E90922EB6285F82A34EFF3118366
S3150800A150302282F3118895F82B24002A40F0AC842B
S3150800A160012285F82B2483F31188BFF36F8F6FF0D4
S3150800A170040210460132052152B2FDF785FE4C2A2B
S3150800A180F7D14FF000439A4E072273664AF6CD334D
S3150800A190984C0B20676C2364974BDA63FDF730FA0B
S3150800A1A06368012023F4F87343F48073636040F214
S3150800A1B00913A36040F20313236142F047FAFF072D
S3150800A1C048BF8E4B4FF0800048BF23648C4B596EB6
S3150800A1D04FF0004373664AF6CD33666C2364FDF789
S3150800A1E00FFA236AF60723F00F0343F00C032362E2
S3150800A1F048BF824B834848BF23640029A2BF4FF05B
S3150800A2000042814B5A664EF005F9804AD2F84C3125
S3150800A21013F4802300F056844FF07E6292F89C3047
S3150800A22092F99C20002AB8BF25234FF40001704AF2
S3150800A230022051664FF4D15102F5B8325162744981
S3150800A2404F2B486028BF4F23012001F58051DBB210
S3150800A2504860116911F48031FBD143F4807353616E
S3150800A26040F201439360694B5160D3F84C211403C3
S3150800A27000F12C84D3F85041E4B2664BDFF8C08174
S3150800A280654FC8F800305E4B97F900601B6F26448F
S3150800A29003F00703032B86F3080601D14CF07EFB77
S3150800A2A039F063FB03284BD04FF48012504B4FF024
S3150800A2B0A0615A6645F60E03584AC2F88030584BD4
S3150800A2C099624FF4803103F580539962936DD803F0
S3150800A2D0FCD4936D5900FCD4524B1361936903F077
S3150800A2E0004343EA064343EA042343F0407343F03A
S3150800A2F03C039361136A23F00F031362916A4A4B76
S3150800A3000B4043F4803393624849444A936D31EADB
S3150800A3100303FBD14FF0807141488162136923F42E
S3150800A320700343F4401313614FF000434FF4803237
S3150800A33083613F4B99629A62384A936D5B00FCD4FD
S3150800A3404FF4C022314BD3F89840294B5A6603F58F
S3150800A35098335A68012A00F0F98339F006FB052874
S3150800A3600CD100213348FDF7FFF8254A136F43F453
S3150800A370806313674FF480321D4B1A67DFF8C49069
S3150800A3802D4BD9F8006024F040749E4202D8294823
S3150800A3903DF038FD294BDA6812F0060FFBD19A68B2
S3150800A3A09C6099684C4014F4F81F0BBF214B9A60C7
S3150800A3B0C9F80030B14608BF994639F0D6FA0528DB
S3150800A3C042D14CF0EBFA0446FDF79CF80128D4BFBD
S3150800A3D0012100212046FDF7C7F8FFF7D9FDFFF751
S3150800A3E0C7FD31E0785100200871002000000420E4
S3150800A3F00090005000400950004000503254FFFFC2
S3150800A40000800050B03B070800A000500080E00F15
S3150800A41000100250C01753023C6B00200040005A3F
S3150800A4200050005A2008C00BC7FFFEFE03000100BB
S3150800A4300060005A00B4C404FFB3C404000001500D
S3150800A4401C6B0020186B0020B14502D800203DF097
S3150800A450D9FC4FF40022CB4CCB4BCC48D3F8C030B8
S3150800A46062664FF0B44223F0407393604DF0D2FF1A
S3150800A4704FF4800302226366C54B5A609A6812F449
S3150800A48080320192FAD15A62019AC24C5A60FDF79B
S3150800A49097F8236F019823F0070343F00303236714
S3150800A4A0FFF78CFD236FBC4923F474432367D1F867
S3150800A4B0FC30B44A13F0807F00F04E83D1F8FC30AC
S3150800A4C023F08073C1F8FC30D4F8803023F00303FE
S3150800A4D043F00103C4F88030019BC2F88030D1F8FC
S3150800A4E0FC3043F08073C1F8FC30AA4B4FF480313E
S3150800A4F0D3F82021A94822F0070242F00202C3F845
S3150800A5002021D3F8282122F0070242F00202C3F8DC
S3150800A5102821D3F8802122F0030242F00102C3F871
S3150800A5208021D3F8402122F0030242F00202C3F848
S3150800A5304021D3F8602122F0030242F00202C3F858
S3150800A5406021D3F8402222F0030242F00202C3F847
S3150800A5504022D3F8002222F0070242F00202C3F892
S3150800A5600022D3F8082222F0070242F00202C3F8BA
S3150800A5700822D3F8702222F0030242F00102C3F83F
S3150800A5807022D3F8202222F0070242F00102C3F813
S3150800A59020227C4A5C6E5166426A22F001024262BF
S3150800A5A0E0035CBF7E4A51664FF0E0210A6942F03B
S3150800A5B004020A61D3F8602222F0070242F001027F
S3150800A5C0C3F86022D3F8942222F0070242F001026F
S3150800A5D0C3F89422FFF718FDEFF3108672B6714898
S3150800A5E04DF018FF95F82C44ECB96F484DF012FF62
S3150800A5F06E4B6F4ADA610122C3F82C214FF4807240
S3150800A60003F5E2239A646B4BC5F8D8401B686C6463
S3150800A610C5F83034684B5A6F42F001025A67DA6E51
S3150800A62022F03002DA664FF00009484685F834947D
S3150800A6303DF0E8FB3B7FD5F830448BB15E49AA680C
S3150800A6404B6F23F440734B67A3015C4903F57423EE
S3150800A65003F23F23B3FBF1F31344AB6087F81C9076
S3150800A6604FF480114B4BD3F80021464A51664FF4FC
S3150800A670003151661A6F02F00702EA64196F032A5D
S3150800A68001F47441C5F8A4104D49896901F0020026
S3150800A690C1F3400185F849100CD0D3F8202102F007
S3150800A6A00702022A06D0D3F8282102F00702022A56
S3150800A6B040F05E8201232B70002840F06682D5F8B0
S3150800A6C030343E49C3EB431202F5742202F23F22AC
S3150800A6D0B2FBF1F2A8680244AA604FF4C872534369
S3150800A6E003F5742303F23F23B3FBF1F3C5F83834BB
S3150800A6F00123304685F82C344DF08EFD18F002F90A
S3150800A7004FF4005044F0B2F84FF40053C5F83C0437
S3150800A710C5F84034002800F06A82D5F83C341BB9E5
S3150800A720DE2128484CF00CF8D5F83C24264B27495E
S3150800A7301A60D5F84034C5F8442423F001031344BD
S3150800A7400B60002A40F05E82F8211E484BF0F8FFA5
S3150800A75014484DF05FFE4FF4801204264FF48059DA
S3150800A76003212C20FDF790FB064B194C5A66DFF89F
S3150800A7706880184BC4F874802C206667C4F870800B
S3150800A7802CE000BF009000500080E00FB43B0708A3
S3150800A790004002500080005000ED00E000C0075065
S3150800A7A000A00050B83B0708BC3B070800800350D0
S3150800A7B0010D0C00983E00200040005040420F005A
S3150800A7C000C001501E9F0508703F0020743F0020FE
S3150800A7D00060005A00E100E0010000A02667C3F807
S3150800A7E08491FDF773FB4FF00072BC4BBC48C3F86D
S3150800A7F074805E67A262C3F828904DF00BFE4FF096
S3150800A80000639B6AB74C03F17842B2F5C04F66D233
S3150800A8101A68B54B9A4262D195F8486416F0FD0657
S3150800A8205DD1DFF8248398F80030002B00F0F08122
S3150800A830022388F800304FF001094FF48035AB4BFE
S3150800A8400020C3F88091AA4BDD60FDF73FFBA94BBA
S3150800A8501D614FF000639B6ADB69984798F800A072
S3150800A8600546CA4540F086821AF0E2F9013040F002
S3150800A8706F82D4F85C24A04B1A66D4F860245A6612
S3150800A880D4F86424C3F87021D4F868241A64D4F878
S3150800A8906C245A64D4F87824D20700F168823B6A9B
S3150800A8A0013307D194F8483423B9944A5268D1073A
S3150800A8B048BF3B62D4F87024914B5A66D4F8742486
S3150800A8C09A6646F021FFD4F84C3483F31188BFF317
S3150800A8D06F8F88F8006015B9012384F848341CF096
S3150800A8E057F87F484DF096FD4FF4407310AE01229D
S3150800A8F004213046ADF840301AF0F7F90122814BB1
S3150800A900C3F84424EFF31185302383F311884FF4F9
S3150800A9106070FFF76FF985F31188BFF36F8F7A4B75
S3150800A92000F5D520D3F8F02000F2FC4042F00102F1
S3150800A930C3F8F020D3F8FC206C4D42F08072C3F8BF
S3150800A940FC20724AA3F55D431A60714B0222B0FBE4
S3150800A950F3F0704B01381861C3F8F0204FF4807299
S3150800A960C3F804234FF060436B4A5D48C3F8B02F21
S3150800A9706A4AC3F8802ED3F8002E42F48072C3F8D0
S3150800A980002EFF2283F82020D3F8002E22F48072AE
S3150800A990C3F8002E4DF03EFD2B689A0106D44FF001
S3150800A9A000731920C5F88031FDF790FA2B685B0112
S3150800A9B006D44FF080631A20C5F88031FDF786FA71
S3150800A9C04FF060454FF00208D5F8003E304643F494
S3150800A9D08073C5F8003E524BCDE9108341F0C8F8A4
S3150800A9E0D5F8003E23F48073C5F8003EFFF70CFB4C
S3150800A9F0054618BB4B484DF00DFD4B4B4B4A1A62AA
S3150800AA004FF41672C3F8248103F5E2239D64484B7C
S3150800AA101B685343474A03F5742303F23F23B3FBEA
S3150800AA20F2F3454A6360236F6168013542F8041BF7
S3150800AA30EDB261680A2D0B44F6D1236794F87D14AC
S3150800AA4094F87C34022901D1072B19D0D80703D4EE
S3150800AA5043F0010384F87C3494F87C349A075FBF8A
S3150800AA60012243F0020384F87C3484F8842A94F89B
S3150800AA707C2411B9D50700F16E82500740F1728225
S3150800AA80FEF75EFF2D492E48FEF74CFF21F0C4F86D
S3150800AA9097F8342097F84430022A00F26D81002A8C
S3150800AAA040F07081022B00F29581002B00F0958111
S3150800AAB0FB6BC4F8903490E183F31188BFF36F8F72
S3150800AAC0FFF75FBBD2F85021FFF7AFBB1D4B1C88C1
S3150800AAD0FF2C88BF6424FFF7D0BB00BF0050005A84
S3150800AAE0B83B07087851002007B0CD5E00E100E0CA
S3150800AAF000A00044009000440080004400C00550B7
S3150800AB000080005000D0035000ED00E0FF03004035
S3150800AB10F8590D00000004E055CEACC50900010047
S3150800AB20006A1810BC3B070800800350010E0C0091
S3150800AB30983E002040420F00EC510020606B002038
S3150800AB40005600200001E00F6418002092494A6070
S3150800AB505A689607FCD400E4D4F8803023F003033F
S3150800AB6043F00103C4F88030019BC2F88030BCE48E
S3150800AB7000222A7000283FF4A2ADD3F8003103F072
S3150800AB800303591E4B424B412B70844BD3F80031BB
S3150800AB9003F00303022B25D0032B26D0012B7FF4C9
S3150800ABA08EADD8F80020002A3FF489AD7C4BDFF83B
S3150800ABB02082DB68501EC3F30B0C002319460CF1E8
S3150800ABC0010C0CEB8C0CECFB08014AF0FFF8604317
S3150800ABD000F5742000F23F20B0FBF8F0AB6818448B
S3150800ABE0A8606CE54FF40042E0E76E4ADEE74FF4F2
S3150800ABF0D3716D484BF0A4FDD5F84034002B3FF4D3
S3150800AC008FAD8AE522F0A4FC64287FF69DAD9FE50A
S3150800AC104FF0010907960B9688F80090EFF3118319
S3150800AC20302282F31188C5F84C3446F065FD95F854
S3150800AC30503453B91BF0ACFE38B95C4804F25441A1
S3150800AC4038F0CEFE08B985F85094544B58495A6ED8
S3150800AC50C4F870249B6EC4F874344FF480438B6632
S3150800AC60544B5A68C4F87824534A9A601A6EC4F842
S3150800AC705C245A6EC4F86024D3F87021C4F864249E
S3150800AC801A6CC4F868245A6CC4F86C244B4A106CC5
S3150800AC901864526C5A6401224A661B6E9A043BD5A4
S3150800ACA0474AD368DB07FCD43A6A501C39D04FF4BC
S3150800ACB080139340434A13660422424B4FF4002103
S3150800ACC01A664FF400721A6608221A664FF4805202
S3150800ACD01A664FF00062956A1A66596605F1784356
S3150800ACE0B3F5C04F07D2002310A8129338F060FEC0
S3150800ACF0129B590527D4079A324B1A660B9A5A663D
S3150800AD0094F85024002A3FF496ADD4F854241A66D1
S3150800AD10D4F858245A668EE52B4AD368DD07FCD446
S3150800AD20C2E794F84834002BC6D14FF40072204B82
S3150800AD305A6603F5A6235B68002BBDD14FF4801233
S3150800AD40204B1A66B8E72B6C0BA907A89847D2E7D9
S3150800AD5019F06EFF40F2011398423FF48AAD1B4B7F
S3150800AD60174AC3F864A0D368D807FCD481E5002243
S3150800AD709A6094E54E46ACE5032A04BFFA6AC4F81D
S3150800AD8090248FE6F96A022BC4F8901425D823B3C9
S3150800AD90022A22D08CE600BF00E001500080005055
S3150800ADA000C0015080D54302112506086818002006
S3150800ADB0009000500080004455CEAC0000C00054FE
S3150800ADC00000044000900044000004500090004039
S3150800ADD040420F00032B3FF46BAE4FF45272002132
S3150800ADE08248D4F890544AF01FFE4FF48673012225
S3150800ADF0C4F8F4317E4B84F8F021C4F8EC3197F8A6
S3150800AE005030C4F818542BB9FB647A4B87F8502095
S3150800AE10C4F804324FF0FF33C4F81C34EFF3108340
S3150800AE2072B6C4F824341BF0B3FD002800F09F80E6
S3150800AE30FEF744FE1CF028FA43F050FF02226E4B40
S3150800AE406E49CDE910234FF00073CDE9121307239D
S3150800AE506B4D31464FF0FF3014934AF0A8FED5F8F3
S3150800AE60FC311020C3F30743049324F055FC10F07B
S3150800AE70800F4FF0000000F0888024F04DFC030698
S3150800AE800BD5049B802B76D12B6A13F0020F00F0AA
S3150800AE908E80EB69990740F18A805A4F5A484BF0E1
S3150800AEA0ECFA394659481BF0ABFC054610B3D7E90E
S3150800AEB00001BB6900251B689847BB6930469B683B
S3150800AEC09847BB690220DB68984711987B68E9B206
S3150800AED0B3FBF0F38B42BA6905F101056CD8D36868
S3150800AEE000209847BB695B689847464947481BF066
S3150800AEF087FC05464FF0000A454FDFF8108107F535
S3150800AF008C7307F18C0B0293002D40F0BB80414BEC
S3150800AF101AF80330002B00F05B87D7F800904046FC
S3150800AF20494607AB0BAA1AF0C3FC2D280AD00028FD
S3150800AF3040F0A8800B9B012B00F0A48049464046B0
S3150800AF401BF09AF9DBF80030494640461A681BF0B0
S3150800AF504FF9054696E03048FDF78AFE022384F845
S3150800AF607D348AE542F0040284F87C2488E50123CE
S3150800AF7084F828345CE7049B812B18D1D5F80C316A
S3150800AF805F0014D5D5F80C3184E724F0C5FB00061C
S3150800AF9083D5049B802B03D12B6A13F0010F76E728
S3150800AFA0049B812B03D1D5F80C31002BEADB452114
S3150800AFB01A484BF0C5FBA9E33B68126901FB003050
S3150800AFC0904782E73B684046CD18294607AB0BAA4F
S3150800AFD01AF06EFC2D282CD010B309F10109039B39
S3150800AFE05FFA89F19942EDD300202CE054520020F3
S3150800AFF094250608886B0020006A180000020600DF
S3150800B0000080E00F206B0020690345EC68180020DB
S3150800B010C03B0708FB3C0708F85500207F8A05084F
S3150800B0200B9B002B40F0CE86029B1A78079B9A4210
S3150800B030D3D0029B294640461B78DBF800201BF03C
S3150800B04045F80028C9D0CA4B1AF80330002B80D01F
S3150800B0500546DDF80C905FFA89F37E2B12D839681D
S3150800B0604046494407AB0BAA03911AF021FC2D2848
S3150800B07008D0404603991BF0FFF809F10109054677
S3150800B0800028E8D0029B0AF1010A0133BAF1230F1E
S3150800B09007F104070BF1040B02937FF435AFB5FAF9
S3150800B0A085F35B0984F8883AB24B1B7C1BB1DB211C
S3150800B0B0B1484BF045FB002D7FF479AF0822AF4924
S3150800B0C0AF48FEF703FD0123AE4F2A467B60AE4B21
S3150800B0D0A94698463D601D700132082AC3F80490B7
S3150800B0E0A3F8049043F8089FF6D148220021A74800
S3150800B0F04AF09AFC4FF6FE73A8F868306FF480336E
S3150800B10080220021A248C8F85C304AF08DFCA14B89
S3150800B110C8E91299C8E9283988F8449088F85090FF
S3150800B120C8F8549088F8A89017F066FD9A4B2C2218
S3150800B1301870FF230021304684F80C3B4AF074FC53
S3150800B14064234FF002321593CDE912230B23012114
S3150800B1508DF86830B4F80E3B8DF8441013EA010AEE
S3150800B16040F0388108464CF091F80A228B4BDFF8FC
S3150800B17058821A704FF42873ADF846304FF0FF33F3
S3150800B180C8F80030864BDFF844921B884046A9F879
S3150800B1906830844B844A1B6809F15801C9F8703035
S3150800B1A0824BA9F86EA01B88C9F878A0A9F86A305E
S3150800B1B07F4B1B68C9F8743049F086FB20B140F212
S3150800B1C079217C484BF0BCFA0521D8F800004BF0F1
S3150800B1D0D3F920B140F28A2176484BF0B1FA002221
S3150800B1E07549D8F800004AF0F0FCD8F800A00A2102
S3150800B1F050464AF08BFC40F6E44150464AF088FC3B
S3150800B2004FF00C0A4CF028F80AFB00F016904CF0A8
S3150800B21023F80AFB00F031461490D8F8000043F0F2
S3150800B220B5FB20B140F2A22162484BF089FA002210
S3150800B2305249D8F800004AF0D6FC20B14FF42971DB
S3150800B2405C484BF07DFA40F20353DFF884A1AAF874
S3150800B250003005238AF8023099F97C307F2B28D1F3
S3150800B2604FF6FF730BA902225448ADF82C30FEF7AF
S3150800B2702DFCBDF82C10CB054CBF6FF04A0149B226
S3150800B280EFF3118B302383F31188B4F80E3B89F85A
S3150800B2907C10D80709D5D8F800004AF032FC20B14E
S3150800B2A040F6057143484BF04BFA8BF31188BFF310
S3150800B2B06F8F99F87C308AF803304BF0CDFF00EB9E
S3150800B2C080008000AAF804004BF0C6FF0023C000E7
S3150800B2D04FF0FF31AAF80600CAF808304FF0FF30E1
S3150800B2E021A3D3E900234BF08BFF3549D8F800009A
S3150800B2F04AF031FCD8F800000BA94BF093F920B1BD
S3150800B30040F2DD212B484BF01BFA0422D8F8000046
S3150800B31007A94AF0E4FB042804D04FF439712548FC
S3150800B3204BF00EFA07A83DF098FD17F053FC0120E4
S3150800B33022F098F8B4F80E3BDA0712D5002241F24B
S3150800B3400D01204800234BF05BFF0822D8F80000C7
S3150800B35011464AF0AFFB20B140F6C37115484BF0D1
S3150800B360EFF921F0EBFF35E00A0020FF4203000069
S3150800B370413D0708681800209E25060873490020E5
S3150800B38034B608C0D0480020C03E0020183F002030
S3150800B390045C00200000FFFFE5450020D0460020A1
S3150800B3A0B0F10708B8F1070815730508AEF10708E4
S3150800B3B0B4F107080DC40508643D0708641002C007
S3150800B3C0C5710508400D0300BC3E00203C6B0020FB
S3150800B3D0685100203FF00CF8D04822F0D5FF4FF412
S3150800B3E0F053CF4AA4F8143BD2F85412CD4B4FF081
S3150800B3F000081960D2F85812B2F85C2259601A810E
S3150800B4000522C94B41461A7030463422A4F8108BDF
S3150800B410A4F8128B4AF008FB0B238DF840306FF422
S3150800B420803311934FF6FE73ADF8503003238DF831
S3150800B4305D30BE4BBE4A1893BE4B10681F93BE4B79
S3150800B44051682093BD4BDFF878B3DFF878A3DFF8AF
S3150800B4507893219312ABCDF864B0CDF874A0CDF8EB
S3150800B460789003C3314640463FF0E6FE3146012058
S3150800B4703FF0E2FE0422314640464AF030FB0428FB
S3150800B48003D0D721AE484BF05BF9109817F0A2FB12
S3150800B49030F0AFFFC022FF21AA484AF0C5FAAA4BEE
S3150800B4A0DFF82883C4F81C3B0023A84AA849C2E948
S3150800B4B00383C2E901131760A64AA749C4F83C2BBF
S3150800B4C0A64AC4F8203BC4F85C2BA54AC4F8283B16
S3150800B4D0C4F87C2BA34AC4F8403BC4F89C2BA24A68
S3150800B4E0C4F8483BC4F8603BC4F8683BC4F8803BE2
