S02300006275696C642F64656275672F7A69676265655F7A345F7377697463682E733337E8
S21400400008100020DD6D0100B5E30200B9E30200F0
S2140040108B1B0100BDE30200C5E302008B1B010001
S2140040208B1B01008B1B01008B1B01008B1B0100EF
S214004030C9E3020038E803008B1B01008B1B01005C
S2140040408B1B01008B1B01008B1B01000150010024
S2140040508B1B01008B1B01008B1B01008B1B0100BF
S2140040608B1B01008B1B01002B7C0100D5830000FD
S214004070698300008B1B01008B1B01008B1B01005A
S2140040808B1B01008B1B01008B1B01008B1B01008F
S2140040908B1B0100EF1C01008B1B01008B1B01001A
S2140040A08B1B01007D1C01005D1C01008B1B0100A9
S2140040B08B1B01008B1B01008B1B0100A53C030022
S2140040C0AF610300AB610300ED330300C56103007D
S2140040D0B3610300653C0300B761030001280300D9
S2140040E0E53C03008B1B01008B1B0100751B0100C8
S2140040F08B1B01008B1B01008B1B01008B1B01001F
S2140041008B1B01008B1B01008B1B01008B1B01000E
S2140041108B1B01008B1B01008B1B01008B1B0100FE
S2140041208B1B01008B1B01008B1B01008B1B0100EE
S2080041308B1B0100DF
S214004134F0B5114A114C124E00F00105E3695F0711
S21400414413D40DB9334213D103EA00078F4207D1C3
S2140041540B4A1A40002A0CBF00206FF00100F0BD85
S214004164013AEBD16FF00200F9E74FF0FF30F6E7C3
S2140041746FF00100F3E700BF80969800000003503C
S214004184020001002DE9F84F264D1646EB69012280
S21400419403F4803841F671330746EB63224BDFF8AD
S2140041A49090DA600EB9304629E007F5005404EA28
S2140041B409046F61E41BEB69B44228BF34465B070D
S2140041C42DD48B465BF8043B01EB040AAB61D34564
S2140041D40ED10423002121202B61FFF7A9FF70B91B
S2140041E42120FFF7A5FF50B959462744361BD9E7C7
S2140041F408210846FFF79CFF68B104232B610122BF
S2140042040A4BDA60B8F1000F03D00022A3F500537E
S214004214DA63BDE8F88F5BF8043BAB61D7E74FF091
S214004224FF30ECE70000035000100350002003505A
S20800423400E0FFFFA3
S2140042389A4238BF88547047704710B1D1E90031A8
S214004248184770472DE9F84F9846DDE90B490D9B4E
S21400425815469A0706460F4623D02A460A9B03EBBE
S214004268040A1444A24220D10D9B9B0705D5A2EB55
S214004278050AD14505EB0A0420D82046BDE8F88F84
S214004288434639462020B0470AF1010ACA450AEBD8
S2140042980B02F5D3A9EB04024C4588BF00222A443A
S2140042A8DCE7A246A5EB040BF0E702F1010B434658
S2140042B839461AF8010DB0475A46D3E74346224610
S2140042C839462020B0470AF1010AD2E72DE9F0471F
S2140042D89E46DDE90D3CDDE90874DDE90B651CF05A
S2140042E8020F9DF828801FD10CF001094BB1B9F1D7
S2140042F8000F06D0B8F1000F02D11CF00C0F00D04A
S214004308013B4FF0300A02E007F804A00134A5424A
S21400431801D9202CF8D1B9F1000F05D04FF030099B
S214004328A34201D9202C1BD11CF0100F15D01CF469
S214004338806F32D1C4B1AC4201D09C422DD1651EEB
S21400434812D0102E36D11CF0200FA4F1020456D13C
S21400435878263E5530266C1C7E55202C36D00DE02F
S21400436807F804900134DBE7102E10D11CF0200F5C
S21400437826D178243C7030247C700224B8F1000FD3
S21400438831D02D253D55013421E06224F2E7022E76
S214004398FBD030243C700124F0E7102E12D11CF01C
S2140043A8200F2AD1202C11D07826651C3E55202DAA
S2140043B80CD0CFE7022ECDD162247C550135F6E726
S2140043C85824D7E7022E0CD1202C08D12024CDE97A
S2140043D80A3CCDE908747346BDE8F04732E725463F
S2140043E8EAE72546E3E71CF0040F01D02B25C9E7CA
S2140043F81CF0080FEBD02025C4E7202CE6D0582662
S214004408651CD3E72DE9F04391B0189E1A9F1D9CB2
S214004418002E38D124F0100C14F4806421D11CF03E
S214004428200F14BF4FF0410E4FF0610E00260DF11D
S2140044382008AEF10A0EB4FBF7F907FB19495FFA34
S21400444889F5B9F1090F94BF30357544EDB2BC4211
S21400445808F8015B06F10106B4FBF7F501D3202E38
S21400446814D11C9CCDF818C005941B9CCDE9037488
S2140044789DF86440CDE9016408AC0094FFF726FF78
S21400448811B0BDE8F083A4463446C8E72C46D2E708
S2140044982DE9F04F95B0CDE90A23DDE91E65DDE983
S2140044A8228B56EA0502CDE90801269B39D15A0522
S2140044B823F010093AD419F0200F14BF41236123C2
S2140044C800240DF1300AA3F10A07294642465B4646
S2140044D8304630F015FBD2B2092A94BF3032D219D2
S2140044E84645D2B275EB0B0504F101040AF8012B18
S2140044F801D3202C17D1259BCDF818900593249B23
S214004508DDE90801CDE903839DF88030CDE9014354
S2140045180CAB0093DDE90A23FFF7D8FE15B0BDE81B
S214004528F08F9946C7E706460D46CEE70024E2E731
S2140045382DE9F04F93B0CDE90A32DDE91C530E930E
S21400454853EC102BCDE90801104619468DED060BE5
S2140045581E9E31F089F880B1DDE906014FF0FF3282
S214004568C54B31F0A9F840B9DDE906014FF0FF3236
S2140045786FF4801331F082F868B1DDE908019DED2B
S214004588060B0E9B1E96CDE91C53DDE90A3213B0C6
S214004598BDE8F04F85E10022DDE90601002331F091
S2140045A86DF8002800F03381DDE906A303F1004B1F
S2140045B8CBF30A5016F48063A0F2FF3008BF062536
S2140045C80F9330F07FFD9CA3D3E9002330F0E4FD81
S2140045D89BA3D3E9002330F029FCCBF313048946C8
S2140045E844F07F5180460022A44B504641F44011C7
S2140045F830F01AFC94A3D3E9002330F0CDFD024630
S2140046080B464046494630F011FC31F05FF8044648
S21400461830F058FD8EA3D3E900238046894630F053
S214004628BBFD0022964B30F001FC31F04FF88AA310
S214004638D3E9002307464946404630F0ADFD80469C
S2140046483846894630F03EFD85A3D3E9002330F08E
S214004658A3FD02460B464046494630F0E5FB0246B7
S2140046680B46CDE90C2330F097FDDDE90C23804698
S21400467889461046194630F0D9FB0022CDE91001CC
S214004688804B4046494630F0B1FE00227E4B30F063
S214004698CDFB02460B464046494630F0A7FE0022B0
S2140046A87A4B30F0C3FB02460B464046494630F08C
S2140046B89DFEDDE90C238046894600204FF08041A8
S2140046C830F0B2FB02460B464046494630F0AEFB99
S2140046D802460B46DDE9100130F088FE07F2FF3788
S2140046E800226B4B30F0A2FB00223B0530F054FD55
S2140046F852465B468046894630F0DEFF002840F08A
S2140047088980CDE90C8904F16303C72B34BF0427DD
S214004718052731051BD554A3D3E90023504659462F
S21400472830F0C0FF00287FD051A3D3E900235046BD
S214004738594630F0A3FF002876D00027A542C6BF0A
S2140047482C1B04F1FF3500253C4646F480660E9B7C
S2140047589F422CBF4FF00008A3EB070816F002098B
S21400476803D0002F18BF4FF000083CB1DDE90C233A
S2140047785046594630F03AFE82468B46DDE9060139
S2140047880022002330F07AFF10B10BF100439B465D
S214004798DDE9080126F40063CDE90183DDE90A3284
S2140047A84BEC10AB009500F07CF802465FB3DDE9F1
S2140047B8091316F0200F00F10105089E0CBF6520AE
S2140047C84520B047DDE908010523002205930A23A2
S2140047D8002CCDE9023207F1FF374FEAD473B8BF91
S2140047E864422A46019304970A9B0094FFF70AFE40
S2140047F80246B9F1000F06D00B9BC41A0B9B1A1978
S2140048080E9BA34246D8104613B0BDE8F08FDDE9EC
S21400481806ABCDE60022404649461B4B30F0E6FD87
S214004828013CCDE90C016EE7002D90D00F9B002BC4
S2140048388DD0013D8BE700BFFB799F501344D33FD3
S214004848B3C8608B288AC63F61436F63A787D23F89
S21400485871A379094F930A401655B5BBB16B024050
S214004868EF39FAFE422EE63F2D431CEBE2361A3F9E
S2140048780000000080842E41FFFFEF7F0000F83F15
S2140048880000E03F00002C400000244000001840D4
S2140048980000F03F2020DDE90913089DA8470134F1
S2140048A8ACE72DE9F04F5BEC10AB97B0CDE905010E
S2140048B8DDE92057CDE90723504652465B46594660
S2140048C8229E30F0D1FE70B90323CDE9027601931B
S2140048D8AF4B0093DDE90501DDE90723FFF7B2FCDE
S2140048E817B0BDE8F08F4FF0FF326FF480135046D4
S2140048F8594630F0C3FE28B10423CDE90276019369
S214004908A44BE6E74FF0FF3250465946A24B30F02C
S214004918D3FE68B1A14A06F00403002B08BF0322A1
S2140049289F4B1CBF13460422CDE902760192D0E7BE
S214004938504693A3D3E90023594630F0BDFE38B954
S21400494891A3D3E900235046594630F097FE60B14C
S214004958DDE90723DDE905014BEC10ABCDE921764F
S214004968209517B0BDE8F04FE2E500220023504638
S214004978594630F083FE002800F09A805B4652467F
S2140049880020002130F050FA012382468B46099316
S21400499816F4806400F08E80092D40F28E80002484
S2140049A830210EABA5F109020134202C03F8011BB7
S2140049B8A5EB040901D09442F6D15946504630F08A
S2140049C885FE784B054603EBC90393ED007B8DED1A
S2140049D80A7B30F077FB02460B465046594630F0C5
S2140049E823FADDE90A2330F0D7FB02460B46CDE969
S2140049F80C2330F093FE804630F054FB02460B46FC
S214004A08DDE90C0130F010FA02460B46CDE90C231E
S214004A180022654B30F050FE002851D008F10108FE
S214004A28404630F03FFB02460B46DDE90A0130F00F
S214004A382FFE10B14FF000080135B9F1000F50D124
S214004A48284630F03FFB02460B465046594630F0A3
S214004A58EBF90022544B8046894630F00FFE30B101
S214004A68002240464946504B30F026FE10B1E80773
S214004A7800D501350A210EAB1A19202C0AD095FB51
S214004A88F1F001FB1055303502F8015B013405469C
S214004A980028F2D106F00302012A57D1002F55D07C
S214004AA8099A12B916F00C0F00D0013F302245E0E3
S214004AB809906DE74FF006097FE7A94600247CE7D2
S214004AC80022DDE90C01384B30F0D8FD0028B4D1BF
S214004AD8B8F1000F02D018F0010FAED008F10108A7
S214004AE8ABE70A210EAB2344202C0ED0B8FBF1F01E
S214004AF801FB1082B8F1090F02F1300209F1FF3903
S214004B0804F1010403F8012B11D83021A1440EAAA0
S214004B18202CAFD0A14504F101030AD11C4609F1A7
S214004B2858030DEB03092E2309F8203CA2E780461C
S214004B38DAE7A1541C46EBE71A550134A74205D913
S214004B48202CF9D1CDE902760194C2E6202CF9D0C2
S214004B58099A3AB12D2104F158026A4402F8201C39
S214004B680134EFE7710704D504F158022B216A4493
S214004B78F4E73207E6D504F1580220216A44EDE747
S214004B880000000065CDCD410000000065CDCDC118
S214004B984FE9030053E90300FFFFEF7F46E90300F0
S214004BA84BE90300D8E903000000E03F10B5C388CE
S214004BB823B9CA885AB9ABB1012017E0026802EBDC
S214004BC8830252F8042C002AF3D1013BF0E70C6864
S214004BD804EB820454F8044C0CB9013AEAE7934211
S214004BE8EAD80FD3013B5A1C01D1002010BD026839
S214004BF852F823400A6852F823209442DCD803F17E
S214004C08FF33F0D24FF0FF30F0E77047014610B19F
S214004C18002012F0D9B970470022C188914201D805
S214004C2800207047036853F8223033B193FAA3F094
S214004C38B0FA80F000EB421070470132EEE7F0B5AC
S214004C48C4880546082C8BB017D9083C082C17D8FA
S214004C580668A70020363A46314602A831F0CAFB55
S214004C683A460021304630F079FD26230093092184
S214004C782346286802AA28F0A3FD00200BB0F0BD42
S214004C880048FBE780B0FFFF30B585B007F049FF66
S214004C9802280246234B2BD10120234D1C78296875
S214004CA80871A4B90621214B0DF0F9FC204B214AC6
S214004CB81B6812681988286824F096FC0121009061
S214004CC81D4B04201D4A09F0A3F905B030BD012C80
S214004CD8ECD10EF01FF800221423C0B20193009006
S214004CE808212046CDE90222154B0DF0D8FCDDE759
S214004CF81878012811D107F0C1FC124B124A01217D
S214004D08019000920420114A09F082F9104826F012
S214004D188FFF01220F4B1A70D7E707F0D7FF0E4B0D
S214004D28ECE700BF8C120020882A0020A4E90300C4
S214004D388C2A0020902A00205DE90300F7820300F1
S214004D4858E90300BCA90300961D04006AA70300DF
S214004D584833002034380020CE99030008B50D4BA0
S214004D681B7893B107F0DDFE022809D00A480CF03C
S214004D7891FFBDE808404FF47A61084826F068BFFE
S214004D880548BDE808400DF02BBB07F0CAFE022810
S214004D98F6D008BD343800206A4300204833002087
S214004DA807B5012007F020F901210090034B0420E5
S214004DB8034A09F02DF903B05DF804FB961D0400BC
S214004DC86EE90300831E012B2DE9F0410C463AD804
S214004DD801290DD82D4B04221B6905210020C3F399
S214004DE8401311F041F82CB1294B1868002848D117
S214004DF8BDE8F081264B1D68002DF9D030272C7DA4
S214004E08244E20460EF0AEFF07FB0463DA6E224BF4
S214004E189A4213D1284612F0EFF848B3EFF31181FF
S214004E2887F3118801231D4AA3405365A2F58052D3
S214004E389362536381F31188BFF36F8F2046BDE8F2
S214004E48F0410EF0B1BF8B1E012B0CD80128CFD82D
S214004E58BDE8F04100220D4B05211B691046C3F33F
S214004E68401311F001B80029C4D00129BCD0BFE70F
S214004E78284612F0F5F80028E0D10123A340B364D1
S214004E88DCE7BDE8F04112F005B900BF00C00350EA
S214004E9888160020000004508914002000200450C2
S214004EA844F2021307B50246ADF804300021042088
S214004EB801AB22F0A1FE03B05DF804FB44F2021336
S214004EC807B50246ADF804300521042001AB22F0F0
S214004ED893FE03B05DF804FB07B5074B0246186857
S214004EE81B7900908DF8043000216B46052022F0CF
S214004EF883FE03B05DF804FB91E9030007B5094B90
S214004F080246998818689B790090ADF804108DF8C9
S214004F18063044216B464FF4407022F06DFE03B015
S214004F285DF804FB97E9030007B5074B02461868C7
S214004F381B7900908DF8043042216B46052022F03C
S214004F485BFE03B05DF804FB9FE90300012307B589
S214004F5802468DF804300221032001AB22F04CFEF5
S214004F6803B05DF804FB07B5074B024618681B79C3
S214004F7800908DF8043040216B46052022F03CFE58
S214004F8803B05DF804FB00BF91E9030007B5064BC4
S214004F980246019341214FF4407001AB22F02CFEEB
S214004FA803B05DF804FB00BF0102212107B5084BDA
S214004FB8024618681B7900908DF8043040216B462D
S214004FC84FF4407022F018FE03B05DF804FB00BFF3
S214004FD8A5E9030007B5084B024618681B79009038
S214004FE88DF8043043216B464FF4407022F004FEDF
S214004FF803B05DF804FB00BFA5E9030007B5084B3E
S214005008024618681B7900908DF8043042216B46DA
S2140050184FF4407022F0F0FD03B05DF804FB00BFCB
S21400502899E903004FF4817307B50246ADF80430DA
S2140050384121052001AB22F0DFFD03B05DF804FB3B
S214005048024600230121202022F0D6BD42F2012389
S21400505807B50246ADF804300221042001AB22F061
S214005068CBFD03B05DF804FB022307B502468DF8B6
S21400507804300621052001AB22F0BEFD03B05DF822
S21400508804FB022307B502468DF8043000210320EE
S21400509801AB22F0B1FD03B05DF804FB0246002325
S2140050A80121032022F0A8BD07B5054B024601934F
S2140050B80121082001AB22F09FFD03B05DF804FB38
S2140050C80101212107B5064B0246019308214FF43A
S2140050D8407001AB22F090FD03B05DF804FB00BF02
S2140050E81212212107B5084B024618689B880090C3
S2140050F8ADF804304B216B464FF4407022F07CFD2F
S21400510803B05DF804FB00BFABE9030007B5064B28
S2140051180246019301214FF4407001AB22F06CFD6A
S21400512803B05DF804FB00BF0101212107B5064B5B
S2140051380246019304214FF4407001AB22F05CFD57
S21400514803B05DF804FB00BF0101212107B5084B39
S214005158024618681B7900908DF8043007216B46C4
S2140051684FF4407022F048FD03B05DF804FB00BF22
S214005178ACE9030007B5064B024601930A214FF433
S214005188407001AB22F038FD03B05DF804FB00BFA9
S2140051980202212107B5084B024618681B790090C1
S2140051A88DF8043000216B464FF4407022F024FD41
S2140051B803B05DF804FB00BFB2E9030007B5084B6F
S2140051C8024618681B7900908DF8043006216B4655
S2140051D84FF4407022F010FD03B05DF804FB00BFEA
S2140051E8B2E9030007B5054B0246019300210820E3
S2140051F801AB22F001FD03B05DF804FB010221219A
S21400520840F2012307B50246ADF804300421082011
S21400521801AB22F0F1FC03B05DF804FB07B5064BC2
S2140052280246019303214FF4407001AB22F0E4FCE0
S21400523803B05DF804FB00BF0102212140F2011310
S21400524807B50246ADF804300521082001AB22F068
S214005258D3FC03B05DF804FB00230246194606207B
S21400526822F0CABC40F2011307B50246ADF8043076
S2140052784021062001AB22F0BFFC03B05DF804FB1A
S214005288024600230121062022F0B6BC024600236F
S2140052984121062022F0B0BC07B5084B0246198803
S2140052A89B78ADF804108DF806304221062001AB35
S2140052B822F0A2FC03B05DF804FB00BFB8E90300C7
S2140052C807B5084B024619889B78ADF804100521E7
S2140052D88DF80630084601AB22F08EFC03B05DF868
S2140052E804FB00BFBCE9030004210246002308466D
S2140052F822F082BC022307B502468DF8043003214B
S214005308052001AB22F078FC03B05DF804FB02230D
S21400531807B502468DF804300321042001AB22F0BD
S2140053286BFC03B05DF804FB4FF4817307B50246C7
S214005338ADF804300221052001AB22F05DFC03B075
S2140053485DF804FB002302461946184622F054BCB2
S214005358042307B502468DF80430022120206B444A
S21400536822F04AFC03B05DF804FB022307B50246A8
S2140053788DF804300321202001AB22F03DFC03B059
S2140053885DF804FB07B5074B024618681B790090C2
S2140053988DF8043002216B46082022F02DFC03B05D
S2140053A85DF804FBB2E9030007B5084B0246186827
S2140053B81B7900908DF8043009216B464FF4407035
S2140053C822F01AFC03B05DF804FB00BFC0E9030036
S2140053D807B5094B0246998818689B790090ADF87E
S2140053E804108DF806304C216B464FF4407022F0BE
S2140053F803FC03B05DF804FBC6E9030007B5084BD9
S214005408024618681B7900908DF8043002216B4616
S2140054184FF4407022F0F0FB03B05DF804FB00BFC9
S214005428CEE9030007B5084B024618681B790090BA
S2140054388DF8043005216B464FF4407022F0DCFBF3
S21400544803B05DF804FB00BFCEE9030007B5084BC0
S214005458024619889B78ADF804108DF806300621A8
S214005468082001AB22F0C8FB03B05DF804FB00BFC0
S214005478D4E9030042F2211307B50246ADF804301A
S2140054880321082001AB22F0B7FB03B05DF804FB4C
S21400549842F2211307B50246ADF8043047214FF40F
S2140054A8407001AB22F0A8FB03B05DF804FB02468F
S2140054B800230721082022F09FBB4FF4817307B50D
S2140054C80246ADF804300421052001AB22F094FB17
S2140054D803B05DF804FB024600230221062022F0F2
S2140054E88BBB40F2011307B50246ADF804304021E5
S2140054F8032001AB22F080FB03B05DF804FB022317
S21400550807B502468DF804300121042001AB22F0CD
S21400551873FB03B05DF804FB4FF4817307B50246CE
S214005528ADF804300121052001AB22F065FB03B07D
S2140055385DF804FBB0F1006F0FD300F07843B3F1C9
S214005548006F0CD000F06040B0F1404F09D0B0F1C9
S214005558604F14BF042003207047002070470120C6
S214005568704702207047034630B100201A5C02B923
S214005578704701308142F9D1704770B50C4E451E10
S214005588013915F8014F2346325D02F00302012A5D
S21400559811F8012F08BF04F12003B05C00F00300E7
S2140055A8012808BF2032981A01D1002CE9D170BD15
S2140055B8725004004FF0FF307047FEE70020704737
S2140055C800207047002070472DE9F04F984691B0AC
S2140055D80B1E0A93AF4B914614BF83469B46002486
S2140055E81A9E98F8000070B94C4538BF22464B46BC
S2140055F84FF000000A9928BF09F1FF32D847204625
S21400560811B0BDE8F08F252808F1010806D022461B
S2140056184B460A99651CD8472C46E2E700230DE05E
S2140056282D2A2AD0302A06D0303A092A4FF0000709
S21400563811D80A2532E043F001038846414611F89E
S214005648012B2B2A1CD0EBD8202A1CD0232A1DD0AD
S2140056582A2A2BD0002798F800202E2A64D198F8FA
S214005668011008F10102A1F13000092843F4806313
S21400567850D800254FF00A0C26E043F00203DCE77A
S21400568843F00403D9E743F00803D6E743F01003D2
S214005698D3E7884605FB0722A2F13007414611F8F2
S2140056A8012BA2F130000928F3D9D4E756F8047B79
S2140056B88846002FBCBF43F002037F42CBE7024672
S2140056C80CFB0511A1F13005104610F8011BA1F1DD
S2140056D8300EBEF1090FF2D99046424612F8011B69
S2140056E86C292AD022D8682930D06A2939D018F8E7
S2140056F8010B67287AD857284FD8452807D086D967
S214005708462800F03681472881D143F4006343F0E9
S214005718200344E12A2906D156F8045B08F102085A
S21400572825EAE575D9E790460025D6E7742901D01D
S2140057387A29DCD143F480730EE098F801106C29BE
S214005748F8D143F4407308F10208D0E798F801103E
S214005758682903D043F080039046C8E743F0C003A7
S214005768F1E743F40073F7E70A2A00F06381072A93
S2140057787FF44DAF43F0210305930823CDE9035387
S2140057881023CDE9011356F8043B224600935846E9
S2140057984B460A99FEF736FEFBE0A0F158020F2AA0
S2140057A83FF635AF01A151F822F000BF255800009A
S2140057B81756000017560000175600001756000028
S2140057C81756000017560000175600001756000018
S2140057D81756000025580000C55900002558000037
S2140057E89F5900007F5900009F590000A0F16902E8
S2140057F8D2B20F2A3FF60BAF012149F2410C914075
S21400580811EA0C01B0D0782803F4806125D100296C
S21400581800F0908023F00D02102307E0622803F4BE
S214005828806227D1B2B923F00C02022312F4007169
S21400583800F08380CDE907720022CDE9043206F134
S214005848070A2AF0070A06950292FAE80223CDE923
S21400585800233DE023F00D02E7E76F2812D0692801
S21400586823F0100240D023F01C0209B123F01D02D9
S2140058780A23DBE758280FD19ABB23F00C0242F024
S2140058882002C9E719B923F00C020823CEE723F053
S2140058980D02FAE74142000042BB23F010029305CE
S2140058A827D5073626F00706B24671685AF8083B29
S2140058B80A26CDE907720027CA0F0029CDE9046732
S2140058C80695029202DA5B4261EB4101CDE90031AE
S2140058D84B46224658460A99FEF7DAFD04465646CF
S2140058E87FE623F00D02CAE70029D8D023F011027C
S2140058F8D5E7D00506F1040A01D5336802E051065B
S21400590813D53378CDE904720A22002B02924FEAA7
S214005918D37203950192B8BF5B4200934B4622466A
S21400592858460A99FEF76EFDD8E71306E5D5B6F988
S2140059380030E7E723F00C026EE7D00506F1040A0C
S21400594806D5CDE90472CDE9023501913368E4E75E
S214005958510608D53178CDE902350023CDE9047221
S214005968CDE90013DAE7316812F0800F18BF89B264
S214005978F1E743F02003CDE90173073626F0070662
S2140059880095B6EC020B4B46224658460A99FEF797
S21400599888FF044625E6672801D143F40063CDE96D
S2140059A80173073626F007060095B6EC020B4B4641
S2140059B8224658460A99FEF7BBFDEAE713F00205A9
S2140059C823D04FF0010A631C0B9322464B460A99D4
S2140059D816F8040BD8475DB354460B9A1EE04B46A0
S2140059E820200A99D8470AEB04020AF1010A57450B
S2140059F8F5D8002F07F1FF3308BF002307F1010A87
S214005A081C4408BF4FF0020ADDE7AA46EBE7551C20
S214005A184B4620200A99D8472A460134BC42F6D37A
S214005A28A7EB0A03574538BF00230B9A1A440B9274
S214005A380B9CD6E53246002D52F8046B14BF294657
S214005A484FF0FF310B9232463144107808B18A4243
S214005A5811D1A2EB060A13F480620C9202D0AA4572
S214005A6828BFAA4613F002030D931BD1AAEB040322
S214005A7822460F9308E00132E7E7531C0E932020D6
S214005A884B460A99D8470E9A0F9BD3189F42F4D8CC
S214005A98A7EB0A03574538BF00230AF101021C4446
S214005AA803EB020AA31B0E9304E01D464B46224650
S214005AB80A99D8470E9BF41816F8010B28B10C9BC8
S214005AC8002BF3D06B1E002DEFD10D9B93B1224611
S214005AD8AAEB040505E0561C4B4620200A99D84731
S214005AE8324653199F42F6D8A7EB0A03574538BFE4
S214005AF800231C440B9E74E50CB41FB506AC54F882
S214005B08043B0A460094014604480394FFF75CFDEC
S214005B1804B0BDE8104002B0704700BF394200002C
S214005B2838B5451E15F8014F2CB90A21204611F044
S214005B384BFA204638BD2146002011F045FAF1E719
S214005B481FB5034600914FF0FF3203A90248FFF73E
S214005B583BFD05B05DF804FB154C000007B5009347
S214005B6813460A4601460348FFF72EFD03B05DF8C4
S214005B7804FB00BF394200002DE9F0432A48079F7E
S214005B88847A94424CD9066802EB42024FEA820CA9
S214005B9816EB820246D05089002843D0B2F904405A
S214005BA8B2F906508C42B2F908E02FDCA942A8BF29
S214005BB82946BEF1000F35D000F1FF381FFA88F8E5
S214005BC80EFB08490A1B92FBFEF24D45D8BF40461D
S214005BD892B2904202D3A94218BF104656F80C203B
S214005BE852F8206002EB800C18B15CF8048D46452C
S214005BF80ED08D421EBF1EFB00F1091909B299424C
S214005C0809DC00203E60B980BDE8F0832146D0E775
S214005C18013880B2E8E70028F3D0013880B2DFE721
S214005C280E20F1E70220EFE70439002010B5084CF3
S214005C3820462FF087FE20B994E80700054B83E836
S214005C480700BDE8104001214FF0FF302FF07EBE60
S214005C5828EA030004390020FF20704700487047F0
S214005C680080FFFF044BDB68584043085B42404215
S214005C781843C017704700BF04390020C388B1EB2B
S214005C88431F3FBF03684A0953F8220001F01F016B
S214005C983ABFC84000F0010000207047F8B5C38836
S214005CA80E46B2EB830F07684FEA83041AD81346EA
S214005CB89C420CD115460023AB4215D1A24204D90A
S214005CC80021121B30192FF049FD0020F8BD23F0E3
S214005CD803003D5803F00301C900CD40EDB26DB98D
S214005CE80133E5E72546E6E723F00301795803F094
S214005CF80300C000C140F1540133DDE76FF0070030
S214005D08E4E7034670B51C68DB880846B2EB830FE9
S214005D184FEA830519D9521B8E1800212FF01EFD55
S214005D2830462A4600231044934210D1002070BD06
S214005D3823F00301615803F00306F600F140C9B2E8
S214005D4881B901339D42F3D1ECE71346FAE723F015
S214005D580301615803F00305ED00E94000F8011D52
S214005D680133E1E76FF00700E1E730B5C38823B9F0
S214005D78CA885AB9002B3DD136E0026802EB830286
S214005D8852F8042C002AF3D1013BF0E70C6804EB28
S214005D98820555F8045C4DBB013AEAE7B1F90450B0
S214005DA803D2B1F90400404226E0B0F90420002AE4
S214005DB803DD002D0CDA01201EE0002D08DD3AB1C7
S214005DC84FF0FF3018E003F1FF330BD2504213E0D8
S214005DD8013B016851F8235054F823108D42F2D93C
S214005DE8104609E0591CF4D1002005E0002BD8D055
S214005DF89342D3D9B0F9040030BD1FB54FF0011354
S214005E080191039302A901AB0293FFF7AEFF05B019
S214005E185DF804FB10B50A4CE268E3684240594056
S214005E2881EA0200C00FFFF71DFFE368521A4340DD
S214005E3822EA030208401043C00FBDE8104011E7ED
S214005E4804390020013901D20020704750F821306B
S214005E58002BF7D0B3FA83F00131C0EB411070473E
S214005E68C1880068EEE7F8B50546500988420C4632
S214005E7802F01F0601D80AD136B12846A200002132
S214005E88BDE8F8402FF06ABC1F2A02D8F8BD1F2AC2
S214005E980FD9820005EB8003291F05EB8407BB4258
S214005EA81AD1201A38BF0022002105EB80002FF0F7
S214005EB855FC002EEAD0002205EB8404C6F120002B
S214005EC8AC42E3D054F8041C21FA06F3134344F812
S214005ED8043D01FA00F2F3E753F804CB41F804CF87
S214005EE8DDE70A46C18808B511B10068FFF7BBFFB1
S214005EF8002008BD01F18041013900EB8101814293
S214005F08034600D270471B680A681BBA12BA40F8E4
S214005F18042B41F80439F2E700220123C0E90023E4
S214005F28C0E90223C0E90423704738B500240125D8
S214005F380146C0E90254C0E904540470446085610F
S214005F481C30FFF7E9FFC1E90D45C1E90F44C1E977
S214005F581144C1E91344C1E91544CC6538BD044B66
S214005F680A4610B500211B680446984710BD00BFB6
S214005F78EC43002010B5044610B109B1FFF7EFFF57
S214005F882046BDE8104011F070BA10B5044648B176
S214005F98006818B1E1888900FFF7ECFF00220123AA
S214005FA8C4E9002310BD10B50446FFF7EEFF04F160
S214005FB80800FFF7EAFF04F11000BDE81040E4E728
S214005FC800B1F0E7704742F21073994270B5044684
S214005FD80D4602D96FF00F0070BDC3888B4213D2EE
S214005FE80421284611F046FB06460028F2D0216810
S214005FF841B1E288920030F0FDF9E1882068890016
S214006008FFF7B8FFE58026600020E5E72DE9F041B8
S2140060180D46C98804461646FFF7D5FF014608BB55
S2140060283046FFF71FFE03461B4EB4F90420F068FF
S2140060380132584022EA0002B5F904002768013008
S214006048D5F8008018400243013A4745A280EA88FE
S21400605804D08C46A7F1040E624506D8DB43E488D4
S214006068A24211D30846BDE8F081F5685EF8040F31
S2140060785D4020EA050058F82C500CF1010C1D4034
S2140060882843CEF80000E7E757F82200184047F8FC
S21400609822000132E4E700BF04390020F8B50546BF
S2140060A88D420E46104601D10020F8BDFFF7DAFDF6
S2140060B8C98804462846FFF786FF0028F5D13046EB
S2140060C8E988FFF780FF0028EFD11C4AB6F90430AC
S2140060D8B5F90410D06801310133604021EA0000A8
S2140060E823400343013BAB80B6F90430D068013344
S2140060F86040214023EA00030B43013B3168B3802C
S2140061082B68EE888B42CFD0043903EB86069E4276
S214006118CAD0D0681D6851F8047F604025EA0000A0
S2140061282740384343F8040BD7680868674020EAD6
S2140061380700254028430860E9E700BF0439002027
S21400614838B504460D4619B9FFF71FFF002038BDBD
S214006158C2888A4207D10021006892002FF0FEFA12
S2140061680123A380F2E7FFF710FF29462046BDE883
S214006178384028E72DE9F84312F0030318BF012337
S21400618803EB92068946314680461546FFF7D8FF48
S214006198044670B9B8F80620D8F80070964218D8A1
S2140061A83FB10146920038462FF0D8FA23469D4262
S2140061B802D12046BDE8F88319F80310DA0023F068
S2140061C8030002F0180291403A5801330A433A5045
S2140061D8EDE76FF00704ECE72DE9F84312F0030348
S2140061E818BF012303EB92068846314681461446BB
S2140061F8FFF7A6FF0546B8B9B9F80670BE4216D826
S21400620897B1D9F80090BE000146324648462FF0AE
S214006218A5FA2CB1301B22464146484430F0EAF82D
S21400622839464846FFF766FE2846BDE8F8836FF00D
S2140062380705F9E7884270B505460E4609D0C988AD
S214006248C28841B92AB101239200838000682FF0E2
S21400625885FA002070BD4C1E8CB9B6F9043001349E
S214006268A242AB8012D221462846FFF7ACFE002891
S214006278F0D131682868A20030F0BCF8E9E7336846
S21400628853F82430002BE8D1013CE5E72868121BB8
S2140062980021920000EB84002FF060FAE9E738B599
S2140062A804460D46FFF7C6FF68B905F1080104F174
S2140062B80800FFF7BFFF30B905F1100104F1100020
S2140062C8BDE83840B6E738BD70B50E46012104462D
S2140062D8FFF779FE054648B9E2880146920020682D
S2140062E82FF03CFA23681E600123A380284670BD61
S2140062F8F8B5C3880546B1EB431F0C4617464FEA68
S21400630851160FD20122296804F01F0451F82630CE
S214006318A24023EA020307FA04F4234341F826308E
S2140063280020F8BD002AFBD0711CFFF74CFE0028A1
S214006338E8D0F6E7F8B504460D46FFF791FDE38882
S2140063482844B0EB431F25D81F2D2368E68805F0A0
S2140063581F074FEA551413D96FF00300324600FBA7
S2140063680430944202F1FF3120D3A21BA64238BF64
S214006378002232441846002192002FF0EFF9034617
S21400638837B1002103EB8403C7F12005A64213D8D2
S21400639800200AE010F01F0118BF012101EB501180
S2140063A82046FFF710FE0028CED0F8BD50F8212072
S2140063B843F821200A46D4E71868013400FA07F2A1
S2140063C80A4343F8042B20FA05F1DFE72DE9F843E2
S2140063D805460E469046D4883CB9F188A1420ED2AE
S2140063E86FF009073846BDE8F883D8F8003003EBA5
S2140063F8840353F8043C002BEFD1013CECE7284615
S214006408FFF7E1FD07460028ECD1F28894420BD24C
S214006418AE4209D028683168121B920001EB84014D
S21400642800EB84002FF0E6FFEA88F088824207D95E
S2140064382B68121A0021920003EB80002FF08EF9C9
S214006448002213462968D6F800E0D8F8008094425F
S21400645803D1C3B90123AB80C4E75EF822C058F85D
S2140064682260ACEB0300B0422CBF4FF000094FF09F
S2140064780109801B41F822009C452CBF4B4609F1B8
S21400648801030132E3E7EA8801EB840401EB8201A9
S2140064988C4202D1002BDDD0A2E72268D21A34BF84
S2140064A80123002344F8042BF2E738B50C46051DF3
S2140064B829462046FFF759FC002801DA002006E0A6
S2140064C82A4621462046FFF781FF0028F0D038BD2F
S2140064D82DE9F0411746B1F904509288044612FB9C
S2140064E805F253430E461DD539463046FEF75EFB89
S2140064F8B0F100080DDB3A4631462046FFF766FF46
S21400650828B9B8F1000F08BF01250020A580BDE80E
S214006518F08132462046FFF759FF0028F7D16D4232
S214006528A580F4E7874202D0814210D13E46012377
S214006538B6F80680A380B8F1000FE6D0336803EB00
S214006548880353F8043C3BB908F1FF38F3E7FFF734
S21400655871FE0028EAD0DAE741462046FFF733FD09
S2140065680028D4D1D6F800C0074606462368191F67
S21400657851F8042F5CF82700B2182CBF0126002615
S2140065880137121846F10006B8450A60F0D103EB49
S2140065988703002EB9D0E28807F10108BA4208D866
S2140065A841462046FFF70FFD0028B0D1236803EBCD
S2140065B887031A68474692192CBF0126002643F817
S2140065C8042BE6E7012383E770B50C46054611461B
S2140065D820461A46FFF7F6FF064630B90435294620
S2140065E82046FFF7C2FB002801DA304670BD2A466F
S2140065F821462046FFF7EAFE0028F0D00646F4E7D4
S2140066084FF0FF3364E770B50C4606461146204641
S2140066181A46FFF7F5FF054688B90436B4F904307C
S214006628002B0CDA00212046FFF7E7FB30B1324694
S21400663821462046FFF7C6FF0028EFD00546284625
S21400664870BDF7B50D4601230021083504462846D7
S214006658CDE900131646FFF7D0FB211D07462A464C
S2140066686846FFF7CDFF044648B9002F0CBF002246
S21400667806F0010269462846FFF7C8FC0446684645
S214006688FFF783FC204603B0F0BD2DE9F34105462D
S21400669888461646CF883FB1D8F8003003EB870304
S2140066A853F8043C33B13EB90021284602B0BDE891
S2140066B8F04109E6013FEEE72846791CFFF783FC20
S2140066C8044670B941462846FFF7B4FD044640B96B
S2140066D8013E00963B46D8F80020E988286827F04F
S2140066E86FF8204602B0BDE8F0812DE9F04F054668
S2140066F80F461046002197B09346FFF77EFB00280A
S214006708C0F2868105D16FF00B04204617B0BDE8AD
S214006718F08F00230126CDE90936CDE90B36CDE901
S2140067280D36CDE90F36674B59461293384613ABEC
S2140067381193FEF73BFA002817DA35B13946284692
S214006748FFF778FD0446002849D100212846FFF7C0
S21400675854FB0028C0F24B8159462846FFF705FB34
S214006768002880F24B810024CFE7394609A8FFF7B6
S21400677861FD044698BB59460BA8FFF75BFD044627
S21400678868BBF9880DA80231ADF83060ADF828600E
S214006798FFF719FC044610BB01460DA8FFF794FD49
S2140067A80446E0B9F9880FA80231FFF70CFC044646
S2140067B8A8B90BA8FFF754FB00F01F001F2821D02C
S2140067C8C0F11F03194609A80093FFF7B3FD044656
S2140067D828B900990BA8FFF7ADFD044698B109A89B
S2140067E8FFF7D3FB0BA8FFF7D0FB0DA8FFF7CDFBF1
S2140067F80FA8FFF7CAFB0C2113A8FFF7B0FB002C65
S214006808A3D082E70094BDF82A60BDF832900BA8A2
S214006818A6EB090A4FEA4A184146FFF78BFD0446DD
S2140068280028DCD14FEA8A0A0BA909A8FFF79DFAC7
S214006838002838DA41460BA8FFF753FB0446002821
S214006848CDD109F1FF3301939B0006F1FF3804937D
S21400685806F1804609F18043023B013E9B00A6EB09
S21400686809060793B3000293019B43452CD3002DDA
S214006878B5D0009909A8FFF734FB002840F0B3808C
S214006888BB8809A92846ADF82830FFF7D3FC01468F
S214006898002840F0AA802846FFF7AFFA00289ED1C5
S2140068A80123AB809BE70D9A09A952F80A300846DF
S2140068B8013342F80A300BAAFFF7A2FE0446002866
S2140068C8B2D08CE7010003000B9B049A0393134491
S2140068D8DDF824900693039B4FEA880A9A5859F8DD
S2140068E82810AAF104030D9E0593029B91421E44AC
S2140068F874D20598002359F800002EF001F90029F3
S21400690814BF4FF0FF330346B8F1010F33600EBFD4
S214006918002309EB0A0353F8083C079A1393059BD0
S21400692859F80330149359F80A301593336801332D
S2140069383360039B1344994633680021013B336058
S2140069480FA8FFF7C1FC00284DD1019B002B48D0AB
S214006958D9F800200F9B0FA91A60069A08461268F5
S2140069685A603268FFF791FE00283CD111A90FA89B
S214006978FFF7FBF90028DFDC32680BA90FA8FFF742
S21400698884FE80BB029B0FA84FEAC3094946FFF75F
S214006998D1FC40BB09A908460FAAFFF731FE0146FD
S2140069A818BB09A8FFF729FA002812DA0BA90FA8BE
S2140069B8FFF740FCB8B949460FA8FFF7BBFC90B9EB
S2140069C809A908460FAAFFF7FDFD60B93368013B21
S2140069D83360029B08F1FF38043B44E74FF0FF336F
S2140069E892E7019AB6E70446F9E60C46F7E65A46F1
S2140069F829462846FFF7E6FD044600E75A46294694
S214006A082846FFF7FDFD044600283FF4A5AE7CE6C1
S214006A186FF0090479E62DE9F04306460F4610465E
S214006A28012197B01546FFF7E8F9002840F3CA8118
S214006A3800220123394612A8CDE90E23CDE90C23FE
S214006A48CDE90A23CDE90823CDE91023CDE90623AD
S214006A58CDE90423CDE90223CDE90023CDE91223AD
S214006A68CDE91423FFF7E6FB044608B112A806E0B2
S214006A78294614A8FFF7DEFB044612A81CB3FFF746
S214006A8884FA14A8FFF781FA0EA8FFF77EFA0CA876
S214006A98FFF77BFA0AA8FFF778FA08A8FFF775FA4F
S214006AA810A8FFF772FA06A8FFF76FFA04A8FFF710
S214006AB86CFA02A8FFF769FA6846FFF766FA2046F6
S214006AC817B0BDE8F083FEF7A7F8814614A8FEF7CE
S214006AD8A3F8804650B9214614A8FFF7CFF828B97E
S214006AE8394610A8FFF7A6FB04463CE00123ADF89C
S214006AF85430ADF84C30002112A8FFF77EF958B98B
S214006B08C145494614A828BF4146FFF713FC04466A
S214006B180028ABD114A9E4E712A8FEF77DF80146D1
S214006B2812A8FFF7DEF90446E8B914A8FEF774F8C9
S214006B38014614A8FFF7D5F90446A0B914A912A867
S214006B48FFF713F90028C0F2A28012A9084614AA73
S214006B58FFF73CFC044630B9012112A8FFF7C1F93B
S214006B6804460028C7D012A8FFF70FFA14A8FFF7A4
S214006B780CFA002C88D1012110A8FFF73EF900284E
S214006B8840F01D812A4639460EA8FFF7AEFD04469A
S214006B9800287FF479AF0EA90CA8FFF74BFB044634
S214006BA800287FF471AF294606A8FFF743FB044682
S214006BB800287FF469AF294604A8FFF73BFB044684
S214006BC800287FF461AF01210AA8FFF77DFB044681
S214006BD800287FF459AF014608A8FFF775FB04465E
S214006BE800287FF451AF014602A8FFF76DFB044664
S214006BF800287FF449AF01216846FFF765FB044685
S214006C0800287FF441AF0C9B1B68D8074BD5049B24
S214006C181B68DB0776D504A90CA8FFF7A6F800289A
S214006C28C0F2A3800CA9084604AAFFF7E9FC0446AC
S214006C3800287FF429AF0AA9084602AAFFF7E0FC55
S214006C48044600287FF420AF08A96A460846FFF7DE
S214006C58D7FC044600287FF417AF00210CA8FFF7DE
S214006C68CCF80028CFD1002102A8FFF7C6F80028E4
S214006C78C0F29180294602A8FFF777F8002880F22C
S214006C889480304602A9FFF7D5FA0446FCE614A914
S214006C98084612AAFFF79AFB044600287FF463AF5B
S214006CA8012114A85AE701210CA8FFF71AF904468F
S214006CB800287FF4E9AE0A9B1B68DF0710D4089B00
S214006CC81B68DC070CD401210AA8FFF70AF904465A
S214006CD800287FF4D9AE012108A8FFF702F98EE74D
S214006CE80AA9084606AAFFF76DFC044600287FF4A2
S214006CF8CBAE08A908460EAAFFF782FC0446002871
S214006D08E1D0C1E6012104A8FFF7EBF80446002805
S214006D187FF4BAAE029B1B68D90714D4009B1B6885
S214006D28DA0710D4012102A8FFF7DBF8044600288A
S214006D387FF4AAAE01216846FFF7D3F80446002878
S214006D483FF465AFA0E602A9084606AAFFF73AFC94
S214006D58044600287FF498AE694668460EAAFFF7F0
S214006D684FFC04460028DDD08EE604A908460CAA87
S214006D78FFF746FC044600287FF486AE02A90846BC
S214006D880AAAFFF73DFC044600287FF47DAE694654
S214006D98684608AA5BE702A92A460846FFF712FCD7
S214006DA8044600283FF45FAF6EE602A92A46084666
S214006DB8FFF726FC044600283FF45CAF64E66FF055
S214006DC80D0461E66FF0030479E62DE9F04F1646E8
S214006DD81F46002201238BB0B14280460D46CDE9FE
S214006DE80623CDE908230FD106A8FFF723FA0446A1
S214006DF848B108A8FFF7C9F806A8FFF7C6F820465E
S214006E080BB0BDE8F08F06AEBD4207D1294608A8EC
S214006E18FFF710FA04460028EBD108AFB6F806903C
S214006E28B9F1000F40D1B7F806A0BAF1000F45D166
S214006E38012309EB0A0B594628460393FFF7C3F8C4
S214006E4804460028D5D101462846FFF73DFA0446F1
S214006E580028CED132682B6804923A68014605921B
S214006E6818464FEA8B022EF079FC8346059A00EB0B
S214006E788A0A141F09F10101DA4529D1039B002B60
S214006E8833D00123AB8008A8FFF77FF806A8FFF7E2
S214006E987CF8D8F848406CBB2946284608F1040216
S214006EA80BB0BDE8F04F20E4336803EB890353F8D2
S214006EB8043C002BB7D109F1FF39B1E73B6803EB77
S214006EC88A0353F8043C002B50D10AF1FF3AACE78A
S214006ED854F8043F58460093049A4B4605910BF124
S214006EE8040B26F06DFC0599C6E7B388BA8813FB31
S214006EF802F3C7E7B5F90430002B04DA0021284668
S214006F08FEF77BFF80BB2846FEF7AAFFD8F83C3082
S214006F18B0EB430F28D82846A047044600287FF43D
S214006F286EAF08F10408B5F90430002B04DA002126
S214006F382846FEF762FF70B941462846FEF715FF59
S214006F480028FFF65CAF424629462846FFF73EFA79
S214006F580028F1D006E0424629462846FFF732FBCD
S214006F680028E0D004464AE7024C48E7B9FA89F315
S214006F785B095EE780B0FFFF2DE9F74301F11006D5
S214006F880546894630460021FEF737FF0446A0B37B
S214006F9800230127314668462A1DCDE90037FFF74A
S214006FA83AFD044630BB09F108086B46424641469E
S214006FB82846FFF70AFF0446E0B96B466A46694664
S214006FC82846FFF702FF0446A0B96B464A464946DC
S214006FD82846FFF7FAFE044660B96B464246414625
S214006FE82846FFF7F2FE044620B939463046FFF732
S214006FF86BF904466846FEF7C8FF204603B0BDE8AE
S214007008F0832DE9F84F1E4603F10805C3680446C9
S2140070188A469046002B40F0C08002F110031A46BC
S2140070282946FFF7D2FE002840F0EF8006F1100749
S2140070382B46424639462046FFF7C6FA002840F057
S214007048E48006F118092B46424649462046FFF7D3
S214007058DAFA002840F0D9804B463A4629462046B8
S214007068FFF7B3FE002840F0D080032229463046BA
S214007078FFF70BFB002840F0C88031462046FFF794
S21400708814FA002840F0C18008F1080B06F1100732
S2140070985B465A4639462046FFF797FE002840F0DA
S2140070A8B4803946204620F076FA002840F0AD80B5
S2140070B83B46424629462046FFF787FE002840F012
S2140070C8A4802946204620F066FA002840F09D80D5
S2140070D806F118093B463A4649462046FFF775FE2C
S2140070E8002840F092804946204620F054FA0028AE
S2140070F840F08B803346324639462046FFF765FE19
S214007108002840F082802B463A4639462046FFF74C
S2140071187AFA002879D12B463A4639462046FFF7B0
S21400712872FA002871D13B462A4629462046FFF7C0
S2140071386AFA002869D133462A4629462046FFF7C8
S21400714844FE002861D14B462A4629462046FFF7CA
S2140071585AFA002859D15A464946204608F11003DB
S214007168FFF733FE002850D14946204620F013FA90
S21400717800284AD139465046FFF75CF8002844D123
S21400718829460AF10800FFF755F8F0BB49460AF108
S2140071981000BDE8F84FFFF74DB813462946FFF72D
S2140071A814FE90BB032229463046FFF76EFA60BBF2
S2140071B831462046FFF779F938BB04F10C0701463B
S2140071C83846FEF71AFE00283FF45EAF08F11003B3
S2140071D81A4629462046FFF7F8FDB0B906F1100909
S2140071E82B462A4649462046FFF7EFFD68B93B4638
S2140071F84A4629462046FFF7E8FD30B92B46324670
S21400720831462046FFF7E0F93BE7BDE8F88F2DE961
S214007218F74F9A461B6904460E4691460C9D002B6E
S21400722800F0E48002F1100700213846FEF7E5FD7D
S21400723830B95146304603B0BDE8F04FFFF72FB8D7
S2140072480AF1100800214046FEF7D7FD08B949465E
S214007258F0E701214046FEF7D0FD002840F0C68042
S2140072683B463A4629462046FFF7AFFD002840F041
S214007278BE8005F108083B462A4641462046FFF7E9
S214007288A4FD002840F0B38053462A4629462046E7
S214007298FFF79BFD002840F0AA804246414620465C
S2140072A80AF10803FFF791FD002840F0A0804B463E
S2140072B82A4629462046FFF7A6F9002840F0978078
S2140072C809F1080B5B46424641462046FFF79BF904
S2140072D8002840F08C80002106F108032846019318
S2140072E8FEF78BFD06F1100A0146F0B94046FEF798
S2140072F884FD38B92B464A463146204603B0BDE8D9
S214007308F04F7EE601213046FEF7DEFF00286ED1FC
S21400731801210198FEF7D8FF002868D1014650469B
S21400732803B0BDE8F04FFEF7CFBF2B463A465146AE
S2140073382046FFF74AFD002859D105F110072B46CD
S2140073482A4639462046FFF740FD00284FD105F16A
S214007358180A2B463A4651462046FFF736FD0028BF
S21400736845D14B463A4639462046FFF72EFD0028BB
S2140073783DD139462846FEF75DFFC0BB2946204664
S21400738820F009F998BB4346424631462046FFF7A7
S2140073981CFD60BB2B46324631462046FFF733F9C4
S2140073A828BB5346324631462046FFF72CF9F0B93B
S2140073B833463A4639462046FFF725F9B8B94346D4
S2140073C83A4639462046FFF700FD80B95B465246E6
S2140073D851462046FFF7F9FC48B953463A46204638
S2140073E8019903B0BDE8F04FFFF70DB9014803B0A7
S2140073F8BDE8F08F80B0FFFF2DE9F0410E46054648
S214007408012188B006F11000FEF7F7FC04460028B4
S21400741840F0E380EB69002B00F0DD806F6A002FF8
S2140074285FD13046FEF71CFD2B6C07300733C008CB
S214007438B0EBD30F00F2D18039463046FEF7DDFCBC
S2140074480028C0F2CA800123314604A895F80080B7
S21400745804970593FEF7EEFE0446B0B904352946B0
S21400746804A8FEF782FC002807DA012104A8FEF724
S214007478C4FC002810DC5A4C07E004A92A46084633
S214007488FFF7BEF804460028E9D004A8FEF77DFDFD
S214007498204608B0BDE8F081B8F1090F0BD1514974
S2140074A804A8FEF762FC0028E5D04F4904A8FEF7BA
S2140074B85CFC0028DFD0012302934FF0011304A9D7
S2140074C80793084602AB06AA0693FFF77BF804461E
S2140074D80028DAD1294604A8FEF747FC0028D4D1AC
S2140074E8C9E701463046FEF788FC002875DB06F13A
S2140074F8080821464046FEF780FC00286DDB2F1D55
S21400750839463046FEF731FC002866DA39464046EA
S214007518FEF72BFC002860DA01234246CDE9033447
S21400752805932846434602A90294FFF74EFC0446F4
S21400753800284CD133463246284604A9FFF745FCB6
S2140075480446002843D1EB68002B36D10323019369
S2140075584FF0011304A90793084601AB06AA069341
S214007568FFF74EF8044690BBBDF91430002B04DA3A
S214007578002104A8FEF741FCC8B904AA3346114600
S2140075882846FFF722FC044608BB04AA11462846EC
S21400759805F11403FFF718F80446C0B904A902A8B1
S2140075A8FEF7E3FB0E4B041E18BF1C460FE004A9AB
S2140075B83A460846FFF706F8D4E704AA11462846CE
S2140075C805F10C03FFF700F804460028D5D002A8FA
S2140075D8FEF7DBFC59E7054C5AE7014C58E700BFB5
S2140075E880B3FFFF34EA03003CEA030080B0FFFFE5
S2140075F870B5044658B3436C012B11D00C30FEF717
S214007608C4FC04F11400FEF7C0FC04F11C00FEF7ED
S214007618D7FC04F13400FEF7B8FC201DFEF7B5FCD5
S214007628A36D8BB92046BDE870406021FEF797BC75
S21400763806FB0500FEF7C4FC0135D4E91603AB4289
S214007648F6D80FF012FFEDE700251826F5E770BD0F
S21400765810F1860F12D010F1850F0ADA10F1950F87
S2140076680FD010F1930F0CBF6FF06F004FF0FF3084
S2140076787047003818BF0120404270476FF071000D
S21400768870470148704700BF00B2FFFF013808285E
S21400769820D8DFE800F0051F0C11161F1F1F1B005F
S2140076A847F21212C02300200A804B80704747F228
S2140076B812124FF48073F6E747F212124FF4C073B3
S2140076C8F1E747F2121240F20923ECE747F24112BB
S2140076D8FF23E8E76FF071007047F8B51346428855
S2140076E80C460732072A4FEAD20101D0A14253D1ED
S2140076F8D0E9016705882022184600212EF02EF8CA
S214007708360A0346002E4AD1002C45D041F2010223
S214007718954205D0B5F5885F02D0B5F5905F02D1E1
S2140077285C60002011E0B5F5105F07D1182C03D077
S214007738202C01D0102C2FD11C60F1E705F44F4205
S214007748B2F5824F02D06FF08500F8BDEAB2122A71
S21400775803D1202CF7D1134A04E0412AF3D1202C78
S214007768F1D1114A25F0FF05B5F5E24F1A600CD0A5
S214007778B5F5824F10D14FF4005217F4705F09D058
S21400778817F4864F04D09A60DDE74FF48042F4E79A
S21400779842F480629A60C4E76FF08600D5E76FF01F
S2140077A88B00D2E720000080200000B02DE9F041D1
S2140077B81C46436807461B0A8846154688B055D1B6
S2140077C8038823F0FF02B2F5824F2CD14688413B4E
S2140077D8DBB20736012B4FEAD60607D90B78042BFF
S2140077E81AD06FF0860008B0BDE8F081B542F8D12F
S2140077F8224631463846FFF770FF0028F3D1033596
S21400780825F00305C4E90308656176B9202200213E
S21400781820462DF0A3FFE4E7013DB5EB460F01F146
S2140078280108E5D0DDE72E46E2E701462022684655
S2140078382DF094FF6A4631463846FFF74EFF00287B
S214007848E4D12368009A9A42E0D16368019A9A4282
S214007858DCD1A368029A9A42D8D1A369069A9A42BA
S214007868D4D1E369079A9A42BDD0CFE76FF08B0070
S214007878B9E7702200212DF071BF036810B513F028
S214007888704208D1C3F30E030B6013B943686BB19B
S2140078980B6000200BE003F05044B4F1004F07D013
S2140078A8B2F1304F04D0B2F1404F01D0212010BDC4
S2140078B803F07F03E8E7002373B50D4601A90646E3
S2140078C80193FFF7DAFFA0B93468019B14F07044FF
S2140078D803F1030323F003030AD0B168B4F1004FA1
S2140078E8C1F38032C1F3403105D102EB4102534364
S2140078F82B6002B070BDB4F1204F01D10A44F6E700
S214007908B4F1304FFAD0B4F1404FF7D02120F0E769
S2140079182DE9F34705680F680446BD420E469046B3
S2140079289A4605F070492AD0B9F1004F06D0B9F149
S214007938404F03D0212002B0BDE8F08785EA070350
S214007948B3F1805F0CD3BAF1000F2FD1B8F1000F56
S21400795818D0A368B268534013F4E04F12D0E9E792
S2140079680023204601A90193FFF787FF0028E1D1ED
S214007978019AC2F30E0215431743BD42DAD1B9F194
S214007988000FE0DB0023204601A90193FFF775FFEF
S2140079980028D0D1009069463046FFF76EFF0028D1
S2140079A8C9D1DDE900329A42C5D0C3E7B268B8F15A
S2140079B8000F03D0A3685340D904BBD49304E1D482
S2140079C8B8E7002337B50B600368054603F0704335
S2140079D80B60C2680C4622B1032A0DD143F08063BF
S2140079E80B60D5E90232980103F0407107D5B1F172
S2140079F8407F07D0002A62D1212003B030BDB1F104
S214007A08407F55D1002AF7D04FF04073226822F005
S214007A1840721A432260EB68032B09D12B69F62BB8
S214007A28EAD91B0403F47F0322F47F02134323607E
S214007A38AB681B0442BF236843F400432360EB682B
S214007A48032B09D023682A6823F4FF4323F07F0317
S214007A58C2F30E02134323602B68AA68002B31DB9F
S214007A6812F4C84FC8D12B6803F0704303F10043E3
S214007A78B3F1804F05D2530542BF236843F48063B1
S214007A8823600023284601A90193FFF7F6FE002885
S214007A98B3D12B6813F0704226D12368019A23F4D9
S214007AA8FF4323F07F03C2F30E0213432360A4E7C9
S214007AB803F08073002AA9D1002BA7D09CE74FF0CB
S214007AC80073A3E7500402F4005106D4002993D0AB
S214007AD8236843F400532360C5E7236843F48043D0
S214007AE823600029BFD0F3E703F05043B3F1004FFB
S214007AF806D0B2F1304F03D0B2F1404F7FF47CAFDE
S214007B08019B2268013B03F07F0322F07F02CCE74B
S214007B18012337B54B60C36805460C469BB901A9D7
S214007B280193FFF7C8FE60B9019B6A699A4207D3BA
S214007B382A6962B1226043F000530020A36000E087
S214007B481D2003B030BD032B01D10023F5E721200B
S214007B58F7E7436813B9416070475B685A68012ABB
S214007B68FBD159607047F0B5174602780446022ADA
S214007B780E4693B040D0032A42D0012A44D1142599
S214007B88224A0C343260002299013046C6E90122A6
S214007B98326230F0A8F94FF0010C41F00051099715
S214007BA809ABCDF828C006AF0B9145F0005593E811
S214007BB8070003AB87E807000C940CAACDF834C07E
S214007BC80E9507CA83E807000F946C46CDF840C0A8
S214007BD812AA119512E9070084E8070019463046EC
S214007BE8FFF7B7FF3946FFF7B4FF214630F084F9B0
S214007BF830F027F913B0F0BD2025054A0C34C1E74C
S214007C082025044A0C34BDE72120F3E700020103CF
S214007C1800030103000401032DE9F04705468846E2
S214007C2816461C46002B3CD00378013B022B3BD85B
S214007C38436800F12C0903F03F07E318436022BFAE
S214007C4883680133836077B93F2C24D9324641468E
S214007C582846A309FFF787FF20BB24F03F031E44EE
S214007C6804F03F0415E0C7F1400A544513D35246C2
S214007C78314609EB07002EF0BDFB01234A46414674
S214007C882846FFF770FF68B9403C3C443F2C5644F2
S214007C98DCD834B100272246314609EB07002EF01F
S214007CA8A9FB0020BDE8F0872120FBE770B58AB065
S214007CB8044668460D46164630F00EF930B16FF0A9
S214007CC892000AB0BDE870401FF074BC33462A46DE
S214007CD86946201DFFF7A0FF0028F2D0EFE72DE940
S214007CE8F0438FB0054604A80E4630F0F5F8014676
S214007CF830B16FF092000FB0BDE8F0431FF05ABCE9
S214007D082B792C1D022B4DD0032B51D0012B06D0DE
S214007D186C2220462DF022FD6FF08900EBE74FF02D
S214007D28140805F11007221D13685268D9008DF84B
S214007D38071059098DF80610590B8DF80510590DBE
S214007D488DF80410D10001EB53718DF8031003F081
S214007D583F035109372B8DF802104FEA52314FEA8C
S214007D6852528DF801108DF8002020461C4A94BF08
S214007D78C3F13803C3F1780304A9FFF74DFF814622
S214007D8838B908236A46204604A9FFF745FF814606
S214007D98A0B16C22002120462DF0E0FCB9F1210F9D
S214007DA8A7D1B9E74FF01C0805F11007221DBBE75D
S214007DB84FF0200805F11007221DB5E74246394660
S214007DC830462EF017FB6C22494620462DF0C6FC9E
S214007DD82B78032B0CBF00206FF088008BE700BFC2
S214007DE844EA030007B5064B009001210420054A23
S214007DF806F00EF90022044B1A7003B05DF804FB77
S214007E0849E503006EE903003438002007B5009200
S214007E180B46027D8189806804F0DCFD003818BFB7
S214007E280120C00103B05DF804FB024B18692FF06F
S214007E38E9BF00BF043900202DE9F743384D044652
S214007E482B7D0E461746002B68D0FDF773FB0128DE
S214007E5805D9831EDBB2012B55D9212423E0314DE9
S214007E68E20295F83430C4F3130924D5002B55D014
S214007E78012128460CF030F8494628462A4A0DF1D2
S214007E8807030CF0D4FB044688B99DF80730032B8B
S214007E980DD0022B0DD1284623490CF07AF8306015
S214007EA8E86B26F053F9204603B0BDE8F0832D248E
S214007EB8F6E76124F4E78BB3DFF86C8001212846E7
S214007EC80CF00AF84246494628460DF107030CF01E
S214007ED8AEFB04460028E3D19DF80730012B0BD1F2
S214007EE8D8F810309F420CD803463A463146284602
S214007EF824F051FC0446D3E7022B14BF2D2460243B
S214007F08CEE76324CCE7EFF3108372B620462B61E6
S214007F1824F0E2FC0446FFF788FFC4E71124C2E712
S214007F280439002048150020E81400202DE9F04107
S214007F38184F05463B7D0C4653B3FDF7FBFA012860
S214007F4805D9841EE4B2012C12D921241BE0EB02C9
S214007F58C5F3130105D522680F48BDE8F0410DF0BA
S214007F6897B813460C482246BDE8F0410DF000B815
S214007F78EFF3108372B63B6142B1A8B20FF016FF5A
S214007F880446FFF752FF2046BDE8F0812124F8E7B3
S214007F981124F8E704390020481500202DE9F04F91
S214007FA800254FF4802B9FB0CDE90B55CDE906553B
S214007FB8DFF898A30D95CDF828B00FAC0AAE0FCE13
S214007FC808950FC4CDF814A014AC05AE0FCE0FC498
S214007FD8BF4CC04E04F118084546BF4BBF4F7360F0
S214007FE8BF4BDFF86C93B360BE4B9022F360BE4B7A
S214007FF804F12C000E973361CDF824902DF0AEFBDB
S2140080081397CDF83CB00DF13C0CBCE80F000FC53B
S214008018CDF850A02F60CDF8609004F17C0514AF21
S2140080280FCF0FC52022012104F1CC03C4E9192380
S2140080382366C4F8B430331DC5F80090A367AB4D6B
S214008048AB4B84F8B8106B60AA4B84F86C1084F8B5
S214008058B010C5F80080AB60A74BEB60A74B6B6110
S214008068A74BAB61A74B2B61EFF31182302383F349
S2140080781188A54F3B78ABB182F31188BFF36F8F99
S2140080883B786BB103A80BF0DBFE48B9039B84F87A
S2140080982C303B78002B34D194F82C0025F0CCFCFF
S2140080A8102509E1397082F31188BFF36F8F974A5C
S2140080B815201373137782F82C3082F83C3082F838
S2140080C84C3082F85C3082F86C3082F87C30904A0B
S2140080D85160FF21936093619162936313644FF03C
S2140080E8004353654FF0FF328A4B1A654FF400126F
S2140080F8894BC3F88021802283F815230EF05CFE96
S214008108BEE703A80BF09CFE01460028C4D1012751
S214008118039B84F8AE0084F89030804B80486B62EE
S214008128804B84F8B970EB617F4B84F8AD702B6296
S2140081380FF0ADFC96F9155028460BF0F1FD2846D1
S2140081480EF03AFE94F82C000BF00CFE0028A7D18F
S214008158CDF80480636E0093A36A226EA16994F832
S2140081682C0023F0B9FF0546002899D1302294F850
S2140081782C304FF48011534342F2640203F1A043BB
S21400818803F58023995096F9146030460BF0C8FD25
S21400819830460EF011FE5548C4F8A85025F0CAFB24
S2140081A85F480EF077FF94F82C000BF0FDFD0546AF
S2140081B800287FF475AF5D4E5D4B0422C4E92F633B
S2140081C85C4B0521C4F8C4303B4684F8C8700DF0F3
S2140081D84BFE06213B46022228460DF045FE40F699
S2140081E8AA63DFF87081DFF87091C8F804707361CD
S2140081F841F20503504AB5600320F565F360356122
S214008208F561F564C9F84820B56535657565C9F83A
S2140082180470C8F80470F3600DF03AFC4FF4E112ED
S214008228430103F56123B3FBF2F3444A203B02EA19
S214008238C30360224FF0020BC9F808200421142259
S214008248C8F80850DFF814A1F3613D4BB565CAF8C5
S214008258ACB5C8F85C107561C3F8AC254FF4A0221D
S214008268C3F8C4254FF4C022C3F8BC2503235A46D6
S214008278284684F8C9302B460DF0F6FD04214FF445
S21400828880230A46CAF8B43558462B46C8F85C1008
S21400829839460DF0E9FD2B4BCAF8ACB5CAF8B83527
S2140082A80523254A84F8C15084F8C230C9F8482006
S2140082B8C8F80470756173610122234B03A8CDE9E1
S2140082C8032324F049FE28461FB0BDE8F08F00BF00
S2140082D804390020EC4300208D210100248005503D
S2140082E87D210100A1210100F15E01008816002011
S2140082F8F57A0100DF250100D97101006B21010024
S21400830871210100F56E010088140020F810002085
S214008318000004500020045000E100E0F53D010094
S2140083281C390020977A010077210100008005504B
S2140083382100050006000402FFFF0100F8FF7F0089
S21400834800C003500200010000C201C00200040081
S2140083583C8005500090055000A0055000D0035002
S214008368194B2DE9F0411C68D4F8A4309A6CD20752
S21400837828D5012503F5005295649B699B0621D5EF
S214008388EFF31187302383F3118894F8953003F0C0
S214008398FF069BB9236E314620469B68984784F8AB
S2140083A89550EFF3108872B6314628462EF07EFBBD
S2140083B840462FF027FD022384F8A13087F3118862
S2140083C8BFF36F8FBDE8F08188160020C8E700BFAE
S2140083D82DE98048B94CC7B094F85C33BBB9022283
S2140083E8B74FB84EB84DF61B3846C5E900762A771B
S2140083F86B62C5E905770FF063F908220123013E91
S214008408F6087E80C5E902222B6184F85C33AF4B00
S2140084185969C1F3073001F03F01012917D1AC4A69
S214008428936DDD0313D4536B23F4FF0323F4FE4349
S21400843843F4BC1343F4A0635363136B23F47043F1
S21400844843F440431363136B43F4E06313638DF8FC
S21400845834008DF83510BDF83430B3F5807F0CD174
S2140084684FF000531B689B4B1B689B4B1B689B4B32
S2140084781B689B4B1B689B4B1B689B4AD2F880303B
S21400848843F00303C2F88030EFF31183302282F3FF
S214008498118894F85D23002A40F02684012284F887
S2140084A85D2383F31188BFF36F8F6FF004035021A9
S2140084B88E488F4D13F0800F03F1010240F00C84B4
S2140084C82B443D2A83F800131346F3D1894AD2F881
S2140084D84C3113F4802300F00D844FF07E6292F83E
S2140084E89C3092F99C20002AB8BF4F234FF4D151F4
S2140084F80220814A4F2B5162804928BF4F2348608B
S214008508012001F58051DBB24860116911F4803111
S214008518FBD143F40073536140F20143784E34AD07
S214008528936051600FCE0FC50FCE0FC596E80300B7
S21400853885E803006F4BD3F84C21120300F1DE8365
S214008548D3F85031DBB26F4A8DF8E93092F9002043
S214008558DFF8D091134483F308038DF8E8306A4BAC
S214008568C9F80030604B1B6F03F00703032B01D1DB
S2140085782EF0CEF81EF031FF03280FD045F60E0277
S214008588534B34A8C3F88020022203F580539A621E
S214008598012203F580539A620DF0E4FB554BD3F89D
S2140085A898505A4B5A68012A00F0AE831EF015FF01
S2140085B8042807D156481EF025FF4B4A136F43F48C
S2140085C880631367534A25F04073D16811F0060F8D
S2140085D8FBD1916893609068434013F4F81F05BF79
S2140085E84D4B4B4A91601A601EF0F7FE042812D1D4
S2140085F82EF08EF81EF006FF01200DF049FA4749C6
S214008608394A884294BF00200120136F23F4806300
S21400861843EA80231367374B414AD3F8C030324DBC
S21400862823F0407393602E6F3948C6F38026731C78
S21400863884F85E331EF0E6FE2B6F43F480632B67E8
S2140086482B6F23F0070343F002032B672EF060F826
S2140086581EF0D8FE2B6F23F4806343EA86232B672D
S2140086682B6F23F4505343F480632B671F4BD3F8C8
S214008678FC20D60140F14E83D3F8FC2022F080720D
S214008688C3F8FC20D5F8802022F0030242F002024C
S214008698C5F88020D3F8FC2042F08072C3F8FC208E
S2140086A8114BD3F8202122F0070242F00102C3F84A
S2140086B82021D3F8802122F0030235E0D81D0020BF
S2140086C8B848002000800120C015002000C00750D0
S2140086D800C00050004000200080002000C000209D
S2140086E800000120004001200080005000ED00E05E
S2140086F800E100E00080E00F000002500010025089
S2140087082C290400B815002000F0490200C00150CA
S21400871800B4C40400000150A043002080F0FA0210
S2140087280040015AA443002042F00102C3F8802109
S214008738D3F8402122F0030242F00202C3F8402197
S214008748D3F8602122F0030242F00202C3F8602147
S214008758D3F8402222F0030242F00202C3F8402275
S214008768D3F8002222F0070242F00202C3F80022E1
S214008778D3F8082222F0070242F00202C3F80822C1
S214008788B74A536A23F0010353624FF0E022136995
S21400879843F0040313610FF0FFF8EFF3108872B686
S2140087A894F85F3383B9AF4A1360AF4A1360AF4B90
S2140087B81B68C4F86033AE4B5A6F42F001025A6722
S2140087C8DA6E22F03002DA66AA4BAB49D3F80021FB
S2140087D81A6FAA4802F007020A60196F032A01F402
S2140087E850510160A649886900F00201C0F34000B4
S2140087F884F86403A3480BD0D3F8202102F00702BC
S214008808022A05D0D3F8802212F0010200F08B82EB
S214008818012303704FF4C875D4F860639A4B754308
S21400882805F5742505F23F25B5FBF3F50022974BB1
S21400883897481D60974F03680132D2B20A2A47F854
S214008848045BF9D12B4405EBC5021344924F036031
S21400885851B3884BD3F8003103F00303022B00F022
S2140088686E82032B00F06E82012B1DD1D9F80020F2
S214008878D2B1834BDFF81092DB68501EC3F30B0CA3
S214008888002319460CF1010C0CEB8C0CECFB0901CF
S2140088982CF036F9704300F5742000F23F20B0FB48
S2140088A8F9F03B6818443860C6EB4616764B06F572
S2140088B8742606F23F26B6FBF3F63B6840461E448F
S2140088C8764B3E601D60012384F85F332FF09AFADA
S2140088D8734D4FF40031D5F87C21501C04BF644B0F
S2140088E8D3F894204FF0502308BFC5F87C211967A9
S2140088F8D10700F1298201210E46084606FA00F340
S214008908134001F1010100F02182664B03EB40039E
S214008918B3F840316449062B0A884E88634840F00D
S2140089281C824FF20F039E4240F01482B2F5406F4D
S21400893828BF4FF4C0624CF23C3302804B805C4A3E
S214008948536A43F470235362EFF308834FF0CD3134
S214008958584A043B934280F00F820222444B1A671F
S2140089680FF01AF818B16A2153482DF0FFFDFDF7ED
S2140089785DF94FF4805025F03BFF4FF48053C4F860
S2140089886803C4F86C33002800F0F981D4F868331B
S2140089981BB9DE2149482DF0E9FDD4F86823484B79
S2140089A848491A60D4F86C33226023F00103134454
S2140089B80B60002A40F0EE81F82140482DF0D6FDE5
S2140089C840F203430022042134A8ADF8D0300CF05E
S2140089D891FF00239B6A3C4CB3F5804F80F0AC8037
S2140089E81A683A4B9A4240F0A78094F8706316F0DB
S2140089F8FD0640F0A180364F3B78002B00F0F8814A
S214008A0802233B7008224FF48038324B0320C3F809
S214008A188021314BC3F80C800EF0CEF92F4BC3F8EB
S214008A28108000239B6ADB6998473B788046012BB9
S214008A3840F07C820BF050F9013040F06882D4F8A0
S214008A488423274B1A66D4F888235A66D4F88C23CE
S214008A58C3F87021D4F89023D00700F1648241E06F
S214008A6800C00750781200205C160020041600206C
S214008A780040005000800050801400201816002087
S214008A8800C001507C12002040420F0080120020D7
S214008A98281600202C1600208412002060160020BD
S214008AA810440020142804007441002008350020D3
S214008AB800ED00E00800002098E403007798030023
S214008AC8FC32002000330020D81D002007B0CD5E01
S214008AD84015002000E100E000A00044009000449B
S214008AE800800044D5F88031013316D194F87033ED
S214008AF89BB9AB4A5268D20748BFC5F88031A94B24
S214008B085B68D80744BF0123C5F88031A64B5B686D
S214008B18D90744BF0223C5F8803128F04FFDD4F8A2
S214008B28743383F31188BFF36F8F3E70B8F1000F6C
S214008B3802D1012384F870330CF07AFE4FF44073A8
S214008B480122042134A8ADF8D0300CF0D3FE01225F
S214008B58964BC3F84424EFF31186302383F3118829
S214008B680C200CF095FF86F31188BFF36F8F904B9F
S214008B7800F5D520D3F8F02000F2FC4042F00102C0
S214008B88C3F8F020D3F8FC208A4E42F08072C3F86F
S214008B98FC20894AA3F55D431A60884B0222B0FB85
S214008BA8F3F0874B01381861C3F8F0204FF4807251
S214008BB8C3F804234FF06043824AC3F8B02F824AB2
S214008BC8C3F8802ED3F8002E42F48072C3F8002E25
S214008BD8FF2283F82020D3F8002E22F48072C3F8F0
S214008BE8002E33689A0106D44FF000731920C6F891
S214008BF880310EF0E1F833685B0106D44FF08063ED
S214008C081A20C6F880310EF0D7F84FF060460227D3
S214008C186E480CF080FE6E480CF026FFD6F8003E34
S214008C2834A843F48073C6F8003E6A4BCDE9347323
S214008C3824F092F9D6F8003E012223F48073C6F891
S214008C48003E40F20343042134A8ADF8D0300CF0BF
S214008C5851FE94F89523022A03D194F89433072BEF
S214008C681DD094F89433DE0703D443F0010384F848
S214008C78943394F8943398075FBF012143F00203B6
S214008C8884F89C1484F8943322B994F89433D9075A
S214008C9800F1808594F894335A0740F183850EF0E6
S214008CA833FE4D494D480EF01FFEFFF777F995F84D
S214008CB8942195F8A431022A00F23A81002A40F05D
S214008CC83E81022B00F25881002B00F05881D5F81F
S214008CD89C31C4F8A83352E103F00F03043B034465
S214008CE819761346FFF7E6BB83F31188BFF36F8F39
S214008CF8FFF7ECBBD2F85021FFF7F8BB384B1B88C0
S214008D08FF2B88BF81231EE436494A609A69970775
S214008D18FCD14BE4D5F8803023F0030343F002037C
S214008D28C5F88030BCE4027000293FF473ADD3F870
S214008D38003103F003035D1E6B426B4169E54FF497
S214008D48004296E5284A94E50020DEE510297FF4DF
S214008D58D4ADDFE54FF4C062EDE540F20727BB422D
S214008D6808D14FF20F07BE4204D19A4204BF4CF214
S214008D783C324A800380E2E543F80419EAE54FF4FA
S214008D88D3711A482DF0F2FBD4F86C33002B3FF45D
S214008D9800AEFBE50FF036FF64287FF60DAE0FE653
S214008DA80080055000C005500000065000D0035053
S214008DB800ED00E000E100E0FF030040F8590D0078
S214008DC8000004E055CEACC509000100C4E7030066
S214008DD86A430020006A1810944500207821002075
S214008DE80001E00F00E0015080D54302E6EB0300E7
S214008DF84FF001081496249687F80080EFF3118345
S214008E08302282F31188C4F8743328F0CFFB94F824
S214008E18783353B90CF00CFD38B94E4804F55F7139
S214008E281EF042FB08B984F878834B4B5A68C4F89E
S214008E3890234A4A9A601A6EC4F884235A6EC4F875
S214008E488823D3F87021C4F88C231B6E5A0439D5AE
S214008E58434AD368DB07FCD4D5F88021511C36D0AA
S214008E684FF4801393403F4A136604223D4B4FF05D
S214008E7880411A664FF480621A6610221A664FF40A
S214008E8800521A6619665A660023D3F82880B8F581
S214008E98804F06D234A836931EF0F0FA369B5B0550
S214008EA82FD4149A2F4B1A66249A5A6694F8782365
S214008EB8002A3FF4A7ADD4F87C231A66D4F880239A
S214008EC85A669FE5284AD368D807FCD4C4E794F8BE
S214008ED87033002BC9D1254B5A68224B12B94FF470
S214008EE880121A66224A526812B94FF400121A669D
S214008EF8204B5B68002BB8D14FF48002194B1A66DA
S214008F08B3E7D8F8403024A914A89847C9E70AF068
S214008F18E3FE40F2011398423FF491AD104AD3683D
S214008F28D907FCD48BE500229A60DBE50126FCE530
S214008F38032A04BFD5F88C21C4F8A823C1E6D5F8BF
S214008F488C11022BC4F8A81319D8C3B1022A16D05C
S214008F58BDE600BF481500200080004455CEAC0092
S214008F6800000440009000440000045000800550B3
S214008F7800C0055000000650032B3FF4A8AEBF4BB8
S214008F884FF42F7200211846D4F8A8632CF0E6FB9D
S214008F9880220121C0F88C20B94A0346C0F88420F4
S214008FA895F8B02180F88810C0F8B06232B9C5F8D4
S214008FB8AC21B44A85F8B011C0F89C204FF0FF32B7
S214008FC8C3F8B422EFF3108272B6AF4B1A600CF0F7
S214008FD82FFC002800F0EC83FEF727FFFCF726FEA0
S214008FE825F05AFE4FF0020CA84BDFF804E3CDE953
S214008FF834C34FF00073CDE936E3052334A94FF0A8
S214009008FF30002638932CF0EAFC012334A94FF0F1
S214009018FF30CDE934668DF8D2302CF060FC9C49E0
S2140090281020D1F8FC31C3F307430A9310F06CFF05
S21400903810F0800F304600F0C98310F065FF070671
S2140090480CD50A9B802B40F0B7830B6A13F0020FEF
S21400905800F0CF83CB69990740F1CB838D4F8E48BC
S2140090682CF0CBFB39468D480CF01AFB064618B395
S214009078D7E90001BB6900261B689847BB6934A876
S2140090889B689847BB690220DB68984735987B68D9
S214009098F1B2B3FBF0F38B42BA6906F1010600F2AF
S2140090A8AD83D36800209847BB695B6898477949C1
S2140090B87A480CF0F5FA06464FF00009DFF834A2B5
S2140090C8DFF834B20AF18403744F0593FEB9744B83
S2140090D813F80930002B00F0E683DBF800803846EA
S2140090E8414614AB24AA0BF047FB2D2807D070B9CD
S2140090F8249B012B0BD0414638460CF00DF8DAF8C5
S2140091080030414638461A680BF0C2FF0646059BF3
S21400911809F101090133B9F1210F0BF1040B0AF12A
S214009128040A0593D2D1B6FA86F35E4A5B09137031
S2140091385A4B1B7C1BB1DB215B482DF017FA002E1F
S21400914840F05783082259495948FEF775FE01230F
S214009158584FB1467B60584B3E6098461E700136A5
S214009168082EC3F80490A3F8049043F8089FF6D195
S2140091784822002151482CF0F1FA4FF6FE73A8F861
S21400918868306FF48033802200214D48C8F85C3080
S2140091982CF0E4FA4B4BC8E91299C8E9283988F844
S2140091A8449088F85090C8F8549088F8A89009F029
S2140091B8B1FDFF232C22002184F8200534A884F86A
S2140091C835322CF0CBFA64234FF002320121CDE978
S2140091D8362339930B23B4F8AE808DF8D41018EAEA
S2140091E801088DF8F83040F0468108462DF0A0FFBB
S2140091F80A22354B354E1A704FF42873ADF8D63020
S2140092084FF0FF333360324B30461B88314AA5F89F
S214009218C831314B31491B68A5F8CE81C5F8D03125
S2140092282F4BC5F8D8811B88A5F8CA312D4B1B686B
S214009238C5F8D4312BF0B8F920B140F279212A4884
S2140092482DF094F9052130682DF006F820B140F28B
S2140092588A2125482DF08AF9244B0022196830689F
S2140092682CF0CBFBD6F800800A2140462CF066FB93
S21400927840F6E44140462CF063FB3FE01035002002
S21400928878E40300BC45002014390020006A180062
S2140092980080E00FBC430020690345EC4815002019
S2140092A888E80300301D002069EC030057280020DA
S2140092B834B608C09C3800204C320020A432002067
S2140092C8782200200000FFFF983000204832002057
S2140092D8AA56040069710300B0560400C845002069
S2140092E8A8560400AC56040076EB03007851040038
S2140092F80002040074290400ACE803004FF00C08D0
S2140093082DF0FCFE08FB00F03A902DF0F7FE08FB67
S21400931800F034A93890306825F020FB20B140F2E0
S214009328A221C9482DF022F90022C84930682CF03D
S21400933872FB20B14FF42971C3482DF017F940F29B
S2140093480353A4F8B830052384F8BA3095F9DC310D
S214009358DFF868837F2B27D14FF6FF7324A90222F4
S214009368BB48ADF89030FEF767FDBDF89010CB050A
S2140093784CBF6FF04A0149B2EFF31189302383F3EB
S2140093881188B4F8AE3088F8DC11D80708D53068EC
S2140093982CF0CFFA20B140F60571AB482DF0E6F870
S2140093A889F31188BFF36F8F95F8DC3184F8BB30EA
S2140093B82DF0A4FE00EB80008000A4F8BC002DF081
S2140093C89DFE0023C0004FF0FF31A4F8BE00C4F88D
S2140093D8C0304FF0FF309AA3D3E900232DF054FE97
S2140093E89C4930682CF0CFFA306824A92CF097FFF7
S2140093F820B140F2DD2194482DF0B8F804223068F8
S21400940814A92CF084FA042804D04FF439718E4835
S2140094182DF0ACF814A820F0A9FB09F069FCEFF3CE
S2140094281189302383F31188012388F8DD31B4F8D5
S214009438AE30D90703D5002130682CF0D5FF89F364
S2140094481188BFF36F8FB4F8AE30DA0711D5002253
S21400945841F20D01804800232DF016FE08223068E0
S21400946811462CF03FFA20B140F6C37176482DF02D
S2140094787DF80FF041FB22F071FA784A784BD2F863
S214009488481234A81960D2F84C12B2F85022596023
S2140094981A810522734B00211A7034222CF05EF9CB
S2140094A80B238DF8D0306FF4803335934FF6FE7368
S2140094B8ADF8E03003238DF8ED306B4B634A3C93F0
S2140094C86A4B106844936A4B5168DFF8F4B1DFF8CA
S2140094D8F4A1DFF8F491DFF8F481459336ABCDF8C4
S2140094E8F4B0CDF804A1CDF80891CDF80C8103C3EB
S2140094F834A9002022F06EF934A9012022F06AF976
S2140095080422002034A92CF002FA042803D0D7211C
S21400951858482DF02BF8349809F0EAFB19F070F942
S2140095289022FF2154482CF019F9544B544AC4F899
S214009538283500235349C4F84825534A534EC2E9F0
S21400954801135349C2E903630B604B60C4F82C351A
S214009558C4F83435C4F84C35C4F854351760C4F824
S2140095682475C4F83065C4F84475C4F8506509F025
S214009578D1FB84F8640509F0CDFB84F86505052061
S214009588444A434910701239482234A82CF032FF56
S2140095980023414A18463E92404A34A93F92334A2D
S2140095A8CDE94298CDE9402A4492314ACDF8F4B044
S2140095B8459222F00FF94FF0300C4FF0010E0023C1
S2140095C8EFF311808CF311883968002940F0718117
S2140095D880F31188BFF36F8F0023D7F80480B8F1A3
S2140095E8010F40F077814FF00009C7F8048013F0A8
S2140095F8DDFB13F0B7FA14F015FB294B294A1B7844
S214009608404643F00403284913800223274A84F877
S214009618669584F8679510F00FFC13F019FC322253
S2140096284946234884F8689584F869952CF096F896
S214009638204810F01FF915F015FB1F4B142247E0C1
S2140096480A0020FF4203000076EB0300572800209C
S214009658641002C055700300400D0300142804006F
S214009668C2380020C0380020099201006D9701001A
S214009678DDC0010098E403006413002051D6010001
S214009688A5CA0100654C02006C380020A4E9030056
S214009698B6320020FA320020098C0100871B010030
S2140096A84C4300200E3300203238002027E101000A
S2140096B842230020F04500206D17020010440020C9
S2140096C8C790010051F60100798E010029CC0100EF
S2140096D8C4F8A0358C4BFF218C48C4F89C75C4F898
S2140096E8A495C4F8A865C4F8AC95C4F860322CF004
S2140096F835F84FF0010606F0B7FA854B1E702EF0C7
S2140097089BFC844984480EF0EFF825F0C5FA834B95
S2140097181E702EF091FC824982480EF0E5F80DF096
S214009728C1FB814E0590D6F8B00224F003F996F8EE
S2140097388080B8F1000F40F0A3814FF0010386F84F
S214009748803096F8883033B1D6F88410774886F893
S21400975888800CF0CBFE4FF0FF3A734FD6F8B40271
S214009768431C00F0BD80C6F8B4A210F0FF01F5D087
S21400977838460DF0F1F981460028EFD04FF0010386
S21400978886F888303378002B00F06D81664F07F135
S214009798AC0AEDE066480DF093FF022384F8953393
S2140097A8FFF778BA43F0040384F89433FFF777BAE0
S2140097B80122604B1A700FE40A9B812B19D1D1F84D
S2140097C80C315E0015D5D1F80C3144E410F09CFB42
S2140097D800067FF543AC0A9B802B03D10B6A13F077
S2140097E8010F35E40A9B812B03D1D1F80C31002BED
S2140097F8E9DB452150482CF0B9FE7AE73B68126948
S21400980801FB0030904741E4DBF800203846991801
S21400981814AB24AA07910AF0AFFF2D28079931D078
S21400982848B308F10108069A5FFA88F39A42EBD81B
S214009838424B19F80330002B3FF469ACDDF818806A
S2140098485FFA88F37E2B3FF662ACDBF800103846EA
S214009858414414AB24AA06910AF08EFF2D283FF443
S21400986856AC384606990BF057FC08F10108064630
S2140098780028E5D04BE4249B7BB9059B1A78149BFB
S2140098889A42CED0059B38461B78DAF800200BF0B3
S2140098986FFB0028C5D00646CAE7384607910BF086
S2140098A83BFC0799EEE7264BB04619F803300693BB
