S02100006275696C642F64656275672F6F742D6E63702D6674642D6370632E7333373F
S21400400008180020F9B70300194206001D420600F2
S214004010E9A800002142060029420600C1900300DC
S214004020C1900300C1900300C1900300C19003003B
S2140040302D4206000C290700C1900300C190030022
S214004040C1900300C1900300C1900300BDDD0300D2
S214004050C1900300C1900300C1900300C19003000B
S214004060C1900300C190030055EA0000C190030010
S214004070B9EA0300C1900300C1900300C190030099
S214004080C1900300C1900300C1900300C1900300DB
S214004090C190030059910300C1900300C190030032
S2140040A0C19003003991030019910300C1900300E9
S2140040B0C1900300C1900300C1900300E9B206005E
S2140040C0A9D30600A5D3060031AA0600BFD3060072
S2140040D0ADD30600A9B20600B1D306009997060034
S2140040E029B30600C1900300C1900300C1900300ED
S2140040F0C1900300C1900300C1900300C19003006B
S214004100C1900300C1900300C1900300C19003005A
S214004110C1900300C1900300C1900300C19003004A
S214004120C1900300C1900300C1900300C19003003A
S208004130C190030032
S214004140F0B5114A114C124E00F00105E3695F0705
S21400415013D40DB9334213D103EA00078F4207D1B7
S2140041600B4A1A40002A0CBF00206FF00100F0BD79
S214004170013AEBD16FF00200F9E74FF0FF30F6E7B7
S2140041806FF00100F3E700BF809698000000035030
S2140041900200010000000000000000000000000017
S2140041A003468288C088114481429DBF1868998062
S2140041B080180020704770B505680C4625B9BDE824
S2140041C070404B68084818478B6898476A680146ED
S2140041D0831A002BB8BF121A2368A8BF0022BDE8B6
S2140041E070400148184700BFA81B002038B50C4691
S2140041F01146A2680346944206D00568AC420BD12D
S2140042000260FFF7D8FFA46038BD94420DD0114677
S2140042109268002AF9D1F6E72A460021F9E78B686A
S214004220002BF0D09B688B60EDE70029F7D1002DBE
S214004230E9D0AA681A60E6E72DE9F04193680546DA
S2140042400C46164698473246074621462846FFF74C
S214004250CDFF2868002203466BB16168D3F804E0FE
S214004260A1EB070CAEEB070898EA0C0F13D4A1EBF2
S2140042700E01002907DA4AB9A0602C6031462846AC
S214004280BDE8F04197E71A469B68E5E79368A360A8
S2140042909460BDE8F081BCF1000FEBE770B50668EE
S2140042A004460D467EB18B6898477368C01A00288E
S2140042B009DB20462A463146FFF798FF304633682A
S2140042C0BDE87040184729462046BDE8704072E7B2
S2140042D000F5C04393F8103713B102490830DDE704
S2140042E0704700BF8C17070000F5C04393F81037DF
S2140042F013B102490C30D1E7704700BF981707008A
S214004300012300F00700834013F0220F09D113F0B9
S214004310880F08D113F0440F14BF01200020C000FE
S21400432070470420704710207047024690F84030CF
S21400433030B5C4189442154606D1402B08D05A1CF6
S21400434080F84020C15403E02D7801328D42F1D12F
S21400435030BD4200400800F0553002F0AA32024359
S2140043609300920802F0333203F0CC331343180163
S2140043701B0903F00F3300F0F030184300BA704703
S21400438038B5044608464D7894F8FE20A91C031B51
S21400439051FA83F3D21A014467F0B5FF94F8FE3061
S2140043A0023B5B1B84F8FE3038BD70B504460E46F3
S2140043B0E588134682880068AA4234BFA91A0021FD
S2140043C01044324660F0A2FB002800DAFEE7A3881D
S2140043D0E288184480B2904228BF2368A08022BF9B
S2140043E09B18002203F8012C204670BD70B50646C7
S2140043F00D460024AC4201D3012070BD305D01346F
S214004400030605D460F072FB0028F3D00020F4E722
S21400441010F04003FAD0810612D5C20612D5030763
S214004420F4D4032307E0AC42F0D0325D013402F04E
S214004430C002802AEAD1013BDBB2FF2BF3D1D9E7D9
S2140044400123F8E70223F6E708B5084691B211F013
S2140044502FFA002008BD5DF094BB55F087BA08B56A
S2140044601A4B93F89121012A03D0062A05D01AB3D5
S214004470FEE7BDE8084055F05FBA002093F8101438
S21400448083F89101CA070CD5C1F3C302013202F0CA
S2140044900F0262F3C601042A83F8101405D85DF0F3
S2140044A070FBBDE8084055F061BA93F8102460F33D
S2140044B0C60283F81024F4E793F89021520703D538
S2140044C0B3F89231DB05ECD408BD00BFA83B002052
S2140044D010B503780446002B14BF0520032000F512
S2140044E0003011F0EFF92378BDE81040002B14BF20
S2140044F00620042000F5003011F0E4B98378082B7C
S21400450009D190F86E00C30903D000F07F0059F07F
S21400451047B859F017B8704708B504304DF06AFA36
S21400452000B1603008BD10B5D0F8A43004460BB119
S214004530002010BD04304DF05DFA0028F8D0C4F815
S214004540A4006030F5E710B590F8B53000F1B5047A
S2140045501BB92146024852F0F9FF204610BD00BFA5
S214004560A417070013B590F861300246032B0C46DB
S21400457009D1002300930968783218F003FE00B9C9
S214004580206002B010BD0D20FBE7C06890F86130D7
S214004590032B03D1052160301AF0BDBF70470148D8
S2140045A018F036BB807800204FF092B92DE9F84F0E
S2140045B00746884691469A464FF0000B0A9D0BEB3D
S2140045C00904661006FB0A8638463146A8470028C6
S2140045D0C4F34F0407D0D2BFA14601341FFA84FBB0
S2140045E0CB45ECD300263046BDE8F88F0023F0B567
S2140045F0441E184601392AB91BB1024492B29042B1
S21400460011D1F0BD14F8017F11F8016F082A154684
S21400461028BF0825B74287EA0603EDD12844521B77
S21400462080B292B2E7E71906EBD45B000130DBB24A
S21400463080B2E4E770B583880446C0889E18864238
S214004640154608D82068184467F0D8FE0020A388CE
S2140046501D44A58070BD0320FCE707B549BAADF838
S214004660061002220DF10601FFF7E4FF03B05DF825
S21400467004FB0122DEE738B50446A38808469342C9
S21400468015460AD3216867F0B9FE0020A388226881
S2140046905B1B2A442260A38038BD0620FCE701226B
S2140046A0E9E710B502220C46FFF7E5FF10B92388AC
S2140046B05BBA238010BD38B5838804468B420D460E
S2140046C005D0006806F032FC1DB92560A5800020E4
S2140046D038BD0121284606F02EFD08B12060F5E71A
S2140046E00320F5E710B50446006806F01FFC00231B
S2140046F0236010BD2DE9F04104460D4621B9FFF7B1
S214004700F1FF0020BDE8F081D0F80080084667F091
S21400471009FF0646471CB8F1000F04D0404667F074
S21400472001FFB04209D03946012006F004FD0646D6
S21400473048B1206806F0FAFB26603A46294620680B
S21400474067F05CFEDDE70320DCE74368036003B147
S214004750DB69436070472DE9F041C389044601EBED
S21400476003081FFA88F843450D4602D90320BDE822
S214004770F08106464C27B84533680CD800223260D4
S214004780114A02F58051A3B9A3896581AB4200D9CD
S214004790A5810020EBE71BB17C373668BFB2EAE79D
S2140047A06079C0F341005BF011FC30600028F3D163
S2140047B0DCE7D66D18681E60D365B1F86036013B3D
S2140047C0A1F860360346DEE7A81B002070B500F1AE
S2140047D0350525F001052B78064623F00F0302F079
S2140047E00F0003432846144600F8043B67F006FE15
S2140047F02B8A3046E11889B22982BDE87040AAE7C4
S214004800838942891944914200DDFEE789B29142CC
S214004810818100D9FEE7704710B4446A34B10022A3
S214004820234642625DF8044B826A18475DF8044BE3
S214004830704710B504460221FFF7EEFF236A9C423C
S2140048400FD1084A02F580512346D06D24681860BF
S214004850D365B1F86036013BA1F86036002CF3D181
S21400486010BDFEE7A81B002043898B4200D2FEE75E
S2140048705B1A43818389C2898B4294BF00235B1AEB
S2140048800A4488BF9BB2C2818381704743898B42AA
S21400489094BFDB1A5B1A99B25DE770B54489A142F2
S2140048A02FD215880D44AEB2B14201D8A54201DB25
S2140048B0641A1480C4899860214489B24B2910D8A0
S2140048C034300844C1F14C0189B2998018601088D0
S2140048D0814228BF0146998011889B88CB1A138095
S2140048E070BD4C39986889B20068986000B9FEE7D8
S2140048F07B2904D804300844C1F17C01E4E77C3904
S214004900F0E70021E7E770B5154686B0ADF806304B
S2140049100DF1060203ABFFF7C0FF2C46BDF8106092
S2140049201EB9601B80B206B070BD039932462046A1
S21400493067F064FD03A90DF10600344458F028FC26
S214004940ECE738B54589CC18AC4203DCFFF7DBFF53
S214004950002038BD0620FCE710B44C889C4203D3E8
S21400496009885DF8044BECE706205DF8044B7047B9
S2140049702DE9F04786B017461C46ADF806300DF117
S214004980060203ABDDF83880FFF787FFBDF810504E
S2140049907DB1039EB8F1000F11D0B94606EB050AAB
S2140049A0B24513D019F8011B16F8010BC0470028B2
S2140049B0F6D1B4FA84F0400906B0BDE8F0872A467E
S2140049C03946304668F014FD0028F2D12F4403A97A
S2140049D0651B0DF10600ACB258F0DAFBD6E770B5F1
S2140049E086B0ADF806300B4414469AB2914200D910
S2140049F0FEE74289934200DDFEE703AB0DF10602B7
S214004A00FFF74BFFBDF810500DB906B070BD21463C
S214004A102A46039867F077FC03A90DF106002C449C
S214004A2058F0B6FBEEE72DE9F041B0F80A800F46E5
S214004A3002EB080399B24145054616460CD3FFF72C
S214004A408AFE044628B933463A4641462846FFF7CA
S214004A50C6FF2046BDE8F0810324FAE70122E2E71C
S214004A60F8B505460E461746162100200A4A5BF0A2
S214004A700DFB044670B13A463146FFF7D4FF28B91D
S214004A802146284605F1780218F088FD2046BDE844
S214004A90F840CEE6F8BD00BF4017070003781BB10C
S214004AA0012B03D0002070474068BCE70430C1E506
S214004AB070B58CB0054602A80C4617F066FF4FF29C
S214004AC0BF03ADF82A306B789B0726D42B78002BD3
S214004AD014BF1C200D2053F0C9F90646F8B1214634
S214004AE094F8FE20FFF79FFF044690B902A82EF028
S214004AF047FA31460B4B0C48009502AA18F042FBC9
S214004B00044630B96B7843F002036B7020460CB055
S214004B1070BD3046FFF78DFEF8E71824F6E703244D
S214004B20F4E700BF2B940000443400202DE9F04148
S214004B3014469A180E4691B286B08C420546ADF8D9
S214004B40063029D87189914228DBB0F80A804344A0
S214004B5099B2414524D3FFF7FEFD074648B92146E2
S214004B60304603AB0DF10602FFF797FEBDF8104086
S214004B701CB9384606B0BDE8F081234641462846B3
S214004B80039AFFF72CFF444403A90DF106001FFA11
S214004B9084F858F0FDFAE9E70727EAE70627E8E78A
S214004BA00327E6E7F8B504460E46154600F1340737
S214004BB0E3899D420BD85B1B6289E381A3892A4463
S214004BC02B4492B29BB29A42628117D2FEE760797A
S214004BD0C0F341005BF0FAF9D0B123680360E389C3
S214004BE020604B2B06D83430C3F14C02F918184419
S214004BF067F004FCE3897C33E381D9E7A3812EB117
S214004C002B46324600212046FFF7E9FE0020F8BD7D
S214004C100320FCE7F0B50646B2420C46104619469D
S214004C2089B001D1A34215D36B460EAAFFF735FE15
S214004C30BDF804500DB909B0F0BD214630462B46EC
S214004C40009AFFF7CCFE2C4469460EA8A4B258F092
S214004C509FFAEDE7BDF838502C441D44A4B2ADB21F
S214004C60BDF83820002AE6D0202A174628BF20277D
S214004C70ED1BD21BADB2E41B3B462946ADF83820EF
S214004C8030466A46A4B2FFF73EFE3B466A462146D9
S214004C903046FFF7A4FEE3E773B5054603796E8951
S214004CA040798E42C0F3410228BF0E46C3F340034C
S214004CB08DF80520E98901AA40098DF804305BF0DB
S214004CC0E5F90446002832D0334600222946FFF78D
S214004CD02DFF48BBAB896289B34228BF33469A4250
S214004CE000D2FEE7A381AA79A37962F30303A37136
S214004CF02B792279DB0963F3C71222716B7962790B
S214004D00C3F3C10363F3C4026271AB69A3612B8A68
S214004D1023826B8A63822B7A2372AB8DA385EB8DFD
S214004D20E385204602B070BD2046FFF782FD0024D2
S214004D30F7E738B504460D460B882C3020F81A3CA9
S214004D408B7800F8243C91F9031021F03CF829797F
S214004D5004F12E0021F0F5F86A79237962F3410315
S214004D6023716B796279C3F3400363F300026271C7
S214004D7038BD0368994204BFCB6903604368994213
S214004D8004BF0B6A43600B6A0BB1CA69DA61CB6970
S214004D900BB10A6A1A6200220B79C1E9072162F395
S214004DA082030B71704710B5FFF7E3FFBDE81040B4
S214004DB008463EE510B50446216801B910BD2046F8
S214004DC0FFF7F1FFF8E70023C1E90033026802B9F4
S214004DD070470B8801330B800123106840B9488860
S214004DE003444B8050894B6803444B60D269EEE71E
S214004DF001330068DBB2F1E70B7910B55B0700D42E
S214004E00FEE74B79C3F3410300EB83025468A142EB
S214004E1009D10C6A546034B16479C4F341049C42ED
S214004E201CBF002353600368994204BFCB6903602C
S214004E30CB690BB10A6A1A620B6A0BB1CA69DA61EE
S214004E4000220B79C1E9072162F382030B7110BDC2
S214004E504A7970B5C2F3410214460B79061D43F039
S214004E6004030B7156F824301BB90134E5B2042D47
S214004E70F8D10B624BB90368CB610160CB6903B113
S214004E80196200EB8200416070BDDC69CC61D961BB
S214004E90F4E78B894989038099422CBFC3EB010252
S214004EA0C3EB0302DB4392B29BB2934228BF134686
S214004EB04380704743880288994228BF194612FAF1
S214004EC081F25B1A028043807047084A138803B950
S214004ED0FEE748F24E305368A3FB003010EB530059
S214004EE044BF20F00040013050607047989B00207F
S214004EF0814210B5044600D8FEE7FFF7E6FF091B1F
S214004F00B0FBF1F303FB1100204410BD10B50446BE
S214004F10FFF7DBFF091BC0B290FBF1F301FB1300A8
S214004F202044C0B210BD38B50D46814288BF85B258
S214004F306900044601310020FFF7DAFF2044401BD9
S214004F4038BD00B1EFE77047112313B50F220021DB
S214004F500446ADF8063067F032F80223E373002308
S214004F6022462374618A0DF10603052056F0C8FF19
S214004F70003818BF0120207502B010BD012A034674
S214004F8030B5104601F1FF3118D111F8012F1C463B
S214004F9013F8010BCAB1A0F14104192C98BF2030B8
S214004FA0A2F1410498BFC0B2192C9CBF2032D2B2E5
S214004FB08242EAD000200DE0AA420BD111F8012F60
S214004FC01C4613F8015B002AF6D12378002B14BF89
S214004FD00120022030BD10B540B10023441E98B217
S214004FE0814203D90133E25C002AF8D110BD08B52E
S214004FF00022FFF7C3FF831E5842584108BDA0F1A8
S2140050004103052B04D83738C0B20870002070471B
S214005010A0F16103052B01D85738F5E73038C0B248
S2140050200928F2D9072070470EB417B5044605AA1A
S21400503052F8041B0192FFF7B8F9204603B0BDE80A
S214005040104003B070472DE9F04398464FF416031E
S214005050ABB0039300230646184C8DF81030631847
S2140050600D4617460DF1100993F83C20144902A886
S214005070CDF80890FFF7D8FF0E213046FFF7ABFFBC
S2140050804234044433460A4600940E490E4C02A8A5
S214005090FFF7CAFF4246394602A8FFF786F92146BF
S2140050A00A4A02A8FFF7C0FF4B46224610212846B0
S2140050B058F0F7FC2BB0BDE8F08300BF8C17070054
S2140050C050170700561707001CE80600242F070095
S2140050D00EB403B503AB53F8042B01210193FFF77D
S2140050E0B2FF02B05DF804EB03B0704710B504469B
S2140050F067F018FA01462046BDE81040FFF776B97B
S214005100436853B9054B5A6812B9586040607047F7
S214005110526842605A68506058607047A81B00206A
S21400512010B5036F04461B785B0709D500F51870A9
S21400513016F09CFB04F51A70FFF7E2FF002010BD86
S2140051400D20FCE738B58468D4F86052B5B129461E
S21400515004F51870FFF70DFED4F860321BB104F5A5
S2140051601A70FFF7CDFF294604F160001AF003FA23
S21400517020B12846BDE83840FFF75BBB38BD036862
S2140051805A1A11EA220138BF194643685A1A13EA16
S214005190220338BF0B46436070474160024A01460F
S2140051A00248FFF749B800BF8C170700B01B002065
S2140051B0002A00DAFEE71144EFE738B50D4604464C
S2140051C016F057FD2A4601462046BDE83840EFE770
S2140051D0064B07485A69196A914208BF9A6901F155
S2140051E0804104BF01329A61D7E700BFA81B0020A8
S2140051F0C41B00208368984203D04368CB1A002B58
S21400520000DACAE77047D1E9003103F10043013BF9
S2140052108B4200D0EEE770470146024A0248FEF78E
S214005220E5BF00BF8C170700B01B0020D1E9003196
S21400523003F10043013B8B4200D0AEE7ECE770B5CC
S21400524004461D4ED4F878526DBB04F51F70FFF768
S214005250E3FF1A4804F523711FF095FC08B9C4F85B
S2140052608C5204F5267056F091FC204617F077FF16
S21400527004F51870FFF79EFDD4F86C6296B1104ADC
S21400528004F51A70536819465B689842FBD10023F0
S2140052904E60C4F86C325368984203D1814218BFFE
S2140052A00D46556070BD6B6829463046C4F87832A6
S2140052B05DF00DFDC6E700BF817D00004432002092
S2140052C0A81B002038B50C46A1F160052846FFF75C
S2140052D0B6FF20461AF097F82846BDE8384005F095
S2140052E025BE70B50C46A1F1600605463046FFF7B0
S2140052F0A6FF20461AF087F8304605F017FE002372
S214005300C5F8A43070BD08B5064B93F8E134042BFD
S21400531006D10548FFF780FFBDE8084052F000BE02
S21400532008BD00BFA83B0020F87B00204160024A71
S21400533001460248FEF780BF98170700B41B0020FE
S21400534010B5274C94F8C631033B042B47D8DFE84A
S21400535003F0030718140300BDE8104058F0BCBA69
S214005360D4F8DC31987958F01BF9D4F8DC010E2219
S214005370BDE81040002153F0FBBDBDE8104058F0DA
S214005380DDBAB4F8C4319B0700D5FEE75DF0B2FE87
S2140053907F2807D094F9D7317F2B01D0984201DDC2
S2140053A084F8D70116F065FCD4F8D831C01A002866
S2140053B006DAD4F828120B488031BDE81040B5E76D
S2140053C094F8C63194F9D701022B1CBF022384F847
S2140053D0C63153F087F9BDE8104054F053BB10BDFA
S2140053E0A83B0020CC3D00200146024A0248FEF7BA
S2140053F0FDBE00BF98170700B41B00204378FF2BA4
S21400540004D1408840BA80B204307047981C704778
S21400541008B50246FFF7F2FF104408BD38B505464A
S2140054200C46FFF7EBFF294682B22046BDE838401F
S214005430FFF7F9BA38B50446154601448C4202D344
S2140054400024204638BDA31C9942F9D36378FF2B6D
S21400545002D1231D9942F3D32046FFF7D9FF884295
S214005460EED82378AB42ECD00446E7E70423FFF7F8
S21400547073BAF7B50E461746044602236A463946FF
S2140054803046FFF769FA054680B99DF8003023706C
S2140054909DF80130FF2B0CD00221607002333A6871
S2140054A0C4F80220A288934212D90625284603B0E3
S2140054B0F0BD3946304601AAFFF7D8FFD8B9012318
S2140054C06370BDF8063004215BBA9BB20433E6E78E
S2140054D09BB2934228BF13466288A3801344728906
S2140054E09BB29A42E1D3D4F80230A01DC4F806302D
S2140054F0FFF7E0FCDAE70546D8E773B5044601A8EF
S2140055000D461646FFF7C5FC2946204601AAFFF7BA
S214005510B0FF38B92378B34205D0A18801A8FFF7B9
S214005520C9FCF1E7172002B070BD2DE9FF41054622
S21400553016460A46014601A81F46FFF7DEFF044648
S21400554070B9BDF80820BDF80680B2423B4628BFB9
S2140055503246414628465DF088FB0A9BA3F8008049
S214005560204604B0BDE8F0811FB514460A46014641
S21400557001A8FFF7C2FF10B9DDF80A30236004B0B7
S21400558010BD73B5154601AA04461E46FFF7ECFF8C
S21400559028B933462A46204601A9FFF7DDF902B0AE
S2140055A070BDF0B51746428985B0ADF800101E46AE
S2140055B08A422CBFC1EB0203C1EB0103C9439BB275
S2140055C089B2994228BF19460546ADF802106A46C8
S2140055D0014601A8FFF74DFF044660B9BDF80C2050
S2140055E03346974228BF174628463A46BDF80A1063
S2140055F05DF03BFBF455204605B0F0BDF0B5174610
S214005600428985B0ADF800101E468A422CBFC1EB19
S2140056100203C1EB0103C9439BB289B2994228BF7A
S21400562019460546ADF802106A46014601A8FFF77E
S21400563020FF044660B9BDF80C2096420BD8B24253
S2140056403B4628BF32462846BDF80A105DF00DFBE3
S214005650204605B0F0BD0624FAE70123CEE730B5B4
S21400566085B0044615460A46014601A8FFF745FFE1
S21400567038B92A462046BDF8061005B0BDE83040C9
S214005680EBE705B030BD10B502231446FFF7B6FFB2
S21400569010B923885BBA238010BD30B585B00446A8
S2140056A015460A46014601A8FFF727FF38B92A46DD
S2140056B02046BDF8061005B0BDE83040E3E705B06B
S2140056C030BD38B504231546FFF798FF044618B9D1
S2140056D0286816F0D9FB2860204638BD30B585B05E
S2140056E0044615460A46014601A8FFF706FF38B9E4
S2140056F02A462046BDF8061005B0BDE83040E0E773
S21400570005B030BD0422FFF78EB90222FFF78BB931
S214005710FF2B73B5054616461C4612D18DF805308C
S2140057204FF47F438DF8041001A9ADF80630FFF75B
S214005730E9FF20B9224631462846FFF774F902B041
S21400574070BD8DF8001069468DF80130FFF7DDFF5B
S2140057500028F4D1002CF2D0ECE770B505460E46D2
S2140057601C46114618460BB1FFF735FC224631465B
S214005770C3B22846BDE87040CAE707B501238DF8D6
S21400578007200DF10702FFF7C3FF03B05DF804FB27
S21400579007B552BAADF8062002230DF10602FFF750
S2140057A0B7FF03B05DF804FB37B5044610460D4658
S2140057B016F06AFB04230190294620460DEB0302EF
S2140057C0FFF7A6FF03B030BDF0B58FB004A80D46B6
S2140057D0164617F0DAF84FF2BF0309212C480DF1F0
S2140057E00602ADF8323026F0EAF860B91D205DF00A
S2140057F0FAFA044638B11221728CFFF7C9FF20B1BD
S2140058002046FFF716F80FB0F0BD082313212046F8
S21400581006F11802FFF77CFF0028F1D11D4E142177
S2140058202046B6F8E424FFF7B3FF0028E8D129465F
S21400583003A8FFF72EFB4FF61173BDF80E70ADF8F8
S214005840083020467BBA02A9ADF80A30FFF75AFFA7
S2140058500028D5D13B4629462046BDF80C205DF0F1
S21400586002FA0028CCD1BDF8065004A82DF082FB21
S2140058702A4606F5DD6108A81AF029FF214604AA83
S214005880A6F2647017F0ACFD0028BCD0B8E700BFE5
S214005890C8730020A83B002010B590F824300446BA
S2140058A043B1012B01D1436983612046A169BDE85C
S2140058B0104082E44169B1EB510F4FEA510001D923
S2140058C0FFF716FB0023A061E38384F82530ECE79E
S2140058D090F8242042B98268904205D0C268416997
S2140058E0914201D04261D7E7704710B590F8243056
S2140058F004467BB1012B08D10169C0680131FFF76E
S214005900F7FA60612046FFF7C7FF2046236ABDE826
S2140059101040184790F825306BB1012BF5D142693D
S21400592022B10369991A8A4298BF530063612046E0
S214005930BDE81040B0E7012380F82530D0E9051314
S214005940C91AFFF73AFCE28BA38B9A42DDD310BD4F
S21400595010B5044616F08DF9D4E90031E268C01A95
S2140059609A4202D10028A8BF013110BD2DE9F341AB
S2140059701E461D4B044683424FF000038B411546DE
S2140059800AD217A3D3E9002366F028F9174914466C
S21400599002462846FFF748FB154B4EF66021B4FB3F
S2140059A0F3F203FB1244B4FBF1F34FF47A7801FBF5
S2140059B01344B4FBF8F728460E490097FFF734FB6C
S2140059C046B1284608FB17420B4902B0BDE8F04135
S2140059D0FFF72ABB02B0BDE8F08100BFAFF300803E
S2140059E0005C260500000000FF5B26055F17070029
S2140059F080EE3600651707007417070013B50068B9
S214005A0050B14AB141B100230068019301AB58F090
S214005A1073FB0FF0E2FE00B1FEE702B010BD2DE909
S214005A20F843436C15461344026C044693420E46F4
S214005A301AD84FF000084F1900F11009B74214D1D8
S214005A40636C1D44236C65649D420BD1B4F85030E2
S214005A502BB104F1100211462046FFF7CFFF0023BA
S214005A60A4F85030BDE8F883FEE7B4F85030102BA9
S214005A7006D14A4649462046FFF7C0FFA4F85080A4
S214005A80B4F850305A1CA4F85020234416F8010BE2
S214005A901A7C50401874D1E72DE9F04F1D4685B0AA
S214005AA09DF8383091460293C36C826C2B44934227
S214005AB00446884629D86FF0200B0F46CA466B1856
S214005AC0019300F12003ABEB000B0393019B9F4275
S214005AD01CD1E36C1D44A36CE5649D426CD3B4F802
S214005AE050302BB104F1100211462046FFF786FF16
S214005AF0002194F8542002F121002044C2F10F0244
S214005B0005B0BDE8F04F66F05ABAFEE7B4F852208A
S214005B10102A16D104F13000024694F854600BEBBC
S214005B2000018E4206DA10F8011D0131C9B201707B
S214005B300029F4D020460399FFF760FF0022A4F85E
S214005B405220029B43BB3E78B9F1000F0AD0B4F84E
S214005B505220511CA4F85210224492F83020724071
S214005B608AF80020B4F85020102A08D104F1100258
S214005B7011462046FFF742FF0022A4F85020B4F852
S214005B8050200137511CA4F850102244117C0AF111
S214005B90010A4E40167499E7B4F852209AF800604D
S214005BA0511CA4F85210224492F830205640B8F106
S214005BB0000FD7D03E70D5E705B0BDE8F08F38B5FA
S214005BC0D0E912329A4204460D4600D0FEE700F1B4
S214005BD0300200F12001FFF711FF002304F10F024D
S214005BE094F855108B4200DB38BD12F8011F92F86E
S214005BF020004140E9540133F2E710F5645F00F0FD
S214005C00B8805EDC10F59D4F00F0B5802CDC10F5FA
S214005C10D14F1CD01DDC10F5D24F00F0AE804EDC0C
S214005C2010F5FE4F13D010F5E24F48D1072070470D
S214005C30012300F14002934041F21902134240F062
S214005C40988013F4A06FF1D110F13E0F37D10320E6
S214005C50704710F5D04F00F0908030DB10F59F4F66
S214005C60E4D010F59E4FF1E710F5725FDED013DC3E
S214005C7010F57C5FDAD002DC10F57E5FE6E710F503
S214005C80765FD3D005DC10F57A5FCFD010F5785F5D
S214005C90CBE710F5745FC8E710F5685FC6D00BDC7D
S214005CA010F56C5FC2D004DC20F0800313F5705F43
S214005CB0BBE710F56A5FB8E710F5665F59D0C00F0E
S214005CC0704710F5165FB1D01CDC10F5405F56D05B
S214005CD0F5DB10F5205FA9D007DC10F5245FA5D012
S214005CE020F4807313F5265FB0E710F51C5F40D0F4
S214005CF002DC10F51E5F98E710F51A5F96D010F5D7
S214005D00185F92E710F1330F22DA10F1400F8FDAA6
S214005D1010F5065F8AD012DC10F50E5F86D020F0F4
S214005D20800305DC13F5145F80D010F5105F7CE768
S214005D3013F50C5F3FF47AAF10F5085F75E710F5C2
S214005D40025F16D010F58C5F81D010F5045F6CE70B
S214005D5000F11E021A2AB2D80123934013F0A06F56
S214005D607FF464AF074A13427FF471AF13F0050F58
S214005D70A5D0082070471B207047052070470120DB
S214005D80704700BF0040400008B5006828B10449CD
S214005D903BF0BCF90FF021FD00B1FEE708BD00BFE7
S214005DA00900000208B5006828B121B13BF0DCF913
S214005DB00FF013FD00B1FEE708BD10B586B004462F
S214005DC0ADF80630084603AB11460DF10602FEF7A5
S214005DD064FDBDF810200AB906B010BD2046039930
S214005DE0FFF7E0FF03A90DF1060057F0D1F9F0E741
S214005DF0002307B50068019330B1202201AB3BF0C9
S214005E00F9F90FF0EAFC00B1FEE703B05DF804FB19
S214005E1070B50C46054646220021A01C66F0CFF859
S214005E202C2305F580522380B2F8603605F50C5613
S214005E30C3F12C036380B2F8623604F10801A38034
S214005E4006F11400FEF7BFFF04F1100106F128006A
S214005E50FEF7B9FF05F5B35004F118011430FEF74C
S214005E60B2FF05F5B95004F120011430FEF7ABFF80
S214005E7005F5155004F128010C30FEF7A4FF05F5D2
S214005E80C45004F130011C3017F0E7F804F1380173
S214005E9005F5BB40BDE8704017F0DFB81F299DBF71
S214005EA00068C84000F001000020704710B50B786D
S214005EB00446FF2B04BF0A230B700B780A460133F7
S214005EC0D9B21A29117001D9172010BD2046FFF744
S214005ED0E5FF10B90131C9B2F3E70020F5E7FF236B
S214005EE037B5054600248DF8073028460DF1070122
S214005EF0FFF7DCFF234601340028F6D0D8B203B003
S214005F0030BDFF2337B58DF80730036805467BB1F3
S214005F10FFF7E5FF014600B9FEE70020FEF7F6FFB3
S214005F200DF1070104462846FFF7C0FF00B91CB96B
S214005F309DF8070003B030BD28460DF10701013C6F
S214005F40FFF7B4FFE4B2F1E7837F024613F00F00D9
S214005F5004D0108C022894BF00200120704738B56A
S214005F6001290446456832D155F0D2FD237E9A07B2
S214005F7002D5642828BF64205B0715D5A022214BD4
S214005F80B0F57A7FB3F8B23128BF4FF47A70534336
S214005F9003F5FA73B3F57A7F06D34FF47A72B3FB40
S214005FA0F2F3984228BF1846637E0F2B02D9BC280E
S214005FB028BFBC20A36833F07C4204D0C3F3190387
S214005FC0984228BF1846002808BF0A20606015F0CF
S214005FD050FE6369014604F10C0098420DD06268D9
S214005FE0AA420DD0531A24680A3BE3424CBF0A2249
S214005FF02146BDE83840FFF7DBB862682160F8E765
S21400600038BD00BFA83B002008B531B1092914D916
S2140060106FF07C43994228BF19468368C3F3190280
S2140060208A4208D061F319038360037EDB0702D53A
S2140060300121FFF794FF002008BD0720FCE710B5FC
S214006040038904468B4205D1BDE810404FF400405A
S21400605056F03CB801814FF4004055F0F8FF208917
S214006060BDE8104055F010BD10B502780446510743
S214006070437817D4120701D5F3B110BD002BFCD11D
S214006080B0F8A030FBB190F83630082B1CBF0823C0
S21400609080F83630838E1906EFD4BDE810403430D1
S2140060A0FEF72CBA002BE8D14388D80504D5E16961
S2140060B004F1D000FFF771F8E17A04F13400BDE88E
S2140060C010405CF02BBD90F84630DA070AD4838E79
S2140060D0DB0507D594F83630012BCED0012384F8A3
S2140060E03630CAE757F02EFA0028C6D1F2E7012369
S2140060F042888B4013434380437813B9C830FEF779
S214006100FFBF704770B50578ED071DD54578012DA2
S2140061101CD0468816F0020F18D1022D16D0C6F3F2
S2140061208005760712D48362049B4282C362FF23F3
S2140061300374C368002908BF19460B404361022157
S214006140FFF7D5FF284670BD0D20FCE70520FAE7CF
S21400615070B50578ED0722D54578012D21D0468803
S21400616016F0020F1DD1022D1BD0C6F38005760750
S21400617017D48362049B002AC3624FF0FF030374A4
S214006180C36808BF4FF49672002908BF19460B4033
S214006190428243610121FFF7AAFF284670BD0D2009
S2140061A0FCE70520FAE700230380704738B50D4664
S2140061B0046820465DF018F835B140F0100080B253
S2140061C02070000A607038BD20F01000F7E700F479
S2140061D04052B2F5005F034620D148F2400220F458
S2140061E04E5020F03F0090421ED00CD8B0F5446FC1
S2140061F01AD005D8C8B1B0F5046018BF01207047A2
S214006200B0F50040F9E703F44C43B3F5404F0BD02C
S2140062104CF64043C01A18BF0120704710F4406F78
S21400622014BF0120002070470020704738B505686D
S2140062300C4628465CF0D8FFFFF7C9FF40B1284659
S2140062405CF0D4FFFF2803D02B5A0020238038BDF3
S2140062500620FCE710B5046820465CF0C5FFC305C1
S21400626000D5FEE7A07810BD38B505680C46284670
S2140062705CF0BAFFC30500D5FEE7AC7038BD00F48D
S2140062804053B3F5005F04D100F44C43B3F54C4FD4
S21400629007D0B0F5804F04D380F04000C0F38010E4
S2140062A070470020704710B58388032B12D900680A
S2140062B05CF09AFF80F480720446C2F30021FFF778
S2140062C086FF48B98A1CC4F38123022B06D0032B11
S2140062D017D02BB1FF2212E00A1DF4E70232D2B229
S2140062E02046FFF7CCFF08B10232D2B2C4F38134A5
S2140062F0022C08D0032C09D0002C18BFFF22104611
S21400630010BD0832EBE70232D2B2F8E70832FBE7FC
S214006310F8B507680E4638465CF066FF0546FFF798
S214006320AEFFD0B138465CF061FF04462846FFF762
S2140063304EFF08B10234E4B2C5F38125022D07D022
S214006340032D08D0FF2C08D000203B5B3380F8BD1F
S2140063500234E4B2F6E70834FBE70620F7E710B5A8
S21400636083880446022B07D900685CF058FF18B1F2
S2140063702046BDE8104096E7FF2010BD38B505461C
S2140063800C46FFF7ECFFFF2817BF2B6806201B5CA8
S21400639000201CBF03F00703237038BD38B5054640
S2140063A00C46FFF7DCFFFF2817BF2B6806201B5C98
S2140063B000201CBF03F01803237038BD38B505460F
S2140063C00C46FFF7CCFFFF281FBF431C2A68DBB232
S2140063D0D3581ABF00202360062038BD38B50546BE
S2140063E00C46FFF7BCFFFF2800D1FEE72A68431CD7
S2140063F0D9B2545452FA83F3220A5A70220C240E4D
S2140064009A70DC702B7F43F001032B7738BD00F0C9
S2140064101800102805D0A0F1180358425841C000B3
S21400642070470420704708B54307024608D0FFF7B8
S214006430EEFF12F0180F0CBF05300630C0B208BDD4
S214006440FF20FCE72DE9F04F057B0688B0F80290A8
S21400645087B0031D012D04460F4646EA090B01933B
S21400646030D0022D0CBF0322002294F816A04BEA6F
S214006470823BBAF1010F04F10E0825D0BAF1020FE3
S2140064802FD0BAF1000F21D1A37F94F82120003B32
S21400649018BF0123B9F5805F4BEAC30305D0B9F5F1
S2140064A0005F21D0B9F1000F29D145B1BAF1000F34
S2140064B005D0208B618B884208BF43F04003D60787
S2140064C021D5FEE70222D0E74BF4006B5146E08967
S2140064D05CF030FB0028D7D1022E18BF4BF0200B03
S2140064E0D2E74BF4406BF1E7BAF1000F40F094802E
S2140064F0617F002D40F08880002940F09A80D50703
S21400650048BF43F48073C2F3400243EA42253B6827
S21400651004A804934FF4FE03294605935CF0ADFBF4
S214006520E80503D4012104A8FDF73AFE2846FFF744
S2140065304EFE18B1618B04A85CF09FFB04A8414690
S2140065405CF0A6FB2846FFF79AFE18B1218B04A83C
S2140065505CF093FB211D04A85CF09AFBBDF8143098
S214006560BB80A67FA6B1E37F0DF10F011E4304A8F2
S2140065708DF80F60FEF77DF83046FFF754FF411E9A
S21400658089B204A8FDF70CFE3046FDF7B9FE0646B4
S21400659094F8213099070ED5022104A8FDF700FED5
S2140065A00D2304214370017004A8FDF7F9FD3B7F1D
S2140065B043F008033B77AA0523880ED5032B03D0A8
S2140065C094F821305B0714D4022104A8FDF7E8FDF7
S2140065D06FF07F0303703F2343702388032B08D19B
S2140065E094F820300DF10F0104A88DF80F30FEF757
S2140065F040F80236B1B204A8FDF7D2FDBDF814305B
S214006600BB8007B0BDE8F08F00297FF478AF217F0C
S21400661000297FF474AF0CE00DB9617FF8E7022D16
S21400662002D1BAF1020FF8D0208B618B88427FF43A
S21400663066AF43F0400362E770B50546FFF733FEEA
S214006640FF28044611D02E6830465CF0E8FD60B1A5
S214006650A9888C420BDA305DFFF7E5FEFF2808D0EC
S2140066600444E4B2A142B8BFFF24204670BDFF2414
S214006670FBE70446F9E770B506460D46FFF76FFEE2
S214006680FF28044609D03268105CFFF7C0FE22449B
S2140066900244002053792B7070BD0620FCE770B5CD
S2140066A006460D46FFF75BFEFF28044600D1FEE7D0
S2140066B03268105CFFF7ABFE22440244557170BD91
S2140066C010B50446FFF74BFEFF2806D02368185C7B
S2140066D0FDF716FE0230C0B210BD0220FCE770B512
S2140066E00646FFF7A9FFFF2804462CD03568284643
S2140066F05CF07AFD83051BD53046FFF7E1FFB188D5
S214006700A21C93B210FA82F28A4205EB04061CDC45
S2140067102A5D02F07F0213449CB210FA83F399427A
S21400672013DB3288C2F3C7127F2A01D09942E7DC16
S2140067302B7803F00703032B05D128465CF065FD94
S21400674008B90134A4B2E0B270BDFF24FBE738B547
S2140067500546FFF7C4FFFF28044614D028680378D0
S21400676003F00703032B04D15CF04FFD08B101349E
S214006770E4B22846FFF7A4FFAB8804449C42CCBF93
S2140067800620002038BD0620FCE710B50446FFF7BB
S214006790A6FFFF2816BF23680020C01810BD10B53E
S2140067A00446FFF7F2FF2368C01AC0B210BD70B5EA
S2140067B005468688FFF7F3FF04462846FFF780FF66
S2140067C00444301B80B270BD70B506460C46FFF719
S2140067D0E6FF05463046FFF773FF05442C44B480B9
S2140067E070BD10B5044600685CF0FEFC830503D55A
S2140067F02046BDE810401FE7FF2010BD08B557F043
S21400680031F9003818BF012008BD08B557F02AF93D
S21400681000B1023008BD00232DE9F0419EB003937D
S2140068200AAB08930823044600680D46ADF82430EA
S2140068305CF0F5FC002859D020460DF10B01FFF75F
S2140068409DFD002852D1204603A9FFF7B7FD064656
S21400685000284BD10DF110084346286869689DF85A
S2140068600B7003C30398194616F035FEA3688DF81F
S2140068701C70196808A85CF0E7F92046FFF720FFAF
S21400688005462046FFF78BFF07462046FFF78FFF9B
S214006890AB1EDBB20246394608A8CDF8008054F09D
S2140068A089FF2046FFF77BFF25680246294608A891
S2140068B0FFF7B5F82046FFF768FF05462046FFF7C6
S2140068C076FF2A460346294608A80096FFF7E4F80E
S2140068D02046FFF7F5FEA38825681B1AE91808A8C6
S2140068E0FFF76DF9237F43F0100323771EB0BDE852
S2140068F0F08100232DE9F041A2B003930EAB0C9378
S2140069000823044600680D461646ADF834305CF0A1
S21400691086FC30B120460DF10B01FFF72FFD18B1B4
S214006920082022B0BDE8F081204603A9FFF746FD07
S2140069300028F5D104AF3B46286869689DF80B80AF
S21400694003C30398194616F0C6FD31680CA88DF8E7
S2140069501C805CF079F92046FFF7B2FE851E2046C3
S214006960FFF71DFF06462046FFF721FFEDB22B4638
S214006970024631460CA8009754F01CFF2046FFF74D
S2140069800EFF2668024631460CA8FFF748F8204658
S214006990FFF7FBFE06462046FFF709FF01220346E7
S2140069A0314600920CA83246FFF776F808A90CA8E4
S2140069B0FFF705F92046FFF783FEA3882668181A16
S2140069C031182A4608A866F013FD003818BF0120C3
S2140069D0C000A6E70B6803604B684360037883F04B
S2140069E0020303707047082208B566F001FDB0FA8E
S2140069F080F0400908BD10B5044600680EF062FF3E
S214006A004FF00043236010BDF0B5002787B0044662
S214006A1000680E46154605970EF054FF4FF00043EB
S214006A20236010234FF41051CDE90163074A45F463
S214006A304073009705A839F008F90EF0CEFE00B1B5
S214006A40FEE7059B236007B0F0BD00BF004440048E
S214006A5008210EF02DBF01F1080313F8012D8B421B
S214006A6000F8012BF9D17047F8B507680E4638468E
S214006A705CF0BCFB044638465CF0B6FB0546FFF708
S214006A80A6FB04EB4003DBB2FF2B13D0C5F381203B
S214006A90022805D0032807D0002300203372F8BD53
S214006AA0FB5A33800123F8E7F9183046FFF7D3FF87
S214006AB00223F2E70620F2E7F8B507680E463846E6
S214006AC05CF092FB054638465CF090FB0446284690
S214006AD0FFF77DFB08B10234E4B2C5F38123022B35
S214006AE012D0032B13D02846FFF7C9FB08B1023497
S214006AF0E4B2FF2C06D0C5F38135022D09D0032D54
S214006B000DD04DB1062009E00234E4B2EBE70834BC
S214006B10FBE701253B5B338000203572F8BD30462D
S214006B203919FFF798FF0225F6E708B5044BC18030
S214006B300022186865F0EAFF00B1FEE708BD00BF56
S214006B406819002007B50A68C0F80A204A68C0F825
S214006B500E206846FFF77FFF0723094A1DF803103B
S214006B60013B02F8011BF9D2064B00226946186861
S214006B7065F0D2FF00B1FEE703B05DF804FB00BF8E
S214006B80A09B0020681900202DE9F0410446B0F8CB
S214006B906C6010F0A2FBE36F364AC11A94F88000CE
S214006BA000233230A1FB000165F018F8A02794F806
S214006BB081307E4303EB830300EB430000F1C808FB
S214006BC000F5787520467608B54230F8843B28BF35
S214006BD03546B04528BFB04613F08002A16F1FD0DF
S214006BE0B4F86C607E433144491BFEF79FFBA36FED
S214006BF0616F3344A367204B72181A61A3786267EB
S214006C0013F0FD0F33D094F86E00A5F5167508EB5B
S214006C100502491B00F07F00BDE8F0415CF0A2BA17
S214006C2094F86E30DE090BD062F3C71384F86E302A
S214006C30491BFEF77BFB2046BDE8F041FDF75EBC36
S214006C404144B4F86C50FEF771FB94F86E307D4307
S214006C5043F0800384F86E300AF060FAA26F636F28
S214006C602A44A267044A2B4463671361E3E7BDE83E
S214006C70F08100BF40420F00241B0020F8B50446F8
S214006C80B4F86CC090F86E008C45069DB4F8706041
S214006C9000F07F070CD094F86E0062F3060084F8CC
S214006CA06E004FF6FF729142A4F870300CD1FEE7EA
S214006CB0974206D062F306009E4284F86E00F0D13A
S214006CC0F8BD9E42E7D1FBE74FF6FD72934209D826
S214006CD015480246C16022F8023B2B68C0F8023015
S214006CE06B68536094F86E30A4F86C106FF3C7139B
S214006CF084F86E3004F18400FEF776FBB4F86C304E
S214006D004BB110F0EAFA60670AF008FAA06720466E
S214006D10BDE8F84038E723881B06D1D42046BDE8F6
S214006D20F840FDF7EBBB00BF241B002013B590F81E
S214006D302030DB0717D590F8212002B9827A0B4C59
S214006D40343004F5A163009330F8121CB4F82435EF
S214006D50FFF794FF54F0A8FE04F59C6002B0BDE86F
S214006D6010401FF0D3BC02B010BD00BFA83B0020EF
S214006D7010B504460C30FFF791F800B3A27A8A42A9
S214006D8005D14FF4804055F0A1F9002010BD4FF416
S214006D908040A17255F05BF904F5B470FFF703FA72
S214006DA023789B06F1D4A37AE37294F8213013B9C2
S214006DB02046FFF7BBFF2046FFF756F9E5E707201A
S214006DC0E4E71FB590F820300446990703F0010267
S214006DD00ED5418C61B1F2B943F0010380F8203042
S214006DE0FFF7A4FF204604B0BDE81040FFF73CB90B
S214006DF08AB1002294F8203011466FF3000384F81D
S214006E00203002AB009304F134004FF6FE73CDE958
S214006E100222FFF733FF04B010BD0148B4E600BFFE
S214006E206C3D0020F0B590F8B43006460D4685B0AF
S214006E3000F1A40400F1B407ABB9102221461120DA
S214006E4055F0D6F860B12146FEF73FF801F8010B81
S214006E50B942F9D110236A462146112055F0D4F8DC
S214006E60012386F8B4302B46224603CABA4218607D
S214006E705960144603F10803F6D105B0F0BD73B5AA
S214006E8014460D46064611466846FEF702F82146A9
S214006E90BDF80230BDF8002028685BF0E4FE04462A
S214006EA050B92B6801A9286030460193FDF75AFBBC
S214006EB0044601985BF050FE204602B070BD38B51F
S214006EC0044600680D46884202D05BF045FE256009
S214006ED038BD00232DE9F043804687B00E4600F506
S214006EE0267110461546019314F082FC07460028CA
S214006EF045D07389002B42D020205BF074FF0146FA
S214006F0001A8FFF7DCFF019C002C38D0314604A80E
S214006F10FDF7BFFF4FF63073BDF81290ADF808309E
S214006F2009F104035BBAADF80A306B8C20465BBAF5
S214006F30ADF80C302B8C02A95BBAADF80E30FEF71C
S214006F40E1FBE0B9204603A9FEF7DCFBB8B94B46E7
S214006F5031462046BDF810205BF085FE78B9102338
S214006F6031212046EA18FEF7D3FB40B9019005A967
S214006F7040460594FDF7F6FA05985BF0EDFD01989E
S214006F805BF0EAFD384607B0BDE8F0832DE9F34133
S214006F901D46002388461746009306465BF018FFFA
S214006FA001466846FFF78BFF009CD4B1B8F1060F88
S214006FB014BFA02280220121204616F09CFA082D3C
S214006FC000D9FEE72A4639462046FDF7FFFB40B9C2
S214006FD0CDE9000401A93046FDF7C4FA01985BF03C
S214006FE0BBFD009802B0BDE8F0415BF0B5BD2DE9F1
S214006FF0F04798464FF2BF0A00248EB0074604A812
S2140070000E46154615F0C1FCA8F11703012BADF886
S21400701032A0039400D9FEE72B46324602213846BA
S21400702016F089FA06F135090546002849D11421DB
S214007030012004F080F80446002841D080F808803B
S2140070400760304615F090FF29F001010246043132
S214007050607204F10A0065F0D1F9404650F006FF70
S214007060014603A8FFF72BFFDDF80C80B8F1000FF0
S21400707026D0314602A8FDF70CFF31464046BDF843
S2140070800A30BDF808205BF0EEFD0546C8B904A836
S2140070902BF076FF4146154B1548009404AAADF830
S2140070A030A016F06FF8054658B9D7F87832636006
S2140070B0C7F878425BF050FD28460EB0BDE8F08772
S2140070C00325304615F050FF29F0010203462946F5
S2140070D038460432FFF75AFF03985BF03DFD002C5C
S2140070E0EAD0204603F022FFE6E700BF817D0000DD
S2140070F0443400200A461021FEF7B1BA38B50446DB
S21400710000680D46884202D05BF082FE256038BDDE
S2140071102DE9F04FA54C042189B04FF47A70E56C48
S214007120FDF701FF291804F14800FEF736F8636CF6
S214007130D8072DD5062204F5005595F8F43302FB42
S214007140034303F50E53143305F56572934240F07E
S214007150058100264FF0060842F2943995F8F4733C
S214007160BE42C0F0018114F084FDD5F8281306460F
S21400717004A85BF0A7FDDFF850820499002940F0D0
S2140071800181D5F828331BB917B9384655F08EF863
S214007190636C990708D5864D95F8E3349A0700F195
S2140071A01581012055F082F8636C5E0726D54FF0F6
S2140071B00008804FD7F800370493049A002A40F05E
S2140071C00F830125D7F804370493049A002A40F069
S2140071D0128301254FF07809D7F80C370493049EE4
S2140071E0002E40F01583D7F80857002D40F02C836A
S2140071F0B8F1000F02D1022055F058F8636C1D0656
S2140072001ED56C4D95F8AB39D3B1013BDBB285F892
S214007210AB39ABB9072055F049F8A5F5405393F8BC
S214007220E134022B0CD150F07BFD48B195F8AA3919
S214007230052143F00203604885F8AA3923F0A6FE2C
S214007240636C18070AD5002604A804968DF8146007
S2140072501DF0E0FF049D002D40F02183636C99062D
S21400726026D5564D95F8E9307BB114F002FDD5F8D9
S214007270EC3003F5C333A0331B1A002BBEBF95F8C2
S2140072800A3143F0010385F80A3195F81311B5F871
S214007290103195F81221002940F03B83002A40F077
S2140072A06383002B40F06C83D5F810015BF0A1FAE5
S2140072B0636C5A0620D5414EB6F8C83043B1013B40
S2140072C09BB2A6F8C8301BB906F1C40027F078FABE
S2140072D0D6F8C4506DB1013DC6F8C4504DB9022071
S2140072E04AF0D8FD3648294627F05EFB28464FF080
S2140072F001F9334824F03DF8636CDB0540F1558313
S2140073000020034605462F49A1F2A466CA787AB142
S214007310013AD2B2CA7032B1086806EB8302C2F8EC
S214007320A406012001330135232D01F10401EDD11E
S214007330002104EB830404F5B5540734222B04DC47
S21400734014F8042B002A40F02C83002840F02D83EC
S214007350082009B0BDE8F04F54F0A8BF11790632F6
S214007360013902F8021CF1E608FB065393F898333D
S2140073702BB918FB0690204455F05BFFEEE601366D
S214007380F6B2EBE68B69F31AB3F5FA6F0AD34B79CC
S21400739040465B0902BFD5F874330133C5F8743331
S2140073A0FDF701FD04A8FDF7D0F9E6E6A81B0020CE
S2140073B0A83B0020A86B002088400020A87B002067
S2140073C06C7C00204C320020D03E002095F86837B8
S2140073D013B1013B85F8683795F86A373BB1013B36
S2140073E0DBB285F86A3713B99C4823F09AFD9C4EA9
S2140073F096F8607637B1013FFFB286F86076B7FA46
S21400740087F77F0995F8E134042B00F28580DFE8E2
S21400741003F0038304648100FEE796F80C86002FD1
S2140074204CD095F86437434511D96FF0630095F951
S2140074302D151EF098FD09281CD83C2303FB084890
S214007440884E08F53A5808F10C08B04503D186482E
S21400745023F026FD12E0B37F03F00F03072B07D1BE
S2140074606FF0630096F925101EF07DFD092801D8FF
S2140074703C36EAE70221794823F088FDD5F87C6798
S2140074807A4B9E427FF490AEA6F5257023F0E6FD7B
S214007490774B7848C5F884374FF6FF73A5F89037D2
S2140074A001237549C5F8800785F89837FDF720FD54
S2140074B0C5F888073046FEF7EFF975E6B8F1000F15
S2140074C02AD06E4826F017F895F86337834223D8FB
S2140074D001216B4821F066FF09E096F80C36CBB127
S2140074E0664826F008F895F863379842F0D29FB1C0
S2140074F096F80C2695F865379A4203D9032160481A
S21400750021F050FF554823F01BFD28B9534822F0C0
S21400751045FA01E0002FF5D100230493052304A8C3
S2140075208DF814304FF001081DF074FEDDF8109051
S214007530B9F1000F33D13C2396F80C76DFF824918E
S21400754003FB074707F53A570C37A9F1040AA9F5D4
S214007550146B4F4575D100234A4911F8012F0133AA
S21400756050B20028C8BF02F1FF32DBB2C8BF0A70B3
S2140075703F2BF2D195F8E134042B0DD13F4825F08E
S214007580BAFF092808D996F85C36013386F85C36C7
S21400759014F06FFBC6F858064AF0C0FA04E699F8ED
S2140075A01E3003F00F03072B39D808FA03F313F045
S2140075B0C60F06D113F0110F2DD113F0280706D0F1
S2140075C0FEE74FF47A72D9F8603002FB03F709F150
S2140075D048001DF017FD98B114F04BFB4FF47A727B
S2140075E0D9F85430C01AD9F84C305343984207D3D0
S2140075F099F848306FF3C71389F8483055F054FDB2
S21400760014F037FBD9F80830C01AB84209D34946F7
S214007610124826F087F804A81DF0DAFD86E7002752
S214007620D5E795F8E1045AF0AFFF0028F3D099F8B3
S2140076301E3003F00F03012BEDD148465CF0FAF93B
S214007640E9E7B9F81C10B5F8E42491421CD114F00F
S21400765010FBC9F8080009F13C097AE788400020C9
S214007660A84B0020344A0020584200201C4300202B
S214007670F09C090090B20800F19C0900304A0020F6
S214007680A8410020BF51002014F0F3FAD9F80820D2
S214007690A94BA0EB0208B9F83A20012A82BF02F5EE
S2140076A07F42FE32A9F83A2099F81E20984502F04B
S2140076B00F0239D999F83A10072A6FF3000189F8B2
S2140076C03A1037D195F8E124022A07D101219B48C8
S2140076D025F023FF95F8692782424DD3494604A832
S2140076E018F0B5FF1A21964804AA1EF0FFFF40B90D
S2140076F099F8392012F00C0F04BF42F0030289F803
S214007700392099F83920930714D0D11C61F301026F
S21400771089F839204FF47A7054F070FB49460246D7
S21400772087481FF020F805E0072A03D195F8E124E2
S214007730022A32D199F81E2002F00F02052A2CD117
S214007740494604A818F083FF1A21584604AA1EF0DA
S214007750CDFF10BB99F8392012F00C0F18D099F80D
S2140077603910C1F38102033202F0030262F383018F
S21400777089F83910B2B90BE0724A9045DAD9494611
S21400778004A818F064FF1A216D4804AA1FF009F82F
S21400779049466D4825F0C6FF5DE799F8392012F096
S2140077A00C0FDCD195F8E124042A7FF454AF504640
S2140077B099F8381025F08DFE00287FF44CAF484627
S2140077C055F0AAFA0F287FF646AF604A90457FF636
S2140077D042AFB9F81C105948890A25F015FF3AE758
S2140077E0D37C04A83F2B82BFC033D3744FF001086C
S2140077F01DF0B1FBE1E4938A33B1013B9BB2938267
S21400780003B915764FF0010804A81DF0A4FBDCE4CC
S214007810B38A53B1013B9BB2B38223B9737E43B99B
S2140078207576A6F814904FF0010804A81DF093FB97
S214007830D5E4F28A53080F2B38BF0F239A42F2D0B2
S214007840F3827823B382EEE7AB8A03B9FEE7013B07
S2140078509BB2AB82FBB9EB8A4FF00108AB825B00B0
S2140078609BB2782B28BF782331463948EB82A5F89F
S21400787018805BF049F8294636481DF056FB022171
S214007880284659F011FA002E3FF4ADAC30461DF0F4
S21400789077FA0546A9E42E464FF00108F6E7AB7FD7
S2140078A07F2B32D8B5F8A8207AB3B5F8AA300133C2
S2140078B09BB29A42A5F8AA3027D8EB8F0296C3F35C
S2140078C00D03FBB90121244A022058F0DFFB0146D4
S2140078D002A8FFF713FC029FA7B1204B204AEB1A21
S2140078E01B11534338460DF10601ADF80630FDF77F
S2140078F00CFF38B9CDE9020703A858F0F7FC039847
S2140079005BF086FA02985BF083FA04A81DF060FC30
S214007910A0E40139C9B285F8131100297FF4BEAC82
S2140079204ABB23B1013B9BB2A5F810317BB30D488F
S214007930FDF7E6FBB8E400BF9F860100304A002052
S214007940F4400020EF490200884000208F5F0100CD
S214007950B0720020B4720020401707005043002089
S214007960A38B2EBA787C0020013AD2B285F8122179
S214007970002AD6D095E4013AD2B285F81221D0E793
S214007980013B9BB2A5F81031002B7FF48DAC95F827
S214007990E93013B1012385F8E9300548FEF703FC0A
S2140079A0C5E704F8041C0133C8E409B0BDE8F08F4D
S2140079B0BE7C00202822002164F001BB2DE9F041A6
S2140079C0037805468CB0002B41D0244B1B6893F8F7
S2140079D0801A01293BD1DFF88C80B8F8E07A07F5E9
S2140079E08076B6B2304603F0A6FB044600B9FEE742
S2140079F031460DF106024FF08CFA00B1FEE75FB19A
S214007A00BDF80660B8F8E02AA019D8F8DC1A3E449B
S214007A1064F0F4FCADF8066002A8FFF7CBFF28463A
S214007A20FCF791FD0E4B039004936B7893B12B8C6F
S214007A300022ADF82230BDF8063002A811460794A1
S214007A40ADF8203050F088FC204603F06FFA0CB0FA
S214007A50BDE8F0814FF44043EAE700BF5819002024
S214007A60DD170700A86B002010B5074C94F8E43A21
S214007A704BB104F6E420FFF7A1FF04F6CC20BDE8E6
S214007A80104015F0C5B810BDA86B002010B50C4B03
S214007A9004461B688AB093F8803A012B0ED190F802
S214007AA0B5305BB16846FFF785FF2046FCF74BFD17
S214007AB0044B01906846029350F0E7FC0AB010BDF4
S214007AC058190020DD17070030B505780446A9428E
S214007AD08BB029D000F8B41BFDF712FB2378023DCB
S214007AE0023B022B8CBF00230123022D8CBF0025F6
S214007AF00125AB4218D0104B1B6893F8803A012B37
S214007B0012D16846FFF756FF0C48FCF71CFD0C4BDD
S214007B1001900293238CADF81A302378023B022B97
S214007B2004D9684650F0B1FC0BB030BD0022684660
S214007B30114650F011FCF7E7581900208C7600200B
S214007B40EB1707002DE9F84F9A4603780446012BF9
S214007B5089461746394E63D121214846FDF73BFA40
S214007B60831F9BB21A2B804661D82379344A13F0C0
S214007B70040FC3F38001334B0AD0C4E92324C4E9BD
S214007B8025341825D6F8F83B0133C6F8F83B40E014
S214007B900A2020812C4804F1100BC4E92104C4E912
S214007BA023245846C4E925341DF0C6F8054698BB7C
S214007BB0237943F00403237123896381D4F89C302E
S214007BC0002BDED1E3685BBB5146584621F045FBEF
S214007BD0054608BB4246494604F1480064F00EFCE0
S214007BE01A4B04F1A800002F08BF1F46184B394651
S214007BF09F4228BF194684F806806571FDF7DDFAB6
S214007C0002212046FFF760FFD6F8DC3B0133C6F8BA
S214007C10DC3B2846BDE8F88F072D08D00D2DB1D1E6
S214007C20D6F8F03B0D250133C6F8F03BF1E7D6F861
S214007C30F43B07250133C6F8F43BEAE7A86B0020BF
S214007C4027450000E3520000CD7C0000C0D40100B0
S214007C50C027090038B503780446012B0D4615D910
S214007C600121FFF731FF04F1A800FDF7D5FA201D2A
S214007C701AF0ABFD0722074B013A07D01978A94244
S214007C8005D15A6804498B5801338B5038BD0833E8
S214007C90F2E700BFFC1707008477002038B50446DB
S214007CA00D46037841B16BB90121FFF70DFFBDE822
S214007CB038400548FDF724BA23B1FFF7CBFF294625
S214007CC02046F2E738BD00BF7C7600200421C1E7DD
S214007CD005210148BEE700BFC477002070B50E46F8
S214007CE00546234CD0B94CF2503106F51F70FDF70F
S214007CF064FAD4F8C03C9E420AD1032104F61C4024
S214007D00FFF7E2FED4F8FC3B0133C4F8FC3B70BD41
S214007D10D4F8083C0133C4F8083CF8E7154801F5E8
S214007D2023711CF030FF08B9C6F88C0206F52670E1
S214007D3053F02CFFD4F8C03C9E4211D194F81C3C62
S214007D40033B012BE3D8013DEDB2042D97BF0A4B50
S214007D5006215B1993F8A0100848BDE8704079E743
S214007D60042D02BFD4F80C3C0133C4F80C3CCEE71B
S214007D70A86B0020443200208C170700C477002030
S214007D802DE9F04306680F46D6F878121C46002305
S214007D9005460A4685B00293002A64D1002C40F0BE
S214007DA090805BF015F8014602A8FFF788F8DDF82A
S214007DB00880B8F1000F00F09D802A7A07F1350997
S214007DC029F00109182A99F8013042D1442B40D1F4
S214007DD038460DF10701FFF78DF90446002870D1EB
S214007DE09DF80730012B34D10B21384603AAFDF746
S214007DF054FC0446002864D1BDF80C2006F5267411
S214007E0002F00702A2F57472404992B2204618F0BA
S214007E105EFC204653F0ECFE3D4A06F52371D2F890
S214007E209C06034653BBC6F88C02C2F89C16012378
S214007E30384C86F87432D4F8C03C9E4222D10421D5
S214007E4004F61C40FFF740FED4F8043C0133C4F8A7
S214007E50043C99F801200121404615F04CFB6A7A53
S214007E60082A15D9FEE7954246D01346526893E78E
S214007E705A68002A92D052685A608FE79942D6D044
S214007E801B68CFE7D4F8103C0133C4F8103CE0E799
S214007E90404605F10A01FCF799FC044688B97A8940
S214007EA0BB899A4216D800233A46304603A9CDF835
S214007EB00C800293FEF7E3FF044603985AF04CFE4C
S214007EC07CB1304621466B7A05F10A02FFF75EF870
S214007ED0029807E0404615F067FD04460028E2D009
S214007EE0EFE720465AF038FE284605B0BDE8F043D6
S214007EF003F01CB80324E4E7002BB9D100293FF4B3
S214007F004DAF4B68C6F8783248E700BF9042002075
S214007F10A82B0020A86B00200A4690F8FE10FDF75C
S214007F2089BA002910B514BF33210E211446FFF775
S214007F30F3FF38B1D0F802302360D0F806300020C6
S214007F40636010BD1720FCE7F8B5044618300D46F0
S214007F50FDF762F94FF0FF3323746374A374E37480
S214007F6023756375A375E37523726372A372E37258
S214007F7023736373A373E37395F8FE30DBB1264671
S214007F806378284643F00103637016F8087B324690
S214007F903946FFF7C6FF28B996E8030004F1100338
S214007FA083E8030017B9284654F0A8F82078BDE8FF
S214007FB0F8405AF093BDF8BD2DE9F04107468846D3
S214007FC003261B4D86B0013E02D106B0BDE8F08107
S214007FD03B7803BB6B7803F500334046297805935E
S214007FE0FFF79AFF044600B34278F2B1FF2A0CBFAF
S214007FF00423022303440193012341F20101029268
S21400800000934FF0004205A837F01FFE0DF0E5FB89
S214008010014610B1FEE7AB78DDE76278FF2A0CBFB9
S21400802004200220204463F0CAFF0335CBE700BFDC
S2140080303118070070B50D46C2B00446FCF748FA82
S21400804095F8FE604EBB23784FF0FF31002B14BF2F
S2140080500220012053F00DFF637866F300032246EA
S2140080606370284612F8081BFFF75BFF48B14FF015
S214008070FF3323726372A372E37223736373A37373
S214008080E37313F0F6FD23786060012B1ED12846BB
S21400809042B0BDE870404FF089BF01A85AF026FDF7
S2140080A03246294601A864F0A9F9D5F800312046E1
S2140080B001A941938DF80261FFF77EFF207801A9A0
S2140080C053F0C8FE637843F00103C8E742B070BDC2
S2140080D070B50C460546C2B001A85AF007FD94F8E4
S2140080E0FE602146324601A864F088F9D4F80031D3
S2140080F0284601A941938DF80261FFF75DFF2878B5
S21400810001A953F0A7FE42B070BD10B591F8FE204D
S2140081100446FF2A09D080F8FE2064F06FF913F0B9
S214008120A8FDC4F80001002010BD0720FCE72DE9DB
S214008130F8430F46984690F8FE4005461646FFF769
S214008140EBFEC4F1FE040146A4B208F1020918B918
S2140081504C450AD2032021E0437802331C44A4B2E3
S2140081604C45F7D32846FCF70BF995F8FE30B8F1E6
S214008170FF0F994405EB030085F8FE90EF5414BFFB
S214008180022304234246314680F80180184464F0F6
S21400819035F913F06EFDC5F800010020BDE8F88340
S2140081A013B50446084613F06FFE042301903421ED
S2140081B020460DEB0302FFF7BAFF02B010BD10B564
S2140081C00446FFF7A9FE014620B12046BDE8104050
S2140081D0FCF7D6B810BDD0F8020000BA704708B554
S2140081E017F08AFAB0FA80F0400908BD2DE9F74F7B
S2140081F00C460021FE2284F8FE10037805468B42CA
S214008200ADF8042018BF0220224608BF012001ABAB
S21400821053F076FE0746002842D1BDF80430FE2B08
S2140082203DD88146314E84F8FE3006F1060B2B7899
S214008230002B39D196F801A020463178FFF76CFE66
S214008240804698B142788AB1FF2A0CBF04210221E9
S21400825001AB01440AF500300DF0EBFA38BB98F894
S2140082600120019B9A4218BF4FF0010903365E4574
S214008270DDD1B9F1000F03D021462846FFF728FFCD
S2140082802B78BBB933212046FFF799FF34212046CF
S214008290FFF795FF13F0EDFCC4F8000100E0172788
S2140082A0384603B0BDE8F08F96F802A0C4E74FF05A
S2140082B00109DBE734212046FFF72EFE064600289C
S2140082C0EED0FFF788FF0A4B6D68984228BF184625
S2140082D0804613F0CEFC431B98458ABF2D1A00201B
S2140082E005EB0800B11C15F0F6F8D3E731180700C7
S2140082F00014730F30B50446C3B001A85AF0F6FB5D
S21400830001A92046FFF772FF054601A92046FFF7A0
S2140083101BFE284643B030BD2DE9F0430546D3B0DA
S21400832002A814F032FBAC6CACB16B6C05F13C06E9
S2140083309E4210D161893C233C3989B202AA20466C
S214008340FCF7FFFA13F095FC0C99401A002805DAA2
S2140083503046FCF722FF53B0BDE8F083214605F116
S2140083604800FCF720FD01220DA92548FEF74CFB2E
S2140083700023244F11A8C7F880315AF0B7FB152008
S2140083804FF074FD0446002834D00322837911A9E7
S21400839062F30303837107F18C00FFF727FF30BBFE
S2140083A04FF00908DFF86890B8F1010814D10621EB
S2140083B02046D7F82421FDF7F7F9C0B92946124818
S2140083C05AF085FC2146104B1048009502AA14F07E
S2140083D0D9FE0028BFD00AE019F8011B11A8FFF744
S2140083E09BFD20B12146FDF719F80028DCD0204679
S2140083F0FCF71FFA00213046FCF7DFFEABE700BFB4
S214008400183D0020A83B00201584000044340020BE
S2140084103718070080E701487EE700BFA07B0020F2
S21400842070B50C460546C2B001A85AF05FFBFF22A5
S2140084300021204663F0C3FD284601A9FFF7D6FEBB
S214008440054640B99DF802612046324601A963F010
S214008450D5FF84F8FE60284642B070BD70B504466D
S2140084604FF0FF352646437805746FF300034370DC
S21400847045748574C574057545758575C57505722D
S21400848045728572C572057345738573C573FCF7AF
S2140084901FF816F8183B2946002B14BF02200120AF
S2140084A053F0E7FC3046FCF7B7FE2378012B02D1E9
S2140084B00348FCF7B1FE2078BDE870405AF00EBBCA
S2140084C08C3C00202DE9F04180460E4618F8105BE3
S2140084D004462946174630464246FFF722FD054326
S2140084E0EDB28DB1404604F1080117F005F90028F9
S2140084F011DD31462046FFF79DFD4EF03DFB20780E
S2140085005AF0ECFA002004E0304653F0F7FD00285D
S214008510E8D0BDE8F081002FEBD10028EFD041F283
S214008520883104F11800FCF748FEE8E72DE9F04131
S2140085309CB0804601A80C461F461546229E14F0A5
S21400854024FA4FF2BF03ADF8263000238DF86C30C6
S21400855023781BB10E210BA8FBF7E7FE63781BB14F
S21400856033210BA8FBF7E1FEA3781BB105210BA86E
S214008570FBF7DBFEE3781BB103210BA8FBF7D5FE68
S21400858023791BB102210BA8FBF7CFFE63791BB141
S21400859007210BA8FBF7C9FEA3791BB134210BA852
S2140085A0FBF7C3FEE3791BB101210BA8FBF7BDFE69
S2140085B0237A1BB100210BA8FBF7B7FE237B1BB168
S2140085C04A210BA8FBF7B1FE637A1BB104210BA866
S2140085D0FBF7ABFEA37A1BB10C210BA8FBF7A5FE9D
S2140085E0E37A1BB135210BA8FBF79FFE2F44BD4253
S2140085F01BD198F80030002B14BF1A200B204FF028
S21400860035FC054638B39DF86C30A3B901A82AF0AE
S214008610B7FCDEB92946114801AA14F0E1FE04466B
S21400862080B920461CB0BDE8F08115F8011B0BA8E8
S214008630FBF77BFEDBE70D210BAAFDF769F8044686
S2140086400028E3D02846FCF7F4F8EAE7314601A80C
S21400865013F016FFDEE70324E3E700BF44340020F0
S21400866030B50446C3B001A85AF040FA204601A926
S214008670FFF7BCFD044668B9074D15F8011B01A8B5
S214008680FFF74AFC20B10134E4B2052CF5D10120F5
S21400869043B030BD0020FBE73F18070010B50C467E
S2140086A00E21FFF739FC38B1D0F802302360D0F83D
S2140086B006300020636010BD1720FCE770B500F19F
S2140086C0080604460D46C4B03146103017F014F8BC
S2140086D0002821DA237883B903A85AF007FA03A9F9
S2140086E00E48FFF783FD01A903A8FFF7D7FF20B9BF
S2140086F0314601A8FFF773FD70B929462046FCF7FE
S214008700D7F9032808D141F2883104F1180044B0A3
S214008710BDE87040FCF751BD44B070BD603C002021
S21400872043789B0706D4044B93F8E134023B012BB5
S21400873000D8C3E7704700BFA83B002038B5044602
S2140087400D46FFF777FC104B93F8E134032B07D860
S214008750012B13D86BB12078BDE838405AF0BEB96B
S214008760042BF8D129462046FFF7EEFB4EF004FA1C
S214008770F1E729462046FFF7E7FBECE729462046C7
S214008780FFF7CEFFE7E700BFA83B002010B5044682
S214008790C2B001A85AF0AAF9204601A9FFF726FDA3
S2140087A018B9204601A9FFF7BBFF42B010BD01482B
S2140087B0ECE700BF343C00200048E7E7603C0020C0
S2140087C00123FCF7C9B8F0B5D5B00C46054613A88A
S2140087D016465AF08BF900230D21204601AA8DF883
S2140087E04830FCF7C1FE60B9BDF80630ABB99DF85D
S2140087F0483033B12B78012B03D1342102A8FBF784
S21400880094FD284613A9FFF7F1FC20464DF01AFE0A
S2140088100546002844D1002524E00DF1030201A9F5
S2140088202046FFF7CDFF9DF8031002A8FBF77DFD5D
S214008830012101A8FCF73EFBD6E79DF84820A2B927
S21400884026BB2378052B21D197F88631DB071DD46C
S2140088502046FCF7DDFD04469DF84A3113AA134472
S2140088609C42EAD3284655B0F0BD02AB21781A44A4
S2140088709A421846ECD0007801338842F8D12EB9D7
S214008880052903D1084B93F88631DFE729462046B1
S214008890FCF7C4FD0028DBD02846FBF7CAFFBAE782
S2140088A0014F13ACD8E700BFA83B00202DE9F041EC
S2140088B006468EB0084614461F462AF0AAFB102825
S2140088C005460FD80A2840F2FA80A0F10B03052BC4
S2140088D000F2F580DFE813F08A00F300F3001A00D8
S2140088E08A0012001F284FF0000022D0212D00F031
S2140088F099801A2D5CD00EB0BDE8F08118233A4658
S21400890021463046FEF773FB0120F4E796F87432F2
S214008910002BF9D017233A4621463046FEF767FB70
S2140089200028F1D14CF2503106F51F70FCF745FCDB
S214008930EAE74FF2BF06029004A814F026F8204695
S214008940ADF8326015F006F870B31421204601AA7F
S214008950FCF7A3FE40BB28465AF045FA014602A89B
S214008960FEF7ADFA029DFDB1214603A8FCF791FA89
S21400897021462846BDF80E30BDF80C205AF073F993
S21400898090B9BDF8044004A82AF0F4FA22464D49EE
S21400899008A817F09CFE29464B4804AAADF830609C
S2140089A014F01EFD00B9029002985AF0D5F8ABE715
S2140089B00122214603904548FFF705FF014603A81C
S2140089C0FEF77DFA424AD2F8183C0133C2F8183C4A
S2140089D0039B4BB104930023304604A90393FBF793
S2140089E0C1FD04985AF0B8F80398DEE700230F2874
S2140089F003930FD0012221463648FFF7E4FE0146D6
S214008A0003A8FEF75CFA324AD2F8143C0133C2F8E7
S214008A10143CDDE7204649F025F8014603A8FEF79A
S214008A204EFAD5E7019004A813F0AFFF3021204698
S214008A3002AAFCF799FD00283DD1204603AA02A908
S214008A40FCF714FDB8BB042102A8FCF733FABDF806
S214008A500C7087B3BDF80E506DB31F49082057F051
S214008A60A0FB014601A8FEF749FBDDF80480B8F13B
S214008A70000F20D021464046BDF80A30BDF8082039
S214008A805AF0F1F8B8B906F5267104A87FBAADF821
S214008A9030706DBA14F058FA10233121204608AA17
S214008AA0ADF83250FCF76DFD28B9404604A94FF0EA
S214008AB065FC00B9019001985AF0AAF924E7002055
S214008AC019E700BF9042002044340020603C00209C
S214008AD0A86B0020343C00204017070038B5154628
S214008AE00022FFF770FE044650B101462A460548AC
S214008AF014F076FC20B12046BDE83840FBF799BE5E
S214008B0038BD00BF4434002010B50C460521FFF7E1
S214008B1003FA50B12146831C123053F8042B8342CB
S214008B2041F8042BF9D1002010BD1720FCE70A46B7
S214008B301021FCF722BE082208B564F059FCB0FAF2
S214008B4080F0400908BD08B5FFF7F5FF80F001008A
S214008B50C0B208BD38B504460D46FFF7ECFF28B195
S214008B60BDE838404FF4003053F0B0BA2B684FF4ED
S214008B70003023606B686360BDE8384053F067BA26
S214008B8007B590F85230DB0704D5B0F8500003B0B4
S214008B905DF804FB122106480DF1060222F00FFFD5
S214008BA018B14FF47A73ADF80630BDF80600EEE75C
S214008BB0C8730020F8B5154E044696F8E3349B07B4
S214008BC023D54DF0F7FCA78AA0B12046FFF7D8FFC3
S214008BD00546D7B90434022120461CF0ADF82946D4
S214008BE0204620F03AFB294606F58D70BDE8F84091
S214008BF012F0B9BD4FB1394606F58D7012F0D1FDB1
S214008C00201DBDE8F8401CF08DB8F8BDA83B00203C
S214008C10F0B50546007840B30A88C600F6B2B2FB47
S214008C20F6F3012706FB1322431EDCB2C2F3C4038D
S214008C30E31A55FA83F35B7802F0070207FA02F2AA
S214008C4013EA020011D04B88B3FBF6F206FB123390
S214008C50C3F3C402A41A55FA84F003F007039F4036
S214008C6043783B4214BF01200020F0BD41F22103AF
S214008C7037B50C460546014601A801934EF030F97B
S214008C8048F205032080294601A801934EF028F9F2
S214008C90608003B030BD30B50546A9B008A80C46C4
S214008CA059F068FF08A8FDF76FF80822294608A8BB
S214008CB0FDF778F8694608A8FDF79AF86B4603CBE7
S214008CC020602378616043F00203237008A859F0FF
S214008CD047FF29B030BD2DE9F04704469946254B9D
S214008CE08CB0186890469A889B79029020460F466A
S214008CF00DF1080AADF80C208DF80E30FCF7F6F9E9
S214008D00A8B34FF480712046FCF765F9064611219A
S214008D103846FCF760F9B31F9BB2F92BC5B226D8CC
S214008D20102D24D8102200210DF11E0063F047F903
S214008D309AE80300D8F800302A46CDF81630D8F85E
S214008D4004300490ADF814100DF11E003946CDF82D
S214008D501A3063F053FB31462046CDF8009005F1FB
S214008D600E0304AA54F034FF0CB0BDE8F0870720C9
S214008D70FAE700BF6D29070013B5044668461CF0E5
S214008D80FBFC638862785BBA022AADF8003000D13B
S214008D90FEE7023AD2B2022A28BF02226846211D06
S214008DA01CF0DAFE0020009B9AB262F30F001B0C48
S214008DB063F31F4002B010BD00232DE9F3410B60A2
S214008DC0438904460E46002B33D01D4F608988B376
S214008DD001282ED06068218978B302236A46FBF703
S214008DE092FD6D466B78628903F10208424520D3F6
S214008DF02A78C2B9042B1CD1606828B106236A46BB
S214008E0004F10801FBF7A8FDD5F8020013F03CF8C2
S214008E10FBF79FFA2B78002B0CBF3B46002318402D
S214008E20336803433360414604F10800FCF742F818
S214008E30CCE7062002B0BDE8F08125680D44D1E7F6
S214008E4000F8FF071FB500230293ADF80C30831C13
S214008E500193437801A8ADF80E30FFF7ADFF05B0DB
S214008E605DF804FBF7B590F8FE300546FF2B00EBE7
S214008E7003065CD1062003B0F0BD6178FF29F9D067
S214008E80A71CBE42F6D32046FCF7C2FA8642F1D3B0
S214008E9023780E2B0BD80E2B10D8DFE803F0213EDC
S214008EA0442E42420F440F0F0F0F340F4400352B51
S214008EB02CD013D8332B36D0342B36D0611B284613
S214008EC0227889B2FCF7B6FA0028D3D12046FCF700
S214008ED09FFA0446B442D0D30020CCE74A2BEDD10B
S214008EE00229C7D9A378002BC4D1B4F803305BBAE3
S214008EF00B3B9BB20F2BE1D9BCE73846FBF776FA63
S214008F000028DBD1B6E70229D8D8B3E7204601A966
S214008F10FFF798FF0028D1D0ACE702239942CDD2C4
S214008F20A8E71023FAE70823F8E70423F6E7044641
S214008F30D0E730B50C46C3B0054601A859F0D6FDBB
S214008F40214601A8FFF7E1F818B10724204643B0F0
S214008F5030BD01A8FFF786FF04460028F5D1284655
S214008F6001A9FFF7EBFBF1E730B585B00C466A4682
S214008F7035210546FCF7F8FA38B9009BCDE901051E
S214008F80214601A80393FFF717FF05B030BD002365
S214008F9010B5044683710948084058B1237004236D
S214008FA06370FBF7D6F912F06FFF0623C4F80200D1
S214008FB0A37110BD002AF1D1FBE700BF00F8FF0740
S214008FC073B591F8783005460C465BB1684616F0E6
S214008FD05DFB08236A460E212846FFF7A8F80028FE
S214008FE040F0B48094F879306BB1684604F1100113
S214008FF016F04CFB08236A4633212846FFF797F8FD
S214009000002840F0A38094F87E30002B40F0978034
S21400901094F880307BB10021B4F85A306A465BBAC7
S214009020ADF80130284603238DF80010FFF77FF8CF
S214009030002840F08B8094F884307BB10022B4F88E
S2140090405C308DF800205BBAADF801306A46032329
S2140090504A212846FFF76BF8002877D194F883302A
S2140090606BB100226846616FFFF791FF6A463521B3
S21400907028469DF80630FFF75AF8002866D194F87F
S2140090807C30002B64D194F87D3043B1082307214F
S214009090284604F14902FFF74AF8002856D194F80A
S2140090A07A3043B110230521284604F12002FFF749
S2140090B03EF800284AD194F87B3063B104F13006BC
S2140090C011213046FBF787FF3246C3B203212846FC
S2140090D0FFF72DF8D0BB94F87F305BB1B4F858306A
S2140090E06A465BBAADF80030012102232846FFF736
S2140090F01EF858BB94F881303BB110230421284653
S21400910004F15E02FFF713F800BB94F88230A3B1B7
S214009110204640F20C43ADF8003030F86E3F01A90F
S2140091205BBAADF802304EF04AFE04230C21284606
S2140091300DF10202FEF7FBFF40B9002006E02846CC
S214009140616DFFF72DF800283FF462AF02B070BDE6
S21400915008230221284604F14102FEF7E8FF002812
S21400916091D0F3E7F0B5C3B00F46054601A81C46FC
S214009170164659F0BBFC0023394601A88DF802318B
S214009180FFF71EFF9DF802012318FE2B15D801AB32
S21400919022463146184463F031F99DF802312846DC
S2140091A01C4401A98DF80241FBF782FC18B9489BC4
S2140091B06B62499BAB6243B0F0BD0320FBE773B51F
S2140091C06E46054603C986E803009DF80410FBF7C3
S2140091D002FFC4B2102C10D8294630468DF8044041
S2140091E016F008F908B12B5D4BB13046294616F04B
S2140091F0FBF80020285502B070BD0720FBE71820BA
S214009200F9E7F7B50C46064688220021204662F0AC
S214009210D6FE354696F8FE3033449D4201D303B061
S214009220F0BD2B780E2B0BD80E2B11D8DFE803F0F1
S214009230338A5079A568105C10101010B410200006
S214009240352B31D009D8332B00F08480342B37D01F
S2140092502846FCF7DDF80546DCE74A2BF8D1012264
S214009260B5F8033084F884205BBAA4F85C30EFE7E6
S2140092700123A81C84F8783016F034FAC4E90001FB
S2140092802B895BBAC3F34E0323812B895BBA03F0A9
S2140092900103A372DCE70122B5F8033084F88020CE
S2140092A05BBAA4F85A30D3E769462846FFF7CAFDEA
S2140092B00028CDD1012384F88330009B6367C7E77D
S2140092C02846FEF788FF0123606584F87E30BFE7F6
S2140092D0012384F87C30D5F80230C4F84130D5F844
S2140092E00630C4F84530B3E7012384F87D30D5F85E
S2140092F00230C4F84930D5F80630C4F84D30A7E738
S214009300012304F1200784F87A3005F1120CAB1C17
S2140093103A4618685968083303C263451746F7D1BA
S21400932096E7012384F87B306B78AA1C102B28BFA5
S2140093301023694604F1300000928DF80430FFF7E0
S2140093403EFF85E701226B8884F87F205BBAA4F88D
S21400935058307DE70123A81C84F8793016F0C2F94E
S214009360C4E904012B895BBAC3F34E0323832B891C
S2140093705BBA03F00103A3766AE7012304F15E02F9
S21400938084F8813005F11201AB1C53F8040B8B42B4
S21400939042F8040BF9D15BE72846FFF7EDFC012302
S2140093A0009084F88230C4F86E0051E730B50D4660
S2140093B00446C3B001A859F099FB8822002128462C
S2140093C062F0FDFD204601A9FEF710FF044618B91D
S2140093D0294601A8FFF715FF204643B030BD1123EC
S2140093E013B50446084600918DF80430FBF77EFE60
S2140093F028B169462046FFF7E2FE02B010BD0720FE
S214009400FBE713B50C468DF8070030B101F5187070
S214009410FBF7D0FC204613F0A2FE0DF1070104F581
S214009420167013F0ABFA02B010BD1FB5002204464A
S2140094308DF8072008468DF8063073B90DF1070140
S214009440FDF758FE30B99DF807301BB1FF2B04D14D
S214009450252300E006238DF806300022D4E9090112
S214009460637862626FF34103637002AB83E80300C4
S21400947018460DF1060113F081FA41F2883104F125
S2140094801800FBF79AFE04B010BD7FB503780446BB
S2140094904578002B4DD02D4E96F8E10459F096F8FD
S2140094A0002846D0002D3DD1294BC4E92334294B52
S2140094B0C4E925342379C3F380015B0732D404F171
S2140094C0100528461BF038FC60BB237943F00403E4
S2140094D0237123896381D4F89C301BBBE16809BBE8
S2140094E028461FF0BAFEE8B96D4606F59070694644
S2140094F01FF0FBFF04AE04F148022B4603CBB34239
S214009500106051601D4602F10802F6D11023A371C7
S2140095100023684663710CF077FD01230E486370E4
S214009520FBF7EEFD637813B9201D19F04EF904B071
S21400953070BD002DFBD0201D19F047F9002306480A
S214009540637004B0BDE87040FBF7DABDA83B0020AE
S21400955019450000C55200007C7600202DE9F04F2A
S2140095600026AB4BB1469C6ABDB0002C00F0798655
S21400957003F5005B9E629BF8E134002B6ED0A507D6
S21400958014D00BF5E161ABF5046017F02EFC58B96A
S2140095900BF5E260FDF75CFA00B1FEE79D4852F07D
S2140095A027FB102052F053FD52F08CFA14F4405F63
S2140095B004D04FF0D5F808B152F084FAA00511D5C2
S2140095C09BF8E334990740F1D6809BF8E15428468F
S2140095D058F0DAFF30B1042D40F0A08048F01EFBB2
S2140095E048F09CFA14F4827F09D0E30504D49BF873
S2140095F0E10458F0EBFF10B187481CF06FFEE7025D
S21400960019D59BF8E10458F0BFFFA0B1824821F0BD
S21400961097FC80B9814D95F8603663B905F5CC6046
S21400962021F0D4FD9BF8E134042B02BF95F8603698
S2140096300A3385F86036650210D5DBF89C319BF856
S2140096409A1111A81193FCF729FC024630B99BF831
S214009650E1341BB10146724821F086FD14F4007314
S214009660029300F0D5819BF8E1340BB148F082FB01
S21400967000250123AA462F46A84608AA8DF82030C2
S2140096800C928DF83430294666480CAA52F056FEE5
S2140096900546002876D1644D002F00F0CD80B7F83F
S2140096A00280DAF803001FFA88F198FA98F81FFA91
S2140096B088F30591049312F0E7FBBAF80170049B57
S2140096C0B5F8A4207FBA9A429AF800904FF6FF6346
S2140096D00599BEB2039000F08180994200F0AC80FC
S2140096E0B0F5967F034638BF4FF496734F4AA5F8F9
S2140096F0A480934228BF13460120C5F8A830A5F8D9
S214009700A67085F8AC904CF0F5FE9BF8E33498070D
S21400971040F1A28046481BF0C3FEA2E04FF4FA7068
S21400972052F06CFB074611A816F0A0FFDBF81413E6
S2140097300CA859F0C7FA0C9D6DB911AA08213D482E
S2140097401DF02FF83B460821CDE90055394811AAEF
S2140097501CF08CFF44E7AB7903F00F03012B06D116
S214009760EB79082B03D10221284656F007FC0CA8FB
S214009770FAF7EBFFDFE762073FF534AF26481CF049
S214009780C5FF2FE7274BCDE91258119311A822F0F9
S214009790BCFA00287FF477AF13994B78023B062B70
S2140097A0F4D91FB90F4601F1040AEFE79BF8070545
S2140097B04A88800252BA80B292B29042F2D07B8837
S2140097C05BBA9BB29842E1D091F804C09AF80000C8
S2140097D08445E7D8DAD19A42E4D8D7E799422BD025
S2140097E0039B124AB3F5967F38BF4FF496739342A5
S2140097F028BF134695F8AC204A457FF47DAFB5F8F0
S214009800A620B24201D0A5F8A670C5F8A8301FE081
S214009810A81B0020B042002088400020A84B002053
S21400982024420020C8730020A87B00209BC4200090
S214009830747C0020F44000204FF6FE72304BA3F8F4
S214009840A420039AA3F8A660C3F8A82083F8AC90D7
S21400985000204CF04FFE04E04CF03EFE00287FF463
S21400986059AF0023274F0C9311AE324638460CA949
S21400987025F050FA08B3224890F8C030002B51D09B
S214009880B03012F0DFF901251D4991F8E830DA070B
S21400989003D51D48CC3159F01AFA1C481BF0D3FDED
S2140098A01B481BF028FE28B91948FCF77CFC023040
S2140098B0FCF779FC022D35D11AE09DF85630590791
S2140098C0D3D53046134916F0DFFD28BB374695F84A
