S02900006275696C642F64656275672F7263702D756172742D3830323135342D626C656863692E73333733
S31508006000C80A002015CB00089907020843C10008F2
S3150800601021100108A1070208A907020843C10008C0
S3150800602043C1000843C1000843C1000849000408E9
S31508006030AD070208C02D0408EDFF0308B3260408BF
S3150800604043C1000843C1000843C1000843C1000812
S3150800605043C1000843C1000843C1000843C1000802
S3150800606043C1000843C1000843C1000843C10008F2
S3150800607043C1000843C1000843C10008DDE7000822
S3150800608043C1000843C1000843C1000843C10008D2
S3150800609043C1000843C1000843C1000843C10008C2
S315080060A043C1000843C1000843C1000843C10008B2
S315080060B043C1000843C1000843C1000843C10008A2
S315080060C043C1000843C1000843C10008ED0901089F
S315080060D043C1000843C1000843C10008C9090108B3
S315080060E0A509010843C1000843C1000843C10008C7
S315080060F043C1000879620308696B030889F9030834
S3150800610085F90308DD6203089FF903088DF903087A
S31508006110396B030891F90308A96B0308116C030886
S3150800612043C1000843C1000843C1000843C1000831
S3150800613043C1000843C1000843C1000843C1000821
S3150800614043C1000843C1000843C1000843C1000811
S3150800615043C1000843C1000843C1000843C1000801
S3150800616043C1000843C1000843C1000843C10008F1
S3150800617043C1000843C1000843C1000843C10008E1
S3150800618043C10008F501020843C10008FD190408C7
S31508006190B94C030843C1000869F903086FF90308F5
S315080061A043C1000843C1000843C1000843C10008B1
S309080061B043C10008D1
S315080061C0F0B5114A114C124E00F00105E3695F075C
S315080061D013D40DB9334213D103EA00078F4207D10E
S315080061E00B4A1A40002A0CBF00206FF00100F0BDD0
S315080061F0013AEBD16FF00200F9E74FF0FF30F6E70E
S315080062006FF00100F3E700BF809698000000035086
S31508006210020001000000000000000000000000006D
S31508006220013800D0FCE7704703468288C0881144CD
S3150800623081429DBF18689980801800207047A0F198
S315080062404103052B04D83738C0B2087000207047C0
S31508006250A0F16103052B01D85738F5E73038C0B2ED
S315080062600928F2D90720704770B5466804460D46D6
S3150800627026B9BDE870404B68006818478B68984790
S31508006280B2680146831A002BB8BF121A2B68206819
S31508006290A8BF0022BDE87040184738B50C4611461D
S315080062A0E2680346944206D04568AC420BD1426088
S315080062B0FFF7DAFFE46038BD94420DD01146D26884
S315080062C0002AF9D1F6E72A460021F9E7CB68002B20
S315080062D0F0D0DB68CB60EDE70029F7D1002DE9D0D7
S315080062E0EA685A60E6E770B5466804460D467EB128
S315080062F08B689847B368C01A002809DB20462A46E7
S315080063003146FFF7CAFF30467368BDE87040184744
S3150800631029462046BDE87040A6E701490830E2E76D
S315080063208033040801491030DDE700BF8C330408C8
S315080063300122024B00201A70704700BFC0170020C8
S315080063400020014B18707047C0170020704700F4F2
S315080063504053B3F5005F04D100F44C43B3F54C4FFA
S3150800636007D0B0F5804F04D380F04000C0F380100A
S3150800637070470020704700F01800102805D0A0F1DB
S31508006380180358425841C00070470420704701233B
S3150800639000F00700834013F0220F09D113F0880F8D
S315080063A008D113F0440F14BF01200020C000704725
S315080063B0042070471020704708B54307024608D0E6
S315080063C0FFF7D9FF12F0180F0CBF05300630C0B220
S315080063D008BDFF20FCE72DE9F3470E46044608B33F
S315080063E00378302B18D1437803F0DF03582B13D1E9
S315080063F00127023400224FF0993915464FF00A0852
S31508006400DFF870A020784FB10DF10701FFF717FFED
S31508006410A8B102B0BDE8F0870027EBE73038C0B274
S31508006420092801D90720F4E791457AEB05038DF889
S315080064300700F7D3A2FB082308FB053306E0B5F1EE
S31508006440805FEFD22B0143EA127312019DF8071001
S315080064500020891853F1000328BF01200A461D466B
S315080064600028DFD114F8010F0028CBD1C6E90013A4
S31508006470CFE700BF9999991913B50C466946FFF7F6
S31508006480AAFF48B94FF0FF32009B9A42019A70EB77
S31508006490020234BF0720236002B010BD10B5C388BE
S315080064A002899C1C94420BD80268D4186478D35C81
S315080064B043EA04230B80C3880233C380002010BD3F
S315080064C00620FCE770B5C288038902F108049C42DD
S315080064D01CD80568AC18A3786678AA5C1B0443EA3E
S315080064E006231343E278657943EA0263227942EA8E
S315080064F00522A579E47942EA054242EA0462C1E93D
S315080065000032C3880833C380002070BD0620FCE72C
S3150800651000F1B4019030C1E70C20704707B5903000
S315080065200DF10601FFF7BAFF002808BF0C2003B0DB
S315080065305DF804FBFEE7FEE7064B5A68002352F8AF
S31508006540041F884201D1D8B270470133042BF6D113
S3150800655000207047C017002013B504460DF1060148
S315080065609030FFF79BFF50B923689A6C4AB1BDF883
S315080065700620B3F86010914201D0A3F8602002B05B
S3150800658010BD0D20FBE7014B18687047001200206C
S315080065904FF0FF30704710B5044600B9FEE7037F99
S315080065A01BB1436998470023237710BD014B9B69AC
S315080065B0184700BFC017002010B50446FFF7F6FFBE
S315080065C0D4E901316269C01A9A4202D10028A8BFEB
S315080065D0013110BD37B5002300220446CDE900235A
S315080065E0FFF7E4FF6946054604F19000FFF76AFFE6
S315080065F060B9DDE90032AB4272F1000108D35B1BDA
S3150800660062F10002C4F89839C4F89C2903B030BD79
S315080066100720FBE710B5EFF31184302282F31188C7
S31508006620094A02F108015032831A1E22DB10B3FB15
S31508006630F2F32420DBB200FB0310FFF7ACFF84F370
S315080066401188BFF36F8F10BDC0170020014BD3F818
S3150800665040321847C017002010B5EFF311843022D6
S3150800666082F31188094A02F50C715032831A1E22E8
S31508006670DB10B3FBF2F32420DBB200FB0310FFF7B9
S315080066808AFF84F31188BFF36F8F10BDC0170020EF
S315080066900139013811F8012F10F8013F3AB9002BDA
S315080066A014BF01200220831E5842584170479A425F
S315080066B0F0D00020F7E70EB4034617B505A951F840
S315080066C0040B5C6901910CB19A69A04703B0BDE857
S315080066D0104003B0704770B5012905461446C2B08C
S315080066E006D112681549FFF7E6FF002042B070BDD3
S315080066F0022921D112491068FFF7CAFFE0B1606884
S3150800670001A9FFF7B9FE0028F0D1019902ACFF29CB
S3150800671028BFFF2122460A26884204D100230749BA
S3150800672013542846DFE7B0FBF6F306FB13033033B2
S3150800673004F8013B0130EFE70720D7E7D72E040816
S31508006740102E04080EB433B504468588E18805ABD7
S3150800675000688D4253F8042B2CBF0021491B28449E
S3150800676001931AF083FC002800DAFEE7A388E28882
S31508006770184480B2904228BF2368A08028BF9B187F
S31508006780204624BF002203F8012C02B0BDE83040A1
S3150800679003B07047F8B500F1080303604FF404131B
S315080067A04360002304460D460E8A074F03720E44C3
S315080067B0B54201D12046F8BD3946204615F8012BC9
S315080067C0FFF7C0FFF4E700BF132E040808B5134609
S315080067D08288232A05D90A460068012113F02AFA75
S315080067E000B1FEE708BD01297FB511D169461068D9
S315080067F0FFF7F1FD044660B9009D019BB5F5807F62
S3150800680073F1000304D2E8B2A0F10B030F2B03D9EE
S315080068100724204604B070BDFF230B4ECDE9004483
S3150800682096F9781202948DF800300DF0CDFF0446E3
S3150800683000B1FEE76A46D6F87C02A9B237F09CFF9B
S315080068400028E6D0FEE700BFC0170020012937B5AB
S3150800685002D0072003B030BD10680028F9D00378AD
S3150800686069462D2B0ED10130FFF7B5FD03460028EA
S31508006870F0D14FF00042009CA242019A9341E8D31E
S3150800688064420DE02B2B08BF0130FFF7A4FD00285A
S31508006890E0D1009C019BB4F1004F73F10003D8D2FC
S315080068A004F18003FF2BD4D8064D04EB840149007C
S315080068B0D5F87C0209B227F08DFB00B1FEE785F812
S315080068C07842C7E7C017002013B50C4629B90F4907
S315080068D0FFF7F1FE204602B010BD012911D1694625
S315080068E01068FFF778FD04460028F3D1009B019A4B
S315080068F0B3F5807F72F1000203D20B3BDBB20F2B9C
S3150800690001D90724E6E70C24E4E700BF182E04089B
S3150800691070B586B011B90C2006B070BD14681F4951
S315080069202046FFF7B5FE0028F5D120461C49FFF79B
S31508006930AFFE0028EFD11023ADF8143064B320461B
S3150800694032F072F9431C212B4FEA530524D801AAC9
S31508006950164600F001031544AE42DCD02078CBB9C8
S315080069600DF10301FFF76BFC0028D5D19DF8032034
S3150800697001341201D2B220780DF10301FFF75FFC52
S315080069800028C9D19DF8033001341A4306F8012BB3
S315080069900346E1E70022EEE70720BDE79F2E04083D
S315080069A0A62E04082DE9F843064615460C46374F29
S315080069B051B137491068FFF76BFE90B1013C14F0EE
S315080069C0FF0405F104050CD13978324B324A3046BA
S315080069D0002918BF1A463149FFF76DFE0020BDE8A9
S315080069E0F8833B78D5F8008053B940462C49FFF721
S315080069F04FFE28B930462B49FFF75DFE0D20EEE71E
S31508006A00294FDFF8B89040463968FFF741FEA8B12C
S31508006A10BA687B68511006EB6200D20748BF725805
S31508006A2004F1FF3148BFD358012C08BF0022C9B270
S31508006A3018BF2A1D98472328D1D10DE00C374F459A
S31508006A40E1D140461949376832F0B1F870B140468D
S31508006A50174932F0ACF840B1012C04D030462A6808
S31508006A601449FFF728FE2320B9E70120124B012C11
S31508006A7003EBC00304F1FF3108BF00223846D3F800
S31508006A809430C9B218BF2A1DD4E700BFC01700202A
S31508006A90BF2E0408AE2E0408B62E0408C32E04081A
S31508006AA0DC2E0408E22E040898330408012F040893
S31508006AB00C2F0408152F0408803304081034040822
S31508006AC02DE9F04F0646ADF5037D41BB002542A8EA
S31508006AD032F077F8A946DFF808810DF5847B0DF1C9
S31508006AE0840A5F461BF8014B3CBBC5F12102212DE8
S31508006AF0D2B221AF4FEA82024FF0000188BF0022CE
S31508006B0007EB850031F0FDFD002C4BD030463249AD
S31508006B10FFF7D1FD07200DF5037DBDE8F08F0023B3
S31508006B20CA5C002AD2D00133B3F5807FF8D130464B
S31508006B302A49FFF7C0FD0320EDE75C2C25D19BF819
S31508006B400020A2F10903DBB2172B0CD828FA03F3AD
S31508006B50DA070AD5384632F067F859460246384603
S31508006B6031F073FF01E05C2AF4D01BF8013C002BDE
S31508006B70B7D02DB11BF8023C002BB2D1202D0FD077
S31508006B806B1C4AF82570DDB2ABE7093CE4B2172C5A
S31508006B90EBD828FA04F4E30748BF0BF8019CE4E7AE
S31508006BA00724A2E7E3B282AA02EB8303A3F5C27322
S31508006BB01B6821460134002BF4D101AADCB257F830
S31508006BC02400013320B93046C9B2FFF7EBFEA2E72D
S31508006BD042F82400F2E700BF3A2F04086F2F040892
S31508006BE013008000012B08B50DD0022B15D0D3B9A0
S31508006BF08A4237BF4368511A5B1A01683CBF521A6A
S31508006C00D11888B208BD8A4289BF4368891A9B1A77
S31508006C10026884BF891AC918F3E7C721034B044AD7
S31508006C20044819F033FE0021EBE700BF912F040852
S31508006C30972F0408F12F04080368006E93F8441090
S31508006C4016F0B3B9044B006E93F88012490001F0B0
S31508006C50FE0116F0AAB900BFC01700203221006E47
S31508006C6016F0A3B9AF21006E16F09FB9F8B5054620
S31508006C700E460024012707FA04F3334204D10134EF
S31508006C80202CF8D10020F8BD286EE1B216F08DF957
S31508006C900028F4D0F7E7D0F8B010E7E70049E5E7B1
S31508006CA000F8FF070049E1E700F8FF070368996C59
S31508006CB041B190F87139034493F97619013118BF37
S31508006CC001214900006E16F070B90346002110B480
S31508006CD000F1100253F8044F0CB10131C9B29342C6
S31508006CE0F8D1006E5DF8044B16F05FB90021006E0E
S31508006CF016F05BB90421006E16F057B990F8E0104B
S31508006D00006E16F052B99C21006E16F04EB902219B
S31508006D10006E16F04AB9232070477F290B46F7B54F
S31508006D201ED9B1F5804F1DD3B1F5001F1CD3B1F1A3
S31508006D30805F2CBF052204226E4600243146571E6A
S31508006D40BC42DDB212D104F108030DEB030405F0D1
S31508006D507F0504F8085C006816F00CF903B0F0BD6E
S31508006D600122E9E70222E7E70322E5E765F07F0566
S31508006D7006F8015BDB090134E2E72DE9F04705680F
S31508006D80044695F81C900E46B9F1020F25D0AB6A59
S31508006D90D0F82C80984523D14B464146EA6A2846C6
S31508006DA0FFF720FFD4F828A007464B46524641462F
S31508006DB02846FFF717FF874212D9C5F82CA094F882
S31508006DC025300021204684F82430FFF7A6FF28B98D
S31508006DD031462046BDE8F0479FE70D20BDE8F0871D
S31508006DE00720FBE702216030C7E7D0F8AC10603017
S31508006DF093E710B500F1600404212046FFF78DFFE4
S31508006E0020B92046BDE81040032186E710BD0321BE
S31508006E10603082E7002160307FE710B500F160043A
S31508006E2005212046FFF779FF40BB0C212046FFF7D6
S31508006E3074FF18BB18212046FFF76FFFF0B922210F
S31508006E402046FFF76AFFC8B940F201212046FFF73E
S31508006E5064FF98B940212046FFF75FFF70B94121CA
S31508006E602046FFF75AFF48B942212046FFF755FF4B
S31508006E7020B92046BDE8104043214EE710BD0B213E
S31508006E8060304AE70421603047E750F8603BB3F8C2
S31508006E90581041F0340140E713B50446684619F026
S31508006EA01FF908226946206E16F064F802B010BD74
S31508006EB001680822006E623116F05CB80368006E3D
S31508006EC0996C003918BF012116F052B890F871393B
S31508006ED0034493F86A19006E16F04AB80021006E4A
S31508006EE016F046B890F87139034493F87A19006E8B
S31508006EF016F03EB808B50BF007F8002008BD10B527
S31508006F003AF010FC114B8342114B8B411DD3114BA8
S31508006F101A68D2B14FF47A74A0FB040304FB01315A
S31508006F20531E13420DD1B2FA82F2C2F11F04531C4A
S31508006F30D243E04001FA03F3184321FA02F2104360
S31508006F4010BD002330F08CFBFAE7FEE7EFA7C64B2F
S31508006F50378941000412002007B50A4600B9FEE742
S31508006F60037F03B1FEE7074B0190009341680123B5
S31508006F704FF0FF3037F07FFB00B1FEE703B05DF856
S31508006F8004FB00BF072A04084FF0FF3037F0F0BFB4
S31508006F9000B9FEE741684FF0FF3037F077BB70B5B0
S31508006FA0044600B9FEE7038B428B9A420CD90022AD
S31508006FB0013303830277D0E9025398472B460146EB
S31508006FC02046BDE870401847036A01330362FFF79D
S31508006FD0E2FABDE870400AF05BBF2DE9F8430D46BA
S31508006FE01446064600B9FEE7FFF7D5FA336998470F
S31508006FF000272D1947EB07032C1A63F10005012C0E
S3150800700075F1000309DA336A304601333362FFF754
S31508007010C2FABDE8F8430AF03BBFD6E902839847AF
S31508007020A04277EB05031CD2F36898473B46024615
S315080070302946204630F014FBF368914698473B46AC
S3150800704002462946204630F00BFB4C4683B2002206
S315080070507383214630463283C04701233377BDE820
S31508007060F8833B46F3E770B50D4C054604F1480333
S31508007070C31A1E20DB10B3FBF0F32420DBB2434314
S31508007080E658E01806B9E550EFF31184302383F388
S315080070901188FFF7A2FF84F31188BFF36F8F70BDC5
S315080070A0C817002070B50E4C0546A4F5F073C31A30
S315080070B01E20DB10B3FBF0F32420DBB24343E65873
S315080070C0E01806B9E550EFF31184302383F31188ED
S315080070D0FFF783FF84F31188BFF36F8F70BD00BF7E
S315080070E0F019002038B5124C2378E3B1E9B11568D8
S315080070F01049284631F05BFD014668B9D4F87C0290
S3150800710037F0F3FF10B90024204638BD0124214684
S31508007110094814F007FFF7E72846084931F047FD04
S3150800712018B90121EAE70D24F1E70724EFE700BFC4
S31508007130C01700209F2E040888300408A62E0408CD
S3150800714010B50F4B1B7893B1B9B114680D49204699
S3150800715031F02DFD20B915F0F5FE0024204610BDAE
S315080071602046094931F023FD38B90120F3E70D24FB
S315080071702146064814F0D6FEF0E70724F8E700BFD4
S31508007180C01700209F2E0408A62E0408883004087D
S3150800719037B5094D04460DF10601D5F87C0237F0DE
S315080071A06BFC38B9034622469DF80610D5F87C02D2
S315080071B026F090F803B030BDC01700201FB5002395
S315080071C0CDE901330393FF230C4C8DF80430D4F832
S315080071D07C0237F08AFA70B90DF10201D4F87C0204
S315080071E037F04AFC9DF80210D4F87C0201AA37F061
S315080071F0C3FA00B1FEE704B010BD00BFC0170020F7
S3150800720010B5A9B114680B492046FFF741FA38B101
S315080072100020FFF7BDFF08B1012010BD0020FCE7E4
S3150800722020460549FFF734FA10B1FFF7C7FFF2E722
S315080072300720F2E7DC2E04089D30040810B5A1B13A
S3150800724014680B492046FFF723FA30B10120FFF7EF
S315080072509FFF003818BF012010BD20460549FFF7DB
S3150800726017FA10B1FFF7AAFFF3E70720F4E700BF04
S31508007270DC2E04089D30040838B5104B0D4603F182
S315080072805002841A1E22E410B4FBF2F4E4B203EBB3
S315080072904402A2F88212D3F87C02224637F0E3FEB3
S315080072A000B1FEE74FF6FF739D4206D00123044A5C
S315080072B001341178A3400B43137038BDC017002062
S315080072C0C877002073B505460DF106019030FFF723
S315080072D0E5F8044658B92D68AB6C5BB1BDF8066095
S315080072E06B6D3146D869FFF7C7FFA5F8466020469B
S315080072F002B070BD0D24FAE708B5084B03F1500239
S31508007300821A1E20D210B2FBF0F2D3F87C02D2B257
S3150800731037F0BFFE00B1FEE708BD00BFC01700206A
S3150800732037B505460DF106019030FFF7B7F8044664
S3150800733050B92B689A6C52B1BDF80610A3F85E10C6
S315080073405B6DD869FFF7D8FF204603B030BD0D2422
S31508007350FAE7084B03F52272D2E8AF2FD20707D413
S3150800736093F8882222B9C3F88C22012283F888224E
S3150800737001487047C01700204C1A0020102200212F
S3150800738031F0BFB92DE9F04705468EB00AAE304652
S3150800739006AF1C46894690460DF1080AFFF7EEFF30
S315080073A03846FFF7EBFF5046FFF7E8FFAB68002BC0
S315080073B04ED02346344603F1100C22461868596805
S315080073C0083303C263451446F7D13C46169B03F1BE
S315080073D0100C224618685968083303C263451446D8
S315080073E0F7D15446179B03F1100C224618685968C2
S315080073F0083303C263451446F7D1B9F1080F03D021
S3150800740019F0EF0F14D0FEE705F1400485F87480F3
S3150800741096E80F0084E80F0097E80F0005F150047E
S3150800742084E80F009AE80F0005F1600484E80F006D
S315080074302B8B9B0608D56869CDF800A03B463246DB
S315080074404146C06914F000FE00200EB0BDE8F08782
S315080074500D20FAE770B5144D05F52473D3E8AF4F40
S3150800746014F0010416D195F890329BB9C5F89442E8
S3150800747005F5267630191034FFF780FFA02CF9D1D0
S315080074800B220A4B013A194603F1100304D10123D2
S3150800749085F89032064870BDD5F8940243F8100C6A
S315080074A0C5F89412EEE700BFC0170020581A00204E
S315080074B0541A0020037A012B04D0022B06D053B9A4
S315080074C00B7270470B7203880B8070470B72036848
S315080074D00B6043684B607047C830FFF7F1BAC83095
S315080074E0FFF760BA014B1878704700BFC017002035
S315080074F0024BC0E93712C3E9CE127047C017002005
S3150800750025289DBF034B03EB8003D3F8A000024850
S31508007510704700BF80330408A230040801289DBFC5
S31508007520034BC0EB001003EB00100020704700BFB0
S3150800753010180020034BC01A1E23C010B0FBF3F02E
S31508007540C0B270471018002010B5044621B10B6868
S31508007550EB2B04D8EC230B600024204610BD002832
S31508007560FAD019F071F8012384F8E430F5E7D0F879
S31508007570E80070470120704790F8E4302BB10023EB
S31508007580543080F8903015F0D3BD704708B50AF02E
S31508007590FDFD2430FFF710B87FB5002424300C70A9
S315080075A0ADF80C40ADF80E200291FFF705F8184A21
S315080075B0034682428C410BD213A3D3E9002330F051
S315080075C04FF814461349024602A8FFF7BBF82346AC
S315080075D0114C4EF66021B3FBF4F204FB1234B4FBF3
S315080075E0F1F34FF47A7601FB1344B4FBF6F50B4935
S315080075F0009502A8FFF7A6F806FB1542084902A857
S31508007600FFF7A0F804B070BD005C26050000000076
S31508007610FF5B2605B330040880EE3600B93004084F
S31508007620C830040800487047B83404080048704752
S31508007630B8340408806C003818BF0120704708B5B4
S31508007640826C3AB1436DA0F85E10D869FFF754FE14
S31508007650002008BD0D20FCE7836C3BB1B0F8603014
S315080076608B4218BFA0F86010002070470D207047A5
S31508007670014B93F880027047C017002008B5836C49
S3150800768023B108460AF090F8002008BD0D20FCE753
S31508007690836C0BB115F040BD0D207047006F704725
S315080076A0B0F8580040F034007047836C23B1034BA0
S315080076B0002083F8401370470D207047C01700203C
S315080076C038B5836C0D4683B3C46920460AF08CFB33
S315080076D080B20F2825D91E21164BE21AD210B2FB0A
S315080076E0F1F2D2B203EB821303F53D71002311F8D0
S315080076F02300C0B10133102BF9D14FF0FF3399B2F3
S315080077000F2914D80C4903EB021301EB830301EB91
S315080077104201B1F8822215440122A3F8425383F8A4
S315080077204423002038BD1BB2E9E70D20FAE7032001
S31508007730F8E700BF10180020C017002013B504464C
S315080077400DF106019030FEF7A9FE38B9BDF806100E
S31508007750206802B0BDE81040FFF7B2BF02B010BD06
S3150800776010B5836CCBB1C46920460AF03DFB83B2E1
S315080077700F2B14D80B4B03F15002A41A1E22E41047
S31508007780B4FBF2F4E4B200EB041003EB8003002030
S3150800779083F84403A3F8420310BD0D20FCE70A2032
S315080077A0FAE700BFC017002013B504460DF106011D
S315080077B09030FEF773FE38B9BDF80610206802B09F
S315080077C0BDE81040FFF7CCBF02B010BD10B5836C02
S315080077D08BB10A4CC369A4F2F2229B1A1E22DB1053
S315080077E0B3FBF2F3DBB24022002104EB831030F046
S315080077F088FF002010BD0D20FCE700BF021B0020FB
S3150800780073B504460068FFF7E1FF0546B8B904F109
S315080078109006B4F89830B4F896209B1A9BB2012BC0
S315080078200DD930460DF10601FEF738FE30B9BDF820
S3150800783006102068FFF744FF0028EAD005462846C8
S3150800784002B070BD10B5836C8BB10A4CC369A4F243
S3150800785072329B1A1E22DB10B3FBF2F3DBB2402214
S31508007860002104EB831030F04CFF002010BD0D20E2
S31508007870FCE700BF821B0020403083E508B5826C18
S315080078805AB1B0F85830C0F8B0109B0603D5436D0E
S31508007890D8690AF0A7F9002008BD0D20FCE710B545
S315080078A0836C3BB3D0F8B0309942B0F8583088BFF3
S315080078B0C0F8B0109B061BD5436D0F4ADB6902F171
S315080078C050001B1A1E20DB10B3FBF0F3EFF31180F8
S315080078D0302484F31188DBB202EB8313D3F84824EF
S315080078E0914288BFC3F8481480F31188BFF36F8F9D
S315080078F0002010BD0D20FCE7C017002090F84400BA
S315080079007047836C1BB180F84410002070470D2027
S315080079107047B0F84600704738B5836C04460D4684
S315080079203BB1436DD869FFF7A7FC0020A4F8465081
S3150800793038BD0D20FCE762307047B0F85E0070472E
S31508007940084618F0CDBB836C3BB190F86A3061F3FA
S31508007950000380F86A30002070470D207047012028
S31508007960704770B500254468456074B1A0688442C4
S3150800797005D1A56020466368BDE87040184783684E
S31508007980A360436885609847F0E770BD4068003893
S3150800799018BF012070470A4AB2F8C43403B9FEE793
S315080079A048F24E30D2F8C834A3FB003010EB53002F
S315080079B044BF20F000400130C2F8C804704700BF39
S315080079C0C01700208368A3B903685A6862B958606B
S315080079D0084B806093F8D824D3F8D40442F0010207
S315080079E083F8D8243AF04EBD926882605A6890604F
S315080079F058607047C01700202DE9F0419368054686
S31508007A000C46164698473246074621462846FEF74C
S31508007A1044FC6868002203466BB1A168D3F808E005
S31508007A20A1EB070CAEEB070898EA0C0F14D4A1EBF0
S31508007A300E01002908DA52B9E0606C603146284622
S31508007A40BDE8F041FEF710BC1A46DB68E4E7D368E8
S31508007A50E360D460BDE8F081BCF1000FEAE7016895
S31508007A608A6A8B6B086B934208BFCA6A03F1804324
S31508007A7004BF0132CA628B63014A30310830BBE762
S31508007A808033040801460068014A1030FEF705BC39
S31508007A908C33040870470D4B10B50128C0EB001451
S31508007AA003EB04140DD894F8E42052B903F5F073E7
S31508007AB01B1BEB2B07D9204618F0C6FD012384F8BB
S31508007AC0E430204610BD1446FBE700BF101800201E
S31508007AD0E1E700F44052B2F5005F034620D148F2D0
S31508007AE0400220F44E5020F03F0090421ED00CD8A1
S31508007AF0B0F5446F1AD005D8C8B1B0F5046018BF00
S31508007B0001207047B0F50040F9E703F44C43B3F59C
S31508007B10404F0BD04CF64043C01A18BF012070479F
S31508007B2010F4406F14BF01200020704700207047F2
S31508007B3010B58388032B12D9006815F019FB80F459
S31508007B4080720446C2F30021FFF7C3FF48B98A1CB6
S31508007B50C4F38123022B06D0032B17D02BB1FF22A7
S31508007B6012E00A1DF4E70232D2B22046FEF7EFFB16
S31508007B7008B10232D2B2C4F38134022C08D0032CE5
S31508007B8009D0002C18BFFF22104610BD0832EBE7BB
S31508007B900232D2B2F8E70832FBE710B5838804460A
S31508007BA0022B07D9006815F016FB18B12046BDE868
S31508007BB01040BDE7FF2010BD70B50546FFF7B8FFBA
S31508007BC0FF28044611D02E68304615F004FB60B134
S31508007BD0A9888C420BDA305DFEF7EEFBFF2808D049
S31508007BE00444E4B2A142B8BFFF24204670BDFF2476
S31508007BF0FBE70446F9E738B505460C46FFF7CDFF1F
S31508007C00FF2817BF2B6806201B5C00201CBF03F04B
S31508007C100703237038BD38B505460C46FFF7BDFF88
S31508007C20FF2817BF2B6806201B5C00201CBF03F02B
S31508007C301803237038BD38B505460C46FFF7ADFF67
S31508007C40FF281FBF431C2A68DBB2D3581ABF00207F
S31508007C502360062038BD38B505460C46FFF79DFF5C
S31508007C60FF2800D1FEE72A68431CD9B2545452FAB9
S31508007C7083F3220A5A70220C240E9A70DC702B7F2A
S31508007C8043F001032B7738BD70B506460D46FFF75E
S31508007C9084FFFF28044609D03268105CFEF76BFBA8
S31508007CA022440244002053792B7070BD0620FCE75D
S31508007CB070B506460D46FFF770FFFF28044600D14B
S31508007CC0FEE73268105CFEF756FB22440244557103
S31508007CD070BD10B50446FFF760FFFF2806D023687D
S31508007CE0185CFEF754FB0230C0B210BD0220FCE758
S31508007CF02DE9F0410746FFF75FFFFF280446804657
S31508007D0044D03D68284615F033FA830506462ED535
S31508007D103846FFF7DEFFB988A21C93B210FA82F242
S31508007D208A4205EB04072FDC2A5D02F07F02134422
S31508007D309CB210FA83F3994226DB3A88C2F3C7123B
S31508007D407F2A01D09942E7DC2B7803F00703032B3F
S31508007D5004D106F44056B6F5005F12D15FFA84F8EE
S31508007D60B8F1FF0F12D005EB0800BDE8F0812B78BB
S31508007D7003F00703032BF6D100F44056B6F5005F6F
S31508007D80F1D00134A4B2E9E7FF24E7E70020ECE7E5
S31508007D9010B50446FFF7ACFF2368C01AC0B210BD81
S31508007DA070B505468688FFF7F3FF04462846FFF7B1
S31508007DB090FF0444301B80B270BD01F1080313F82C
S31508007DC0012D8B4200F8012BF9D1704713B5836C4E
S31508007DD00446002B42D06846FFF7EFFFE469694680
S31508007DE020460AF027F880B20F2830D91E211C4AEF
S31508007DF0A31ADB10B3FBF1F3DBB202EB831202F535
S31508007E005D71002211F8220020B30132102AF9D13F
S31508007E104FF0FF3291B20F291ED8124902EB031216
S31508007E2001EB430001EB8202BDF80030BDF80210F9
S31508007E30B0F882020B44BDF804100B44BDF80610D6
S31508007E400B440344A2F8C233012382F8C43300204A
S31508007E5002B010BD12B2DDE70320F9E70D20F7E7FF
S31508007E6010180020C017002013B5836C044603B30E
S31508007E706846FFF7A2FFE4696946204609F0DAFF7B
S31508007E8083B20F2B13D80C4B03F15002A41A1E22EF
S31508007E90E410B4FBF2F4E4B200EB041003EB800345
S31508007EA0002083F8C403A3F8C20302B010BD0A2059
S31508007EB0FBE70D20F9E700BFC0170020F8B50768F3
S31508007EC00E46384615F054F90546384615F052F967
S31508007ED004462846FFF7FDFD08B10234E4B2C5F3AF
S31508007EE08123022B12D0032B13D02846FEF72FFA34
S31508007EF008B10234E4B2FF2C06D0C5F38135022D51
S31508007F0009D0032D0DD04DB1062009E00234E4B2A4
S31508007F10EBE70834FBE701253B5B3380002035722D
S31508007F20F8BD30463919FFF748FF0225F6E713B5BD
S31508007F3004466846FFF741FF1E210E4B2268D21AF7
S31508007F40D210B2FBF1F2072103F2AB43D2B203EB34
S31508007F50C2031DF80100013903F8010BF9D2064BDB
S31508007F606946D3F87C0237F0AAF800B1FEE702B0FA
S31508007F7010BD00BF10180020C017002008B5826C7D
S31508007F805AB10A68C0F862204A68C0F86620406D8F
S31508007F901C30FFF7CCFF002008BD0D20FCE738B5E4
S31508007FA04FF6FE730025044643818381C38AC58044
S31508007FB003F0FE0343F4FE4343F00103C382057254
S31508007FC0C0F80E50C0F8125085612C30FFF7D6F96C
S31508007FD004F13C00FFF7D2F904F14C00FFF7CEF9A3
S31508007FE0E565A4F8605004F16400BDE8384049E549
S31508007FF02DE9F04FC4690546A7B0206815F0EBF8DF
S31508008000002800F0A081237FD80600F19C81204635
S315080080100DF10A01FFF7FFFD002840F09481237F48
S31508008020D90704D4204695F86010FFF741FEAB88BF
S315080080309A0600F188819DF80A30082B40F0838162
S31508008040EB6905F13C029A60E869037FDB0708D40F
S31508008050EC6D2146FFF7FFFDEB6D9C4224BF013412
S31508008060EC6500212823EC690AAE242230460391E8
S315080080700896ADF8243030F044FB206815F0ABF8CC
S31508008080002800F0598120460DF10B01FFF7B3FDDA
S31508008090002840F05181204603A9FFF7CCFD0028AF
S315080080A040F04A81039BD5F80E00D5F812101ABA8B
S315080080B09DF80B7004AB03C3069230468022A16874
S315080080C08DF81C7011F099FD814650B92046FFF7CE
S315080080D000FEA0F102085FFA88FB18F0010801D03B
S315080080E0FEE7FEE70638C0B20C28F9D82046FFF7A7
S315080080F057FE4546824603466A1C002B40F09F8081
S31508008100EDB2022D38BF02252046022DC5F10F0615
S3150800811018BFF6B2FFF73CFE021E18BF0122013D4A
S31508008120ABF10203EDB25B1045EAC30343EA8213DF
S3150800813004A9324607460DF151008DF8503030F04B
S31508008140FFFC52460F2318A99E427BD314AA114658
S3150800815008A8FEF73BFB37B14FF002089DF85130EF
S315080081607B408DF85130324604A90DF161008DF837
S31508008170605030F0E5FC08AB06F14100C6F10F028D
S315080081800021184430F0BDFA10238DF894600026BB
S315080081902046CDE9216A20972396ADF89080ADF860
S315080081A092308DF895B0FFF7F3FD874205464FD319
S315080081B0276800EB0708B8454BD1219B1D44209B37
S315080081C021959D420AD1BDF8903023B114AA1146D3
S315080081D008A8FEF7FBFA0023ADF890302046FFF713
S315080081E0DFFD239B229A0344934205464BD820463B
S315080081F0FFF77EFD00270646824600EB0508D045B8
S3150800820042D1239B1D44229B23959D4212D3BDF840
S31508008210903023B114AA114608A8FEF7D7FA9DF89C
S31508008220942008AB02F141000021C2F10F02184464
S3150800823030F067FADDE922329A4267D0FEE7154642
S315080082401B0A59E7013B01F8012DDBB2120A7BE74D
S31508008250FEE7BDF89030102B06D114AA114608A8DF
S31508008260FEF7B4FAADF89060BDF890305A1C983312
S315080082706B44ADF8902017F8012B13F8481C4A40B8
S3150800828003F8482C97E7FEE7BDF89230102B12D179
S315080082901CA90F200A469DF894C0604505DD11F813
S315080082A0013D0133DBB20B7073B318A908A8FEF7BA
S315080082B08DFAADF892701AF8013B5EB1BDF89220BE
S315080082C0511C98326A4412F8282CADF892105A407C
S315080082D00AF8012CBDF89020102A08D114AA1146D4
S315080082E008A80193FEF772FA019BADF89070BDF8E5
S315080082F09020511C98326A44ADF8901012F8481C28
S315080083004B4002F8483C7AE70138C6E72046FFF7B3
S31508008310E0FCA6882568361A1CAA08A818A9FEF73C
S3150800832055FA0DF14F03A8199DF8952091450DDBD7
S31508008330237F43F010032377BDF82430232B0FD96E
S31508008340089811F04BFC27B0BDE8F08F13F8012F01
S3150800835009F1010993F820104A4000F8012BE3E7D8
S31508008360FEE7036810B55A1E114603628B4211D800
S3150800837041620221017700210163A1F58031C0E93C
S315080083800A33C0E90D13934207D8C0E90F23C0E9A1
S31508008390113310BD04892144E8E701890A44F2E74C
S315080083A0012B10B5044608460AD0022B0FD01BB97C
S315080083B063681044834200D910BD2289801AF9E700
S315080083C02368881A8342F7D922891044FAE79C2140
S315080083D0024B034A034818F059FA00BF912F0408C4
S315080083E0CE300408F12F04082DE9F04790F8242030
S315080083F012B90D20BDE8F087013A0568D2B280F8B7
S31508008400242095F81C90B9F1020FF2D000EBC204B3
S31508008410AB6AA6689E42ECD1D5F82CA031464B46ED
S3150800842052462846FEF7DEFB6768804631464B46CD
S315080084303A462846FEF7D6FB80450646D9D94B4626
S31508008440524639462846FEF7CDFB0128D1D90236D1
S31508008450464512DC841EA4B23C702B7F01223946A5
S315080084602846FFF79DFF240A047001460122284684
S315080084702B7FFFF795FF0020BCE70720BAE71346D6
S3150800848010B501220C78FFF78BFF03782402E01859
S3150800849080B210BDC26B436A9A4205D1836B006AEB
S315080084A01B1A5842584170470020704790F83530DB
S315080084B033B9C36B426A9B1A18BF012380F834305C
S315080084C07047416AD0E90E23994209D1017F0129F3
S315080084D006D0531E026893420ED34362C3637047A5
S315080084E0016A914207D1027F2AB142680133934259
S315080084F005D203628363704701890B44EBE7018960
S315080085005B1AF4E7037F022B06D0083350F82330B2
S31508008510C0E90A3302230377D3E7F8B5047F054693
S31508008520022C0E4605D1E6210D4B0E4A0E4818F0D0
S31508008530ADF92346B4FA84F4C76A01223946FFF72F
S315080085402FFF6409083455F82430834203D03E705F
S31508008550E8620020F8BD2846FFF7D4FF0320F9E7B4
S31508008560213104083D310408F12F040870B5D0E91B
S315080085700A239A4205461DD1037F0021083350F885
S315080085802360B31A5E425E41FFF7C7FFF60304464F
S3150800859070B901462846FFF7C0FF044640B9A96AE4
S315080085A0360A2B7F012228460E70FFF7F9FE047063
S315080085B0204670BD0024FBE738B5037F0446022B2E
S315080085C00D4607D0FFF7D2FF28B929462046BDE851
S315080085D03840A2E70D2038BD38B504460D46006878
S315080085E0C9B2FFF7E9FF20B92068290ABDE8384073
S315080085F0E2E738BD50F8603BB3F84610ECE750F8B0
S31508008600603BB3F85E10E7E7B0F8B4106030E3E714
S3150800861038B504460D460068C9B2FFF7CDFF80B9E4
S315080086202068C5F30721FFF7C7FF50B92068C5F3CF
S315080086300741FFF7C1FF20B92068290EBDE8384079
S31508008640BAE738BD036893F8443093B10A2B08D8C3
S315080086504FF4FA62534303F55C2101F53461603047
S31508008660D6E7192B07D841F28832044902FB0311D1
S31508008670F5E70349F3E70021F1E700BFB0DB230084
S31508008680CC3F0D0070B5D1B20446006816461D46AB
S31508008690FFF792FF30BB2068C6F30721FFF78CFF70
S315080086A000BB2068C6F30741FFF786FFD0B92068EC
S315080086B0310EFFF781FFA8B92068E9B2FFF77CFF02
S315080086C080B92068C5F30721FFF776FF50B92068FF
S315080086D0C5F30741FFF770FF20B92068290EBDE8EA
S315080086E0704069E770BD00F51A6353E902236030EC
S315080086F0C8E738B5044608460D4630F095FA4FF6F1
S31508008700FF73984228BF1846294682B2206814F09B
S3150800871031FC014618B92068BDE838404CE738BD39
S3150800872001496030E5E700BFB834040870B590F831
S3150800873024500446032D1DD80668337F022B19D012
S315080087403046FFF713FFA0B9F36A04EBC5056B6063
S31508008750B36A0146AB602068FFF72EFF48B90146A9
S315080087602068FFF729FF20B994F82430013384F8EC
S31508008770243070BD0D20FCE72DE9F8430646174660
S315080087800C4600F16005D9B1AAB9B1F80480D1F850
S31508008790009028464146FFF71FFF10B10120BDE8AB
S315080087A0F88342464946306E14F0E4FB0028F5D1BA
S315080087B094F915100AE000212846FFF70DFFF5E7A2
S315080087C02846FFF709FF0028E8D12146306EC9B2CE
S315080087D014F0EBFB0028E1D18021306E14F0E5FBA4
S315080087E00028DBD1002C5BD0E37D03F001019B0759
S315080087F04FEA011101D541F020012846FFF7ECFEAA
S315080088000028CBD12846FFF791FF01460028C5D19D
S3150800881004B1A179306E14F0C8FB01460028BDD119
S3150800882004B1A17D306E14F0C0FB0028B6D1002C2F
S3150800883038D0D4E902232846FFF724FF0028ADD113
S315080088402846FFF7D1FD0028A8D12846FFF76EFF76
S315080088500028A3D139462846FEF75FFA00289DD19D
S315080088602846FFF7C1FD002898D12846FFF75EFF86
S315080088700146002892D104B1217D306E14F095FB93
S3150800888000288BD18CB121692846FFF7C1FE002844
S3150800889084D12846FFF7A8FD003818BF01207EE7D7
S315080088A02146AAE700220023C5E72146ECE710B5D2
S315080088B0C38802895C1C944297BF02680620D35C71
S315080088C00B709FBFC3880133C380002010BD13B54A
S315080088D00C460DF10701FFF7EAFF28B99DF80730A6
S315080088E023B1012B04D1237002B010BD0346FAE769
S315080088F00620F9E713B504460DF107019030FFF796
S31508008900E6FF38B99DF80710206802B0BDE81040A8
S31508008910FFF719B802B010BD07B590300DF1070181
S31508008920FFF7D5FF28B99DF807300BB9024A5370EF
S31508008930012003B05DF804FBC877002010B590F855
S315080089407119044601F67A1101449030FFF7BFFF0A
S3150800895048B994F871392068234493F87A19BDE820
S315080089601040FEF7A2BE10BD002313B504460DF154
S31508008970070190308DF80730FFF799FF30B99DF859
S31508008980071031B10139012902D9072002B010BDFB
S315080089900121206802B0BDE81040FEF76FBEF7B5AA
S315080089A004460025012700F19006B4F89620B4F88D
S315080089B098309A4204D10020C4F8B05003B0F0BDF4
S315080089C030460DF10701FFF772FF0028F6D19DF832
S315080089D007301F2B03D807FA03F31D43E5E70720E3
S315080089E0ECE713B504460DF107019030FFF75FFF7A
S315080089F050B99DF8073003F0030304EB830463685A
S31508008A00002B14BF23200C2002B010BD13B50C4652
S31508008A100DF10701FFF74BFF10B99DF807302370DA
S31508008A2002B010BD002307B590300DF107018DF88F
S31508008A300730FFF7EBFF18B99DF80720024B9A702D
S31508008A4003B05DF804FB00BFC8770020002337B5E4
S31508008A5005460DF1070190308DF80730FFF7D6FF70
S31508008A60044690B90A4A2B6802F150015B1A1E2186
S31508008A70DB10B3FBF1F352FA83F39DF8072083F872
S31508008A800B2513F08DFA08F09FFE204603B030BD83
S31508008A90C017002007B590300DF10701FFF7B6FFA4
S31508008AA0002808BF0C2003B05DF804FB73B500F17D
S31508008AB0900605460DF107013046FFF7F8FE044615
S31508008AC008BB30460DF10601FFF7A0FF0446D0B9F2
S31508008AD09DF80710A1F10B030F2B17D80C4A2B682A
S31508008AE002F150001B1A1E20DB10B3FBF0F3DBB2B9
S31508008AF002EB03129DF806300A4482F8023513F099
S31508008B004FFA08F061FE204602B070BD0724FAE766
S31508008B10C017002070B5C4880389221D9A4211D84F
S31508008B2005682A19937856782C5D1B04D27843EA8F
S31508008B300623234343EA02630B60C3880433C380D6
S31508008B40002070BD0620FCE7002337B500F190052C
S31508008B50044601A928468DF80330FFF7DBFFE0B984
S31508008B60B4F89620B4F898309A420FD028460DF1FA
S31508008B700301FFF7ACFE80B99DF803302068019920
S31508008B8023B103B0BDE83040FEF789BE01992068DD
S31508008B9003B0BDE83040FEF771BE03B030BDF0B596
S31508008BA00024C288036807899E182346BF1A9F4275
S31508008BB0C3EBC30E12D0052B10D016F803C0013331
S31508008BC00CF07F0505FA0EF51CF0800F44EA050443
S31508008BD0EDD11A44C28000200C6000E00620F0BDEA
S31508008BE02DE9F341044601A99030FFF7D8FF98BB59
S31508008BF0034605464FF0010CDDF804E0184991F8E4
S31508008C000880B8F1000F1FD00A6896451CD1D4E930
S31508008C103676A3F12002C3F120052CFA05F50CFAE5
S31508008C2002F22A430CFA03F52F431643C4E93676B3
S31508008C30D4E9347627EA050726EA0206C4E9347633
S31508008C40BEF1000F08D1454601331F2B01F10C0177
S31508008C50D5D1002D08BF072002B0BDE8F08100BFBE
S31508008C60FC3404082DE9F341044601A99030FFF7C6
S31508008C7096FF60BB034606460125DDF804E0154964
S31508008C8091F80880B8F1000F19D00A68964516D1F0
S31508008C90A3F12002C3F1200625FA06F605FA02F228
S31508008CA0324305FA03FCD4E9367627EA0C0726EAA6
S31508008CB00206C4E93676BEF1000F08D146460133EE
S31508008CC01F2B01F10C01DBD1002E08BF072002B0D3
S31508008CD0BDE8F081FC34040830B5C4880389A518BA
S31508008CE09D42D7BF036806201B190B60DFBFC388E8
S31508008CF0D218C280002030BD37B50546082201A922
S31508008D009030FFF7E9FF044668B92B689A6C6AB198
S31508008D100199586D0A681C30C3F862204A68C3F87E
S31508008D206620FFF704F9204603B030BD0D24FAE7A4
S31508008D3073B504460068FEF785FD0546B0B904F12B
S31508008D409006B4F89830B4F896209B1A9BB2072B75
S31508008D500CD90822304601A9FFF7BEFF28B90199A8
S31508008D602068FFF733F80028EBD00546284602B0FE
S31508008D7070BD13B50822044601A99030FFF7ACFF71
S31508008D8030B90199206802B0BDE81040FFF76CB809
S31508008D9002B010BD002313B50822044601A990307D
S31508008DA00193FFF799FF30B90199206802B0BDE831
S31508008DB01040FFF70BB802B010BD2DE9F34100F1E2
S31508008DC0900528460DF10201FDF768FB044690BBA5
S31508008DD00822284601A9FFF77FFF044658BB8DF8ED
S31508008DE001000DF101012846FFF761FD044610BB9D
S31508008DF09DF80130019FBDF80260C3F3C00203F07D
S31508008E00010103F00F08002F3BD019B913F0060F24
S31508008E1000D14AB1FEF79DFA0568DDB9FEF71AFBDF
S31508008E200568E5B9032406E0FEF793FA02682346C7
S31508008E30154625B91724204602B0BDE8F081E98811
S31508008E40B14220D02B462D68F3E71A6802B31268A0
S31508008E501A601DE0EB88B3420BD02D68DDE72B685E
S31508008E6003602846FEF78AFAFEF773FA03682B6052
S31508008E70056085F80480EE803B68AB607B68EB6034
S31508008E80D9E70724D7E7002BDFD10AB113680360B7
S31508008E90FEF7E0FA03682B600560CCE7F7B50E46E7
S31508008EA00DF1060105461446FDF7F8FA40B9BDF876
S31508008EB0067031463A462846FFF70EFF00B9278066
S31508008EC003B0F0BD70B500F1900486B005460DF10B
S31508008ED009012046FFF7EBFC20B99DF80960082E2A
S31508008EE002D0072006B070BD204602A9FFF7DFFCB6
S31508008EF00028F7D120460DF10A0205A9FFF7CEFF93
S31508008F000028EFD1BDF80A30102BEAD120460DF122
S31508008F100A0204A9FFF7C2FF0028E3D1BDF80A3008
S31508008F20102BDED120460DF10A0203A9FFF7B6FF82
S31508008F300028D7D1BDF80A30102BD2D1039B286858
S31508008F400193049B314600939DF80820059B403009
S31508008F50FEF718FAC6E72DE9F04111F00F080446A6
S31508008F600E4617461D46006829D0002384F824308B
S31508008F70FFF7C8FA01230377436AC0E90A33314683
S31508008F80206814F012F818BB39462046FDF7C5FECE
S31508008F90F0B92668337F022B19D03046FFF7E6FA78
S31508008FA0B0B9F36A2946A362B36A2046E36294F825
S31508008FB0243084F82530BDE8F041FDF7AEBE84F8CC
S31508008FC02480FFF79FFA036A80F81C80D5E70D20F6
S31508008FD0BDE8F0812DE9F041044694F82460002E9E
S31508008FE034D1246894F81C80B8F1020F39D0A76AE6
S31508008FF0434639462046E26AFDF7F4FD0128054650
S315080090002DD9424639462046FFF739FA023DC5F3BF
S315080090100D05284385B2C0F3072043463870012260
S3150800902039462046FFF7BCF90570E36AA362227F3A
S31508009030A06A04EB8203196A21631862E56815B110
S3150800904023462069A8470223237705E02046FFF731
S31508009050CBF906460028C0D03046BDE8F081E76265
S31508009060E5E70D26F8E730B50546D2F8A009144617
S315080090700B462A46C1B0A0B1B4F8A41917F0F6FFFA
S3150800908000280CDDB4F8A439D4F8A0299842A8BF62
S31508009090184602441B1AC4F8A029A4F8A43941B0FA
S315080090A030BD4FF48071684617F0E0FF0028F6DB04
S315080090B060344FF46F53062280212046FFF74BFF9A
S315080090C00028ECD169462046FFF713FB0028E6D1B5
S315080090D02046FFF77FFFE2E7F8B50F4B0C465F68BF
S315080090E01546FDF729FA000160F07F0007F16006D2
S315080090F000F0F001712306223046FFF72CFF48B92D
S315080091002A4621463846FFF737FB18B93046BDE8E8
S31508009110F8405FE7F8BD00BFC0170020002330B550
S31508009120174A146824BB5468A14221D1C3F120040C
S31508009130D0E90225A3F1200105FA04F4DA40224316
S3150800914025FA01F10A4312F0010FC3F12004A3F135
S3150800915020020CD1012121FA04F401FA02F2224379
S315080091609940D0E900430C431343C0E9004330BD9E
S315080091700133DBB21F2B02F10C02D2D1F7E700BF95
S31508009180FC3404081C282ED8DFE800F00F30111331
S315080091902D1517192D2D2D2D1B1D1F212D2D2D2775
S315080091A02D2D2D25232D2D292B00002070470E202F
S315080091B070470B2070470C20704709207047032022
S315080091C0704702207047042070471120704712200C
S315080091D070471320704714207047162070471720D1
S315080091E070471820704700F5804070470120704787
S315080091F0024B006E997813F0D8BE00BFC8770020DE
S3150800920010B5064B0446D3F87C0224F003FFC1B21E
S31508009210206EBDE8104013F0C8BE00BFC01700207E
S31508009220024608B50C20FFF7ADFFBDE80840014629
S3150800923002F16000FDF7A1BD024608B50C20FFF754
S31508009240A1FFBDE80840014602F16000FDF795BDA3
S315080092502DE9F04F5B4B8FB0D3F83025D3F8341592
S315080092600192D3F8442500F160040C92D3F85025F6
S3150800927005460B92D3F8542520460992D3F858256B
S31508009280D3F838B50A92D3F85C25D3F83CA50792EB
S31508009290D3F86025D3F840950892D3F86425D3F817
S315080092A048750592D3F86825D3F84C650692D3F825
S315080092B06C250D910392D3F870250492D3F8742582
S315080092C0029293F87885FFF731FA002877D120467D
S315080092D00D99FFF79DF9002871D159462046FFF7E9
S315080092E097F900286BD151462046FFF791F90028D7
S315080092F065D149462046FFF78BF900285FD12046FD
S315080093000C99FFF785F9002859D139462046FFF709
S315080093107FF9002853D131462046FFF779F900280E
S315080093204DD120460B99FFF773F9002847D12046FF
S31508009330FFF75AF8002842D12046FFF7F7F9002828
S315080093403DD120460999FFF763F9002837D1204611
S315080093500A99FFF75DF990BB20460799FFF758F978
S3150800936068BB20460899FFF753F940BB2046059984
S31508009370FFF74EF918BB20460699FFF749F9F0B9E9
S3150800938020460399FFF744F9C8B920460499FFF720
S315080093903FF9A0B920460299FFF73AF978B920466D
S315080093A0FFF722F858B94146286E13F0E1FD30B9A7
S315080093B0204601990FB0BDE8F04FFFF729B90FB065
S315080093C0BDE8F08FC01700202DE9F74F0E46174667
S315080093D09846FDF7B1F8032800D9FEE7344B5D68D7
S315080093E005EB000A9AF87249002C40D044EA0014AA
S315080093F064F07F04E4B28FB3386813F0B9FEC0F3A3
S31508009400001B002396F81C908AF8723905F1600A49
S3150800941006222146504609F00109FFF79CFD30BB9C
S315080094204046FFF7AFFE01465046FDF776FCF0B919
S315080094305946286E13F09CFDC8B94946286E13F0A4
S3150800944097FDA0B9B8F1000F0AD0306813F0C3FE33
S3150800945080B9504603B0BDE8F04FBBE5BB46D0E740
S31508009460424639462846FFF787F90028EDD003B06B
S31508009470BDE8F08FB9F1000FEBD030460DF10301CE
S31508009480FEF702FC0028F2D1304601A9FEF7D3FB0D
S315080094900028ECD19DF80310286E13F086FD0028ED
S315080094A0E5D150460199FFF7B3F80028D1D0DEE799
S315080094B0C01700202DE9F8430C4614F00F0817468C
S315080094C0194604F00F0C06D1022A02D1D030FFF754
S315080094D025FE00200CE090F8EE6890F8EDE8A6EB83
S315080094E00E030E2B06DDD0300E21FFF717FE0320E4
S315080094F0BDE8F883C4F30112841894F8E9481346C2
S3150800950044453DD133460E2B3ED842F0400203F582
S315080095108F7342EA8C0230F8334042EA072222F07F
S315080095208002920524F45F74920D24F0030422430A
S3150800953020F8332000EBC3056B68013661F3170387
S315080095406B6080F8EE68C4E70F3CE4B20E2CFBD8DB
S3150800955004F58F7410F8345015F0400F0CD005F050
S3150800956003094B4508D1C5F38309C14504D16FF3F7
S31508009570861500F83450C5E70EF1010E5FFA8EFE27
S315080095807645BFD97446E1E70F3BDBB2BBE7134626
S3150800959002228FE738B511F0300F00F1600408BFDA
S315080095A0C0F8AC201546002306222046FFF7D3FC58
S315080095B040B929462046FDF7B0FB18B92046BDE854
S315080095C0384007E538BDF0B500250446C1B0FC2291
S315080095D00E4601A8294600952FF093F8B4F8963060
S315080095E0B4F898205F1C974234D8D4F89010D21A51
S315080095F0C91892B22BD02B4601F1FF3C98B2904283
S3150800960028D201331CF80350002DF7D14FF480738C
S315080096103844A4F896002068C4F8A0D9A4F8A43958
S31508009620C830FDF74DFAE8B904F160054FF46F53F9
S31508009630062231462846FFF78EFC98B96946284621
S31508009640FFF757F870B92846FFF7C4FC0AE00AB1D5
S315080096500846DBE70620FFF795FD31460246204619
S31508009660FFF798FF0023C4F8A039A4F8A43941B03D
S31508009670F0BDF0B504460C260020013A82420DD80A
S3150800968070430A1809588B4215BF0023D2E9010115
S31508009690C4E90033C4E900012046F0BD15186D0879
S315080096A006FB05F7CF599F422CBF2A46681CE5E7FB
S315080096B02DE9F0438BB005460E46144698465149A7
S315080096C0134602A82D22FFF7D4FFDDE902793FBB36
S315080096D019F0010F24D1A4F57053B3F5806F43D266
S315080096E005F160072346062231463846FFF733FC64
S315080096F000285FD143F601439C4235D10DF107019D
S3150800970005F19000FFF7D3F870BB9DF80730082BDA
S315080097102AD8DFE803F020203320373C3F445200A4
S3150800972005F160082346062231464046FFF713FC3A
S3150800973000283FD119F0010F4FEA690318BFEB580B
S3150800974005EB690018BFDF59B84798BB40460BB010
S31508009750BDE8F0433EE40021286E13F026FC0446DB
S3150800976000284BD017281BD1B8F1000F48D00D227E
S31508009770314628460BB0BDE8F0430BE7224B93F879
S315080097809815E9E700213846FEF742FFE7E76FF448
S315080097904071F8E70021286E13F0EAFBDFE70124A1
S315080097A02046FFF7EFFC01463846FDF7E6FA17288C
S315080097B0DAD018B30BB0BDE8F0830624124B0DF1CE
S315080097C01009D3F89C250492D3F8A0250592D3F85E
S315080097D0A4250692D3F8A8250792D3F8AC25D3F882
S315080097E0B03508920993384659F8041BFEF710FF5E
S315080097F00028B4D1013C14F0FF04F4D13846A6E79A
S315080098004246B5E770360408C017002070B504460E
S31508009810002694F8ED5894F8EE38AB4201D10020B2
S3150800982034E005F58F7514F835305A0616D414F851
S3150800983035306FF3861304F8353094F8ED38013374
S31508009840DBB20F2B84F8ED38E3D194F8EE3884F8C0
S31508009850ED680E2B22D884F8EE38DAE7C3F3010256
S31508009860C3F3830141EA021104EBC5025378526837
S3150800987003F0030361F07F01022BC9B2C2F317029A
S3150800988005D12046FFF786FE0028D0D070BDB3FA72
S3150800989083F320465B09FFF70BFFF5E70F3BDBB2C7
S315080098A0D7E72DE9F047D0E93432134304461ED0F2
S315080098B000254FF00109344FDFF8D0A0C5F120018B
S315080098C0D4E93430A5F12002EB4000FA01F10B434C
S315080098D020FA02F2134313F0010FC5F12008A5F18F
S315080098E0200609D101351F2D07F10C07E6D1012302
S315080098F084F89039BDE8F0873A68002A39D17B6840
S31508009900772B14D1DAF8B435D9070ED4580628D4EB
S3150800991013F0180F27D1990727D49A0627D440F2AF
S31508009920847213420CBF0722062202F170031A46FC
S3150800993080212046FFF72EFE0028D8D1D4E93432FC
S3150800994009FA06F629FA08F846EA080609FA05F1B0
S3150800995023EA010322EA0602C4E934321343C1D1D9
S31508009960C5E70222E1E70822DFE70122DDE7032255
S31508009970DBE794F89039002BE0D0012380212046BC
S31508009980FFF796FED8E700BFFC340408C01700208E
S3150800999010B590F8A830044633B1D0F8E4309942AF
S315080099A004BF002380F8A8302046FFF72FFFC0B970
S315080099B094F8E81089B101230C222046FFF778FEB7
S315080099C078B994F8E03084F8E800042B1FBF636C7C
S315080099D0C4F8E430012384F8A8302046BDE81040D6
S315080099E05FE710BD014B58685BE700BFC017002052
S315080099F0094A091A891030B551430346002224251D
S31508009A008A4205FB023005D00BB1046A04B130BDA9
S31508009A100132F5E70020FAE7398EE33870B50D46CE
S31508009A200668EFF31182302181F311880021046A58
S31508009A30016282F31188BFF36F8F002C00DC70BDC2
S31508009A403046013CA847F8E710B50446012037F030
S31508009A5071FD13F061FB28B9A379012B01D001230D
S31508009A60A37110BDFEE7002337B505460DF10701C2
S31508009A7090308DF80730FEF72AFF044648B92D685E
S31508009A809DF8073005F1540033B913F051FB23460E
S31508009A90AB64204603B030BD95F85A300BB9FFF7D2
S31508009AA0D3FF014BF4E700BFD990000838B5044648
S31508009AB00D46543039B194F85A300BB9FFF7C4FF44
S31508009AC0A564002038BD13F033FBF9E72DE9F04310
S31508009AD004461E2789B004ADDFF8B0902846FDF786
S31508009AE04DFC236809F15008A3EB0803DB10B3FB10
S31508009AF0F7F30026DBB209F242304022314600EB8A
S31508009B00831089F840632EF0FCFD236809F2C23001
S31508009B10A3EB0803DB10B3FBF7F3DBB240223146B5
S31508009B2000EB83102EF0EDFD012037F003FD40B168
S31508009B3013F0F2FA00B1FEE7012037F0FBFC00B99A
S31508009B40FEE7002620684FF6FF71FDF795FB2046D5
S31508009B5002A9CDE90266FEF7EAF94FF6FE7120681A
S31508009B60FDF7CAFB2846FDF709FC00952B462A4651
S31508009B703146206812F068FA3146206808F032F853
S31508009B80304607F011FE09B0BDE8F083C017002083
S31508009B9010B504461C30FFF799FF0023C4E91333B8
S31508009BA0A3640B2384F844304FF6FF73A4F84630B9
S31508009BB004F15400BDE81040FEF7F1B9022037F071
S31508009BC0B9BC70B504460D46FFF7F8FF50BB1E2218
S31508009BD0164E06F15003E31ADB10B3FBF2F3DBB2C1
S31508009BE0012B00D9FEE706EB8303D3F8C03513B182
S31508009BF01B68012B16D012F0D3F9014628460AF045
S31508009C00E3FD044660B9284607F0A6FD044658B9A0
S31508009C100146202037F076FC86F8CE5586F8FE55A4
S31508009C20204670BD0D24FBE70124F9E7C017002084
S31508009C3010B5836804465BB143690179D869FFF7B3
S31508009C40C0FF20B9A37E022B01D00223A37610BD44
S31508009C500D20FCE74030EBE72DE9F0410F46FCF715
S31508009C606BFC0328044600D9FEE7FF221D4B24019E
S31508009C705D6864F07F042B1893F9768983F8762952
S31508009C8005EB8003586805F16006E4B2FFF7E2FFCA
S31508009C903923062221463046FFF75DF9F8B9286EC2
S31508009CA05FFA88F113F081F9C8B9286EF9B213F092
S31508009CB07CF9A0B93046FFF78DF980B921463023E3
S31508009CC006223046FFF747F9014640B9286E13F0D9
S31508009CD06CF920B93046BDE8F041FFF77BB9BDE81D
S31508009CE0F08100BFC0170020002313B5044601A960
S31508009CF090300193FEF753FFB0B923689DF804200E
S31508009D00996C81B183F8442023689A6C62B194F8FF
S31508009D107129144494F86A2932B103F1400002B05B
S31508009D20BDE8104084E70D2002B010BD002337B50A
S31508009D3004460DF1070190308DF80730FEF7C7FD90
S31508009D4070B923689DF807509A6C22B155B103F192
S31508009D504000FFF76DFF94F871391C4484F86A597E
S31508009D6003B030BD1846FDF793FCF4E72DE9F84338
S31508009D70264E054696F8CE75FFF720FF002842D1F5
S31508009D8006F15003ED1A1E23ED10B5FBF3F5EDB2FF
S31508009D90012D00D9FEE706EB8503D3F8C0954FEAF7
S31508009DA08508B9F1000F2AD1182012F0E3FE878240
S31508009DB08027C0F800904571077180F80690C0F8B2
S31508009DC00890044607F0B4FCC0001028D6BF10233C
S31508009DD00123B3FBF0F327742046E3600AF07CFC0A
S31508009DE068B94644C6F8C0452368012BFCD02579D6
S31508009DF020466DB20AF086FB2846BDE8F88304487B
S31508009E0040440AF0E5F97F25F6E700BFC0170020B1
S31508009E10801D0020C069A9E710B504460068FFF751
S31508009E20A5FFC1B2206EBDE8104013F0BEB808B554
S31508009E300C4AD2F8C0355BB9D2F8C4356BB9FFF70E
S31508009E40BDFE40B9BDE808404FF4F85037F072BB84
S31508009E501B68012BF0D1012008BD1B68012BEED130
S31508009E60F9E700BFC017002084462DE9F3411148E1
S31508009E70D0F82866D0F82C5686EA020885EA030741
S31508009E8008EA0C080F4058EA070E00F5C6640DD01C
S31508009E90D0F87C0250B1CDE9002386EA080662466E
S31508009EA00B467D4034F08FFD44E9026502B0BDE8FB
S31508009EB0F08100BFC01700202DE9704388B0FFF776
S31508009EC07DFE00B9FEE7684CD4F8BC1501B9FEE77B
S31508009ED0102037F02FFB8B88D4F87C028DF80B30D6
S31508009EE001230DF10B011A4634F050FF9DF80B20A3
S31508009EF0D4F8BC15023A002392B20968D4F87C0259
S31508009F0034F044FF002305930793584B05AE069398
S31508009F10D4F8BC3593F82C208DF814201B681D78CE
S31508009F2015F0200518D0D4F87C0234F089FD0028F5
S31508009F3063D0D4F87C0234F083FD2EF0D5F80B46B6
S31508009F40024645A1D1E900012EF072FA2EF058FB1F
S31508009F50079B184401250790D4F87C0234F07EFD4F
S31508009F609DF80B3000284BD0981DC0002EF0CCF879
S31508009F703BA3D3E900232EF031F98046D4F87C02BE
S31508009F80894634F06BFD2EF0AFF80B46024649467B
S31508009F9040462EF04DFA2EF033FB079B18440790E7
S31508009FA0202037F0C7FA50B112F0DAFF002120203E
S31508009FB037F0A8FA00214FF4004037F0A3FAD4F896
S31508009FC0BC15D4F87C424B6933BB102037F0B2FA83
S31508009FD0D8B1079B0A7E03F5FA730793244B897950
S31508009FE09A719A782046DA712A460096043334F034
S31508009FF066FB50BB08B0BDE870830798C030A9E778
S3150800A0000798063300EB4310C9E733462A4620462D
S3150800A010897934F03EFBECE70022962004920A691F
S3150800A02089791344124AA3F59B73908210320393DD
S3150800A030009220462A46019603AB34F04BFB20B922
S3150800A0400121402037F05EFAD4E74FF4805037F00C
S3150800A050EFFF07F01DFFCDE70000000060E3664153
S3150800A0600000000080842E41C017002020A10700B0
S3150800A070C87700201E21064B03F5C7625033C31A62
S3150800A080DB10B3FBF1F33020DBB200FB0320704793
S3150800A090C017002008B503F066FF1B2008BD2DE990
S3150800A0A0F041837905460F46164673B3033B042BE6
S3150800A0B02BD983889B072AD50368D3F81C80FFF71A
S3150800A0C0B6FED8B10C2009F075FF044600B9FEE7C4
S3150800A0D001230146C0F800800371077246810D48C6
S3150800A0E011F034F810B9204609F06EFFAB7900205C
S3150800A0F0052B1CBF0523AB71BDE8F0814FF47A72BE
S3150800A100404672430AF01CFBF0E70D20F4E70C20EA
S3150800A110F2E700BF581E0020002337B504460DF1AC
S3150800A120070190308DF80730FEF7C1FB78B99DF826
S3150800A130073063B1022B28D12568AB6C3BB194F884
S3150800A1407109204490F97639013302D00D2003B005
S3150800A15030BDD4F8B030D3B15A1E1A4017D15B08B7
S3150800A160114602F10102FAD180F87619AB6CB4F8FF
S3150800A170B420002BEAD0C9B205F15400FFF78FFFCF
S3150800A1800028E4D1034B2B65E1E70C20DFE7072025
S3150800A190DDE700BF599C000838B51D46836C0446A8
S3150800A1A02BB15430FFF77BFF00B9256538BD0D206C
S3150800A1B0FCE7F7B50D46044600B9FEE7037F03F052
S3150800A1C0FF0603B1FEE70E4B1B68994215D840F20D
S3150800A1D0E73031460B4B4FF47A721F680023E5FBD4
S3150800A1E007012DF03DFA0123CDE900630146234618
S3150800A1F0054A606837F028FA00B1FEE703B0F0BDFB
S3150800A2000012002004120020012A040800B9FEE703
S3150800A210406837F041BA70B5EFF3108672B64FF062
S3150800A220FF3034F0A5FE04460A4BD3F8E426C3F8FB
S3150800A230E406824288BFD3F8E826304684BF013256
S3150800A240C3F8E826D3F8E85638F009FC204629462C
S3150800A25070BD00BFC0170020DDE7F0B500F190051E
S3150800A2608DB0284602A9FCF72DF9044600284CD1E2
S3150800A270284601A9FEF74EFC0446002845D1284683
S3150800A2800DF10301FEF713FB044600283DD1FFF745
S3150800A290C2FFDDE90253A84271EB03023DD26FF01B
S3150800A2A001022D1A63EB0103AA4274EB030334D3AC
S3150800A2B09DF80360019F11F073FE0146184837F0B8
S3150800A2C039F908BB30460AF07FFA0446E8B9012195
S3150800A2D0202037F017F9FF238DF81430012308954D
S3150800A2E0104D0B9431468DF82C30D5F87C0205AB11
S3150800A2F008AACDE9064409940A9734F041FA38B118
S3150800A3002146202037F0FEF8012420460DB0F0BD86
S3150800A31085F8CE6585F8FE65F7E70724F5E700BFFB
S3150800A32040000100C017002010B50446FFF773FF70
S3150800A33002460B4604F16000BDE81040FEF7A2B9DC
S3150800A3402DE9F84306460D4611F02AFE644F80466D
S3150800A35097F8EC36032B19D000222946304607F029
S3150800A3605BFC98B1FFF757FF5E4C021941F10003F9
S3150800A37007F5DE61C1E90023022387F8EC3606B942
S3150800A380FEE7C7F8F8660020BDE8F8831E23564A9C
S3150800A390B41AE410B4FBF3F4E4B2012C00D9FEE7D6
S3150800A3A03023634302F5BD6119448D4200D0FEE7B0
S3150800A3B0C4EBC41102F2AC620A442968914200D087
S3150800A3C0FEE72A7F3B4412F0020F0BD1642283F882
S3150800A3D06426FFF72CFD18B30C2009F0EBFD0446A4
S3150800A3E080B9FEE793F86426022A84BF023A83F806
S3150800A3F06426302303FB047393F864264F2AE8D8AF
S3150800A4005022E4E700230146066003718560374859
S3150800A41010F09CFE0028B6D1204609F0D5FDB2E71B
S3150800A4204146A8790AF0D0F90028ADD1FFF7C6FB56
S3150800A430804600B1FEE74FF0300901464FF4F85068
S3150800A44037F060F809FB0473C3F86066297F1020AB
S3150800A450C1F38001C7F8BC5537F054F80C2303FB49
S3150800A46004742B7F2846C3F3C003A96A84F804380A
S3150800A47007F0B8F9EFF3118489F311880220012156
S3150800A48037F040F8FFF79AFB00B9FEE72120184994
S3150800A49087F8128838F0C4FAD8B9FFF70DFD84F3A7
S3150800A4A01188BFF36F8F4FF4805037F043F80028B8
S3150800A4B03FF469AF96F8E430002B3FF464AF326A94
S3150800A4C0936F002B3FF45FAF01212846D26F984760
S3150800A4D059E70228E3D14FF4805037F0A9FDDEE7AB
S3150800A4E0C0170020404B4C0010180020581E0020B2
S3150800A4F04510010810B58379044603F0FB03032BC6
S3150800A50024D18188C269C906036805D49179D869B6
S3150800A510FFF757FB00B1FEE7A379E169042B1CBFDF
S3150800A5200423A3712368D869FFF70AFF0D280BD106
S3150800A530E26953694BB100235361E26913612368E9
S3150800A540E169D869FFF7FCFE00B1FEE710BDC269F4
S3150800A5508379516909B9126922B1072B01D00723FA
S3150800A5608371C7E7032BFCD00323F9E7F8B5836C9F
S3150800A57004460E46ABB190F85A3000F15407052B45
S3150800A5800FD000253846FDF733FD384684F85B5072
S3150800A59084F85C5084F8B550FFF7D9FF2846E6647E
S3150800A5A0F8BD0D20FCE72DE9F74300F164070446E2
S3150800A5B038461E460D469046FDF764FA4CF60103EA
S3150800A5C0F340D80700D4FEE7B4F8049019F0200F3A
S3150800A5D02AD0286812F0FFFD30B32B7FD90723D580
S3150800A5E028460DF10201FDF716FB00B1FEE79DF8BE
S3150800A5F00230082B18D1284601A9FDF71CFB00B12B
S3150800A600FEE728460DF10301FDF73EFB00B1FEE724
S3150800A6109DF8031094F86020019B914204D1E26DE5
S3150800A620934224BF0133E3650023E371002E49D02A
S3150800A63019F0040F46D1237A6A7E9A4242D9013329
S3150800A64023722B7F0E2E43F002032B7735D1A37985
S3150800A65094F86110062B1CBF0623A371FDF79BF91E
S3150800A6604FF0FF338B4020EA03054FF4A0735D4398
S3150800A670A37DDA070AD5E26923689179D869FFF7D5
S3150800A680A0FAFBF7E3FF002D03DAFEE712F044FD1C
S3150800A690F7E70544606E3946184AE5661030FDF757
S3150800A6A0ABF994F861300133DBB2052B28BF0523DB
S3150800A6B084F8613003B0BDE8F083204603B0BDE8F6
S3150800A6C0F04344E7A379022B1CBF0223A371A97E9A
S3150800A6D0AB798B4206D0A37DDB0703D52368D869FF
S3150800A6E0FFF76FFA246AE76C002FE3D03346424639
S3150800A6F02946206CB8470023E364DBE78C3304085B
S3150800A7002DE9F04190F8E47004460D461E46BFB1A7
S3150800A7100C4F3F7897B1897EAB798B4206D00A4BAE
S3150800A720CB40DB0700D4FEE7FFF74BFA334600229F
S3150800A7302946206A5430BDE8F04134E7006AF9E753
S3150800A740BDE8F081C017002000F8FF0770B504685F
S3150800A75094F85A3004F15405033B042B53D8DFE828
S3150800A76003F00307181403002846BDE87040C1E645
S3150800A770226F636D9179D869FFF723FA2846216F0E
S3150800A7800E23BDE8704000220DE72846BDE870405C
S3150800A790DDE6B4F858309B0700D5FEE7636DD86947
S3150800A7A0FFF7E4FA7F2807D094F96B307F2B01D0A6
S3150800A7B0834201DA84F86B00FBF7F8FEE36EC01AF1
S3150800A7C000280EDAD4F8C030D4F8B8008033C4F8BC
S3150800A7D0C03004F1B8010C4A1030BDE87040FDF7EE
S3150800A7E00BB994F85A3094F96B10022B1CBF02234C
S3150800A7F084F85A30646FA36C2BB1236D1BB1206C9F
S3150800A80098470023236570BD8C3304082DE9F04F63
S3150800A81012F0C00F824615461E468FB001D036F09C
S3150800A8205DFBAB0206D5504634F0A2FA10B9504685
S3150800A83036F062FBAF0301D536F050FBEC0105F0AC
S3150800A840807340F14E81FFF7B9F968B110200021F5
S3150800A85036F058FE36F082FE0446002800F03281B3
S3150800A8600121082036F04EFE202036F063FE05F45E
S3150800A87000510446002800F0538121B101214FF40C
S3150800A880004036F03FFE15F4404F06D0002148F24E
S3150800A890200036F037FE36F083FE280740F1AC80FC
S3150800A8A0AC4C0321D4F87C0203AA23F081FC0146B0
S3150800A8B0002800F081819DF80C30072B40F07C8140
S3150800A8C0D4F87C0208AA23F093FC002840F074818F
S3150800A8D09DF81C3013F01102009208D113EA1311E7
S3150800A8E003F00F0203D112B10F2B00F26581BDF8F8
S3150800A8F00E70059A07F1010B12781FFA8BFB5A4561
S3150800A900019340F05981FA1E7B2A00F2558103A86B
S3150800A91038F088F8002840F04F81BDF81020019BD8
S3150800A920002A40F01581069A184692F8008001938D
S3150800A93009F060FE019B814630B9009A22B91907D1
S3150800A94002D00F2B00F238819DF82D30002B00F035
S3150800A950078108F00703022B40F02E8103AAD4F8DA
S3150800A960F815D4F87C0234F05EFAA4F8FCB506F0C3
S3150800A9700DFF36F0F3FD002839D0D4F8BC35D4F8ED
S3150800A980F8251B6892789B789A4230D19DF8263034
S3150800A990002B00F011810237D4F87C0208A9ADF823
S3150800A9A0247034F01CFA0746002840F005819DF80B
S3150800A9B02E30012084F80D369DF82F30089984F83A
S3150800A9C00E36C4F8209636F01FFE01214FF480702B
S3150800A9D036F098FD6048394636F094FD36F0CEFDDF
S3150800A9E028B118F0100F1CBF012384F8303636F052
S3150800A9F0C5FD08B912F0AEFAEF0501D536F06EFAC4
S3150800AA0015F4863F01D036F069FAAC014FF000071D
S3150800AA100DD5504C36F062FA3946042036F072FDF0
S3150800AA2094F830361BB112F095FA84F8307615F0A2
S3150800AA30084F05D036F052FA0021042036F062FDA0
S3150800AA40A80001D536F04AFAA90705D5082036F038
S3150800AA5071FD08B136F0B4FDF20523D5504608AAB3
S3150800AA6003A933F08FFE9DF80C30DBB13B4800217B
S3150800AA7036F048FD042036F05DFD28B106F086FE66
S3150800AA800021042036F03EFDFFF798F828B136F08D
S3150800AA9065FD4FF4007037F0CBFA37F0B7FF08B111
S3150800AAA036F08EFDB30504D500225046114623F034
S3150800AAB0FFFA16F0C00F40F0CB800FB0BDE8F04F9C
S3150800AAC007F0E6B912F046FA01214FF4807036F025
S3150800AAD019FD2146022036F015FD21464FF4803037
S3150800AAE0C0E606F00202134306D036F037FD4FF4EF
S3150800AAF0007037F09DFAB7E605F0A8431A4304D06C
S3150800AB0036F02CFD4FF48050F3E706F004021343A9
S3150800AB103FF4AAAE0F4BD3F87C0234F023F8A3E631
S3150800AB2049B101214FF4803036F0ECFC2146402033
S3150800AB3036F0E8FCB1E606F020030B433FF4ADAE71
S3150800AB40402036F0DFFC4FF4006037F071FAA4E6D7
S3150800AB50059AE9E6C01700200A0001006000010016
S3150800AB6094F8803213B9BBF1040F25D09DF826302E
S3150800AB7013B30237D4F87C0208A9ADF8247034F070
S3150800AB802EF9C8B9EFF3108072B6B4F81638B4F8CF
S3150800AB901878009337F063FF009BBB420CD0EFF3A5
S3150800ABA01183302282F31188D4F864787A1C0BD189
S3150800ABB083F31188BFF36F8F002706F0E7FD394648
S3150800ABC0254812F016F917E7394651F80C2BC4F840
S3150800ABD0642883F31188BFF36F8FD4F87C0203AA25
S3150800ABE034F021F987F800B0BDF8343039467B7067
S3150800ABF09DF92E301948FB709DF82F30BB70089BC5
S3150800AC00BB609DF81C3013F0010F18BF4FF0000908
S3150800AC10C7F8049010F09AFA0028CED018F0200849
S3150800AC200AD0D4F87C0234F0A3F806F0AFFD01216F
S3150800AC30042036F067FCDFE606F0A8FD94F8303607
S3150800AC40002B3FF4D9AE12F085F984F83086D3E6A6
S3150800AC500FB0BDE8F08F00BF20200020D41F0020D1
S3150800AC60B0F5802F07B54FEA104382B212D20F2AE9
S3150800AC7010D8002914BF042101218DF805000022EF
S3150800AC8001A88DF8043009F01BF910F0FF0002D076
S3150800AC90022803D0072003B05DF804FB0D20FAE76D
S3150800ACA00229F7B505460F46164618D15B491068BE
S3150800ACB0FBF7EEFC002854D069467068FBF7DCFB0E
S3150800ACC0044648B90099B1F5802F4FEA11438AB274
S3150800ACD001D20F2A2AD90724204603B0F0BD03293A
S3150800ACE03DD14F491068FBF7D3FC002839D0694697
S3150800ACF07068FBF7C1FB04460028EDD1B06801A9CE
S3150800AD00FBF7BAFB04460028E6D1DDE90013B1F5E6
S3150800AD10802F4FEA1140DED28AB20F2ADBD8C0B2A2
S3150800AD20C9B2002B55D037F079F916E0EFF3118048
S3150800AD30302282F31188534303F1A04303F570339D
S3150800AD405A6C80F31188BFF36F8FC9B2CA40284680
S3150800AD50344902F00102FBF7AEFC0024BCE70129E6
S3150800AD60B9D931493068FBF793FC0028B3D0694656
S3150800AD707068FBF781FB04460028ADD1022F36D157
S3150800AD80009BB3F5802F4FEA13449AB2A3D20F2A39
S3150800AD90A1D8EFF31181302080F31188DBB2072B9D
S3150800ADA0224A97BF04FB000000FB042212185268CF
S3150800ADB084BFD26B083B9B0022FA03F303F00F0310
S3150800ADC05A1E0E2A08D981F31188BFF36F8F1849C6
S3150800ADD009E012F027F8C0E781F31188BFF36F8FF7
S3150800ADE0012BF4D113492846FBF765FCB5E7032F79
S3150800ADF0B3D1B56810492846FBF74AFC28B1214665
S3150800AE00009803B0BDE8F0402AE728460B49FBF74F
S3150800AE103FFC0028A1D00121F2E700BF70310408E9
S3150800AE200FC30408743104087931040800C00350BC
S3150800AE30833104087E310408D6C30408DFC3040836
S3150800AE402DE9F04F124891B037F0CEFE104837F092
S3150800AE50CBFE01230F4C0022042108A808ADADF84B
S3150800AE60203009F02DF80FCC0FC594E80F0085E8BF
S3150800AE700F00074837F0B8FE04F11000064C37F00B
S3150800AE80B3FE636853B1636DC3F30B03FAE700BF00
S3150800AE90742D04083441040800C0085010F009FB5A
S3150800AEA00423BC4ABC49BD4E0B6113610B61136197
S3150800AEB00B6113610B611361202341F202012361C7
S3150800AEC00023E360A36061614FF4A021A361A36539
S3150800AED06162E3612362A362E36263632365D66406
S3150800AEE02363236923F0870343F0810323612369DE
S3150800AEF09DF83C2023F0F80343EAC2139DF8292065
S3150800AF0043EA02139DF82F2043EA82132361E2687D
S3150800AF10DDE90D3122F0F04222F470220B4313438F
S3150800AF209DF82C2043EA82239DF82D2043EAC2335C
S3150800AF30E360A36823F0030343F00103A360A36857
S3150800AF40A360A36843F48063A360626A9DF828300F
S3150800AF5022F477221B0322F4EE6203F4E043134340
S3150800AF609DF83D20120402F470221343636263695C
S3150800AF7023F00F0343F002036361BDF82A30A3618F
S3150800AF809DF82D3033B19DF82E30854A03F00F0316
S3150800AF90C2F880309DF82F302BB19DF83030804AAA
S3150800AFA003F00F03D36757200AF09EF97D4B9A6882
S3150800AFB012F0010F5A6800F005827B4CD107B0FBEE
S3150800AFC0F4F404F1FF344FEA046400F1DB811A69F2
S3150800AFD022F07F4222431A61052010F08BFA714B4A
S3150800AFE09D6CED4315F44055FAD14FF48173012257
S3150800AFF0042107A8ADF81C3008F062FF40F20223CE
S3150800B0002A46012106A8ADF8183008F059FF40F283
S3150800B01002330122042105A8ADF8143008F050FFC8
S3150800B02040F202430421012204A8ADF8103008F0CA
S3150800B03047FF5E4B5E4A4FF44870C3F8C8244FF08A
S3150800B0400212C3F8C424A2F58032C3F8CC241C2209
S3150800B050C3F8B4240BF00FFC0421022011F0E2FE21
S3150800B06014200BF008FC0421022036F0D7FF232019
S3150800B0700BF001FC0421022011F0D4FE494CA36C0C
S3150800B0805906FCD5B9236364A36C1A06FCD50022BD
S3150800B09004210220E36B36F0C1FF4FF48173114699
S3150800B0A003A8ADF80C3008F00BFF002240F202238B
S3150800B0B0114602A8ADF8083008F002FF40F2023344
S3150800B0C00122002101A8ADF8043008F0F9FE40F28B
S3150800B0D00243012200216846ADF8003008F0F0FE70
S3150800B0E010F0E7F904232B4A2B4932480B61136108
S3150800B0F00B6113610B6113610B611361202300213E
S3150800B100236141F20203E160A16063614FF4A02369
S3150800B110A161A1656362254BE1612162A162E162D9
S3150800B12061632165D6642163C3F8B414C3F8C814EF
S3150800B130C3F8C414C3F8CC1436F046FE4FF00063C7
S3150800B1409B6A03F17842B2F5C04F6AD21A681A4B65
S3150800B1509A4266D1194C94F8CC6016F0FD0660D177
S3150800B16094F8CD30002B00F08981022384F8CD3085
S3150800B1704FF000639B6ADB69984794F8CD800746D1
S3150800B180B8F1010F40F0F88101F0AEFD013040F052
S3150800B190E18115E000E0085000D00850FF3F0D039C
S3150800B1A00090035000C00850E070720000C00350C1
S3150800B1B0020003005441040807B0CD5ED0320020D7
S3150800B1C0D4F8D420974B1A66D4F8D8205A66D4F8FF
S3150800B1D0DC209A66D4F8E020C3F87021D4F8E4207D
S3150800B1E01A64D4F8E8205A64D4F8EC209A64D4F89F
S3150800B1F0F820D20700F1BD81D4F8F0208A4B5A66B0
S3150800B200D4F8F4209A6627F07BFED4F8D03083F37E
S3150800B2101188BFF36F8F84F8CD6017B9012384F8BE
S3150800B220CC3008F0C7FD4FF050234FF40032C10769
S3150800B2301A6700F1A38101221446114604FA01F3A4
S3150800B240034002F1010200F09B81784B03EB4103B6
S3150800B250B3F88430764A062B1168764807918AB285
S3150800B2604FEA114140F093814FF20F03994240F0A3
S3150800B2708B81B2F5406F28BF4FF4C06202804FF051
S3150800B28000534CF23C325A806B4A536A43F470239B
S3150800B2905362EFF308834FF0CD31684A043B93427B
S3150800B2A080F086816649674808F03EFA664837F0B6
S3150800B2B09BFC4FF440730122042108A8ADF8203006
S3150800B2C008F0FEFD0122614BC3F84424EFF3118414
S3150800B2D0302383F311884FF460700AF005F884F37D
S3150800B2E01188BFF36F8F544E594AD6F8F03000F5DF
S3150800B2F0D52043F00103C6F8F030D6F8FC3000F24A
S3150800B300FC4043F08073C6F8FC30524B02271A60A3
S3150800B310514B4FF48072B0FBF3F04FF060444F4B43
S3150800B32001381861C3F8F070C3F804234C4BC4F80D
S3150800B330B03F4C4BC4F8803ED4F8003E1343C4F8E3
S3150800B340003EFF2384F82030D4F8003E23F48073AF
S3150800B350C4F8003E11F0DDFDD4F8003E43F48073D6
S3150800B360C4F8003E404B0897099300231946052B5D
S3150800B37000F25881DFE813F014021F013A013C017C
S3150800B3803E0140015A6D12F0280FFBD19A6C9207C4
S3150800B39014D19A6CD70713D49B6C13F0020F14BF01
S3150800B3A00625002510F085F8304A2846136923F04B
S3150800B3B07F432343136110F09DF80DE60525F1E759
S3150800B3C00925EFE79A6D9B68294912F0010F03F0EA
S3150800B3D0E003284A08BF0A46402B1DD005D8EBB122
S3150800B3E0202B7FF4F9AD082305E0602B18D0802BBD
S3150800B3F07FF4F2AD012353434001B0FBF3F01E4A3C
S3150800B40020381A4B02EAC002596DCC07FCD41A63DD
S3150800B4105A6DD007FCD4DFE50623ECE71023EAE7EC
S3150800B4200423E8E70080004400800050D440040864
S3150800B430000000204421002000ED00E00800002064
S3150800B44004780020202C0020742D040800D0035016
S3150800B450FF030040001000E0F8590D00000004E06A
S3150800B46055CEACC509000100006A181000C0085086
S3150800B470E0707200C0E1E400F8FF7F000127CDE923
S3150800B4800566079684F8CD70EFF31183302282F3B0
S3150800B4901188C4F8D03027F02BFD594B59495A6EFC
S3150800B4A0C4F8F0209B6EC4F8F4304FF480438B66E2
S3150800B4B0554B5A68C4F8F820544A9A601A6EC4F86C
S3150800B4C0D4205A6EC4F8D8209A6EC4F8DC20D3F873
S3150800B4D07021C4F8E0201A6CC4F8E4205A6CC4F849
S3150800B4E0E8209A6CC4F8EC20494A106C1864506C31
S3150800B4F05864926C9A644F661B6E1B0425D5454AA0
