S01D00006275696C642F64656275672F6F742D6E63702D6674642E733337A6
S315080060000818002051EC0308394D06083D4D0608CE
S31508006010CDCA0008414D0608494D060841AF030898
S3150800602041AF030841AF030841AF030841AF030876
S315080060304D4D0608AC41070841AF030841AF0308B8
S315080060400511040841AF030841AF030841AF03082F
S3150800605041AF030841AF030841AF030841AF030846
S3150800606041AF030867DA040865DA040841AF030894
S3150800607041AF030841AF030841AF030841AF030826
S3150800608041AF030841AF030841AF030841AF030816
S3150800609041AF0308E1AF030841AF030841AF030866
S315080060A041AF0308BDAF030899AF030841AF030822
S315080060B041AF0308C1B7060895C0060815E20608E9
S315080060C011E2060809B806082BE2060819E20608CE
S315080060D065C006081DE20608D5C006083DC10608C3
S315080060E041AF030841AF030841AF030841AF0308B6
S315080060F041AF030841AF030841AF030841AF0308A6
S3150800610041AF030841AF030841AF030841AF030895
S3150800611041AF030841AF030841AF030841AF030885
S3150800612041AF030841AF030841AF030841AF030875
S3150800613041AF030841AF030841AF030841AF030865
S3150800614041AF030841AF030841AF0308B9E70608A2
S3150800615005A4060841AF0308FFE1060805E206089C
S3150800616041AF030841AF030841AF030841AF030835
S31508006180F0B5114A114C124E00F00105E3695F079C
S3150800619013D40DB9334213D103EA00078F4207D14E
S315080061A00B4A1A40002A0CBF00206FF00100F0BD10
S315080061B0013AEBD16FF00200F9E74FF0FF30F6E74E
S315080061C06FF00100F3E700BF8096980000000350C7
S315080061D002000100000000000000000000000000AE
S315080061E003468288C088114481429DBF18689980F9
S315080061F080180020704770B505680C4625B9BDE8BB
S3150800620070404B68084818478B6898476A68014683
S31508006210831A002BB8BF121A2368A8BF0022BDE84C
S3150800622070400148184700BF581D002038B50C4675
S315080062301146A2680346944206D00568AC420BD1C3
S315080062400260FFF7D8FFA46038BD94420DD011460E
S315080062509268002AF9D1F6E72A460021F9E78B6801
S31508006260002BF0D09B688B60EDE70029F7D1002D55
S31508006270E9D0AA681A60E6E72DE9F0419368054671
S315080062800C46164698473246074621462846FFF7E3
S31508006290CDFF2868002203466BB16168D3F804E095
S315080062A0A1EB070CAEEB070898EA0C0F13D4A1EB89
S315080062B00E01002907DA4AB9A0602C603146284643
S315080062C0BDE8F04197E71A469B68E5E79368A3603F
S315080062D09460BDE8F081BCF1000FEBE770B5066885
S315080062E004460D467EB18B6898477368C01A002825
S315080062F009DB20462A463146FFF798FF30463368C1
S31508006300BDE87040184729462046BDE8704072E748
S3150800631000F5E04393F8083F13B102490830DDE77A
S31508006320704700BFB028070800F5E04393F8083F18
S3150800633013B102490C30D1E7704700BFBC280708E3
S31508006340012300F00700834013F0220F09D113F050
S31508006350880F08D113F0440F14BF01200020C00095
S3150800636070470420704710207047024690F8403066
S3150800637030B5C4189442154606D1402B08D05A1C8D
S3150800638080F84020C15403E02D7801328D42F1D1C6
S3150800639030BD4200400800F0553002F0AA320243F0
S315080063A09300920802F0333203F0CC3313431801FA
S315080063B01B0903F00F3300F0F030184300BA70479A
S315080063C038B5044608464D7894F8FE20A91C031BE8
S315080063D051FA83F3D21A014466F0FFFE94F8FE30B0
S315080063E0023B5B1B84F8FE3038BD70B504460E468A
S315080063F0E588134682880068AA4234BFA91A002194
S31508006400104432465FF012F9002800DAFEE7A38846
S31508006410E288184480B2904228BF2368A08022BF31
S315080064209B18002203F8012C204670BD70B506465D
S315080064300D460024AC4201D3012070BD305D013405
S31508006440030605D45FF0E2F80028F3D00020F4E74D
S3150800645010F04003FAD0810612D5C20612D50307FA
S31508006460F4D4032307E0AC42F0D0325D013402F0E5
S31508006470C002802AEAD1013BDBB2FF2BF3D1D9E770
S315080064800123F8E70223F6E708B5084691B211F0AA
S3150800649053FD002008BD5AF07BBB8378082B09D131
S315080064A090F86E00C30903D000F07F0058F010BFC3
S315080064B058F0E0BE704756F0CDBE08B51B4B93F8B2
S315080064C0B921012A03D0062A05D02AB3FEE7BDE87A
S315080064D0084056F0A1BE002083F8B90103F58053A1
S315080064E093F8DC17CA070CD5C1F3C302013202F0D0
S315080064F00F0262F3C601042A83F8DC1705D85AF09E
S3150800650047FBBDE8084056F0A5BE93F8DC2760F3C4
S31508006510C60283F8DC27F4E793F8B821520703D5B7
S31508006520B3F8BA31DB05ECD408BD00BF583D0020EE
S3150800653010B503780446002B14BF0520032000F588
S31508006540003011F003FD2378BDE81040002B14BF7E
S315080065500620042000F5003011F0F8BC08B5043018
S315080065604DF0AAFC00B1603008BD10B5D0F8A430D3
S3150800657004460BB1002010BD04304DF09DFC0028E8
S31508006580F8D0C4F8A4006030F5E710B590F8B53037
S3150800659000F1B5041BB9214602484FF04DFE2046CE
S315080065A010BD00BFC828070813B590F86130024629
S315080065B0032B0C4609D100230093096878321AF098
S315080065C0BFF800B9206002B010BD0D20FBE7C06817
S315080065D090F86130032B03D1052160301CF085BA91
S315080065E07047014819F006BD2492002051F086BE76
S315080065F003781BB1012B07D0002070474368028936
S315080066005B89981A80B27047008970472DE9F84F60
S315080066100746884691469A464FF0000B0A9D0BEBB3
S315080066200904661006FB0A8638463146A84700283C
S31508006630C4F34F0407D0D2BFA14601341FFA84FB26
S31508006640CB45ECD300263046BDE8F88F0023F0B5DD
S31508006650441E184601392AB91BB1024492B2904227
S3150800666011D1F0BD14F8017F11F8016F082A1546FB
S3150800667028BF0825B74287EA0603EDD12844521BEE
S3150800668080B292B2E7E71906EBD45B000130DBB2C1
S3150800669080B2E4E770B583880446C0889E188642AF
S315080066A0154608D82068184466F012FE0020A3880C
S315080066B01D44A58070BD0320FCE707B549BAADF8AF
S315080066C0061002220DF10601FFF7E4FF03B05DF89C
S315080066D004FB0122DEE738B50446A3880846934240
S315080066E015460AD3216866F0F3FD0020A3882268C0
S315080066F05B1B2A442260A38038BD0620FCE70122E2
S31508006700E9E710B502220C46FFF7E5FF10B9238822
S315080067105BBA238010BD38B5838804468B420D4684
S3150800672005D0006807F0D2FA1DB92560A5800020BB
S3150800673038BD0121284607F0CEFB08B12060F5E7F1
S315080067400320F5E710B50446006807F0BFFA0023F2
S31508006750236010BD2DE9F04104460D4621B9FFF727
S31508006760F1FF0020BDE8F081D0F80080084666F009
S3150800677043FE0646471CB8F1000F04D0404666F0B3
S315080067803BFEB04209D03946012007F0A4FB064675
S3150800679048B1206807F09AFA26603A4629462068E2
S315080067A066F096FDDDE70320DCE74368036003B186
S315080067B0DB69436070472DE9F041C389044601EB64
S315080067C003081FFA88F843450D4602D90320BDE899
S315080067D0F08106464C27B84533680CD8002232604B
S315080067E0114A02F58051A3B9A3896581AB4200D944
S315080067F0A5810020EBE71BB17C373668BFB2EAE714
S315080068006079C0F381005CF089FC30600028F3D120
S31508006810DCE7D66D18681E60D365B1F86036013BB3
S31508006820A1F860360346DEE7581D002070B500F172
S31508006830350525F001052B78064623F00F0302F0EF
S315080068400F0003432846144600F8043B66F040FD53
S315080068502B8A3046E11889B22982BDE87040AAE73A
S31508006860838942891944914200DDFEE789B2914243
S31508006870818100D9FEE7704710B4446A34B100221A
S31508006880234642625DF8044B826A18475DF8044B5A
S31508006890704710B504460221FFF7EEFF236A9C42B3
S315080068A00FD1084A02F580512346D06D2468186036
S315080068B0D365B1F86036013BA1F86036002CF3D1F8
S315080068C010BDFEE7581D002043898B4200D2FEE723
S315080068D05B1A43818389C2898B4294BF00235B1A62
S315080068E00A4488BF9BB2C2818381704743898B4221
S315080068F094BFDB1A5B1A99B25DE770B54489A14269
S315080069002FD215880D44AEB2B14201D8A54201DB9B
S31508006910641A1480C4899860214489B24B2910D816
S3150800692034300844C1F14C0189B299801860108846
S31508006930814228BF0146998011889B88CB1A13800B
S3150800694070BD4C39986889B20068986000B9FEE74E
S315080069507B2904D804300844C1F17C01E4E77C397A
S31508006960F0E70021E7E770B5154686B0ADF80630C2
S315080069700DF1060203ABFFF7C0FF2C46BDF8106009
S315080069801EB9601B80B206B070BD03993246204618
S3150800699066F09EFC03A90DF10600344458F038FA57
S315080069A0ECE738B54589CC18AC4203DCFFF7DBFFCA
S315080069B0002038BD0620FCE710B44C889C4203D35F
S315080069C009885DF8044BECE706205DF8044B704730
S315080069D02DE9F04786B017461C46ADF806300DF18E
S315080069E0060203ABDDF83880FFF787FFBDF81050C5
S315080069F07DB1039EB8F1000F11D0B94606EB050A22
S31508006A00B24513D019F8011B16F8010BC047002828
S31508006A10F6D1B4FA84F0400906B0BDE8F0872A46F4
S31508006A203946304667F01AFC0028F2D12F4403A9EC
S31508006A30651B0DF10600ACB258F0EAF9D6E770B559
S31508006A4086B0ADF806300B4414469AB2914200D986
S31508006A50FEE74289934200DDFEE703AB0DF106022D
S31508006A60FFF74BFFBDF810500DB906B070BD2146B3
S31508006A702A46039866F0B1FB03A90DF106002C44DB
S31508006A8058F0C6F9EEE72DE9F041B0F80A800F464E
S31508006A9002EB080399B24145054616460CD3FFF7A3
S31508006AA08AFE044628B933463A4641462846FFF741
S31508006AB0C6FF2046BDE8F0810324FAE70122E2E793
S31508006AC0F8B505460E461746162100200A4A5CF018
S31508006AD085FB044670B13A463146FFF7D4FF28B91C
S31508006AE02146284605F178021AF036F82046BDE810
S31508006AF0F840CEE6F8BD00BF7428070803781BB136
S31508006B00012B03D0002070474068BCE70430C1E57C
S31508006B1070B58CB0054602A80C4619F028F94FF254
S31508006B20BF03ADF82A306B789B0726D42B78002B49
S31508006B3014BF1C200D2053F019FE0646F8B1214655
S31508006B4094F8FE20FFF79FFF044690B902A831F09B
S31508006B509DFE31460B4B0C48009502AA19F0F0FD34
S31508006B60044630B96B7843F002036B7020460CB0CC
S31508006B7070BD3046FFF78DFEF8E71824F6E70324C4
S31508006B80F4E700BF9FB50008F43500202DE9F04171
S31508006B9014469A180E4691B286B08C420546ADF850
S31508006BA0063029D87189914228DBB0F80A80434417
S31508006BB099B2414524D3FFF7FEFD074648B9214659
S31508006BC0304603AB0DF10602FFF797FEBDF81040FD
S31508006BD01CB9384606B0BDE8F0812346414628462A
S31508006BE0039AFFF72CFF444403A90DF106001FFA88
S31508006BF084F858F00DF9E9E70727EAE70627E8E7F2
S31508006C000327E6E7F8B504460E46154600F13407AD
S31508006C10E3899D420BD85B1B6289E381A3892A44D9
S31508006C202B4492B29BB29A42628117D2FEE76079F0
S31508006C30C0F381005CF072FAD0B123680360E3897F
S31508006C4020604B2B06D83430C3F14C02F91818448F
S31508006C5066F03EFBE3897C33E381D9E7A3812EB155
S31508006C602B46324600212046FFF7E9FE0020F8BDF4
S31508006C700320FCE7F0B50646B2420C461046194614
S31508006C8089B001D1A34215D36B460EAAFFF735FE8C
S31508006C90BDF804500DB909B0F0BD214630462B4663
S31508006CA0009AFFF7CCFE2C4469460EA8A4B258F009
S31508006CB0AFF8EDE7BDF838502C441D44A4B2ADB288
S31508006CC0BDF83820002AE6D0202A174628BF2027F4
S31508006CD0ED1BD21BADB2E41B3B462946ADF8382066
S31508006CE030466A46A4B2FFF73EFE3B466A46214650
S31508006CF03046FFF7A4FEE3E773B5054646890279F1
S31508006D00437980798E42C2F3400228BF0E46C3F308
S31508006D1081038DF80420E98901AA00F007008DF89F
S31508006D2005305CF05BFA0446002834D0334600226E
S31508006D302946FFF72BFF58BBAB896289B34228BFA8
S31508006D4033469A4200D2FEE7A381AB79A279C3F310
S31508006D50C30363F3C602A2712B792279DB0963F3B5
S31508006D60C71222716B796279C3F3011363F30512B3
S31508006D706271AB69A3612B8A23826B8A63822B7A41
S31508006D802372AB8DA385EB8DE385204602B070BDDB
S31508006D902046FFF77EFD0024F7E738B504460D4682
S31508006DA00B882C3020F81A3C8B7800F8243C91F993
S31508006DB0031022F0BBFC297904F12E0022F079FD9C
S31508006DC06A79237962F3410323716B796279C3F394
S31508006DD0400363F3000262712B7CD2B29B0143F03D
S31508006DE0020302F03D021343637138BD03689942FA
S31508006DF004BFCB6903604368994204BF0B6A4360CA
S31508006E000B6A0BB1CA69DA61CB690BB10A6A1A62F5
S31508006E1000220B79C1E9072162F382030B717047DF
S31508006E2010B5FFF7E3FFBDE81040084631E510B599
S31508006E300446216801B910BD2046FFF7F1FFF8E7BF
S31508006E400023C1E90033026802B970470B88013391
S31508006E500B800123106840B9488803444B80508949
S31508006E604B6803444B60D269EEE701330068DBB236
S31508006E70F1E70B7910B55B0700D4FEE74B79C3F34E
S31508006E80810403F00C0303445A68914209D10A6A43
S31508006E905A6032B15279C2F38102A2421CBF002263
S31508006EA05A600368994204BFCB690360CB690BB18A
S31508006EB00A6A1A620B6A0BB1CA69DA6100220B798F
S31508006EC0C1E9072162F382030B7110BD4A7970B5D7
S31508006ED0C2F3810214460B79061D43F004030B71B5
S31508006EE056F824301BB90134E5B2042DF8D10B62EB
S31508006EF04BB90368CB610160CB6903B1196200EB3A
S31508006F008200416070BDDC69CC61D961F4E78B8988
S31508006F104989038099422CBFC3EB0102C3EB0302E4
S31508006F20DB4392B29BB2934228BF13464380704715
S31508006F3043880288994228BF194612FA81F25B1AD9
S31508006F40028043807047084A138803B9FEE748F26F
S31508006F504E305368A3FB003010EB530044BF20F0BB
S31508006F60004001305060704780BC0020814210B557
S31508006F70044600D8FEE7FFF7E6FF091BB0FBF1F36E
S31508006F8003FB1100204410BD10B50446FFF7DBFFD4
S31508006F90091BC0B290FBF1F301FB13002044C0B2F9
S31508006FA010BD38B50D46814288BF85B269000446D2
S31508006FB001310020FFF7DAFF2044401B38BD00B13D
S31508006FC0EFE77047112313B50F2200210446ADF8E9
S31508006FD0063065F05EFF0223E3730023224623741E
S31508006FE0618A0DF10603052053F00AFD003818BF23
S31508006FF00120207502B010BD012A034630B510469F
S3150800700001F1FF3118D111F8012F1C4613F8010BB5
S31508007010CAB1A0F14104192C98BF2030A2F141044D
S3150800702098BFC0B2192C9CBF2032D2B28242EAD095
S3150800703000200DE0AA420BD111F8012F1C4613F8C7
S31508007040015B002AF6D12378002B14BF0120022009
S3150800705030BD10B540B10023441E98B2814203D911
S315080070600133E25C002AF8D110BD08B50022FFF70B
S31508007070C3FF831E5842584108BDA0F14103052BA2
S3150800708004D83738C0B2087000207047A0F16103F1
S31508007090052B01D85738F5E73038C0B20928F2D998
S315080070A0072070470EB417B5044605AA52F8041B04
S315080070B00192FFF79AF9204603B0BDE8104003B0E5
S315080070C070472DE9F04398464FF41603ABB0039387
S315080070D000230646184C8DF8103063180D461746DF
S315080070E00DF1100993F83C20144902A8CDF8089030
S315080070F0FFF7D8FF0E213046FFF7ABFF42340444B2
S3150800710033460A4600940E490E4C02A8FFF7CAFFFA
S315080071104246394602A8FFF768F921460A4A02A8F4
S31508007120FFF7C0FF4B4622461021284658F090F933
S315080071302BB0BDE8F08300BFB028070884280708ED
S315080071408A2807087FF70608824E07080EB403B593
S3150800715003AB53F8042B01210193FFF7B2FF02B0EA
S315080071605DF804EB03B0704710B5044666F044F9C1
S3150800717001462046BDE81040FFF758B9436853B9A1
S31508007180054B5A6812B958604060704752684260A9
S315080071905A68506058607047581D002010B5036F34
S315080071A004461B785B0709D500F5187017F052FDE1
S315080071B004F51A70FFF7E2FF002010BD0D20FCE76A
S315080071C038B58468D4F86052B5B1294604F5187004
S315080071D0FFF70CFED4F860321BB104F51A70FFF7FE
S315080071E0CDFF294604F160001BF0AFFC20B128460C
S315080071F0BDE83840FFF74DBB38BD03685A1A11EA97
S31508007200220138BF194643685A1A13EA220338BFBF
S315080072100B46436070474160024A01460248FFF741
S315080072202BB800BFB0280708601D0020002A00DA26
S31508007230FEE71144EFE738B50D46044617F009FF97
S315080072402A4601462046BDE83840EFE7064B074880
S315080072505A69196A914208BF9A6901F1804104BFC7
S3150800726001329A61D7E700BF581D0020741D00201F
S315080072708368984203D04368CB1A002B00DACAE722
S315080072807047D1E9003103F10043013B8B4200D03E
S31508007290EEE770470146024A0248FEF7C7BF00BF3D
S315080072A0B0280708601D0020D1E9003103F100432A
S315080072B0013B8B4200D0AEE7ECE770B504461D4EA5
S315080072C0D4F878526DBB04F51F70FFF7E3FF1A4830
S315080072D004F5237120F0EFFF08B9C4F88C5204F5C1
S315080072E0267053F08DF9204619F017FA04F5187030
S315080072F0FFF79DFDD4F86C6296B1104A04F51A7032
S31508007300536819465B689842FBD100234E60C4F85F
S315080073106C325368984203D1814218BF0D465560B6
S3150800732070BD6B6829463046C4F878325AF0EAFED2
S31508007330C6E700BF219F0008F4330020581D00202F
S3150800734038B50C46A1F160052846FFF7B6FF20467A
S315080073501BF043FB2846BDE8384006F0B7BC70B5BD
S315080073600C46A1F1600605463046FFF7A6FF204603
S315080073701BF033FB304606F0A9FC0023C5F8A43001
S3150800738070BD08B5064B93F8B138042B06D10548ED
S31508007390FFF780FFBDE8084052F08EB808BD00BF71
S315080073A0584D0020A09500204160024A0146024837
S315080073B0FEF762BFBC280708641D002010B5274CDD
S315080073C094F8EE31033B042B47D8DFE803F00307B4
S315080073D018140300BDE8104052F0D6BCD4F80432A5
S315080073E0987957F075FFD4F804020E22BDE81040CC
S315080073F0002156F027BCBDE8104052F0F7BCB4F89F
S31508007400EC319B0700D5FEE75BF096F97F2807D09D
S3150800741094F9FF317F2B01D0984201DD84F8FF01F2
S3150800742017F017FED4F80032C01A002806DAD4F886
S3150800743050120B488031BDE81040B5E794F8EE319C
S3150800744094F9FF01022B1CBF022384F8EE3152F097
S3150800745005FBBDE8104056F02DBD10BD583D002077
S31508007460A43F00200146024A0248FEF7DFBE00BFDD
S31508007470BC280708641D00204378FF2B04D14088E8
S3150800748040BA80B204307047981C704708B5024667
S31508007490FFF7F2FF104408BD38B505460C46FFF75E
S315080074A0EBFF294682B22046BDE83840FFF7EBBA23
S315080074B0F7B50E461746044602236A46394630464D
S315080074C0FFF77AFA054680B99DF8003023709DF8D3
S315080074D00130FF2B0CD00221607002333A68C4F8E1
S315080074E00220A288934214D90625284603B0F0BD87
S315080074F00423394630460DEB0302FFF75DFAD8B987
S3150800750001236370BDF8063004215BBA9BB20433CD
S31508007510E4E79BB2934228BF13466288A3801344CC
S3150800752072899BB29A42DFD3D4F80230A01DC4F800
S315080075300630FFF7FDFCD8E70546D6E773B50446DF
S3150800754001A80D461646FFF7E2FC2946204601AA81
S31508007550FFF7AEFF38B92378B34205D0A18801A852
S31508007560FFF7E6FCF1E7172002B070BD2DE9FF41F1
S31508007570054616460A46014601A81F46FFF7DEFFDE
S31508007580044670B9BDF80820BDF80680B2423B46ED
S3150800759028BF3246414628465AF082FD0A9BA3F880
S315080075A00080204604B0BDE8F0811FB514460A469F
S315080075B0014601A8FFF7C2FF10B9DDF80A302360BB
S315080075C004B010BDF0B51746428985B0ADF8001075
S315080075D01E468A422CBFC1EB0203C1EB0103C94315
S315080075E09BB289B2994228BF19460546ADF80210E2
S315080075F06A46014601A8FFF75BFF044660B9BDF875
S315080076000C203346974228BF174628463A46BDF807
S315080076100A105AF045FDF455204605B0F0BDF0B500
S315080076201746428985B0ADF800101E468A422CBF1F
S31508007630C1EB0203C1EB0103C9439BB289B299426C
S3150800764028BF19460546ADF802106A46014601A844
S31508007650FFF72EFF044660B9BDF80C2096420BD8FA
S31508007660B2423B4628BF32462846BDF80A105AF0B1
S3150800767017FD204605B0F0BD0624FAE710B502232B
S315080076801446FFF7CCFF10B923885BBA238010BDD8
S3150800769038B504231546FFF7C2FF044618B928680B
S315080076A017F0E2FD2860204638BD30B585B004469F
S315080076B015460A46014601A8FFF740FF40B90123CF
S315080076C02A462046BDF8061005B0BDE83040A6E7B4
S315080076D005B030BD30B585B0044615460A460146A4
S315080076E001A8FFF72BFF38B92A462046BDF8061031
S315080076F005B0BDE83040C1E705B030BD30B585B04E
S31508007700044615460A46014601A8FFF717FF38B989
S315080077102A462046BDF8061005B0BDE83040B7E752
S3150800772005B030BD73B5154601AA04461E46FFF7D7
S315080077303CFF28B933462A46204601A9FFF73CF9FB
S3150800774002B070BD38B50446154601448C4202D3D2
S315080077500024204638BDA31C9942F9D36378FF2B31
S3150800776002D1231D9942F3D32046FFF78FFE8842A4
S31508007770EED82378AB42ECD00446E7E70422FFF7BD
S3150800778082B90222FFF77FB9FF2B73B50546164665
S315080077901C4612D18DF805304FF47F438DF804103E
S315080077A001A9ADF80630FFF7E9FF20B922463146B0
S315080077B02846FFF768F902B070BD8DF800106946D3
S315080077C08DF80130FFF7DDFF0028F4D1002CF2D048
S315080077D0ECE770B505460E461C46114618460BB131
S315080077E0FFF737FC22463146C3B22846BDE870404B
S315080077F0CAE707B501238DF807200DF10702FFF741
S31508007800C3FF03B05DF804FB07B552BAADF806200E
S3150800781002230DF10602FFF7B7FF03B05DF804FB7C
S3150800782037B5044610460D4617F01EFD0423019091
S31508007830294620460DEB0302FFF7A6FF03B030BD2D
S31508007840F0B58FB004A80D46164618F090FA4FF218
S31508007850BF0309212B480DF10602ADF8323028F096
S315080078609AF960B91D205AF0DAFC044638B112219B
S31508007870728CFFF7C9FF20B12046FFF70AF80FB050
S31508007880F0BD08231321204606F11802FFF77CFFF6
S315080078900028F1D11C4E14212046B6F8B428FFF76B
S315080078A0B3FF0028E8D1294603A8FFF730FB4FF6B7
S315080078B01173BDF80E70ADF8083020467BBA02A9E0
S315080078C0ADF80A30FFF75AFF0028D5D13B462946BE
S315080078D02046BDF80C205AF0E1FB0028CCD1BDF8B3
S315080078E0065004A830F0CCFF2A4606F6E82108A878
S315080078F01CF01DFA2146054804AA19F04FF800287D
S31508007900BDD0B9E76C8D0020584D0020F435002015
S3150800791010B590F82430044643B1012B01D14369D0
S3150800792083612046A169BDE8104084E44169B1EB52
S31508007930510F4FEA510001D9FFF718FB0023A06148
S31508007940E38384F82530ECE790F8242042B982686E
S31508007950904205D0C2684169914201D04261D7E799
S31508007960704710B590F8243004467BB1012B08D136
S315080079700169C0680131FFF7F9FA60612046FFF72F
S31508007980C7FF2046236ABDE81040184790F82530FF
S315080079906BB1012BF5D1426922B10369991A8A4262
S315080079A098BF530063612046BDE81040B0E7012345
S315080079B080F82530D0E90513C91AFFF73CFCE28B9D
S315080079C0A38B9A42DDD310BD10B5044617F041FBD0
S315080079D0D4E90031E268C01A9A4202D10028A8BF49
S315080079E0013110BD2DE9F3411E461D4B0446834265
S315080079F04FF000038B4115460AD217A3D3E900239B
S31508007A0065F056F81749144602462846FFF74AFB1A
S31508007A10154B4EF66021B4FBF3F203FB1244B4FB9C
S31508007A20F1F34FF47A7801FB1344B4FBF8F72846D0
S31508007A300E490097FFF736FB46B1284608FB174262
S31508007A400B4902B0BDE8F041FFF72CBB02B0BDE818
S31508007A50F08100BFAFF30080005C2605000000003F
S31508007A60FF5B26059328070880EE36009928070845
S31508007A70A828070813B5006850B14AB141B10023D8
S31508007A800068019301AB59F098FA0FF0F7FF00B1BF
S31508007A90FEE702B010BD2DE9F843436C15461344C2
S31508007AA0026C044693420E461AD84FF000084F1946
S31508007AB000F11009B74214D1636C1D44236C656448
S31508007AC09D420BD1B4F850302BB104F11002114687
S31508007AD02046FFF7CFFF0023A4F85030BDE8F8830F
S31508007AE0FEE7B4F85030102B06D14A4649462046E0
S31508007AF0FFF7C0FFA4F85080B4F850305A1CA4F819
S31508007B005020234416F8010B1A7C50401874D1E70C
S31508007B102DE9F04F1D4685B09DF838309146029301
S31508007B20C36C826C2B4493420446884629D86FF06E
S31508007B30200B0F46CA466B18019300F12003ABEBE6
S31508007B40000B0393019B9F421CD1E36C1D44A36C5D
S31508007B50E5649D426CD3B4F850302BB104F11002A1
S31508007B6011462046FFF786FF002194F8542002F1BB
S31508007B7021002044C2F10F0205B0BDE8F04F65F0C0
S31508007B8088B9FEE7B4F85220102A16D104F130005D
S31508007B90024694F854600BEB00018E4206DA10F8A0
S31508007BA0011D0131C9B201700029F4D0204603999C
S31508007BB0FFF760FF0022A4F85220029B43BB3E78E1
S31508007BC0B9F1000F0AD0B4F85220511CA4F852108B
S31508007BD0224492F8302072408AF80020B4F85020E7
S31508007BE0102A08D104F1100211462046FFF742FF79
S31508007BF00022A4F85020B4F850200137511CA4F8EC
S31508007C0050102244117C0AF1010A4E40167499E775
S31508007C10B4F852209AF80060511CA4F85210224475
S31508007C2092F830205640B8F1000FD7D03E70D5E70D
S31508007C3005B0BDE8F08F38B5D0E912329A4204464D
S31508007C400D4600D0FEE700F1300200F12001FFF7F3
S31508007C5011FF002304F10F0294F855108B4200DB44
S31508007C6038BD12F8011F92F820004140E95401334B
S31508007C70F2E708B5006828B13BF0F1FC0FF0FEFE0C
S31508007C8018B1FEE76FF08600F8E708BD002307B5D0
S31508007C900068019338B1202201AB3BF02FFD0FF0AD
S31508007CA0EDFE18B1FEE76FF08600F8E703B05DF861
S31508007CB004FB10F5645F00F0B8805EDC10F59D4F9C
S31508007CC000F0B5802CDC10F5D14F1CD01DDC10F56A
S31508007CD0D24F00F0AE804EDC10F5FE4F13D010F5F3
S31508007CE0E24F48D107207047012300F14002934034
S31508007CF041F21902134240F0988013F4A06FF1D1B3
S31508007D0010F13E0F37D10320704710F5D04F00F021
S31508007D10908030DB10F59F4FE4D010F59E4FF1E7C9
S31508007D2010F5725FDED013DC10F57C5FDAD002DC6A
S31508007D3010F57E5FE6E710F5765FD3D005DC10F523
S31508007D407A5FCFD010F5785FCBE710F5745FC8E798
S31508007D5010F5685FC6D00BDC10F56C5FC2D004DC8A
S31508007D6020F0800313F5705FBBE710F56A5FB8E78C
S31508007D7010F5665F59D0C00F704710F5165FB1D081
S31508007D801CDC10F5405F56D0F5DB10F5205FA9D056
S31508007D9007DC10F5245FA5D020F4807313F5265F61
S31508007DA0B0E710F51C5F40D002DC10F51E5F98E7BF
S31508007DB010F51A5F96D010F5185F92E710F1330F99
S31508007DC022DA10F1400F8FDA10F5065F8AD012DC3E
S31508007DD010F50E5F86D020F0800305DC13F5145FDE
S31508007DE080D010F5105F7CE713F50C5F3FF47AAF8F
S31508007DF010F5085F75E710F5025F16D010F58C5F71
S31508007E0081D010F5045F6CE700F11E021A2AB2D879
S31508007E100123934013F0A06F7FF464AF074A13421F
S31508007E207FF471AF13F0050FA5D0082070471B200B
S31508007E307047052070470120704700BF004040008A
S31508007E4008B5006828B104493BF05EF80FF016FE45
S31508007E5000B1FEE708BD00BF0900000208B50068CA
S31508007E6028B121B13BF07EF80FF008FE00B1FEE71D
S31508007E7008BD10B586B00446ADF80630084603AB13
S31508007E8011460DF10602FEF738FDBDF810200AB9B5
S31508007E9006B010BD20460399FFF7E0FF03A90DF1D0
S31508007EA0060056F0B5FFF0E7002307B50068019312
S31508007EB030B1202201AB3BF035FA0FF0DFFD00B1FF
S31508007EC0FEE703B05DF804FB70B50C46054646228E
S31508007ED00021A01C64F0DDFF2C2305F580522380C9
S31508007EE0B2F8603605F55B56C3F12C036380B2F829
S31508007EF0623604F10801A38006F12000FEF7A0FF10
S31508007F0004F1100106F13400FEF79AFF05F5B350A7
S31508007F1004F118011430FEF793FF05F5B95004F182
S31508007F2020011430FEF78CFF05F5645004F1280192
S31508007F303430FEF785FF05F5C45004F130011C30D6
S31508007F4018F069FB05F5EA4004F138017830BDE818
S31508007F50704018F060BB10B50446206818B9BDE833
S31508007F60104059F0F2BF436A236059F0EEFFF4E778
S31508007F701F299DBF0068C84000F001000020704717
S31508007F8010B50B780446FF2B04BF0A230B700B7839
S31508007F900A460133D9B21A29117001D9172010BD22
S31508007FA02046FFF7E5FF10B90131C9B2F3E7002013
S31508007FB0F5E7FF2337B5054600248DF80730284630
S31508007FC00DF10701FFF7DCFF234601340028F6D040
S31508007FD0D8B203B030BDFF2337B58DF80730036834
S31508007FE005467BB1FFF7E5FF014600B9FEE700202D
S31508007FF0FEF7CAFF0DF1070104462846FFF7C0FF42
S3150800800000B91CB99DF8070003B030BD28460DF12C
S315080080100701013CFFF7B4FFE4B2F1E790F8363008
S31508008020024613F00F0004D0108F022894BF0020D8
S315080080300120704738B501290446456832D152F007
S315080080409FFA237E9A0702D5642828BF64205B0717
S3150800805015D5A022204BB0F57A7FB3F8DA3128BFC0
S315080080604FF47A70534303F5FA73B3F57A7F06D360
S315080080704FF47A72B3FBF2F3984228BF1846637E30
S315080080800F2B02D9BC2828BFBC20A36833F07C423A
S3150800809004D0C3F31903984228BF1846002808BF1E
S315080080A00A20606016F0D5FF6369014604F10C00EA
S315080080B098420DD06268AA420DD0531A24680A3B2A
S315080080C0E3424CBF0A222146BDE83840FFF7AEB866
S315080080D062682160F8E738BD583D002008B531B11F
S315080080E0092914D96FF07C43994228BF1946836839
S315080080F0C3F319028A4208D061F319038360037E29
S31508008100DB0702D50121FFF795FF002008BD0720F0
S31508008110FCE738B5064B05461981064B0022186858
S315080081200C4665F051FC00B1FEE7A5F89A4038BD4B
S3150800813080BC00208C19002038B5044608460D4638
S3150800814057F0C6F820B9A379022B1CBF0223A371E6
S3150800815094F8983003B9FEE7022B18BF022384F877
S31508008160995018BF84F8983038BD10B5038904466D
S315080081708B4205D1BDE810404FF4004052F026BDB1
S3150800818001814FF4004052F0E2FC218904F13000ED
S31508008190BDE81040BDE710B502780446510743789C
S315080081A019D4120701D50BB310BD002BFCD1B0F8BA
S315080081B0A0300BB390F83630082B1CBF082380F884
S315080081C03630838E190602D43430FEF766F994F8F1
S315080081D0C8302BBBFEE7002BE6D14388D80505D56A
S315080081E004F5A350E1691030FFF715F8E17A04F1B8
S315080081F03000BDE810409FE790F84630DA070AD409
S31508008200838EDB0507D594F83630012BDFD00123A2
S3150800821084F83630DBE757F02DF80028D7D1F2E797
S31508008220012BC1D0012384F8C830BDE70123428859
S315080082308B4013434380437823B900F5A350083095
S31508008240FEF79CBF704770B50578ED071DD54578D4
S31508008250012D1CD0468816F0020F18D1022D16D013
S31508008260C6F38005760712D48362049B4282C362F2
S31508008270FF230374C368002908BF19460B404361EE
S315080082800221FFF7D3FF284670BD0D20FCE7052025
S31508008290FAE770B50578ED0722D54578012D21D086
S315080082A0468816F0020F1DD1022D1BD0C6F3800595
S315080082B0760717D48362049B002AC3624FF0FF0334
S315080082C00374C36808BF4FF49672002908BF19469D
S315080082D00B40428243610121FFF7A8FF284670BD83
S315080082E00D20FCE70520FAE700230380704738B520
S315080082F00D46046820465AF0B3FA35B140F010002E
S3150800830080B22070000A607038BD20F01000F7E7D0
S3150800831000F44052B2F5005F034620D148F240020D
S3150800832020F44E5020F03F0090421ED00CD8B0F5F5
S31508008330446F1AD005D8C8B1B0F5046018BF01203B
S315080083407047B0F50040F9E703F44C43B3F5404FE6
S315080083500BD04CF64043C01A18BF0120704710F4E2
S31508008360406F14BF0120002070470020704738B5C1
S3150800837005680C4628465AF073FAFFF7C9FF40B15C
S3150800838028465AF06FFAFF2803D02B5A002023807C
S3150800839038BD0620FCE710B5046820465AF060FA96
S315080083A0C30500D5FEE7A07810BD38B505680C46AC
S315080083B028465AF055FAC30500D5FEE7AC7038BD15
S315080083C000F44053B3F5005F04D100F44C43B3F511
S315080083D04C4F07D0B0F5804F04D380F04000C0F36F
S315080083E0801070470020704710B5C3798288B3FAA9
S315080083F083F35B095B000133934212DA00685AF093
S315080084002FFA80F480720446C2F30021FFF780FF3A
S3150800841048B98A1CC4F38123022B06D0032B17D034
S315080084202BB1FF2212E00A1DF4E70232D2B220462F
S31508008430FFF7C6FF08B10232D2B2C4F38134022C68
S3150800844008D0032C09D0002C18BFFF22104610BDF7
S315080084500832EBE70232D2B2F8E70832FBE7F8B5A2
S3150800846007680E4638465AF0FBF90546FFF7A8FF97
S31508008470D0B138465AF0F6F904462846FFF748FFC1
S3150800848008B10234E4B2C5F38125022D07D0032DC5
S3150800849008D0FF2C08D000203B5B3380F8BD02349F
S315080084A0E4B2F6E70834FBE70620F7E710B5838859
S315080084B00446022B07D900685AF0EDF918B1204690
S315080084C0BDE8104090E7FF2010BD38B505460C46BC
S315080084D0FFF7ECFFFF2817BF2B6806201B5C002060
S315080084E01CBF03F00703237038BD38B505460C4694
S315080084F0FFF7DCFFFF2817BF2B6806201B5C002050
S315080085001CBF03F01803237038BD38B505460C4662
S31508008510FFF7CCFFFF281FBF431C2A68DBB2D358DE
S315080085201ABF00202360062038BD38B505460C461C
S31508008530FFF7BCFFFF2800D1FEE72A68431CD9B223
S31508008540545452FA83F3220A5A70220C240E9A7053
S31508008550DC702B7F43F001032B7738BD00F0180041
S31508008560102805D0A0F1180358425841C00070479A
S315080085700420704708B54307024608D0FFF7EEFF08
S3150800858012F0180F0CBF05300630C0B208BDFF2028
S31508008590FCE72DE9F04F057B0788B0F8029087B015
S315080085A0031D012D04460E4647EA090B019330D0F8
S315080085B0022D0CBF0322002294F816A04BEA823B38
S315080085C0BAF1010F04F10E0825D0BAF1020F2FD027
S315080085D0BAF1000F21D1A37F94F82120003B18BFE0
S315080085E00123B9F5805F4BEAC30305D0B9F5005FEF
S315080085F021D0B9F1000F29D145B1BAF1000F05D044
S31508008600208B618B884208BF43F04003D70721D5EA
S31508008610FEE70222D0E74BF4006B5146E08959F099
S3150800862082FC0028D7D1022F18BF4BF0200BD2E7C7
S315080086304BF4406BF1E7BAF1000F40F0A080617F80
S31508008640002D40F09480002940F0A680D50748BF49
S3150800865043F48073C2F34002F07943EA422559F0A5
S3150800866059FC0023D6F80090ADF81600294604A850
S31508008670CDF81090ADF8143059F01AFDE80503D47A
S31508008680012104A8FDF7ACFD2846FFF741FE18B105
S31508008690618B04A859F00CFD04A8414659F013FD56
S315080086A02846FFF78DFE18B1218B04A859F000FD66
S315080086B0211D04A859F007FDBDF81430B380A77F23
S315080086C0A7B1E37F0DF10F011F4304A88DF80F70C2
S315080086D0FDF7FFFF3846FFF74DFF411E89B204A894
S315080086E0FDF77EFD3846FDF72BFE074694F8213048
S315080086F099070ED5022104A8FDF772FD0D23042162
S315080087004370017004A8FDF76BFD337F43F008033F
S315080087103377AA0523880ED5032B03D094F8213086
S315080087205B0714D4022104A8FDF75AFD6FF07F03F6
S3150800873003703F2343702388032B08D194F8203015
S315080087400DF10F0104A88DF80F30FDF7C2FFF3797C
S3150800875004A8B3FA83F35B0907EB430189B2FDF773
S315080087603FFDBDF81430B38007B0BDE8F08F00298F
S315080087707FF46CAF217F00297FF468AF0CE00DB958
S31508008780617FF8E7022D02D1BAF1020FF8D0208BEB
S31508008790618B88427FF45AAF43F0400356E770B5C1
S315080087A00546FFF721FEFF28044611D02E683046FD
S315080087B05AF071F860B1A9888C420BDA305DFFF780
S315080087C0D9FEFF2808D00444E4B2A142B8BFFF246A
S315080087D0204670BDFF24FBE70446F9E770B5064658
S315080087E00D46FFF763FEFF28044609D03268105C81
S315080087F0FFF7B4FE22440244002053792B7070BD63
S315080088000620FCE770B506460D46FFF74FFEFF2823
S31508008810044600D1FEE73268105CFFF79FFE22444B
S315080088200244557170BD38B5C4790546B4FA84F466
S31508008830FFF73CFE6409FF284FEA440405D02B687D
S31508008840185CFDF77DFD0444E4B2204638BD70B5DA
S315080088500646FFF7A4FFFF2804462CD035682846AD
S3150800886059F0FEFF83051BD53046FFF7DCFFB188BC
S31508008870A21C93B210FA82F28A4205EB04061CDCAB
S315080088802A5D02F07F0213449CB210FA83F39942E0
S3150800889013DB3288C2F3C7127F2A01D09942E7DC7C
S315080088A02B7803F00703032B05D1284659F0E9FF77
S315080088B008B90134A4B2E0B270BDFF24FBE738B5AD
S315080088C00546FFF7C4FFFF28044614D02868037836
S315080088D003F00703032B04D159F0D3FF08B1013481
S315080088E0E4B22846FFF79FFFAB8804449C42CCBFFE
S315080088F00620002038BD0620FCE710B50446FFF721
S31508008900A6FFFF2816BF23680020C01810BD10B5A3
S315080089100446FFF7F2FF2368C01AC0B210BD70B54F
S315080089200646C07959F0F6FA04463046FFF7EFFFD7
S3150800893005463046FFF777FF0544601B80B270BDD9
S3150800894070B505468688FFF7E2FF04462846FFF716
S315080089506AFF0444301B80B270BD70B506460C46EB
S31508008960FFF7D5FF05463046FFF75DFF05442C4463
S31508008970B48070BD10B50446006859F071FF8305D0
S3150800898003D52046BDE8104009E7FF2010BD08B50D
S3150800899056F024FD003818BF012008BD08B556F06A
S315080089A01DFD00B1023008BDF8B504460D46006845
S315080089B0E668E1792B1D221D05F1280753F804CB3B
S315080089C0BB4242F804CBF9D1E660E171AA8829686E
S315080089D064F07EFCE379EA79934209D0B3FA83F32B
S315080089E05B09002A08BF013BAA8802EB4303A38060
S315080089F0F8BD00232DE9F0419EB003930AAB089316
S31508008A000823044600680D46ADF8243059F043FFA4
S31508008A1000285CD020460DF10B01FFF756FD002813
S31508008A2055D1204603A9FFF770FD064600284ED10A
S31508008A3004AF3B46286869689DF80B8003C3039812
S31508008A40194618F026F8A3688DF81C80196808A836
S31508008A5059F015FB2046FFF7E6FEE379B3FA83F3F0
S31508008A605B09A0EB43052046FFF751FF80462046E9
S31508008A70FFF766FFEDB22B460246414608A8009767
S31508008A8051F082FA2046FFF742FF2568024629463A
S31508008A9008A8FFF700F82046FFF72FFF05462046EF
S31508008AA0FFF74EFF2A460346294608A80096FFF711
S31508008AB02FF82046FFF7B7FEA38825681B1AE91882
S31508008AC008A8FFF7B8F8237F43F0100323771EB0F2
S31508008AD0BDE8F08100232DE9F041A2B003930EAB67
S31508008AE00C930823044600680D461646ADF8343044
S31508008AF059F0D1FE30B120460DF10B01FFF7E5FC28
S31508008B0018B1082022B0BDE8F081204603A9FFF776
S31508008B10FCFC0028F5D104AF3B46286869689DF837
S31508008B200B8003C30398194617F0B3FF31680CA8E6
S31508008B308DF81C8059F0A3FA2046FFF774FEE379F6
S31508008B40B3FA83F35B09A0EB43052046FFF7DFFE84
S31508008B5006462046FFF7F4FEEDB22B46024631469E
S31508008B600CA8009751F010FA2046FFF7D0FE2668A9
S31508008B70024631460CA8FEF78EFF2046FFF7BDFEDB
S31508008B8006462046FFF7DCFE0122034631460092E0
S31508008B900CA83246FEF7BCFF08A90CA8FFF74BF84D
S31508008BA02046FFF740FEA3882668181A31182A4679
S31508008BB008A865F053FB003818BF0120C000A1E7DC
S31508008BC00B6803604B684360037883F00203037005
S31508008BD07047082208B565F041FBB0FA80F04009F5
S31508008BE008BD10B5044600680FF0B0F94FF0004311
S31508008BF0236010BDF0B5002787B0044600680E460E
S31508008C00154605970FF0A2F94FF00043012223609D
S31508008C1010231146CDE901630097AB1D05A80FF097
S31508008C2091F800B1FEE7059B236007B0F0BD082167
S31508008C300FF082B901F1080313F8012D8B4200F8F1
S31508008C40012BF9D17047F8B507680E46384659F032
S31508008C5009FE0446384659F003FE0546FFF758FB59
S31508008C6004EB4003DBB2FF2B13D0C5F381200228A7
S31508008C7005D0032807D0002300203372F8BDFB5A1D
S31508008C8033800123F8E7F9183046FFF7D3FF0223AC
S31508008C90F2E70620F2E7F8B507680E46384659F0B7
S31508008CA0DFFD0546384659F0DDFD04462846FFF740
S31508008CB02FFB08B10234E4B2C5F38123022B12D08C
S31508008CC0032B13D02846FFF77BFB08B10234E4B226
S31508008CD0FF2C06D0C5F38135022D09D0032D0DD002
S31508008CE04DB1062009E00234E4B2EBE70834FBE7AD
S31508008CF001253B5B338000203572F8BD30463919B3
S31508008D00FFF798FF0225F6E708B5044BC180002255
S31508008D10186864F05FFE00B1FEE708BD8C190020F4
S31508008D202DE9F0410446B0F86C6010F02AFFE36FB5
S31508008D30364AC11A94F8800000233230A1FB00019C
S31508008D4063F0B6FEA02794F881307E4303EB8303D5
S31508008D5000EB430000F1C80800F578752046760850
S31508008D60B54230F8843B28BF3546B04528BFB046E3
S31508008D7013F08002A16F1FD0B4F86C607E433144B3
S31508008D80491BFEF711FBA36F616F3344A367204BA2
S31508008D9072181A61A378626713F0FD0F33D094F83E
S31508008DA06E00A5F5167508EB0502491B00F07F0055
S31508008DB0BDE8F04159F0F8BC94F86E30DE090BD0E6
S31508008DC062F3C71384F86E30491BFEF7EDFA2046A6
S31508008DD0BDE8F041FDF761BB4144B4F86C50FEF7BD
S31508008DE0E3FA94F86E307D4343F0800384F86E30DE
S31508008DF00BF03CF9A26F636F2A44A267044A2B441E
S31508008E0063671361E3E7BDE8F08100BF40420F00E6
S31508008E106C1B0020F8B50446B4F86CC090F86E00D8
S31508008E208C45069DB4F8706000F07F070CD094F866
S31508008E306E0062F3060084F86E004FF6FF729142E8
S31508008E40A4F870300CD1FEE7974206D062F306000C
S31508008E509E4284F86E00F0D1F8BD9E42E7D1FBE74A
S31508008E604FF6FD72934209D815480246C16022F8AA
S31508008E70023B2B68C0F802306B68536094F86E307A
S31508008E80A4F86C106FF3C71384F86E3004F18400ED
S31508008E90FEF7E8FAB4F86C304BB110F072FE606772
S31508008EA00BF0E4F8A0672046BDE8F84038E72388C9
S31508008EB01B06D1D42046BDE8F840FDF7EEBA00BF40
S31508008EC06C1B002013B590F82030DB0717D590F8F7
S31508008ED0212002B9827A0B4C343004F6E40300935D
S31508008EE030F8121CB4F80C39FFF794FF51F00CFB5C
S31508008EF004F50B6002B0BDE8104021F0C5B802B019
S31508008F0010BD00BF584D002010B504460C30FFF7C1
S31508008F102FF808B3A27A8A4205D14FF4804051F05F
S31508008F2055FE002010BD4FF48040A17251F00FFE8F
S31508008F3004F5A8500830FFF7D7F923789B06F0D434
S31508008F40A37AE37294F8213013B92046FFF7BAFFE3
S31508008F502046FFF720F9E4E70720E3E71FB590F876
S31508008F6020300446990703F001020ED5418C61B101
S31508008F70F2B943F0010380F82030FFF7A3FF20463B
S31508008F8004B0BDE81040FFF706B98AB1002294F88C
S31508008F90203011466FF3000384F8203002AB0093AB
S31508008FA004F134004FF6FE73CDE90222FFF732FFD3
S31508008FB004B010BD0048B3E6443F0020F0B590F871
S31508008FC0B43006460D4685B000F1A40400F1B40796
S31508008FD0ABB910222146112051F08AFD60B1214615
S31508008FE0FDF7B1FF01F8010BB942F9D110236A4622
S31508008FF02146112051F088FD012386F8B4302B460E
S31508009000224603CABA4218605960144603F1080397
S31508009010F6D105B0F0BD73B514460D4606461146A1
S315080090206846FDF774FF2146BDF80230BDF80020FA
S31508009030286859F033F8044650B92B6801A9286006
S3150800904030460193FDF7B0FA0446019858F088FFB8
S31508009050204602B070BD38B5044600680D46884201
S3150800906002D058F07DFF256038BD00232DE9F04376
S31508009070804687B00E4600F52671104615460193C0
S3150800908015F083FD0746002845D07389002B42D08A
S31508009090202059F0C4F8014601A8FFF7DCFF019C1F
S315080090A0002C38D0314604A8FDF731FF4FF630734F
S315080090B0BDF81290ADF8083009F104035BBAADF8B3
S315080090C00A306B8C20465BBAADF80C302B8C02A9A3
S315080090D05BBAADF80E30FEF751FBE0B9204603A99E
S315080090E0FEF74CFBB8B94B4631462046BDF8102072
S315080090F058F0D4FF78B9102331212046EA18FEF734
S3150800910043FB40B9019005A940460594FDF74CFA82
S31508009110059858F025FF019858F022FF384607B001
S31508009120BDE8F0832DE9F3411D460023884617461E
S315080091300093064659F068F801466846FFF78BFF24
S31508009140009CD4B1B8F1060F14BFA02280220121D9
S31508009150204617F0AEFC082D00D9FEE72A46394608
S315080091602046FDF763FB40B9CDE9000401A9304666
S31508009170FDF71AFA019858F0F3FE009802B0BDE818
S31508009180F04158F0EDBE2DE9F04798464FF2BF0A78
S3150800919000248EB0074604A80E46154616F0E7FDCD
S315080091A0A8F11703012BADF832A0039400D9FEE706
S315080091B02B4632460221384617F09BFC06F1350944
S315080091C00546002849D11421012004F084FE0446EE
S315080091D0002841D080F808800760304617F0A2F9C9
S315080091E029F0010102460431607204F10A0064F0B4
S315080091F06FF8404651F0BAFA014603A8FFF72BFF6D
S31508009200DDF80C80B8F1000F26D0314602A8FDF72C
S315080092107EFE31464046BDF80A30BDF8082058F0B3
S315080092203DFF0546C8B904A82FF030FB4146154B4B
S315080092301548009404AAADF830A017F081FA05463F
S3150800924058B9D7F878326360C7F8784258F088FE7C
S3150800925028460EB0BDE8F0870325304617F062F9B8
S3150800926029F001020346294638460432FFF75AFF19
S31508009270039858F075FE002CEAD0204604F026FD27
S31508009280E6E700BF219F0008F435002038B50446FC
S3150800929000680D46884202D055F0D4FB256038BDDB
S315080092A02DE9F04FA64C042189B04FF47A70E56C8D
S315080092B0FDF777FE291804F14800FDF7ACFF636C4B
S315080092C0DD072DD5062204F5405595F8C03702FB73
S315080092D0034303F55D53203305F5EC62934240F0F2
S315080092E0058100264FF0060843F2607995F8C077A5
S315080092F0BE42C0F0018115F0ACFED5F8F41606465C
S3150800930004A858F0FAFEDFF854820499002940F0C0
S315080093100181D5F8F4361BB917B9384651F06CFDFA
S31508009320636C990708D5874D95F8B3389A0700F105
S315080093301781012051F060FD636C5E0726D54FF05A
S315080093400008814FD7F8F03E0493049A002A40F0AB
S3150800935016830125D7F8F43E0493049A002A40F0B0
S31508009360198301254FF07809D7F8FC3E0493049E2B
S31508009370002E40F01C83D7F8F85E002D40F03383AA
S31508009380B8F1000F02D1022051F036FD636C1D06BC
S315080093901ED56E4D95F89F31D3B1013BDBB285F8EA
S315080093A09F31ABB9072051F027FDA5F5804393F807
S315080093B0B138022B0CD14FF08DFF48B195F89E318C
S315080093C0052143F00203624885F89E3125F07CF8B2
S315080093D0636C18070AD5002604A804968DF814604D
S315080093E01FF0F4FA049D002D40F02883636C99065B
S315080093F026D5564D95F8E1387BB115F02AFED5F8F5
S31508009400E43803F5C333A0331B1A002BBEBF95F807
S31508009410023943F0010385F8023995F80B1995F8D6
S315080094200A29B5F80839002940F04483002A40F093
S315080094306B83002B40F07483D5F8080958F0B9FB04
S31508009440636C5A0620D5414EB6F8C03843B1013B85
S315080094509BB2A6F8C0381BB906F6BC0027F012FA6C
S31508009460D6F8BC586DB1013DC6F8BC584DB90220B6
S315080094704AF034FF3748294627F0F8FA28464BF0D1
S3150800948061FE344825F06EFA636CDB0540F15D83B6
S315080094900020034605463049A1F2A466CA787AB187
S315080094A0013AD2B2CA7032B1086806EB8302C2F832
S315080094B0A406012001330135232D01F10401EDD164
S315080094C0002104EB830404F5B5540734222B04DC8D
S315080094D014F8042B002A40F03483002840F0358322
S315080094E0082009B0BDE8F04F51F086BC1179063264
S315080094F0013902F8021CF1E608FB065393F86437B3
S315080095002BB918FB0690204455F02AFEEEE60136E4
S31508009510F6B2EBE68B69F31AB3F5FA6F0BD38B79D0
S31508009520580708BFD5F84037404604BF0133C5F889
S315080095304037FDF775FC04A8FDF737F9E5E600BFE7
S31508009540581D0020584D0020587D0020588D0020B9
S315080095500856002014960020FC3300204C540020A6
S3150800956095F8683B13B1013B85F8683B95F86A3B6B
S315080095703BB1013BDBB285F86A3B13B99D4824F041
S3150800958085FE9D4E96F8507E37B1013FFFB286F8AC
S31508009590507EB7FA87F77F0995F8B138042B00F2A1
S315080095A08680DFE803F0038404658200FEE796F808
S315080095B0FC8D002F4DD095F8643B434511D96FF0CB
S315080095C0630095F9151920F086F909281DD8542342
S315080095D003FB0848894E08F5864808F17C08B0451B
S315080095E003D1874824F022FE13E096F8363003F0BC
S315080095F00F03072B07D16FF0630096F93D1020F093
S315080096006AF9092801D85436E9E70221794824F08D
S315080096105BFFD5F87C6B7B4B9E427FF48DAEA6F53F
S31508009620317024F0F3FF784B7848C5F8843B4FF641
S31508009630FF73A5F8903B01237549C5F8800B85F89B
S31508009640983BFDF793FCC5F8880B3046FEF760F9A2
S3150800965072E6B8F1000F2AD06E482BF0CBFE95F8CB
S31508009660633B834223D801216B4827F0E7FA09E0D8
S3150800967096F8FC3DCBB167482BF0BCFE95F8633BEA
S315080096809842F0D29FB196F8FC2D95F8653B9A4220
S3150800969003D90321604827F0D1FA564824F006FE7C
S315080096A028B9544824F08EF801E0002FF5D100239C
S315080096B00493052304A88DF814304FF001081FF011
S315080096C085F9DDF81090B9F1000F33D1542396F8D7
S315080096D0FC7DDFF8289103FB074707F586477C37AB
S315080096E0A9F1040AA9F6482B4F4575D100234B4921
S315080096F011F8012F013350B20028C8BF02F1FF321A
S31508009700DBB2C8BF0A703F2BF2D195F8B138042BEB
S315080097100DD140482BF06EFE092808D996F84C3E24
S31508009720013386F84C3E15F094FCC6F8480E4AF00C
S3150800973019FC01E699F8363003F00F03072B39D8E0
S3150800974008FA03F313F0C60F06D113F0110F2DD143
S3150800975013F0280706D0FEE74FF47A72D9F8783066
S3150800976002FB03F709F160001FF022F898B115F023
S3150800977070FC4FF47A72D9F86C30C01AD9F8643094
S315080097805343984207D399F860306FF3C71389F8A3
S31508009790603055F003FB15F05CFCD9F81430C01A9C
S315080097A0B84209D34946134825F026FD04A81FF0F8
S315080097B0EBF886E70027D5E795F8B10858F0C0F822
S315080097C00028F3D099F8363003F00F03012BEDD1BA
S315080097D048465AF0B5FEE9E7B9F83410B5F8B428A2
S315080097E091421DD115F035FCC9F8140009F1540948
S315080097F07AE700BF08560020585D0020D460002094
S3150800980008580020CC580020F09C090090B20800A7
S31508009810F19C0900D0600020405700205F6B0020B3
S3150800982015F017FCD9F81420AB4BA0EB0208B9F8D1
S315080098305220012A82BF02F57F42FE32A9F8522041
S3150800984099F83620984502F00F023AD999F852103D
S31508009850072A6FF3000189F8521038D195F8B12814
S31508009860022A07D101219D482BF0D6FD95F8692BD0
S3150800987082424FD309F10C0104A81AF018FA1A21EA
S31508009880974804AA20F0F0FB40B999F8512012F045
S315080098900C0F04BF42F0030289F8512099F85120B1
S315080098A0930714D0D11C61F3010289F851204FF4B3
S315080098B07A7051F023F849460246894820F011FC8F
S315080098C005E0072A03D195F8B128022A34D199F878
S315080098D0362002F00F02052A2ED109F10C0104A840
S315080098E01AF0E5F91A21584604AA20F0BDFB18BB60
S315080098F099F8512012F00C0F19D099F85110C1F3AC
S315080099008102033202F0030262F3830189F85110DF
S31508009910BAB90CE0734A9045D9D909F10C0104A8E3
S315080099201AF0C5F91A216E4804AA20F0F9FB49462F
S315080099306D4825F061FC59E799F8512012F00C0F93
S31508009940DBD195F8B128042A7FF450AF504699F830
S3150800995050102BF0F7FC00287FF448AF484655F026
S315080099609FF80F287FF642AF604A90457FF63EAFD4
S31508009970B9F834105948890A2BF0F6FC36E7D37C37
S3150800998004A83F2B82BFC033D3744FF001081EF0E2
S31508009990B8FEDAE4938A33B1013B9BB2938203B9EA
S315080099A015764FF0010804A81EF0ABFED5E4B38A7D
S315080099B053B1013B9BB2B38223B9737E43B9757623
S315080099C0A6F814904FF0010804A81EF09AFECEE4FB
S315080099D0F28A53080F2B38BF0F239A42F2D0F3822C
S315080099E07823B382EEE7AB8A03B9FEE7013B9BB265
S315080099F0AB82FBB9EB8A4FF00108AB825B009BB2E6
S31508009A00782B28BF782331463948EB82A5F8188089
S31508009A1058F07AF9294637481EF05DFE0221284695
S31508009A2054F066FB002E3FF4A6AC30461EF07AFDD5
S31508009A300546A2E42E464FF00108F6E795F83630BB
S31508009A407F2B33D8B5F8C02082B3B5F8C2300133BE
S31508009A509BB29A42A5F8C23028D8B5F85630029675
S31508009A60C3F30D03FBB90121234A022059F0B6FBC3
S31508009A70014602A8FFF70AFC029FA7B11F4B204A1E
S31508009A80EB1ADB10534338460DF10601ADF80630E4
S31508009A90FDF777FE38B9CDE9020703A859F05CFD52
S31508009AA0039854F0CFFF029854F0CCFF04A81EF098
S31508009AB06BFF97E40139C9B285F80B1900297FF4C1
S31508009AC0B5AC42BB23B1013B9BB2A5F8083973B3C9
S31508009AD00C48FDF753FBAFE49F860100D0600020D9
S31508009AE08C560020EF490200085600208F5F0100BF
S31508009AF0508C0020548C0020742807080059002038
S31508009B00295C8FC220960020013AD2B285F80A292C
S31508009B10002AD7D08DE4013AD2B285F80A29D1E7CE
S31508009B20013B9BB2A5F80839002B7FF485AC95F864
S31508009B30E13813B1012385F8E1380548FEF7D4FB6F
S31508009B40C6E704F8041C0133C0E409B0BDE8F08F89
S31508009B50669600202822002163F09BB92DE9F04182
S31508009B60037805468CB0002B41D0244BDB6893F86C
S31508009B70801A01293BD1DFF88C80B8F8D47207F532
S31508009B808076B6B2304604F0A6F9044600B9FEE778
S31508009B9031460DF106024BF05BFF00B1FEE75FB1FF
S31508009BA0BDF80660B8F8D422A019D8F8D0123E44F9
S31508009BB063F08EFBADF8066002A8FFF7CBFF2846D8
S31508009BC0FCF7E3FC0E4B039004936B7893B12B8C54
S31508009BD00022ADF82230BDF8063002A811460794D7
S31508009BE0ADF820304FF020FD204604F06FF80CB099
S31508009BF0BDE8F0814FF44043EAE700BF80BC00208F
S31508009C0001290708588D002010B5074C94F8D8325A
S31508009C104BB104F53670FFF7A1FF04F53070BDE8C7
S31508009C20104016F0E7B910BD588D002010B50C4B42
S31508009C300446DB688AB093F8803A012B0ED190F877
S31508009C40B5305BB16846FFF785FF2046FCF79DFCFB
S31508009C50044B0190684602934FF0A9FD0AB010BD67
S31508009C6080BC00200129070830B505780446A942BA
S31508009C708BB029D000F8B41BFDF780FA2378023D93
S31508009C80023B022B8CBF00230123022D8CBF00252B
S31508009C900125AB4218D0104BDB6893F8803A012BAC
S31508009CA012D16846FFF756FF0C48FCF76EFC0C4BC2
S31508009CB001900293238CADF81A302378023B022BCD
S31508009CC004D968464FF073FD0BB030BD00226846D4
S31508009CD011464FF0A9FCF7E780BC00203090002021
S31508009CE00F2907082DE9F84F9A4603780446012BF1
S31508009CF089461746394E63D121214846FDF7A9F909
S31508009D00831F9BB21A2B804661D82379344A13F0F5
S31508009D10040FC3F38001334B0AD0C4E92324C4E9F2
S31508009D2025341825D6F8EC330133C6F8EC3340E071
S31508009D300A2020812C4804F1100BC4E92104C4E947
S31508009D4023245846C4E925341EF08EFB054698BBE5
S31508009D50237943F00403237123896381D4F89C3063
S31508009D60002BDED1E3685BBB5146584623F0AAF8C0
S31508009D70054608BB4246494604F1480063F0A8FA7E
S31508009D801A4B04F1A800002F08BF1F46184B394686
S31508009D909F4228BF194684F806806571FDF74BFA7D
S31508009DA002212046FFF760FFD6F8D0330133C6F804
S31508009DB0D0332846BDE8F88F072D08D00D2DB1D130
S31508009DC0D6F8E4330D250133C6F8E433F1E7D6F8BF
S31508009DD0E83307250133C6F8E833EAE7588D00204B
S31508009DE06B6500085F7300086D9E0008C0D401000B
S31508009DF0C027090038B503780446012B0D4615D946
S31508009E000121FFF731FF04F1A800FDF743FA201DF1
S31508009E101CF00FF80722074B013A07D01978A94218
S31508009E2005D15A6804498B5801338B5038BD08331D
S31508009E30F2E700BF202907082891002038B5044614
S31508009E400D46037841B16BB90121FFF70DFFBDE857
S31508009E5038400548FDF792B923B1FFF7CBFF2946ED
S31508009E602046F2E738BD00BF209000200421C1E754
S31508009E7005210148BEE700BF6891002070B50E466F
S31508009E800546234CD0B94CF2503106F51F70FDF744
S31508009E90D2F9D4F8B4349E420AD1032104F582607B
S31508009EA0FFF7E2FED4F8F0330133C4F8F03370BD9F
S31508009EB0D4F8FC330133C4F8FC33F8E7154801F548
S31508009EC023711EF0F8F908B9C6F88C0206F5267053
S31508009ED050F096FBD4F8B4349E4211D194F810345D
S31508009EE0033B012BE3D8013DEDB2042D97BF0A4B86
S31508009EF006215B1993F8A0100848BDE8704079E779
S31508009F00042D02BFD4F800340133C4F80034CEE778
S31508009F10588D0020F4330020B028070868910020E7
S31508009F202DE9F04306680F46D6F878121C4600233A
S31508009F3005460A4685B00293002A65D1002C40F0F2
S31508009F40918058F061F9014602A8FFF784F8DDF818
S31508009F500880B8F1000F00F09E802A7A07F13509CB
S31508009F6029F00109182A99F8013043D1442B41D127
S31508009F70102138460DF10702FDF797FB0446002825
S31508009F8070D19DF80730012B34D10B21384603AA2E
S31508009F90FDF7A0FB0446002864D1BDF80C2006F5A1
S31508009FA0267402F00702A2F57472404992B220465E
S31508009FB019F0BDFE204650F055FB3D4A06F52371C3
S31508009FC0D2F89C06034653BBC6F88C02C2F89C1608
S31508009FD00123384C86F87432D4F8B4349E4222D120
S31508009FE0042104F58260FFF73FFED4F8F833013305
S31508009FF0C4F8F83399F801200121404616F059FDB6
S3150800A0006A7A082A15D9FEE7954246D01346526859
S3150800A01092E75A68002A91D052685A608EE79942A8
S3150800A020D6D01B68CFE7D4F804340133C4F8043417
S3150800A030E0E7404605F10A01FCF7F8FB044688B953
S3150800A0407A89BB899A4216D800233A46304603A92C
S3150800A050CDF80C800293FEF7DEFF0446039857F00E
S3150800A0607FFF7CB1304621466B7A05F10A02FFF77D
S3150800A07059F8029807E0404616F074FF044600288F
S3150800A080E2D0EFE7204657F06BFF284605B0BDE85B
S3150800A090F04303F01BBE0324E4E7002BB9D10029E3
S3150800A0A03FF44CAF4B68C6F8783247E74058002073
S3150800A0B0582D0020588D00200A4690F8FE10FDF70E
S3150800A0C041BB002910B514BF33210E211446FFF7F2
S3150800A0D0F3FF38B1D0F802302360D0F806300020FC
S3150800A0E0636010BD1720FCE7F8B5044618300D4626
S3150800A0F0FDF7D0F84FF0FF3323746374A374E37449
S3150800A10023756375A375E37523726372A372E3728D
S3150800A11023736373A373E37395F8FE30DBB12646A6
S3150800A1206378284643F00103637016F8087B3246C5
S3150800A1303946FFF7C6FF28B996E8030004F110036D
S3150800A14083E8030017B9284650F058FD2078BDE883
S3150800A150F84057F0BFBEF8BD2DE9F04107468846DE
S3150800A1600326194D86B0013E02D106B0BDE8F0813E
S3150800A1703B78E3B96B7803F50033404629780593B5
S3150800A180FFF79AFF0446E0B14278D2B1FF2A0CBF26
S3150800A1900423022303440292019300220123114659
S3150800A1A0009305A80DF0CEFD014610B1FEE7AB7889
S3150800A1B0E1E76278FF2A0CBF04200220204462F0FF
S3150800A1C068FE0335CFE700BF5529070870B50D4669
S3150800A1D0C2B00446FCF7ACF995F8FE604EBB23788E
S3150800A1E04FF0FF31002B14BF0220012050F0C1FBB5
S3150800A1F0637866F3000322466370284612F8081B44
S3150800A200FFF75FFF48B14FF0FF3323726372A37203
S3150800A210E37223736373A373E37314F01AFF23784B
S3150800A2206060012B1ED1284642B0BDE870404FF051
S3150800A23089B901A857F056FE3246294601A863F0A7
S3150800A24047F8D5F80031204601A941938DF80261F7
S3150800A250FFF782FF207801A950F07CFB637843F072
S3150800A2600103C8E742B070BD70B50C460546C2B0DA
S3150800A27001A857F037FE94F8FE602146324601A839
S3150800A28063F026F8D4F80031284601A941938DF8E1
S3150800A2900261FFF761FF287801A950F05BFB42B025
S3150800A2A070BD10B591F8FE200446FF2A09D080F843
S3150800A2B0FE2063F00DF814F0CCFEC4F8000100206F
S3150800A2C010BD0720FCE72DE9F8430F46984690F89D
S3150800A2D0FE4005461646FFF7EFFEC4F1FE040146AA
S3150800A2E0A4B208F1020918B94C450AD2032021E0A4
S3150800A2F0437802331C44A4B24C45F7D32846FCF7EE
S3150800A3005FF895F8FE30B8F1FF0F994405EB0300A6
S3150800A31085F8FE90EF5414BF0223042342463146C3
S3150800A32080F80180184462F0D3FF14F092FEC5F855
S3150800A33000010020BDE8F88313B50446084614F06A
S3150800A34093FF04230190342120460DEB0302FFF707
S3150800A350BAFF02B010BD10B50446FFF7ADFE0146C0
S3150800A36020B12046BDE81040FCF72AB810BDD0F849
S3150800A370020000BA70472DE9F74F0C460021FE226D
S3150800A38084F8FE10037805468B42ADF8042018BF02
S3150800A3900220224608BF012001AB50F031FB0746D8
S3150800A3A0002842D1BDF80430FE2B3DD88146324EF6
S3150800A3B084F8FE3006F1060B2B78002B39D196F877
S3150800A3C001A020463178FFF777FE804698B142789B
S3150800A3D08AB1FF2A0CBF0421022101AB01440AF508
S3150800A3E000300DF06FFD38BB98F80120019B9A42AA
S3150800A3F018BF4FF0010903365E45DDD1B9F1000FEC
S3150800A40003D021462846FFF72FFF2B78BBB9332107
S3150800A4102046FFF7A0FF34212046FFF79CFF14F0E3
S3150800A42018FEC4F8000100E01727384603B0BDE857
S3150800A430F08F96F802A0C4E74FF00109DBE7342154
S3150800A4402046FFF739FE06460028EED0FFF78FFFB5
S3150800A4500A4B6D68984228BF1846804614F0F9FDE5
S3150800A460431B98458ABF2D1A002005EB0800B11C2E
S3150800A47016F00FFBD3E700BF552907080014730F22
S3150800A48030B50446C3B001A857F02CFD01A92046F3
S3150800A490FFF771FF054601A92046FFF725FE284666
S3150800A4A043B030BDF0B5D5B00C46054613A81646E0
S3150800A4B057F018FD00230D21204601AA8DF84830D3
S3150800A4C0FDF773F860B9BDF80630ABB99DF84830AA
S3150800A4D033B12B78012B03D1342102A8FBF745FFB2
S3150800A4E0284613A9FFF747FF20464AF089FD054687
S3150800A4F0002845D1002525E001230DF1030201A915
S3150800A5002046FCF759FA9DF8031002A8FBF72DFF21
S3150800A510012101A8FCF70CFDD5E79DF84820A2B952
S3150800A52026BB2378052B21D197F8AA31DB071DD442
S3150800A5302046FCF7ABFF04469DF84A3113AA13449C
S3150800A5409C42EAD3284655B0F0BD02AB21781A449E
S3150800A5509A421846ECD0007801338842F8D12EB9D1
S3150800A560052903D1084B93F8AA31DFE72946204687
S3150800A570FCF792FF0028DBD02846FCF78AF9B9E7F2
S3150800A580014F13ACD8E700BF583D00202DE9F04134
S3150800A59006468EB0084614461F462BF06FFC102858
S3150800A5A005460FD80A2840F2FB80A0F10B03052BBD
S3150800A5B000F2F680DFE813F08A00F400F4001A00CF
S3150800A5C08A0012001F284FF0000022D0212D00F02B
S3150800A5D099801A2D5CD00EB0BDE8F08118233A4652
S3150800A5E021463046FEF7CFFD0120F4E796F874328F
S3150800A5F0002BF9D017233A4621463046FEF7C3FD0D
S3150800A6000028F1D14CF2503106F51F70FCF713FE05
S3150800A610EAE74FF2BF06029004A815F0A8FB204609
S3150800A620ADF8326016F074FC70B31421204601AA06
S3150800A630FDF750F840BB284657F0F1FD014602A841
S3150800A640FEF709FD029DFDB1214603A8FCF75FFC54
S3150800A65021462846BDF80E30BDF80C2057F01EFDE1
S3150800A66090B9BDF8044004A82EF00AF922464D49CF
S3150800A67008A819F05CFB29464B4804AAADF83060D7
S3150800A68016F08CF900B90290029857F069FCABE70E
S3150800A6900122214603904548FFF704FF014603A817
S3150800A6A0FEF7D9FC424AD2F80C340133C2F80C340E
S3150800A6B0039B4BB104930023304604A90393FBF78D
S3150800A6C073FF049857F04CFC0398DEE700230F2825
S3150800A6D003930FD0012221463648FFF7E3FE0146D1
S3150800A6E003A8FEF7B8FC324AD2F808340133C2F898
S3150800A6F00834DDE720464AF0A7FC014603A8FEF722
S3150800A700AAFCD5E7019004A815F031FB30212046B4
S3150800A71002AAFCF74AFF00283ED10423204603AAD2
S3150800A72002A9FCF749F9B8BB042102A8FCF700FC0A
S3150800A730BDF80C7087B3BDF80E506DB31E490820DE
S3150800A74058F094FD014601A8FEF7A0FDDDF8048047
S3150800A750B8F1000F20D021464046BDF80A30BDF8B2
S3150800A760082057F09BFCB8B906F5267104A87FBAED
S3150800A770ADF830706DBA15F0C5FE102331212046AC
S3150800A78008AAADF83250FCF7CDFF28B9404604A90F
S3150800A7904EF05CFF00B90190019854F053F923E795
S3150800A7A0002018E740580020F4350020103E00200D
S3150800A7B0588D0020E43D0020742807082DE9F04351
S3150800A7C00546D3B002A815F0D2FAAC6CACB16B6CE6
S3150800A7D005F13C069E4210D161893C233C3989B279
S3150800A7E002AA2046FCF7DDF814F033FC0C99401A4F
S3150800A7F0002805DA3046FCF70EFD53B0BDE8F083B5
S3150800A800214605F14800FCF70BFB01220DA9254856
S3150800A810FEF7F0F90023244F11A8C7F8A43157F022
S3150800A82061FB15204FF0A2FF0446002834D003220E
S3150800A830837911A962F3C603837107F18C00FFF7C8
S3150800A8409AFD30BB4FF00908DFF86890B8F10108A7
S3150800A85014D106212046D7F82421FCF7E1FFC0B918
S3150800A8602946124857F04EFC2146104B10480095D1
S3150800A87002AA15F065FF0028BFD00AE019F8011BE7
S3150800A88011A8FFF719FC20B12146FCF705FE0028A0
S3150800A890DCD02046FBF7FDFF00213046FCF7CBFC59
S3150800A8A0ABE700BFEC3E0020583D0020B9A80008E1
S3150800A8B0F43500205B29070880E701487EE700BFDA
S3150800A8C04895002070B50C460546C2B001A857F059
S3150800A8D009FBFF220021204662F0DBFA284601A97F
S3150800A8E0FFF749FD054640B99DF802612046324604
S3150800A8F001A962F0EDFC84F8FE60284642B070BDFE
S3150800A90070B504464FF0FF352646437805746FF355
S3150800A9100003437045748574C5740575457585755A
S3150800A920C575057245728572C5720573457385735B
S3150800A930C573FBF7FDFD16F8183B2946002B14BF17
S3150800A9400220012050F015F83046FCF7A3FC2378C6
S3150800A950012B02D10348FCF79DFC2078BDE8704026
S3150800A96057F0B8BA3C3E00202DE9F04180460E4625
S3150800A97018F8105B04462946174630464246FFF744
S3150800A980A0FB0543EDB28DB1404604F1080118F06D
S3150800A9909DF9002811DD31462046FFF717FC4AF0DD
S3150800A9A083FE207857F096FA002004E0304650F0EF
S3150800A9B025F90028E8D0BDE8F081002FEBD1002862
S3150800A9C0EFD041F2883104F11800FCF734FCE8E7CF
S3150800A9D038B515460022FFF765FD044650B1014615
S3150800A9E02A46054815F0DAFF20B12046BDE838406A
S3150800A9F0FBF74FBF38BD00BFF43500202DE9F04105
S3150800AA009CB0804601A80C461F461546229E15F0A6
S3150800AA10AEF94FF2BF03ADF8263000238DF86C303F
S3150800AA2023781BB10E210BA8FBF79FFC63781BB19B
S3150800AA3033210BA8FBF799FCA3781BB105210BA8BA
S3150800AA40FBF793FCE3781BB103210BA8FBF78DFCFE
S3150800AA5023791BB102210BA8FBF787FC63791BB18D
S3150800AA6007210BA8FBF781FCA3791BB134210BA89E
S3150800AA70FBF77BFCE3791BB101210BA8FBF775FCFF
S3150800AA80237A1BB100210BA8FBF76FFC237B1BB1B4
S3150800AA904A210BA8FBF769FC637A1BB104210BA8B2
S3150800AAA0FBF763FCA37A1BB10C210BA8FBF75DFC33
S3150800AAB0E37A1BB135210BA8FBF757FC2F44BD429F
S3150800AAC01BD198F80030002B14BF1A200B204FF02A
S3150800AAD04DFE054638B39DF86C30A3B901A82DF094
S3150800AAE0D5FEDEB92946114801AA15F057FF0446D6
S3150800AAF080B920461CB0BDE8F08115F8011B0BA8EB
S3150800AB00FBF733FCDBE70D210BAAFCF73DFE0446F9
S3150800AB100028E3D02846FBF7BCFEEAE7314601A841
S3150800AB2014F09EFEDEE70324E3E700BFF4350020B9
S3150800AB3030B50446C3B001A857F0D4F9204601A998
S3150800AB40FFF719FC044668B9074D15F8011B01A85B
S3150800AB50FFF7B2FA20B10134E4B2052CF5D1012091
S3150800AB6043B030BD0020FBE76329070810B50C4643
S3150800AB700E21FFF7A1FA38B1D0F802302360D0F8D9
S3150800AB8006300020636010BD1720FCE770B500F1A1
S3150800AB90080604460D46C4B03146103018F096F83B
S3150800ABA0002821DA237883B903A857F09BF903A96B
S3150800ABB00E48FFF7E0FB01A903A8FFF7D7FF20B966
S3150800ABC0314601A818F082F870B129462046FBF7ED
S3150800ABD09FFF032808D141F2883104F1180044B0D8
S3150800ABE0BDE87040FCF727BB44B070BD103E00209E
S3150800ABF043789B0706D4044B93F8B138023B012BE4
S3150800AC0000D8C3E7704700BF584D002038B5044642
S3150800AC100D46FFF7DBFA104B93F8B138032B07D82C
S3150800AC20012B13D86BB12078BDE8384057F052B9DC
S3150800AC30042BF8D129462046FFF756FA4AF034FD88
S3150800AC40F1E729462046FFF74FFAECE72946204662
S3150800AC50FFF7CEFFE7E700BF584D002010B50446C2
S3150800AC60C2B001A857F03EF9204601A9FFF783FBB9
S3150800AC7018B9204601A9FFF7BBFF42B010BD01482D
S3150800AC80ECE700BFE43D00200048E7E7103E00205F
S3150800AC9010B50C460521FFF70FFA50B12146831C63
S3150800ACA0123053F8042B834241F8042BF9D10020C3
S3150800ACB010BD1720FCE7082208B563F0CFFAB0FAF2
S3150800ACC080F0400908BD38B504460D46FFF7F3FF86
S3150800ACD028B1BDE838404FF400304FF077BF2B68F5
S3150800ACE04FF4003023606B686360BDE838404FF06E
S3150800ACF02EBF07B590F85230DB0704D5B0F85000E0
S3150800AD0003B05DF804FB122106480DF1060224F093
S3150800AD1042FF18B14FF47A73ADF80630BDF8060055
S3150800AD20EEE700BF6C8D0020F8B5154E044696F880
S3150800AD30B3389B0723D54AF065FAA78AA0B12046FF
S3150800AD40FFF7D7FF0546D7B90434022120461DF080
S3150800AD508BFB2946204622F0B5F82946A6F6E6607A
S3150800AD60BDE8F84013F0CCBE4FB13946A6F6E6600A
S3150800AD7013F0E4FE201DBDE8F8401DF06BBBF8BDDE
S3150800AD80584D0020F0B50546007840B30A88C6003D
S3150800AD90F6B2B2FBF6F3012706FB1322431EDCB21A
S3150800ADA0C2F3C403E31A55FA83F35B7802F0070289
S3150800ADB007FA02F213EA020011D04B88B3FBF6F247
S3150800ADC006FB1233C3F3C402A41A55FA84F003F03F
S3150800ADD007039F4043783B4214BF01200020F0BD83
S3150800ADE041F2210337B50C460546014601A80193F1
S3150800ADF04AF0BEFD48F205032080294601A80193C2
S3150800AE004AF0B6FD608003B030BD30B50546C3B024
S3150800AE1008A80C4657F0B2F808A8FDF711F808225A
S3150800AE20294608A8FDF71AF8694608A8FDF73CF868
S3150800AE306B4603CB20602378616043F002032370DE
S3150800AE4008A857F091F843B030BD2DE9F0470446FD
S3150800AE509946254B8CB0186890469A889B7902903B
S3150800AE6020460F460DF1080AADF80C208DF80E3075
S3150800AE70FCF77AF9A8B34FF480712046FCF7E9F895
S3150800AE80064611213846FCF7E4F8B31F9BB2F92BA6
S3150800AE90C5B226D8102D24D8102200210DF11E0087
S3150800AEA061F0F7FF9AE80300D8F800302A46CDF893
S3150800AEB01630D8F804300490ADF814100DF11E00C1
S3150800AEC03946CDF81A3062F003FA31462046CDF8F5
S3150800AED0009005F10E0304AA56F06DF90CB0BDE812
S3150800AEE0F0870720FAE700BF1142070813B50446A2
S3150800AEF068461EF065F8638862785BBA022AADF880
S3150800AF00003000D1FEE7023AD2B2022A28BF022256
S3150800AF106846211D1EF0D6FA0020009B9AB262F3FD
S3150800AF200F001B0C63F31F4002B010BD00232DE970
S3150800AF30F3410B60438904460E46002B33D01D4F60
S3150800AF40608988B301282ED06068218978B30223E6
S3150800AF506A46FBF708FD6D466B78628903F10208BD
S3150800AF60424520D32A78C2B9042B1CD1606828B17F
S3150800AF7006236A4604F10801FBF71EFDD5F8020010
S3150800AF8014F072F9FBF705FA2B78002B0CBF3B4639
S3150800AF9000231840336803433360414604F1080030
S3150800AFA0FBF7C6FFCCE7062002B0BDE8F0812568AE
S3150800AFB00D44D1E700F8FF071FB500230293ADF84B
S3150800AFC00C30831C0193437801A8ADF80E30FFF7C7
S3150800AFD0ADFF05B05DF804FBF7B590F8FE30054601
S3150800AFE0FF2B00EB03065CD1062003B0F0BD6178A9
S3150800AFF0FF29F9D0A71CBE42F6D32046FCF746FA2D
S3150800B0008642F1D323780E2B0BD80E2B10D8DFE807
S3150800B01003F0213E442E42420F440F0F0F0F340F08
S3150800B0204400352B2CD013D8332B36D0342B36D0BE
S3150800B030611B2846227889B2FCF784FB0028D3D105
S3150800B0402046FCF723FA0446B442D0D30020CCE7C6
S3150800B0504A2BEDD10229C7D9A378002BC4D1B4F85D
S3150800B06003305BBA0B3B9BB20F2BE1D9BCE73846E2
S3150800B070FBF7DCF90028DBD1B6E70229D8D8B3E715
S3150800B080204601A9FFF798FF0028D1D0ACE7022394
S3150800B0909942CDD2A8E71023FAE70823F8E7042354
S3150800B0A0F6E70446D0E730B50C46C3B0054601A816
S3150800B0B056F018FF214601A8FFF7F3F818B1072440
S3150800B0C0204643B030BD01A8FFF786FF0446002896
S3150800B0D0F5D1284601A9FFF799FDF1E730B585B006
S3150800B0E00C466A4635210546FCF75FFA38B9009BD7
S3150800B0F0CDE90105214601A80393FFF717FF05B01F
S3150800B10030BD002310B5044683710948084058B17C
S3150800B110237004236370FBF73CF914F0A5F80623A3
S3150800B120C4F80200A37110BD002AF1D1FBE700BFE5
S3150800B13000F8FF0773B591F8783005460C465BB101
S3150800B140684617F08DFD08236A460E212846FFF744
S3150800B150BAF8002840F0B48094F879306BB16846A4
S3150800B16004F1100117F07CFD08236A4633212846AE
S3150800B170FFF7A9F8002840F0A38094F87E30002B4A
S3150800B18040F0978094F880307BB10021B4F85A30AB
S3150800B1906A465BBAADF80130284603238DF80010DD
S3150800B1A0FFF791F8002840F08B8094F884307BB143
S3150800B1B00022B4F85C308DF800205BBAADF8013097
S3150800B1C06A4603234A212846FFF77DF8002877D1E7
S3150800B1D094F883306BB100226846616FFFF791FFE0
S3150800B1E06A46352128469DF80630FFF76CF8002890
S3150800B1F066D194F87C30002B64D194F87D3043B145
S3150800B20008230721284604F14902FFF75CF80028BD
S3150800B21056D194F87A3043B110230521284604F113
S3150800B2202002FFF750F800284AD194F87B3063B122
S3150800B23004F1300611213046FBF70BFF3246C3B244
S3150800B24003212846FFF73FF8D0BB94F87F305BB15F
S3150800B250B4F858306A465BBAADF8003001210223CB
S3150800B2602846FFF730F858BB94F881303BB11023D5
S3150800B2700421284604F15E02FFF725F800BB94F87E
S3150800B2808230A3B1204640F20C43ADF8003030F8C6
S3150800B2906E3F01A95BBAADF802304EF06AF8042396
S3150800B2A00C2128460DF10202FFF70DF840B90020DF
S3150800B2B006E02846616DFFF73FF800283FF462AFC5
S3150800B2C002B070BD08230221284604F14102FEF7A8
S3150800B2D0FAFF002891D0F3E7F0B5C3B00F4605464C
S3150800B2E001A81C46164656F0FDFD0023394601A85E
S3150800B2F08DF80231FFF71EFF9DF802012318FE2B79
S3150800B30015D801AB22463146184461F0E1FF9DF895
S3150800B310023128461C4401A98DF80241FBF7F8FBC7
S3150800B32018B9489B6B62499BAB6243B0F0BD0320DA
S3150800B330FBE773B56E46054603C986E803009DF824
S3150800B3400410FBF786FEC4B2102C10D829463046E6
S3150800B3508DF8044017F038FB08B12B5D4BB1304629
S3150800B360294617F02BFB0020285502B070BD072090
S3150800B370FBE71820F9E7F7B50C46064688220021B0
S3150800B380204661F086FD354696F8FE3033449D42E8
S3150800B39001D303B0F0BD2B780E2B0BD80E2B11D88A
S3150800B3A0DFE803F0338A5079A568105C1010101096
S3150800B3B0B4102000352B31D009D8332B00F0848007
S3150800B3C0342B37D02846FCF761F80546DCE74A2BCC
S3150800B3D0F8D10122B5F8033084F884205BBAA4F8C2
S3150800B3E05C30EFE70123A81C84F8783017F064FC7A
S3150800B3F0C4E900012B895BBAC3F34E0323812B8969
S3150800B4005BBA03F00103A372DCE70122B5F8033047
S3150800B41084F880205BBAA4F85A30D3E769462846F0
S3150800B420FFF7CAFD0028CDD1012384F88330009B9D
S3150800B4306367C7E72846FEF79AFF0123606584F825
S3150800B4407E30BFE7012384F87C30D5F80230C4F893
S3150800B4504130D5F80630C4F84530B3E7012384F8FF
S3150800B4607D30D5F80230C4F84930D5F80630C4F82E
S3150800B4704D30A7E7012304F1200784F87A3005F157
S3150800B480120CAB1C3A4618685968083303C2634560
S3150800B4901746F7D196E7012384F87B306B78AA1C08
S3150800B4A0102B28BF1023694604F1300000928DF84E
S3150800B4B00430FFF73EFF85E701226B8884F87F207A
S3150800B4C05BBAA4F858307DE70123A81C84F87930C4
S3150800B4D017F0F2FBC4E904012B895BBAC3F34E03E8
S3150800B4E023832B895BBA03F00103A3766AE701235A
S3150800B4F004F15E0284F8813005F11201AB1C53F8A1
S3150800B500040B8B4242F8040BF9D15BE72846FFF798
